{
	"nft-loans/contracts/nft-loan.sol": {
		"NGT": {
			"abi": [
				{
					"inputs": [
						{
							"internalType": "address",
							"name": "_owner",
							"type": "address"
						},
						{
							"internalType": "address",
							"name": "_nftContract",
							"type": "address"
						},
						{
							"internalType": "address",
							"name": "_fund",
							"type": "address"
						}
					],
					"stateMutability": "nonpayable",
					"type": "constructor"
				},
				{
					"anonymous": false,
					"inputs": [
						{
							"indexed": false,
							"internalType": "address",
							"name": "owner",
							"type": "address"
						},
						{
							"indexed": false,
							"internalType": "address",
							"name": "spender",
							"type": "address"
						},
						{
							"indexed": false,
							"internalType": "uint256",
							"name": "value",
							"type": "uint256"
						}
					],
					"name": "Approval",
					"type": "event"
				},
				{
					"anonymous": false,
					"inputs": [
						{
							"indexed": false,
							"internalType": "uint8",
							"name": "status",
							"type": "uint8"
						}
					],
					"name": "ChangeMarketStatusEvent",
					"type": "event"
				},
				{
					"anonymous": false,
					"inputs": [
						{
							"indexed": false,
							"internalType": "address",
							"name": "owner",
							"type": "address"
						},
						{
							"indexed": false,
							"internalType": "address",
							"name": "spender",
							"type": "address"
						},
						{
							"indexed": false,
							"internalType": "uint256",
							"name": "value",
							"type": "uint256"
						}
					],
					"name": "Transfer",
					"type": "event"
				},
				{
					"inputs": [
						{
							"internalType": "address",
							"name": "_owner",
							"type": "address"
						},
						{
							"internalType": "address",
							"name": "_spender",
							"type": "address"
						}
					],
					"name": "allowance",
					"outputs": [
						{
							"internalType": "uint256",
							"name": "remaining",
							"type": "uint256"
						}
					],
					"stateMutability": "view",
					"type": "function"
				},
				{
					"inputs": [
						{
							"internalType": "address",
							"name": "_spender",
							"type": "address"
						},
						{
							"internalType": "uint256",
							"name": "_value",
							"type": "uint256"
						}
					],
					"name": "approve",
					"outputs": [
						{
							"internalType": "bool",
							"name": "success",
							"type": "bool"
						}
					],
					"stateMutability": "nonpayable",
					"type": "function"
				},
				{
					"inputs": [
						{
							"internalType": "address",
							"name": "_owner",
							"type": "address"
						}
					],
					"name": "balanceOf",
					"outputs": [
						{
							"internalType": "uint256",
							"name": "balance",
							"type": "uint256"
						}
					],
					"stateMutability": "view",
					"type": "function"
				},
				{
					"inputs": [
						{
							"internalType": "address",
							"name": "_recommender",
							"type": "address"
						}
					],
					"name": "bindRecommender",
					"outputs": [
						{
							"internalType": "bool",
							"name": "",
							"type": "bool"
						}
					],
					"stateMutability": "nonpayable",
					"type": "function"
				},
				{
					"inputs": [],
					"name": "decimals",
					"outputs": [
						{
							"internalType": "uint8",
							"name": "",
							"type": "uint8"
						}
					],
					"stateMutability": "view",
					"type": "function"
				},
				{
					"inputs": [
						{
							"internalType": "uint256",
							"name": "_tokenId",
							"type": "uint256"
						}
					],
					"name": "depositNFT",
					"outputs": [],
					"stateMutability": "payable",
					"type": "function"
				},
				{
					"inputs": [
						{
							"internalType": "address",
							"name": "",
							"type": "address"
						},
						{
							"internalType": "uint256",
							"name": "",
							"type": "uint256"
						}
					],
					"name": "loans",
					"outputs": [
						{
							"internalType": "uint256",
							"name": "tokenId",
							"type": "uint256"
						},
						{
							"internalType": "uint256",
							"name": "loanTime",
							"type": "uint256"
						},
						{
							"internalType": "uint256",
							"name": "flag",
							"type": "uint256"
						}
					],
					"stateMutability": "view",
					"type": "function"
				},
				{
					"inputs": [
						{
							"internalType": "address",
							"name": "user",
							"type": "address"
						}
					],
					"name": "loansCount",
					"outputs": [
						{
							"internalType": "uint256",
							"name": "",
							"type": "uint256"
						}
					],
					"stateMutability": "view",
					"type": "function"
				},
				{
					"inputs": [
						{
							"internalType": "uint256",
							"name": "start",
							"type": "uint256"
						},
						{
							"internalType": "uint256",
							"name": "limit",
							"type": "uint256"
						},
						{
							"internalType": "address",
							"name": "user",
							"type": "address"
						}
					],
					"name": "loansList",
					"outputs": [
						{
							"internalType": "uint256[]",
							"name": "",
							"type": "uint256[]"
						}
					],
					"stateMutability": "nonpayable",
					"type": "function"
				},
				{
					"inputs": [
						{
							"internalType": "address",
							"name": "",
							"type": "address"
						}
					],
					"name": "loansNumber",
					"outputs": [
						{
							"internalType": "uint256",
							"name": "",
							"type": "uint256"
						}
					],
					"stateMutability": "view",
					"type": "function"
				},
				{
					"inputs": [],
					"name": "name",
					"outputs": [
						{
							"internalType": "string",
							"name": "",
							"type": "string"
						}
					],
					"stateMutability": "view",
					"type": "function"
				},
				{
					"inputs": [],
					"name": "nftContract",
					"outputs": [
						{
							"internalType": "contract IERC721",
							"name": "",
							"type": "address"
						}
					],
					"stateMutability": "view",
					"type": "function"
				},
				{
					"inputs": [
						{
							"internalType": "uint256",
							"name": "_tokenId",
							"type": "uint256"
						}
					],
					"name": "ownerOf",
					"outputs": [
						{
							"internalType": "address",
							"name": "",
							"type": "address"
						}
					],
					"stateMutability": "nonpayable",
					"type": "function"
				},
				{
					"inputs": [],
					"name": "symbol",
					"outputs": [
						{
							"internalType": "string",
							"name": "",
							"type": "string"
						}
					],
					"stateMutability": "view",
					"type": "function"
				},
				{
					"inputs": [],
					"name": "totalSupply",
					"outputs": [
						{
							"internalType": "uint256",
							"name": "",
							"type": "uint256"
						}
					],
					"stateMutability": "view",
					"type": "function"
				},
				{
					"inputs": [
						{
							"internalType": "address",
							"name": "_to",
							"type": "address"
						},
						{
							"internalType": "uint256",
							"name": "_value",
							"type": "uint256"
						}
					],
					"name": "transfer",
					"outputs": [
						{
							"internalType": "bool",
							"name": "success",
							"type": "bool"
						}
					],
					"stateMutability": "payable",
					"type": "function"
				},
				{
					"inputs": [
						{
							"internalType": "address",
							"name": "_from",
							"type": "address"
						},
						{
							"internalType": "address",
							"name": "_to",
							"type": "address"
						},
						{
							"internalType": "uint256",
							"name": "_value",
							"type": "uint256"
						}
					],
					"name": "transferFrom",
					"outputs": [
						{
							"internalType": "bool",
							"name": "success",
							"type": "bool"
						}
					],
					"stateMutability": "payable",
					"type": "function"
				},
				{
					"inputs": [],
					"name": "viewtotalSupply",
					"outputs": [
						{
							"internalType": "uint256",
							"name": "",
							"type": "uint256"
						}
					],
					"stateMutability": "view",
					"type": "function"
				},
				{
					"inputs": [
						{
							"internalType": "uint256",
							"name": "_tokenId",
							"type": "uint256"
						}
					],
					"name": "withdrawNFT",
					"outputs": [],
					"stateMutability": "payable",
					"type": "function"
				}
			],
			"devdoc": {
				"kind": "dev",
				"methods": {},
				"version": 1
			},
			"evm": {
				"assembly": "    /* \"nft-loans/contracts/nft-loan.sol\":1264:7863  contract NGT is ngt {... */\n  mstore(0x40, 0x80)\n    /* \"nft-loans/contracts/nft-loan.sol\":197:198  4 */\n  0x04\n    /* \"nft-loans/contracts/nft-loan.sol\":172:198  uint8  public decimals = 4 */\n  0x02\n  exp(0x0100, 0x00)\n  dup2\n  sload\n  dup2\n  0xff\n  mul\n  not\n  and\n  swap1\n  dup4\n  0xff\n  and\n  mul\n  or\n  swap1\n  sstore\n  pop\n    /* \"nft-loans/contracts/nft-loan.sol\":234:245  10000000000 */\n  0x02540be400\n    /* \"nft-loans/contracts/nft-loan.sol\":204:245  uint256 public  totalSupply = 10000000000 */\n  0x03\n  sstore\n    /* \"nft-loans/contracts/nft-loan.sol\":2253:2809  constructor(... */\n  callvalue\n  dup1\n  iszero\n  tag_1\n  jumpi\n  0x00\n  dup1\n  revert\ntag_1:\n  pop\n  mload(0x40)\n  sub(codesize, bytecodeSize)\n  dup1\n  bytecodeSize\n  dup4\n  codecopy\n  dup2\n  dup2\n  add\n  0x40\n  mstore\n  dup2\n  add\n  swap1\n  tag_2\n  swap2\n  swap1\n  tag_3\n  jump\t// in\ntag_2:\n    /* \"nft-loans/contracts/nft-loan.sol\":2343:2362  uint256 totalSupply */\n  0x00\n    /* \"nft-loans/contracts/nft-loan.sol\":2393:2401  decimals */\n  0x02\n  0x00\n  swap1\n  sload\n  swap1\n  0x0100\n  exp\n  swap1\n  div\n  0xff\n  and\n    /* \"nft-loans/contracts/nft-loan.sol\":2385:2402  uint256(decimals) */\n  0xff\n  and\n    /* \"nft-loans/contracts/nft-loan.sol\":2379:2381  10 */\n  0x0a\n    /* \"nft-loans/contracts/nft-loan.sol\":2379:2402  10 ** uint256(decimals) */\n  tag_6\n  swap2\n  swap1\n  tag_7\n  jump\t// in\ntag_6:\n    /* \"nft-loans/contracts/nft-loan.sol\":2365:2376  totalSupply */\n  sload(0x03)\n    /* \"nft-loans/contracts/nft-loan.sol\":2365:2402  totalSupply * 10 ** uint256(decimals) */\n  tag_8\n  swap2\n  swap1\n  tag_9\n  jump\t// in\ntag_8:\n    /* \"nft-loans/contracts/nft-loan.sol\":2343:2402  uint256 totalSupply = totalSupply * 10 ** uint256(decimals) */\n  swap1\n  pop\n    /* \"nft-loans/contracts/nft-loan.sol\":2455:2466  totalSupply */\n  dup1\n    /* \"nft-loans/contracts/nft-loan.sol\":2435:2443  balances */\n  0x04\n    /* \"nft-loans/contracts/nft-loan.sol\":2435:2451  balances[_owner] */\n  0x00\n    /* \"nft-loans/contracts/nft-loan.sol\":2444:2450  _owner */\n  dup7\n    /* \"nft-loans/contracts/nft-loan.sol\":2435:2451  balances[_owner] */\n  0xffffffffffffffffffffffffffffffffffffffff\n  and\n  0xffffffffffffffffffffffffffffffffffffffff\n  and\n  dup2\n  mstore\n  0x20\n  add\n  swap1\n  dup2\n  mstore\n  0x20\n  add\n  0x00\n  keccak256\n  0x00\n    /* \"nft-loans/contracts/nft-loan.sol\":2435:2466  balances[_owner] += totalSupply */\n  dup3\n  dup3\n  sload\n  tag_10\n  swap2\n  swap1\n  tag_11\n  jump\t// in\ntag_10:\n  swap3\n  pop\n  pop\n  dup2\n  swap1\n  sstore\n  pop\n    /* \"nft-loans/contracts/nft-loan.sol\":2491:2496  _fund */\n  dup2\n    /* \"nft-loans/contracts/nft-loan.sol\":2478:2488  foundation */\n  0x07\n  0x00\n    /* \"nft-loans/contracts/nft-loan.sol\":2478:2496  foundation = _fund */\n  0x0100\n  exp\n  dup2\n  sload\n  dup2\n  0xffffffffffffffffffffffffffffffffffffffff\n  mul\n  not\n  and\n  swap1\n  dup4\n  0xffffffffffffffffffffffffffffffffffffffff\n  and\n  mul\n  or\n  swap1\n  sstore\n  pop\n    /* \"nft-loans/contracts/nft-loan.sol\":2565:2578  name = \"ONEE\" */\n  mload(0x40)\n  dup1\n  0x40\n  add\n  0x40\n  mstore\n  dup1\n  0x04\n  dup2\n  mstore\n  0x20\n  add\n  0x4f4e454500000000000000000000000000000000000000000000000000000000\n  dup2\n  mstore\n  pop\n    /* \"nft-loans/contracts/nft-loan.sol\":2565:2569  name */\n  0x00\n    /* \"nft-loans/contracts/nft-loan.sol\":2565:2578  name = \"ONEE\" */\n  swap1\n  dup1\n  mload\n  swap1\n  0x20\n  add\n  swap1\n  tag_12\n  swap3\n  swap2\n  swap1\n  tag_13\n  jump\t// in\ntag_12:\n  pop\n    /* \"nft-loans/contracts/nft-loan.sol\":2662:2677  symbol = \"ONEE\" */\n  mload(0x40)\n  dup1\n  0x40\n  add\n  0x40\n  mstore\n  dup1\n  0x04\n  dup2\n  mstore\n  0x20\n  add\n  0x4f4e454500000000000000000000000000000000000000000000000000000000\n  dup2\n  mstore\n  pop\n    /* \"nft-loans/contracts/nft-loan.sol\":2662:2668  symbol */\n  0x01\n    /* \"nft-loans/contracts/nft-loan.sol\":2662:2677  symbol = \"ONEE\" */\n  swap1\n  dup1\n  mload\n  swap1\n  0x20\n  add\n  swap1\n  tag_14\n  swap3\n  swap2\n  swap1\n  tag_13\n  jump\t// in\ntag_14:\n  pop\n    /* \"nft-loans/contracts/nft-loan.sol\":2697:2703  _owner */\n  dup4\n    /* \"nft-loans/contracts/nft-loan.sol\":2689:2694  owner */\n  0x09\n  0x00\n    /* \"nft-loans/contracts/nft-loan.sol\":2689:2703  owner = _owner */\n  0x0100\n  exp\n  dup2\n  sload\n  dup2\n  0xffffffffffffffffffffffffffffffffffffffff\n  mul\n  not\n  and\n  swap1\n  dup4\n  0xffffffffffffffffffffffffffffffffffffffff\n  and\n  mul\n  or\n  swap1\n  sstore\n  pop\n    /* \"nft-loans/contracts/nft-loan.sol\":2719:2731  _nftContract */\n  dup3\n    /* \"nft-loans/contracts/nft-loan.sol\":2713:2716  nft */\n  0x0d\n  0x00\n    /* \"nft-loans/contracts/nft-loan.sol\":2713:2731  nft = _nftContract */\n  0x0100\n  exp\n  dup2\n  sload\n  dup2\n  0xffffffffffffffffffffffffffffffffffffffff\n  mul\n  not\n  and\n  swap1\n  dup4\n  0xffffffffffffffffffffffffffffffffffffffff\n  and\n  mul\n  or\n  swap1\n  sstore\n  pop\n    /* \"nft-loans/contracts/nft-loan.sol\":2333:2809  {... */\n  pop\n    /* \"nft-loans/contracts/nft-loan.sol\":2253:2809  constructor(... */\n  pop\n  pop\n  pop\n    /* \"nft-loans/contracts/nft-loan.sol\":1264:7863  contract NGT is ngt {... */\n  jump(tag_15)\ntag_13:\n  dup3\n  dup1\n  sload\n  tag_16\n  swap1\n  tag_17\n  jump\t// in\ntag_16:\n  swap1\n  0x00\n  mstore\n  keccak256(0x00, 0x20)\n  swap1\n  0x1f\n  add\n  0x20\n  swap1\n  div\n  dup2\n  add\n  swap3\n  dup3\n  tag_19\n  jumpi\n  0x00\n  dup6\n  sstore\n  jump(tag_18)\ntag_19:\n  dup3\n  0x1f\n  lt\n  tag_20\n  jumpi\n  dup1\n  mload\n  not(0xff)\n  and\n  dup4\n  dup1\n  add\n  or\n  dup6\n  sstore\n  jump(tag_18)\ntag_20:\n  dup3\n  dup1\n  add\n  0x01\n  add\n  dup6\n  sstore\n  dup3\n  iszero\n  tag_18\n  jumpi\n  swap2\n  dup3\n  add\ntag_21:\n  dup3\n  dup2\n  gt\n  iszero\n  tag_22\n  jumpi\n  dup3\n  mload\n  dup3\n  sstore\n  swap2\n  0x20\n  add\n  swap2\n  swap1\n  0x01\n  add\n  swap1\n  jump(tag_21)\ntag_22:\ntag_18:\n  pop\n  swap1\n  pop\n  tag_23\n  swap2\n  swap1\n  tag_24\n  jump\t// in\ntag_23:\n  pop\n  swap1\n  jump\t// out\ntag_24:\ntag_25:\n  dup1\n  dup3\n  gt\n  iszero\n  tag_26\n  jumpi\n  0x00\n  dup2\n  0x00\n  swap1\n  sstore\n  pop\n  0x01\n  add\n  jump(tag_25)\ntag_26:\n  pop\n  swap1\n  jump\t// out\n    /* \"#utility.yul\":7:150   */\ntag_28:\n    /* \"#utility.yul\":64:69   */\n  0x00\n    /* \"#utility.yul\":95:101   */\n  dup2\n    /* \"#utility.yul\":89:102   */\n  mload\n    /* \"#utility.yul\":80:102   */\n  swap1\n  pop\n    /* \"#utility.yul\":111:144   */\n  tag_30\n    /* \"#utility.yul\":138:143   */\n  dup2\n    /* \"#utility.yul\":111:144   */\n  tag_31\n  jump\t// in\ntag_30:\n    /* \"#utility.yul\":7:150   */\n  swap3\n  swap2\n  pop\n  pop\n  jump\t// out\n    /* \"#utility.yul\":156:819   */\ntag_3:\n    /* \"#utility.yul\":244:250   */\n  0x00\n    /* \"#utility.yul\":252:258   */\n  dup1\n    /* \"#utility.yul\":260:266   */\n  0x00\n    /* \"#utility.yul\":309:311   */\n  0x60\n    /* \"#utility.yul\":297:306   */\n  dup5\n    /* \"#utility.yul\":288:295   */\n  dup7\n    /* \"#utility.yul\":284:307   */\n  sub\n    /* \"#utility.yul\":280:312   */\n  slt\n    /* \"#utility.yul\":277:396   */\n  iszero\n  tag_33\n  jumpi\n    /* \"#utility.yul\":315:394   */\n  tag_34\n  tag_35\n  jump\t// in\ntag_34:\n    /* \"#utility.yul\":277:396   */\ntag_33:\n    /* \"#utility.yul\":435:436   */\n  0x00\n    /* \"#utility.yul\":460:524   */\n  tag_36\n    /* \"#utility.yul\":516:523   */\n  dup7\n    /* \"#utility.yul\":507:513   */\n  dup3\n    /* \"#utility.yul\":496:505   */\n  dup8\n    /* \"#utility.yul\":492:514   */\n  add\n    /* \"#utility.yul\":460:524   */\n  tag_28\n  jump\t// in\ntag_36:\n    /* \"#utility.yul\":450:524   */\n  swap4\n  pop\n    /* \"#utility.yul\":406:534   */\n  pop\n    /* \"#utility.yul\":573:575   */\n  0x20\n    /* \"#utility.yul\":599:663   */\n  tag_37\n    /* \"#utility.yul\":655:662   */\n  dup7\n    /* \"#utility.yul\":646:652   */\n  dup3\n    /* \"#utility.yul\":635:644   */\n  dup8\n    /* \"#utility.yul\":631:653   */\n  add\n    /* \"#utility.yul\":599:663   */\n  tag_28\n  jump\t// in\ntag_37:\n    /* \"#utility.yul\":589:663   */\n  swap3\n  pop\n    /* \"#utility.yul\":544:673   */\n  pop\n    /* \"#utility.yul\":712:714   */\n  0x40\n    /* \"#utility.yul\":738:802   */\n  tag_38\n    /* \"#utility.yul\":794:801   */\n  dup7\n    /* \"#utility.yul\":785:791   */\n  dup3\n    /* \"#utility.yul\":774:783   */\n  dup8\n    /* \"#utility.yul\":770:792   */\n  add\n    /* \"#utility.yul\":738:802   */\n  tag_28\n  jump\t// in\ntag_38:\n    /* \"#utility.yul\":728:802   */\n  swap2\n  pop\n    /* \"#utility.yul\":683:812   */\n  pop\n    /* \"#utility.yul\":156:819   */\n  swap3\n  pop\n  swap3\n  pop\n  swap3\n  jump\t// out\n    /* \"#utility.yul\":906:1211   */\ntag_11:\n    /* \"#utility.yul\":946:949   */\n  0x00\n    /* \"#utility.yul\":965:985   */\n  tag_42\n    /* \"#utility.yul\":983:984   */\n  dup3\n    /* \"#utility.yul\":965:985   */\n  tag_43\n  jump\t// in\ntag_42:\n    /* \"#utility.yul\":960:985   */\n  swap2\n  pop\n    /* \"#utility.yul\":999:1019   */\n  tag_44\n    /* \"#utility.yul\":1017:1018   */\n  dup4\n    /* \"#utility.yul\":999:1019   */\n  tag_43\n  jump\t// in\ntag_44:\n    /* \"#utility.yul\":994:1019   */\n  swap3\n  pop\n    /* \"#utility.yul\":1153:1154   */\n  dup3\n    /* \"#utility.yul\":1085:1151   */\n  0xffffffffffffffffffffffffffffffffffffffffffffffffffffffffffffffff\n    /* \"#utility.yul\":1081:1155   */\n  sub\n    /* \"#utility.yul\":1078:1079   */\n  dup3\n    /* \"#utility.yul\":1075:1156   */\n  gt\n    /* \"#utility.yul\":1072:1179   */\n  iszero\n  tag_45\n  jumpi\n    /* \"#utility.yul\":1159:1177   */\n  tag_46\n  tag_47\n  jump\t// in\ntag_46:\n    /* \"#utility.yul\":1072:1179   */\ntag_45:\n    /* \"#utility.yul\":1203:1204   */\n  dup3\n    /* \"#utility.yul\":1200:1201   */\n  dup3\n    /* \"#utility.yul\":1196:1205   */\n  add\n    /* \"#utility.yul\":1189:1205   */\n  swap1\n  pop\n    /* \"#utility.yul\":906:1211   */\n  swap3\n  swap2\n  pop\n  pop\n  jump\t// out\n    /* \"#utility.yul\":1217:2065   */\ntag_48:\n    /* \"#utility.yul\":1278:1283   */\n  0x00\n    /* \"#utility.yul\":1285:1289   */\n  dup1\n    /* \"#utility.yul\":1309:1315   */\n  dup3\n    /* \"#utility.yul\":1300:1315   */\n  swap2\n  pop\n    /* \"#utility.yul\":1333:1338   */\n  dup4\n    /* \"#utility.yul\":1324:1338   */\n  swap1\n  pop\n    /* \"#utility.yul\":1347:2059   */\ntag_50:\n    /* \"#utility.yul\":1368:1369   */\n  0x01\n    /* \"#utility.yul\":1358:1366   */\n  dup6\n    /* \"#utility.yul\":1355:1370   */\n  gt\n    /* \"#utility.yul\":1347:2059   */\n  iszero\n  tag_52\n  jumpi\n    /* \"#utility.yul\":1463:1467   */\n  dup1\n    /* \"#utility.yul\":1458:1461   */\n  dup7\n    /* \"#utility.yul\":1454:1468   */\n  div\n    /* \"#utility.yul\":1448:1452   */\n  dup2\n    /* \"#utility.yul\":1445:1469   */\n  gt\n    /* \"#utility.yul\":1442:1492   */\n  iszero\n  tag_53\n  jumpi\n    /* \"#utility.yul\":1472:1490   */\n  tag_54\n  tag_47\n  jump\t// in\ntag_54:\n    /* \"#utility.yul\":1442:1492   */\ntag_53:\n    /* \"#utility.yul\":1522:1523   */\n  0x01\n    /* \"#utility.yul\":1512:1520   */\n  dup6\n    /* \"#utility.yul\":1508:1524   */\n  and\n    /* \"#utility.yul\":1505:1956   */\n  iszero\n  tag_55\n  jumpi\n    /* \"#utility.yul\":1937:1941   */\n  dup1\n    /* \"#utility.yul\":1930:1935   */\n  dup3\n    /* \"#utility.yul\":1926:1942   */\n  mul\n    /* \"#utility.yul\":1917:1942   */\n  swap2\n  pop\n    /* \"#utility.yul\":1505:1956   */\ntag_55:\n    /* \"#utility.yul\":1987:1991   */\n  dup1\n    /* \"#utility.yul\":1981:1985   */\n  dup2\n    /* \"#utility.yul\":1977:1992   */\n  mul\n    /* \"#utility.yul\":1969:1992   */\n  swap1\n  pop\n    /* \"#utility.yul\":2017:2049   */\n  tag_56\n    /* \"#utility.yul\":2040:2048   */\n  dup6\n    /* \"#utility.yul\":2017:2049   */\n  tag_57\n  jump\t// in\ntag_56:\n    /* \"#utility.yul\":2005:2049   */\n  swap5\n  pop\n    /* \"#utility.yul\":1347:2059   */\n  jump(tag_50)\ntag_52:\n    /* \"#utility.yul\":1217:2065   */\n  swap5\n  pop\n  swap5\n  swap3\n  pop\n  pop\n  pop\n  jump\t// out\n    /* \"#utility.yul\":2071:2356   */\ntag_7:\n    /* \"#utility.yul\":2131:2136   */\n  0x00\n    /* \"#utility.yul\":2155:2178   */\n  tag_59\n    /* \"#utility.yul\":2173:2177   */\n  dup3\n    /* \"#utility.yul\":2155:2178   */\n  tag_43\n  jump\t// in\ntag_59:\n    /* \"#utility.yul\":2147:2178   */\n  swap2\n  pop\n    /* \"#utility.yul\":2199:2226   */\n  tag_60\n    /* \"#utility.yul\":2217:2225   */\n  dup4\n    /* \"#utility.yul\":2199:2226   */\n  tag_43\n  jump\t// in\ntag_60:\n    /* \"#utility.yul\":2187:2226   */\n  swap3\n  pop\n    /* \"#utility.yul\":2245:2349   */\n  tag_61\n    /* \"#utility.yul\":2282:2348   */\n  0xffffffffffffffffffffffffffffffffffffffffffffffffffffffffffffffff\n    /* \"#utility.yul\":2272:2280   */\n  dup5\n    /* \"#utility.yul\":2266:2270   */\n  dup5\n    /* \"#utility.yul\":2245:2349   */\n  tag_62\n  jump\t// in\ntag_61:\n    /* \"#utility.yul\":2236:2349   */\n  swap1\n  pop\n    /* \"#utility.yul\":2071:2356   */\n  swap3\n  swap2\n  pop\n  pop\n  jump\t// out\n    /* \"#utility.yul\":2362:3435   */\ntag_62:\n    /* \"#utility.yul\":2416:2421   */\n  0x00\n    /* \"#utility.yul\":2607:2615   */\n  dup3\n    /* \"#utility.yul\":2597:2637   */\n  tag_64\n  jumpi\n    /* \"#utility.yul\":2628:2629   */\n  0x01\n    /* \"#utility.yul\":2619:2629   */\n  swap1\n  pop\n    /* \"#utility.yul\":2630:2635   */\n  jump(tag_63)\n    /* \"#utility.yul\":2597:2637   */\ntag_64:\n    /* \"#utility.yul\":2656:2660   */\n  dup2\n    /* \"#utility.yul\":2646:2682   */\n  tag_65\n  jumpi\n    /* \"#utility.yul\":2673:2674   */\n  0x00\n    /* \"#utility.yul\":2664:2674   */\n  swap1\n  pop\n    /* \"#utility.yul\":2675:2680   */\n  jump(tag_63)\n    /* \"#utility.yul\":2646:2682   */\ntag_65:\n    /* \"#utility.yul\":2742:2746   */\n  dup2\n    /* \"#utility.yul\":2790:2791   */\n  0x01\n    /* \"#utility.yul\":2785:2812   */\n  dup2\n  eq\n  tag_67\n  jumpi\n    /* \"#utility.yul\":2826:2827   */\n  0x02\n    /* \"#utility.yul\":2821:3012   */\n  dup2\n  eq\n  tag_68\n  jumpi\n    /* \"#utility.yul\":2735:3012   */\n  jump(tag_66)\n    /* \"#utility.yul\":2785:2812   */\ntag_67:\n    /* \"#utility.yul\":2803:2804   */\n  0x01\n    /* \"#utility.yul\":2794:2804   */\n  swap2\n  pop\n    /* \"#utility.yul\":2805:2810   */\n  pop\n  jump(tag_63)\n    /* \"#utility.yul\":2821:3012   */\ntag_68:\n    /* \"#utility.yul\":2866:2869   */\n  0xff\n    /* \"#utility.yul\":2856:2864   */\n  dup5\n    /* \"#utility.yul\":2853:2870   */\n  gt\n    /* \"#utility.yul\":2850:2893   */\n  iszero\n  tag_69\n  jumpi\n    /* \"#utility.yul\":2873:2891   */\n  tag_70\n  tag_47\n  jump\t// in\ntag_70:\n    /* \"#utility.yul\":2850:2893   */\ntag_69:\n    /* \"#utility.yul\":2922:2930   */\n  dup4\n    /* \"#utility.yul\":2919:2920   */\n  0x02\n    /* \"#utility.yul\":2915:2931   */\n  exp\n    /* \"#utility.yul\":2906:2931   */\n  swap2\n  pop\n    /* \"#utility.yul\":2957:2960   */\n  dup5\n    /* \"#utility.yul\":2950:2955   */\n  dup3\n    /* \"#utility.yul\":2947:2961   */\n  gt\n    /* \"#utility.yul\":2944:2984   */\n  iszero\n  tag_71\n  jumpi\n    /* \"#utility.yul\":2964:2982   */\n  tag_72\n  tag_47\n  jump\t// in\ntag_72:\n    /* \"#utility.yul\":2944:2984   */\ntag_71:\n    /* \"#utility.yul\":2997:3002   */\n  pop\n  jump(tag_63)\n    /* \"#utility.yul\":2735:3012   */\ntag_66:\n  pop\n    /* \"#utility.yul\":3121:3123   */\n  0x20\n    /* \"#utility.yul\":3111:3119   */\n  dup4\n    /* \"#utility.yul\":3108:3124   */\n  lt\n    /* \"#utility.yul\":3102:3105   */\n  0x0133\n    /* \"#utility.yul\":3096:3100   */\n  dup4\n    /* \"#utility.yul\":3093:3106   */\n  lt\n    /* \"#utility.yul\":3089:3125   */\n  and\n    /* \"#utility.yul\":3071:3073   */\n  0x4e\n    /* \"#utility.yul\":3061:3069   */\n  dup5\n    /* \"#utility.yul\":3058:3074   */\n  lt\n    /* \"#utility.yul\":3053:3055   */\n  0x0b\n    /* \"#utility.yul\":3047:3051   */\n  dup5\n    /* \"#utility.yul\":3044:3056   */\n  lt\n    /* \"#utility.yul\":3040:3075   */\n  and\n    /* \"#utility.yul\":3024:3135   */\n  or\n    /* \"#utility.yul\":3021:3267   */\n  iszero\n  tag_73\n  jumpi\n    /* \"#utility.yul\":3177:3185   */\n  dup3\n    /* \"#utility.yul\":3171:3175   */\n  dup3\n    /* \"#utility.yul\":3167:3186   */\n  exp\n    /* \"#utility.yul\":3158:3186   */\n  swap1\n  pop\n    /* \"#utility.yul\":3212:3215   */\n  dup4\n    /* \"#utility.yul\":3205:3210   */\n  dup2\n    /* \"#utility.yul\":3202:3216   */\n  gt\n    /* \"#utility.yul\":3199:3239   */\n  iszero\n  tag_74\n  jumpi\n    /* \"#utility.yul\":3219:3237   */\n  tag_75\n  tag_47\n  jump\t// in\ntag_75:\n    /* \"#utility.yul\":3199:3239   */\ntag_74:\n    /* \"#utility.yul\":3252:3257   */\n  jump(tag_63)\n    /* \"#utility.yul\":3021:3267   */\ntag_73:\n    /* \"#utility.yul\":3292:3334   */\n  tag_76\n    /* \"#utility.yul\":3330:3333   */\n  dup5\n    /* \"#utility.yul\":3320:3328   */\n  dup5\n    /* \"#utility.yul\":3314:3318   */\n  dup5\n    /* \"#utility.yul\":3311:3312   */\n  0x01\n    /* \"#utility.yul\":3292:3334   */\n  tag_48\n  jump\t// in\ntag_76:\n    /* \"#utility.yul\":3277:3334   */\n  swap3\n  pop\n  swap1\n  pop\n    /* \"#utility.yul\":3366:3370   */\n  dup2\n    /* \"#utility.yul\":3361:3364   */\n  dup5\n    /* \"#utility.yul\":3357:3371   */\n  div\n    /* \"#utility.yul\":3350:3355   */\n  dup2\n    /* \"#utility.yul\":3347:3372   */\n  gt\n    /* \"#utility.yul\":3344:3395   */\n  iszero\n  tag_77\n  jumpi\n    /* \"#utility.yul\":3375:3393   */\n  tag_78\n  tag_47\n  jump\t// in\ntag_78:\n    /* \"#utility.yul\":3344:3395   */\ntag_77:\n    /* \"#utility.yul\":3424:3428   */\n  dup2\n    /* \"#utility.yul\":3417:3422   */\n  dup2\n    /* \"#utility.yul\":3413:3429   */\n  mul\n    /* \"#utility.yul\":3404:3429   */\n  swap1\n  pop\n    /* \"#utility.yul\":2362:3435   */\ntag_63:\n  swap4\n  swap3\n  pop\n  pop\n  pop\n  jump\t// out\n    /* \"#utility.yul\":3441:3789   */\ntag_9:\n    /* \"#utility.yul\":3481:3488   */\n  0x00\n    /* \"#utility.yul\":3504:3524   */\n  tag_80\n    /* \"#utility.yul\":3522:3523   */\n  dup3\n    /* \"#utility.yul\":3504:3524   */\n  tag_43\n  jump\t// in\ntag_80:\n    /* \"#utility.yul\":3499:3524   */\n  swap2\n  pop\n    /* \"#utility.yul\":3538:3558   */\n  tag_81\n    /* \"#utility.yul\":3556:3557   */\n  dup4\n    /* \"#utility.yul\":3538:3558   */\n  tag_43\n  jump\t// in\ntag_81:\n    /* \"#utility.yul\":3533:3558   */\n  swap3\n  pop\n    /* \"#utility.yul\":3726:3727   */\n  dup2\n    /* \"#utility.yul\":3658:3724   */\n  0xffffffffffffffffffffffffffffffffffffffffffffffffffffffffffffffff\n    /* \"#utility.yul\":3654:3728   */\n  div\n    /* \"#utility.yul\":3651:3652   */\n  dup4\n    /* \"#utility.yul\":3648:3729   */\n  gt\n    /* \"#utility.yul\":3643:3644   */\n  dup3\n    /* \"#utility.yul\":3636:3645   */\n  iszero\n    /* \"#utility.yul\":3629:3646   */\n  iszero\n    /* \"#utility.yul\":3625:3730   */\n  and\n    /* \"#utility.yul\":3622:3753   */\n  iszero\n  tag_82\n  jumpi\n    /* \"#utility.yul\":3733:3751   */\n  tag_83\n  tag_47\n  jump\t// in\ntag_83:\n    /* \"#utility.yul\":3622:3753   */\ntag_82:\n    /* \"#utility.yul\":3781:3782   */\n  dup3\n    /* \"#utility.yul\":3778:3779   */\n  dup3\n    /* \"#utility.yul\":3774:3783   */\n  mul\n    /* \"#utility.yul\":3763:3783   */\n  swap1\n  pop\n    /* \"#utility.yul\":3441:3789   */\n  swap3\n  swap2\n  pop\n  pop\n  jump\t// out\n    /* \"#utility.yul\":3795:3891   */\ntag_84:\n    /* \"#utility.yul\":3832:3839   */\n  0x00\n    /* \"#utility.yul\":3861:3885   */\n  tag_86\n    /* \"#utility.yul\":3879:3884   */\n  dup3\n    /* \"#utility.yul\":3861:3885   */\n  tag_87\n  jump\t// in\ntag_86:\n    /* \"#utility.yul\":3850:3885   */\n  swap1\n  pop\n    /* \"#utility.yul\":3795:3891   */\n  swap2\n  swap1\n  pop\n  jump\t// out\n    /* \"#utility.yul\":3897:4023   */\ntag_87:\n    /* \"#utility.yul\":3934:3941   */\n  0x00\n    /* \"#utility.yul\":3974:4016   */\n  0xffffffffffffffffffffffffffffffffffffffff\n    /* \"#utility.yul\":3967:3972   */\n  dup3\n    /* \"#utility.yul\":3963:4017   */\n  and\n    /* \"#utility.yul\":3952:4017   */\n  swap1\n  pop\n    /* \"#utility.yul\":3897:4023   */\n  swap2\n  swap1\n  pop\n  jump\t// out\n    /* \"#utility.yul\":4029:4106   */\ntag_43:\n    /* \"#utility.yul\":4066:4073   */\n  0x00\n    /* \"#utility.yul\":4095:4100   */\n  dup2\n    /* \"#utility.yul\":4084:4100   */\n  swap1\n  pop\n    /* \"#utility.yul\":4029:4106   */\n  swap2\n  swap1\n  pop\n  jump\t// out\n    /* \"#utility.yul\":4112:4432   */\ntag_17:\n    /* \"#utility.yul\":4156:4162   */\n  0x00\n    /* \"#utility.yul\":4193:4194   */\n  0x02\n    /* \"#utility.yul\":4187:4191   */\n  dup3\n    /* \"#utility.yul\":4183:4195   */\n  div\n    /* \"#utility.yul\":4173:4195   */\n  swap1\n  pop\n    /* \"#utility.yul\":4240:4241   */\n  0x01\n    /* \"#utility.yul\":4234:4238   */\n  dup3\n    /* \"#utility.yul\":4230:4242   */\n  and\n    /* \"#utility.yul\":4261:4279   */\n  dup1\n    /* \"#utility.yul\":4251:4332   */\n  tag_91\n  jumpi\n    /* \"#utility.yul\":4317:4321   */\n  0x7f\n    /* \"#utility.yul\":4309:4315   */\n  dup3\n    /* \"#utility.yul\":4305:4322   */\n  and\n    /* \"#utility.yul\":4295:4322   */\n  swap2\n  pop\n    /* \"#utility.yul\":4251:4332   */\ntag_91:\n    /* \"#utility.yul\":4379:4381   */\n  0x20\n    /* \"#utility.yul\":4371:4377   */\n  dup3\n    /* \"#utility.yul\":4368:4382   */\n  lt\n    /* \"#utility.yul\":4348:4366   */\n  dup2\n    /* \"#utility.yul\":4345:4383   */\n  eq\n    /* \"#utility.yul\":4342:4426   */\n  iszero\n  tag_92\n  jumpi\n    /* \"#utility.yul\":4398:4416   */\n  tag_93\n  tag_94\n  jump\t// in\ntag_93:\n    /* \"#utility.yul\":4342:4426   */\ntag_92:\n    /* \"#utility.yul\":4163:4432   */\n  pop\n    /* \"#utility.yul\":4112:4432   */\n  swap2\n  swap1\n  pop\n  jump\t// out\n    /* \"#utility.yul\":4438:4618   */\ntag_47:\n    /* \"#utility.yul\":4486:4563   */\n  0x4e487b7100000000000000000000000000000000000000000000000000000000\n    /* \"#utility.yul\":4483:4484   */\n  0x00\n    /* \"#utility.yul\":4476:4564   */\n  mstore\n    /* \"#utility.yul\":4583:4587   */\n  0x11\n    /* \"#utility.yul\":4580:4581   */\n  0x04\n    /* \"#utility.yul\":4573:4588   */\n  mstore\n    /* \"#utility.yul\":4607:4611   */\n  0x24\n    /* \"#utility.yul\":4604:4605   */\n  0x00\n    /* \"#utility.yul\":4597:4612   */\n  revert\n    /* \"#utility.yul\":4624:4804   */\ntag_94:\n    /* \"#utility.yul\":4672:4749   */\n  0x4e487b7100000000000000000000000000000000000000000000000000000000\n    /* \"#utility.yul\":4669:4670   */\n  0x00\n    /* \"#utility.yul\":4662:4750   */\n  mstore\n    /* \"#utility.yul\":4769:4773   */\n  0x22\n    /* \"#utility.yul\":4766:4767   */\n  0x04\n    /* \"#utility.yul\":4759:4774   */\n  mstore\n    /* \"#utility.yul\":4793:4797   */\n  0x24\n    /* \"#utility.yul\":4790:4791   */\n  0x00\n    /* \"#utility.yul\":4783:4798   */\n  revert\n    /* \"#utility.yul\":4933:5050   */\ntag_35:\n    /* \"#utility.yul\":5042:5043   */\n  0x00\n    /* \"#utility.yul\":5039:5040   */\n  dup1\n    /* \"#utility.yul\":5032:5044   */\n  revert\n    /* \"#utility.yul\":5056:5158   */\ntag_57:\n    /* \"#utility.yul\":5098:5106   */\n  0x00\n    /* \"#utility.yul\":5145:5150   */\n  dup2\n    /* \"#utility.yul\":5142:5143   */\n  0x01\n    /* \"#utility.yul\":5138:5151   */\n  shr\n    /* \"#utility.yul\":5117:5151   */\n  swap1\n  pop\n    /* \"#utility.yul\":5056:5158   */\n  swap2\n  swap1\n  pop\n  jump\t// out\n    /* \"#utility.yul\":5164:5286   */\ntag_31:\n    /* \"#utility.yul\":5237:5261   */\n  tag_102\n    /* \"#utility.yul\":5255:5260   */\n  dup2\n    /* \"#utility.yul\":5237:5261   */\n  tag_84\n  jump\t// in\ntag_102:\n    /* \"#utility.yul\":5230:5235   */\n  dup2\n    /* \"#utility.yul\":5227:5262   */\n  eq\n    /* \"#utility.yul\":5217:5280   */\n  tag_103\n  jumpi\n    /* \"#utility.yul\":5276:5277   */\n  0x00\n    /* \"#utility.yul\":5273:5274   */\n  dup1\n    /* \"#utility.yul\":5266:5278   */\n  revert\n    /* \"#utility.yul\":5217:5280   */\ntag_103:\n    /* \"#utility.yul\":5164:5286   */\n  pop\n  jump\t// out\n    /* \"nft-loans/contracts/nft-loan.sol\":1264:7863  contract NGT is ngt {... */\ntag_15:\n  dataSize(sub_0)\n  dup1\n  dataOffset(sub_0)\n  0x00\n  codecopy\n  0x00\n  return\nstop\n\nsub_0: assembly {\n        /* \"nft-loans/contracts/nft-loan.sol\":1264:7863  contract NGT is ngt {... */\n      mstore(0x40, 0x80)\n      jumpi(tag_1, lt(calldatasize, 0x04))\n      shr(0xe0, calldataload(0x00))\n      dup1\n      0x70a08231\n      gt\n      tag_21\n      jumpi\n      dup1\n      0xb369ecd7\n      gt\n      tag_22\n      jumpi\n      dup1\n      0xb369ecd7\n      eq\n      tag_16\n      jumpi\n      dup1\n      0xd56d229d\n      eq\n      tag_17\n      jumpi\n      dup1\n      0xdd62ed3e\n      eq\n      tag_18\n      jumpi\n      dup1\n      0xe91a7ca6\n      eq\n      tag_19\n      jumpi\n      dup1\n      0xffc49f38\n      eq\n      tag_20\n      jumpi\n      jump(tag_1)\n    tag_22:\n      dup1\n      0x70a08231\n      eq\n      tag_11\n      jumpi\n      dup1\n      0x8951cf59\n      eq\n      tag_12\n      jumpi\n      dup1\n      0x95d89b41\n      eq\n      tag_13\n      jumpi\n      dup1\n      0x98c61c37\n      eq\n      tag_14\n      jumpi\n      dup1\n      0xa9059cbb\n      eq\n      tag_15\n      jumpi\n      jump(tag_1)\n    tag_21:\n      dup1\n      0x23b872dd\n      gt\n      tag_23\n      jumpi\n      dup1\n      0x23b872dd\n      eq\n      tag_6\n      jumpi\n      dup1\n      0x313ce567\n      eq\n      tag_7\n      jumpi\n      dup1\n      0x48828ec0\n      eq\n      tag_8\n      jumpi\n      dup1\n      0x4fe7abba\n      eq\n      tag_9\n      jumpi\n      dup1\n      0x6352211e\n      eq\n      tag_10\n      jumpi\n      jump(tag_1)\n    tag_23:\n      dup1\n      0x023245d7\n      eq\n      tag_2\n      jumpi\n      dup1\n      0x06fdde03\n      eq\n      tag_3\n      jumpi\n      dup1\n      0x095ea7b3\n      eq\n      tag_4\n      jumpi\n      dup1\n      0x18160ddd\n      eq\n      tag_5\n      jumpi\n    tag_1:\n      0x00\n      dup1\n      revert\n        /* \"nft-loans/contracts/nft-loan.sol\":6200:6663  function withdrawNFT(uint256 _tokenId) onlyManager external payable {... */\n    tag_2:\n      tag_24\n      0x04\n      dup1\n      calldatasize\n      sub\n      dup2\n      add\n      swap1\n      tag_25\n      swap2\n      swap1\n      tag_26\n      jump\t// in\n    tag_25:\n      tag_27\n      jump\t// in\n    tag_24:\n      stop\n        /* \"nft-loans/contracts/nft-loan.sol\":121:140  string public  name */\n    tag_3:\n      callvalue\n      dup1\n      iszero\n      tag_28\n      jumpi\n      0x00\n      dup1\n      revert\n    tag_28:\n      pop\n      tag_29\n      tag_30\n      jump\t// in\n    tag_29:\n      mload(0x40)\n      tag_31\n      swap2\n      swap1\n      tag_32\n      jump\t// in\n    tag_31:\n      mload(0x40)\n      dup1\n      swap2\n      sub\n      swap1\n      return\n        /* \"nft-loans/contracts/nft-loan.sol\":660:950  function approve(address _spender, uint256 _value) public returns (bool success)   ... */\n    tag_4:\n      callvalue\n      dup1\n      iszero\n      tag_33\n      jumpi\n      0x00\n      dup1\n      revert\n    tag_33:\n      pop\n      tag_34\n      0x04\n      dup1\n      calldatasize\n      sub\n      dup2\n      add\n      swap1\n      tag_35\n      swap2\n      swap1\n      tag_36\n      jump\t// in\n    tag_35:\n      tag_37\n      jump\t// in\n    tag_34:\n      mload(0x40)\n      tag_38\n      swap2\n      swap1\n      tag_39\n      jump\t// in\n    tag_38:\n      mload(0x40)\n      dup1\n      swap2\n      sub\n      swap1\n      return\n        /* \"nft-loans/contracts/nft-loan.sol\":204:245  uint256 public  totalSupply = 10000000000 */\n    tag_5:\n      callvalue\n      dup1\n      iszero\n      tag_40\n      jumpi\n      0x00\n      dup1\n      revert\n    tag_40:\n      pop\n      tag_41\n      tag_42\n      jump\t// in\n    tag_41:\n      mload(0x40)\n      tag_43\n      swap2\n      swap1\n      tag_44\n      jump\t// in\n    tag_43:\n      mload(0x40)\n      dup1\n      swap2\n      sub\n      swap1\n      return\n        /* \"nft-loans/contracts/nft-loan.sol\":3106:3431  function transferFrom(address _from, address _to, uint256 _value) public payable  returns (bool success){... */\n    tag_6:\n      tag_45\n      0x04\n      dup1\n      calldatasize\n      sub\n      dup2\n      add\n      swap1\n      tag_46\n      swap2\n      swap1\n      tag_47\n      jump\t// in\n    tag_46:\n      tag_48\n      jump\t// in\n    tag_45:\n      mload(0x40)\n      tag_49\n      swap2\n      swap1\n      tag_39\n      jump\t// in\n    tag_49:\n      mload(0x40)\n      dup1\n      swap2\n      sub\n      swap1\n      return\n        /* \"nft-loans/contracts/nft-loan.sol\":172:198  uint8  public decimals = 4 */\n    tag_7:\n      callvalue\n      dup1\n      iszero\n      tag_50\n      jumpi\n      0x00\n      dup1\n      revert\n    tag_50:\n      pop\n      tag_51\n      tag_52\n      jump\t// in\n    tag_51:\n      mload(0x40)\n      tag_53\n      swap2\n      swap1\n      tag_54\n      jump\t// in\n    tag_53:\n      mload(0x40)\n      dup1\n      swap2\n      sub\n      swap1\n      return\n        /* \"nft-loans/contracts/nft-loan.sol\":5185:5408  function bindRecommender(address _recommender) external returns(bool){... */\n    tag_8:\n      callvalue\n      dup1\n      iszero\n      tag_55\n      jumpi\n      0x00\n      dup1\n      revert\n    tag_55:\n      pop\n      tag_56\n      0x04\n      dup1\n      calldatasize\n      sub\n      dup2\n      add\n      swap1\n      tag_57\n      swap2\n      swap1\n      tag_58\n      jump\t// in\n    tag_57:\n      tag_59\n      jump\t// in\n    tag_56:\n      mload(0x40)\n      tag_60\n      swap2\n      swap1\n      tag_39\n      jump\t// in\n    tag_60:\n      mload(0x40)\n      dup1\n      swap2\n      sub\n      swap1\n      return\n        /* \"nft-loans/contracts/nft-loan.sol\":6833:7411  function loansList(uint start,uint limit,address user) public returns (uint256[] memory){... */\n    tag_9:\n      callvalue\n      dup1\n      iszero\n      tag_61\n      jumpi\n      0x00\n      dup1\n      revert\n    tag_61:\n      pop\n      tag_62\n      0x04\n      dup1\n      calldatasize\n      sub\n      dup2\n      add\n      swap1\n      tag_63\n      swap2\n      swap1\n      tag_64\n      jump\t// in\n    tag_63:\n      tag_65\n      jump\t// in\n    tag_62:\n      mload(0x40)\n      tag_66\n      swap2\n      swap1\n      tag_67\n      jump\t// in\n    tag_66:\n      mload(0x40)\n      dup1\n      swap2\n      sub\n      swap1\n      return\n        /* \"nft-loans/contracts/nft-loan.sol\":6664:6832  function ownerOf(uint256  _tokenId) public returns (address){... */\n    tag_10:\n      callvalue\n      dup1\n      iszero\n      tag_68\n      jumpi\n      0x00\n      dup1\n      revert\n    tag_68:\n      pop\n      tag_69\n      0x04\n      dup1\n      calldatasize\n      sub\n      dup2\n      add\n      swap1\n      tag_70\n      swap2\n      swap1\n      tag_26\n      jump\t// in\n    tag_70:\n      tag_71\n      jump\t// in\n    tag_69:\n      mload(0x40)\n      tag_72\n      swap2\n      swap1\n      tag_73\n      jump\t// in\n    tag_72:\n      mload(0x40)\n      dup1\n      swap2\n      sub\n      swap1\n      return\n        /* \"nft-loans/contracts/nft-loan.sol\":542:655  function balanceOf(address _owner) public view returns (uint256 balance) {... */\n    tag_11:\n      callvalue\n      dup1\n      iszero\n      tag_74\n      jumpi\n      0x00\n      dup1\n      revert\n    tag_74:\n      pop\n      tag_75\n      0x04\n      dup1\n      calldatasize\n      sub\n      dup2\n      add\n      swap1\n      tag_76\n      swap2\n      swap1\n      tag_58\n      jump\t// in\n    tag_76:\n      tag_77\n      jump\t// in\n    tag_75:\n      mload(0x40)\n      tag_78\n      swap2\n      swap1\n      tag_44\n      jump\t// in\n    tag_78:\n      mload(0x40)\n      dup1\n      swap2\n      sub\n      swap1\n      return\n        /* \"nft-loans/contracts/nft-loan.sol\":1147:1238  function viewtotalSupply() public view returns (uint256){... */\n    tag_12:\n      callvalue\n      dup1\n      iszero\n      tag_79\n      jumpi\n      0x00\n      dup1\n      revert\n    tag_79:\n      pop\n      tag_80\n      tag_81\n      jump\t// in\n    tag_80:\n      mload(0x40)\n      tag_82\n      swap2\n      swap1\n      tag_44\n      jump\t// in\n    tag_82:\n      mload(0x40)\n      dup1\n      swap2\n      sub\n      swap1\n      return\n        /* \"nft-loans/contracts/nft-loan.sol\":146:166  string public symbol */\n    tag_13:\n      callvalue\n      dup1\n      iszero\n      tag_83\n      jumpi\n      0x00\n      dup1\n      revert\n    tag_83:\n      pop\n      tag_84\n      tag_85\n      jump\t// in\n    tag_84:\n      mload(0x40)\n      tag_86\n      swap2\n      swap1\n      tag_32\n      jump\t// in\n    tag_86:\n      mload(0x40)\n      dup1\n      swap2\n      sub\n      swap1\n      return\n        /* \"nft-loans/contracts/nft-loan.sol\":1991:2038  mapping (address => NftLoasInfo[]) public loans */\n    tag_14:\n      callvalue\n      dup1\n      iszero\n      tag_87\n      jumpi\n      0x00\n      dup1\n      revert\n    tag_87:\n      pop\n      tag_88\n      0x04\n      dup1\n      calldatasize\n      sub\n      dup2\n      add\n      swap1\n      tag_89\n      swap2\n      swap1\n      tag_36\n      jump\t// in\n    tag_89:\n      tag_90\n      jump\t// in\n    tag_88:\n      mload(0x40)\n      tag_91\n      swap4\n      swap3\n      swap2\n      swap1\n      tag_92\n      jump\t// in\n    tag_91:\n      mload(0x40)\n      dup1\n      swap2\n      sub\n      swap1\n      return\n        /* \"nft-loans/contracts/nft-loan.sol\":2814:3101  function transfer(address _to, uint256 _value) public payable  returns (bool success){... */\n    tag_15:\n      tag_93\n      0x04\n      dup1\n      calldatasize\n      sub\n      dup2\n      add\n      swap1\n      tag_94\n      swap2\n      swap1\n      tag_36\n      jump\t// in\n    tag_94:\n      tag_95\n      jump\t// in\n    tag_93:\n      mload(0x40)\n      tag_96\n      swap2\n      swap1\n      tag_39\n      jump\t// in\n    tag_96:\n      mload(0x40)\n      dup1\n      swap2\n      sub\n      swap1\n      return\n        /* \"nft-loans/contracts/nft-loan.sol\":2044:2091  mapping (address => uint256) public loansNumber */\n    tag_16:\n      callvalue\n      dup1\n      iszero\n      tag_97\n      jumpi\n      0x00\n      dup1\n      revert\n    tag_97:\n      pop\n      tag_98\n      0x04\n      dup1\n      calldatasize\n      sub\n      dup2\n      add\n      swap1\n      tag_99\n      swap2\n      swap1\n      tag_58\n      jump\t// in\n    tag_99:\n      tag_100\n      jump\t// in\n    tag_98:\n      mload(0x40)\n      tag_101\n      swap2\n      swap1\n      tag_44\n      jump\t// in\n    tag_101:\n      mload(0x40)\n      dup1\n      swap2\n      sub\n      swap1\n      return\n        /* \"nft-loans/contracts/nft-loan.sol\":1959:1985  IERC721 public nftContract */\n    tag_17:\n      callvalue\n      dup1\n      iszero\n      tag_102\n      jumpi\n      0x00\n      dup1\n      revert\n    tag_102:\n      pop\n      tag_103\n      tag_104\n      jump\t// in\n    tag_103:\n      mload(0x40)\n      tag_105\n      swap2\n      swap1\n      tag_106\n      jump\t// in\n    tag_105:\n      mload(0x40)\n      dup1\n      swap2\n      sub\n      swap1\n      return\n        /* \"nft-loans/contracts/nft-loan.sol\":955:1142  function allowance(address _owner, address _spender) public view returns (uint256 remaining) {... */\n    tag_18:\n      callvalue\n      dup1\n      iszero\n      tag_107\n      jumpi\n      0x00\n      dup1\n      revert\n    tag_107:\n      pop\n      tag_108\n      0x04\n      dup1\n      calldatasize\n      sub\n      dup2\n      add\n      swap1\n      tag_109\n      swap2\n      swap1\n      tag_110\n      jump\t// in\n    tag_109:\n      tag_111\n      jump\t// in\n    tag_108:\n      mload(0x40)\n      tag_112\n      swap2\n      swap1\n      tag_44\n      jump\t// in\n    tag_112:\n      mload(0x40)\n      dup1\n      swap2\n      sub\n      swap1\n      return\n        /* \"nft-loans/contracts/nft-loan.sol\":5554:6187  function depositNFT(uint256  _tokenId) external payable {... */\n    tag_19:\n      tag_113\n      0x04\n      dup1\n      calldatasize\n      sub\n      dup2\n      add\n      swap1\n      tag_114\n      swap2\n      swap1\n      tag_26\n      jump\t// in\n    tag_114:\n      tag_115\n      jump\t// in\n    tag_113:\n      stop\n        /* \"nft-loans/contracts/nft-loan.sol\":7412:7708  function loansCount(address user) public view returns (uint256){... */\n    tag_20:\n      callvalue\n      dup1\n      iszero\n      tag_116\n      jumpi\n      0x00\n      dup1\n      revert\n    tag_116:\n      pop\n      tag_117\n      0x04\n      dup1\n      calldatasize\n      sub\n      dup2\n      add\n      swap1\n      tag_118\n      swap2\n      swap1\n      tag_58\n      jump\t// in\n    tag_118:\n      tag_119\n      jump\t// in\n    tag_117:\n      mload(0x40)\n      tag_120\n      swap2\n      swap1\n      tag_44\n      jump\t// in\n    tag_120:\n      mload(0x40)\n      dup1\n      swap2\n      sub\n      swap1\n      return\n        /* \"nft-loans/contracts/nft-loan.sol\":6200:6663  function withdrawNFT(uint256 _tokenId) onlyManager external payable {... */\n    tag_27:\n        /* \"nft-loans/contracts/nft-loan.sol\":7782:7787  owner */\n      0x09\n      0x00\n      swap1\n      sload\n      swap1\n      0x0100\n      exp\n      swap1\n      div\n      0xffffffffffffffffffffffffffffffffffffffff\n      and\n        /* \"nft-loans/contracts/nft-loan.sol\":7768:7787  msg.sender == owner */\n      0xffffffffffffffffffffffffffffffffffffffff\n      and\n        /* \"nft-loans/contracts/nft-loan.sol\":7768:7778  msg.sender */\n      caller\n        /* \"nft-loans/contracts/nft-loan.sol\":7768:7787  msg.sender == owner */\n      0xffffffffffffffffffffffffffffffffffffffff\n      and\n      eq\n        /* \"nft-loans/contracts/nft-loan.sol\":7747:7838  require(... */\n      tag_122\n      jumpi\n      mload(0x40)\n      0x08c379a000000000000000000000000000000000000000000000000000000000\n      dup2\n      mstore\n      0x04\n      add\n      tag_123\n      swap1\n      tag_124\n      jump\t// in\n    tag_123:\n      mload(0x40)\n      dup1\n      swap2\n      sub\n      swap1\n      revert\n    tag_122:\n        /* \"nft-loans/contracts/nft-loan.sol\":6296:6299  nft */\n      0x0d\n      0x00\n      swap1\n      sload\n      swap1\n      0x0100\n      exp\n      swap1\n      div\n      0xffffffffffffffffffffffffffffffffffffffff\n      and\n        /* \"nft-loans/contracts/nft-loan.sol\":6274:6285  nftContract */\n      0x0a\n      0x00\n        /* \"nft-loans/contracts/nft-loan.sol\":6274:6300  nftContract = IERC721(nft) */\n      0x0100\n      exp\n      dup2\n      sload\n      dup2\n      0xffffffffffffffffffffffffffffffffffffffff\n      mul\n      not\n      and\n      swap1\n      dup4\n      0xffffffffffffffffffffffffffffffffffffffff\n      and\n      mul\n      or\n      swap1\n      sstore\n      pop\n        /* \"nft-loans/contracts/nft-loan.sol\":6306:6322  uint256 nowNumer */\n      0x00\n        /* \"nft-loans/contracts/nft-loan.sol\":6325:6336  loansNumber */\n      0x0c\n        /* \"nft-loans/contracts/nft-loan.sol\":6325:6348  loansNumber[msg.sender] */\n      0x00\n        /* \"nft-loans/contracts/nft-loan.sol\":6337:6347  msg.sender */\n      caller\n        /* \"nft-loans/contracts/nft-loan.sol\":6325:6348  loansNumber[msg.sender] */\n      0xffffffffffffffffffffffffffffffffffffffff\n      and\n      0xffffffffffffffffffffffffffffffffffffffff\n      and\n      dup2\n      mstore\n      0x20\n      add\n      swap1\n      dup2\n      mstore\n      0x20\n      add\n      0x00\n      keccak256\n      sload\n        /* \"nft-loans/contracts/nft-loan.sol\":6306:6348  uint256 nowNumer = loansNumber[msg.sender] */\n      swap1\n      pop\n        /* \"nft-loans/contracts/nft-loan.sol\":6359:6365  uint i */\n      0x00\n        /* \"nft-loans/contracts/nft-loan.sol\":6354:6657  for (uint i = 0; i < nowNumer; ++i ) {... */\n    tag_126:\n        /* \"nft-loans/contracts/nft-loan.sol\":6375:6383  nowNumer */\n      dup2\n        /* \"nft-loans/contracts/nft-loan.sol\":6371:6372  i */\n      dup2\n        /* \"nft-loans/contracts/nft-loan.sol\":6371:6383  i < nowNumer */\n      lt\n        /* \"nft-loans/contracts/nft-loan.sol\":6354:6657  for (uint i = 0; i < nowNumer; ++i ) {... */\n      iszero\n      tag_127\n      jumpi\n        /* \"nft-loans/contracts/nft-loan.sol\":6437:6445  _tokenId */\n      dup3\n        /* \"nft-loans/contracts/nft-loan.sol\":6405:6410  loans */\n      0x0b\n        /* \"nft-loans/contracts/nft-loan.sol\":6405:6422  loans[msg.sender] */\n      0x00\n        /* \"nft-loans/contracts/nft-loan.sol\":6411:6421  msg.sender */\n      caller\n        /* \"nft-loans/contracts/nft-loan.sol\":6405:6422  loans[msg.sender] */\n      0xffffffffffffffffffffffffffffffffffffffff\n      and\n      0xffffffffffffffffffffffffffffffffffffffff\n      and\n      dup2\n      mstore\n      0x20\n      add\n      swap1\n      dup2\n      mstore\n      0x20\n      add\n      0x00\n      keccak256\n        /* \"nft-loans/contracts/nft-loan.sol\":6423:6424  i */\n      dup3\n        /* \"nft-loans/contracts/nft-loan.sol\":6405:6425  loans[msg.sender][i] */\n      dup2\n      sload\n      dup2\n      lt\n      tag_129\n      jumpi\n      tag_130\n      tag_131\n      jump\t// in\n    tag_130:\n    tag_129:\n      swap1\n      0x00\n      mstore\n      keccak256(0x00, 0x20)\n      swap1\n      0x03\n      mul\n      add\n        /* \"nft-loans/contracts/nft-loan.sol\":6405:6433  loans[msg.sender][i].tokenId */\n      0x00\n      add\n      sload\n        /* \"nft-loans/contracts/nft-loan.sol\":6405:6445  loans[msg.sender][i].tokenId == _tokenId */\n      eq\n        /* \"nft-loans/contracts/nft-loan.sol\":6401:6651  if (loans[msg.sender][i].tokenId == _tokenId) {... */\n      iszero\n      tag_133\n      jumpi\n        /* \"nft-loans/contracts/nft-loan.sol\":6498:6499  1 */\n      0x01\n        /* \"nft-loans/contracts/nft-loan.sol\":6469:6474  loans */\n      0x0b\n        /* \"nft-loans/contracts/nft-loan.sol\":6469:6486  loans[msg.sender] */\n      0x00\n        /* \"nft-loans/contracts/nft-loan.sol\":6475:6485  msg.sender */\n      caller\n        /* \"nft-loans/contracts/nft-loan.sol\":6469:6486  loans[msg.sender] */\n      0xffffffffffffffffffffffffffffffffffffffff\n      and\n      0xffffffffffffffffffffffffffffffffffffffff\n      and\n      dup2\n      mstore\n      0x20\n      add\n      swap1\n      dup2\n      mstore\n      0x20\n      add\n      0x00\n      keccak256\n        /* \"nft-loans/contracts/nft-loan.sol\":6487:6488  i */\n      dup3\n        /* \"nft-loans/contracts/nft-loan.sol\":6469:6489  loans[msg.sender][i] */\n      dup2\n      sload\n      dup2\n      lt\n      tag_134\n      jumpi\n      tag_135\n      tag_131\n      jump\t// in\n    tag_135:\n    tag_134:\n      swap1\n      0x00\n      mstore\n      keccak256(0x00, 0x20)\n      swap1\n      0x03\n      mul\n      add\n        /* \"nft-loans/contracts/nft-loan.sol\":6469:6494  loans[msg.sender][i].flag */\n      0x02\n      add\n      sload\n        /* \"nft-loans/contracts/nft-loan.sol\":6469:6499  loans[msg.sender][i].flag == 1 */\n      eq\n        /* \"nft-loans/contracts/nft-loan.sol\":6461:6529  require(loans[msg.sender][i].flag == 1, \"You already have withdraw\") */\n      tag_137\n      jumpi\n      mload(0x40)\n      0x08c379a000000000000000000000000000000000000000000000000000000000\n      dup2\n      mstore\n      0x04\n      add\n      tag_138\n      swap1\n      tag_139\n      jump\t// in\n    tag_138:\n      mload(0x40)\n      dup1\n      swap2\n      sub\n      swap1\n      revert\n    tag_137:\n        /* \"nft-loans/contracts/nft-loan.sol\":6583:6584  0 */\n      0x00\n        /* \"nft-loans/contracts/nft-loan.sol\":6547:6552  loans */\n      0x0b\n        /* \"nft-loans/contracts/nft-loan.sol\":6547:6564  loans[msg.sender] */\n      0x00\n        /* \"nft-loans/contracts/nft-loan.sol\":6553:6563  msg.sender */\n      caller\n        /* \"nft-loans/contracts/nft-loan.sol\":6547:6564  loans[msg.sender] */\n      0xffffffffffffffffffffffffffffffffffffffff\n      and\n      0xffffffffffffffffffffffffffffffffffffffff\n      and\n      dup2\n      mstore\n      0x20\n      add\n      swap1\n      dup2\n      mstore\n      0x20\n      add\n      0x00\n      keccak256\n        /* \"nft-loans/contracts/nft-loan.sol\":6565:6573  _tokenId */\n      dup5\n        /* \"nft-loans/contracts/nft-loan.sol\":6547:6574  loans[msg.sender][_tokenId] */\n      dup2\n      sload\n      dup2\n      lt\n      tag_140\n      jumpi\n      tag_141\n      tag_131\n      jump\t// in\n    tag_141:\n    tag_140:\n      swap1\n      0x00\n      mstore\n      keccak256(0x00, 0x20)\n      swap1\n      0x03\n      mul\n      add\n        /* \"nft-loans/contracts/nft-loan.sol\":6547:6579  loans[msg.sender][_tokenId].flag */\n      0x02\n      add\n        /* \"nft-loans/contracts/nft-loan.sol\":6547:6584  loans[msg.sender][_tokenId].flag  = 0 */\n      dup2\n      swap1\n      sstore\n      pop\n        /* \"nft-loans/contracts/nft-loan.sol\":6599:6610  nftContract */\n      0x0a\n      0x00\n      swap1\n      sload\n      swap1\n      0x0100\n      exp\n      swap1\n      div\n      0xffffffffffffffffffffffffffffffffffffffff\n      and\n        /* \"nft-loans/contracts/nft-loan.sol\":6599:6618  nftContract.approve */\n      0xffffffffffffffffffffffffffffffffffffffff\n      and\n      0x095ea7b3\n        /* \"nft-loans/contracts/nft-loan.sol\":6619:6629  msg.sender */\n      caller\n        /* \"nft-loans/contracts/nft-loan.sol\":6631:6639  _tokenId */\n      dup6\n        /* \"nft-loans/contracts/nft-loan.sol\":6599:6640  nftContract.approve(msg.sender, _tokenId) */\n      mload(0x40)\n      dup4\n      0xffffffff\n      and\n      0xe0\n      shl\n      dup2\n      mstore\n      0x04\n      add\n      tag_143\n      swap3\n      swap2\n      swap1\n      tag_144\n      jump\t// in\n    tag_143:\n      0x00\n      mload(0x40)\n      dup1\n      dup4\n      sub\n      dup2\n      0x00\n      dup8\n      dup1\n      extcodesize\n      iszero\n      dup1\n      iszero\n      tag_145\n      jumpi\n      0x00\n      dup1\n      revert\n    tag_145:\n      pop\n      gas\n      call\n      iszero\n      dup1\n      iszero\n      tag_147\n      jumpi\n      returndatasize\n      0x00\n      dup1\n      returndatacopy\n      revert(0x00, returndatasize)\n    tag_147:\n      pop\n      pop\n      pop\n      pop\n        /* \"nft-loans/contracts/nft-loan.sol\":6401:6651  if (loans[msg.sender][i].tokenId == _tokenId) {... */\n    tag_133:\n        /* \"nft-loans/contracts/nft-loan.sol\":6385:6388  ++i */\n      dup1\n      tag_148\n      swap1\n      tag_149\n      jump\t// in\n    tag_148:\n      swap1\n      pop\n        /* \"nft-loans/contracts/nft-loan.sol\":6354:6657  for (uint i = 0; i < nowNumer; ++i ) {... */\n      jump(tag_126)\n    tag_127:\n      pop\n        /* \"nft-loans/contracts/nft-loan.sol\":6268:6663  {... */\n      pop\n        /* \"nft-loans/contracts/nft-loan.sol\":6200:6663  function withdrawNFT(uint256 _tokenId) onlyManager external payable {... */\n      pop\n      jump\t// out\n        /* \"nft-loans/contracts/nft-loan.sol\":121:140  string public  name */\n    tag_30:\n      0x00\n      dup1\n      sload\n      tag_150\n      swap1\n      tag_151\n      jump\t// in\n    tag_150:\n      dup1\n      0x1f\n      add\n      0x20\n      dup1\n      swap2\n      div\n      mul\n      0x20\n      add\n      mload(0x40)\n      swap1\n      dup2\n      add\n      0x40\n      mstore\n      dup1\n      swap3\n      swap2\n      swap1\n      dup2\n      dup2\n      mstore\n      0x20\n      add\n      dup3\n      dup1\n      sload\n      tag_152\n      swap1\n      tag_151\n      jump\t// in\n    tag_152:\n      dup1\n      iszero\n      tag_153\n      jumpi\n      dup1\n      0x1f\n      lt\n      tag_154\n      jumpi\n      0x0100\n      dup1\n      dup4\n      sload\n      div\n      mul\n      dup4\n      mstore\n      swap2\n      0x20\n      add\n      swap2\n      jump(tag_153)\n    tag_154:\n      dup3\n      add\n      swap2\n      swap1\n      0x00\n      mstore\n      keccak256(0x00, 0x20)\n      swap1\n    tag_155:\n      dup2\n      sload\n      dup2\n      mstore\n      swap1\n      0x01\n      add\n      swap1\n      0x20\n      add\n      dup1\n      dup4\n      gt\n      tag_155\n      jumpi\n      dup3\n      swap1\n      sub\n      0x1f\n      and\n      dup3\n      add\n      swap2\n    tag_153:\n      pop\n      pop\n      pop\n      pop\n      pop\n      dup2\n      jump\t// out\n        /* \"nft-loans/contracts/nft-loan.sol\":660:950  function approve(address _spender, uint256 _value) public returns (bool success)   ... */\n    tag_37:\n        /* \"nft-loans/contracts/nft-loan.sol\":727:739  bool success */\n      0x00\n        /* \"nft-loans/contracts/nft-loan.sol\":779:780  0 */\n      dup1\n        /* \"nft-loans/contracts/nft-loan.sol\":769:775  _value */\n      dup3\n        /* \"nft-loans/contracts/nft-loan.sol\":769:780  _value == 0 */\n      eq\n        /* \"nft-loans/contracts/nft-loan.sol\":768:821  (_value == 0) || (allowed[msg.sender][_spender] == 0) */\n      dup1\n      tag_157\n      jumpi\n      pop\n        /* \"nft-loans/contracts/nft-loan.sol\":819:820  0 */\n      0x00\n        /* \"nft-loans/contracts/nft-loan.sol\":786:793  allowed */\n      0x05\n        /* \"nft-loans/contracts/nft-loan.sol\":786:805  allowed[msg.sender] */\n      0x00\n        /* \"nft-loans/contracts/nft-loan.sol\":794:804  msg.sender */\n      caller\n        /* \"nft-loans/contracts/nft-loan.sol\":786:805  allowed[msg.sender] */\n      0xffffffffffffffffffffffffffffffffffffffff\n      and\n      0xffffffffffffffffffffffffffffffffffffffff\n      and\n      dup2\n      mstore\n      0x20\n      add\n      swap1\n      dup2\n      mstore\n      0x20\n      add\n      0x00\n      keccak256\n        /* \"nft-loans/contracts/nft-loan.sol\":786:815  allowed[msg.sender][_spender] */\n      0x00\n        /* \"nft-loans/contracts/nft-loan.sol\":806:814  _spender */\n      dup6\n        /* \"nft-loans/contracts/nft-loan.sol\":786:815  allowed[msg.sender][_spender] */\n      0xffffffffffffffffffffffffffffffffffffffff\n      and\n      0xffffffffffffffffffffffffffffffffffffffff\n      and\n      dup2\n      mstore\n      0x20\n      add\n      swap1\n      dup2\n      mstore\n      0x20\n      add\n      0x00\n      keccak256\n      sload\n        /* \"nft-loans/contracts/nft-loan.sol\":786:820  allowed[msg.sender][_spender] == 0 */\n      eq\n        /* \"nft-loans/contracts/nft-loan.sol\":768:821  (_value == 0) || (allowed[msg.sender][_spender] == 0) */\n    tag_157:\n        /* \"nft-loans/contracts/nft-loan.sol\":760:822  require((_value == 0) || (allowed[msg.sender][_spender] == 0)) */\n      tag_158\n      jumpi\n      0x00\n      dup1\n      revert\n    tag_158:\n        /* \"nft-loans/contracts/nft-loan.sol\":864:870  _value */\n      dup2\n        /* \"nft-loans/contracts/nft-loan.sol\":832:839  allowed */\n      0x05\n        /* \"nft-loans/contracts/nft-loan.sol\":832:851  allowed[msg.sender] */\n      0x00\n        /* \"nft-loans/contracts/nft-loan.sol\":840:850  msg.sender */\n      caller\n        /* \"nft-loans/contracts/nft-loan.sol\":832:851  allowed[msg.sender] */\n      0xffffffffffffffffffffffffffffffffffffffff\n      and\n      0xffffffffffffffffffffffffffffffffffffffff\n      and\n      dup2\n      mstore\n      0x20\n      add\n      swap1\n      dup2\n      mstore\n      0x20\n      add\n      0x00\n      keccak256\n        /* \"nft-loans/contracts/nft-loan.sol\":832:861  allowed[msg.sender][_spender] */\n      0x00\n        /* \"nft-loans/contracts/nft-loan.sol\":852:860  _spender */\n      dup6\n        /* \"nft-loans/contracts/nft-loan.sol\":832:861  allowed[msg.sender][_spender] */\n      0xffffffffffffffffffffffffffffffffffffffff\n      and\n      0xffffffffffffffffffffffffffffffffffffffff\n      and\n      dup2\n      mstore\n      0x20\n      add\n      swap1\n      dup2\n      mstore\n      0x20\n      add\n      0x00\n      keccak256\n        /* \"nft-loans/contracts/nft-loan.sol\":832:870  allowed[msg.sender][_spender] = _value */\n      dup2\n      swap1\n      sstore\n      pop\n        /* \"nft-loans/contracts/nft-loan.sol\":884:922  Approval(msg.sender, _spender, _value) */\n      0x8c5be1e5ebec7d5bd14f71427d1e84f3dd0314c0f7b2291e5b200ac8c7c3b925\n        /* \"nft-loans/contracts/nft-loan.sol\":893:903  msg.sender */\n      caller\n        /* \"nft-loans/contracts/nft-loan.sol\":905:913  _spender */\n      dup5\n        /* \"nft-loans/contracts/nft-loan.sol\":915:921  _value */\n      dup5\n        /* \"nft-loans/contracts/nft-loan.sol\":884:922  Approval(msg.sender, _spender, _value) */\n      mload(0x40)\n      tag_159\n      swap4\n      swap3\n      swap2\n      swap1\n      tag_160\n      jump\t// in\n    tag_159:\n      mload(0x40)\n      dup1\n      swap2\n      sub\n      swap1\n      log1\n        /* \"nft-loans/contracts/nft-loan.sol\":939:943  true */\n      0x01\n        /* \"nft-loans/contracts/nft-loan.sol\":932:943  return true */\n      swap1\n      pop\n        /* \"nft-loans/contracts/nft-loan.sol\":660:950  function approve(address _spender, uint256 _value) public returns (bool success)   ... */\n      swap3\n      swap2\n      pop\n      pop\n      jump\t// out\n        /* \"nft-loans/contracts/nft-loan.sol\":204:245  uint256 public  totalSupply = 10000000000 */\n    tag_42:\n      sload(0x03)\n      dup2\n      jump\t// out\n        /* \"nft-loans/contracts/nft-loan.sol\":3106:3431  function transferFrom(address _from, address _to, uint256 _value) public payable  returns (bool success){... */\n    tag_48:\n        /* \"nft-loans/contracts/nft-loan.sol\":3197:3209  bool success */\n      0x00\n        /* \"nft-loans/contracts/nft-loan.sol\":3221:3232  uint256 tax */\n      dup1\n        /* \"nft-loans/contracts/nft-loan.sol\":3235:3256  (_value * 0).div(100) */\n      tag_162\n        /* \"nft-loans/contracts/nft-loan.sol\":3252:3255  100 */\n      0x64\n        /* \"nft-loans/contracts/nft-loan.sol\":3245:3246  0 */\n      0x00\n        /* \"nft-loans/contracts/nft-loan.sol\":3236:3242  _value */\n      dup6\n        /* \"nft-loans/contracts/nft-loan.sol\":3236:3246  _value * 0 */\n      tag_163\n      swap2\n      swap1\n      tag_164\n      jump\t// in\n    tag_163:\n        /* \"nft-loans/contracts/nft-loan.sol\":3235:3251  (_value * 0).div */\n      tag_165\n      swap1\n        /* \"nft-loans/contracts/nft-loan.sol\":3235:3256  (_value * 0).div(100) */\n      swap2\n      swap1\n      0xffffffff\n      and\n      jump\t// in\n    tag_162:\n        /* \"nft-loans/contracts/nft-loan.sol\":3221:3256  uint256 tax = (_value * 0).div(100) */\n      swap1\n      pop\n        /* \"nft-loans/contracts/nft-loan.sol\":3267:3276  bool flag */\n      0x00\n        /* \"nft-loans/contracts/nft-loan.sol\":3279:3316  _transferFrom(_from,foundation,tax,0) */\n      tag_166\n        /* \"nft-loans/contracts/nft-loan.sol\":3293:3298  _from */\n      dup7\n        /* \"nft-loans/contracts/nft-loan.sol\":3299:3309  foundation */\n      0x07\n      0x00\n      swap1\n      sload\n      swap1\n      0x0100\n      exp\n      swap1\n      div\n      0xffffffffffffffffffffffffffffffffffffffff\n      and\n        /* \"nft-loans/contracts/nft-loan.sol\":3310:3313  tax */\n      dup5\n        /* \"nft-loans/contracts/nft-loan.sol\":3314:3315  0 */\n      0x00\n        /* \"nft-loans/contracts/nft-loan.sol\":3279:3292  _transferFrom */\n      tag_167\n        /* \"nft-loans/contracts/nft-loan.sol\":3279:3316  _transferFrom(_from,foundation,tax,0) */\n      jump\t// in\n    tag_166:\n        /* \"nft-loans/contracts/nft-loan.sol\":3267:3316  bool flag = _transferFrom(_from,foundation,tax,0) */\n      swap1\n      pop\n        /* \"nft-loans/contracts/nft-loan.sol\":3335:3339  flag */\n      dup1\n        /* \"nft-loans/contracts/nft-loan.sol\":3327:3371  require(flag,\"transfer to foundation flase\") */\n      tag_168\n      jumpi\n      mload(0x40)\n      0x08c379a000000000000000000000000000000000000000000000000000000000\n      dup2\n      mstore\n      0x04\n      add\n      tag_169\n      swap1\n      tag_170\n      jump\t// in\n    tag_169:\n      mload(0x40)\n      dup1\n      swap2\n      sub\n      swap1\n      revert\n    tag_168:\n        /* \"nft-loans/contracts/nft-loan.sol\":3389:3424  _transferFrom(_from,_to,_value,tax) */\n      tag_171\n        /* \"nft-loans/contracts/nft-loan.sol\":3403:3408  _from */\n      dup7\n        /* \"nft-loans/contracts/nft-loan.sol\":3409:3412  _to */\n      dup7\n        /* \"nft-loans/contracts/nft-loan.sol\":3413:3419  _value */\n      dup7\n        /* \"nft-loans/contracts/nft-loan.sol\":3420:3423  tax */\n      dup6\n        /* \"nft-loans/contracts/nft-loan.sol\":3389:3402  _transferFrom */\n      tag_167\n        /* \"nft-loans/contracts/nft-loan.sol\":3389:3424  _transferFrom(_from,_to,_value,tax) */\n      jump\t// in\n    tag_171:\n        /* \"nft-loans/contracts/nft-loan.sol\":3382:3424  return _transferFrom(_from,_to,_value,tax) */\n      swap3\n      pop\n      pop\n      pop\n        /* \"nft-loans/contracts/nft-loan.sol\":3106:3431  function transferFrom(address _from, address _to, uint256 _value) public payable  returns (bool success){... */\n      swap4\n      swap3\n      pop\n      pop\n      pop\n      jump\t// out\n        /* \"nft-loans/contracts/nft-loan.sol\":172:198  uint8  public decimals = 4 */\n    tag_52:\n      0x02\n      0x00\n      swap1\n      sload\n      swap1\n      0x0100\n      exp\n      swap1\n      div\n      0xff\n      and\n      dup2\n      jump\t// out\n        /* \"nft-loans/contracts/nft-loan.sol\":5185:5408  function bindRecommender(address _recommender) external returns(bool){... */\n    tag_59:\n        /* \"nft-loans/contracts/nft-loan.sol\":5249:5253  bool */\n      0x00\n        /* \"nft-loans/contracts/nft-loan.sol\":5313:5314  0 */\n      dup1\n        /* \"nft-loans/contracts/nft-loan.sol\":5270:5315  details[msg.sender].recommender == address(0) */\n      0xffffffffffffffffffffffffffffffffffffffff\n      and\n        /* \"nft-loans/contracts/nft-loan.sol\":5270:5277  details */\n      0x08\n        /* \"nft-loans/contracts/nft-loan.sol\":5270:5289  details[msg.sender] */\n      0x00\n        /* \"nft-loans/contracts/nft-loan.sol\":5278:5288  msg.sender */\n      caller\n        /* \"nft-loans/contracts/nft-loan.sol\":5270:5289  details[msg.sender] */\n      0xffffffffffffffffffffffffffffffffffffffff\n      and\n      0xffffffffffffffffffffffffffffffffffffffff\n      and\n      dup2\n      mstore\n      0x20\n      add\n      swap1\n      dup2\n      mstore\n      0x20\n      add\n      0x00\n      keccak256\n        /* \"nft-loans/contracts/nft-loan.sol\":5270:5301  details[msg.sender].recommender */\n      0x02\n      add\n      0x00\n      swap1\n      sload\n      swap1\n      0x0100\n      exp\n      swap1\n      div\n      0xffffffffffffffffffffffffffffffffffffffff\n      and\n        /* \"nft-loans/contracts/nft-loan.sol\":5270:5315  details[msg.sender].recommender == address(0) */\n      0xffffffffffffffffffffffffffffffffffffffff\n      and\n      eq\n        /* \"nft-loans/contracts/nft-loan.sol\":5262:5346  require(details[msg.sender].recommender == address(0),\"this address has been bound\") */\n      tag_173\n      jumpi\n      mload(0x40)\n      0x08c379a000000000000000000000000000000000000000000000000000000000\n      dup2\n      mstore\n      0x04\n      add\n      tag_174\n      swap1\n      tag_175\n      jump\t// in\n    tag_174:\n      mload(0x40)\n      dup1\n      swap2\n      sub\n      swap1\n      revert\n    tag_173:\n        /* \"nft-loans/contracts/nft-loan.sol\":5354:5384  _bind(msg.sender,_recommender) */\n      tag_176\n        /* \"nft-loans/contracts/nft-loan.sol\":5360:5370  msg.sender */\n      caller\n        /* \"nft-loans/contracts/nft-loan.sol\":5371:5383  _recommender */\n      dup4\n        /* \"nft-loans/contracts/nft-loan.sol\":5354:5359  _bind */\n      tag_177\n        /* \"nft-loans/contracts/nft-loan.sol\":5354:5384  _bind(msg.sender,_recommender) */\n      jump\t// in\n    tag_176:\n        /* \"nft-loans/contracts/nft-loan.sol\":5399:5403  true */\n      0x01\n        /* \"nft-loans/contracts/nft-loan.sol\":5392:5403  return true */\n      swap1\n      pop\n        /* \"nft-loans/contracts/nft-loan.sol\":5185:5408  function bindRecommender(address _recommender) external returns(bool){... */\n      swap2\n      swap1\n      pop\n      jump\t// out\n        /* \"nft-loans/contracts/nft-loan.sol\":6833:7411  function loansList(uint start,uint limit,address user) public returns (uint256[] memory){... */\n    tag_65:\n        /* \"nft-loans/contracts/nft-loan.sol\":6904:6920  uint256[] memory */\n      0x60\n        /* \"nft-loans/contracts/nft-loan.sol\":6949:6952  nft */\n      0x0d\n      0x00\n      swap1\n      sload\n      swap1\n      0x0100\n      exp\n      swap1\n      div\n      0xffffffffffffffffffffffffffffffffffffffff\n      and\n        /* \"nft-loans/contracts/nft-loan.sol\":6927:6938  nftContract */\n      0x0a\n      0x00\n        /* \"nft-loans/contracts/nft-loan.sol\":6927:6953  nftContract = IERC721(nft) */\n      0x0100\n      exp\n      dup2\n      sload\n      dup2\n      0xffffffffffffffffffffffffffffffffffffffff\n      mul\n      not\n      and\n      swap1\n      dup4\n      0xffffffffffffffffffffffffffffffffffffffff\n      and\n      mul\n      or\n      swap1\n      sstore\n      pop\n        /* \"nft-loans/contracts/nft-loan.sol\":6959:6975  uint256 nowNumer */\n      0x00\n        /* \"nft-loans/contracts/nft-loan.sol\":6978:6989  loansNumber */\n      0x0c\n        /* \"nft-loans/contracts/nft-loan.sol\":6978:6995  loansNumber[user] */\n      0x00\n        /* \"nft-loans/contracts/nft-loan.sol\":6990:6994  user */\n      dup5\n        /* \"nft-loans/contracts/nft-loan.sol\":6978:6995  loansNumber[user] */\n      0xffffffffffffffffffffffffffffffffffffffff\n      and\n      0xffffffffffffffffffffffffffffffffffffffff\n      and\n      dup2\n      mstore\n      0x20\n      add\n      swap1\n      dup2\n      mstore\n      0x20\n      add\n      0x00\n      keccak256\n      sload\n        /* \"nft-loans/contracts/nft-loan.sol\":6959:6995  uint256 nowNumer = loansNumber[user] */\n      swap1\n      pop\n        /* \"nft-loans/contracts/nft-loan.sol\":7001:7007  uint l */\n      0x00\n        /* \"nft-loans/contracts/nft-loan.sol\":7017:7038  uint256[] memory list */\n      0x60\n        /* \"nft-loans/contracts/nft-loan.sol\":7049:7055  uint i */\n      0x00\n        /* \"nft-loans/contracts/nft-loan.sol\":7044:7392  for (uint i = 0; i < nowNumer; ++i ) {... */\n    tag_179:\n        /* \"nft-loans/contracts/nft-loan.sol\":7065:7073  nowNumer */\n      dup4\n        /* \"nft-loans/contracts/nft-loan.sol\":7061:7062  i */\n      dup2\n        /* \"nft-loans/contracts/nft-loan.sol\":7061:7073  i < nowNumer */\n      lt\n        /* \"nft-loans/contracts/nft-loan.sol\":7044:7392  for (uint i = 0; i < nowNumer; ++i ) {... */\n      iszero\n      tag_180\n      jumpi\n        /* \"nft-loans/contracts/nft-loan.sol\":7121:7122  1 */\n      0x01\n        /* \"nft-loans/contracts/nft-loan.sol\":7098:7103  loans */\n      0x0b\n        /* \"nft-loans/contracts/nft-loan.sol\":7098:7109  loans[user] */\n      0x00\n        /* \"nft-loans/contracts/nft-loan.sol\":7104:7108  user */\n      dup9\n        /* \"nft-loans/contracts/nft-loan.sol\":7098:7109  loans[user] */\n      0xffffffffffffffffffffffffffffffffffffffff\n      and\n      0xffffffffffffffffffffffffffffffffffffffff\n      and\n      dup2\n      mstore\n      0x20\n      add\n      swap1\n      dup2\n      mstore\n      0x20\n      add\n      0x00\n      keccak256\n        /* \"nft-loans/contracts/nft-loan.sol\":7110:7111  i */\n      dup3\n        /* \"nft-loans/contracts/nft-loan.sol\":7098:7112  loans[user][i] */\n      dup2\n      sload\n      dup2\n      lt\n      tag_182\n      jumpi\n      tag_183\n      tag_131\n      jump\t// in\n    tag_183:\n    tag_182:\n      swap1\n      0x00\n      mstore\n      keccak256(0x00, 0x20)\n      swap1\n      0x03\n      mul\n      add\n        /* \"nft-loans/contracts/nft-loan.sol\":7098:7117  loans[user][i].flag */\n      0x02\n      add\n      sload\n        /* \"nft-loans/contracts/nft-loan.sol\":7098:7122  loans[user][i].flag == 1 */\n      eq\n        /* \"nft-loans/contracts/nft-loan.sol\":7095:7371  if(loans[user][i].flag == 1){... */\n      iszero\n      tag_185\n      jumpi\n        /* \"nft-loans/contracts/nft-loan.sol\":7150:7155  start */\n      dup8\n        /* \"nft-loans/contracts/nft-loan.sol\":7145:7146  l */\n      dup4\n        /* \"nft-loans/contracts/nft-loan.sol\":7145:7155  l >= start */\n      lt\n      iszero\n        /* \"nft-loans/contracts/nft-loan.sol\":7145:7176  l >= start && l < start + limit */\n      dup1\n      iszero\n      tag_186\n      jumpi\n      pop\n        /* \"nft-loans/contracts/nft-loan.sol\":7171:7176  limit */\n      dup7\n        /* \"nft-loans/contracts/nft-loan.sol\":7163:7168  start */\n      dup9\n        /* \"nft-loans/contracts/nft-loan.sol\":7163:7176  start + limit */\n      tag_187\n      swap2\n      swap1\n      tag_188\n      jump\t// in\n    tag_187:\n        /* \"nft-loans/contracts/nft-loan.sol\":7159:7160  l */\n      dup4\n        /* \"nft-loans/contracts/nft-loan.sol\":7159:7176  l < start + limit */\n      lt\n        /* \"nft-loans/contracts/nft-loan.sol\":7145:7176  l >= start && l < start + limit */\n    tag_186:\n        /* \"nft-loans/contracts/nft-loan.sol\":7141:7267  if (l >= start && l < start + limit){... */\n      iszero\n      tag_189\n      jumpi\n        /* \"nft-loans/contracts/nft-loan.sol\":7205:7210  loans */\n      0x0b\n        /* \"nft-loans/contracts/nft-loan.sol\":7205:7216  loans[user] */\n      0x00\n        /* \"nft-loans/contracts/nft-loan.sol\":7211:7215  user */\n      dup8\n        /* \"nft-loans/contracts/nft-loan.sol\":7205:7216  loans[user] */\n      0xffffffffffffffffffffffffffffffffffffffff\n      and\n      0xffffffffffffffffffffffffffffffffffffffff\n      and\n      dup2\n      mstore\n      0x20\n      add\n      swap1\n      dup2\n      mstore\n      0x20\n      add\n      0x00\n      keccak256\n        /* \"nft-loans/contracts/nft-loan.sol\":7217:7218  i */\n      dup2\n        /* \"nft-loans/contracts/nft-loan.sol\":7205:7219  loans[user][i] */\n      dup2\n      sload\n      dup2\n      lt\n      tag_190\n      jumpi\n      tag_191\n      tag_131\n      jump\t// in\n    tag_191:\n    tag_190:\n      swap1\n      0x00\n      mstore\n      keccak256(0x00, 0x20)\n      swap1\n      0x03\n      mul\n      add\n        /* \"nft-loans/contracts/nft-loan.sol\":7205:7227  loans[user][i].tokenId */\n      0x00\n      add\n      sload\n        /* \"nft-loans/contracts/nft-loan.sol\":7195:7199  list */\n      dup3\n        /* \"nft-loans/contracts/nft-loan.sol\":7200:7201  l */\n      dup5\n        /* \"nft-loans/contracts/nft-loan.sol\":7195:7202  list[l] */\n      dup2\n      mload\n      dup2\n      lt\n      tag_193\n      jumpi\n      tag_194\n      tag_131\n      jump\t// in\n    tag_194:\n    tag_193:\n      0x20\n      mul\n      0x20\n      add\n      add\n        /* \"nft-loans/contracts/nft-loan.sol\":7195:7227  list[l] = loans[user][i].tokenId */\n      dup2\n      dup2\n      mstore\n      pop\n      pop\n        /* \"nft-loans/contracts/nft-loan.sol\":7245:7248  l++ */\n      dup3\n      dup1\n      tag_195\n      swap1\n      tag_149\n      jump\t// in\n    tag_195:\n      swap4\n      pop\n      pop\n        /* \"nft-loans/contracts/nft-loan.sol\":7141:7267  if (l >= start && l < start + limit){... */\n    tag_189:\n        /* \"nft-loans/contracts/nft-loan.sol\":7299:7304  limit */\n      dup7\n        /* \"nft-loans/contracts/nft-loan.sol\":7291:7296  start */\n      dup9\n        /* \"nft-loans/contracts/nft-loan.sol\":7291:7304  start + limit */\n      tag_196\n      swap2\n      swap1\n      tag_188\n      jump\t// in\n    tag_196:\n        /* \"nft-loans/contracts/nft-loan.sol\":7287:7288  l */\n      dup4\n        /* \"nft-loans/contracts/nft-loan.sol\":7287:7304  l > start + limit */\n      gt\n        /* \"nft-loans/contracts/nft-loan.sol\":7284:7357  if(l > start + limit){... */\n      iszero\n      tag_197\n      jumpi\n        /* \"nft-loans/contracts/nft-loan.sol\":7334:7338  list */\n      dup2\n        /* \"nft-loans/contracts/nft-loan.sol\":7327:7338  return list */\n      swap5\n      pop\n      pop\n      pop\n      pop\n      pop\n      jump(tag_178)\n        /* \"nft-loans/contracts/nft-loan.sol\":7284:7357  if(l > start + limit){... */\n    tag_197:\n        /* \"nft-loans/contracts/nft-loan.sol\":7095:7371  if(loans[user][i].flag == 1){... */\n    tag_185:\n        /* \"nft-loans/contracts/nft-loan.sol\":7075:7078  ++i */\n      dup1\n      tag_198\n      swap1\n      tag_149\n      jump\t// in\n    tag_198:\n      swap1\n      pop\n        /* \"nft-loans/contracts/nft-loan.sol\":7044:7392  for (uint i = 0; i < nowNumer; ++i ) {... */\n      jump(tag_179)\n    tag_180:\n      pop\n        /* \"nft-loans/contracts/nft-loan.sol\":7404:7408  list */\n      dup1\n        /* \"nft-loans/contracts/nft-loan.sol\":7397:7408  return list */\n      swap4\n      pop\n      pop\n      pop\n      pop\n        /* \"nft-loans/contracts/nft-loan.sol\":6833:7411  function loansList(uint start,uint limit,address user) public returns (uint256[] memory){... */\n    tag_178:\n      swap4\n      swap3\n      pop\n      pop\n      pop\n      jump\t// out\n        /* \"nft-loans/contracts/nft-loan.sol\":6664:6832  function ownerOf(uint256  _tokenId) public returns (address){... */\n    tag_71:\n        /* \"nft-loans/contracts/nft-loan.sol\":6716:6723  address */\n      0x00\n        /* \"nft-loans/contracts/nft-loan.sol\":6764:6767  nft */\n      0x0d\n      0x00\n      swap1\n      sload\n      swap1\n      0x0100\n      exp\n      swap1\n      div\n      0xffffffffffffffffffffffffffffffffffffffff\n      and\n        /* \"nft-loans/contracts/nft-loan.sol\":6742:6753  nftContract */\n      0x0a\n      0x00\n        /* \"nft-loans/contracts/nft-loan.sol\":6742:6768  nftContract = IERC721(nft) */\n      0x0100\n      exp\n      dup2\n      sload\n      dup2\n      0xffffffffffffffffffffffffffffffffffffffff\n      mul\n      not\n      and\n      swap1\n      dup4\n      0xffffffffffffffffffffffffffffffffffffffff\n      and\n      mul\n      or\n      swap1\n      sstore\n      pop\n        /* \"nft-loans/contracts/nft-loan.sol\":6793:6804  nftContract */\n      0x0a\n      0x00\n      swap1\n      sload\n      swap1\n      0x0100\n      exp\n      swap1\n      div\n      0xffffffffffffffffffffffffffffffffffffffff\n      and\n        /* \"nft-loans/contracts/nft-loan.sol\":6793:6812  nftContract.ownerOf */\n      0xffffffffffffffffffffffffffffffffffffffff\n      and\n      0x6352211e\n        /* \"nft-loans/contracts/nft-loan.sol\":6813:6821  _tokenId */\n      dup4\n        /* \"nft-loans/contracts/nft-loan.sol\":6793:6822  nftContract.ownerOf(_tokenId) */\n      mload(0x40)\n      dup3\n      0xffffffff\n      and\n      0xe0\n      shl\n      dup2\n      mstore\n      0x04\n      add\n      tag_200\n      swap2\n      swap1\n      tag_44\n      jump\t// in\n    tag_200:\n      0x20\n      mload(0x40)\n      dup1\n      dup4\n      sub\n      dup2\n      dup7\n      dup1\n      extcodesize\n      iszero\n      dup1\n      iszero\n      tag_201\n      jumpi\n      0x00\n      dup1\n      revert\n    tag_201:\n      pop\n      gas\n      staticcall\n      iszero\n      dup1\n      iszero\n      tag_203\n      jumpi\n      returndatasize\n      0x00\n      dup1\n      returndatacopy\n      revert(0x00, returndatasize)\n    tag_203:\n      pop\n      pop\n      pop\n      pop\n      mload(0x40)\n      returndatasize\n      not(0x1f)\n      0x1f\n      dup3\n      add\n      and\n      dup3\n      add\n      dup1\n      0x40\n      mstore\n      pop\n      dup2\n      add\n      swap1\n      tag_204\n      swap2\n      swap1\n      tag_205\n      jump\t// in\n    tag_204:\n        /* \"nft-loans/contracts/nft-loan.sol\":6786:6822  return nftContract.ownerOf(_tokenId) */\n      swap1\n      pop\n        /* \"nft-loans/contracts/nft-loan.sol\":6664:6832  function ownerOf(uint256  _tokenId) public returns (address){... */\n      swap2\n      swap1\n      pop\n      jump\t// out\n        /* \"nft-loans/contracts/nft-loan.sol\":542:655  function balanceOf(address _owner) public view returns (uint256 balance) {... */\n    tag_77:\n        /* \"nft-loans/contracts/nft-loan.sol\":598:613  uint256 balance */\n      0x00\n        /* \"nft-loans/contracts/nft-loan.sol\":632:640  balances */\n      0x04\n        /* \"nft-loans/contracts/nft-loan.sol\":632:648  balances[_owner] */\n      0x00\n        /* \"nft-loans/contracts/nft-loan.sol\":641:647  _owner */\n      dup4\n        /* \"nft-loans/contracts/nft-loan.sol\":632:648  balances[_owner] */\n      0xffffffffffffffffffffffffffffffffffffffff\n      and\n      0xffffffffffffffffffffffffffffffffffffffff\n      and\n      dup2\n      mstore\n      0x20\n      add\n      swap1\n      dup2\n      mstore\n      0x20\n      add\n      0x00\n      keccak256\n      sload\n        /* \"nft-loans/contracts/nft-loan.sol\":625:648  return balances[_owner] */\n      swap1\n      pop\n        /* \"nft-loans/contracts/nft-loan.sol\":542:655  function balanceOf(address _owner) public view returns (uint256 balance) {... */\n      swap2\n      swap1\n      pop\n      jump\t// out\n        /* \"nft-loans/contracts/nft-loan.sol\":1147:1238  function viewtotalSupply() public view returns (uint256){... */\n    tag_81:\n        /* \"nft-loans/contracts/nft-loan.sol\":1195:1202  uint256 */\n      0x00\n        /* \"nft-loans/contracts/nft-loan.sol\":1220:1231  totalSupply */\n      sload(0x03)\n        /* \"nft-loans/contracts/nft-loan.sol\":1213:1231  return totalSupply */\n      swap1\n      pop\n        /* \"nft-loans/contracts/nft-loan.sol\":1147:1238  function viewtotalSupply() public view returns (uint256){... */\n      swap1\n      jump\t// out\n        /* \"nft-loans/contracts/nft-loan.sol\":146:166  string public symbol */\n    tag_85:\n      0x01\n      dup1\n      sload\n      tag_208\n      swap1\n      tag_151\n      jump\t// in\n    tag_208:\n      dup1\n      0x1f\n      add\n      0x20\n      dup1\n      swap2\n      div\n      mul\n      0x20\n      add\n      mload(0x40)\n      swap1\n      dup2\n      add\n      0x40\n      mstore\n      dup1\n      swap3\n      swap2\n      swap1\n      dup2\n      dup2\n      mstore\n      0x20\n      add\n      dup3\n      dup1\n      sload\n      tag_209\n      swap1\n      tag_151\n      jump\t// in\n    tag_209:\n      dup1\n      iszero\n      tag_210\n      jumpi\n      dup1\n      0x1f\n      lt\n      tag_211\n      jumpi\n      0x0100\n      dup1\n      dup4\n      sload\n      div\n      mul\n      dup4\n      mstore\n      swap2\n      0x20\n      add\n      swap2\n      jump(tag_210)\n    tag_211:\n      dup3\n      add\n      swap2\n      swap1\n      0x00\n      mstore\n      keccak256(0x00, 0x20)\n      swap1\n    tag_212:\n      dup2\n      sload\n      dup2\n      mstore\n      swap1\n      0x01\n      add\n      swap1\n      0x20\n      add\n      dup1\n      dup4\n      gt\n      tag_212\n      jumpi\n      dup3\n      swap1\n      sub\n      0x1f\n      and\n      dup3\n      add\n      swap2\n    tag_210:\n      pop\n      pop\n      pop\n      pop\n      pop\n      dup2\n      jump\t// out\n        /* \"nft-loans/contracts/nft-loan.sol\":1991:2038  mapping (address => NftLoasInfo[]) public loans */\n    tag_90:\n      mstore(0x20, 0x0b)\n      dup2\n      0x00\n      mstore\n      keccak256(0x00, 0x40)\n      dup2\n      dup2\n      sload\n      dup2\n      lt\n      tag_213\n      jumpi\n      0x00\n      dup1\n      revert\n    tag_213:\n      swap1\n      0x00\n      mstore\n      keccak256(0x00, 0x20)\n      swap1\n      0x03\n      mul\n      add\n      0x00\n      swap2\n      pop\n      swap2\n      pop\n      pop\n      dup1\n      0x00\n      add\n      sload\n      swap1\n      dup1\n      0x01\n      add\n      sload\n      swap1\n      dup1\n      0x02\n      add\n      sload\n      swap1\n      pop\n      dup4\n      jump\t// out\n        /* \"nft-loans/contracts/nft-loan.sol\":2814:3101  function transfer(address _to, uint256 _value) public payable  returns (bool success){... */\n    tag_95:\n        /* \"nft-loans/contracts/nft-loan.sol\":2886:2898  bool success */\n      0x00\n        /* \"nft-loans/contracts/nft-loan.sol\":2910:2921  uint256 tax */\n      dup1\n        /* \"nft-loans/contracts/nft-loan.sol\":2924:2945  (_value * 0).div(100) */\n      tag_216\n        /* \"nft-loans/contracts/nft-loan.sol\":2941:2944  100 */\n      0x64\n        /* \"nft-loans/contracts/nft-loan.sol\":2934:2935  0 */\n      0x00\n        /* \"nft-loans/contracts/nft-loan.sol\":2925:2931  _value */\n      dup6\n        /* \"nft-loans/contracts/nft-loan.sol\":2925:2935  _value * 0 */\n      tag_217\n      swap2\n      swap1\n      tag_164\n      jump\t// in\n    tag_217:\n        /* \"nft-loans/contracts/nft-loan.sol\":2924:2940  (_value * 0).div */\n      tag_165\n      swap1\n        /* \"nft-loans/contracts/nft-loan.sol\":2924:2945  (_value * 0).div(100) */\n      swap2\n      swap1\n      0xffffffff\n      and\n      jump\t// in\n    tag_216:\n        /* \"nft-loans/contracts/nft-loan.sol\":2910:2945  uint256 tax = (_value * 0).div(100) */\n      swap1\n      pop\n        /* \"nft-loans/contracts/nft-loan.sol\":2956:2965  bool flag */\n      0x00\n        /* \"nft-loans/contracts/nft-loan.sol\":2968:2995  _transfer(foundation,tax,0) */\n      tag_218\n        /* \"nft-loans/contracts/nft-loan.sol\":2978:2988  foundation */\n      0x07\n      0x00\n      swap1\n      sload\n      swap1\n      0x0100\n      exp\n      swap1\n      div\n      0xffffffffffffffffffffffffffffffffffffffff\n      and\n        /* \"nft-loans/contracts/nft-loan.sol\":2989:2992  tax */\n      dup4\n        /* \"nft-loans/contracts/nft-loan.sol\":2993:2994  0 */\n      0x00\n        /* \"nft-loans/contracts/nft-loan.sol\":2968:2977  _transfer */\n      tag_219\n        /* \"nft-loans/contracts/nft-loan.sol\":2968:2995  _transfer(foundation,tax,0) */\n      jump\t// in\n    tag_218:\n        /* \"nft-loans/contracts/nft-loan.sol\":2956:2995  bool flag = _transfer(foundation,tax,0) */\n      swap1\n      pop\n        /* \"nft-loans/contracts/nft-loan.sol\":3014:3018  flag */\n      dup1\n        /* \"nft-loans/contracts/nft-loan.sol\":3006:3050  require(flag,\"transfer to foundation flase\") */\n      tag_220\n      jumpi\n      mload(0x40)\n      0x08c379a000000000000000000000000000000000000000000000000000000000\n      dup2\n      mstore\n      0x04\n      add\n      tag_221\n      swap1\n      tag_170\n      jump\t// in\n    tag_221:\n      mload(0x40)\n      dup1\n      swap2\n      sub\n      swap1\n      revert\n    tag_220:\n        /* \"nft-loans/contracts/nft-loan.sol\":3068:3093  _transfer(_to,_value,tax) */\n      tag_222\n        /* \"nft-loans/contracts/nft-loan.sol\":3078:3081  _to */\n      dup6\n        /* \"nft-loans/contracts/nft-loan.sol\":3082:3088  _value */\n      dup6\n        /* \"nft-loans/contracts/nft-loan.sol\":3089:3092  tax */\n      dup5\n        /* \"nft-loans/contracts/nft-loan.sol\":3068:3077  _transfer */\n      tag_219\n        /* \"nft-loans/contracts/nft-loan.sol\":3068:3093  _transfer(_to,_value,tax) */\n      jump\t// in\n    tag_222:\n        /* \"nft-loans/contracts/nft-loan.sol\":3061:3093  return _transfer(_to,_value,tax) */\n      swap3\n      pop\n      pop\n      pop\n        /* \"nft-loans/contracts/nft-loan.sol\":2814:3101  function transfer(address _to, uint256 _value) public payable  returns (bool success){... */\n      swap3\n      swap2\n      pop\n      pop\n      jump\t// out\n        /* \"nft-loans/contracts/nft-loan.sol\":2044:2091  mapping (address => uint256) public loansNumber */\n    tag_100:\n      mstore(0x20, 0x0c)\n      dup1\n      0x00\n      mstore\n      keccak256(0x00, 0x40)\n      0x00\n      swap2\n      pop\n      swap1\n      pop\n      sload\n      dup2\n      jump\t// out\n        /* \"nft-loans/contracts/nft-loan.sol\":1959:1985  IERC721 public nftContract */\n    tag_104:\n      0x0a\n      0x00\n      swap1\n      sload\n      swap1\n      0x0100\n      exp\n      swap1\n      div\n      0xffffffffffffffffffffffffffffffffffffffff\n      and\n      dup2\n      jump\t// out\n        /* \"nft-loans/contracts/nft-loan.sol\":955:1142  function allowance(address _owner, address _spender) public view returns (uint256 remaining) {... */\n    tag_111:\n        /* \"nft-loans/contracts/nft-loan.sol\":1029:1046  uint256 remaining */\n      0x00\n        /* \"nft-loans/contracts/nft-loan.sol\":1065:1072  allowed */\n      0x05\n        /* \"nft-loans/contracts/nft-loan.sol\":1065:1080  allowed[_owner] */\n      0x00\n        /* \"nft-loans/contracts/nft-loan.sol\":1073:1079  _owner */\n      dup5\n        /* \"nft-loans/contracts/nft-loan.sol\":1065:1080  allowed[_owner] */\n      0xffffffffffffffffffffffffffffffffffffffff\n      and\n      0xffffffffffffffffffffffffffffffffffffffff\n      and\n      dup2\n      mstore\n      0x20\n      add\n      swap1\n      dup2\n      mstore\n      0x20\n      add\n      0x00\n      keccak256\n        /* \"nft-loans/contracts/nft-loan.sol\":1065:1090  allowed[_owner][_spender] */\n      0x00\n        /* \"nft-loans/contracts/nft-loan.sol\":1081:1089  _spender */\n      dup4\n        /* \"nft-loans/contracts/nft-loan.sol\":1065:1090  allowed[_owner][_spender] */\n      0xffffffffffffffffffffffffffffffffffffffff\n      and\n      0xffffffffffffffffffffffffffffffffffffffff\n      and\n      dup2\n      mstore\n      0x20\n      add\n      swap1\n      dup2\n      mstore\n      0x20\n      add\n      0x00\n      keccak256\n      sload\n        /* \"nft-loans/contracts/nft-loan.sol\":1058:1090  return allowed[_owner][_spender] */\n      swap1\n      pop\n        /* \"nft-loans/contracts/nft-loan.sol\":955:1142  function allowance(address _owner, address _spender) public view returns (uint256 remaining) {... */\n      swap3\n      swap2\n      pop\n      pop\n      jump\t// out\n        /* \"nft-loans/contracts/nft-loan.sol\":5554:6187  function depositNFT(uint256  _tokenId) external payable {... */\n    tag_115:\n        /* \"nft-loans/contracts/nft-loan.sol\":5651:5654  nft */\n      0x0d\n      0x00\n      swap1\n      sload\n      swap1\n      0x0100\n      exp\n      swap1\n      div\n      0xffffffffffffffffffffffffffffffffffffffff\n      and\n        /* \"nft-loans/contracts/nft-loan.sol\":5629:5640  nftContract */\n      0x0a\n      0x00\n        /* \"nft-loans/contracts/nft-loan.sol\":5629:5655  nftContract = IERC721(nft) */\n      0x0100\n      exp\n      dup2\n      sload\n      dup2\n      0xffffffffffffffffffffffffffffffffffffffff\n      mul\n      not\n      and\n      swap1\n      dup4\n      0xffffffffffffffffffffffffffffffffffffffff\n      and\n      mul\n      or\n      swap1\n      sstore\n      pop\n        /* \"nft-loans/contracts/nft-loan.sol\":5714:5724  msg.sender */\n      caller\n        /* \"nft-loans/contracts/nft-loan.sol\":5681:5724  nftContract.ownerOf(_tokenId) == msg.sender */\n      0xffffffffffffffffffffffffffffffffffffffff\n      and\n        /* \"nft-loans/contracts/nft-loan.sol\":5681:5692  nftContract */\n      0x0a\n      0x00\n      swap1\n      sload\n      swap1\n      0x0100\n      exp\n      swap1\n      div\n      0xffffffffffffffffffffffffffffffffffffffff\n      and\n        /* \"nft-loans/contracts/nft-loan.sol\":5681:5700  nftContract.ownerOf */\n      0xffffffffffffffffffffffffffffffffffffffff\n      and\n      0x6352211e\n        /* \"nft-loans/contracts/nft-loan.sol\":5701:5709  _tokenId */\n      dup4\n        /* \"nft-loans/contracts/nft-loan.sol\":5681:5710  nftContract.ownerOf(_tokenId) */\n      mload(0x40)\n      dup3\n      0xffffffff\n      and\n      0xe0\n      shl\n      dup2\n      mstore\n      0x04\n      add\n      tag_225\n      swap2\n      swap1\n      tag_44\n      jump\t// in\n    tag_225:\n      0x20\n      mload(0x40)\n      dup1\n      dup4\n      sub\n      dup2\n      dup7\n      dup1\n      extcodesize\n      iszero\n      dup1\n      iszero\n      tag_226\n      jumpi\n      0x00\n      dup1\n      revert\n    tag_226:\n      pop\n      gas\n      staticcall\n      iszero\n      dup1\n      iszero\n      tag_228\n      jumpi\n      returndatasize\n      0x00\n      dup1\n      returndatacopy\n      revert(0x00, returndatasize)\n    tag_228:\n      pop\n      pop\n      pop\n      pop\n      mload(0x40)\n      returndatasize\n      not(0x1f)\n      0x1f\n      dup3\n      add\n      and\n      dup3\n      add\n      dup1\n      0x40\n      mstore\n      pop\n      dup2\n      add\n      swap1\n      tag_229\n      swap2\n      swap1\n      tag_205\n      jump\t// in\n    tag_229:\n        /* \"nft-loans/contracts/nft-loan.sol\":5681:5724  nftContract.ownerOf(_tokenId) == msg.sender */\n      0xffffffffffffffffffffffffffffffffffffffff\n      and\n      eq\n        /* \"nft-loans/contracts/nft-loan.sol\":5673:5751  require(nftContract.ownerOf(_tokenId) == msg.sender, \"You don't own this NFT\") */\n      tag_230\n      jumpi\n      mload(0x40)\n      0x08c379a000000000000000000000000000000000000000000000000000000000\n      dup2\n      mstore\n      0x04\n      add\n      tag_231\n      swap1\n      tag_232\n      jump\t// in\n    tag_231:\n      mload(0x40)\n      dup1\n      swap2\n      sub\n      swap1\n      revert\n    tag_230:\n        /* \"nft-loans/contracts/nft-loan.sol\":5554:6187  function depositNFT(uint256  _tokenId) external payable {... */\n      pop\n      jump\t// out\n        /* \"nft-loans/contracts/nft-loan.sol\":7412:7708  function loansCount(address user) public view returns (uint256){... */\n    tag_119:\n        /* \"nft-loans/contracts/nft-loan.sol\":7467:7474  uint256 */\n      0x00\n        /* \"nft-loans/contracts/nft-loan.sol\":7481:7497  uint256 nowNumer */\n      dup1\n        /* \"nft-loans/contracts/nft-loan.sol\":7500:7511  loansNumber */\n      0x0c\n        /* \"nft-loans/contracts/nft-loan.sol\":7500:7517  loansNumber[user] */\n      0x00\n        /* \"nft-loans/contracts/nft-loan.sol\":7512:7516  user */\n      dup5\n        /* \"nft-loans/contracts/nft-loan.sol\":7500:7517  loansNumber[user] */\n      0xffffffffffffffffffffffffffffffffffffffff\n      and\n      0xffffffffffffffffffffffffffffffffffffffff\n      and\n      dup2\n      mstore\n      0x20\n      add\n      swap1\n      dup2\n      mstore\n      0x20\n      add\n      0x00\n      keccak256\n      sload\n        /* \"nft-loans/contracts/nft-loan.sol\":7481:7517  uint256 nowNumer = loansNumber[user] */\n      swap1\n      pop\n        /* \"nft-loans/contracts/nft-loan.sol\":7528:7534  uint i */\n      0x00\n        /* \"nft-loans/contracts/nft-loan.sol\":7523:7685  for (uint i = 0; i < nowNumer; ++i ) {... */\n    tag_234:\n        /* \"nft-loans/contracts/nft-loan.sol\":7544:7552  nowNumer */\n      dup2\n        /* \"nft-loans/contracts/nft-loan.sol\":7540:7541  i */\n      dup2\n        /* \"nft-loans/contracts/nft-loan.sol\":7540:7552  i < nowNumer */\n      lt\n        /* \"nft-loans/contracts/nft-loan.sol\":7523:7685  for (uint i = 0; i < nowNumer; ++i ) {... */\n      iszero\n      tag_235\n      jumpi\n        /* \"nft-loans/contracts/nft-loan.sol\":7600:7601  0 */\n      0x00\n        /* \"nft-loans/contracts/nft-loan.sol\":7577:7582  loans */\n      0x0b\n        /* \"nft-loans/contracts/nft-loan.sol\":7577:7588  loans[user] */\n      0x00\n        /* \"nft-loans/contracts/nft-loan.sol\":7583:7587  user */\n      dup7\n        /* \"nft-loans/contracts/nft-loan.sol\":7577:7588  loans[user] */\n      0xffffffffffffffffffffffffffffffffffffffff\n      and\n      0xffffffffffffffffffffffffffffffffffffffff\n      and\n      dup2\n      mstore\n      0x20\n      add\n      swap1\n      dup2\n      mstore\n      0x20\n      add\n      0x00\n      keccak256\n        /* \"nft-loans/contracts/nft-loan.sol\":7589:7590  i */\n      dup3\n        /* \"nft-loans/contracts/nft-loan.sol\":7577:7591  loans[user][i] */\n      dup2\n      sload\n      dup2\n      lt\n      tag_237\n      jumpi\n      tag_238\n      tag_131\n      jump\t// in\n    tag_238:\n    tag_237:\n      swap1\n      0x00\n      mstore\n      keccak256(0x00, 0x20)\n      swap1\n      0x03\n      mul\n      add\n        /* \"nft-loans/contracts/nft-loan.sol\":7577:7596  loans[user][i].flag */\n      0x02\n      add\n      sload\n        /* \"nft-loans/contracts/nft-loan.sol\":7577:7601  loans[user][i].flag == 0 */\n      eq\n        /* \"nft-loans/contracts/nft-loan.sol\":7574:7649  if(loans[user][i].flag == 0){... */\n      iszero\n      tag_240\n      jumpi\n        /* \"nft-loans/contracts/nft-loan.sol\":7620:7630  nowNumer-- */\n      dup2\n      dup1\n      tag_241\n      swap1\n      tag_242\n      jump\t// in\n    tag_241:\n      swap3\n      pop\n      pop\n        /* \"nft-loans/contracts/nft-loan.sol\":7574:7649  if(loans[user][i].flag == 0){... */\n    tag_240:\n        /* \"nft-loans/contracts/nft-loan.sol\":7554:7557  ++i */\n      dup1\n      tag_243\n      swap1\n      tag_149\n      jump\t// in\n    tag_243:\n      swap1\n      pop\n        /* \"nft-loans/contracts/nft-loan.sol\":7523:7685  for (uint i = 0; i < nowNumer; ++i ) {... */\n      jump(tag_234)\n    tag_235:\n      pop\n        /* \"nft-loans/contracts/nft-loan.sol\":7697:7705  nowNumer */\n      dup1\n        /* \"nft-loans/contracts/nft-loan.sol\":7690:7705  return nowNumer */\n      swap2\n      pop\n      pop\n        /* \"nft-loans/contracts/nft-loan.sol\":7412:7708  function loansCount(address user) public view returns (uint256){... */\n      swap2\n      swap1\n      pop\n      jump\t// out\n        /* \"nft-loans/contracts/nft-loan.sol\":9502:9675  function div(uint256 a, uint256 b) internal pure returns (uint256) {... */\n    tag_165:\n        /* \"nft-loans/contracts/nft-loan.sol\":9560:9567  uint256 */\n      0x00\n        /* \"nft-loans/contracts/nft-loan.sol\":9591:9592  0 */\n      dup1\n        /* \"nft-loans/contracts/nft-loan.sol\":9587:9588  b */\n      dup3\n        /* \"nft-loans/contracts/nft-loan.sol\":9587:9592  b > 0 */\n      gt\n        /* \"nft-loans/contracts/nft-loan.sol\":9579:9623  require(b > 0, \"SafeMath:division overflow\") */\n      tag_245\n      jumpi\n      mload(0x40)\n      0x08c379a000000000000000000000000000000000000000000000000000000000\n      dup2\n      mstore\n      0x04\n      add\n      tag_246\n      swap1\n      tag_247\n      jump\t// in\n    tag_246:\n      mload(0x40)\n      dup1\n      swap2\n      sub\n      swap1\n      revert\n    tag_245:\n        /* \"nft-loans/contracts/nft-loan.sol\":9633:9642  uint256 c */\n      0x00\n        /* \"nft-loans/contracts/nft-loan.sol\":9649:9650  b */\n      dup3\n        /* \"nft-loans/contracts/nft-loan.sol\":9645:9646  a */\n      dup5\n        /* \"nft-loans/contracts/nft-loan.sol\":9645:9650  a / b */\n      tag_248\n      swap2\n      swap1\n      tag_249\n      jump\t// in\n    tag_248:\n        /* \"nft-loans/contracts/nft-loan.sol\":9633:9650  uint256 c = a / b */\n      swap1\n      pop\n        /* \"nft-loans/contracts/nft-loan.sol\":9667:9668  c */\n      dup1\n        /* \"nft-loans/contracts/nft-loan.sol\":9660:9668  return c */\n      swap2\n      pop\n      pop\n        /* \"nft-loans/contracts/nft-loan.sol\":9502:9675  function div(uint256 a, uint256 b) internal pure returns (uint256) {... */\n      swap3\n      swap2\n      pop\n      pop\n      jump\t// out\n        /* \"nft-loans/contracts/nft-loan.sol\":4137:4918  function _transferFrom(address _from, address _to, uint256 _value,uint256 tax) internal returns ... */\n    tag_167:\n        /* \"nft-loans/contracts/nft-loan.sol\":4239:4251  bool success */\n      0x00\n        /* \"nft-loans/contracts/nft-loan.sol\":4290:4296  _value */\n      dup3\n        /* \"nft-loans/contracts/nft-loan.sol\":4271:4279  balances */\n      0x04\n        /* \"nft-loans/contracts/nft-loan.sol\":4271:4286  balances[_from] */\n      0x00\n        /* \"nft-loans/contracts/nft-loan.sol\":4280:4285  _from */\n      dup8\n        /* \"nft-loans/contracts/nft-loan.sol\":4271:4286  balances[_from] */\n      0xffffffffffffffffffffffffffffffffffffffff\n      and\n      0xffffffffffffffffffffffffffffffffffffffff\n      and\n      dup2\n      mstore\n      0x20\n      add\n      swap1\n      dup2\n      mstore\n      0x20\n      add\n      0x00\n      keccak256\n      sload\n        /* \"nft-loans/contracts/nft-loan.sol\":4271:4296  balances[_from] >= _value */\n      lt\n      iszero\n        /* \"nft-loans/contracts/nft-loan.sol\":4271:4336  balances[_from] >= _value && allowed[_from][msg.sender] >= _value */\n      dup1\n      iszero\n      tag_251\n      jumpi\n      pop\n        /* \"nft-loans/contracts/nft-loan.sol\":4330:4336  _value */\n      dup3\n        /* \"nft-loans/contracts/nft-loan.sol\":4300:4307  allowed */\n      0x05\n        /* \"nft-loans/contracts/nft-loan.sol\":4300:4314  allowed[_from] */\n      0x00\n        /* \"nft-loans/contracts/nft-loan.sol\":4308:4313  _from */\n      dup8\n        /* \"nft-loans/contracts/nft-loan.sol\":4300:4314  allowed[_from] */\n      0xffffffffffffffffffffffffffffffffffffffff\n      and\n      0xffffffffffffffffffffffffffffffffffffffff\n      and\n      dup2\n      mstore\n      0x20\n      add\n      swap1\n      dup2\n      mstore\n      0x20\n      add\n      0x00\n      keccak256\n        /* \"nft-loans/contracts/nft-loan.sol\":4300:4326  allowed[_from][msg.sender] */\n      0x00\n        /* \"nft-loans/contracts/nft-loan.sol\":4315:4325  msg.sender */\n      caller\n        /* \"nft-loans/contracts/nft-loan.sol\":4300:4326  allowed[_from][msg.sender] */\n      0xffffffffffffffffffffffffffffffffffffffff\n      and\n      0xffffffffffffffffffffffffffffffffffffffff\n      and\n      dup2\n      mstore\n      0x20\n      add\n      swap1\n      dup2\n      mstore\n      0x20\n      add\n      0x00\n      keccak256\n      sload\n        /* \"nft-loans/contracts/nft-loan.sol\":4300:4336  allowed[_from][msg.sender] >= _value */\n      lt\n      iszero\n        /* \"nft-loans/contracts/nft-loan.sol\":4271:4336  balances[_from] >= _value && allowed[_from][msg.sender] >= _value */\n    tag_251:\n        /* \"nft-loans/contracts/nft-loan.sol\":4263:4358  require(balances[_from] >= _value && allowed[_from][msg.sender] >= _value,\"Insufficient funds\") */\n      tag_252\n      jumpi\n      mload(0x40)\n      0x08c379a000000000000000000000000000000000000000000000000000000000\n      dup2\n      mstore\n      0x04\n      add\n      tag_253\n      swap1\n      tag_254\n      jump\t// in\n    tag_253:\n      mload(0x40)\n      dup1\n      swap2\n      sub\n      swap1\n      revert\n    tag_252:\n        /* \"nft-loans/contracts/nft-loan.sol\":4412:4418  _value */\n      dup3\n        /* \"nft-loans/contracts/nft-loan.sol\":4376:4383  details */\n      0x08\n        /* \"nft-loans/contracts/nft-loan.sol\":4376:4390  details[_from] */\n      0x00\n        /* \"nft-loans/contracts/nft-loan.sol\":4384:4389  _from */\n      dup8\n        /* \"nft-loans/contracts/nft-loan.sol\":4376:4390  details[_from] */\n      0xffffffffffffffffffffffffffffffffffffffff\n      and\n      0xffffffffffffffffffffffffffffffffffffffff\n      and\n      dup2\n      mstore\n      0x20\n      add\n      swap1\n      dup2\n      mstore\n      0x20\n      add\n      0x00\n      keccak256\n        /* \"nft-loans/contracts/nft-loan.sol\":4376:4408  details[_from].avilable_balances */\n      0x01\n      add\n      sload\n        /* \"nft-loans/contracts/nft-loan.sol\":4376:4418  details[_from].avilable_balances >= _value */\n      lt\n      iszero\n        /* \"nft-loans/contracts/nft-loan.sol\":4368:4440  require(details[_from].avilable_balances >= _value,\"Insufficient funds\") */\n      tag_255\n      jumpi\n      mload(0x40)\n      0x08c379a000000000000000000000000000000000000000000000000000000000\n      dup2\n      mstore\n      0x04\n      add\n      tag_256\n      swap1\n      tag_254\n      jump\t// in\n    tag_256:\n      mload(0x40)\n      dup1\n      swap2\n      sub\n      swap1\n      revert\n    tag_255:\n        /* \"nft-loans/contracts/nft-loan.sol\":4469:4475  _value */\n      dup3\n        /* \"nft-loans/contracts/nft-loan.sol\":4450:4458  balances */\n      0x04\n        /* \"nft-loans/contracts/nft-loan.sol\":4450:4465  balances[_from] */\n      0x00\n        /* \"nft-loans/contracts/nft-loan.sol\":4459:4464  _from */\n      dup8\n        /* \"nft-loans/contracts/nft-loan.sol\":4450:4465  balances[_from] */\n      0xffffffffffffffffffffffffffffffffffffffff\n      and\n      0xffffffffffffffffffffffffffffffffffffffff\n      and\n      dup2\n      mstore\n      0x20\n      add\n      swap1\n      dup2\n      mstore\n      0x20\n      add\n      0x00\n      keccak256\n      0x00\n        /* \"nft-loans/contracts/nft-loan.sol\":4450:4475  balances[_from] -= _value */\n      dup3\n      dup3\n      sload\n      tag_257\n      swap2\n      swap1\n      tag_258\n      jump\t// in\n    tag_257:\n      swap3\n      pop\n      pop\n      dup2\n      swap1\n      sstore\n      pop\n        /* \"nft-loans/contracts/nft-loan.sol\":4564:4570  _value */\n      dup3\n        /* \"nft-loans/contracts/nft-loan.sol\":4528:4535  details */\n      0x08\n        /* \"nft-loans/contracts/nft-loan.sol\":4528:4542  details[_from] */\n      0x00\n        /* \"nft-loans/contracts/nft-loan.sol\":4536:4541  _from */\n      dup8\n        /* \"nft-loans/contracts/nft-loan.sol\":4528:4542  details[_from] */\n      0xffffffffffffffffffffffffffffffffffffffff\n      and\n      0xffffffffffffffffffffffffffffffffffffffff\n      and\n      dup2\n      mstore\n      0x20\n      add\n      swap1\n      dup2\n      mstore\n      0x20\n      add\n      0x00\n      keccak256\n        /* \"nft-loans/contracts/nft-loan.sol\":4528:4560  details[_from].avilable_balances */\n      0x01\n      add\n      0x00\n        /* \"nft-loans/contracts/nft-loan.sol\":4528:4570  details[_from].avilable_balances -= _value */\n      dup3\n      dup3\n      sload\n      tag_259\n      swap2\n      swap1\n      tag_258\n      jump\t// in\n    tag_259:\n      swap3\n      pop\n      pop\n      dup2\n      swap1\n      sstore\n      pop\n        /* \"nft-loans/contracts/nft-loan.sol\":4597:4612  _value.sub(tax) */\n      tag_260\n        /* \"nft-loans/contracts/nft-loan.sol\":4608:4611  tax */\n      dup3\n        /* \"nft-loans/contracts/nft-loan.sol\":4597:4603  _value */\n      dup5\n        /* \"nft-loans/contracts/nft-loan.sol\":4597:4607  _value.sub */\n      tag_261\n      swap1\n        /* \"nft-loans/contracts/nft-loan.sol\":4597:4612  _value.sub(tax) */\n      swap2\n      swap1\n      0xffffffff\n      and\n      jump\t// in\n    tag_260:\n        /* \"nft-loans/contracts/nft-loan.sol\":4580:4588  balances */\n      0x04\n        /* \"nft-loans/contracts/nft-loan.sol\":4580:4593  balances[_to] */\n      0x00\n        /* \"nft-loans/contracts/nft-loan.sol\":4589:4592  _to */\n      dup7\n        /* \"nft-loans/contracts/nft-loan.sol\":4580:4593  balances[_to] */\n      0xffffffffffffffffffffffffffffffffffffffff\n      and\n      0xffffffffffffffffffffffffffffffffffffffff\n      and\n      dup2\n      mstore\n      0x20\n      add\n      swap1\n      dup2\n      mstore\n      0x20\n      add\n      0x00\n      keccak256\n      0x00\n        /* \"nft-loans/contracts/nft-loan.sol\":4580:4612  balances[_to] += _value.sub(tax) */\n      dup3\n      dup3\n      sload\n      tag_262\n      swap2\n      swap1\n      tag_188\n      jump\t// in\n    tag_262:\n      swap3\n      pop\n      pop\n      dup2\n      swap1\n      sstore\n      pop\n        /* \"nft-loans/contracts/nft-loan.sol\":4693:4708  _value.sub(tax) */\n      tag_263\n        /* \"nft-loans/contracts/nft-loan.sol\":4704:4707  tax */\n      dup3\n        /* \"nft-loans/contracts/nft-loan.sol\":4693:4699  _value */\n      dup5\n        /* \"nft-loans/contracts/nft-loan.sol\":4693:4703  _value.sub */\n      tag_261\n      swap1\n        /* \"nft-loans/contracts/nft-loan.sol\":4693:4708  _value.sub(tax) */\n      swap2\n      swap1\n      0xffffffff\n      and\n      jump\t// in\n    tag_263:\n        /* \"nft-loans/contracts/nft-loan.sol\":4659:4666  details */\n      0x08\n        /* \"nft-loans/contracts/nft-loan.sol\":4659:4671  details[_to] */\n      0x00\n        /* \"nft-loans/contracts/nft-loan.sol\":4667:4670  _to */\n      dup7\n        /* \"nft-loans/contracts/nft-loan.sol\":4659:4671  details[_to] */\n      0xffffffffffffffffffffffffffffffffffffffff\n      and\n      0xffffffffffffffffffffffffffffffffffffffff\n      and\n      dup2\n      mstore\n      0x20\n      add\n      swap1\n      dup2\n      mstore\n      0x20\n      add\n      0x00\n      keccak256\n        /* \"nft-loans/contracts/nft-loan.sol\":4659:4689  details[_to].avilable_balances */\n      0x01\n      add\n      0x00\n        /* \"nft-loans/contracts/nft-loan.sol\":4659:4708  details[_to].avilable_balances += _value.sub(tax) */\n      dup3\n      dup3\n      sload\n      tag_264\n      swap2\n      swap1\n      tag_188\n      jump\t// in\n    tag_264:\n      swap3\n      pop\n      pop\n      dup2\n      swap1\n      sstore\n      pop\n        /* \"nft-loans/contracts/nft-loan.sol\":4748:4754  _value */\n      dup3\n        /* \"nft-loans/contracts/nft-loan.sol\":4718:4725  allowed */\n      0x05\n        /* \"nft-loans/contracts/nft-loan.sol\":4718:4732  allowed[_from] */\n      0x00\n        /* \"nft-loans/contracts/nft-loan.sol\":4726:4731  _from */\n      dup8\n        /* \"nft-loans/contracts/nft-loan.sol\":4718:4732  allowed[_from] */\n      0xffffffffffffffffffffffffffffffffffffffff\n      and\n      0xffffffffffffffffffffffffffffffffffffffff\n      and\n      dup2\n      mstore\n      0x20\n      add\n      swap1\n      dup2\n      mstore\n      0x20\n      add\n      0x00\n      keccak256\n        /* \"nft-loans/contracts/nft-loan.sol\":4718:4744  allowed[_from][msg.sender] */\n      0x00\n        /* \"nft-loans/contracts/nft-loan.sol\":4733:4743  msg.sender */\n      caller\n        /* \"nft-loans/contracts/nft-loan.sol\":4718:4744  allowed[_from][msg.sender] */\n      0xffffffffffffffffffffffffffffffffffffffff\n      and\n      0xffffffffffffffffffffffffffffffffffffffff\n      and\n      dup2\n      mstore\n      0x20\n      add\n      swap1\n      dup2\n      mstore\n      0x20\n      add\n      0x00\n      keccak256\n      0x00\n        /* \"nft-loans/contracts/nft-loan.sol\":4718:4754  allowed[_from][msg.sender] -= _value */\n      dup3\n      dup3\n      sload\n      tag_265\n      swap2\n      swap1\n      tag_258\n      jump\t// in\n    tag_265:\n      swap3\n      pop\n      pop\n      dup2\n      swap1\n      sstore\n      pop\n        /* \"nft-loans/contracts/nft-loan.sol\":4836:4864  Transfer(_from, _to, _value) */\n      0xddf252ad1be2c89b69c2b068fc378daa952ba7f163c4a11628f55a4df523b3ef\n        /* \"nft-loans/contracts/nft-loan.sol\":4845:4850  _from */\n      dup6\n        /* \"nft-loans/contracts/nft-loan.sol\":4852:4855  _to */\n      dup6\n        /* \"nft-loans/contracts/nft-loan.sol\":4857:4863  _value */\n      dup6\n        /* \"nft-loans/contracts/nft-loan.sol\":4836:4864  Transfer(_from, _to, _value) */\n      mload(0x40)\n      tag_266\n      swap4\n      swap3\n      swap2\n      swap1\n      tag_160\n      jump\t// in\n    tag_266:\n      mload(0x40)\n      dup1\n      swap2\n      sub\n      swap1\n      log1\n        /* \"nft-loans/contracts/nft-loan.sol\":4907:4911  true */\n      0x01\n        /* \"nft-loans/contracts/nft-loan.sol\":4900:4911  return true */\n      swap1\n      pop\n        /* \"nft-loans/contracts/nft-loan.sol\":4137:4918  function _transferFrom(address _from, address _to, uint256 _value,uint256 tax) internal returns ... */\n      swap5\n      swap4\n      pop\n      pop\n      pop\n      pop\n      jump\t// out\n        /* \"nft-loans/contracts/nft-loan.sol\":5446:5541  function _bind(address _self,address _to) internal{... */\n    tag_177:\n        /* \"nft-loans/contracts/nft-loan.sol\":5533:5536  _to */\n      dup1\n        /* \"nft-loans/contracts/nft-loan.sol\":5504:5511  details */\n      0x08\n        /* \"nft-loans/contracts/nft-loan.sol\":5504:5518  details[_self] */\n      0x00\n        /* \"nft-loans/contracts/nft-loan.sol\":5512:5517  _self */\n      dup5\n        /* \"nft-loans/contracts/nft-loan.sol\":5504:5518  details[_self] */\n      0xffffffffffffffffffffffffffffffffffffffff\n      and\n      0xffffffffffffffffffffffffffffffffffffffff\n      and\n      dup2\n      mstore\n      0x20\n      add\n      swap1\n      dup2\n      mstore\n      0x20\n      add\n      0x00\n      keccak256\n        /* \"nft-loans/contracts/nft-loan.sol\":5504:5530  details[_self].recommender */\n      0x02\n      add\n      0x00\n        /* \"nft-loans/contracts/nft-loan.sol\":5504:5536  details[_self].recommender = _to */\n      0x0100\n      exp\n      dup2\n      sload\n      dup2\n      0xffffffffffffffffffffffffffffffffffffffff\n      mul\n      not\n      and\n      swap1\n      dup4\n      0xffffffffffffffffffffffffffffffffffffffff\n      and\n      mul\n      or\n      swap1\n      sstore\n      pop\n        /* \"nft-loans/contracts/nft-loan.sol\":5446:5541  function _bind(address _self,address _to) internal{... */\n      pop\n      pop\n      jump\t// out\n        /* \"nft-loans/contracts/nft-loan.sol\":3436:4132  function _transfer(address _to, uint256 _value,uint256 tax) internal returns (bool success){... */\n    tag_219:\n        /* \"nft-loans/contracts/nft-loan.sol\":3514:3526  bool success */\n      0x00\n        /* \"nft-loans/contracts/nft-loan.sol\":3569:3575  _value */\n      dup3\n        /* \"nft-loans/contracts/nft-loan.sol\":3545:3553  balances */\n      0x04\n        /* \"nft-loans/contracts/nft-loan.sol\":3545:3565  balances[msg.sender] */\n      0x00\n        /* \"nft-loans/contracts/nft-loan.sol\":3554:3564  msg.sender */\n      caller\n        /* \"nft-loans/contracts/nft-loan.sol\":3545:3565  balances[msg.sender] */\n      0xffffffffffffffffffffffffffffffffffffffff\n      and\n      0xffffffffffffffffffffffffffffffffffffffff\n      and\n      dup2\n      mstore\n      0x20\n      add\n      swap1\n      dup2\n      mstore\n      0x20\n      add\n      0x00\n      keccak256\n      sload\n        /* \"nft-loans/contracts/nft-loan.sol\":3545:3575  balances[msg.sender] >= _value */\n      lt\n      iszero\n        /* \"nft-loans/contracts/nft-loan.sol\":3545:3617  balances[msg.sender] >= _value && balances[_to] + _value > balances[_to] */\n      dup1\n      iszero\n      tag_269\n      jumpi\n      pop\n        /* \"nft-loans/contracts/nft-loan.sol\":3604:3612  balances */\n      0x04\n        /* \"nft-loans/contracts/nft-loan.sol\":3604:3617  balances[_to] */\n      0x00\n        /* \"nft-loans/contracts/nft-loan.sol\":3613:3616  _to */\n      dup6\n        /* \"nft-loans/contracts/nft-loan.sol\":3604:3617  balances[_to] */\n      0xffffffffffffffffffffffffffffffffffffffff\n      and\n      0xffffffffffffffffffffffffffffffffffffffff\n      and\n      dup2\n      mstore\n      0x20\n      add\n      swap1\n      dup2\n      mstore\n      0x20\n      add\n      0x00\n      keccak256\n      sload\n        /* \"nft-loans/contracts/nft-loan.sol\":3595:3601  _value */\n      dup4\n        /* \"nft-loans/contracts/nft-loan.sol\":3579:3587  balances */\n      0x04\n        /* \"nft-loans/contracts/nft-loan.sol\":3579:3592  balances[_to] */\n      0x00\n        /* \"nft-loans/contracts/nft-loan.sol\":3588:3591  _to */\n      dup8\n        /* \"nft-loans/contracts/nft-loan.sol\":3579:3592  balances[_to] */\n      0xffffffffffffffffffffffffffffffffffffffff\n      and\n      0xffffffffffffffffffffffffffffffffffffffff\n      and\n      dup2\n      mstore\n      0x20\n      add\n      swap1\n      dup2\n      mstore\n      0x20\n      add\n      0x00\n      keccak256\n      sload\n        /* \"nft-loans/contracts/nft-loan.sol\":3579:3601  balances[_to] + _value */\n      tag_270\n      swap2\n      swap1\n      tag_188\n      jump\t// in\n    tag_270:\n        /* \"nft-loans/contracts/nft-loan.sol\":3579:3617  balances[_to] + _value > balances[_to] */\n      gt\n        /* \"nft-loans/contracts/nft-loan.sol\":3545:3617  balances[msg.sender] >= _value && balances[_to] + _value > balances[_to] */\n    tag_269:\n        /* \"nft-loans/contracts/nft-loan.sol\":3537:3639  require(balances[msg.sender] >= _value && balances[_to] + _value > balances[_to],\"Insufficient funds\") */\n      tag_271\n      jumpi\n      mload(0x40)\n      0x08c379a000000000000000000000000000000000000000000000000000000000\n      dup2\n      mstore\n      0x04\n      add\n      tag_272\n      swap1\n      tag_254\n      jump\t// in\n    tag_272:\n      mload(0x40)\n      dup1\n      swap2\n      sub\n      swap1\n      revert\n    tag_271:\n        /* \"nft-loans/contracts/nft-loan.sol\":3698:3704  _value */\n      dup3\n        /* \"nft-loans/contracts/nft-loan.sol\":3657:3664  details */\n      0x08\n        /* \"nft-loans/contracts/nft-loan.sol\":3657:3676  details[msg.sender] */\n      0x00\n        /* \"nft-loans/contracts/nft-loan.sol\":3665:3675  msg.sender */\n      caller\n        /* \"nft-loans/contracts/nft-loan.sol\":3657:3676  details[msg.sender] */\n      0xffffffffffffffffffffffffffffffffffffffff\n      and\n      0xffffffffffffffffffffffffffffffffffffffff\n      and\n      dup2\n      mstore\n      0x20\n      add\n      swap1\n      dup2\n      mstore\n      0x20\n      add\n      0x00\n      keccak256\n        /* \"nft-loans/contracts/nft-loan.sol\":3657:3694  details[msg.sender].avilable_balances */\n      0x01\n      add\n      sload\n        /* \"nft-loans/contracts/nft-loan.sol\":3657:3704  details[msg.sender].avilable_balances >= _value */\n      lt\n      iszero\n        /* \"nft-loans/contracts/nft-loan.sol\":3649:3726  require(details[msg.sender].avilable_balances >= _value,\"Insufficient funds\") */\n      tag_273\n      jumpi\n      mload(0x40)\n      0x08c379a000000000000000000000000000000000000000000000000000000000\n      dup2\n      mstore\n      0x04\n      add\n      tag_274\n      swap1\n      tag_254\n      jump\t// in\n    tag_274:\n      mload(0x40)\n      dup1\n      swap2\n      sub\n      swap1\n      revert\n    tag_273:\n        /* \"nft-loans/contracts/nft-loan.sol\":3760:3766  _value */\n      dup3\n        /* \"nft-loans/contracts/nft-loan.sol\":3736:3744  balances */\n      0x04\n        /* \"nft-loans/contracts/nft-loan.sol\":3736:3756  balances[msg.sender] */\n      0x00\n        /* \"nft-loans/contracts/nft-loan.sol\":3745:3755  msg.sender */\n      caller\n        /* \"nft-loans/contracts/nft-loan.sol\":3736:3756  balances[msg.sender] */\n      0xffffffffffffffffffffffffffffffffffffffff\n      and\n      0xffffffffffffffffffffffffffffffffffffffff\n      and\n      dup2\n      mstore\n      0x20\n      add\n      swap1\n      dup2\n      mstore\n      0x20\n      add\n      0x00\n      keccak256\n      0x00\n        /* \"nft-loans/contracts/nft-loan.sol\":3736:3766  balances[msg.sender] -= _value */\n      dup3\n      dup3\n      sload\n      tag_275\n      swap2\n      swap1\n      tag_258\n      jump\t// in\n    tag_275:\n      swap3\n      pop\n      pop\n      dup2\n      swap1\n      sstore\n      pop\n        /* \"nft-loans/contracts/nft-loan.sol\":3875:3881  _value */\n      dup3\n        /* \"nft-loans/contracts/nft-loan.sol\":3834:3841  details */\n      0x08\n        /* \"nft-loans/contracts/nft-loan.sol\":3834:3853  details[msg.sender] */\n      0x00\n        /* \"nft-loans/contracts/nft-loan.sol\":3842:3852  msg.sender */\n      caller\n        /* \"nft-loans/contracts/nft-loan.sol\":3834:3853  details[msg.sender] */\n      0xffffffffffffffffffffffffffffffffffffffff\n      and\n      0xffffffffffffffffffffffffffffffffffffffff\n      and\n      dup2\n      mstore\n      0x20\n      add\n      swap1\n      dup2\n      mstore\n      0x20\n      add\n      0x00\n      keccak256\n        /* \"nft-loans/contracts/nft-loan.sol\":3834:3871  details[msg.sender].avilable_balances */\n      0x01\n      add\n      0x00\n        /* \"nft-loans/contracts/nft-loan.sol\":3834:3881  details[msg.sender].avilable_balances -= _value */\n      dup3\n      dup3\n      sload\n      tag_276\n      swap2\n      swap1\n      tag_258\n      jump\t// in\n    tag_276:\n      swap3\n      pop\n      pop\n      dup2\n      swap1\n      sstore\n      pop\n        /* \"nft-loans/contracts/nft-loan.sol\":3908:3923  _value.sub(tax) */\n      tag_277\n        /* \"nft-loans/contracts/nft-loan.sol\":3919:3922  tax */\n      dup3\n        /* \"nft-loans/contracts/nft-loan.sol\":3908:3914  _value */\n      dup5\n        /* \"nft-loans/contracts/nft-loan.sol\":3908:3918  _value.sub */\n      tag_261\n      swap1\n        /* \"nft-loans/contracts/nft-loan.sol\":3908:3923  _value.sub(tax) */\n      swap2\n      swap1\n      0xffffffff\n      and\n      jump\t// in\n    tag_277:\n        /* \"nft-loans/contracts/nft-loan.sol\":3891:3899  balances */\n      0x04\n        /* \"nft-loans/contracts/nft-loan.sol\":3891:3904  balances[_to] */\n      0x00\n        /* \"nft-loans/contracts/nft-loan.sol\":3900:3903  _to */\n      dup7\n        /* \"nft-loans/contracts/nft-loan.sol\":3891:3904  balances[_to] */\n      0xffffffffffffffffffffffffffffffffffffffff\n      and\n      0xffffffffffffffffffffffffffffffffffffffff\n      and\n      dup2\n      mstore\n      0x20\n      add\n      swap1\n      dup2\n      mstore\n      0x20\n      add\n      0x00\n      keccak256\n      0x00\n        /* \"nft-loans/contracts/nft-loan.sol\":3891:3923  balances[_to] += _value.sub(tax) */\n      dup3\n      dup3\n      sload\n      tag_278\n      swap2\n      swap1\n      tag_188\n      jump\t// in\n    tag_278:\n      swap3\n      pop\n      pop\n      dup2\n      swap1\n      sstore\n      pop\n        /* \"nft-loans/contracts/nft-loan.sol\":4007:4022  _value.sub(tax) */\n      tag_279\n        /* \"nft-loans/contracts/nft-loan.sol\":4018:4021  tax */\n      dup3\n        /* \"nft-loans/contracts/nft-loan.sol\":4007:4013  _value */\n      dup5\n        /* \"nft-loans/contracts/nft-loan.sol\":4007:4017  _value.sub */\n      tag_261\n      swap1\n        /* \"nft-loans/contracts/nft-loan.sol\":4007:4022  _value.sub(tax) */\n      swap2\n      swap1\n      0xffffffff\n      and\n      jump\t// in\n    tag_279:\n        /* \"nft-loans/contracts/nft-loan.sol\":3973:3980  details */\n      0x08\n        /* \"nft-loans/contracts/nft-loan.sol\":3973:3985  details[_to] */\n      0x00\n        /* \"nft-loans/contracts/nft-loan.sol\":3981:3984  _to */\n      dup7\n        /* \"nft-loans/contracts/nft-loan.sol\":3973:3985  details[_to] */\n      0xffffffffffffffffffffffffffffffffffffffff\n      and\n      0xffffffffffffffffffffffffffffffffffffffff\n      and\n      dup2\n      mstore\n      0x20\n      add\n      swap1\n      dup2\n      mstore\n      0x20\n      add\n      0x00\n      keccak256\n        /* \"nft-loans/contracts/nft-loan.sol\":3973:4003  details[_to].avilable_balances */\n      0x01\n      add\n      0x00\n        /* \"nft-loans/contracts/nft-loan.sol\":3973:4022  details[_to].avilable_balances += _value.sub(tax) */\n      dup3\n      dup3\n      sload\n      tag_280\n      swap2\n      swap1\n      tag_188\n      jump\t// in\n    tag_280:\n      swap3\n      pop\n      pop\n      dup2\n      swap1\n      sstore\n      pop\n        /* \"nft-loans/contracts/nft-loan.sol\":4037:4070  Transfer(msg.sender, _to, _value) */\n      0xddf252ad1be2c89b69c2b068fc378daa952ba7f163c4a11628f55a4df523b3ef\n        /* \"nft-loans/contracts/nft-loan.sol\":4046:4056  msg.sender */\n      caller\n        /* \"nft-loans/contracts/nft-loan.sol\":4058:4061  _to */\n      dup6\n        /* \"nft-loans/contracts/nft-loan.sol\":4063:4069  _value */\n      dup6\n        /* \"nft-loans/contracts/nft-loan.sol\":4037:4070  Transfer(msg.sender, _to, _value) */\n      mload(0x40)\n      tag_281\n      swap4\n      swap3\n      swap2\n      swap1\n      tag_160\n      jump\t// in\n    tag_281:\n      mload(0x40)\n      dup1\n      swap2\n      sub\n      swap1\n      log1\n        /* \"nft-loans/contracts/nft-loan.sol\":4121:4125  true */\n      0x01\n        /* \"nft-loans/contracts/nft-loan.sol\":4114:4125  return true */\n      swap1\n      pop\n        /* \"nft-loans/contracts/nft-loan.sol\":3436:4132  function _transfer(address _to, uint256 _value,uint256 tax) internal returns (bool success){... */\n      swap4\n      swap3\n      pop\n      pop\n      pop\n      jump\t// out\n        /* \"nft-loans/contracts/nft-loan.sol\":9683:9863  function sub(uint256 a, uint256 b) internal pure returns (uint256) {... */\n    tag_261:\n        /* \"nft-loans/contracts/nft-loan.sol\":9741:9748  uint256 */\n      0x00\n        /* \"nft-loans/contracts/nft-loan.sol\":9773:9774  a */\n      dup3\n        /* \"nft-loans/contracts/nft-loan.sol\":9768:9769  b */\n      dup3\n        /* \"nft-loans/contracts/nft-loan.sol\":9768:9774  b <= a */\n      gt\n      iszero\n        /* \"nft-loans/contracts/nft-loan.sol\":9760:9809  require(b <= a, \"SafeMath: subtraction overflow\") */\n      tag_283\n      jumpi\n      mload(0x40)\n      0x08c379a000000000000000000000000000000000000000000000000000000000\n      dup2\n      mstore\n      0x04\n      add\n      tag_284\n      swap1\n      tag_285\n      jump\t// in\n    tag_284:\n      mload(0x40)\n      dup1\n      swap2\n      sub\n      swap1\n      revert\n    tag_283:\n        /* \"nft-loans/contracts/nft-loan.sol\":9819:9828  uint256 c */\n      0x00\n        /* \"nft-loans/contracts/nft-loan.sol\":9835:9836  b */\n      dup3\n        /* \"nft-loans/contracts/nft-loan.sol\":9831:9832  a */\n      dup5\n        /* \"nft-loans/contracts/nft-loan.sol\":9831:9836  a - b */\n      tag_286\n      swap2\n      swap1\n      tag_258\n      jump\t// in\n    tag_286:\n        /* \"nft-loans/contracts/nft-loan.sol\":9819:9836  uint256 c = a - b */\n      swap1\n      pop\n        /* \"nft-loans/contracts/nft-loan.sol\":9855:9856  c */\n      dup1\n        /* \"nft-loans/contracts/nft-loan.sol\":9848:9856  return c */\n      swap2\n      pop\n      pop\n        /* \"nft-loans/contracts/nft-loan.sol\":9683:9863  function sub(uint256 a, uint256 b) internal pure returns (uint256) {... */\n      swap3\n      swap2\n      pop\n      pop\n      jump\t// out\n        /* \"#utility.yul\":7:146   */\n    tag_288:\n        /* \"#utility.yul\":53:58   */\n      0x00\n        /* \"#utility.yul\":91:97   */\n      dup2\n        /* \"#utility.yul\":78:98   */\n      calldataload\n        /* \"#utility.yul\":69:98   */\n      swap1\n      pop\n        /* \"#utility.yul\":107:140   */\n      tag_290\n        /* \"#utility.yul\":134:139   */\n      dup2\n        /* \"#utility.yul\":107:140   */\n      tag_291\n      jump\t// in\n    tag_290:\n        /* \"#utility.yul\":7:146   */\n      swap3\n      swap2\n      pop\n      pop\n      jump\t// out\n        /* \"#utility.yul\":152:295   */\n    tag_292:\n        /* \"#utility.yul\":209:214   */\n      0x00\n        /* \"#utility.yul\":240:246   */\n      dup2\n        /* \"#utility.yul\":234:247   */\n      mload\n        /* \"#utility.yul\":225:247   */\n      swap1\n      pop\n        /* \"#utility.yul\":256:289   */\n      tag_294\n        /* \"#utility.yul\":283:288   */\n      dup2\n        /* \"#utility.yul\":256:289   */\n      tag_291\n      jump\t// in\n    tag_294:\n        /* \"#utility.yul\":152:295   */\n      swap3\n      swap2\n      pop\n      pop\n      jump\t// out\n        /* \"#utility.yul\":301:440   */\n    tag_295:\n        /* \"#utility.yul\":347:352   */\n      0x00\n        /* \"#utility.yul\":385:391   */\n      dup2\n        /* \"#utility.yul\":372:392   */\n      calldataload\n        /* \"#utility.yul\":363:392   */\n      swap1\n      pop\n        /* \"#utility.yul\":401:434   */\n      tag_297\n        /* \"#utility.yul\":428:433   */\n      dup2\n        /* \"#utility.yul\":401:434   */\n      tag_298\n      jump\t// in\n    tag_297:\n        /* \"#utility.yul\":301:440   */\n      swap3\n      swap2\n      pop\n      pop\n      jump\t// out\n        /* \"#utility.yul\":446:775   */\n    tag_58:\n        /* \"#utility.yul\":505:511   */\n      0x00\n        /* \"#utility.yul\":554:556   */\n      0x20\n        /* \"#utility.yul\":542:551   */\n      dup3\n        /* \"#utility.yul\":533:540   */\n      dup5\n        /* \"#utility.yul\":529:552   */\n      sub\n        /* \"#utility.yul\":525:557   */\n      slt\n        /* \"#utility.yul\":522:641   */\n      iszero\n      tag_300\n      jumpi\n        /* \"#utility.yul\":560:639   */\n      tag_301\n      tag_302\n      jump\t// in\n    tag_301:\n        /* \"#utility.yul\":522:641   */\n    tag_300:\n        /* \"#utility.yul\":680:681   */\n      0x00\n        /* \"#utility.yul\":705:758   */\n      tag_303\n        /* \"#utility.yul\":750:757   */\n      dup5\n        /* \"#utility.yul\":741:747   */\n      dup3\n        /* \"#utility.yul\":730:739   */\n      dup6\n        /* \"#utility.yul\":726:748   */\n      add\n        /* \"#utility.yul\":705:758   */\n      tag_288\n      jump\t// in\n    tag_303:\n        /* \"#utility.yul\":695:758   */\n      swap2\n      pop\n        /* \"#utility.yul\":651:768   */\n      pop\n        /* \"#utility.yul\":446:775   */\n      swap3\n      swap2\n      pop\n      pop\n      jump\t// out\n        /* \"#utility.yul\":781:1132   */\n    tag_205:\n        /* \"#utility.yul\":851:857   */\n      0x00\n        /* \"#utility.yul\":900:902   */\n      0x20\n        /* \"#utility.yul\":888:897   */\n      dup3\n        /* \"#utility.yul\":879:886   */\n      dup5\n        /* \"#utility.yul\":875:898   */\n      sub\n        /* \"#utility.yul\":871:903   */\n      slt\n        /* \"#utility.yul\":868:987   */\n      iszero\n      tag_305\n      jumpi\n        /* \"#utility.yul\":906:985   */\n      tag_306\n      tag_302\n      jump\t// in\n    tag_306:\n        /* \"#utility.yul\":868:987   */\n    tag_305:\n        /* \"#utility.yul\":1026:1027   */\n      0x00\n        /* \"#utility.yul\":1051:1115   */\n      tag_307\n        /* \"#utility.yul\":1107:1114   */\n      dup5\n        /* \"#utility.yul\":1098:1104   */\n      dup3\n        /* \"#utility.yul\":1087:1096   */\n      dup6\n        /* \"#utility.yul\":1083:1105   */\n      add\n        /* \"#utility.yul\":1051:1115   */\n      tag_292\n      jump\t// in\n    tag_307:\n        /* \"#utility.yul\":1041:1115   */\n      swap2\n      pop\n        /* \"#utility.yul\":997:1125   */\n      pop\n        /* \"#utility.yul\":781:1132   */\n      swap3\n      swap2\n      pop\n      pop\n      jump\t// out\n        /* \"#utility.yul\":1138:1612   */\n    tag_110:\n        /* \"#utility.yul\":1206:1212   */\n      0x00\n        /* \"#utility.yul\":1214:1220   */\n      dup1\n        /* \"#utility.yul\":1263:1265   */\n      0x40\n        /* \"#utility.yul\":1251:1260   */\n      dup4\n        /* \"#utility.yul\":1242:1249   */\n      dup6\n        /* \"#utility.yul\":1238:1261   */\n      sub\n        /* \"#utility.yul\":1234:1266   */\n      slt\n        /* \"#utility.yul\":1231:1350   */\n      iszero\n      tag_309\n      jumpi\n        /* \"#utility.yul\":1269:1348   */\n      tag_310\n      tag_302\n      jump\t// in\n    tag_310:\n        /* \"#utility.yul\":1231:1350   */\n    tag_309:\n        /* \"#utility.yul\":1389:1390   */\n      0x00\n        /* \"#utility.yul\":1414:1467   */\n      tag_311\n        /* \"#utility.yul\":1459:1466   */\n      dup6\n        /* \"#utility.yul\":1450:1456   */\n      dup3\n        /* \"#utility.yul\":1439:1448   */\n      dup7\n        /* \"#utility.yul\":1435:1457   */\n      add\n        /* \"#utility.yul\":1414:1467   */\n      tag_288\n      jump\t// in\n    tag_311:\n        /* \"#utility.yul\":1404:1467   */\n      swap3\n      pop\n        /* \"#utility.yul\":1360:1477   */\n      pop\n        /* \"#utility.yul\":1516:1518   */\n      0x20\n        /* \"#utility.yul\":1542:1595   */\n      tag_312\n        /* \"#utility.yul\":1587:1594   */\n      dup6\n        /* \"#utility.yul\":1578:1584   */\n      dup3\n        /* \"#utility.yul\":1567:1576   */\n      dup7\n        /* \"#utility.yul\":1563:1585   */\n      add\n        /* \"#utility.yul\":1542:1595   */\n      tag_288\n      jump\t// in\n    tag_312:\n        /* \"#utility.yul\":1532:1595   */\n      swap2\n      pop\n        /* \"#utility.yul\":1487:1605   */\n      pop\n        /* \"#utility.yul\":1138:1612   */\n      swap3\n      pop\n      swap3\n      swap1\n      pop\n      jump\t// out\n        /* \"#utility.yul\":1618:2237   */\n    tag_47:\n        /* \"#utility.yul\":1695:1701   */\n      0x00\n        /* \"#utility.yul\":1703:1709   */\n      dup1\n        /* \"#utility.yul\":1711:1717   */\n      0x00\n        /* \"#utility.yul\":1760:1762   */\n      0x60\n        /* \"#utility.yul\":1748:1757   */\n      dup5\n        /* \"#utility.yul\":1739:1746   */\n      dup7\n        /* \"#utility.yul\":1735:1758   */\n      sub\n        /* \"#utility.yul\":1731:1763   */\n      slt\n        /* \"#utility.yul\":1728:1847   */\n      iszero\n      tag_314\n      jumpi\n        /* \"#utility.yul\":1766:1845   */\n      tag_315\n      tag_302\n      jump\t// in\n    tag_315:\n        /* \"#utility.yul\":1728:1847   */\n    tag_314:\n        /* \"#utility.yul\":1886:1887   */\n      0x00\n        /* \"#utility.yul\":1911:1964   */\n      tag_316\n        /* \"#utility.yul\":1956:1963   */\n      dup7\n        /* \"#utility.yul\":1947:1953   */\n      dup3\n        /* \"#utility.yul\":1936:1945   */\n      dup8\n        /* \"#utility.yul\":1932:1954   */\n      add\n        /* \"#utility.yul\":1911:1964   */\n      tag_288\n      jump\t// in\n    tag_316:\n        /* \"#utility.yul\":1901:1964   */\n      swap4\n      pop\n        /* \"#utility.yul\":1857:1974   */\n      pop\n        /* \"#utility.yul\":2013:2015   */\n      0x20\n        /* \"#utility.yul\":2039:2092   */\n      tag_317\n        /* \"#utility.yul\":2084:2091   */\n      dup7\n        /* \"#utility.yul\":2075:2081   */\n      dup3\n        /* \"#utility.yul\":2064:2073   */\n      dup8\n        /* \"#utility.yul\":2060:2082   */\n      add\n        /* \"#utility.yul\":2039:2092   */\n      tag_288\n      jump\t// in\n    tag_317:\n        /* \"#utility.yul\":2029:2092   */\n      swap3\n      pop\n        /* \"#utility.yul\":1984:2102   */\n      pop\n        /* \"#utility.yul\":2141:2143   */\n      0x40\n        /* \"#utility.yul\":2167:2220   */\n      tag_318\n        /* \"#utility.yul\":2212:2219   */\n      dup7\n        /* \"#utility.yul\":2203:2209   */\n      dup3\n        /* \"#utility.yul\":2192:2201   */\n      dup8\n        /* \"#utility.yul\":2188:2210   */\n      add\n        /* \"#utility.yul\":2167:2220   */\n      tag_295\n      jump\t// in\n    tag_318:\n        /* \"#utility.yul\":2157:2220   */\n      swap2\n      pop\n        /* \"#utility.yul\":2112:2230   */\n      pop\n        /* \"#utility.yul\":1618:2237   */\n      swap3\n      pop\n      swap3\n      pop\n      swap3\n      jump\t// out\n        /* \"#utility.yul\":2243:2717   */\n    tag_36:\n        /* \"#utility.yul\":2311:2317   */\n      0x00\n        /* \"#utility.yul\":2319:2325   */\n      dup1\n        /* \"#utility.yul\":2368:2370   */\n      0x40\n        /* \"#utility.yul\":2356:2365   */\n      dup4\n        /* \"#utility.yul\":2347:2354   */\n      dup6\n        /* \"#utility.yul\":2343:2366   */\n      sub\n        /* \"#utility.yul\":2339:2371   */\n      slt\n        /* \"#utility.yul\":2336:2455   */\n      iszero\n      tag_320\n      jumpi\n        /* \"#utility.yul\":2374:2453   */\n      tag_321\n      tag_302\n      jump\t// in\n    tag_321:\n        /* \"#utility.yul\":2336:2455   */\n    tag_320:\n        /* \"#utility.yul\":2494:2495   */\n      0x00\n        /* \"#utility.yul\":2519:2572   */\n      tag_322\n        /* \"#utility.yul\":2564:2571   */\n      dup6\n        /* \"#utility.yul\":2555:2561   */\n      dup3\n        /* \"#utility.yul\":2544:2553   */\n      dup7\n        /* \"#utility.yul\":2540:2562   */\n      add\n        /* \"#utility.yul\":2519:2572   */\n      tag_288\n      jump\t// in\n    tag_322:\n        /* \"#utility.yul\":2509:2572   */\n      swap3\n      pop\n        /* \"#utility.yul\":2465:2582   */\n      pop\n        /* \"#utility.yul\":2621:2623   */\n      0x20\n        /* \"#utility.yul\":2647:2700   */\n      tag_323\n        /* \"#utility.yul\":2692:2699   */\n      dup6\n        /* \"#utility.yul\":2683:2689   */\n      dup3\n        /* \"#utility.yul\":2672:2681   */\n      dup7\n        /* \"#utility.yul\":2668:2690   */\n      add\n        /* \"#utility.yul\":2647:2700   */\n      tag_295\n      jump\t// in\n    tag_323:\n        /* \"#utility.yul\":2637:2700   */\n      swap2\n      pop\n        /* \"#utility.yul\":2592:2710   */\n      pop\n        /* \"#utility.yul\":2243:2717   */\n      swap3\n      pop\n      swap3\n      swap1\n      pop\n      jump\t// out\n        /* \"#utility.yul\":2723:3052   */\n    tag_26:\n        /* \"#utility.yul\":2782:2788   */\n      0x00\n        /* \"#utility.yul\":2831:2833   */\n      0x20\n        /* \"#utility.yul\":2819:2828   */\n      dup3\n        /* \"#utility.yul\":2810:2817   */\n      dup5\n        /* \"#utility.yul\":2806:2829   */\n      sub\n        /* \"#utility.yul\":2802:2834   */\n      slt\n        /* \"#utility.yul\":2799:2918   */\n      iszero\n      tag_325\n      jumpi\n        /* \"#utility.yul\":2837:2916   */\n      tag_326\n      tag_302\n      jump\t// in\n    tag_326:\n        /* \"#utility.yul\":2799:2918   */\n    tag_325:\n        /* \"#utility.yul\":2957:2958   */\n      0x00\n        /* \"#utility.yul\":2982:3035   */\n      tag_327\n        /* \"#utility.yul\":3027:3034   */\n      dup5\n        /* \"#utility.yul\":3018:3024   */\n      dup3\n        /* \"#utility.yul\":3007:3016   */\n      dup6\n        /* \"#utility.yul\":3003:3025   */\n      add\n        /* \"#utility.yul\":2982:3035   */\n      tag_295\n      jump\t// in\n    tag_327:\n        /* \"#utility.yul\":2972:3035   */\n      swap2\n      pop\n        /* \"#utility.yul\":2928:3045   */\n      pop\n        /* \"#utility.yul\":2723:3052   */\n      swap3\n      swap2\n      pop\n      pop\n      jump\t// out\n        /* \"#utility.yul\":3058:3677   */\n    tag_64:\n        /* \"#utility.yul\":3135:3141   */\n      0x00\n        /* \"#utility.yul\":3143:3149   */\n      dup1\n        /* \"#utility.yul\":3151:3157   */\n      0x00\n        /* \"#utility.yul\":3200:3202   */\n      0x60\n        /* \"#utility.yul\":3188:3197   */\n      dup5\n        /* \"#utility.yul\":3179:3186   */\n      dup7\n        /* \"#utility.yul\":3175:3198   */\n      sub\n        /* \"#utility.yul\":3171:3203   */\n      slt\n        /* \"#utility.yul\":3168:3287   */\n      iszero\n      tag_329\n      jumpi\n        /* \"#utility.yul\":3206:3285   */\n      tag_330\n      tag_302\n      jump\t// in\n    tag_330:\n        /* \"#utility.yul\":3168:3287   */\n    tag_329:\n        /* \"#utility.yul\":3326:3327   */\n      0x00\n        /* \"#utility.yul\":3351:3404   */\n      tag_331\n        /* \"#utility.yul\":3396:3403   */\n      dup7\n        /* \"#utility.yul\":3387:3393   */\n      dup3\n        /* \"#utility.yul\":3376:3385   */\n      dup8\n        /* \"#utility.yul\":3372:3394   */\n      add\n        /* \"#utility.yul\":3351:3404   */\n      tag_295\n      jump\t// in\n    tag_331:\n        /* \"#utility.yul\":3341:3404   */\n      swap4\n      pop\n        /* \"#utility.yul\":3297:3414   */\n      pop\n        /* \"#utility.yul\":3453:3455   */\n      0x20\n        /* \"#utility.yul\":3479:3532   */\n      tag_332\n        /* \"#utility.yul\":3524:3531   */\n      dup7\n        /* \"#utility.yul\":3515:3521   */\n      dup3\n        /* \"#utility.yul\":3504:3513   */\n      dup8\n        /* \"#utility.yul\":3500:3522   */\n      add\n        /* \"#utility.yul\":3479:3532   */\n      tag_295\n      jump\t// in\n    tag_332:\n        /* \"#utility.yul\":3469:3532   */\n      swap3\n      pop\n        /* \"#utility.yul\":3424:3542   */\n      pop\n        /* \"#utility.yul\":3581:3583   */\n      0x40\n        /* \"#utility.yul\":3607:3660   */\n      tag_333\n        /* \"#utility.yul\":3652:3659   */\n      dup7\n        /* \"#utility.yul\":3643:3649   */\n      dup3\n        /* \"#utility.yul\":3632:3641   */\n      dup8\n        /* \"#utility.yul\":3628:3650   */\n      add\n        /* \"#utility.yul\":3607:3660   */\n      tag_288\n      jump\t// in\n    tag_333:\n        /* \"#utility.yul\":3597:3660   */\n      swap2\n      pop\n        /* \"#utility.yul\":3552:3670   */\n      pop\n        /* \"#utility.yul\":3058:3677   */\n      swap3\n      pop\n      swap3\n      pop\n      swap3\n      jump\t// out\n        /* \"#utility.yul\":3683:3862   */\n    tag_334:\n        /* \"#utility.yul\":3752:3762   */\n      0x00\n        /* \"#utility.yul\":3773:3819   */\n      tag_336\n        /* \"#utility.yul\":3815:3818   */\n      dup4\n        /* \"#utility.yul\":3807:3813   */\n      dup4\n        /* \"#utility.yul\":3773:3819   */\n      tag_337\n      jump\t// in\n    tag_336:\n        /* \"#utility.yul\":3851:3855   */\n      0x20\n        /* \"#utility.yul\":3846:3849   */\n      dup4\n        /* \"#utility.yul\":3842:3856   */\n      add\n        /* \"#utility.yul\":3828:3856   */\n      swap1\n      pop\n        /* \"#utility.yul\":3683:3862   */\n      swap3\n      swap2\n      pop\n      pop\n      jump\t// out\n        /* \"#utility.yul\":3868:3986   */\n    tag_338:\n        /* \"#utility.yul\":3955:3979   */\n      tag_340\n        /* \"#utility.yul\":3973:3978   */\n      dup2\n        /* \"#utility.yul\":3955:3979   */\n      tag_341\n      jump\t// in\n    tag_340:\n        /* \"#utility.yul\":3950:3953   */\n      dup3\n        /* \"#utility.yul\":3943:3980   */\n      mstore\n        /* \"#utility.yul\":3868:3986   */\n      pop\n      pop\n      jump\t// out\n        /* \"#utility.yul\":4022:4754   */\n    tag_342:\n        /* \"#utility.yul\":4141:4144   */\n      0x00\n        /* \"#utility.yul\":4170:4224   */\n      tag_344\n        /* \"#utility.yul\":4218:4223   */\n      dup3\n        /* \"#utility.yul\":4170:4224   */\n      tag_345\n      jump\t// in\n    tag_344:\n        /* \"#utility.yul\":4240:4326   */\n      tag_346\n        /* \"#utility.yul\":4319:4325   */\n      dup2\n        /* \"#utility.yul\":4314:4317   */\n      dup6\n        /* \"#utility.yul\":4240:4326   */\n      tag_347\n      jump\t// in\n    tag_346:\n        /* \"#utility.yul\":4233:4326   */\n      swap4\n      pop\n        /* \"#utility.yul\":4350:4406   */\n      tag_348\n        /* \"#utility.yul\":4400:4405   */\n      dup4\n        /* \"#utility.yul\":4350:4406   */\n      tag_349\n      jump\t// in\n    tag_348:\n        /* \"#utility.yul\":4429:4436   */\n      dup1\n        /* \"#utility.yul\":4460:4461   */\n      0x00\n        /* \"#utility.yul\":4445:4729   */\n    tag_350:\n        /* \"#utility.yul\":4470:4476   */\n      dup4\n        /* \"#utility.yul\":4467:4468   */\n      dup2\n        /* \"#utility.yul\":4464:4477   */\n      lt\n        /* \"#utility.yul\":4445:4729   */\n      iszero\n      tag_352\n      jumpi\n        /* \"#utility.yul\":4546:4552   */\n      dup2\n        /* \"#utility.yul\":4540:4553   */\n      mload\n        /* \"#utility.yul\":4573:4636   */\n      tag_353\n        /* \"#utility.yul\":4632:4635   */\n      dup9\n        /* \"#utility.yul\":4617:4630   */\n      dup3\n        /* \"#utility.yul\":4573:4636   */\n      tag_334\n      jump\t// in\n    tag_353:\n        /* \"#utility.yul\":4566:4636   */\n      swap8\n      pop\n        /* \"#utility.yul\":4659:4719   */\n      tag_354\n        /* \"#utility.yul\":4712:4718   */\n      dup4\n        /* \"#utility.yul\":4659:4719   */\n      tag_355\n      jump\t// in\n    tag_354:\n        /* \"#utility.yul\":4649:4719   */\n      swap3\n      pop\n        /* \"#utility.yul\":4505:4729   */\n      pop\n        /* \"#utility.yul\":4492:4493   */\n      0x01\n        /* \"#utility.yul\":4489:4490   */\n      dup2\n        /* \"#utility.yul\":4485:4494   */\n      add\n        /* \"#utility.yul\":4480:4494   */\n      swap1\n      pop\n        /* \"#utility.yul\":4445:4729   */\n      jump(tag_350)\n    tag_352:\n        /* \"#utility.yul\":4449:4463   */\n      pop\n        /* \"#utility.yul\":4745:4748   */\n      dup6\n        /* \"#utility.yul\":4738:4748   */\n      swap4\n      pop\n        /* \"#utility.yul\":4146:4754   */\n      pop\n      pop\n      pop\n        /* \"#utility.yul\":4022:4754   */\n      swap3\n      swap2\n      pop\n      pop\n      jump\t// out\n        /* \"#utility.yul\":4760:4869   */\n    tag_356:\n        /* \"#utility.yul\":4841:4862   */\n      tag_358\n        /* \"#utility.yul\":4856:4861   */\n      dup2\n        /* \"#utility.yul\":4841:4862   */\n      tag_359\n      jump\t// in\n    tag_358:\n        /* \"#utility.yul\":4836:4839   */\n      dup3\n        /* \"#utility.yul\":4829:4863   */\n      mstore\n        /* \"#utility.yul\":4760:4869   */\n      pop\n      pop\n      jump\t// out\n        /* \"#utility.yul\":4875:5036   */\n    tag_360:\n        /* \"#utility.yul\":4977:5029   */\n      tag_362\n        /* \"#utility.yul\":5023:5028   */\n      dup2\n        /* \"#utility.yul\":4977:5029   */\n      tag_363\n      jump\t// in\n    tag_362:\n        /* \"#utility.yul\":4972:4975   */\n      dup3\n        /* \"#utility.yul\":4965:5030   */\n      mstore\n        /* \"#utility.yul\":4875:5036   */\n      pop\n      pop\n      jump\t// out\n        /* \"#utility.yul\":5042:5406   */\n    tag_364:\n        /* \"#utility.yul\":5130:5133   */\n      0x00\n        /* \"#utility.yul\":5158:5197   */\n      tag_366\n        /* \"#utility.yul\":5191:5196   */\n      dup3\n        /* \"#utility.yul\":5158:5197   */\n      tag_367\n      jump\t// in\n    tag_366:\n        /* \"#utility.yul\":5213:5284   */\n      tag_368\n        /* \"#utility.yul\":5277:5283   */\n      dup2\n        /* \"#utility.yul\":5272:5275   */\n      dup6\n        /* \"#utility.yul\":5213:5284   */\n      tag_369\n      jump\t// in\n    tag_368:\n        /* \"#utility.yul\":5206:5284   */\n      swap4\n      pop\n        /* \"#utility.yul\":5293:5345   */\n      tag_370\n        /* \"#utility.yul\":5338:5344   */\n      dup2\n        /* \"#utility.yul\":5333:5336   */\n      dup6\n        /* \"#utility.yul\":5326:5330   */\n      0x20\n        /* \"#utility.yul\":5319:5324   */\n      dup7\n        /* \"#utility.yul\":5315:5331   */\n      add\n        /* \"#utility.yul\":5293:5345   */\n      tag_371\n      jump\t// in\n    tag_370:\n        /* \"#utility.yul\":5370:5399   */\n      tag_372\n        /* \"#utility.yul\":5392:5398   */\n      dup2\n        /* \"#utility.yul\":5370:5399   */\n      tag_373\n      jump\t// in\n    tag_372:\n        /* \"#utility.yul\":5365:5368   */\n      dup5\n        /* \"#utility.yul\":5361:5400   */\n      add\n        /* \"#utility.yul\":5354:5400   */\n      swap2\n      pop\n        /* \"#utility.yul\":5134:5406   */\n      pop\n        /* \"#utility.yul\":5042:5406   */\n      swap3\n      swap2\n      pop\n      pop\n      jump\t// out\n        /* \"#utility.yul\":5412:5778   */\n    tag_374:\n        /* \"#utility.yul\":5554:5557   */\n      0x00\n        /* \"#utility.yul\":5575:5642   */\n      tag_376\n        /* \"#utility.yul\":5639:5641   */\n      0x19\n        /* \"#utility.yul\":5634:5637   */\n      dup4\n        /* \"#utility.yul\":5575:5642   */\n      tag_369\n      jump\t// in\n    tag_376:\n        /* \"#utility.yul\":5568:5642   */\n      swap2\n      pop\n        /* \"#utility.yul\":5651:5744   */\n      tag_377\n        /* \"#utility.yul\":5740:5743   */\n      dup3\n        /* \"#utility.yul\":5651:5744   */\n      tag_378\n      jump\t// in\n    tag_377:\n        /* \"#utility.yul\":5769:5771   */\n      0x20\n        /* \"#utility.yul\":5764:5767   */\n      dup3\n        /* \"#utility.yul\":5760:5772   */\n      add\n        /* \"#utility.yul\":5753:5772   */\n      swap1\n      pop\n        /* \"#utility.yul\":5412:5778   */\n      swap2\n      swap1\n      pop\n      jump\t// out\n        /* \"#utility.yul\":5784:6150   */\n    tag_379:\n        /* \"#utility.yul\":5926:5929   */\n      0x00\n        /* \"#utility.yul\":5947:6014   */\n      tag_381\n        /* \"#utility.yul\":6011:6013   */\n      0x1c\n        /* \"#utility.yul\":6006:6009   */\n      dup4\n        /* \"#utility.yul\":5947:6014   */\n      tag_369\n      jump\t// in\n    tag_381:\n        /* \"#utility.yul\":5940:6014   */\n      swap2\n      pop\n        /* \"#utility.yul\":6023:6116   */\n      tag_382\n        /* \"#utility.yul\":6112:6115   */\n      dup3\n        /* \"#utility.yul\":6023:6116   */\n      tag_383\n      jump\t// in\n    tag_382:\n        /* \"#utility.yul\":6141:6143   */\n      0x20\n        /* \"#utility.yul\":6136:6139   */\n      dup3\n        /* \"#utility.yul\":6132:6144   */\n      add\n        /* \"#utility.yul\":6125:6144   */\n      swap1\n      pop\n        /* \"#utility.yul\":5784:6150   */\n      swap2\n      swap1\n      pop\n      jump\t// out\n        /* \"#utility.yul\":6156:6522   */\n    tag_384:\n        /* \"#utility.yul\":6298:6301   */\n      0x00\n        /* \"#utility.yul\":6319:6386   */\n      tag_386\n        /* \"#utility.yul\":6383:6385   */\n      0x1e\n        /* \"#utility.yul\":6378:6381   */\n      dup4\n        /* \"#utility.yul\":6319:6386   */\n      tag_369\n      jump\t// in\n    tag_386:\n        /* \"#utility.yul\":6312:6386   */\n      swap2\n      pop\n        /* \"#utility.yul\":6395:6488   */\n      tag_387\n        /* \"#utility.yul\":6484:6487   */\n      dup3\n        /* \"#utility.yul\":6395:6488   */\n      tag_388\n      jump\t// in\n    tag_387:\n        /* \"#utility.yul\":6513:6515   */\n      0x20\n        /* \"#utility.yul\":6508:6511   */\n      dup3\n        /* \"#utility.yul\":6504:6516   */\n      add\n        /* \"#utility.yul\":6497:6516   */\n      swap1\n      pop\n        /* \"#utility.yul\":6156:6522   */\n      swap2\n      swap1\n      pop\n      jump\t// out\n        /* \"#utility.yul\":6528:6894   */\n    tag_389:\n        /* \"#utility.yul\":6670:6673   */\n      0x00\n        /* \"#utility.yul\":6691:6758   */\n      tag_391\n        /* \"#utility.yul\":6755:6757   */\n      0x16\n        /* \"#utility.yul\":6750:6753   */\n      dup4\n        /* \"#utility.yul\":6691:6758   */\n      tag_369\n      jump\t// in\n    tag_391:\n        /* \"#utility.yul\":6684:6758   */\n      swap2\n      pop\n        /* \"#utility.yul\":6767:6860   */\n      tag_392\n        /* \"#utility.yul\":6856:6859   */\n      dup3\n        /* \"#utility.yul\":6767:6860   */\n      tag_393\n      jump\t// in\n    tag_392:\n        /* \"#utility.yul\":6885:6887   */\n      0x20\n        /* \"#utility.yul\":6880:6883   */\n      dup3\n        /* \"#utility.yul\":6876:6888   */\n      add\n        /* \"#utility.yul\":6869:6888   */\n      swap1\n      pop\n        /* \"#utility.yul\":6528:6894   */\n      swap2\n      swap1\n      pop\n      jump\t// out\n        /* \"#utility.yul\":6900:7266   */\n    tag_394:\n        /* \"#utility.yul\":7042:7045   */\n      0x00\n        /* \"#utility.yul\":7063:7130   */\n      tag_396\n        /* \"#utility.yul\":7127:7129   */\n      0x12\n        /* \"#utility.yul\":7122:7125   */\n      dup4\n        /* \"#utility.yul\":7063:7130   */\n      tag_369\n      jump\t// in\n    tag_396:\n        /* \"#utility.yul\":7056:7130   */\n      swap2\n      pop\n        /* \"#utility.yul\":7139:7232   */\n      tag_397\n        /* \"#utility.yul\":7228:7231   */\n      dup3\n        /* \"#utility.yul\":7139:7232   */\n      tag_398\n      jump\t// in\n    tag_397:\n        /* \"#utility.yul\":7257:7259   */\n      0x20\n        /* \"#utility.yul\":7252:7255   */\n      dup3\n        /* \"#utility.yul\":7248:7260   */\n      add\n        /* \"#utility.yul\":7241:7260   */\n      swap1\n      pop\n        /* \"#utility.yul\":6900:7266   */\n      swap2\n      swap1\n      pop\n      jump\t// out\n        /* \"#utility.yul\":7272:7638   */\n    tag_399:\n        /* \"#utility.yul\":7414:7417   */\n      0x00\n        /* \"#utility.yul\":7435:7502   */\n      tag_401\n        /* \"#utility.yul\":7499:7501   */\n      0x19\n        /* \"#utility.yul\":7494:7497   */\n      dup4\n        /* \"#utility.yul\":7435:7502   */\n      tag_369\n      jump\t// in\n    tag_401:\n        /* \"#utility.yul\":7428:7502   */\n      swap2\n      pop\n        /* \"#utility.yul\":7511:7604   */\n      tag_402\n        /* \"#utility.yul\":7600:7603   */\n      dup3\n        /* \"#utility.yul\":7511:7604   */\n      tag_403\n      jump\t// in\n    tag_402:\n        /* \"#utility.yul\":7629:7631   */\n      0x20\n        /* \"#utility.yul\":7624:7627   */\n      dup3\n        /* \"#utility.yul\":7620:7632   */\n      add\n        /* \"#utility.yul\":7613:7632   */\n      swap1\n      pop\n        /* \"#utility.yul\":7272:7638   */\n      swap2\n      swap1\n      pop\n      jump\t// out\n        /* \"#utility.yul\":7644:8010   */\n    tag_404:\n        /* \"#utility.yul\":7786:7789   */\n      0x00\n        /* \"#utility.yul\":7807:7874   */\n      tag_406\n        /* \"#utility.yul\":7871:7873   */\n      0x1b\n        /* \"#utility.yul\":7866:7869   */\n      dup4\n        /* \"#utility.yul\":7807:7874   */\n      tag_369\n      jump\t// in\n    tag_406:\n        /* \"#utility.yul\":7800:7874   */\n      swap2\n      pop\n        /* \"#utility.yul\":7883:7976   */\n      tag_407\n        /* \"#utility.yul\":7972:7975   */\n      dup3\n        /* \"#utility.yul\":7883:7976   */\n      tag_408\n      jump\t// in\n    tag_407:\n        /* \"#utility.yul\":8001:8003   */\n      0x20\n        /* \"#utility.yul\":7996:7999   */\n      dup3\n        /* \"#utility.yul\":7992:8004   */\n      add\n        /* \"#utility.yul\":7985:8004   */\n      swap1\n      pop\n        /* \"#utility.yul\":7644:8010   */\n      swap2\n      swap1\n      pop\n      jump\t// out\n        /* \"#utility.yul\":8016:8382   */\n    tag_409:\n        /* \"#utility.yul\":8158:8161   */\n      0x00\n        /* \"#utility.yul\":8179:8246   */\n      tag_411\n        /* \"#utility.yul\":8243:8245   */\n      0x1a\n        /* \"#utility.yul\":8238:8241   */\n      dup4\n        /* \"#utility.yul\":8179:8246   */\n      tag_369\n      jump\t// in\n    tag_411:\n        /* \"#utility.yul\":8172:8246   */\n      swap2\n      pop\n        /* \"#utility.yul\":8255:8348   */\n      tag_412\n        /* \"#utility.yul\":8344:8347   */\n      dup3\n        /* \"#utility.yul\":8255:8348   */\n      tag_413\n      jump\t// in\n    tag_412:\n        /* \"#utility.yul\":8373:8375   */\n      0x20\n        /* \"#utility.yul\":8368:8371   */\n      dup3\n        /* \"#utility.yul\":8364:8376   */\n      add\n        /* \"#utility.yul\":8357:8376   */\n      swap1\n      pop\n        /* \"#utility.yul\":8016:8382   */\n      swap2\n      swap1\n      pop\n      jump\t// out\n        /* \"#utility.yul\":8388:8496   */\n    tag_337:\n        /* \"#utility.yul\":8465:8489   */\n      tag_415\n        /* \"#utility.yul\":8483:8488   */\n      dup2\n        /* \"#utility.yul\":8465:8489   */\n      tag_416\n      jump\t// in\n    tag_415:\n        /* \"#utility.yul\":8460:8463   */\n      dup3\n        /* \"#utility.yul\":8453:8490   */\n      mstore\n        /* \"#utility.yul\":8388:8496   */\n      pop\n      pop\n      jump\t// out\n        /* \"#utility.yul\":8502:8620   */\n    tag_417:\n        /* \"#utility.yul\":8589:8613   */\n      tag_419\n        /* \"#utility.yul\":8607:8612   */\n      dup2\n        /* \"#utility.yul\":8589:8613   */\n      tag_416\n      jump\t// in\n    tag_419:\n        /* \"#utility.yul\":8584:8587   */\n      dup3\n        /* \"#utility.yul\":8577:8614   */\n      mstore\n        /* \"#utility.yul\":8502:8620   */\n      pop\n      pop\n      jump\t// out\n        /* \"#utility.yul\":8626:8738   */\n    tag_420:\n        /* \"#utility.yul\":8709:8731   */\n      tag_422\n        /* \"#utility.yul\":8725:8730   */\n      dup2\n        /* \"#utility.yul\":8709:8731   */\n      tag_423\n      jump\t// in\n    tag_422:\n        /* \"#utility.yul\":8704:8707   */\n      dup3\n        /* \"#utility.yul\":8697:8732   */\n      mstore\n        /* \"#utility.yul\":8626:8738   */\n      pop\n      pop\n      jump\t// out\n        /* \"#utility.yul\":8744:8966   */\n    tag_73:\n        /* \"#utility.yul\":8837:8841   */\n      0x00\n        /* \"#utility.yul\":8875:8877   */\n      0x20\n        /* \"#utility.yul\":8864:8873   */\n      dup3\n        /* \"#utility.yul\":8860:8878   */\n      add\n        /* \"#utility.yul\":8852:8878   */\n      swap1\n      pop\n        /* \"#utility.yul\":8888:8959   */\n      tag_425\n        /* \"#utility.yul\":8956:8957   */\n      0x00\n        /* \"#utility.yul\":8945:8954   */\n      dup4\n        /* \"#utility.yul\":8941:8958   */\n      add\n        /* \"#utility.yul\":8932:8938   */\n      dup5\n        /* \"#utility.yul\":8888:8959   */\n      tag_338\n      jump\t// in\n    tag_425:\n        /* \"#utility.yul\":8744:8966   */\n      swap3\n      swap2\n      pop\n      pop\n      jump\t// out\n        /* \"#utility.yul\":8972:9414   */\n    tag_160:\n        /* \"#utility.yul\":9121:9125   */\n      0x00\n        /* \"#utility.yul\":9159:9161   */\n      0x60\n        /* \"#utility.yul\":9148:9157   */\n      dup3\n        /* \"#utility.yul\":9144:9162   */\n      add\n        /* \"#utility.yul\":9136:9162   */\n      swap1\n      pop\n        /* \"#utility.yul\":9172:9243   */\n      tag_427\n        /* \"#utility.yul\":9240:9241   */\n      0x00\n        /* \"#utility.yul\":9229:9238   */\n      dup4\n        /* \"#utility.yul\":9225:9242   */\n      add\n        /* \"#utility.yul\":9216:9222   */\n      dup7\n        /* \"#utility.yul\":9172:9243   */\n      tag_338\n      jump\t// in\n    tag_427:\n        /* \"#utility.yul\":9253:9325   */\n      tag_428\n        /* \"#utility.yul\":9321:9323   */\n      0x20\n        /* \"#utility.yul\":9310:9319   */\n      dup4\n        /* \"#utility.yul\":9306:9324   */\n      add\n        /* \"#utility.yul\":9297:9303   */\n      dup6\n        /* \"#utility.yul\":9253:9325   */\n      tag_338\n      jump\t// in\n    tag_428:\n        /* \"#utility.yul\":9335:9407   */\n      tag_429\n        /* \"#utility.yul\":9403:9405   */\n      0x40\n        /* \"#utility.yul\":9392:9401   */\n      dup4\n        /* \"#utility.yul\":9388:9406   */\n      add\n        /* \"#utility.yul\":9379:9385   */\n      dup5\n        /* \"#utility.yul\":9335:9407   */\n      tag_417\n      jump\t// in\n    tag_429:\n        /* \"#utility.yul\":8972:9414   */\n      swap5\n      swap4\n      pop\n      pop\n      pop\n      pop\n      jump\t// out\n        /* \"#utility.yul\":9420:9752   */\n    tag_144:\n        /* \"#utility.yul\":9541:9545   */\n      0x00\n        /* \"#utility.yul\":9579:9581   */\n      0x40\n        /* \"#utility.yul\":9568:9577   */\n      dup3\n        /* \"#utility.yul\":9564:9582   */\n      add\n        /* \"#utility.yul\":9556:9582   */\n      swap1\n      pop\n        /* \"#utility.yul\":9592:9663   */\n      tag_431\n        /* \"#utility.yul\":9660:9661   */\n      0x00\n        /* \"#utility.yul\":9649:9658   */\n      dup4\n        /* \"#utility.yul\":9645:9662   */\n      add\n        /* \"#utility.yul\":9636:9642   */\n      dup6\n        /* \"#utility.yul\":9592:9663   */\n      tag_338\n      jump\t// in\n    tag_431:\n        /* \"#utility.yul\":9673:9745   */\n      tag_432\n        /* \"#utility.yul\":9741:9743   */\n      0x20\n        /* \"#utility.yul\":9730:9739   */\n      dup4\n        /* \"#utility.yul\":9726:9744   */\n      add\n        /* \"#utility.yul\":9717:9723   */\n      dup5\n        /* \"#utility.yul\":9673:9745   */\n      tag_417\n      jump\t// in\n    tag_432:\n        /* \"#utility.yul\":9420:9752   */\n      swap4\n      swap3\n      pop\n      pop\n      pop\n      jump\t// out\n        /* \"#utility.yul\":9758:10131   */\n    tag_67:\n        /* \"#utility.yul\":9901:9905   */\n      0x00\n        /* \"#utility.yul\":9939:9941   */\n      0x20\n        /* \"#utility.yul\":9928:9937   */\n      dup3\n        /* \"#utility.yul\":9924:9942   */\n      add\n        /* \"#utility.yul\":9916:9942   */\n      swap1\n      pop\n        /* \"#utility.yul\":9988:9997   */\n      dup2\n        /* \"#utility.yul\":9982:9986   */\n      dup2\n        /* \"#utility.yul\":9978:9998   */\n      sub\n        /* \"#utility.yul\":9974:9975   */\n      0x00\n        /* \"#utility.yul\":9963:9972   */\n      dup4\n        /* \"#utility.yul\":9959:9976   */\n      add\n        /* \"#utility.yul\":9952:9999   */\n      mstore\n        /* \"#utility.yul\":10016:10124   */\n      tag_434\n        /* \"#utility.yul\":10119:10123   */\n      dup2\n        /* \"#utility.yul\":10110:10116   */\n      dup5\n        /* \"#utility.yul\":10016:10124   */\n      tag_342\n      jump\t// in\n    tag_434:\n        /* \"#utility.yul\":10008:10124   */\n      swap1\n      pop\n        /* \"#utility.yul\":9758:10131   */\n      swap3\n      swap2\n      pop\n      pop\n      jump\t// out\n        /* \"#utility.yul\":10137:10347   */\n    tag_39:\n        /* \"#utility.yul\":10224:10228   */\n      0x00\n        /* \"#utility.yul\":10262:10264   */\n      0x20\n        /* \"#utility.yul\":10251:10260   */\n      dup3\n        /* \"#utility.yul\":10247:10265   */\n      add\n        /* \"#utility.yul\":10239:10265   */\n      swap1\n      pop\n        /* \"#utility.yul\":10275:10340   */\n      tag_436\n        /* \"#utility.yul\":10337:10338   */\n      0x00\n        /* \"#utility.yul\":10326:10335   */\n      dup4\n        /* \"#utility.yul\":10322:10339   */\n      add\n        /* \"#utility.yul\":10313:10319   */\n      dup5\n        /* \"#utility.yul\":10275:10340   */\n      tag_356\n      jump\t// in\n    tag_436:\n        /* \"#utility.yul\":10137:10347   */\n      swap3\n      swap2\n      pop\n      pop\n      jump\t// out\n        /* \"#utility.yul\":10353:10605   */\n    tag_106:\n        /* \"#utility.yul\":10461:10465   */\n      0x00\n        /* \"#utility.yul\":10499:10501   */\n      0x20\n        /* \"#utility.yul\":10488:10497   */\n      dup3\n        /* \"#utility.yul\":10484:10502   */\n      add\n        /* \"#utility.yul\":10476:10502   */\n      swap1\n      pop\n        /* \"#utility.yul\":10512:10598   */\n      tag_438\n        /* \"#utility.yul\":10595:10596   */\n      0x00\n        /* \"#utility.yul\":10584:10593   */\n      dup4\n        /* \"#utility.yul\":10580:10597   */\n      add\n        /* \"#utility.yul\":10571:10577   */\n      dup5\n        /* \"#utility.yul\":10512:10598   */\n      tag_360\n      jump\t// in\n    tag_438:\n        /* \"#utility.yul\":10353:10605   */\n      swap3\n      swap2\n      pop\n      pop\n      jump\t// out\n        /* \"#utility.yul\":10611:10924   */\n    tag_32:\n        /* \"#utility.yul\":10724:10728   */\n      0x00\n        /* \"#utility.yul\":10762:10764   */\n      0x20\n        /* \"#utility.yul\":10751:10760   */\n      dup3\n        /* \"#utility.yul\":10747:10765   */\n      add\n        /* \"#utility.yul\":10739:10765   */\n      swap1\n      pop\n        /* \"#utility.yul\":10811:10820   */\n      dup2\n        /* \"#utility.yul\":10805:10809   */\n      dup2\n        /* \"#utility.yul\":10801:10821   */\n      sub\n        /* \"#utility.yul\":10797:10798   */\n      0x00\n        /* \"#utility.yul\":10786:10795   */\n      dup4\n        /* \"#utility.yul\":10782:10799   */\n      add\n        /* \"#utility.yul\":10775:10822   */\n      mstore\n        /* \"#utility.yul\":10839:10917   */\n      tag_440\n        /* \"#utility.yul\":10912:10916   */\n      dup2\n        /* \"#utility.yul\":10903:10909   */\n      dup5\n        /* \"#utility.yul\":10839:10917   */\n      tag_364\n      jump\t// in\n    tag_440:\n        /* \"#utility.yul\":10831:10917   */\n      swap1\n      pop\n        /* \"#utility.yul\":10611:10924   */\n      swap3\n      swap2\n      pop\n      pop\n      jump\t// out\n        /* \"#utility.yul\":10930:11349   */\n    tag_124:\n        /* \"#utility.yul\":11096:11100   */\n      0x00\n        /* \"#utility.yul\":11134:11136   */\n      0x20\n        /* \"#utility.yul\":11123:11132   */\n      dup3\n        /* \"#utility.yul\":11119:11137   */\n      add\n        /* \"#utility.yul\":11111:11137   */\n      swap1\n      pop\n        /* \"#utility.yul\":11183:11192   */\n      dup2\n        /* \"#utility.yul\":11177:11181   */\n      dup2\n        /* \"#utility.yul\":11173:11193   */\n      sub\n        /* \"#utility.yul\":11169:11170   */\n      0x00\n        /* \"#utility.yul\":11158:11167   */\n      dup4\n        /* \"#utility.yul\":11154:11171   */\n      add\n        /* \"#utility.yul\":11147:11194   */\n      mstore\n        /* \"#utility.yul\":11211:11342   */\n      tag_442\n        /* \"#utility.yul\":11337:11341   */\n      dup2\n        /* \"#utility.yul\":11211:11342   */\n      tag_374\n      jump\t// in\n    tag_442:\n        /* \"#utility.yul\":11203:11342   */\n      swap1\n      pop\n        /* \"#utility.yul\":10930:11349   */\n      swap2\n      swap1\n      pop\n      jump\t// out\n        /* \"#utility.yul\":11355:11774   */\n    tag_170:\n        /* \"#utility.yul\":11521:11525   */\n      0x00\n        /* \"#utility.yul\":11559:11561   */\n      0x20\n        /* \"#utility.yul\":11548:11557   */\n      dup3\n        /* \"#utility.yul\":11544:11562   */\n      add\n        /* \"#utility.yul\":11536:11562   */\n      swap1\n      pop\n        /* \"#utility.yul\":11608:11617   */\n      dup2\n        /* \"#utility.yul\":11602:11606   */\n      dup2\n        /* \"#utility.yul\":11598:11618   */\n      sub\n        /* \"#utility.yul\":11594:11595   */\n      0x00\n        /* \"#utility.yul\":11583:11592   */\n      dup4\n        /* \"#utility.yul\":11579:11596   */\n      add\n        /* \"#utility.yul\":11572:11619   */\n      mstore\n        /* \"#utility.yul\":11636:11767   */\n      tag_444\n        /* \"#utility.yul\":11762:11766   */\n      dup2\n        /* \"#utility.yul\":11636:11767   */\n      tag_379\n      jump\t// in\n    tag_444:\n        /* \"#utility.yul\":11628:11767   */\n      swap1\n      pop\n        /* \"#utility.yul\":11355:11774   */\n      swap2\n      swap1\n      pop\n      jump\t// out\n        /* \"#utility.yul\":11780:12199   */\n    tag_285:\n        /* \"#utility.yul\":11946:11950   */\n      0x00\n        /* \"#utility.yul\":11984:11986   */\n      0x20\n        /* \"#utility.yul\":11973:11982   */\n      dup3\n        /* \"#utility.yul\":11969:11987   */\n      add\n        /* \"#utility.yul\":11961:11987   */\n      swap1\n      pop\n        /* \"#utility.yul\":12033:12042   */\n      dup2\n        /* \"#utility.yul\":12027:12031   */\n      dup2\n        /* \"#utility.yul\":12023:12043   */\n      sub\n        /* \"#utility.yul\":12019:12020   */\n      0x00\n        /* \"#utility.yul\":12008:12017   */\n      dup4\n        /* \"#utility.yul\":12004:12021   */\n      add\n        /* \"#utility.yul\":11997:12044   */\n      mstore\n        /* \"#utility.yul\":12061:12192   */\n      tag_446\n        /* \"#utility.yul\":12187:12191   */\n      dup2\n        /* \"#utility.yul\":12061:12192   */\n      tag_384\n      jump\t// in\n    tag_446:\n        /* \"#utility.yul\":12053:12192   */\n      swap1\n      pop\n        /* \"#utility.yul\":11780:12199   */\n      swap2\n      swap1\n      pop\n      jump\t// out\n        /* \"#utility.yul\":12205:12624   */\n    tag_232:\n        /* \"#utility.yul\":12371:12375   */\n      0x00\n        /* \"#utility.yul\":12409:12411   */\n      0x20\n        /* \"#utility.yul\":12398:12407   */\n      dup3\n        /* \"#utility.yul\":12394:12412   */\n      add\n        /* \"#utility.yul\":12386:12412   */\n      swap1\n      pop\n        /* \"#utility.yul\":12458:12467   */\n      dup2\n        /* \"#utility.yul\":12452:12456   */\n      dup2\n        /* \"#utility.yul\":12448:12468   */\n      sub\n        /* \"#utility.yul\":12444:12445   */\n      0x00\n        /* \"#utility.yul\":12433:12442   */\n      dup4\n        /* \"#utility.yul\":12429:12446   */\n      add\n        /* \"#utility.yul\":12422:12469   */\n      mstore\n        /* \"#utility.yul\":12486:12617   */\n      tag_448\n        /* \"#utility.yul\":12612:12616   */\n      dup2\n        /* \"#utility.yul\":12486:12617   */\n      tag_389\n      jump\t// in\n    tag_448:\n        /* \"#utility.yul\":12478:12617   */\n      swap1\n      pop\n        /* \"#utility.yul\":12205:12624   */\n      swap2\n      swap1\n      pop\n      jump\t// out\n        /* \"#utility.yul\":12630:13049   */\n    tag_254:\n        /* \"#utility.yul\":12796:12800   */\n      0x00\n        /* \"#utility.yul\":12834:12836   */\n      0x20\n        /* \"#utility.yul\":12823:12832   */\n      dup3\n        /* \"#utility.yul\":12819:12837   */\n      add\n        /* \"#utility.yul\":12811:12837   */\n      swap1\n      pop\n        /* \"#utility.yul\":12883:12892   */\n      dup2\n        /* \"#utility.yul\":12877:12881   */\n      dup2\n        /* \"#utility.yul\":12873:12893   */\n      sub\n        /* \"#utility.yul\":12869:12870   */\n      0x00\n        /* \"#utility.yul\":12858:12867   */\n      dup4\n        /* \"#utility.yul\":12854:12871   */\n      add\n        /* \"#utility.yul\":12847:12894   */\n      mstore\n        /* \"#utility.yul\":12911:13042   */\n      tag_450\n        /* \"#utility.yul\":13037:13041   */\n      dup2\n        /* \"#utility.yul\":12911:13042   */\n      tag_394\n      jump\t// in\n    tag_450:\n        /* \"#utility.yul\":12903:13042   */\n      swap1\n      pop\n        /* \"#utility.yul\":12630:13049   */\n      swap2\n      swap1\n      pop\n      jump\t// out\n        /* \"#utility.yul\":13055:13474   */\n    tag_139:\n        /* \"#utility.yul\":13221:13225   */\n      0x00\n        /* \"#utility.yul\":13259:13261   */\n      0x20\n        /* \"#utility.yul\":13248:13257   */\n      dup3\n        /* \"#utility.yul\":13244:13262   */\n      add\n        /* \"#utility.yul\":13236:13262   */\n      swap1\n      pop\n        /* \"#utility.yul\":13308:13317   */\n      dup2\n        /* \"#utility.yul\":13302:13306   */\n      dup2\n        /* \"#utility.yul\":13298:13318   */\n      sub\n        /* \"#utility.yul\":13294:13295   */\n      0x00\n        /* \"#utility.yul\":13283:13292   */\n      dup4\n        /* \"#utility.yul\":13279:13296   */\n      add\n        /* \"#utility.yul\":13272:13319   */\n      mstore\n        /* \"#utility.yul\":13336:13467   */\n      tag_452\n        /* \"#utility.yul\":13462:13466   */\n      dup2\n        /* \"#utility.yul\":13336:13467   */\n      tag_399\n      jump\t// in\n    tag_452:\n        /* \"#utility.yul\":13328:13467   */\n      swap1\n      pop\n        /* \"#utility.yul\":13055:13474   */\n      swap2\n      swap1\n      pop\n      jump\t// out\n        /* \"#utility.yul\":13480:13899   */\n    tag_175:\n        /* \"#utility.yul\":13646:13650   */\n      0x00\n        /* \"#utility.yul\":13684:13686   */\n      0x20\n        /* \"#utility.yul\":13673:13682   */\n      dup3\n        /* \"#utility.yul\":13669:13687   */\n      add\n        /* \"#utility.yul\":13661:13687   */\n      swap1\n      pop\n        /* \"#utility.yul\":13733:13742   */\n      dup2\n        /* \"#utility.yul\":13727:13731   */\n      dup2\n        /* \"#utility.yul\":13723:13743   */\n      sub\n        /* \"#utility.yul\":13719:13720   */\n      0x00\n        /* \"#utility.yul\":13708:13717   */\n      dup4\n        /* \"#utility.yul\":13704:13721   */\n      add\n        /* \"#utility.yul\":13697:13744   */\n      mstore\n        /* \"#utility.yul\":13761:13892   */\n      tag_454\n        /* \"#utility.yul\":13887:13891   */\n      dup2\n        /* \"#utility.yul\":13761:13892   */\n      tag_404\n      jump\t// in\n    tag_454:\n        /* \"#utility.yul\":13753:13892   */\n      swap1\n      pop\n        /* \"#utility.yul\":13480:13899   */\n      swap2\n      swap1\n      pop\n      jump\t// out\n        /* \"#utility.yul\":13905:14324   */\n    tag_247:\n        /* \"#utility.yul\":14071:14075   */\n      0x00\n        /* \"#utility.yul\":14109:14111   */\n      0x20\n        /* \"#utility.yul\":14098:14107   */\n      dup3\n        /* \"#utility.yul\":14094:14112   */\n      add\n        /* \"#utility.yul\":14086:14112   */\n      swap1\n      pop\n        /* \"#utility.yul\":14158:14167   */\n      dup2\n        /* \"#utility.yul\":14152:14156   */\n      dup2\n        /* \"#utility.yul\":14148:14168   */\n      sub\n        /* \"#utility.yul\":14144:14145   */\n      0x00\n        /* \"#utility.yul\":14133:14142   */\n      dup4\n        /* \"#utility.yul\":14129:14146   */\n      add\n        /* \"#utility.yul\":14122:14169   */\n      mstore\n        /* \"#utility.yul\":14186:14317   */\n      tag_456\n        /* \"#utility.yul\":14312:14316   */\n      dup2\n        /* \"#utility.yul\":14186:14317   */\n      tag_409\n      jump\t// in\n    tag_456:\n        /* \"#utility.yul\":14178:14317   */\n      swap1\n      pop\n        /* \"#utility.yul\":13905:14324   */\n      swap2\n      swap1\n      pop\n      jump\t// out\n        /* \"#utility.yul\":14330:14552   */\n    tag_44:\n        /* \"#utility.yul\":14423:14427   */\n      0x00\n        /* \"#utility.yul\":14461:14463   */\n      0x20\n        /* \"#utility.yul\":14450:14459   */\n      dup3\n        /* \"#utility.yul\":14446:14464   */\n      add\n        /* \"#utility.yul\":14438:14464   */\n      swap1\n      pop\n        /* \"#utility.yul\":14474:14545   */\n      tag_458\n        /* \"#utility.yul\":14542:14543   */\n      0x00\n        /* \"#utility.yul\":14531:14540   */\n      dup4\n        /* \"#utility.yul\":14527:14544   */\n      add\n        /* \"#utility.yul\":14518:14524   */\n      dup5\n        /* \"#utility.yul\":14474:14545   */\n      tag_417\n      jump\t// in\n    tag_458:\n        /* \"#utility.yul\":14330:14552   */\n      swap3\n      swap2\n      pop\n      pop\n      jump\t// out\n        /* \"#utility.yul\":14558:15000   */\n    tag_92:\n        /* \"#utility.yul\":14707:14711   */\n      0x00\n        /* \"#utility.yul\":14745:14747   */\n      0x60\n        /* \"#utility.yul\":14734:14743   */\n      dup3\n        /* \"#utility.yul\":14730:14748   */\n      add\n        /* \"#utility.yul\":14722:14748   */\n      swap1\n      pop\n        /* \"#utility.yul\":14758:14829   */\n      tag_460\n        /* \"#utility.yul\":14826:14827   */\n      0x00\n        /* \"#utility.yul\":14815:14824   */\n      dup4\n        /* \"#utility.yul\":14811:14828   */\n      add\n        /* \"#utility.yul\":14802:14808   */\n      dup7\n        /* \"#utility.yul\":14758:14829   */\n      tag_417\n      jump\t// in\n    tag_460:\n        /* \"#utility.yul\":14839:14911   */\n      tag_461\n        /* \"#utility.yul\":14907:14909   */\n      0x20\n        /* \"#utility.yul\":14896:14905   */\n      dup4\n        /* \"#utility.yul\":14892:14910   */\n      add\n        /* \"#utility.yul\":14883:14889   */\n      dup6\n        /* \"#utility.yul\":14839:14911   */\n      tag_417\n      jump\t// in\n    tag_461:\n        /* \"#utility.yul\":14921:14993   */\n      tag_462\n        /* \"#utility.yul\":14989:14991   */\n      0x40\n        /* \"#utility.yul\":14978:14987   */\n      dup4\n        /* \"#utility.yul\":14974:14992   */\n      add\n        /* \"#utility.yul\":14965:14971   */\n      dup5\n        /* \"#utility.yul\":14921:14993   */\n      tag_417\n      jump\t// in\n    tag_462:\n        /* \"#utility.yul\":14558:15000   */\n      swap5\n      swap4\n      pop\n      pop\n      pop\n      pop\n      jump\t// out\n        /* \"#utility.yul\":15006:15220   */\n    tag_54:\n        /* \"#utility.yul\":15095:15099   */\n      0x00\n        /* \"#utility.yul\":15133:15135   */\n      0x20\n        /* \"#utility.yul\":15122:15131   */\n      dup3\n        /* \"#utility.yul\":15118:15136   */\n      add\n        /* \"#utility.yul\":15110:15136   */\n      swap1\n      pop\n        /* \"#utility.yul\":15146:15213   */\n      tag_464\n        /* \"#utility.yul\":15210:15211   */\n      0x00\n        /* \"#utility.yul\":15199:15208   */\n      dup4\n        /* \"#utility.yul\":15195:15212   */\n      add\n        /* \"#utility.yul\":15186:15192   */\n      dup5\n        /* \"#utility.yul\":15146:15213   */\n      tag_420\n      jump\t// in\n    tag_464:\n        /* \"#utility.yul\":15006:15220   */\n      swap3\n      swap2\n      pop\n      pop\n      jump\t// out\n        /* \"#utility.yul\":15307:15439   */\n    tag_349:\n        /* \"#utility.yul\":15374:15378   */\n      0x00\n        /* \"#utility.yul\":15397:15400   */\n      dup2\n        /* \"#utility.yul\":15389:15400   */\n      swap1\n      pop\n        /* \"#utility.yul\":15427:15431   */\n      0x20\n        /* \"#utility.yul\":15422:15425   */\n      dup3\n        /* \"#utility.yul\":15418:15432   */\n      add\n        /* \"#utility.yul\":15410:15432   */\n      swap1\n      pop\n        /* \"#utility.yul\":15307:15439   */\n      swap2\n      swap1\n      pop\n      jump\t// out\n        /* \"#utility.yul\":15445:15559   */\n    tag_345:\n        /* \"#utility.yul\":15512:15518   */\n      0x00\n        /* \"#utility.yul\":15546:15551   */\n      dup2\n        /* \"#utility.yul\":15540:15552   */\n      mload\n        /* \"#utility.yul\":15530:15552   */\n      swap1\n      pop\n        /* \"#utility.yul\":15445:15559   */\n      swap2\n      swap1\n      pop\n      jump\t// out\n        /* \"#utility.yul\":15565:15664   */\n    tag_367:\n        /* \"#utility.yul\":15617:15623   */\n      0x00\n        /* \"#utility.yul\":15651:15656   */\n      dup2\n        /* \"#utility.yul\":15645:15657   */\n      mload\n        /* \"#utility.yul\":15635:15657   */\n      swap1\n      pop\n        /* \"#utility.yul\":15565:15664   */\n      swap2\n      swap1\n      pop\n      jump\t// out\n        /* \"#utility.yul\":15670:15783   */\n    tag_355:\n        /* \"#utility.yul\":15740:15744   */\n      0x00\n        /* \"#utility.yul\":15772:15776   */\n      0x20\n        /* \"#utility.yul\":15767:15770   */\n      dup3\n        /* \"#utility.yul\":15763:15777   */\n      add\n        /* \"#utility.yul\":15755:15777   */\n      swap1\n      pop\n        /* \"#utility.yul\":15670:15783   */\n      swap2\n      swap1\n      pop\n      jump\t// out\n        /* \"#utility.yul\":15789:15973   */\n    tag_347:\n        /* \"#utility.yul\":15888:15899   */\n      0x00\n        /* \"#utility.yul\":15922:15928   */\n      dup3\n        /* \"#utility.yul\":15917:15920   */\n      dup3\n        /* \"#utility.yul\":15910:15929   */\n      mstore\n        /* \"#utility.yul\":15962:15966   */\n      0x20\n        /* \"#utility.yul\":15957:15960   */\n      dup3\n        /* \"#utility.yul\":15953:15967   */\n      add\n        /* \"#utility.yul\":15938:15967   */\n      swap1\n      pop\n        /* \"#utility.yul\":15789:15973   */\n      swap3\n      swap2\n      pop\n      pop\n      jump\t// out\n        /* \"#utility.yul\":15979:16148   */\n    tag_369:\n        /* \"#utility.yul\":16063:16074   */\n      0x00\n        /* \"#utility.yul\":16097:16103   */\n      dup3\n        /* \"#utility.yul\":16092:16095   */\n      dup3\n        /* \"#utility.yul\":16085:16104   */\n      mstore\n        /* \"#utility.yul\":16137:16141   */\n      0x20\n        /* \"#utility.yul\":16132:16135   */\n      dup3\n        /* \"#utility.yul\":16128:16142   */\n      add\n        /* \"#utility.yul\":16113:16142   */\n      swap1\n      pop\n        /* \"#utility.yul\":15979:16148   */\n      swap3\n      swap2\n      pop\n      pop\n      jump\t// out\n        /* \"#utility.yul\":16154:16459   */\n    tag_188:\n        /* \"#utility.yul\":16194:16197   */\n      0x00\n        /* \"#utility.yul\":16213:16233   */\n      tag_474\n        /* \"#utility.yul\":16231:16232   */\n      dup3\n        /* \"#utility.yul\":16213:16233   */\n      tag_416\n      jump\t// in\n    tag_474:\n        /* \"#utility.yul\":16208:16233   */\n      swap2\n      pop\n        /* \"#utility.yul\":16247:16267   */\n      tag_475\n        /* \"#utility.yul\":16265:16266   */\n      dup4\n        /* \"#utility.yul\":16247:16267   */\n      tag_416\n      jump\t// in\n    tag_475:\n        /* \"#utility.yul\":16242:16267   */\n      swap3\n      pop\n        /* \"#utility.yul\":16401:16402   */\n      dup3\n        /* \"#utility.yul\":16333:16399   */\n      0xffffffffffffffffffffffffffffffffffffffffffffffffffffffffffffffff\n        /* \"#utility.yul\":16329:16403   */\n      sub\n        /* \"#utility.yul\":16326:16327   */\n      dup3\n        /* \"#utility.yul\":16323:16404   */\n      gt\n        /* \"#utility.yul\":16320:16427   */\n      iszero\n      tag_476\n      jumpi\n        /* \"#utility.yul\":16407:16425   */\n      tag_477\n      tag_478\n      jump\t// in\n    tag_477:\n        /* \"#utility.yul\":16320:16427   */\n    tag_476:\n        /* \"#utility.yul\":16451:16452   */\n      dup3\n        /* \"#utility.yul\":16448:16449   */\n      dup3\n        /* \"#utility.yul\":16444:16453   */\n      add\n        /* \"#utility.yul\":16437:16453   */\n      swap1\n      pop\n        /* \"#utility.yul\":16154:16459   */\n      swap3\n      swap2\n      pop\n      pop\n      jump\t// out\n        /* \"#utility.yul\":16465:16650   */\n    tag_249:\n        /* \"#utility.yul\":16505:16506   */\n      0x00\n        /* \"#utility.yul\":16522:16542   */\n      tag_480\n        /* \"#utility.yul\":16540:16541   */\n      dup3\n        /* \"#utility.yul\":16522:16542   */\n      tag_416\n      jump\t// in\n    tag_480:\n        /* \"#utility.yul\":16517:16542   */\n      swap2\n      pop\n        /* \"#utility.yul\":16556:16576   */\n      tag_481\n        /* \"#utility.yul\":16574:16575   */\n      dup4\n        /* \"#utility.yul\":16556:16576   */\n      tag_416\n      jump\t// in\n    tag_481:\n        /* \"#utility.yul\":16551:16576   */\n      swap3\n      pop\n        /* \"#utility.yul\":16595:16596   */\n      dup3\n        /* \"#utility.yul\":16585:16620   */\n      tag_482\n      jumpi\n        /* \"#utility.yul\":16600:16618   */\n      tag_483\n      tag_484\n      jump\t// in\n    tag_483:\n        /* \"#utility.yul\":16585:16620   */\n    tag_482:\n        /* \"#utility.yul\":16642:16643   */\n      dup3\n        /* \"#utility.yul\":16639:16640   */\n      dup3\n        /* \"#utility.yul\":16635:16644   */\n      div\n        /* \"#utility.yul\":16630:16644   */\n      swap1\n      pop\n        /* \"#utility.yul\":16465:16650   */\n      swap3\n      swap2\n      pop\n      pop\n      jump\t// out\n        /* \"#utility.yul\":16656:17004   */\n    tag_164:\n        /* \"#utility.yul\":16696:16703   */\n      0x00\n        /* \"#utility.yul\":16719:16739   */\n      tag_486\n        /* \"#utility.yul\":16737:16738   */\n      dup3\n        /* \"#utility.yul\":16719:16739   */\n      tag_416\n      jump\t// in\n    tag_486:\n        /* \"#utility.yul\":16714:16739   */\n      swap2\n      pop\n        /* \"#utility.yul\":16753:16773   */\n      tag_487\n        /* \"#utility.yul\":16771:16772   */\n      dup4\n        /* \"#utility.yul\":16753:16773   */\n      tag_416\n      jump\t// in\n    tag_487:\n        /* \"#utility.yul\":16748:16773   */\n      swap3\n      pop\n        /* \"#utility.yul\":16941:16942   */\n      dup2\n        /* \"#utility.yul\":16873:16939   */\n      0xffffffffffffffffffffffffffffffffffffffffffffffffffffffffffffffff\n        /* \"#utility.yul\":16869:16943   */\n      div\n        /* \"#utility.yul\":16866:16867   */\n      dup4\n        /* \"#utility.yul\":16863:16944   */\n      gt\n        /* \"#utility.yul\":16858:16859   */\n      dup3\n        /* \"#utility.yul\":16851:16860   */\n      iszero\n        /* \"#utility.yul\":16844:16861   */\n      iszero\n        /* \"#utility.yul\":16840:16945   */\n      and\n        /* \"#utility.yul\":16837:16968   */\n      iszero\n      tag_488\n      jumpi\n        /* \"#utility.yul\":16948:16966   */\n      tag_489\n      tag_478\n      jump\t// in\n    tag_489:\n        /* \"#utility.yul\":16837:16968   */\n    tag_488:\n        /* \"#utility.yul\":16996:16997   */\n      dup3\n        /* \"#utility.yul\":16993:16994   */\n      dup3\n        /* \"#utility.yul\":16989:16998   */\n      mul\n        /* \"#utility.yul\":16978:16998   */\n      swap1\n      pop\n        /* \"#utility.yul\":16656:17004   */\n      swap3\n      swap2\n      pop\n      pop\n      jump\t// out\n        /* \"#utility.yul\":17010:17201   */\n    tag_258:\n        /* \"#utility.yul\":17050:17054   */\n      0x00\n        /* \"#utility.yul\":17070:17090   */\n      tag_491\n        /* \"#utility.yul\":17088:17089   */\n      dup3\n        /* \"#utility.yul\":17070:17090   */\n      tag_416\n      jump\t// in\n    tag_491:\n        /* \"#utility.yul\":17065:17090   */\n      swap2\n      pop\n        /* \"#utility.yul\":17104:17124   */\n      tag_492\n        /* \"#utility.yul\":17122:17123   */\n      dup4\n        /* \"#utility.yul\":17104:17124   */\n      tag_416\n      jump\t// in\n    tag_492:\n        /* \"#utility.yul\":17099:17124   */\n      swap3\n      pop\n        /* \"#utility.yul\":17143:17144   */\n      dup3\n        /* \"#utility.yul\":17140:17141   */\n      dup3\n        /* \"#utility.yul\":17137:17145   */\n      lt\n        /* \"#utility.yul\":17134:17168   */\n      iszero\n      tag_493\n      jumpi\n        /* \"#utility.yul\":17148:17166   */\n      tag_494\n      tag_478\n      jump\t// in\n    tag_494:\n        /* \"#utility.yul\":17134:17168   */\n    tag_493:\n        /* \"#utility.yul\":17193:17194   */\n      dup3\n        /* \"#utility.yul\":17190:17191   */\n      dup3\n        /* \"#utility.yul\":17186:17195   */\n      sub\n        /* \"#utility.yul\":17178:17195   */\n      swap1\n      pop\n        /* \"#utility.yul\":17010:17201   */\n      swap3\n      swap2\n      pop\n      pop\n      jump\t// out\n        /* \"#utility.yul\":17207:17303   */\n    tag_341:\n        /* \"#utility.yul\":17244:17251   */\n      0x00\n        /* \"#utility.yul\":17273:17297   */\n      tag_496\n        /* \"#utility.yul\":17291:17296   */\n      dup3\n        /* \"#utility.yul\":17273:17297   */\n      tag_497\n      jump\t// in\n    tag_496:\n        /* \"#utility.yul\":17262:17297   */\n      swap1\n      pop\n        /* \"#utility.yul\":17207:17303   */\n      swap2\n      swap1\n      pop\n      jump\t// out\n        /* \"#utility.yul\":17309:17399   */\n    tag_359:\n        /* \"#utility.yul\":17343:17350   */\n      0x00\n        /* \"#utility.yul\":17386:17391   */\n      dup2\n        /* \"#utility.yul\":17379:17392   */\n      iszero\n        /* \"#utility.yul\":17372:17393   */\n      iszero\n        /* \"#utility.yul\":17361:17393   */\n      swap1\n      pop\n        /* \"#utility.yul\":17309:17399   */\n      swap2\n      swap1\n      pop\n      jump\t// out\n        /* \"#utility.yul\":17405:17531   */\n    tag_497:\n        /* \"#utility.yul\":17442:17449   */\n      0x00\n        /* \"#utility.yul\":17482:17524   */\n      0xffffffffffffffffffffffffffffffffffffffff\n        /* \"#utility.yul\":17475:17480   */\n      dup3\n        /* \"#utility.yul\":17471:17525   */\n      and\n        /* \"#utility.yul\":17460:17525   */\n      swap1\n      pop\n        /* \"#utility.yul\":17405:17531   */\n      swap2\n      swap1\n      pop\n      jump\t// out\n        /* \"#utility.yul\":17537:17614   */\n    tag_416:\n        /* \"#utility.yul\":17574:17581   */\n      0x00\n        /* \"#utility.yul\":17603:17608   */\n      dup2\n        /* \"#utility.yul\":17592:17608   */\n      swap1\n      pop\n        /* \"#utility.yul\":17537:17614   */\n      swap2\n      swap1\n      pop\n      jump\t// out\n        /* \"#utility.yul\":17620:17706   */\n    tag_423:\n        /* \"#utility.yul\":17655:17662   */\n      0x00\n        /* \"#utility.yul\":17695:17699   */\n      0xff\n        /* \"#utility.yul\":17688:17693   */\n      dup3\n        /* \"#utility.yul\":17684:17700   */\n      and\n        /* \"#utility.yul\":17673:17700   */\n      swap1\n      pop\n        /* \"#utility.yul\":17620:17706   */\n      swap2\n      swap1\n      pop\n      jump\t// out\n        /* \"#utility.yul\":17712:17853   */\n    tag_363:\n        /* \"#utility.yul\":17777:17786   */\n      0x00\n        /* \"#utility.yul\":17810:17847   */\n      tag_503\n        /* \"#utility.yul\":17841:17846   */\n      dup3\n        /* \"#utility.yul\":17810:17847   */\n      tag_504\n      jump\t// in\n    tag_503:\n        /* \"#utility.yul\":17797:17847   */\n      swap1\n      pop\n        /* \"#utility.yul\":17712:17853   */\n      swap2\n      swap1\n      pop\n      jump\t// out\n        /* \"#utility.yul\":17859:17985   */\n    tag_504:\n        /* \"#utility.yul\":17909:17918   */\n      0x00\n        /* \"#utility.yul\":17942:17979   */\n      tag_506\n        /* \"#utility.yul\":17973:17978   */\n      dup3\n        /* \"#utility.yul\":17942:17979   */\n      tag_507\n      jump\t// in\n    tag_506:\n        /* \"#utility.yul\":17929:17979   */\n      swap1\n      pop\n        /* \"#utility.yul\":17859:17985   */\n      swap2\n      swap1\n      pop\n      jump\t// out\n        /* \"#utility.yul\":17991:18104   */\n    tag_507:\n        /* \"#utility.yul\":18041:18050   */\n      0x00\n        /* \"#utility.yul\":18074:18098   */\n      tag_509\n        /* \"#utility.yul\":18092:18097   */\n      dup3\n        /* \"#utility.yul\":18074:18098   */\n      tag_497\n      jump\t// in\n    tag_509:\n        /* \"#utility.yul\":18061:18098   */\n      swap1\n      pop\n        /* \"#utility.yul\":17991:18104   */\n      swap2\n      swap1\n      pop\n      jump\t// out\n        /* \"#utility.yul\":18110:18417   */\n    tag_371:\n        /* \"#utility.yul\":18178:18179   */\n      0x00\n        /* \"#utility.yul\":18188:18301   */\n    tag_511:\n        /* \"#utility.yul\":18202:18208   */\n      dup4\n        /* \"#utility.yul\":18199:18200   */\n      dup2\n        /* \"#utility.yul\":18196:18209   */\n      lt\n        /* \"#utility.yul\":18188:18301   */\n      iszero\n      tag_513\n      jumpi\n        /* \"#utility.yul\":18287:18288   */\n      dup1\n        /* \"#utility.yul\":18282:18285   */\n      dup3\n        /* \"#utility.yul\":18278:18289   */\n      add\n        /* \"#utility.yul\":18272:18290   */\n      mload\n        /* \"#utility.yul\":18268:18269   */\n      dup2\n        /* \"#utility.yul\":18263:18266   */\n      dup5\n        /* \"#utility.yul\":18259:18270   */\n      add\n        /* \"#utility.yul\":18252:18291   */\n      mstore\n        /* \"#utility.yul\":18224:18226   */\n      0x20\n        /* \"#utility.yul\":18221:18222   */\n      dup2\n        /* \"#utility.yul\":18217:18227   */\n      add\n        /* \"#utility.yul\":18212:18227   */\n      swap1\n      pop\n        /* \"#utility.yul\":18188:18301   */\n      jump(tag_511)\n    tag_513:\n        /* \"#utility.yul\":18319:18325   */\n      dup4\n        /* \"#utility.yul\":18316:18317   */\n      dup2\n        /* \"#utility.yul\":18313:18326   */\n      gt\n        /* \"#utility.yul\":18310:18411   */\n      iszero\n      tag_514\n      jumpi\n        /* \"#utility.yul\":18399:18400   */\n      0x00\n        /* \"#utility.yul\":18390:18396   */\n      dup5\n        /* \"#utility.yul\":18385:18388   */\n      dup5\n        /* \"#utility.yul\":18381:18397   */\n      add\n        /* \"#utility.yul\":18374:18401   */\n      mstore\n        /* \"#utility.yul\":18310:18411   */\n    tag_514:\n        /* \"#utility.yul\":18159:18417   */\n      pop\n        /* \"#utility.yul\":18110:18417   */\n      pop\n      pop\n      pop\n      jump\t// out\n        /* \"#utility.yul\":18423:18594   */\n    tag_242:\n        /* \"#utility.yul\":18462:18465   */\n      0x00\n        /* \"#utility.yul\":18485:18509   */\n      tag_516\n        /* \"#utility.yul\":18503:18508   */\n      dup3\n        /* \"#utility.yul\":18485:18509   */\n      tag_416\n      jump\t// in\n    tag_516:\n        /* \"#utility.yul\":18476:18509   */\n      swap2\n      pop\n        /* \"#utility.yul\":18531:18535   */\n      0x00\n        /* \"#utility.yul\":18524:18529   */\n      dup3\n        /* \"#utility.yul\":18521:18536   */\n      eq\n        /* \"#utility.yul\":18518:18559   */\n      iszero\n      tag_517\n      jumpi\n        /* \"#utility.yul\":18539:18557   */\n      tag_518\n      tag_478\n      jump\t// in\n    tag_518:\n        /* \"#utility.yul\":18518:18559   */\n    tag_517:\n        /* \"#utility.yul\":18586:18587   */\n      0x01\n        /* \"#utility.yul\":18579:18584   */\n      dup3\n        /* \"#utility.yul\":18575:18588   */\n      sub\n        /* \"#utility.yul\":18568:18588   */\n      swap1\n      pop\n        /* \"#utility.yul\":18423:18594   */\n      swap2\n      swap1\n      pop\n      jump\t// out\n        /* \"#utility.yul\":18600:18920   */\n    tag_151:\n        /* \"#utility.yul\":18644:18650   */\n      0x00\n        /* \"#utility.yul\":18681:18682   */\n      0x02\n        /* \"#utility.yul\":18675:18679   */\n      dup3\n        /* \"#utility.yul\":18671:18683   */\n      div\n        /* \"#utility.yul\":18661:18683   */\n      swap1\n      pop\n        /* \"#utility.yul\":18728:18729   */\n      0x01\n        /* \"#utility.yul\":18722:18726   */\n      dup3\n        /* \"#utility.yul\":18718:18730   */\n      and\n        /* \"#utility.yul\":18749:18767   */\n      dup1\n        /* \"#utility.yul\":18739:18820   */\n      tag_520\n      jumpi\n        /* \"#utility.yul\":18805:18809   */\n      0x7f\n        /* \"#utility.yul\":18797:18803   */\n      dup3\n        /* \"#utility.yul\":18793:18810   */\n      and\n        /* \"#utility.yul\":18783:18810   */\n      swap2\n      pop\n        /* \"#utility.yul\":18739:18820   */\n    tag_520:\n        /* \"#utility.yul\":18867:18869   */\n      0x20\n        /* \"#utility.yul\":18859:18865   */\n      dup3\n        /* \"#utility.yul\":18856:18870   */\n      lt\n        /* \"#utility.yul\":18836:18854   */\n      dup2\n        /* \"#utility.yul\":18833:18871   */\n      eq\n        /* \"#utility.yul\":18830:18914   */\n      iszero\n      tag_521\n      jumpi\n        /* \"#utility.yul\":18886:18904   */\n      tag_522\n      tag_523\n      jump\t// in\n    tag_522:\n        /* \"#utility.yul\":18830:18914   */\n    tag_521:\n        /* \"#utility.yul\":18651:18920   */\n      pop\n        /* \"#utility.yul\":18600:18920   */\n      swap2\n      swap1\n      pop\n      jump\t// out\n        /* \"#utility.yul\":18926:19159   */\n    tag_149:\n        /* \"#utility.yul\":18965:18968   */\n      0x00\n        /* \"#utility.yul\":18988:19012   */\n      tag_525\n        /* \"#utility.yul\":19006:19011   */\n      dup3\n        /* \"#utility.yul\":18988:19012   */\n      tag_416\n      jump\t// in\n    tag_525:\n        /* \"#utility.yul\":18979:19012   */\n      swap2\n      pop\n        /* \"#utility.yul\":19034:19100   */\n      0xffffffffffffffffffffffffffffffffffffffffffffffffffffffffffffffff\n        /* \"#utility.yul\":19027:19032   */\n      dup3\n        /* \"#utility.yul\":19024:19101   */\n      eq\n        /* \"#utility.yul\":19021:19124   */\n      iszero\n      tag_526\n      jumpi\n        /* \"#utility.yul\":19104:19122   */\n      tag_527\n      tag_478\n      jump\t// in\n    tag_527:\n        /* \"#utility.yul\":19021:19124   */\n    tag_526:\n        /* \"#utility.yul\":19151:19152   */\n      0x01\n        /* \"#utility.yul\":19144:19149   */\n      dup3\n        /* \"#utility.yul\":19140:19153   */\n      add\n        /* \"#utility.yul\":19133:19153   */\n      swap1\n      pop\n        /* \"#utility.yul\":18926:19159   */\n      swap2\n      swap1\n      pop\n      jump\t// out\n        /* \"#utility.yul\":19165:19345   */\n    tag_478:\n        /* \"#utility.yul\":19213:19290   */\n      0x4e487b7100000000000000000000000000000000000000000000000000000000\n        /* \"#utility.yul\":19210:19211   */\n      0x00\n        /* \"#utility.yul\":19203:19291   */\n      mstore\n        /* \"#utility.yul\":19310:19314   */\n      0x11\n        /* \"#utility.yul\":19307:19308   */\n      0x04\n        /* \"#utility.yul\":19300:19315   */\n      mstore\n        /* \"#utility.yul\":19334:19338   */\n      0x24\n        /* \"#utility.yul\":19331:19332   */\n      0x00\n        /* \"#utility.yul\":19324:19339   */\n      revert\n        /* \"#utility.yul\":19351:19531   */\n    tag_484:\n        /* \"#utility.yul\":19399:19476   */\n      0x4e487b7100000000000000000000000000000000000000000000000000000000\n        /* \"#utility.yul\":19396:19397   */\n      0x00\n        /* \"#utility.yul\":19389:19477   */\n      mstore\n        /* \"#utility.yul\":19496:19500   */\n      0x12\n        /* \"#utility.yul\":19493:19494   */\n      0x04\n        /* \"#utility.yul\":19486:19501   */\n      mstore\n        /* \"#utility.yul\":19520:19524   */\n      0x24\n        /* \"#utility.yul\":19517:19518   */\n      0x00\n        /* \"#utility.yul\":19510:19525   */\n      revert\n        /* \"#utility.yul\":19537:19717   */\n    tag_523:\n        /* \"#utility.yul\":19585:19662   */\n      0x4e487b7100000000000000000000000000000000000000000000000000000000\n        /* \"#utility.yul\":19582:19583   */\n      0x00\n        /* \"#utility.yul\":19575:19663   */\n      mstore\n        /* \"#utility.yul\":19682:19686   */\n      0x22\n        /* \"#utility.yul\":19679:19680   */\n      0x04\n        /* \"#utility.yul\":19672:19687   */\n      mstore\n        /* \"#utility.yul\":19706:19710   */\n      0x24\n        /* \"#utility.yul\":19703:19704   */\n      0x00\n        /* \"#utility.yul\":19696:19711   */\n      revert\n        /* \"#utility.yul\":19723:19903   */\n    tag_131:\n        /* \"#utility.yul\":19771:19848   */\n      0x4e487b7100000000000000000000000000000000000000000000000000000000\n        /* \"#utility.yul\":19768:19769   */\n      0x00\n        /* \"#utility.yul\":19761:19849   */\n      mstore\n        /* \"#utility.yul\":19868:19872   */\n      0x32\n        /* \"#utility.yul\":19865:19866   */\n      0x04\n        /* \"#utility.yul\":19858:19873   */\n      mstore\n        /* \"#utility.yul\":19892:19896   */\n      0x24\n        /* \"#utility.yul\":19889:19890   */\n      0x00\n        /* \"#utility.yul\":19882:19897   */\n      revert\n        /* \"#utility.yul\":20032:20149   */\n    tag_302:\n        /* \"#utility.yul\":20141:20142   */\n      0x00\n        /* \"#utility.yul\":20138:20139   */\n      dup1\n        /* \"#utility.yul\":20131:20143   */\n      revert\n        /* \"#utility.yul\":20155:20257   */\n    tag_373:\n        /* \"#utility.yul\":20196:20202   */\n      0x00\n        /* \"#utility.yul\":20247:20249   */\n      0x1f\n        /* \"#utility.yul\":20243:20250   */\n      not\n        /* \"#utility.yul\":20238:20240   */\n      0x1f\n        /* \"#utility.yul\":20231:20236   */\n      dup4\n        /* \"#utility.yul\":20227:20241   */\n      add\n        /* \"#utility.yul\":20223:20251   */\n      and\n        /* \"#utility.yul\":20213:20251   */\n      swap1\n      pop\n        /* \"#utility.yul\":20155:20257   */\n      swap2\n      swap1\n      pop\n      jump\t// out\n        /* \"#utility.yul\":20263:20438   */\n    tag_378:\n        /* \"#utility.yul\":20403:20430   */\n      0x4f6e6c79206f776e65722063616e2063616c6c20746869732e00000000000000\n        /* \"#utility.yul\":20399:20400   */\n      0x00\n        /* \"#utility.yul\":20391:20397   */\n      dup3\n        /* \"#utility.yul\":20387:20401   */\n      add\n        /* \"#utility.yul\":20380:20431   */\n      mstore\n        /* \"#utility.yul\":20263:20438   */\n      pop\n      jump\t// out\n        /* \"#utility.yul\":20444:20622   */\n    tag_383:\n        /* \"#utility.yul\":20584:20614   */\n      0x7472616e7366657220746f20666f756e646174696f6e20666c61736500000000\n        /* \"#utility.yul\":20580:20581   */\n      0x00\n        /* \"#utility.yul\":20572:20578   */\n      dup3\n        /* \"#utility.yul\":20568:20582   */\n      add\n        /* \"#utility.yul\":20561:20615   */\n      mstore\n        /* \"#utility.yul\":20444:20622   */\n      pop\n      jump\t// out\n        /* \"#utility.yul\":20628:20808   */\n    tag_388:\n        /* \"#utility.yul\":20768:20800   */\n      0x536166654d6174683a207375627472616374696f6e206f766572666c6f770000\n        /* \"#utility.yul\":20764:20765   */\n      0x00\n        /* \"#utility.yul\":20756:20762   */\n      dup3\n        /* \"#utility.yul\":20752:20766   */\n      add\n        /* \"#utility.yul\":20745:20801   */\n      mstore\n        /* \"#utility.yul\":20628:20808   */\n      pop\n      jump\t// out\n        /* \"#utility.yul\":20814:20986   */\n    tag_393:\n        /* \"#utility.yul\":20954:20978   */\n      0x596f7520646f6e2774206f776e2074686973204e465400000000000000000000\n        /* \"#utility.yul\":20950:20951   */\n      0x00\n        /* \"#utility.yul\":20942:20948   */\n      dup3\n        /* \"#utility.yul\":20938:20952   */\n      add\n        /* \"#utility.yul\":20931:20979   */\n      mstore\n        /* \"#utility.yul\":20814:20986   */\n      pop\n      jump\t// out\n        /* \"#utility.yul\":20992:21160   */\n    tag_398:\n        /* \"#utility.yul\":21132:21152   */\n      0x496e73756666696369656e742066756e64730000000000000000000000000000\n        /* \"#utility.yul\":21128:21129   */\n      0x00\n        /* \"#utility.yul\":21120:21126   */\n      dup3\n        /* \"#utility.yul\":21116:21130   */\n      add\n        /* \"#utility.yul\":21109:21153   */\n      mstore\n        /* \"#utility.yul\":20992:21160   */\n      pop\n      jump\t// out\n        /* \"#utility.yul\":21166:21341   */\n    tag_403:\n        /* \"#utility.yul\":21306:21333   */\n      0x596f7520616c7265616479206861766520776974686472617700000000000000\n        /* \"#utility.yul\":21302:21303   */\n      0x00\n        /* \"#utility.yul\":21294:21300   */\n      dup3\n        /* \"#utility.yul\":21290:21304   */\n      add\n        /* \"#utility.yul\":21283:21334   */\n      mstore\n        /* \"#utility.yul\":21166:21341   */\n      pop\n      jump\t// out\n        /* \"#utility.yul\":21347:21524   */\n    tag_408:\n        /* \"#utility.yul\":21487:21516   */\n      0x74686973206164647265737320686173206265656e20626f756e640000000000\n        /* \"#utility.yul\":21483:21484   */\n      0x00\n        /* \"#utility.yul\":21475:21481   */\n      dup3\n        /* \"#utility.yul\":21471:21485   */\n      add\n        /* \"#utility.yul\":21464:21517   */\n      mstore\n        /* \"#utility.yul\":21347:21524   */\n      pop\n      jump\t// out\n        /* \"#utility.yul\":21530:21706   */\n    tag_413:\n        /* \"#utility.yul\":21670:21698   */\n      0x536166654d6174683a6469766973696f6e206f766572666c6f77000000000000\n        /* \"#utility.yul\":21666:21667   */\n      0x00\n        /* \"#utility.yul\":21658:21664   */\n      dup3\n        /* \"#utility.yul\":21654:21668   */\n      add\n        /* \"#utility.yul\":21647:21699   */\n      mstore\n        /* \"#utility.yul\":21530:21706   */\n      pop\n      jump\t// out\n        /* \"#utility.yul\":21712:21834   */\n    tag_291:\n        /* \"#utility.yul\":21785:21809   */\n      tag_545\n        /* \"#utility.yul\":21803:21808   */\n      dup2\n        /* \"#utility.yul\":21785:21809   */\n      tag_341\n      jump\t// in\n    tag_545:\n        /* \"#utility.yul\":21778:21783   */\n      dup2\n        /* \"#utility.yul\":21775:21810   */\n      eq\n        /* \"#utility.yul\":21765:21828   */\n      tag_546\n      jumpi\n        /* \"#utility.yul\":21824:21825   */\n      0x00\n        /* \"#utility.yul\":21821:21822   */\n      dup1\n        /* \"#utility.yul\":21814:21826   */\n      revert\n        /* \"#utility.yul\":21765:21828   */\n    tag_546:\n        /* \"#utility.yul\":21712:21834   */\n      pop\n      jump\t// out\n        /* \"#utility.yul\":21840:21962   */\n    tag_298:\n        /* \"#utility.yul\":21913:21937   */\n      tag_548\n        /* \"#utility.yul\":21931:21936   */\n      dup2\n        /* \"#utility.yul\":21913:21937   */\n      tag_416\n      jump\t// in\n    tag_548:\n        /* \"#utility.yul\":21906:21911   */\n      dup2\n        /* \"#utility.yul\":21903:21938   */\n      eq\n        /* \"#utility.yul\":21893:21956   */\n      tag_549\n      jumpi\n        /* \"#utility.yul\":21952:21953   */\n      0x00\n        /* \"#utility.yul\":21949:21950   */\n      dup1\n        /* \"#utility.yul\":21942:21954   */\n      revert\n        /* \"#utility.yul\":21893:21956   */\n    tag_549:\n        /* \"#utility.yul\":21840:21962   */\n      pop\n      jump\t// out\n\n    auxdata: 0xa264697066735822122082d66697b48063c858aa2d700bdff37a4bf5d0cfa1528e3d16937cbdf08ede9b64736f6c63430008070033\n}\n",
				"bytecode": {
					"linkReferences": {},
					"object": "60806040526004600260006101000a81548160ff021916908360ff1602179055506402540be4006003553480156200003657600080fd5b5060405162002f1b38038062002f1b83398181016040528101906200005c919062000318565b6000600260009054906101000a900460ff1660ff16600a6200007f91906200042c565b6003546200008e919062000569565b905080600460008673ffffffffffffffffffffffffffffffffffffffff1673ffffffffffffffffffffffffffffffffffffffff1681526020019081526020016000206000828254620000e1919062000374565b9250508190555081600760006101000a81548173ffffffffffffffffffffffffffffffffffffffff021916908373ffffffffffffffffffffffffffffffffffffffff1602179055506040518060400160405280600481526020017f4f4e454500000000000000000000000000000000000000000000000000000000815250600090805190602001906200017692919062000251565b506040518060400160405280600481526020017f4f4e45450000000000000000000000000000000000000000000000000000000081525060019080519060200190620001c492919062000251565b5083600960006101000a81548173ffffffffffffffffffffffffffffffffffffffff021916908373ffffffffffffffffffffffffffffffffffffffff16021790555082600d60006101000a81548173ffffffffffffffffffffffffffffffffffffffff021916908373ffffffffffffffffffffffffffffffffffffffff16021790555050505050620006c8565b8280546200025f9062000608565b90600052602060002090601f016020900481019282620002835760008555620002cf565b82601f106200029e57805160ff1916838001178555620002cf565b82800160010185558215620002cf579182015b82811115620002ce578251825591602001919060010190620002b1565b5b509050620002de9190620002e2565b5090565b5b80821115620002fd576000816000905550600101620002e3565b5090565b6000815190506200031281620006ae565b92915050565b6000806000606084860312156200033457620003336200069c565b5b6000620003448682870162000301565b9350506020620003578682870162000301565b92505060406200036a8682870162000301565b9150509250925092565b60006200038182620005fe565b91506200038e83620005fe565b9250827fffffffffffffffffffffffffffffffffffffffffffffffffffffffffffffffff03821115620003c657620003c56200063e565b5b828201905092915050565b6000808291508390505b60018511156200042357808604811115620003fb57620003fa6200063e565b5b60018516156200040b5780820291505b80810290506200041b85620006a1565b9450620003db565b94509492505050565b60006200043982620005fe565b91506200044683620005fe565b9250620004757fffffffffffffffffffffffffffffffffffffffffffffffffffffffffffffffff84846200047d565b905092915050565b6000826200048f576001905062000562565b816200049f576000905062000562565b8160018114620004b85760028114620004c357620004f9565b600191505062000562565b60ff841115620004d857620004d76200063e565b5b8360020a915084821115620004f257620004f16200063e565b5b5062000562565b5060208310610133831016604e8410600b8410161715620005335782820a9050838111156200052d576200052c6200063e565b5b62000562565b620005428484846001620003d1565b925090508184048111156200055c576200055b6200063e565b5b81810290505b9392505050565b60006200057682620005fe565b91506200058383620005fe565b9250817fffffffffffffffffffffffffffffffffffffffffffffffffffffffffffffffff0483118215151615620005bf57620005be6200063e565b5b828202905092915050565b6000620005d782620005de565b9050919050565b600073ffffffffffffffffffffffffffffffffffffffff82169050919050565b6000819050919050565b600060028204905060018216806200062157607f821691505b602082108114156200063857620006376200066d565b5b50919050565b7f4e487b7100000000000000000000000000000000000000000000000000000000600052601160045260246000fd5b7f4e487b7100000000000000000000000000000000000000000000000000000000600052602260045260246000fd5b600080fd5b60008160011c9050919050565b620006b981620005ca565b8114620006c557600080fd5b50565b61284380620006d86000396000f3fe6080604052600436106101145760003560e01c806370a08231116100a0578063b369ecd711610064578063b369ecd7146103dc578063d56d229d14610419578063dd62ed3e14610444578063e91a7ca614610481578063ffc49f381461049d57610114565b806370a08231146102da5780638951cf591461031757806395d89b411461034257806398c61c371461036d578063a9059cbb146103ac57610114565b806323b872dd116100e757806323b872dd146101c8578063313ce567146101f857806348828ec0146102235780634fe7abba146102605780636352211e1461029d57610114565b8063023245d71461011957806306fdde0314610135578063095ea7b31461016057806318160ddd1461019d575b600080fd5b610133600480360381019061012e9190611df5565b6104da565b005b34801561014157600080fd5b5061014a610839565b6040516101579190612169565b60405180910390f35b34801561016c57600080fd5b5061018760048036038101906101829190611db5565b6108c7565b6040516101949190612133565b60405180910390f35b3480156101a957600080fd5b506101b2610a22565b6040516101bf919061228b565b60405180910390f35b6101e260048036038101906101dd9190611d62565b610a28565b6040516101ef9190612133565b60405180910390f35b34801561020457600080fd5b5061020d610ad7565b60405161021a91906122dd565b60405180910390f35b34801561022f57600080fd5b5061024a60048036038101906102459190611cc8565b610aea565b6040516102579190612133565b60405180910390f35b34801561026c57600080fd5b5061028760048036038101906102829190611e22565b610bcf565b6040516102949190612111565b60405180910390f35b3480156102a957600080fd5b506102c460048036038101906102bf9190611df5565b610de2565b6040516102d19190612096565b60405180910390f35b3480156102e657600080fd5b5061030160048036038101906102fc9190611cc8565b610ef9565b60405161030e919061228b565b60405180910390f35b34801561032357600080fd5b5061032c610f42565b604051610339919061228b565b60405180910390f35b34801561034e57600080fd5b50610357610f4c565b6040516103649190612169565b60405180910390f35b34801561037957600080fd5b50610394600480360381019061038f9190611db5565b610fda565b6040516103a3939291906122a6565b60405180910390f35b6103c660048036038101906103c19190611db5565b611021565b6040516103d39190612133565b60405180910390f35b3480156103e857600080fd5b5061040360048036038101906103fe9190611cc8565b6110cd565b604051610410919061228b565b60405180910390f35b34801561042557600080fd5b5061042e6110e5565b60405161043b919061214e565b60405180910390f35b34801561045057600080fd5b5061046b60048036038101906104669190611d22565b61110b565b604051610478919061228b565b60405180910390f35b61049b60048036038101906104969190611df5565b611192565b005b3480156104a957600080fd5b506104c460048036038101906104bf9190611cc8565b611310565b6040516104d1919061228b565b60405180910390f35b600960009054906101000a900473ffffffffffffffffffffffffffffffffffffffff1673ffffffffffffffffffffffffffffffffffffffff163373ffffffffffffffffffffffffffffffffffffffff161461056a576040517f08c379a00000000000000000000000000000000000000000000000000000000081526004016105619061218b565b60405180910390fd5b600d60009054906101000a900473ffffffffffffffffffffffffffffffffffffffff16600a60006101000a81548173ffffffffffffffffffffffffffffffffffffffff021916908373ffffffffffffffffffffffffffffffffffffffff1602179055506000600c60003373ffffffffffffffffffffffffffffffffffffffff1673ffffffffffffffffffffffffffffffffffffffff16815260200190815260200160002054905060005b818110156108345782600b60003373ffffffffffffffffffffffffffffffffffffffff1673ffffffffffffffffffffffffffffffffffffffff168152602001908152602001600020828154811061066e5761066d612652565b5b9060005260206000209060030201600001541415610823576001600b60003373ffffffffffffffffffffffffffffffffffffffff1673ffffffffffffffffffffffffffffffffffffffff16815260200190815260200160002082815481106106d9576106d8612652565b5b9060005260206000209060030201600201541461072b576040517f08c379a00000000000000000000000000000000000000000000000000000000081526004016107229061222b565b60405180910390fd5b6000600b60003373ffffffffffffffffffffffffffffffffffffffff1673ffffffffffffffffffffffffffffffffffffffff168152602001908152602001600020848154811061077e5761077d612652565b5b906000526020600020906003020160020181905550600a60009054906101000a900473ffffffffffffffffffffffffffffffffffffffff1673ffffffffffffffffffffffffffffffffffffffff1663095ea7b333856040518363ffffffff1660e01b81526004016107f09291906120e8565b600060405180830381600087803b15801561080a57600080fd5b505af115801561081e573d6000803e3d6000fd5b505050505b8061082d9061257c565b9050610614565b505050565b600080546108469061254a565b80601f01602080910402602001604051908101604052809291908181526020018280546108729061254a565b80156108bf5780601f10610894576101008083540402835291602001916108bf565b820191906000526020600020905b8154815290600101906020018083116108a257829003601f168201915b505050505081565b60008082148061095357506000600560003373ffffffffffffffffffffffffffffffffffffffff1673ffffffffffffffffffffffffffffffffffffffff16815260200190815260200160002060008573ffffffffffffffffffffffffffffffffffffffff1673ffffffffffffffffffffffffffffffffffffffff16815260200190815260200160002054145b61095c57600080fd5b81600560003373ffffffffffffffffffffffffffffffffffffffff1673ffffffffffffffffffffffffffffffffffffffff16815260200190815260200160002060008573ffffffffffffffffffffffffffffffffffffffff1673ffffffffffffffffffffffffffffffffffffffff168152602001908152602001600020819055507f8c5be1e5ebec7d5bd14f71427d1e84f3dd0314c0f7b2291e5b200ac8c7c3b925338484604051610a10939291906120b1565b60405180910390a16001905092915050565b60035481565b600080610a4b6064600085610a3d91906123d4565b6113f590919063ffffffff16565b90506000610a7e86600760009054906101000a900473ffffffffffffffffffffffffffffffffffffffff16846000611453565b905080610ac0576040517f08c379a0000000000000000000000000000000000000000000000000000000008152600401610ab7906121ab565b60405180910390fd5b610acc86868685611453565b925050509392505050565b600260009054906101000a900460ff1681565b60008073ffffffffffffffffffffffffffffffffffffffff16600860003373ffffffffffffffffffffffffffffffffffffffff1673ffffffffffffffffffffffffffffffffffffffff16815260200190815260200160002060020160009054906101000a900473ffffffffffffffffffffffffffffffffffffffff1673ffffffffffffffffffffffffffffffffffffffff1614610bbc576040517f08c379a0000000000000000000000000000000000000000000000000000000008152600401610bb39061224b565b60405180910390fd5b610bc63383611840565b60019050919050565b6060600d60009054906101000a900473ffffffffffffffffffffffffffffffffffffffff16600a60006101000a81548173ffffffffffffffffffffffffffffffffffffffff021916908373ffffffffffffffffffffffffffffffffffffffff1602179055506000600c60008473ffffffffffffffffffffffffffffffffffffffff1673ffffffffffffffffffffffffffffffffffffffff1681526020019081526020016000205490506000606060005b83811015610dd3576001600b60008873ffffffffffffffffffffffffffffffffffffffff1673ffffffffffffffffffffffffffffffffffffffff1681526020019081526020016000208281548110610cda57610cd9612652565b5b9060005260206000209060030201600201541415610dc257878310158015610d0c57508688610d09919061234d565b83105b15610da257600b60008773ffffffffffffffffffffffffffffffffffffffff1673ffffffffffffffffffffffffffffffffffffffff1681526020019081526020016000208181548110610d6257610d61612652565b5b906000526020600020906003020160000154828481518110610d8757610d86612652565b5b6020026020010181815250508280610d9e9061257c565b9350505b8688610dae919061234d565b831115610dc15781945050505050610ddb565b5b80610dcc9061257c565b9050610c7f565b508093505050505b9392505050565b6000600d60009054906101000a900473ffffffffffffffffffffffffffffffffffffffff16600a60006101000a81548173ffffffffffffffffffffffffffffffffffffffff021916908373ffffffffffffffffffffffffffffffffffffffff160217905550600a60009054906101000a900473ffffffffffffffffffffffffffffffffffffffff1673ffffffffffffffffffffffffffffffffffffffff16636352211e836040518263ffffffff1660e01b8152600401610ea2919061228b565b60206040518083038186803b158015610eba57600080fd5b505afa158015610ece573d6000803e3d6000fd5b505050506040513d601f19601f82011682018060405250810190610ef29190611cf5565b9050919050565b6000600460008373ffffffffffffffffffffffffffffffffffffffff1673ffffffffffffffffffffffffffffffffffffffff168152602001908152602001600020549050919050565b6000600354905090565b60018054610f599061254a565b80601f0160208091040260200160405190810160405280929190818152602001828054610f859061254a565b8015610fd25780601f10610fa757610100808354040283529160200191610fd2565b820191906000526020600020905b815481529060010190602001808311610fb557829003601f168201915b505050505081565b600b6020528160005260406000208181548110610ff657600080fd5b9060005260206000209060030201600091509150508060000154908060010154908060020154905083565b600080611044606460008561103691906123d4565b6113f590919063ffffffff16565b90506000611076600760009054906101000a900473ffffffffffffffffffffffffffffffffffffffff168360006118c5565b9050806110b8576040517f08c379a00000000000000000000000000000000000000000000000000000000081526004016110af906121ab565b60405180910390fd5b6110c38585846118c5565b9250505092915050565b600c6020528060005260406000206000915090505481565b600a60009054906101000a900473ffffffffffffffffffffffffffffffffffffffff1681565b6000600560008473ffffffffffffffffffffffffffffffffffffffff1673ffffffffffffffffffffffffffffffffffffffff16815260200190815260200160002060008373ffffffffffffffffffffffffffffffffffffffff1673ffffffffffffffffffffffffffffffffffffffff16815260200190815260200160002054905092915050565b600d60009054906101000a900473ffffffffffffffffffffffffffffffffffffffff16600a60006101000a81548173ffffffffffffffffffffffffffffffffffffffff021916908373ffffffffffffffffffffffffffffffffffffffff1602179055503373ffffffffffffffffffffffffffffffffffffffff16600a60009054906101000a900473ffffffffffffffffffffffffffffffffffffffff1673ffffffffffffffffffffffffffffffffffffffff16636352211e836040518263ffffffff1660e01b8152600401611267919061228b565b60206040518083038186803b15801561127f57600080fd5b505afa158015611293573d6000803e3d6000fd5b505050506040513d601f19601f820116820180604052508101906112b79190611cf5565b73ffffffffffffffffffffffffffffffffffffffff161461130d576040517f08c379a0000000000000000000000000000000000000000000000000000000008152600401611304906121eb565b60405180910390fd5b50565b600080600c60008473ffffffffffffffffffffffffffffffffffffffff1673ffffffffffffffffffffffffffffffffffffffff16815260200190815260200160002054905060005b818110156113eb576000600b60008673ffffffffffffffffffffffffffffffffffffffff1673ffffffffffffffffffffffffffffffffffffffff16815260200190815260200160002082815481106113b3576113b2612652565b5b90600052602060002090600302016002015414156113da5781806113d690612520565b9250505b806113e49061257c565b9050611358565b5080915050919050565b6000808211611439576040517f08c379a00000000000000000000000000000000000000000000000000000000081526004016114309061226b565b60405180910390fd5b6000828461144791906123a3565b90508091505092915050565b600082600460008773ffffffffffffffffffffffffffffffffffffffff1673ffffffffffffffffffffffffffffffffffffffff1681526020019081526020016000205410158015611520575082600560008773ffffffffffffffffffffffffffffffffffffffff1673ffffffffffffffffffffffffffffffffffffffff16815260200190815260200160002060003373ffffffffffffffffffffffffffffffffffffffff1673ffffffffffffffffffffffffffffffffffffffff1681526020019081526020016000205410155b61155f576040517f08c379a00000000000000000000000000000000000000000000000000000000081526004016115569061220b565b60405180910390fd5b82600860008773ffffffffffffffffffffffffffffffffffffffff1673ffffffffffffffffffffffffffffffffffffffff1681526020019081526020016000206001015410156115e4576040517f08c379a00000000000000000000000000000000000000000000000000000000081526004016115db9061220b565b60405180910390fd5b82600460008773ffffffffffffffffffffffffffffffffffffffff1673ffffffffffffffffffffffffffffffffffffffff1681526020019081526020016000206000828254611633919061242e565b9250508190555082600860008773ffffffffffffffffffffffffffffffffffffffff1673ffffffffffffffffffffffffffffffffffffffff168152602001908152602001600020600101600082825461168c919061242e565b925050819055506116a68284611c2a90919063ffffffff16565b600460008673ffffffffffffffffffffffffffffffffffffffff1673ffffffffffffffffffffffffffffffffffffffff16815260200190815260200160002060008282546116f4919061234d565b9250508190555061170e8284611c2a90919063ffffffff16565b600860008673ffffffffffffffffffffffffffffffffffffffff1673ffffffffffffffffffffffffffffffffffffffff168152602001908152602001600020600101600082825461175f919061234d565b9250508190555082600560008773ffffffffffffffffffffffffffffffffffffffff1673ffffffffffffffffffffffffffffffffffffffff16815260200190815260200160002060003373ffffffffffffffffffffffffffffffffffffffff1673ffffffffffffffffffffffffffffffffffffffff16815260200190815260200160002060008282546117f2919061242e565b925050819055507fddf252ad1be2c89b69c2b068fc378daa952ba7f163c4a11628f55a4df523b3ef85858560405161182c939291906120b1565b60405180910390a160019050949350505050565b80600860008473ffffffffffffffffffffffffffffffffffffffff1673ffffffffffffffffffffffffffffffffffffffff16815260200190815260200160002060020160006101000a81548173ffffffffffffffffffffffffffffffffffffffff021916908373ffffffffffffffffffffffffffffffffffffffff1602179055505050565b600082600460003373ffffffffffffffffffffffffffffffffffffffff1673ffffffffffffffffffffffffffffffffffffffff168152602001908152602001600020541015801561199e5750600460008573ffffffffffffffffffffffffffffffffffffffff1673ffffffffffffffffffffffffffffffffffffffff1681526020019081526020016000205483600460008773ffffffffffffffffffffffffffffffffffffffff1673ffffffffffffffffffffffffffffffffffffffff1681526020019081526020016000205461199c919061234d565b115b6119dd576040517f08c379a00000000000000000000000000000000000000000000000000000000081526004016119d49061220b565b60405180910390fd5b82600860003373ffffffffffffffffffffffffffffffffffffffff1673ffffffffffffffffffffffffffffffffffffffff168152602001908152602001600020600101541015611a62576040517f08c379a0000000000000000000000000000000000000000000000000000000008152600401611a599061220b565b60405180910390fd5b82600460003373ffffffffffffffffffffffffffffffffffffffff1673ffffffffffffffffffffffffffffffffffffffff1681526020019081526020016000206000828254611ab1919061242e565b9250508190555082600860003373ffffffffffffffffffffffffffffffffffffffff1673ffffffffffffffffffffffffffffffffffffffff1681526020019081526020016000206001016000828254611b0a919061242e565b92505081905550611b248284611c2a90919063ffffffff16565b600460008673ffffffffffffffffffffffffffffffffffffffff1673ffffffffffffffffffffffffffffffffffffffff1681526020019081526020016000206000828254611b72919061234d565b92505081905550611b8c8284611c2a90919063ffffffff16565b600860008673ffffffffffffffffffffffffffffffffffffffff1673ffffffffffffffffffffffffffffffffffffffff1681526020019081526020016000206001016000828254611bdd919061234d565b925050819055507fddf252ad1be2c89b69c2b068fc378daa952ba7f163c4a11628f55a4df523b3ef338585604051611c17939291906120b1565b60405180910390a1600190509392505050565b600082821115611c6f576040517f08c379a0000000000000000000000000000000000000000000000000000000008152600401611c66906121cb565b60405180910390fd5b60008284611c7d919061242e565b90508091505092915050565b600081359050611c98816127df565b92915050565b600081519050611cad816127df565b92915050565b600081359050611cc2816127f6565b92915050565b600060208284031215611cde57611cdd612681565b5b6000611cec84828501611c89565b91505092915050565b600060208284031215611d0b57611d0a612681565b5b6000611d1984828501611c9e565b91505092915050565b60008060408385031215611d3957611d38612681565b5b6000611d4785828601611c89565b9250506020611d5885828601611c89565b9150509250929050565b600080600060608486031215611d7b57611d7a612681565b5b6000611d8986828701611c89565b9350506020611d9a86828701611c89565b9250506040611dab86828701611cb3565b9150509250925092565b60008060408385031215611dcc57611dcb612681565b5b6000611dda85828601611c89565b9250506020611deb85828601611cb3565b9150509250929050565b600060208284031215611e0b57611e0a612681565b5b6000611e1984828501611cb3565b91505092915050565b600080600060608486031215611e3b57611e3a612681565b5b6000611e4986828701611cb3565b9350506020611e5a86828701611cb3565b9250506040611e6b86828701611c89565b9150509250925092565b6000611e818383612069565b60208301905092915050565b611e9681612462565b82525050565b6000611ea782612308565b611eb1818561232b565b9350611ebc836122f8565b8060005b83811015611eed578151611ed48882611e75565b9750611edf8361231e565b925050600181019050611ec0565b5085935050505092915050565b611f0381612474565b82525050565b611f12816124b7565b82525050565b6000611f2382612313565b611f2d818561233c565b9350611f3d8185602086016124ed565b611f4681612686565b840191505092915050565b6000611f5e60198361233c565b9150611f6982612697565b602082019050919050565b6000611f81601c8361233c565b9150611f8c826126c0565b602082019050919050565b6000611fa4601e8361233c565b9150611faf826126e9565b602082019050919050565b6000611fc760168361233c565b9150611fd282612712565b602082019050919050565b6000611fea60128361233c565b9150611ff58261273b565b602082019050919050565b600061200d60198361233c565b915061201882612764565b602082019050919050565b6000612030601b8361233c565b915061203b8261278d565b602082019050919050565b6000612053601a8361233c565b915061205e826127b6565b602082019050919050565b612072816124a0565b82525050565b612081816124a0565b82525050565b612090816124aa565b82525050565b60006020820190506120ab6000830184611e8d565b92915050565b60006060820190506120c66000830186611e8d565b6120d36020830185611e8d565b6120e06040830184612078565b949350505050565b60006040820190506120fd6000830185611e8d565b61210a6020830184612078565b9392505050565b6000602082019050818103600083015261212b8184611e9c565b905092915050565b60006020820190506121486000830184611efa565b92915050565b60006020820190506121636000830184611f09565b92915050565b600060208201905081810360008301526121838184611f18565b905092915050565b600060208201905081810360008301526121a481611f51565b9050919050565b600060208201905081810360008301526121c481611f74565b9050919050565b600060208201905081810360008301526121e481611f97565b9050919050565b6000602082019050818103600083015261220481611fba565b9050919050565b6000602082019050818103600083015261222481611fdd565b9050919050565b6000602082019050818103600083015261224481612000565b9050919050565b6000602082019050818103600083015261226481612023565b9050919050565b6000602082019050818103600083015261228481612046565b9050919050565b60006020820190506122a06000830184612078565b92915050565b60006060820190506122bb6000830186612078565b6122c86020830185612078565b6122d56040830184612078565b949350505050565b60006020820190506122f26000830184612087565b92915050565b6000819050602082019050919050565b600081519050919050565b600081519050919050565b6000602082019050919050565b600082825260208201905092915050565b600082825260208201905092915050565b6000612358826124a0565b9150612363836124a0565b9250827fffffffffffffffffffffffffffffffffffffffffffffffffffffffffffffffff03821115612398576123976125c5565b5b828201905092915050565b60006123ae826124a0565b91506123b9836124a0565b9250826123c9576123c86125f4565b5b828204905092915050565b60006123df826124a0565b91506123ea836124a0565b9250817fffffffffffffffffffffffffffffffffffffffffffffffffffffffffffffffff0483118215151615612423576124226125c5565b5b828202905092915050565b6000612439826124a0565b9150612444836124a0565b925082821015612457576124566125c5565b5b828203905092915050565b600061246d82612480565b9050919050565b60008115159050919050565b600073ffffffffffffffffffffffffffffffffffffffff82169050919050565b6000819050919050565b600060ff82169050919050565b60006124c2826124c9565b9050919050565b60006124d4826124db565b9050919050565b60006124e682612480565b9050919050565b60005b8381101561250b5780820151818401526020810190506124f0565b8381111561251a576000848401525b50505050565b600061252b826124a0565b9150600082141561253f5761253e6125c5565b5b600182039050919050565b6000600282049050600182168061256257607f821691505b6020821081141561257657612575612623565b5b50919050565b6000612587826124a0565b91507fffffffffffffffffffffffffffffffffffffffffffffffffffffffffffffffff8214156125ba576125b96125c5565b5b600182019050919050565b7f4e487b7100000000000000000000000000000000000000000000000000000000600052601160045260246000fd5b7f4e487b7100000000000000000000000000000000000000000000000000000000600052601260045260246000fd5b7f4e487b7100000000000000000000000000000000000000000000000000000000600052602260045260246000fd5b7f4e487b7100000000000000000000000000000000000000000000000000000000600052603260045260246000fd5b600080fd5b6000601f19601f8301169050919050565b7f4f6e6c79206f776e65722063616e2063616c6c20746869732e00000000000000600082015250565b7f7472616e7366657220746f20666f756e646174696f6e20666c61736500000000600082015250565b7f536166654d6174683a207375627472616374696f6e206f766572666c6f770000600082015250565b7f596f7520646f6e2774206f776e2074686973204e465400000000000000000000600082015250565b7f496e73756666696369656e742066756e64730000000000000000000000000000600082015250565b7f596f7520616c7265616479206861766520776974686472617700000000000000600082015250565b7f74686973206164647265737320686173206265656e20626f756e640000000000600082015250565b7f536166654d6174683a6469766973696f6e206f766572666c6f77000000000000600082015250565b6127e881612462565b81146127f357600080fd5b50565b6127ff816124a0565b811461280a57600080fd5b5056fea264697066735822122082d66697b48063c858aa2d700bdff37a4bf5d0cfa1528e3d16937cbdf08ede9b64736f6c63430008070033",
					"opcodes": "PUSH1 0x80 PUSH1 0x40 MSTORE PUSH1 0x4 PUSH1 0x2 PUSH1 0x0 PUSH2 0x100 EXP DUP2 SLOAD DUP2 PUSH1 0xFF MUL NOT AND SWAP1 DUP4 PUSH1 0xFF AND MUL OR SWAP1 SSTORE POP PUSH5 0x2540BE400 PUSH1 0x3 SSTORE CALLVALUE DUP1 ISZERO PUSH3 0x36 JUMPI PUSH1 0x0 DUP1 REVERT JUMPDEST POP PUSH1 0x40 MLOAD PUSH3 0x2F1B CODESIZE SUB DUP1 PUSH3 0x2F1B DUP4 CODECOPY DUP2 DUP2 ADD PUSH1 0x40 MSTORE DUP2 ADD SWAP1 PUSH3 0x5C SWAP2 SWAP1 PUSH3 0x318 JUMP JUMPDEST PUSH1 0x0 PUSH1 0x2 PUSH1 0x0 SWAP1 SLOAD SWAP1 PUSH2 0x100 EXP SWAP1 DIV PUSH1 0xFF AND PUSH1 0xFF AND PUSH1 0xA PUSH3 0x7F SWAP2 SWAP1 PUSH3 0x42C JUMP JUMPDEST PUSH1 0x3 SLOAD PUSH3 0x8E SWAP2 SWAP1 PUSH3 0x569 JUMP JUMPDEST SWAP1 POP DUP1 PUSH1 0x4 PUSH1 0x0 DUP7 PUSH20 0xFFFFFFFFFFFFFFFFFFFFFFFFFFFFFFFFFFFFFFFF AND PUSH20 0xFFFFFFFFFFFFFFFFFFFFFFFFFFFFFFFFFFFFFFFF AND DUP2 MSTORE PUSH1 0x20 ADD SWAP1 DUP2 MSTORE PUSH1 0x20 ADD PUSH1 0x0 KECCAK256 PUSH1 0x0 DUP3 DUP3 SLOAD PUSH3 0xE1 SWAP2 SWAP1 PUSH3 0x374 JUMP JUMPDEST SWAP3 POP POP DUP2 SWAP1 SSTORE POP DUP2 PUSH1 0x7 PUSH1 0x0 PUSH2 0x100 EXP DUP2 SLOAD DUP2 PUSH20 0xFFFFFFFFFFFFFFFFFFFFFFFFFFFFFFFFFFFFFFFF MUL NOT AND SWAP1 DUP4 PUSH20 0xFFFFFFFFFFFFFFFFFFFFFFFFFFFFFFFFFFFFFFFF AND MUL OR SWAP1 SSTORE POP PUSH1 0x40 MLOAD DUP1 PUSH1 0x40 ADD PUSH1 0x40 MSTORE DUP1 PUSH1 0x4 DUP2 MSTORE PUSH1 0x20 ADD PUSH32 0x4F4E454500000000000000000000000000000000000000000000000000000000 DUP2 MSTORE POP PUSH1 0x0 SWAP1 DUP1 MLOAD SWAP1 PUSH1 0x20 ADD SWAP1 PUSH3 0x176 SWAP3 SWAP2 SWAP1 PUSH3 0x251 JUMP JUMPDEST POP PUSH1 0x40 MLOAD DUP1 PUSH1 0x40 ADD PUSH1 0x40 MSTORE DUP1 PUSH1 0x4 DUP2 MSTORE PUSH1 0x20 ADD PUSH32 0x4F4E454500000000000000000000000000000000000000000000000000000000 DUP2 MSTORE POP PUSH1 0x1 SWAP1 DUP1 MLOAD SWAP1 PUSH1 0x20 ADD SWAP1 PUSH3 0x1C4 SWAP3 SWAP2 SWAP1 PUSH3 0x251 JUMP JUMPDEST POP DUP4 PUSH1 0x9 PUSH1 0x0 PUSH2 0x100 EXP DUP2 SLOAD DUP2 PUSH20 0xFFFFFFFFFFFFFFFFFFFFFFFFFFFFFFFFFFFFFFFF MUL NOT AND SWAP1 DUP4 PUSH20 0xFFFFFFFFFFFFFFFFFFFFFFFFFFFFFFFFFFFFFFFF AND MUL OR SWAP1 SSTORE POP DUP3 PUSH1 0xD PUSH1 0x0 PUSH2 0x100 EXP DUP2 SLOAD DUP2 PUSH20 0xFFFFFFFFFFFFFFFFFFFFFFFFFFFFFFFFFFFFFFFF MUL NOT AND SWAP1 DUP4 PUSH20 0xFFFFFFFFFFFFFFFFFFFFFFFFFFFFFFFFFFFFFFFF AND MUL OR SWAP1 SSTORE POP POP POP POP POP PUSH3 0x6C8 JUMP JUMPDEST DUP3 DUP1 SLOAD PUSH3 0x25F SWAP1 PUSH3 0x608 JUMP JUMPDEST SWAP1 PUSH1 0x0 MSTORE PUSH1 0x20 PUSH1 0x0 KECCAK256 SWAP1 PUSH1 0x1F ADD PUSH1 0x20 SWAP1 DIV DUP2 ADD SWAP3 DUP3 PUSH3 0x283 JUMPI PUSH1 0x0 DUP6 SSTORE PUSH3 0x2CF JUMP JUMPDEST DUP3 PUSH1 0x1F LT PUSH3 0x29E JUMPI DUP1 MLOAD PUSH1 0xFF NOT AND DUP4 DUP1 ADD OR DUP6 SSTORE PUSH3 0x2CF JUMP JUMPDEST DUP3 DUP1 ADD PUSH1 0x1 ADD DUP6 SSTORE DUP3 ISZERO PUSH3 0x2CF JUMPI SWAP2 DUP3 ADD JUMPDEST DUP3 DUP2 GT ISZERO PUSH3 0x2CE JUMPI DUP3 MLOAD DUP3 SSTORE SWAP2 PUSH1 0x20 ADD SWAP2 SWAP1 PUSH1 0x1 ADD SWAP1 PUSH3 0x2B1 JUMP JUMPDEST JUMPDEST POP SWAP1 POP PUSH3 0x2DE SWAP2 SWAP1 PUSH3 0x2E2 JUMP JUMPDEST POP SWAP1 JUMP JUMPDEST JUMPDEST DUP1 DUP3 GT ISZERO PUSH3 0x2FD JUMPI PUSH1 0x0 DUP2 PUSH1 0x0 SWAP1 SSTORE POP PUSH1 0x1 ADD PUSH3 0x2E3 JUMP JUMPDEST POP SWAP1 JUMP JUMPDEST PUSH1 0x0 DUP2 MLOAD SWAP1 POP PUSH3 0x312 DUP2 PUSH3 0x6AE JUMP JUMPDEST SWAP3 SWAP2 POP POP JUMP JUMPDEST PUSH1 0x0 DUP1 PUSH1 0x0 PUSH1 0x60 DUP5 DUP7 SUB SLT ISZERO PUSH3 0x334 JUMPI PUSH3 0x333 PUSH3 0x69C JUMP JUMPDEST JUMPDEST PUSH1 0x0 PUSH3 0x344 DUP7 DUP3 DUP8 ADD PUSH3 0x301 JUMP JUMPDEST SWAP4 POP POP PUSH1 0x20 PUSH3 0x357 DUP7 DUP3 DUP8 ADD PUSH3 0x301 JUMP JUMPDEST SWAP3 POP POP PUSH1 0x40 PUSH3 0x36A DUP7 DUP3 DUP8 ADD PUSH3 0x301 JUMP JUMPDEST SWAP2 POP POP SWAP3 POP SWAP3 POP SWAP3 JUMP JUMPDEST PUSH1 0x0 PUSH3 0x381 DUP3 PUSH3 0x5FE JUMP JUMPDEST SWAP2 POP PUSH3 0x38E DUP4 PUSH3 0x5FE JUMP JUMPDEST SWAP3 POP DUP3 PUSH32 0xFFFFFFFFFFFFFFFFFFFFFFFFFFFFFFFFFFFFFFFFFFFFFFFFFFFFFFFFFFFFFFFF SUB DUP3 GT ISZERO PUSH3 0x3C6 JUMPI PUSH3 0x3C5 PUSH3 0x63E JUMP JUMPDEST JUMPDEST DUP3 DUP3 ADD SWAP1 POP SWAP3 SWAP2 POP POP JUMP JUMPDEST PUSH1 0x0 DUP1 DUP3 SWAP2 POP DUP4 SWAP1 POP JUMPDEST PUSH1 0x1 DUP6 GT ISZERO PUSH3 0x423 JUMPI DUP1 DUP7 DIV DUP2 GT ISZERO PUSH3 0x3FB JUMPI PUSH3 0x3FA PUSH3 0x63E JUMP JUMPDEST JUMPDEST PUSH1 0x1 DUP6 AND ISZERO PUSH3 0x40B JUMPI DUP1 DUP3 MUL SWAP2 POP JUMPDEST DUP1 DUP2 MUL SWAP1 POP PUSH3 0x41B DUP6 PUSH3 0x6A1 JUMP JUMPDEST SWAP5 POP PUSH3 0x3DB JUMP JUMPDEST SWAP5 POP SWAP5 SWAP3 POP POP POP JUMP JUMPDEST PUSH1 0x0 PUSH3 0x439 DUP3 PUSH3 0x5FE JUMP JUMPDEST SWAP2 POP PUSH3 0x446 DUP4 PUSH3 0x5FE JUMP JUMPDEST SWAP3 POP PUSH3 0x475 PUSH32 0xFFFFFFFFFFFFFFFFFFFFFFFFFFFFFFFFFFFFFFFFFFFFFFFFFFFFFFFFFFFFFFFF DUP5 DUP5 PUSH3 0x47D JUMP JUMPDEST SWAP1 POP SWAP3 SWAP2 POP POP JUMP JUMPDEST PUSH1 0x0 DUP3 PUSH3 0x48F JUMPI PUSH1 0x1 SWAP1 POP PUSH3 0x562 JUMP JUMPDEST DUP2 PUSH3 0x49F JUMPI PUSH1 0x0 SWAP1 POP PUSH3 0x562 JUMP JUMPDEST DUP2 PUSH1 0x1 DUP2 EQ PUSH3 0x4B8 JUMPI PUSH1 0x2 DUP2 EQ PUSH3 0x4C3 JUMPI PUSH3 0x4F9 JUMP JUMPDEST PUSH1 0x1 SWAP2 POP POP PUSH3 0x562 JUMP JUMPDEST PUSH1 0xFF DUP5 GT ISZERO PUSH3 0x4D8 JUMPI PUSH3 0x4D7 PUSH3 0x63E JUMP JUMPDEST JUMPDEST DUP4 PUSH1 0x2 EXP SWAP2 POP DUP5 DUP3 GT ISZERO PUSH3 0x4F2 JUMPI PUSH3 0x4F1 PUSH3 0x63E JUMP JUMPDEST JUMPDEST POP PUSH3 0x562 JUMP JUMPDEST POP PUSH1 0x20 DUP4 LT PUSH2 0x133 DUP4 LT AND PUSH1 0x4E DUP5 LT PUSH1 0xB DUP5 LT AND OR ISZERO PUSH3 0x533 JUMPI DUP3 DUP3 EXP SWAP1 POP DUP4 DUP2 GT ISZERO PUSH3 0x52D JUMPI PUSH3 0x52C PUSH3 0x63E JUMP JUMPDEST JUMPDEST PUSH3 0x562 JUMP JUMPDEST PUSH3 0x542 DUP5 DUP5 DUP5 PUSH1 0x1 PUSH3 0x3D1 JUMP JUMPDEST SWAP3 POP SWAP1 POP DUP2 DUP5 DIV DUP2 GT ISZERO PUSH3 0x55C JUMPI PUSH3 0x55B PUSH3 0x63E JUMP JUMPDEST JUMPDEST DUP2 DUP2 MUL SWAP1 POP JUMPDEST SWAP4 SWAP3 POP POP POP JUMP JUMPDEST PUSH1 0x0 PUSH3 0x576 DUP3 PUSH3 0x5FE JUMP JUMPDEST SWAP2 POP PUSH3 0x583 DUP4 PUSH3 0x5FE JUMP JUMPDEST SWAP3 POP DUP2 PUSH32 0xFFFFFFFFFFFFFFFFFFFFFFFFFFFFFFFFFFFFFFFFFFFFFFFFFFFFFFFFFFFFFFFF DIV DUP4 GT DUP3 ISZERO ISZERO AND ISZERO PUSH3 0x5BF JUMPI PUSH3 0x5BE PUSH3 0x63E JUMP JUMPDEST JUMPDEST DUP3 DUP3 MUL SWAP1 POP SWAP3 SWAP2 POP POP JUMP JUMPDEST PUSH1 0x0 PUSH3 0x5D7 DUP3 PUSH3 0x5DE JUMP JUMPDEST SWAP1 POP SWAP2 SWAP1 POP JUMP JUMPDEST PUSH1 0x0 PUSH20 0xFFFFFFFFFFFFFFFFFFFFFFFFFFFFFFFFFFFFFFFF DUP3 AND SWAP1 POP SWAP2 SWAP1 POP JUMP JUMPDEST PUSH1 0x0 DUP2 SWAP1 POP SWAP2 SWAP1 POP JUMP JUMPDEST PUSH1 0x0 PUSH1 0x2 DUP3 DIV SWAP1 POP PUSH1 0x1 DUP3 AND DUP1 PUSH3 0x621 JUMPI PUSH1 0x7F DUP3 AND SWAP2 POP JUMPDEST PUSH1 0x20 DUP3 LT DUP2 EQ ISZERO PUSH3 0x638 JUMPI PUSH3 0x637 PUSH3 0x66D JUMP JUMPDEST JUMPDEST POP SWAP2 SWAP1 POP JUMP JUMPDEST PUSH32 0x4E487B7100000000000000000000000000000000000000000000000000000000 PUSH1 0x0 MSTORE PUSH1 0x11 PUSH1 0x4 MSTORE PUSH1 0x24 PUSH1 0x0 REVERT JUMPDEST PUSH32 0x4E487B7100000000000000000000000000000000000000000000000000000000 PUSH1 0x0 MSTORE PUSH1 0x22 PUSH1 0x4 MSTORE PUSH1 0x24 PUSH1 0x0 REVERT JUMPDEST PUSH1 0x0 DUP1 REVERT JUMPDEST PUSH1 0x0 DUP2 PUSH1 0x1 SHR SWAP1 POP SWAP2 SWAP1 POP JUMP JUMPDEST PUSH3 0x6B9 DUP2 PUSH3 0x5CA JUMP JUMPDEST DUP2 EQ PUSH3 0x6C5 JUMPI PUSH1 0x0 DUP1 REVERT JUMPDEST POP JUMP JUMPDEST PUSH2 0x2843 DUP1 PUSH3 0x6D8 PUSH1 0x0 CODECOPY PUSH1 0x0 RETURN INVALID PUSH1 0x80 PUSH1 0x40 MSTORE PUSH1 0x4 CALLDATASIZE LT PUSH2 0x114 JUMPI PUSH1 0x0 CALLDATALOAD PUSH1 0xE0 SHR DUP1 PUSH4 0x70A08231 GT PUSH2 0xA0 JUMPI DUP1 PUSH4 0xB369ECD7 GT PUSH2 0x64 JUMPI DUP1 PUSH4 0xB369ECD7 EQ PUSH2 0x3DC JUMPI DUP1 PUSH4 0xD56D229D EQ PUSH2 0x419 JUMPI DUP1 PUSH4 0xDD62ED3E EQ PUSH2 0x444 JUMPI DUP1 PUSH4 0xE91A7CA6 EQ PUSH2 0x481 JUMPI DUP1 PUSH4 0xFFC49F38 EQ PUSH2 0x49D JUMPI PUSH2 0x114 JUMP JUMPDEST DUP1 PUSH4 0x70A08231 EQ PUSH2 0x2DA JUMPI DUP1 PUSH4 0x8951CF59 EQ PUSH2 0x317 JUMPI DUP1 PUSH4 0x95D89B41 EQ PUSH2 0x342 JUMPI DUP1 PUSH4 0x98C61C37 EQ PUSH2 0x36D JUMPI DUP1 PUSH4 0xA9059CBB EQ PUSH2 0x3AC JUMPI PUSH2 0x114 JUMP JUMPDEST DUP1 PUSH4 0x23B872DD GT PUSH2 0xE7 JUMPI DUP1 PUSH4 0x23B872DD EQ PUSH2 0x1C8 JUMPI DUP1 PUSH4 0x313CE567 EQ PUSH2 0x1F8 JUMPI DUP1 PUSH4 0x48828EC0 EQ PUSH2 0x223 JUMPI DUP1 PUSH4 0x4FE7ABBA EQ PUSH2 0x260 JUMPI DUP1 PUSH4 0x6352211E EQ PUSH2 0x29D JUMPI PUSH2 0x114 JUMP JUMPDEST DUP1 PUSH4 0x23245D7 EQ PUSH2 0x119 JUMPI DUP1 PUSH4 0x6FDDE03 EQ PUSH2 0x135 JUMPI DUP1 PUSH4 0x95EA7B3 EQ PUSH2 0x160 JUMPI DUP1 PUSH4 0x18160DDD EQ PUSH2 0x19D JUMPI JUMPDEST PUSH1 0x0 DUP1 REVERT JUMPDEST PUSH2 0x133 PUSH1 0x4 DUP1 CALLDATASIZE SUB DUP2 ADD SWAP1 PUSH2 0x12E SWAP2 SWAP1 PUSH2 0x1DF5 JUMP JUMPDEST PUSH2 0x4DA JUMP JUMPDEST STOP JUMPDEST CALLVALUE DUP1 ISZERO PUSH2 0x141 JUMPI PUSH1 0x0 DUP1 REVERT JUMPDEST POP PUSH2 0x14A PUSH2 0x839 JUMP JUMPDEST PUSH1 0x40 MLOAD PUSH2 0x157 SWAP2 SWAP1 PUSH2 0x2169 JUMP JUMPDEST PUSH1 0x40 MLOAD DUP1 SWAP2 SUB SWAP1 RETURN JUMPDEST CALLVALUE DUP1 ISZERO PUSH2 0x16C JUMPI PUSH1 0x0 DUP1 REVERT JUMPDEST POP PUSH2 0x187 PUSH1 0x4 DUP1 CALLDATASIZE SUB DUP2 ADD SWAP1 PUSH2 0x182 SWAP2 SWAP1 PUSH2 0x1DB5 JUMP JUMPDEST PUSH2 0x8C7 JUMP JUMPDEST PUSH1 0x40 MLOAD PUSH2 0x194 SWAP2 SWAP1 PUSH2 0x2133 JUMP JUMPDEST PUSH1 0x40 MLOAD DUP1 SWAP2 SUB SWAP1 RETURN JUMPDEST CALLVALUE DUP1 ISZERO PUSH2 0x1A9 JUMPI PUSH1 0x0 DUP1 REVERT JUMPDEST POP PUSH2 0x1B2 PUSH2 0xA22 JUMP JUMPDEST PUSH1 0x40 MLOAD PUSH2 0x1BF SWAP2 SWAP1 PUSH2 0x228B JUMP JUMPDEST PUSH1 0x40 MLOAD DUP1 SWAP2 SUB SWAP1 RETURN JUMPDEST PUSH2 0x1E2 PUSH1 0x4 DUP1 CALLDATASIZE SUB DUP2 ADD SWAP1 PUSH2 0x1DD SWAP2 SWAP1 PUSH2 0x1D62 JUMP JUMPDEST PUSH2 0xA28 JUMP JUMPDEST PUSH1 0x40 MLOAD PUSH2 0x1EF SWAP2 SWAP1 PUSH2 0x2133 JUMP JUMPDEST PUSH1 0x40 MLOAD DUP1 SWAP2 SUB SWAP1 RETURN JUMPDEST CALLVALUE DUP1 ISZERO PUSH2 0x204 JUMPI PUSH1 0x0 DUP1 REVERT JUMPDEST POP PUSH2 0x20D PUSH2 0xAD7 JUMP JUMPDEST PUSH1 0x40 MLOAD PUSH2 0x21A SWAP2 SWAP1 PUSH2 0x22DD JUMP JUMPDEST PUSH1 0x40 MLOAD DUP1 SWAP2 SUB SWAP1 RETURN JUMPDEST CALLVALUE DUP1 ISZERO PUSH2 0x22F JUMPI PUSH1 0x0 DUP1 REVERT JUMPDEST POP PUSH2 0x24A PUSH1 0x4 DUP1 CALLDATASIZE SUB DUP2 ADD SWAP1 PUSH2 0x245 SWAP2 SWAP1 PUSH2 0x1CC8 JUMP JUMPDEST PUSH2 0xAEA JUMP JUMPDEST PUSH1 0x40 MLOAD PUSH2 0x257 SWAP2 SWAP1 PUSH2 0x2133 JUMP JUMPDEST PUSH1 0x40 MLOAD DUP1 SWAP2 SUB SWAP1 RETURN JUMPDEST CALLVALUE DUP1 ISZERO PUSH2 0x26C JUMPI PUSH1 0x0 DUP1 REVERT JUMPDEST POP PUSH2 0x287 PUSH1 0x4 DUP1 CALLDATASIZE SUB DUP2 ADD SWAP1 PUSH2 0x282 SWAP2 SWAP1 PUSH2 0x1E22 JUMP JUMPDEST PUSH2 0xBCF JUMP JUMPDEST PUSH1 0x40 MLOAD PUSH2 0x294 SWAP2 SWAP1 PUSH2 0x2111 JUMP JUMPDEST PUSH1 0x40 MLOAD DUP1 SWAP2 SUB SWAP1 RETURN JUMPDEST CALLVALUE DUP1 ISZERO PUSH2 0x2A9 JUMPI PUSH1 0x0 DUP1 REVERT JUMPDEST POP PUSH2 0x2C4 PUSH1 0x4 DUP1 CALLDATASIZE SUB DUP2 ADD SWAP1 PUSH2 0x2BF SWAP2 SWAP1 PUSH2 0x1DF5 JUMP JUMPDEST PUSH2 0xDE2 JUMP JUMPDEST PUSH1 0x40 MLOAD PUSH2 0x2D1 SWAP2 SWAP1 PUSH2 0x2096 JUMP JUMPDEST PUSH1 0x40 MLOAD DUP1 SWAP2 SUB SWAP1 RETURN JUMPDEST CALLVALUE DUP1 ISZERO PUSH2 0x2E6 JUMPI PUSH1 0x0 DUP1 REVERT JUMPDEST POP PUSH2 0x301 PUSH1 0x4 DUP1 CALLDATASIZE SUB DUP2 ADD SWAP1 PUSH2 0x2FC SWAP2 SWAP1 PUSH2 0x1CC8 JUMP JUMPDEST PUSH2 0xEF9 JUMP JUMPDEST PUSH1 0x40 MLOAD PUSH2 0x30E SWAP2 SWAP1 PUSH2 0x228B JUMP JUMPDEST PUSH1 0x40 MLOAD DUP1 SWAP2 SUB SWAP1 RETURN JUMPDEST CALLVALUE DUP1 ISZERO PUSH2 0x323 JUMPI PUSH1 0x0 DUP1 REVERT JUMPDEST POP PUSH2 0x32C PUSH2 0xF42 JUMP JUMPDEST PUSH1 0x40 MLOAD PUSH2 0x339 SWAP2 SWAP1 PUSH2 0x228B JUMP JUMPDEST PUSH1 0x40 MLOAD DUP1 SWAP2 SUB SWAP1 RETURN JUMPDEST CALLVALUE DUP1 ISZERO PUSH2 0x34E JUMPI PUSH1 0x0 DUP1 REVERT JUMPDEST POP PUSH2 0x357 PUSH2 0xF4C JUMP JUMPDEST PUSH1 0x40 MLOAD PUSH2 0x364 SWAP2 SWAP1 PUSH2 0x2169 JUMP JUMPDEST PUSH1 0x40 MLOAD DUP1 SWAP2 SUB SWAP1 RETURN JUMPDEST CALLVALUE DUP1 ISZERO PUSH2 0x379 JUMPI PUSH1 0x0 DUP1 REVERT JUMPDEST POP PUSH2 0x394 PUSH1 0x4 DUP1 CALLDATASIZE SUB DUP2 ADD SWAP1 PUSH2 0x38F SWAP2 SWAP1 PUSH2 0x1DB5 JUMP JUMPDEST PUSH2 0xFDA JUMP JUMPDEST PUSH1 0x40 MLOAD PUSH2 0x3A3 SWAP4 SWAP3 SWAP2 SWAP1 PUSH2 0x22A6 JUMP JUMPDEST PUSH1 0x40 MLOAD DUP1 SWAP2 SUB SWAP1 RETURN JUMPDEST PUSH2 0x3C6 PUSH1 0x4 DUP1 CALLDATASIZE SUB DUP2 ADD SWAP1 PUSH2 0x3C1 SWAP2 SWAP1 PUSH2 0x1DB5 JUMP JUMPDEST PUSH2 0x1021 JUMP JUMPDEST PUSH1 0x40 MLOAD PUSH2 0x3D3 SWAP2 SWAP1 PUSH2 0x2133 JUMP JUMPDEST PUSH1 0x40 MLOAD DUP1 SWAP2 SUB SWAP1 RETURN JUMPDEST CALLVALUE DUP1 ISZERO PUSH2 0x3E8 JUMPI PUSH1 0x0 DUP1 REVERT JUMPDEST POP PUSH2 0x403 PUSH1 0x4 DUP1 CALLDATASIZE SUB DUP2 ADD SWAP1 PUSH2 0x3FE SWAP2 SWAP1 PUSH2 0x1CC8 JUMP JUMPDEST PUSH2 0x10CD JUMP JUMPDEST PUSH1 0x40 MLOAD PUSH2 0x410 SWAP2 SWAP1 PUSH2 0x228B JUMP JUMPDEST PUSH1 0x40 MLOAD DUP1 SWAP2 SUB SWAP1 RETURN JUMPDEST CALLVALUE DUP1 ISZERO PUSH2 0x425 JUMPI PUSH1 0x0 DUP1 REVERT JUMPDEST POP PUSH2 0x42E PUSH2 0x10E5 JUMP JUMPDEST PUSH1 0x40 MLOAD PUSH2 0x43B SWAP2 SWAP1 PUSH2 0x214E JUMP JUMPDEST PUSH1 0x40 MLOAD DUP1 SWAP2 SUB SWAP1 RETURN JUMPDEST CALLVALUE DUP1 ISZERO PUSH2 0x450 JUMPI PUSH1 0x0 DUP1 REVERT JUMPDEST POP PUSH2 0x46B PUSH1 0x4 DUP1 CALLDATASIZE SUB DUP2 ADD SWAP1 PUSH2 0x466 SWAP2 SWAP1 PUSH2 0x1D22 JUMP JUMPDEST PUSH2 0x110B JUMP JUMPDEST PUSH1 0x40 MLOAD PUSH2 0x478 SWAP2 SWAP1 PUSH2 0x228B JUMP JUMPDEST PUSH1 0x40 MLOAD DUP1 SWAP2 SUB SWAP1 RETURN JUMPDEST PUSH2 0x49B PUSH1 0x4 DUP1 CALLDATASIZE SUB DUP2 ADD SWAP1 PUSH2 0x496 SWAP2 SWAP1 PUSH2 0x1DF5 JUMP JUMPDEST PUSH2 0x1192 JUMP JUMPDEST STOP JUMPDEST CALLVALUE DUP1 ISZERO PUSH2 0x4A9 JUMPI PUSH1 0x0 DUP1 REVERT JUMPDEST POP PUSH2 0x4C4 PUSH1 0x4 DUP1 CALLDATASIZE SUB DUP2 ADD SWAP1 PUSH2 0x4BF SWAP2 SWAP1 PUSH2 0x1CC8 JUMP JUMPDEST PUSH2 0x1310 JUMP JUMPDEST PUSH1 0x40 MLOAD PUSH2 0x4D1 SWAP2 SWAP1 PUSH2 0x228B JUMP JUMPDEST PUSH1 0x40 MLOAD DUP1 SWAP2 SUB SWAP1 RETURN JUMPDEST PUSH1 0x9 PUSH1 0x0 SWAP1 SLOAD SWAP1 PUSH2 0x100 EXP SWAP1 DIV PUSH20 0xFFFFFFFFFFFFFFFFFFFFFFFFFFFFFFFFFFFFFFFF AND PUSH20 0xFFFFFFFFFFFFFFFFFFFFFFFFFFFFFFFFFFFFFFFF AND CALLER PUSH20 0xFFFFFFFFFFFFFFFFFFFFFFFFFFFFFFFFFFFFFFFF AND EQ PUSH2 0x56A JUMPI PUSH1 0x40 MLOAD PUSH32 0x8C379A000000000000000000000000000000000000000000000000000000000 DUP2 MSTORE PUSH1 0x4 ADD PUSH2 0x561 SWAP1 PUSH2 0x218B JUMP JUMPDEST PUSH1 0x40 MLOAD DUP1 SWAP2 SUB SWAP1 REVERT JUMPDEST PUSH1 0xD PUSH1 0x0 SWAP1 SLOAD SWAP1 PUSH2 0x100 EXP SWAP1 DIV PUSH20 0xFFFFFFFFFFFFFFFFFFFFFFFFFFFFFFFFFFFFFFFF AND PUSH1 0xA PUSH1 0x0 PUSH2 0x100 EXP DUP2 SLOAD DUP2 PUSH20 0xFFFFFFFFFFFFFFFFFFFFFFFFFFFFFFFFFFFFFFFF MUL NOT AND SWAP1 DUP4 PUSH20 0xFFFFFFFFFFFFFFFFFFFFFFFFFFFFFFFFFFFFFFFF AND MUL OR SWAP1 SSTORE POP PUSH1 0x0 PUSH1 0xC PUSH1 0x0 CALLER PUSH20 0xFFFFFFFFFFFFFFFFFFFFFFFFFFFFFFFFFFFFFFFF AND PUSH20 0xFFFFFFFFFFFFFFFFFFFFFFFFFFFFFFFFFFFFFFFF AND DUP2 MSTORE PUSH1 0x20 ADD SWAP1 DUP2 MSTORE PUSH1 0x20 ADD PUSH1 0x0 KECCAK256 SLOAD SWAP1 POP PUSH1 0x0 JUMPDEST DUP2 DUP2 LT ISZERO PUSH2 0x834 JUMPI DUP3 PUSH1 0xB PUSH1 0x0 CALLER PUSH20 0xFFFFFFFFFFFFFFFFFFFFFFFFFFFFFFFFFFFFFFFF AND PUSH20 0xFFFFFFFFFFFFFFFFFFFFFFFFFFFFFFFFFFFFFFFF AND DUP2 MSTORE PUSH1 0x20 ADD SWAP1 DUP2 MSTORE PUSH1 0x20 ADD PUSH1 0x0 KECCAK256 DUP3 DUP2 SLOAD DUP2 LT PUSH2 0x66E JUMPI PUSH2 0x66D PUSH2 0x2652 JUMP JUMPDEST JUMPDEST SWAP1 PUSH1 0x0 MSTORE PUSH1 0x20 PUSH1 0x0 KECCAK256 SWAP1 PUSH1 0x3 MUL ADD PUSH1 0x0 ADD SLOAD EQ ISZERO PUSH2 0x823 JUMPI PUSH1 0x1 PUSH1 0xB PUSH1 0x0 CALLER PUSH20 0xFFFFFFFFFFFFFFFFFFFFFFFFFFFFFFFFFFFFFFFF AND PUSH20 0xFFFFFFFFFFFFFFFFFFFFFFFFFFFFFFFFFFFFFFFF AND DUP2 MSTORE PUSH1 0x20 ADD SWAP1 DUP2 MSTORE PUSH1 0x20 ADD PUSH1 0x0 KECCAK256 DUP3 DUP2 SLOAD DUP2 LT PUSH2 0x6D9 JUMPI PUSH2 0x6D8 PUSH2 0x2652 JUMP JUMPDEST JUMPDEST SWAP1 PUSH1 0x0 MSTORE PUSH1 0x20 PUSH1 0x0 KECCAK256 SWAP1 PUSH1 0x3 MUL ADD PUSH1 0x2 ADD SLOAD EQ PUSH2 0x72B JUMPI PUSH1 0x40 MLOAD PUSH32 0x8C379A000000000000000000000000000000000000000000000000000000000 DUP2 MSTORE PUSH1 0x4 ADD PUSH2 0x722 SWAP1 PUSH2 0x222B JUMP JUMPDEST PUSH1 0x40 MLOAD DUP1 SWAP2 SUB SWAP1 REVERT JUMPDEST PUSH1 0x0 PUSH1 0xB PUSH1 0x0 CALLER PUSH20 0xFFFFFFFFFFFFFFFFFFFFFFFFFFFFFFFFFFFFFFFF AND PUSH20 0xFFFFFFFFFFFFFFFFFFFFFFFFFFFFFFFFFFFFFFFF AND DUP2 MSTORE PUSH1 0x20 ADD SWAP1 DUP2 MSTORE PUSH1 0x20 ADD PUSH1 0x0 KECCAK256 DUP5 DUP2 SLOAD DUP2 LT PUSH2 0x77E JUMPI PUSH2 0x77D PUSH2 0x2652 JUMP JUMPDEST JUMPDEST SWAP1 PUSH1 0x0 MSTORE PUSH1 0x20 PUSH1 0x0 KECCAK256 SWAP1 PUSH1 0x3 MUL ADD PUSH1 0x2 ADD DUP2 SWAP1 SSTORE POP PUSH1 0xA PUSH1 0x0 SWAP1 SLOAD SWAP1 PUSH2 0x100 EXP SWAP1 DIV PUSH20 0xFFFFFFFFFFFFFFFFFFFFFFFFFFFFFFFFFFFFFFFF AND PUSH20 0xFFFFFFFFFFFFFFFFFFFFFFFFFFFFFFFFFFFFFFFF AND PUSH4 0x95EA7B3 CALLER DUP6 PUSH1 0x40 MLOAD DUP4 PUSH4 0xFFFFFFFF AND PUSH1 0xE0 SHL DUP2 MSTORE PUSH1 0x4 ADD PUSH2 0x7F0 SWAP3 SWAP2 SWAP1 PUSH2 0x20E8 JUMP JUMPDEST PUSH1 0x0 PUSH1 0x40 MLOAD DUP1 DUP4 SUB DUP2 PUSH1 0x0 DUP8 DUP1 EXTCODESIZE ISZERO DUP1 ISZERO PUSH2 0x80A JUMPI PUSH1 0x0 DUP1 REVERT JUMPDEST POP GAS CALL ISZERO DUP1 ISZERO PUSH2 0x81E JUMPI RETURNDATASIZE PUSH1 0x0 DUP1 RETURNDATACOPY RETURNDATASIZE PUSH1 0x0 REVERT JUMPDEST POP POP POP POP JUMPDEST DUP1 PUSH2 0x82D SWAP1 PUSH2 0x257C JUMP JUMPDEST SWAP1 POP PUSH2 0x614 JUMP JUMPDEST POP POP POP JUMP JUMPDEST PUSH1 0x0 DUP1 SLOAD PUSH2 0x846 SWAP1 PUSH2 0x254A JUMP JUMPDEST DUP1 PUSH1 0x1F ADD PUSH1 0x20 DUP1 SWAP2 DIV MUL PUSH1 0x20 ADD PUSH1 0x40 MLOAD SWAP1 DUP2 ADD PUSH1 0x40 MSTORE DUP1 SWAP3 SWAP2 SWAP1 DUP2 DUP2 MSTORE PUSH1 0x20 ADD DUP3 DUP1 SLOAD PUSH2 0x872 SWAP1 PUSH2 0x254A JUMP JUMPDEST DUP1 ISZERO PUSH2 0x8BF JUMPI DUP1 PUSH1 0x1F LT PUSH2 0x894 JUMPI PUSH2 0x100 DUP1 DUP4 SLOAD DIV MUL DUP4 MSTORE SWAP2 PUSH1 0x20 ADD SWAP2 PUSH2 0x8BF JUMP JUMPDEST DUP3 ADD SWAP2 SWAP1 PUSH1 0x0 MSTORE PUSH1 0x20 PUSH1 0x0 KECCAK256 SWAP1 JUMPDEST DUP2 SLOAD DUP2 MSTORE SWAP1 PUSH1 0x1 ADD SWAP1 PUSH1 0x20 ADD DUP1 DUP4 GT PUSH2 0x8A2 JUMPI DUP3 SWAP1 SUB PUSH1 0x1F AND DUP3 ADD SWAP2 JUMPDEST POP POP POP POP POP DUP2 JUMP JUMPDEST PUSH1 0x0 DUP1 DUP3 EQ DUP1 PUSH2 0x953 JUMPI POP PUSH1 0x0 PUSH1 0x5 PUSH1 0x0 CALLER PUSH20 0xFFFFFFFFFFFFFFFFFFFFFFFFFFFFFFFFFFFFFFFF AND PUSH20 0xFFFFFFFFFFFFFFFFFFFFFFFFFFFFFFFFFFFFFFFF AND DUP2 MSTORE PUSH1 0x20 ADD SWAP1 DUP2 MSTORE PUSH1 0x20 ADD PUSH1 0x0 KECCAK256 PUSH1 0x0 DUP6 PUSH20 0xFFFFFFFFFFFFFFFFFFFFFFFFFFFFFFFFFFFFFFFF AND PUSH20 0xFFFFFFFFFFFFFFFFFFFFFFFFFFFFFFFFFFFFFFFF AND DUP2 MSTORE PUSH1 0x20 ADD SWAP1 DUP2 MSTORE PUSH1 0x20 ADD PUSH1 0x0 KECCAK256 SLOAD EQ JUMPDEST PUSH2 0x95C JUMPI PUSH1 0x0 DUP1 REVERT JUMPDEST DUP2 PUSH1 0x5 PUSH1 0x0 CALLER PUSH20 0xFFFFFFFFFFFFFFFFFFFFFFFFFFFFFFFFFFFFFFFF AND PUSH20 0xFFFFFFFFFFFFFFFFFFFFFFFFFFFFFFFFFFFFFFFF AND DUP2 MSTORE PUSH1 0x20 ADD SWAP1 DUP2 MSTORE PUSH1 0x20 ADD PUSH1 0x0 KECCAK256 PUSH1 0x0 DUP6 PUSH20 0xFFFFFFFFFFFFFFFFFFFFFFFFFFFFFFFFFFFFFFFF AND PUSH20 0xFFFFFFFFFFFFFFFFFFFFFFFFFFFFFFFFFFFFFFFF AND DUP2 MSTORE PUSH1 0x20 ADD SWAP1 DUP2 MSTORE PUSH1 0x20 ADD PUSH1 0x0 KECCAK256 DUP2 SWAP1 SSTORE POP PUSH32 0x8C5BE1E5EBEC7D5BD14F71427D1E84F3DD0314C0F7B2291E5B200AC8C7C3B925 CALLER DUP5 DUP5 PUSH1 0x40 MLOAD PUSH2 0xA10 SWAP4 SWAP3 SWAP2 SWAP1 PUSH2 0x20B1 JUMP JUMPDEST PUSH1 0x40 MLOAD DUP1 SWAP2 SUB SWAP1 LOG1 PUSH1 0x1 SWAP1 POP SWAP3 SWAP2 POP POP JUMP JUMPDEST PUSH1 0x3 SLOAD DUP2 JUMP JUMPDEST PUSH1 0x0 DUP1 PUSH2 0xA4B PUSH1 0x64 PUSH1 0x0 DUP6 PUSH2 0xA3D SWAP2 SWAP1 PUSH2 0x23D4 JUMP JUMPDEST PUSH2 0x13F5 SWAP1 SWAP2 SWAP1 PUSH4 0xFFFFFFFF AND JUMP JUMPDEST SWAP1 POP PUSH1 0x0 PUSH2 0xA7E DUP7 PUSH1 0x7 PUSH1 0x0 SWAP1 SLOAD SWAP1 PUSH2 0x100 EXP SWAP1 DIV PUSH20 0xFFFFFFFFFFFFFFFFFFFFFFFFFFFFFFFFFFFFFFFF AND DUP5 PUSH1 0x0 PUSH2 0x1453 JUMP JUMPDEST SWAP1 POP DUP1 PUSH2 0xAC0 JUMPI PUSH1 0x40 MLOAD PUSH32 0x8C379A000000000000000000000000000000000000000000000000000000000 DUP2 MSTORE PUSH1 0x4 ADD PUSH2 0xAB7 SWAP1 PUSH2 0x21AB JUMP JUMPDEST PUSH1 0x40 MLOAD DUP1 SWAP2 SUB SWAP1 REVERT JUMPDEST PUSH2 0xACC DUP7 DUP7 DUP7 DUP6 PUSH2 0x1453 JUMP JUMPDEST SWAP3 POP POP POP SWAP4 SWAP3 POP POP POP JUMP JUMPDEST PUSH1 0x2 PUSH1 0x0 SWAP1 SLOAD SWAP1 PUSH2 0x100 EXP SWAP1 DIV PUSH1 0xFF AND DUP2 JUMP JUMPDEST PUSH1 0x0 DUP1 PUSH20 0xFFFFFFFFFFFFFFFFFFFFFFFFFFFFFFFFFFFFFFFF AND PUSH1 0x8 PUSH1 0x0 CALLER PUSH20 0xFFFFFFFFFFFFFFFFFFFFFFFFFFFFFFFFFFFFFFFF AND PUSH20 0xFFFFFFFFFFFFFFFFFFFFFFFFFFFFFFFFFFFFFFFF AND DUP2 MSTORE PUSH1 0x20 ADD SWAP1 DUP2 MSTORE PUSH1 0x20 ADD PUSH1 0x0 KECCAK256 PUSH1 0x2 ADD PUSH1 0x0 SWAP1 SLOAD SWAP1 PUSH2 0x100 EXP SWAP1 DIV PUSH20 0xFFFFFFFFFFFFFFFFFFFFFFFFFFFFFFFFFFFFFFFF AND PUSH20 0xFFFFFFFFFFFFFFFFFFFFFFFFFFFFFFFFFFFFFFFF AND EQ PUSH2 0xBBC JUMPI PUSH1 0x40 MLOAD PUSH32 0x8C379A000000000000000000000000000000000000000000000000000000000 DUP2 MSTORE PUSH1 0x4 ADD PUSH2 0xBB3 SWAP1 PUSH2 0x224B JUMP JUMPDEST PUSH1 0x40 MLOAD DUP1 SWAP2 SUB SWAP1 REVERT JUMPDEST PUSH2 0xBC6 CALLER DUP4 PUSH2 0x1840 JUMP JUMPDEST PUSH1 0x1 SWAP1 POP SWAP2 SWAP1 POP JUMP JUMPDEST PUSH1 0x60 PUSH1 0xD PUSH1 0x0 SWAP1 SLOAD SWAP1 PUSH2 0x100 EXP SWAP1 DIV PUSH20 0xFFFFFFFFFFFFFFFFFFFFFFFFFFFFFFFFFFFFFFFF AND PUSH1 0xA PUSH1 0x0 PUSH2 0x100 EXP DUP2 SLOAD DUP2 PUSH20 0xFFFFFFFFFFFFFFFFFFFFFFFFFFFFFFFFFFFFFFFF MUL NOT AND SWAP1 DUP4 PUSH20 0xFFFFFFFFFFFFFFFFFFFFFFFFFFFFFFFFFFFFFFFF AND MUL OR SWAP1 SSTORE POP PUSH1 0x0 PUSH1 0xC PUSH1 0x0 DUP5 PUSH20 0xFFFFFFFFFFFFFFFFFFFFFFFFFFFFFFFFFFFFFFFF AND PUSH20 0xFFFFFFFFFFFFFFFFFFFFFFFFFFFFFFFFFFFFFFFF AND DUP2 MSTORE PUSH1 0x20 ADD SWAP1 DUP2 MSTORE PUSH1 0x20 ADD PUSH1 0x0 KECCAK256 SLOAD SWAP1 POP PUSH1 0x0 PUSH1 0x60 PUSH1 0x0 JUMPDEST DUP4 DUP2 LT ISZERO PUSH2 0xDD3 JUMPI PUSH1 0x1 PUSH1 0xB PUSH1 0x0 DUP9 PUSH20 0xFFFFFFFFFFFFFFFFFFFFFFFFFFFFFFFFFFFFFFFF AND PUSH20 0xFFFFFFFFFFFFFFFFFFFFFFFFFFFFFFFFFFFFFFFF AND DUP2 MSTORE PUSH1 0x20 ADD SWAP1 DUP2 MSTORE PUSH1 0x20 ADD PUSH1 0x0 KECCAK256 DUP3 DUP2 SLOAD DUP2 LT PUSH2 0xCDA JUMPI PUSH2 0xCD9 PUSH2 0x2652 JUMP JUMPDEST JUMPDEST SWAP1 PUSH1 0x0 MSTORE PUSH1 0x20 PUSH1 0x0 KECCAK256 SWAP1 PUSH1 0x3 MUL ADD PUSH1 0x2 ADD SLOAD EQ ISZERO PUSH2 0xDC2 JUMPI DUP8 DUP4 LT ISZERO DUP1 ISZERO PUSH2 0xD0C JUMPI POP DUP7 DUP9 PUSH2 0xD09 SWAP2 SWAP1 PUSH2 0x234D JUMP JUMPDEST DUP4 LT JUMPDEST ISZERO PUSH2 0xDA2 JUMPI PUSH1 0xB PUSH1 0x0 DUP8 PUSH20 0xFFFFFFFFFFFFFFFFFFFFFFFFFFFFFFFFFFFFFFFF AND PUSH20 0xFFFFFFFFFFFFFFFFFFFFFFFFFFFFFFFFFFFFFFFF AND DUP2 MSTORE PUSH1 0x20 ADD SWAP1 DUP2 MSTORE PUSH1 0x20 ADD PUSH1 0x0 KECCAK256 DUP2 DUP2 SLOAD DUP2 LT PUSH2 0xD62 JUMPI PUSH2 0xD61 PUSH2 0x2652 JUMP JUMPDEST JUMPDEST SWAP1 PUSH1 0x0 MSTORE PUSH1 0x20 PUSH1 0x0 KECCAK256 SWAP1 PUSH1 0x3 MUL ADD PUSH1 0x0 ADD SLOAD DUP3 DUP5 DUP2 MLOAD DUP2 LT PUSH2 0xD87 JUMPI PUSH2 0xD86 PUSH2 0x2652 JUMP JUMPDEST JUMPDEST PUSH1 0x20 MUL PUSH1 0x20 ADD ADD DUP2 DUP2 MSTORE POP POP DUP3 DUP1 PUSH2 0xD9E SWAP1 PUSH2 0x257C JUMP JUMPDEST SWAP4 POP POP JUMPDEST DUP7 DUP9 PUSH2 0xDAE SWAP2 SWAP1 PUSH2 0x234D JUMP JUMPDEST DUP4 GT ISZERO PUSH2 0xDC1 JUMPI DUP2 SWAP5 POP POP POP POP POP PUSH2 0xDDB JUMP JUMPDEST JUMPDEST DUP1 PUSH2 0xDCC SWAP1 PUSH2 0x257C JUMP JUMPDEST SWAP1 POP PUSH2 0xC7F JUMP JUMPDEST POP DUP1 SWAP4 POP POP POP POP JUMPDEST SWAP4 SWAP3 POP POP POP JUMP JUMPDEST PUSH1 0x0 PUSH1 0xD PUSH1 0x0 SWAP1 SLOAD SWAP1 PUSH2 0x100 EXP SWAP1 DIV PUSH20 0xFFFFFFFFFFFFFFFFFFFFFFFFFFFFFFFFFFFFFFFF AND PUSH1 0xA PUSH1 0x0 PUSH2 0x100 EXP DUP2 SLOAD DUP2 PUSH20 0xFFFFFFFFFFFFFFFFFFFFFFFFFFFFFFFFFFFFFFFF MUL NOT AND SWAP1 DUP4 PUSH20 0xFFFFFFFFFFFFFFFFFFFFFFFFFFFFFFFFFFFFFFFF AND MUL OR SWAP1 SSTORE POP PUSH1 0xA PUSH1 0x0 SWAP1 SLOAD SWAP1 PUSH2 0x100 EXP SWAP1 DIV PUSH20 0xFFFFFFFFFFFFFFFFFFFFFFFFFFFFFFFFFFFFFFFF AND PUSH20 0xFFFFFFFFFFFFFFFFFFFFFFFFFFFFFFFFFFFFFFFF AND PUSH4 0x6352211E DUP4 PUSH1 0x40 MLOAD DUP3 PUSH4 0xFFFFFFFF AND PUSH1 0xE0 SHL DUP2 MSTORE PUSH1 0x4 ADD PUSH2 0xEA2 SWAP2 SWAP1 PUSH2 0x228B JUMP JUMPDEST PUSH1 0x20 PUSH1 0x40 MLOAD DUP1 DUP4 SUB DUP2 DUP7 DUP1 EXTCODESIZE ISZERO DUP1 ISZERO PUSH2 0xEBA JUMPI PUSH1 0x0 DUP1 REVERT JUMPDEST POP GAS STATICCALL ISZERO DUP1 ISZERO PUSH2 0xECE JUMPI RETURNDATASIZE PUSH1 0x0 DUP1 RETURNDATACOPY RETURNDATASIZE PUSH1 0x0 REVERT JUMPDEST POP POP POP POP PUSH1 0x40 MLOAD RETURNDATASIZE PUSH1 0x1F NOT PUSH1 0x1F DUP3 ADD AND DUP3 ADD DUP1 PUSH1 0x40 MSTORE POP DUP2 ADD SWAP1 PUSH2 0xEF2 SWAP2 SWAP1 PUSH2 0x1CF5 JUMP JUMPDEST SWAP1 POP SWAP2 SWAP1 POP JUMP JUMPDEST PUSH1 0x0 PUSH1 0x4 PUSH1 0x0 DUP4 PUSH20 0xFFFFFFFFFFFFFFFFFFFFFFFFFFFFFFFFFFFFFFFF AND PUSH20 0xFFFFFFFFFFFFFFFFFFFFFFFFFFFFFFFFFFFFFFFF AND DUP2 MSTORE PUSH1 0x20 ADD SWAP1 DUP2 MSTORE PUSH1 0x20 ADD PUSH1 0x0 KECCAK256 SLOAD SWAP1 POP SWAP2 SWAP1 POP JUMP JUMPDEST PUSH1 0x0 PUSH1 0x3 SLOAD SWAP1 POP SWAP1 JUMP JUMPDEST PUSH1 0x1 DUP1 SLOAD PUSH2 0xF59 SWAP1 PUSH2 0x254A JUMP JUMPDEST DUP1 PUSH1 0x1F ADD PUSH1 0x20 DUP1 SWAP2 DIV MUL PUSH1 0x20 ADD PUSH1 0x40 MLOAD SWAP1 DUP2 ADD PUSH1 0x40 MSTORE DUP1 SWAP3 SWAP2 SWAP1 DUP2 DUP2 MSTORE PUSH1 0x20 ADD DUP3 DUP1 SLOAD PUSH2 0xF85 SWAP1 PUSH2 0x254A JUMP JUMPDEST DUP1 ISZERO PUSH2 0xFD2 JUMPI DUP1 PUSH1 0x1F LT PUSH2 0xFA7 JUMPI PUSH2 0x100 DUP1 DUP4 SLOAD DIV MUL DUP4 MSTORE SWAP2 PUSH1 0x20 ADD SWAP2 PUSH2 0xFD2 JUMP JUMPDEST DUP3 ADD SWAP2 SWAP1 PUSH1 0x0 MSTORE PUSH1 0x20 PUSH1 0x0 KECCAK256 SWAP1 JUMPDEST DUP2 SLOAD DUP2 MSTORE SWAP1 PUSH1 0x1 ADD SWAP1 PUSH1 0x20 ADD DUP1 DUP4 GT PUSH2 0xFB5 JUMPI DUP3 SWAP1 SUB PUSH1 0x1F AND DUP3 ADD SWAP2 JUMPDEST POP POP POP POP POP DUP2 JUMP JUMPDEST PUSH1 0xB PUSH1 0x20 MSTORE DUP2 PUSH1 0x0 MSTORE PUSH1 0x40 PUSH1 0x0 KECCAK256 DUP2 DUP2 SLOAD DUP2 LT PUSH2 0xFF6 JUMPI PUSH1 0x0 DUP1 REVERT JUMPDEST SWAP1 PUSH1 0x0 MSTORE PUSH1 0x20 PUSH1 0x0 KECCAK256 SWAP1 PUSH1 0x3 MUL ADD PUSH1 0x0 SWAP2 POP SWAP2 POP POP DUP1 PUSH1 0x0 ADD SLOAD SWAP1 DUP1 PUSH1 0x1 ADD SLOAD SWAP1 DUP1 PUSH1 0x2 ADD SLOAD SWAP1 POP DUP4 JUMP JUMPDEST PUSH1 0x0 DUP1 PUSH2 0x1044 PUSH1 0x64 PUSH1 0x0 DUP6 PUSH2 0x1036 SWAP2 SWAP1 PUSH2 0x23D4 JUMP JUMPDEST PUSH2 0x13F5 SWAP1 SWAP2 SWAP1 PUSH4 0xFFFFFFFF AND JUMP JUMPDEST SWAP1 POP PUSH1 0x0 PUSH2 0x1076 PUSH1 0x7 PUSH1 0x0 SWAP1 SLOAD SWAP1 PUSH2 0x100 EXP SWAP1 DIV PUSH20 0xFFFFFFFFFFFFFFFFFFFFFFFFFFFFFFFFFFFFFFFF AND DUP4 PUSH1 0x0 PUSH2 0x18C5 JUMP JUMPDEST SWAP1 POP DUP1 PUSH2 0x10B8 JUMPI PUSH1 0x40 MLOAD PUSH32 0x8C379A000000000000000000000000000000000000000000000000000000000 DUP2 MSTORE PUSH1 0x4 ADD PUSH2 0x10AF SWAP1 PUSH2 0x21AB JUMP JUMPDEST PUSH1 0x40 MLOAD DUP1 SWAP2 SUB SWAP1 REVERT JUMPDEST PUSH2 0x10C3 DUP6 DUP6 DUP5 PUSH2 0x18C5 JUMP JUMPDEST SWAP3 POP POP POP SWAP3 SWAP2 POP POP JUMP JUMPDEST PUSH1 0xC PUSH1 0x20 MSTORE DUP1 PUSH1 0x0 MSTORE PUSH1 0x40 PUSH1 0x0 KECCAK256 PUSH1 0x0 SWAP2 POP SWAP1 POP SLOAD DUP2 JUMP JUMPDEST PUSH1 0xA PUSH1 0x0 SWAP1 SLOAD SWAP1 PUSH2 0x100 EXP SWAP1 DIV PUSH20 0xFFFFFFFFFFFFFFFFFFFFFFFFFFFFFFFFFFFFFFFF AND DUP2 JUMP JUMPDEST PUSH1 0x0 PUSH1 0x5 PUSH1 0x0 DUP5 PUSH20 0xFFFFFFFFFFFFFFFFFFFFFFFFFFFFFFFFFFFFFFFF AND PUSH20 0xFFFFFFFFFFFFFFFFFFFFFFFFFFFFFFFFFFFFFFFF AND DUP2 MSTORE PUSH1 0x20 ADD SWAP1 DUP2 MSTORE PUSH1 0x20 ADD PUSH1 0x0 KECCAK256 PUSH1 0x0 DUP4 PUSH20 0xFFFFFFFFFFFFFFFFFFFFFFFFFFFFFFFFFFFFFFFF AND PUSH20 0xFFFFFFFFFFFFFFFFFFFFFFFFFFFFFFFFFFFFFFFF AND DUP2 MSTORE PUSH1 0x20 ADD SWAP1 DUP2 MSTORE PUSH1 0x20 ADD PUSH1 0x0 KECCAK256 SLOAD SWAP1 POP SWAP3 SWAP2 POP POP JUMP JUMPDEST PUSH1 0xD PUSH1 0x0 SWAP1 SLOAD SWAP1 PUSH2 0x100 EXP SWAP1 DIV PUSH20 0xFFFFFFFFFFFFFFFFFFFFFFFFFFFFFFFFFFFFFFFF AND PUSH1 0xA PUSH1 0x0 PUSH2 0x100 EXP DUP2 SLOAD DUP2 PUSH20 0xFFFFFFFFFFFFFFFFFFFFFFFFFFFFFFFFFFFFFFFF MUL NOT AND SWAP1 DUP4 PUSH20 0xFFFFFFFFFFFFFFFFFFFFFFFFFFFFFFFFFFFFFFFF AND MUL OR SWAP1 SSTORE POP CALLER PUSH20 0xFFFFFFFFFFFFFFFFFFFFFFFFFFFFFFFFFFFFFFFF AND PUSH1 0xA PUSH1 0x0 SWAP1 SLOAD SWAP1 PUSH2 0x100 EXP SWAP1 DIV PUSH20 0xFFFFFFFFFFFFFFFFFFFFFFFFFFFFFFFFFFFFFFFF AND PUSH20 0xFFFFFFFFFFFFFFFFFFFFFFFFFFFFFFFFFFFFFFFF AND PUSH4 0x6352211E DUP4 PUSH1 0x40 MLOAD DUP3 PUSH4 0xFFFFFFFF AND PUSH1 0xE0 SHL DUP2 MSTORE PUSH1 0x4 ADD PUSH2 0x1267 SWAP2 SWAP1 PUSH2 0x228B JUMP JUMPDEST PUSH1 0x20 PUSH1 0x40 MLOAD DUP1 DUP4 SUB DUP2 DUP7 DUP1 EXTCODESIZE ISZERO DUP1 ISZERO PUSH2 0x127F JUMPI PUSH1 0x0 DUP1 REVERT JUMPDEST POP GAS STATICCALL ISZERO DUP1 ISZERO PUSH2 0x1293 JUMPI RETURNDATASIZE PUSH1 0x0 DUP1 RETURNDATACOPY RETURNDATASIZE PUSH1 0x0 REVERT JUMPDEST POP POP POP POP PUSH1 0x40 MLOAD RETURNDATASIZE PUSH1 0x1F NOT PUSH1 0x1F DUP3 ADD AND DUP3 ADD DUP1 PUSH1 0x40 MSTORE POP DUP2 ADD SWAP1 PUSH2 0x12B7 SWAP2 SWAP1 PUSH2 0x1CF5 JUMP JUMPDEST PUSH20 0xFFFFFFFFFFFFFFFFFFFFFFFFFFFFFFFFFFFFFFFF AND EQ PUSH2 0x130D JUMPI PUSH1 0x40 MLOAD PUSH32 0x8C379A000000000000000000000000000000000000000000000000000000000 DUP2 MSTORE PUSH1 0x4 ADD PUSH2 0x1304 SWAP1 PUSH2 0x21EB JUMP JUMPDEST PUSH1 0x40 MLOAD DUP1 SWAP2 SUB SWAP1 REVERT JUMPDEST POP JUMP JUMPDEST PUSH1 0x0 DUP1 PUSH1 0xC PUSH1 0x0 DUP5 PUSH20 0xFFFFFFFFFFFFFFFFFFFFFFFFFFFFFFFFFFFFFFFF AND PUSH20 0xFFFFFFFFFFFFFFFFFFFFFFFFFFFFFFFFFFFFFFFF AND DUP2 MSTORE PUSH1 0x20 ADD SWAP1 DUP2 MSTORE PUSH1 0x20 ADD PUSH1 0x0 KECCAK256 SLOAD SWAP1 POP PUSH1 0x0 JUMPDEST DUP2 DUP2 LT ISZERO PUSH2 0x13EB JUMPI PUSH1 0x0 PUSH1 0xB PUSH1 0x0 DUP7 PUSH20 0xFFFFFFFFFFFFFFFFFFFFFFFFFFFFFFFFFFFFFFFF AND PUSH20 0xFFFFFFFFFFFFFFFFFFFFFFFFFFFFFFFFFFFFFFFF AND DUP2 MSTORE PUSH1 0x20 ADD SWAP1 DUP2 MSTORE PUSH1 0x20 ADD PUSH1 0x0 KECCAK256 DUP3 DUP2 SLOAD DUP2 LT PUSH2 0x13B3 JUMPI PUSH2 0x13B2 PUSH2 0x2652 JUMP JUMPDEST JUMPDEST SWAP1 PUSH1 0x0 MSTORE PUSH1 0x20 PUSH1 0x0 KECCAK256 SWAP1 PUSH1 0x3 MUL ADD PUSH1 0x2 ADD SLOAD EQ ISZERO PUSH2 0x13DA JUMPI DUP2 DUP1 PUSH2 0x13D6 SWAP1 PUSH2 0x2520 JUMP JUMPDEST SWAP3 POP POP JUMPDEST DUP1 PUSH2 0x13E4 SWAP1 PUSH2 0x257C JUMP JUMPDEST SWAP1 POP PUSH2 0x1358 JUMP JUMPDEST POP DUP1 SWAP2 POP POP SWAP2 SWAP1 POP JUMP JUMPDEST PUSH1 0x0 DUP1 DUP3 GT PUSH2 0x1439 JUMPI PUSH1 0x40 MLOAD PUSH32 0x8C379A000000000000000000000000000000000000000000000000000000000 DUP2 MSTORE PUSH1 0x4 ADD PUSH2 0x1430 SWAP1 PUSH2 0x226B JUMP JUMPDEST PUSH1 0x40 MLOAD DUP1 SWAP2 SUB SWAP1 REVERT JUMPDEST PUSH1 0x0 DUP3 DUP5 PUSH2 0x1447 SWAP2 SWAP1 PUSH2 0x23A3 JUMP JUMPDEST SWAP1 POP DUP1 SWAP2 POP POP SWAP3 SWAP2 POP POP JUMP JUMPDEST PUSH1 0x0 DUP3 PUSH1 0x4 PUSH1 0x0 DUP8 PUSH20 0xFFFFFFFFFFFFFFFFFFFFFFFFFFFFFFFFFFFFFFFF AND PUSH20 0xFFFFFFFFFFFFFFFFFFFFFFFFFFFFFFFFFFFFFFFF AND DUP2 MSTORE PUSH1 0x20 ADD SWAP1 DUP2 MSTORE PUSH1 0x20 ADD PUSH1 0x0 KECCAK256 SLOAD LT ISZERO DUP1 ISZERO PUSH2 0x1520 JUMPI POP DUP3 PUSH1 0x5 PUSH1 0x0 DUP8 PUSH20 0xFFFFFFFFFFFFFFFFFFFFFFFFFFFFFFFFFFFFFFFF AND PUSH20 0xFFFFFFFFFFFFFFFFFFFFFFFFFFFFFFFFFFFFFFFF AND DUP2 MSTORE PUSH1 0x20 ADD SWAP1 DUP2 MSTORE PUSH1 0x20 ADD PUSH1 0x0 KECCAK256 PUSH1 0x0 CALLER PUSH20 0xFFFFFFFFFFFFFFFFFFFFFFFFFFFFFFFFFFFFFFFF AND PUSH20 0xFFFFFFFFFFFFFFFFFFFFFFFFFFFFFFFFFFFFFFFF AND DUP2 MSTORE PUSH1 0x20 ADD SWAP1 DUP2 MSTORE PUSH1 0x20 ADD PUSH1 0x0 KECCAK256 SLOAD LT ISZERO JUMPDEST PUSH2 0x155F JUMPI PUSH1 0x40 MLOAD PUSH32 0x8C379A000000000000000000000000000000000000000000000000000000000 DUP2 MSTORE PUSH1 0x4 ADD PUSH2 0x1556 SWAP1 PUSH2 0x220B JUMP JUMPDEST PUSH1 0x40 MLOAD DUP1 SWAP2 SUB SWAP1 REVERT JUMPDEST DUP3 PUSH1 0x8 PUSH1 0x0 DUP8 PUSH20 0xFFFFFFFFFFFFFFFFFFFFFFFFFFFFFFFFFFFFFFFF AND PUSH20 0xFFFFFFFFFFFFFFFFFFFFFFFFFFFFFFFFFFFFFFFF AND DUP2 MSTORE PUSH1 0x20 ADD SWAP1 DUP2 MSTORE PUSH1 0x20 ADD PUSH1 0x0 KECCAK256 PUSH1 0x1 ADD SLOAD LT ISZERO PUSH2 0x15E4 JUMPI PUSH1 0x40 MLOAD PUSH32 0x8C379A000000000000000000000000000000000000000000000000000000000 DUP2 MSTORE PUSH1 0x4 ADD PUSH2 0x15DB SWAP1 PUSH2 0x220B JUMP JUMPDEST PUSH1 0x40 MLOAD DUP1 SWAP2 SUB SWAP1 REVERT JUMPDEST DUP3 PUSH1 0x4 PUSH1 0x0 DUP8 PUSH20 0xFFFFFFFFFFFFFFFFFFFFFFFFFFFFFFFFFFFFFFFF AND PUSH20 0xFFFFFFFFFFFFFFFFFFFFFFFFFFFFFFFFFFFFFFFF AND DUP2 MSTORE PUSH1 0x20 ADD SWAP1 DUP2 MSTORE PUSH1 0x20 ADD PUSH1 0x0 KECCAK256 PUSH1 0x0 DUP3 DUP3 SLOAD PUSH2 0x1633 SWAP2 SWAP1 PUSH2 0x242E JUMP JUMPDEST SWAP3 POP POP DUP2 SWAP1 SSTORE POP DUP3 PUSH1 0x8 PUSH1 0x0 DUP8 PUSH20 0xFFFFFFFFFFFFFFFFFFFFFFFFFFFFFFFFFFFFFFFF AND PUSH20 0xFFFFFFFFFFFFFFFFFFFFFFFFFFFFFFFFFFFFFFFF AND DUP2 MSTORE PUSH1 0x20 ADD SWAP1 DUP2 MSTORE PUSH1 0x20 ADD PUSH1 0x0 KECCAK256 PUSH1 0x1 ADD PUSH1 0x0 DUP3 DUP3 SLOAD PUSH2 0x168C SWAP2 SWAP1 PUSH2 0x242E JUMP JUMPDEST SWAP3 POP POP DUP2 SWAP1 SSTORE POP PUSH2 0x16A6 DUP3 DUP5 PUSH2 0x1C2A SWAP1 SWAP2 SWAP1 PUSH4 0xFFFFFFFF AND JUMP JUMPDEST PUSH1 0x4 PUSH1 0x0 DUP7 PUSH20 0xFFFFFFFFFFFFFFFFFFFFFFFFFFFFFFFFFFFFFFFF AND PUSH20 0xFFFFFFFFFFFFFFFFFFFFFFFFFFFFFFFFFFFFFFFF AND DUP2 MSTORE PUSH1 0x20 ADD SWAP1 DUP2 MSTORE PUSH1 0x20 ADD PUSH1 0x0 KECCAK256 PUSH1 0x0 DUP3 DUP3 SLOAD PUSH2 0x16F4 SWAP2 SWAP1 PUSH2 0x234D JUMP JUMPDEST SWAP3 POP POP DUP2 SWAP1 SSTORE POP PUSH2 0x170E DUP3 DUP5 PUSH2 0x1C2A SWAP1 SWAP2 SWAP1 PUSH4 0xFFFFFFFF AND JUMP JUMPDEST PUSH1 0x8 PUSH1 0x0 DUP7 PUSH20 0xFFFFFFFFFFFFFFFFFFFFFFFFFFFFFFFFFFFFFFFF AND PUSH20 0xFFFFFFFFFFFFFFFFFFFFFFFFFFFFFFFFFFFFFFFF AND DUP2 MSTORE PUSH1 0x20 ADD SWAP1 DUP2 MSTORE PUSH1 0x20 ADD PUSH1 0x0 KECCAK256 PUSH1 0x1 ADD PUSH1 0x0 DUP3 DUP3 SLOAD PUSH2 0x175F SWAP2 SWAP1 PUSH2 0x234D JUMP JUMPDEST SWAP3 POP POP DUP2 SWAP1 SSTORE POP DUP3 PUSH1 0x5 PUSH1 0x0 DUP8 PUSH20 0xFFFFFFFFFFFFFFFFFFFFFFFFFFFFFFFFFFFFFFFF AND PUSH20 0xFFFFFFFFFFFFFFFFFFFFFFFFFFFFFFFFFFFFFFFF AND DUP2 MSTORE PUSH1 0x20 ADD SWAP1 DUP2 MSTORE PUSH1 0x20 ADD PUSH1 0x0 KECCAK256 PUSH1 0x0 CALLER PUSH20 0xFFFFFFFFFFFFFFFFFFFFFFFFFFFFFFFFFFFFFFFF AND PUSH20 0xFFFFFFFFFFFFFFFFFFFFFFFFFFFFFFFFFFFFFFFF AND DUP2 MSTORE PUSH1 0x20 ADD SWAP1 DUP2 MSTORE PUSH1 0x20 ADD PUSH1 0x0 KECCAK256 PUSH1 0x0 DUP3 DUP3 SLOAD PUSH2 0x17F2 SWAP2 SWAP1 PUSH2 0x242E JUMP JUMPDEST SWAP3 POP POP DUP2 SWAP1 SSTORE POP PUSH32 0xDDF252AD1BE2C89B69C2B068FC378DAA952BA7F163C4A11628F55A4DF523B3EF DUP6 DUP6 DUP6 PUSH1 0x40 MLOAD PUSH2 0x182C SWAP4 SWAP3 SWAP2 SWAP1 PUSH2 0x20B1 JUMP JUMPDEST PUSH1 0x40 MLOAD DUP1 SWAP2 SUB SWAP1 LOG1 PUSH1 0x1 SWAP1 POP SWAP5 SWAP4 POP POP POP POP JUMP JUMPDEST DUP1 PUSH1 0x8 PUSH1 0x0 DUP5 PUSH20 0xFFFFFFFFFFFFFFFFFFFFFFFFFFFFFFFFFFFFFFFF AND PUSH20 0xFFFFFFFFFFFFFFFFFFFFFFFFFFFFFFFFFFFFFFFF AND DUP2 MSTORE PUSH1 0x20 ADD SWAP1 DUP2 MSTORE PUSH1 0x20 ADD PUSH1 0x0 KECCAK256 PUSH1 0x2 ADD PUSH1 0x0 PUSH2 0x100 EXP DUP2 SLOAD DUP2 PUSH20 0xFFFFFFFFFFFFFFFFFFFFFFFFFFFFFFFFFFFFFFFF MUL NOT AND SWAP1 DUP4 PUSH20 0xFFFFFFFFFFFFFFFFFFFFFFFFFFFFFFFFFFFFFFFF AND MUL OR SWAP1 SSTORE POP POP POP JUMP JUMPDEST PUSH1 0x0 DUP3 PUSH1 0x4 PUSH1 0x0 CALLER PUSH20 0xFFFFFFFFFFFFFFFFFFFFFFFFFFFFFFFFFFFFFFFF AND PUSH20 0xFFFFFFFFFFFFFFFFFFFFFFFFFFFFFFFFFFFFFFFF AND DUP2 MSTORE PUSH1 0x20 ADD SWAP1 DUP2 MSTORE PUSH1 0x20 ADD PUSH1 0x0 KECCAK256 SLOAD LT ISZERO DUP1 ISZERO PUSH2 0x199E JUMPI POP PUSH1 0x4 PUSH1 0x0 DUP6 PUSH20 0xFFFFFFFFFFFFFFFFFFFFFFFFFFFFFFFFFFFFFFFF AND PUSH20 0xFFFFFFFFFFFFFFFFFFFFFFFFFFFFFFFFFFFFFFFF AND DUP2 MSTORE PUSH1 0x20 ADD SWAP1 DUP2 MSTORE PUSH1 0x20 ADD PUSH1 0x0 KECCAK256 SLOAD DUP4 PUSH1 0x4 PUSH1 0x0 DUP8 PUSH20 0xFFFFFFFFFFFFFFFFFFFFFFFFFFFFFFFFFFFFFFFF AND PUSH20 0xFFFFFFFFFFFFFFFFFFFFFFFFFFFFFFFFFFFFFFFF AND DUP2 MSTORE PUSH1 0x20 ADD SWAP1 DUP2 MSTORE PUSH1 0x20 ADD PUSH1 0x0 KECCAK256 SLOAD PUSH2 0x199C SWAP2 SWAP1 PUSH2 0x234D JUMP JUMPDEST GT JUMPDEST PUSH2 0x19DD JUMPI PUSH1 0x40 MLOAD PUSH32 0x8C379A000000000000000000000000000000000000000000000000000000000 DUP2 MSTORE PUSH1 0x4 ADD PUSH2 0x19D4 SWAP1 PUSH2 0x220B JUMP JUMPDEST PUSH1 0x40 MLOAD DUP1 SWAP2 SUB SWAP1 REVERT JUMPDEST DUP3 PUSH1 0x8 PUSH1 0x0 CALLER PUSH20 0xFFFFFFFFFFFFFFFFFFFFFFFFFFFFFFFFFFFFFFFF AND PUSH20 0xFFFFFFFFFFFFFFFFFFFFFFFFFFFFFFFFFFFFFFFF AND DUP2 MSTORE PUSH1 0x20 ADD SWAP1 DUP2 MSTORE PUSH1 0x20 ADD PUSH1 0x0 KECCAK256 PUSH1 0x1 ADD SLOAD LT ISZERO PUSH2 0x1A62 JUMPI PUSH1 0x40 MLOAD PUSH32 0x8C379A000000000000000000000000000000000000000000000000000000000 DUP2 MSTORE PUSH1 0x4 ADD PUSH2 0x1A59 SWAP1 PUSH2 0x220B JUMP JUMPDEST PUSH1 0x40 MLOAD DUP1 SWAP2 SUB SWAP1 REVERT JUMPDEST DUP3 PUSH1 0x4 PUSH1 0x0 CALLER PUSH20 0xFFFFFFFFFFFFFFFFFFFFFFFFFFFFFFFFFFFFFFFF AND PUSH20 0xFFFFFFFFFFFFFFFFFFFFFFFFFFFFFFFFFFFFFFFF AND DUP2 MSTORE PUSH1 0x20 ADD SWAP1 DUP2 MSTORE PUSH1 0x20 ADD PUSH1 0x0 KECCAK256 PUSH1 0x0 DUP3 DUP3 SLOAD PUSH2 0x1AB1 SWAP2 SWAP1 PUSH2 0x242E JUMP JUMPDEST SWAP3 POP POP DUP2 SWAP1 SSTORE POP DUP3 PUSH1 0x8 PUSH1 0x0 CALLER PUSH20 0xFFFFFFFFFFFFFFFFFFFFFFFFFFFFFFFFFFFFFFFF AND PUSH20 0xFFFFFFFFFFFFFFFFFFFFFFFFFFFFFFFFFFFFFFFF AND DUP2 MSTORE PUSH1 0x20 ADD SWAP1 DUP2 MSTORE PUSH1 0x20 ADD PUSH1 0x0 KECCAK256 PUSH1 0x1 ADD PUSH1 0x0 DUP3 DUP3 SLOAD PUSH2 0x1B0A SWAP2 SWAP1 PUSH2 0x242E JUMP JUMPDEST SWAP3 POP POP DUP2 SWAP1 SSTORE POP PUSH2 0x1B24 DUP3 DUP5 PUSH2 0x1C2A SWAP1 SWAP2 SWAP1 PUSH4 0xFFFFFFFF AND JUMP JUMPDEST PUSH1 0x4 PUSH1 0x0 DUP7 PUSH20 0xFFFFFFFFFFFFFFFFFFFFFFFFFFFFFFFFFFFFFFFF AND PUSH20 0xFFFFFFFFFFFFFFFFFFFFFFFFFFFFFFFFFFFFFFFF AND DUP2 MSTORE PUSH1 0x20 ADD SWAP1 DUP2 MSTORE PUSH1 0x20 ADD PUSH1 0x0 KECCAK256 PUSH1 0x0 DUP3 DUP3 SLOAD PUSH2 0x1B72 SWAP2 SWAP1 PUSH2 0x234D JUMP JUMPDEST SWAP3 POP POP DUP2 SWAP1 SSTORE POP PUSH2 0x1B8C DUP3 DUP5 PUSH2 0x1C2A SWAP1 SWAP2 SWAP1 PUSH4 0xFFFFFFFF AND JUMP JUMPDEST PUSH1 0x8 PUSH1 0x0 DUP7 PUSH20 0xFFFFFFFFFFFFFFFFFFFFFFFFFFFFFFFFFFFFFFFF AND PUSH20 0xFFFFFFFFFFFFFFFFFFFFFFFFFFFFFFFFFFFFFFFF AND DUP2 MSTORE PUSH1 0x20 ADD SWAP1 DUP2 MSTORE PUSH1 0x20 ADD PUSH1 0x0 KECCAK256 PUSH1 0x1 ADD PUSH1 0x0 DUP3 DUP3 SLOAD PUSH2 0x1BDD SWAP2 SWAP1 PUSH2 0x234D JUMP JUMPDEST SWAP3 POP POP DUP2 SWAP1 SSTORE POP PUSH32 0xDDF252AD1BE2C89B69C2B068FC378DAA952BA7F163C4A11628F55A4DF523B3EF CALLER DUP6 DUP6 PUSH1 0x40 MLOAD PUSH2 0x1C17 SWAP4 SWAP3 SWAP2 SWAP1 PUSH2 0x20B1 JUMP JUMPDEST PUSH1 0x40 MLOAD DUP1 SWAP2 SUB SWAP1 LOG1 PUSH1 0x1 SWAP1 POP SWAP4 SWAP3 POP POP POP JUMP JUMPDEST PUSH1 0x0 DUP3 DUP3 GT ISZERO PUSH2 0x1C6F JUMPI PUSH1 0x40 MLOAD PUSH32 0x8C379A000000000000000000000000000000000000000000000000000000000 DUP2 MSTORE PUSH1 0x4 ADD PUSH2 0x1C66 SWAP1 PUSH2 0x21CB JUMP JUMPDEST PUSH1 0x40 MLOAD DUP1 SWAP2 SUB SWAP1 REVERT JUMPDEST PUSH1 0x0 DUP3 DUP5 PUSH2 0x1C7D SWAP2 SWAP1 PUSH2 0x242E JUMP JUMPDEST SWAP1 POP DUP1 SWAP2 POP POP SWAP3 SWAP2 POP POP JUMP JUMPDEST PUSH1 0x0 DUP2 CALLDATALOAD SWAP1 POP PUSH2 0x1C98 DUP2 PUSH2 0x27DF JUMP JUMPDEST SWAP3 SWAP2 POP POP JUMP JUMPDEST PUSH1 0x0 DUP2 MLOAD SWAP1 POP PUSH2 0x1CAD DUP2 PUSH2 0x27DF JUMP JUMPDEST SWAP3 SWAP2 POP POP JUMP JUMPDEST PUSH1 0x0 DUP2 CALLDATALOAD SWAP1 POP PUSH2 0x1CC2 DUP2 PUSH2 0x27F6 JUMP JUMPDEST SWAP3 SWAP2 POP POP JUMP JUMPDEST PUSH1 0x0 PUSH1 0x20 DUP3 DUP5 SUB SLT ISZERO PUSH2 0x1CDE JUMPI PUSH2 0x1CDD PUSH2 0x2681 JUMP JUMPDEST JUMPDEST PUSH1 0x0 PUSH2 0x1CEC DUP5 DUP3 DUP6 ADD PUSH2 0x1C89 JUMP JUMPDEST SWAP2 POP POP SWAP3 SWAP2 POP POP JUMP JUMPDEST PUSH1 0x0 PUSH1 0x20 DUP3 DUP5 SUB SLT ISZERO PUSH2 0x1D0B JUMPI PUSH2 0x1D0A PUSH2 0x2681 JUMP JUMPDEST JUMPDEST PUSH1 0x0 PUSH2 0x1D19 DUP5 DUP3 DUP6 ADD PUSH2 0x1C9E JUMP JUMPDEST SWAP2 POP POP SWAP3 SWAP2 POP POP JUMP JUMPDEST PUSH1 0x0 DUP1 PUSH1 0x40 DUP4 DUP6 SUB SLT ISZERO PUSH2 0x1D39 JUMPI PUSH2 0x1D38 PUSH2 0x2681 JUMP JUMPDEST JUMPDEST PUSH1 0x0 PUSH2 0x1D47 DUP6 DUP3 DUP7 ADD PUSH2 0x1C89 JUMP JUMPDEST SWAP3 POP POP PUSH1 0x20 PUSH2 0x1D58 DUP6 DUP3 DUP7 ADD PUSH2 0x1C89 JUMP JUMPDEST SWAP2 POP POP SWAP3 POP SWAP3 SWAP1 POP JUMP JUMPDEST PUSH1 0x0 DUP1 PUSH1 0x0 PUSH1 0x60 DUP5 DUP7 SUB SLT ISZERO PUSH2 0x1D7B JUMPI PUSH2 0x1D7A PUSH2 0x2681 JUMP JUMPDEST JUMPDEST PUSH1 0x0 PUSH2 0x1D89 DUP7 DUP3 DUP8 ADD PUSH2 0x1C89 JUMP JUMPDEST SWAP4 POP POP PUSH1 0x20 PUSH2 0x1D9A DUP7 DUP3 DUP8 ADD PUSH2 0x1C89 JUMP JUMPDEST SWAP3 POP POP PUSH1 0x40 PUSH2 0x1DAB DUP7 DUP3 DUP8 ADD PUSH2 0x1CB3 JUMP JUMPDEST SWAP2 POP POP SWAP3 POP SWAP3 POP SWAP3 JUMP JUMPDEST PUSH1 0x0 DUP1 PUSH1 0x40 DUP4 DUP6 SUB SLT ISZERO PUSH2 0x1DCC JUMPI PUSH2 0x1DCB PUSH2 0x2681 JUMP JUMPDEST JUMPDEST PUSH1 0x0 PUSH2 0x1DDA DUP6 DUP3 DUP7 ADD PUSH2 0x1C89 JUMP JUMPDEST SWAP3 POP POP PUSH1 0x20 PUSH2 0x1DEB DUP6 DUP3 DUP7 ADD PUSH2 0x1CB3 JUMP JUMPDEST SWAP2 POP POP SWAP3 POP SWAP3 SWAP1 POP JUMP JUMPDEST PUSH1 0x0 PUSH1 0x20 DUP3 DUP5 SUB SLT ISZERO PUSH2 0x1E0B JUMPI PUSH2 0x1E0A PUSH2 0x2681 JUMP JUMPDEST JUMPDEST PUSH1 0x0 PUSH2 0x1E19 DUP5 DUP3 DUP6 ADD PUSH2 0x1CB3 JUMP JUMPDEST SWAP2 POP POP SWAP3 SWAP2 POP POP JUMP JUMPDEST PUSH1 0x0 DUP1 PUSH1 0x0 PUSH1 0x60 DUP5 DUP7 SUB SLT ISZERO PUSH2 0x1E3B JUMPI PUSH2 0x1E3A PUSH2 0x2681 JUMP JUMPDEST JUMPDEST PUSH1 0x0 PUSH2 0x1E49 DUP7 DUP3 DUP8 ADD PUSH2 0x1CB3 JUMP JUMPDEST SWAP4 POP POP PUSH1 0x20 PUSH2 0x1E5A DUP7 DUP3 DUP8 ADD PUSH2 0x1CB3 JUMP JUMPDEST SWAP3 POP POP PUSH1 0x40 PUSH2 0x1E6B DUP7 DUP3 DUP8 ADD PUSH2 0x1C89 JUMP JUMPDEST SWAP2 POP POP SWAP3 POP SWAP3 POP SWAP3 JUMP JUMPDEST PUSH1 0x0 PUSH2 0x1E81 DUP4 DUP4 PUSH2 0x2069 JUMP JUMPDEST PUSH1 0x20 DUP4 ADD SWAP1 POP SWAP3 SWAP2 POP POP JUMP JUMPDEST PUSH2 0x1E96 DUP2 PUSH2 0x2462 JUMP JUMPDEST DUP3 MSTORE POP POP JUMP JUMPDEST PUSH1 0x0 PUSH2 0x1EA7 DUP3 PUSH2 0x2308 JUMP JUMPDEST PUSH2 0x1EB1 DUP2 DUP6 PUSH2 0x232B JUMP JUMPDEST SWAP4 POP PUSH2 0x1EBC DUP4 PUSH2 0x22F8 JUMP JUMPDEST DUP1 PUSH1 0x0 JUMPDEST DUP4 DUP2 LT ISZERO PUSH2 0x1EED JUMPI DUP2 MLOAD PUSH2 0x1ED4 DUP9 DUP3 PUSH2 0x1E75 JUMP JUMPDEST SWAP8 POP PUSH2 0x1EDF DUP4 PUSH2 0x231E JUMP JUMPDEST SWAP3 POP POP PUSH1 0x1 DUP2 ADD SWAP1 POP PUSH2 0x1EC0 JUMP JUMPDEST POP DUP6 SWAP4 POP POP POP POP SWAP3 SWAP2 POP POP JUMP JUMPDEST PUSH2 0x1F03 DUP2 PUSH2 0x2474 JUMP JUMPDEST DUP3 MSTORE POP POP JUMP JUMPDEST PUSH2 0x1F12 DUP2 PUSH2 0x24B7 JUMP JUMPDEST DUP3 MSTORE POP POP JUMP JUMPDEST PUSH1 0x0 PUSH2 0x1F23 DUP3 PUSH2 0x2313 JUMP JUMPDEST PUSH2 0x1F2D DUP2 DUP6 PUSH2 0x233C JUMP JUMPDEST SWAP4 POP PUSH2 0x1F3D DUP2 DUP6 PUSH1 0x20 DUP7 ADD PUSH2 0x24ED JUMP JUMPDEST PUSH2 0x1F46 DUP2 PUSH2 0x2686 JUMP JUMPDEST DUP5 ADD SWAP2 POP POP SWAP3 SWAP2 POP POP JUMP JUMPDEST PUSH1 0x0 PUSH2 0x1F5E PUSH1 0x19 DUP4 PUSH2 0x233C JUMP JUMPDEST SWAP2 POP PUSH2 0x1F69 DUP3 PUSH2 0x2697 JUMP JUMPDEST PUSH1 0x20 DUP3 ADD SWAP1 POP SWAP2 SWAP1 POP JUMP JUMPDEST PUSH1 0x0 PUSH2 0x1F81 PUSH1 0x1C DUP4 PUSH2 0x233C JUMP JUMPDEST SWAP2 POP PUSH2 0x1F8C DUP3 PUSH2 0x26C0 JUMP JUMPDEST PUSH1 0x20 DUP3 ADD SWAP1 POP SWAP2 SWAP1 POP JUMP JUMPDEST PUSH1 0x0 PUSH2 0x1FA4 PUSH1 0x1E DUP4 PUSH2 0x233C JUMP JUMPDEST SWAP2 POP PUSH2 0x1FAF DUP3 PUSH2 0x26E9 JUMP JUMPDEST PUSH1 0x20 DUP3 ADD SWAP1 POP SWAP2 SWAP1 POP JUMP JUMPDEST PUSH1 0x0 PUSH2 0x1FC7 PUSH1 0x16 DUP4 PUSH2 0x233C JUMP JUMPDEST SWAP2 POP PUSH2 0x1FD2 DUP3 PUSH2 0x2712 JUMP JUMPDEST PUSH1 0x20 DUP3 ADD SWAP1 POP SWAP2 SWAP1 POP JUMP JUMPDEST PUSH1 0x0 PUSH2 0x1FEA PUSH1 0x12 DUP4 PUSH2 0x233C JUMP JUMPDEST SWAP2 POP PUSH2 0x1FF5 DUP3 PUSH2 0x273B JUMP JUMPDEST PUSH1 0x20 DUP3 ADD SWAP1 POP SWAP2 SWAP1 POP JUMP JUMPDEST PUSH1 0x0 PUSH2 0x200D PUSH1 0x19 DUP4 PUSH2 0x233C JUMP JUMPDEST SWAP2 POP PUSH2 0x2018 DUP3 PUSH2 0x2764 JUMP JUMPDEST PUSH1 0x20 DUP3 ADD SWAP1 POP SWAP2 SWAP1 POP JUMP JUMPDEST PUSH1 0x0 PUSH2 0x2030 PUSH1 0x1B DUP4 PUSH2 0x233C JUMP JUMPDEST SWAP2 POP PUSH2 0x203B DUP3 PUSH2 0x278D JUMP JUMPDEST PUSH1 0x20 DUP3 ADD SWAP1 POP SWAP2 SWAP1 POP JUMP JUMPDEST PUSH1 0x0 PUSH2 0x2053 PUSH1 0x1A DUP4 PUSH2 0x233C JUMP JUMPDEST SWAP2 POP PUSH2 0x205E DUP3 PUSH2 0x27B6 JUMP JUMPDEST PUSH1 0x20 DUP3 ADD SWAP1 POP SWAP2 SWAP1 POP JUMP JUMPDEST PUSH2 0x2072 DUP2 PUSH2 0x24A0 JUMP JUMPDEST DUP3 MSTORE POP POP JUMP JUMPDEST PUSH2 0x2081 DUP2 PUSH2 0x24A0 JUMP JUMPDEST DUP3 MSTORE POP POP JUMP JUMPDEST PUSH2 0x2090 DUP2 PUSH2 0x24AA JUMP JUMPDEST DUP3 MSTORE POP POP JUMP JUMPDEST PUSH1 0x0 PUSH1 0x20 DUP3 ADD SWAP1 POP PUSH2 0x20AB PUSH1 0x0 DUP4 ADD DUP5 PUSH2 0x1E8D JUMP JUMPDEST SWAP3 SWAP2 POP POP JUMP JUMPDEST PUSH1 0x0 PUSH1 0x60 DUP3 ADD SWAP1 POP PUSH2 0x20C6 PUSH1 0x0 DUP4 ADD DUP7 PUSH2 0x1E8D JUMP JUMPDEST PUSH2 0x20D3 PUSH1 0x20 DUP4 ADD DUP6 PUSH2 0x1E8D JUMP JUMPDEST PUSH2 0x20E0 PUSH1 0x40 DUP4 ADD DUP5 PUSH2 0x2078 JUMP JUMPDEST SWAP5 SWAP4 POP POP POP POP JUMP JUMPDEST PUSH1 0x0 PUSH1 0x40 DUP3 ADD SWAP1 POP PUSH2 0x20FD PUSH1 0x0 DUP4 ADD DUP6 PUSH2 0x1E8D JUMP JUMPDEST PUSH2 0x210A PUSH1 0x20 DUP4 ADD DUP5 PUSH2 0x2078 JUMP JUMPDEST SWAP4 SWAP3 POP POP POP JUMP JUMPDEST PUSH1 0x0 PUSH1 0x20 DUP3 ADD SWAP1 POP DUP2 DUP2 SUB PUSH1 0x0 DUP4 ADD MSTORE PUSH2 0x212B DUP2 DUP5 PUSH2 0x1E9C JUMP JUMPDEST SWAP1 POP SWAP3 SWAP2 POP POP JUMP JUMPDEST PUSH1 0x0 PUSH1 0x20 DUP3 ADD SWAP1 POP PUSH2 0x2148 PUSH1 0x0 DUP4 ADD DUP5 PUSH2 0x1EFA JUMP JUMPDEST SWAP3 SWAP2 POP POP JUMP JUMPDEST PUSH1 0x0 PUSH1 0x20 DUP3 ADD SWAP1 POP PUSH2 0x2163 PUSH1 0x0 DUP4 ADD DUP5 PUSH2 0x1F09 JUMP JUMPDEST SWAP3 SWAP2 POP POP JUMP JUMPDEST PUSH1 0x0 PUSH1 0x20 DUP3 ADD SWAP1 POP DUP2 DUP2 SUB PUSH1 0x0 DUP4 ADD MSTORE PUSH2 0x2183 DUP2 DUP5 PUSH2 0x1F18 JUMP JUMPDEST SWAP1 POP SWAP3 SWAP2 POP POP JUMP JUMPDEST PUSH1 0x0 PUSH1 0x20 DUP3 ADD SWAP1 POP DUP2 DUP2 SUB PUSH1 0x0 DUP4 ADD MSTORE PUSH2 0x21A4 DUP2 PUSH2 0x1F51 JUMP JUMPDEST SWAP1 POP SWAP2 SWAP1 POP JUMP JUMPDEST PUSH1 0x0 PUSH1 0x20 DUP3 ADD SWAP1 POP DUP2 DUP2 SUB PUSH1 0x0 DUP4 ADD MSTORE PUSH2 0x21C4 DUP2 PUSH2 0x1F74 JUMP JUMPDEST SWAP1 POP SWAP2 SWAP1 POP JUMP JUMPDEST PUSH1 0x0 PUSH1 0x20 DUP3 ADD SWAP1 POP DUP2 DUP2 SUB PUSH1 0x0 DUP4 ADD MSTORE PUSH2 0x21E4 DUP2 PUSH2 0x1F97 JUMP JUMPDEST SWAP1 POP SWAP2 SWAP1 POP JUMP JUMPDEST PUSH1 0x0 PUSH1 0x20 DUP3 ADD SWAP1 POP DUP2 DUP2 SUB PUSH1 0x0 DUP4 ADD MSTORE PUSH2 0x2204 DUP2 PUSH2 0x1FBA JUMP JUMPDEST SWAP1 POP SWAP2 SWAP1 POP JUMP JUMPDEST PUSH1 0x0 PUSH1 0x20 DUP3 ADD SWAP1 POP DUP2 DUP2 SUB PUSH1 0x0 DUP4 ADD MSTORE PUSH2 0x2224 DUP2 PUSH2 0x1FDD JUMP JUMPDEST SWAP1 POP SWAP2 SWAP1 POP JUMP JUMPDEST PUSH1 0x0 PUSH1 0x20 DUP3 ADD SWAP1 POP DUP2 DUP2 SUB PUSH1 0x0 DUP4 ADD MSTORE PUSH2 0x2244 DUP2 PUSH2 0x2000 JUMP JUMPDEST SWAP1 POP SWAP2 SWAP1 POP JUMP JUMPDEST PUSH1 0x0 PUSH1 0x20 DUP3 ADD SWAP1 POP DUP2 DUP2 SUB PUSH1 0x0 DUP4 ADD MSTORE PUSH2 0x2264 DUP2 PUSH2 0x2023 JUMP JUMPDEST SWAP1 POP SWAP2 SWAP1 POP JUMP JUMPDEST PUSH1 0x0 PUSH1 0x20 DUP3 ADD SWAP1 POP DUP2 DUP2 SUB PUSH1 0x0 DUP4 ADD MSTORE PUSH2 0x2284 DUP2 PUSH2 0x2046 JUMP JUMPDEST SWAP1 POP SWAP2 SWAP1 POP JUMP JUMPDEST PUSH1 0x0 PUSH1 0x20 DUP3 ADD SWAP1 POP PUSH2 0x22A0 PUSH1 0x0 DUP4 ADD DUP5 PUSH2 0x2078 JUMP JUMPDEST SWAP3 SWAP2 POP POP JUMP JUMPDEST PUSH1 0x0 PUSH1 0x60 DUP3 ADD SWAP1 POP PUSH2 0x22BB PUSH1 0x0 DUP4 ADD DUP7 PUSH2 0x2078 JUMP JUMPDEST PUSH2 0x22C8 PUSH1 0x20 DUP4 ADD DUP6 PUSH2 0x2078 JUMP JUMPDEST PUSH2 0x22D5 PUSH1 0x40 DUP4 ADD DUP5 PUSH2 0x2078 JUMP JUMPDEST SWAP5 SWAP4 POP POP POP POP JUMP JUMPDEST PUSH1 0x0 PUSH1 0x20 DUP3 ADD SWAP1 POP PUSH2 0x22F2 PUSH1 0x0 DUP4 ADD DUP5 PUSH2 0x2087 JUMP JUMPDEST SWAP3 SWAP2 POP POP JUMP JUMPDEST PUSH1 0x0 DUP2 SWAP1 POP PUSH1 0x20 DUP3 ADD SWAP1 POP SWAP2 SWAP1 POP JUMP JUMPDEST PUSH1 0x0 DUP2 MLOAD SWAP1 POP SWAP2 SWAP1 POP JUMP JUMPDEST PUSH1 0x0 DUP2 MLOAD SWAP1 POP SWAP2 SWAP1 POP JUMP JUMPDEST PUSH1 0x0 PUSH1 0x20 DUP3 ADD SWAP1 POP SWAP2 SWAP1 POP JUMP JUMPDEST PUSH1 0x0 DUP3 DUP3 MSTORE PUSH1 0x20 DUP3 ADD SWAP1 POP SWAP3 SWAP2 POP POP JUMP JUMPDEST PUSH1 0x0 DUP3 DUP3 MSTORE PUSH1 0x20 DUP3 ADD SWAP1 POP SWAP3 SWAP2 POP POP JUMP JUMPDEST PUSH1 0x0 PUSH2 0x2358 DUP3 PUSH2 0x24A0 JUMP JUMPDEST SWAP2 POP PUSH2 0x2363 DUP4 PUSH2 0x24A0 JUMP JUMPDEST SWAP3 POP DUP3 PUSH32 0xFFFFFFFFFFFFFFFFFFFFFFFFFFFFFFFFFFFFFFFFFFFFFFFFFFFFFFFFFFFFFFFF SUB DUP3 GT ISZERO PUSH2 0x2398 JUMPI PUSH2 0x2397 PUSH2 0x25C5 JUMP JUMPDEST JUMPDEST DUP3 DUP3 ADD SWAP1 POP SWAP3 SWAP2 POP POP JUMP JUMPDEST PUSH1 0x0 PUSH2 0x23AE DUP3 PUSH2 0x24A0 JUMP JUMPDEST SWAP2 POP PUSH2 0x23B9 DUP4 PUSH2 0x24A0 JUMP JUMPDEST SWAP3 POP DUP3 PUSH2 0x23C9 JUMPI PUSH2 0x23C8 PUSH2 0x25F4 JUMP JUMPDEST JUMPDEST DUP3 DUP3 DIV SWAP1 POP SWAP3 SWAP2 POP POP JUMP JUMPDEST PUSH1 0x0 PUSH2 0x23DF DUP3 PUSH2 0x24A0 JUMP JUMPDEST SWAP2 POP PUSH2 0x23EA DUP4 PUSH2 0x24A0 JUMP JUMPDEST SWAP3 POP DUP2 PUSH32 0xFFFFFFFFFFFFFFFFFFFFFFFFFFFFFFFFFFFFFFFFFFFFFFFFFFFFFFFFFFFFFFFF DIV DUP4 GT DUP3 ISZERO ISZERO AND ISZERO PUSH2 0x2423 JUMPI PUSH2 0x2422 PUSH2 0x25C5 JUMP JUMPDEST JUMPDEST DUP3 DUP3 MUL SWAP1 POP SWAP3 SWAP2 POP POP JUMP JUMPDEST PUSH1 0x0 PUSH2 0x2439 DUP3 PUSH2 0x24A0 JUMP JUMPDEST SWAP2 POP PUSH2 0x2444 DUP4 PUSH2 0x24A0 JUMP JUMPDEST SWAP3 POP DUP3 DUP3 LT ISZERO PUSH2 0x2457 JUMPI PUSH2 0x2456 PUSH2 0x25C5 JUMP JUMPDEST JUMPDEST DUP3 DUP3 SUB SWAP1 POP SWAP3 SWAP2 POP POP JUMP JUMPDEST PUSH1 0x0 PUSH2 0x246D DUP3 PUSH2 0x2480 JUMP JUMPDEST SWAP1 POP SWAP2 SWAP1 POP JUMP JUMPDEST PUSH1 0x0 DUP2 ISZERO ISZERO SWAP1 POP SWAP2 SWAP1 POP JUMP JUMPDEST PUSH1 0x0 PUSH20 0xFFFFFFFFFFFFFFFFFFFFFFFFFFFFFFFFFFFFFFFF DUP3 AND SWAP1 POP SWAP2 SWAP1 POP JUMP JUMPDEST PUSH1 0x0 DUP2 SWAP1 POP SWAP2 SWAP1 POP JUMP JUMPDEST PUSH1 0x0 PUSH1 0xFF DUP3 AND SWAP1 POP SWAP2 SWAP1 POP JUMP JUMPDEST PUSH1 0x0 PUSH2 0x24C2 DUP3 PUSH2 0x24C9 JUMP JUMPDEST SWAP1 POP SWAP2 SWAP1 POP JUMP JUMPDEST PUSH1 0x0 PUSH2 0x24D4 DUP3 PUSH2 0x24DB JUMP JUMPDEST SWAP1 POP SWAP2 SWAP1 POP JUMP JUMPDEST PUSH1 0x0 PUSH2 0x24E6 DUP3 PUSH2 0x2480 JUMP JUMPDEST SWAP1 POP SWAP2 SWAP1 POP JUMP JUMPDEST PUSH1 0x0 JUMPDEST DUP4 DUP2 LT ISZERO PUSH2 0x250B JUMPI DUP1 DUP3 ADD MLOAD DUP2 DUP5 ADD MSTORE PUSH1 0x20 DUP2 ADD SWAP1 POP PUSH2 0x24F0 JUMP JUMPDEST DUP4 DUP2 GT ISZERO PUSH2 0x251A JUMPI PUSH1 0x0 DUP5 DUP5 ADD MSTORE JUMPDEST POP POP POP POP JUMP JUMPDEST PUSH1 0x0 PUSH2 0x252B DUP3 PUSH2 0x24A0 JUMP JUMPDEST SWAP2 POP PUSH1 0x0 DUP3 EQ ISZERO PUSH2 0x253F JUMPI PUSH2 0x253E PUSH2 0x25C5 JUMP JUMPDEST JUMPDEST PUSH1 0x1 DUP3 SUB SWAP1 POP SWAP2 SWAP1 POP JUMP JUMPDEST PUSH1 0x0 PUSH1 0x2 DUP3 DIV SWAP1 POP PUSH1 0x1 DUP3 AND DUP1 PUSH2 0x2562 JUMPI PUSH1 0x7F DUP3 AND SWAP2 POP JUMPDEST PUSH1 0x20 DUP3 LT DUP2 EQ ISZERO PUSH2 0x2576 JUMPI PUSH2 0x2575 PUSH2 0x2623 JUMP JUMPDEST JUMPDEST POP SWAP2 SWAP1 POP JUMP JUMPDEST PUSH1 0x0 PUSH2 0x2587 DUP3 PUSH2 0x24A0 JUMP JUMPDEST SWAP2 POP PUSH32 0xFFFFFFFFFFFFFFFFFFFFFFFFFFFFFFFFFFFFFFFFFFFFFFFFFFFFFFFFFFFFFFFF DUP3 EQ ISZERO PUSH2 0x25BA JUMPI PUSH2 0x25B9 PUSH2 0x25C5 JUMP JUMPDEST JUMPDEST PUSH1 0x1 DUP3 ADD SWAP1 POP SWAP2 SWAP1 POP JUMP JUMPDEST PUSH32 0x4E487B7100000000000000000000000000000000000000000000000000000000 PUSH1 0x0 MSTORE PUSH1 0x11 PUSH1 0x4 MSTORE PUSH1 0x24 PUSH1 0x0 REVERT JUMPDEST PUSH32 0x4E487B7100000000000000000000000000000000000000000000000000000000 PUSH1 0x0 MSTORE PUSH1 0x12 PUSH1 0x4 MSTORE PUSH1 0x24 PUSH1 0x0 REVERT JUMPDEST PUSH32 0x4E487B7100000000000000000000000000000000000000000000000000000000 PUSH1 0x0 MSTORE PUSH1 0x22 PUSH1 0x4 MSTORE PUSH1 0x24 PUSH1 0x0 REVERT JUMPDEST PUSH32 0x4E487B7100000000000000000000000000000000000000000000000000000000 PUSH1 0x0 MSTORE PUSH1 0x32 PUSH1 0x4 MSTORE PUSH1 0x24 PUSH1 0x0 REVERT JUMPDEST PUSH1 0x0 DUP1 REVERT JUMPDEST PUSH1 0x0 PUSH1 0x1F NOT PUSH1 0x1F DUP4 ADD AND SWAP1 POP SWAP2 SWAP1 POP JUMP JUMPDEST PUSH32 0x4F6E6C79206F776E65722063616E2063616C6C20746869732E00000000000000 PUSH1 0x0 DUP3 ADD MSTORE POP JUMP JUMPDEST PUSH32 0x7472616E7366657220746F20666F756E646174696F6E20666C61736500000000 PUSH1 0x0 DUP3 ADD MSTORE POP JUMP JUMPDEST PUSH32 0x536166654D6174683A207375627472616374696F6E206F766572666C6F770000 PUSH1 0x0 DUP3 ADD MSTORE POP JUMP JUMPDEST PUSH32 0x596F7520646F6E2774206F776E2074686973204E465400000000000000000000 PUSH1 0x0 DUP3 ADD MSTORE POP JUMP JUMPDEST PUSH32 0x496E73756666696369656E742066756E64730000000000000000000000000000 PUSH1 0x0 DUP3 ADD MSTORE POP JUMP JUMPDEST PUSH32 0x596F7520616C7265616479206861766520776974686472617700000000000000 PUSH1 0x0 DUP3 ADD MSTORE POP JUMP JUMPDEST PUSH32 0x74686973206164647265737320686173206265656E20626F756E640000000000 PUSH1 0x0 DUP3 ADD MSTORE POP JUMP JUMPDEST PUSH32 0x536166654D6174683A6469766973696F6E206F766572666C6F77000000000000 PUSH1 0x0 DUP3 ADD MSTORE POP JUMP JUMPDEST PUSH2 0x27E8 DUP2 PUSH2 0x2462 JUMP JUMPDEST DUP2 EQ PUSH2 0x27F3 JUMPI PUSH1 0x0 DUP1 REVERT JUMPDEST POP JUMP JUMPDEST PUSH2 0x27FF DUP2 PUSH2 0x24A0 JUMP JUMPDEST DUP2 EQ PUSH2 0x280A JUMPI PUSH1 0x0 DUP1 REVERT JUMPDEST POP JUMP INVALID LOG2 PUSH5 0x6970667358 0x22 SLT KECCAK256 DUP3 0xD6 PUSH7 0x97B48063C858AA 0x2D PUSH17 0xBDFF37A4BF5D0CFA1528E3D16937CBDF0 DUP15 0xDE SWAP12 PUSH5 0x736F6C6343 STOP ADDMOD SMOD STOP CALLER "
				},
				"gasEstimates": {
					"creation": {
						"codeDepositCost": "2061400",
						"executionCost": "infinite",
						"totalCost": "infinite"
					},
					"external": {
						"allowance(address,address)": "infinite",
						"approve(address,uint256)": "infinite",
						"balanceOf(address)": "2864",
						"bindRecommender(address)": "27386",
						"decimals()": "2516",
						"depositNFT(uint256)": "infinite",
						"loans(address,uint256)": "infinite",
						"loansCount(address)": "infinite",
						"loansList(uint256,uint256,address)": "infinite",
						"loansNumber(address)": "2836",
						"name()": "infinite",
						"nftContract()": "2644",
						"ownerOf(uint256)": "infinite",
						"symbol()": "infinite",
						"totalSupply()": "2519",
						"transfer(address,uint256)": "infinite",
						"transferFrom(address,address,uint256)": "infinite",
						"viewtotalSupply()": "2482",
						"withdrawNFT(uint256)": "infinite"
					},
					"internal": {
						"_bind(address,address)": "24382",
						"_burn(uint256)": "infinite",
						"_transfer(address,uint256,uint256)": "infinite",
						"_transferFrom(address,address,uint256,uint256)": "infinite"
					}
				},
				"methodIdentifiers": {
					"allowance(address,address)": "dd62ed3e",
					"approve(address,uint256)": "095ea7b3",
					"balanceOf(address)": "70a08231",
					"bindRecommender(address)": "48828ec0",
					"decimals()": "313ce567",
					"depositNFT(uint256)": "e91a7ca6",
					"loans(address,uint256)": "98c61c37",
					"loansCount(address)": "ffc49f38",
					"loansList(uint256,uint256,address)": "4fe7abba",
					"loansNumber(address)": "b369ecd7",
					"name()": "06fdde03",
					"nftContract()": "d56d229d",
					"ownerOf(uint256)": "6352211e",
					"symbol()": "95d89b41",
					"totalSupply()": "18160ddd",
					"transfer(address,uint256)": "a9059cbb",
					"transferFrom(address,address,uint256)": "23b872dd",
					"viewtotalSupply()": "8951cf59",
					"withdrawNFT(uint256)": "023245d7"
				}
			},
			"storageLayout": {
				"storage": [
					{
						"astId": 188,
						"contract": "nft-loans/contracts/nft-loan.sol:NGT",
						"label": "name",
						"offset": 0,
						"slot": "0",
						"type": "t_string_storage"
					},
					{
						"astId": 190,
						"contract": "nft-loans/contracts/nft-loan.sol:NGT",
						"label": "symbol",
						"offset": 0,
						"slot": "1",
						"type": "t_string_storage"
					},
					{
						"astId": 193,
						"contract": "nft-loans/contracts/nft-loan.sol:NGT",
						"label": "decimals",
						"offset": 0,
						"slot": "2",
						"type": "t_uint8"
					},
					{
						"astId": 196,
						"contract": "nft-loans/contracts/nft-loan.sol:NGT",
						"label": "totalSupply",
						"offset": 0,
						"slot": "3",
						"type": "t_uint256"
					},
					{
						"astId": 200,
						"contract": "nft-loans/contracts/nft-loan.sol:NGT",
						"label": "balances",
						"offset": 0,
						"slot": "4",
						"type": "t_mapping(t_address,t_uint256)"
					},
					{
						"astId": 206,
						"contract": "nft-loans/contracts/nft-loan.sol:NGT",
						"label": "allowed",
						"offset": 0,
						"slot": "5",
						"type": "t_mapping(t_address,t_mapping(t_address,t_uint256))"
					},
					{
						"astId": 330,
						"contract": "nft-loans/contracts/nft-loan.sol:NGT",
						"label": "tokens",
						"offset": 0,
						"slot": "6",
						"type": "t_mapping(t_uint8,t_struct(TokenInfo)344_storage)"
					},
					{
						"astId": 332,
						"contract": "nft-loans/contracts/nft-loan.sol:NGT",
						"label": "foundation",
						"offset": 0,
						"slot": "7",
						"type": "t_address"
					},
					{
						"astId": 337,
						"contract": "nft-loans/contracts/nft-loan.sol:NGT",
						"label": "details",
						"offset": 0,
						"slot": "8",
						"type": "t_mapping(t_address,t_struct(AddressStatus)351_storage)"
					},
					{
						"astId": 353,
						"contract": "nft-loans/contracts/nft-loan.sol:NGT",
						"label": "owner",
						"offset": 0,
						"slot": "9",
						"type": "t_address"
					},
					{
						"astId": 363,
						"contract": "nft-loans/contracts/nft-loan.sol:NGT",
						"label": "nftContract",
						"offset": 0,
						"slot": "10",
						"type": "t_contract(IERC721)182"
					},
					{
						"astId": 369,
						"contract": "nft-loans/contracts/nft-loan.sol:NGT",
						"label": "loans",
						"offset": 0,
						"slot": "11",
						"type": "t_mapping(t_address,t_array(t_struct(NftLoasInfo)360_storage)dyn_storage)"
					},
					{
						"astId": 373,
						"contract": "nft-loans/contracts/nft-loan.sol:NGT",
						"label": "loansNumber",
						"offset": 0,
						"slot": "12",
						"type": "t_mapping(t_address,t_uint256)"
					},
					{
						"astId": 375,
						"contract": "nft-loans/contracts/nft-loan.sol:NGT",
						"label": "nft",
						"offset": 0,
						"slot": "13",
						"type": "t_address"
					}
				],
				"types": {
					"t_address": {
						"encoding": "inplace",
						"label": "address",
						"numberOfBytes": "20"
					},
					"t_array(t_struct(NftLoasInfo)360_storage)dyn_storage": {
						"base": "t_struct(NftLoasInfo)360_storage",
						"encoding": "dynamic_array",
						"label": "struct NGT.NftLoasInfo[]",
						"numberOfBytes": "32"
					},
					"t_contract(IERC721)182": {
						"encoding": "inplace",
						"label": "contract IERC721",
						"numberOfBytes": "20"
					},
					"t_mapping(t_address,t_array(t_struct(NftLoasInfo)360_storage)dyn_storage)": {
						"encoding": "mapping",
						"key": "t_address",
						"label": "mapping(address => struct NGT.NftLoasInfo[])",
						"numberOfBytes": "32",
						"value": "t_array(t_struct(NftLoasInfo)360_storage)dyn_storage"
					},
					"t_mapping(t_address,t_mapping(t_address,t_uint256))": {
						"encoding": "mapping",
						"key": "t_address",
						"label": "mapping(address => mapping(address => uint256))",
						"numberOfBytes": "32",
						"value": "t_mapping(t_address,t_uint256)"
					},
					"t_mapping(t_address,t_struct(AddressStatus)351_storage)": {
						"encoding": "mapping",
						"key": "t_address",
						"label": "mapping(address => struct NGT.AddressStatus)",
						"numberOfBytes": "32",
						"value": "t_struct(AddressStatus)351_storage"
					},
					"t_mapping(t_address,t_uint256)": {
						"encoding": "mapping",
						"key": "t_address",
						"label": "mapping(address => uint256)",
						"numberOfBytes": "32",
						"value": "t_uint256"
					},
					"t_mapping(t_uint8,t_struct(TokenInfo)344_storage)": {
						"encoding": "mapping",
						"key": "t_uint8",
						"label": "mapping(uint8 => struct NGT.TokenInfo)",
						"numberOfBytes": "32",
						"value": "t_struct(TokenInfo)344_storage"
					},
					"t_string_storage": {
						"encoding": "bytes",
						"label": "string",
						"numberOfBytes": "32"
					},
					"t_struct(AddressStatus)351_storage": {
						"encoding": "inplace",
						"label": "struct NGT.AddressStatus",
						"members": [
							{
								"astId": 346,
								"contract": "nft-loans/contracts/nft-loan.sol:NGT",
								"label": "locked_balances",
								"offset": 0,
								"slot": "0",
								"type": "t_uint256"
							},
							{
								"astId": 348,
								"contract": "nft-loans/contracts/nft-loan.sol:NGT",
								"label": "avilable_balances",
								"offset": 0,
								"slot": "1",
								"type": "t_uint256"
							},
							{
								"astId": 350,
								"contract": "nft-loans/contracts/nft-loan.sol:NGT",
								"label": "recommender",
								"offset": 0,
								"slot": "2",
								"type": "t_address"
							}
						],
						"numberOfBytes": "96"
					},
					"t_struct(NftLoasInfo)360_storage": {
						"encoding": "inplace",
						"label": "struct NGT.NftLoasInfo",
						"members": [
							{
								"astId": 355,
								"contract": "nft-loans/contracts/nft-loan.sol:NGT",
								"label": "tokenId",
								"offset": 0,
								"slot": "0",
								"type": "t_uint256"
							},
							{
								"astId": 357,
								"contract": "nft-loans/contracts/nft-loan.sol:NGT",
								"label": "loanTime",
								"offset": 0,
								"slot": "1",
								"type": "t_uint256"
							},
							{
								"astId": 359,
								"contract": "nft-loans/contracts/nft-loan.sol:NGT",
								"label": "flag",
								"offset": 0,
								"slot": "2",
								"type": "t_uint256"
							}
						],
						"numberOfBytes": "96"
					},
					"t_struct(TokenInfo)344_storage": {
						"encoding": "inplace",
						"label": "struct NGT.TokenInfo",
						"members": [
							{
								"astId": 339,
								"contract": "nft-loans/contracts/nft-loan.sol:NGT",
								"label": "token_name",
								"offset": 0,
								"slot": "0",
								"type": "t_string_storage"
							},
							{
								"astId": 341,
								"contract": "nft-loans/contracts/nft-loan.sol:NGT",
								"label": "token_address",
								"offset": 0,
								"slot": "1",
								"type": "t_address"
							},
							{
								"astId": 343,
								"contract": "nft-loans/contracts/nft-loan.sol:NGT",
								"label": "exchange_rate",
								"offset": 0,
								"slot": "2",
								"type": "t_uint256"
							}
						],
						"numberOfBytes": "96"
					},
					"t_uint256": {
						"encoding": "inplace",
						"label": "uint256",
						"numberOfBytes": "32"
					},
					"t_uint8": {
						"encoding": "inplace",
						"label": "uint8",
						"numberOfBytes": "1"
					}
				}
			},
			"userdoc": {
				"kind": "user",
				"methods": {},
				"version": 1
			}
		}
	}
}