{
	"nft-loans/contracts/nft-loan.sol": {
		"NFTLoan": {
			"abi": [
				{
					"inputs": [
						{
							"internalType": "address",
							"name": "_owner",
							"type": "address"
						}
					],
					"stateMutability": "nonpayable",
					"type": "constructor"
				},
				{
					"inputs": [
						{
							"internalType": "uint256",
							"name": "_tokenId",
							"type": "uint256"
						},
						{
							"internalType": "address",
							"name": "_nftContract",
							"type": "address"
						}
					],
					"name": "depositNFT",
					"outputs": [],
					"stateMutability": "payable",
					"type": "function"
				},
				{
					"inputs": [
						{
							"internalType": "address",
							"name": "",
							"type": "address"
						},
						{
							"internalType": "uint256",
							"name": "",
							"type": "uint256"
						}
					],
					"name": "loans",
					"outputs": [
						{
							"internalType": "uint256",
							"name": "tokenId",
							"type": "uint256"
						},
						{
							"internalType": "uint256",
							"name": "loanTime",
							"type": "uint256"
						},
						{
							"internalType": "uint256",
							"name": "flag",
							"type": "uint256"
						}
					],
					"stateMutability": "view",
					"type": "function"
				},
				{
					"inputs": [],
					"name": "loansCount",
					"outputs": [
						{
							"internalType": "uint256",
							"name": "",
							"type": "uint256"
						}
					],
					"stateMutability": "nonpayable",
					"type": "function"
				},
				{
					"inputs": [
						{
							"internalType": "uint256",
							"name": "start",
							"type": "uint256"
						},
						{
							"internalType": "uint256",
							"name": "limit",
							"type": "uint256"
						},
						{
							"internalType": "address",
							"name": "_nftContract",
							"type": "address"
						}
					],
					"name": "loansList",
					"outputs": [
						{
							"internalType": "uint256[]",
							"name": "",
							"type": "uint256[]"
						}
					],
					"stateMutability": "nonpayable",
					"type": "function"
				},
				{
					"inputs": [
						{
							"internalType": "address",
							"name": "",
							"type": "address"
						}
					],
					"name": "loansNumber",
					"outputs": [
						{
							"internalType": "uint256",
							"name": "",
							"type": "uint256"
						}
					],
					"stateMutability": "view",
					"type": "function"
				},
				{
					"inputs": [],
					"name": "nftContract",
					"outputs": [
						{
							"internalType": "contract IERC721",
							"name": "",
							"type": "address"
						}
					],
					"stateMutability": "view",
					"type": "function"
				},
				{
					"inputs": [
						{
							"internalType": "uint256",
							"name": "_tokenId",
							"type": "uint256"
						},
						{
							"internalType": "address",
							"name": "_nftContract",
							"type": "address"
						}
					],
					"name": "ownerOf",
					"outputs": [
						{
							"internalType": "address",
							"name": "",
							"type": "address"
						}
					],
					"stateMutability": "nonpayable",
					"type": "function"
				},
				{
					"inputs": [
						{
							"internalType": "uint256",
							"name": "_tokenId",
							"type": "uint256"
						},
						{
							"internalType": "address",
							"name": "_nftContract",
							"type": "address"
						}
					],
					"name": "withdrawNFT",
					"outputs": [],
					"stateMutability": "payable",
					"type": "function"
				}
			],
			"devdoc": {
				"kind": "dev",
				"methods": {},
				"version": 1
			},
			"evm": {
				"assembly": "    /* \"nft-loans/contracts/nft-loan.sol\":58:3562  contract NFTLoan {... */\n  mstore(0x40, 0x80)\n    /* \"nft-loans/contracts/nft-loan.sol\":354:410  constructor(address _owner) {... */\n  callvalue\n  dup1\n  iszero\n  tag_1\n  jumpi\n  0x00\n  dup1\n  revert\ntag_1:\n  pop\n  mload(0x40)\n  sub(codesize, bytecodeSize)\n  dup1\n  bytecodeSize\n  dup4\n  codecopy\n  dup2\n  dup2\n  add\n  0x40\n  mstore\n  dup2\n  add\n  swap1\n  tag_2\n  swap2\n  swap1\n  tag_3\n  jump\t// in\ntag_2:\n    /* \"nft-loans/contracts/nft-loan.sol\":396:402  _owner */\n  dup1\n    /* \"nft-loans/contracts/nft-loan.sol\":388:393  owner */\n  0x00\n  dup1\n    /* \"nft-loans/contracts/nft-loan.sol\":388:402  owner = _owner */\n  0x0100\n  exp\n  dup2\n  sload\n  dup2\n  0xffffffffffffffffffffffffffffffffffffffff\n  mul\n  not\n  and\n  swap1\n  dup4\n  0xffffffffffffffffffffffffffffffffffffffff\n  and\n  mul\n  or\n  swap1\n  sstore\n  pop\n    /* \"nft-loans/contracts/nft-loan.sol\":354:410  constructor(address _owner) {... */\n  pop\n    /* \"nft-loans/contracts/nft-loan.sol\":58:3562  contract NFTLoan {... */\n  jump(tag_6)\n    /* \"#utility.yul\":7:150   */\ntag_8:\n    /* \"#utility.yul\":64:69   */\n  0x00\n    /* \"#utility.yul\":95:101   */\n  dup2\n    /* \"#utility.yul\":89:102   */\n  mload\n    /* \"#utility.yul\":80:102   */\n  swap1\n  pop\n    /* \"#utility.yul\":111:144   */\n  tag_10\n    /* \"#utility.yul\":138:143   */\n  dup2\n    /* \"#utility.yul\":111:144   */\n  tag_11\n  jump\t// in\ntag_10:\n    /* \"#utility.yul\":7:150   */\n  swap3\n  swap2\n  pop\n  pop\n  jump\t// out\n    /* \"#utility.yul\":156:507   */\ntag_3:\n    /* \"#utility.yul\":226:232   */\n  0x00\n    /* \"#utility.yul\":275:277   */\n  0x20\n    /* \"#utility.yul\":263:272   */\n  dup3\n    /* \"#utility.yul\":254:261   */\n  dup5\n    /* \"#utility.yul\":250:273   */\n  sub\n    /* \"#utility.yul\":246:278   */\n  slt\n    /* \"#utility.yul\":243:362   */\n  iszero\n  tag_13\n  jumpi\n    /* \"#utility.yul\":281:360   */\n  tag_14\n  tag_15\n  jump\t// in\ntag_14:\n    /* \"#utility.yul\":243:362   */\ntag_13:\n    /* \"#utility.yul\":401:402   */\n  0x00\n    /* \"#utility.yul\":426:490   */\n  tag_16\n    /* \"#utility.yul\":482:489   */\n  dup5\n    /* \"#utility.yul\":473:479   */\n  dup3\n    /* \"#utility.yul\":462:471   */\n  dup6\n    /* \"#utility.yul\":458:480   */\n  add\n    /* \"#utility.yul\":426:490   */\n  tag_8\n  jump\t// in\ntag_16:\n    /* \"#utility.yul\":416:490   */\n  swap2\n  pop\n    /* \"#utility.yul\":372:500   */\n  pop\n    /* \"#utility.yul\":156:507   */\n  swap3\n  swap2\n  pop\n  pop\n  jump\t// out\n    /* \"#utility.yul\":594:690   */\ntag_19:\n    /* \"#utility.yul\":631:638   */\n  0x00\n    /* \"#utility.yul\":660:684   */\n  tag_21\n    /* \"#utility.yul\":678:683   */\n  dup3\n    /* \"#utility.yul\":660:684   */\n  tag_22\n  jump\t// in\ntag_21:\n    /* \"#utility.yul\":649:684   */\n  swap1\n  pop\n    /* \"#utility.yul\":594:690   */\n  swap2\n  swap1\n  pop\n  jump\t// out\n    /* \"#utility.yul\":696:822   */\ntag_22:\n    /* \"#utility.yul\":733:740   */\n  0x00\n    /* \"#utility.yul\":773:815   */\n  0xffffffffffffffffffffffffffffffffffffffff\n    /* \"#utility.yul\":766:771   */\n  dup3\n    /* \"#utility.yul\":762:816   */\n  and\n    /* \"#utility.yul\":751:816   */\n  swap1\n  pop\n    /* \"#utility.yul\":696:822   */\n  swap2\n  swap1\n  pop\n  jump\t// out\n    /* \"#utility.yul\":951:1068   */\ntag_15:\n    /* \"#utility.yul\":1060:1061   */\n  0x00\n    /* \"#utility.yul\":1057:1058   */\n  dup1\n    /* \"#utility.yul\":1050:1062   */\n  revert\n    /* \"#utility.yul\":1074:1196   */\ntag_11:\n    /* \"#utility.yul\":1147:1171   */\n  tag_28\n    /* \"#utility.yul\":1165:1170   */\n  dup2\n    /* \"#utility.yul\":1147:1171   */\n  tag_19\n  jump\t// in\ntag_28:\n    /* \"#utility.yul\":1140:1145   */\n  dup2\n    /* \"#utility.yul\":1137:1172   */\n  eq\n    /* \"#utility.yul\":1127:1190   */\n  tag_29\n  jumpi\n    /* \"#utility.yul\":1186:1187   */\n  0x00\n    /* \"#utility.yul\":1183:1184   */\n  dup1\n    /* \"#utility.yul\":1176:1188   */\n  revert\n    /* \"#utility.yul\":1127:1190   */\ntag_29:\n    /* \"#utility.yul\":1074:1196   */\n  pop\n  jump\t// out\n    /* \"nft-loans/contracts/nft-loan.sol\":58:3562  contract NFTLoan {... */\ntag_6:\n  dataSize(sub_0)\n  dup1\n  dataOffset(sub_0)\n  0x00\n  codecopy\n  0x00\n  return\nstop\n\nsub_0: assembly {\n        /* \"nft-loans/contracts/nft-loan.sol\":58:3562  contract NFTLoan {... */\n      mstore(0x40, 0x80)\n      jumpi(tag_1, lt(calldatasize, 0x04))\n      shr(0xe0, calldataload(0x00))\n      dup1\n      0xab01e4af\n      gt\n      tag_10\n      jumpi\n      dup1\n      0xab01e4af\n      eq\n      tag_6\n      jumpi\n      dup1\n      0xb369ecd7\n      eq\n      tag_7\n      jumpi\n      dup1\n      0xc1d2d00d\n      eq\n      tag_8\n      jumpi\n      dup1\n      0xd56d229d\n      eq\n      tag_9\n      jumpi\n      jump(tag_1)\n    tag_10:\n      dup1\n      0xf74867\n      eq\n      tag_2\n      jumpi\n      dup1\n      0x4fe7abba\n      eq\n      tag_3\n      jumpi\n      dup1\n      0x98c61c37\n      eq\n      tag_4\n      jumpi\n      dup1\n      0x9d11ed75\n      eq\n      tag_5\n      jumpi\n    tag_1:\n      0x00\n      dup1\n      revert\n        /* \"nft-loans/contracts/nft-loan.sol\":2308:2506  function ownerOf(uint256  _tokenId,address _nftContract) public returns (address){... */\n    tag_2:\n      callvalue\n      dup1\n      iszero\n      tag_11\n      jumpi\n      0x00\n      dup1\n      revert\n    tag_11:\n      pop\n      tag_12\n      0x04\n      dup1\n      calldatasize\n      sub\n      dup2\n      add\n      swap1\n      tag_13\n      swap2\n      swap1\n      tag_14\n      jump\t// in\n    tag_13:\n      tag_15\n      jump\t// in\n    tag_12:\n      mload(0x40)\n      tag_16\n      swap2\n      swap1\n      tag_17\n      jump\t// in\n    tag_16:\n      mload(0x40)\n      dup1\n      swap2\n      sub\n      swap1\n      return\n        /* \"nft-loans/contracts/nft-loan.sol\":2507:3120  function loansList(uint start,uint limit,address _nftContract) public returns (uint256[] memory){... */\n    tag_3:\n      callvalue\n      dup1\n      iszero\n      tag_18\n      jumpi\n      0x00\n      dup1\n      revert\n    tag_18:\n      pop\n      tag_19\n      0x04\n      dup1\n      calldatasize\n      sub\n      dup2\n      add\n      swap1\n      tag_20\n      swap2\n      swap1\n      tag_21\n      jump\t// in\n    tag_20:\n      tag_22\n      jump\t// in\n    tag_19:\n      mload(0x40)\n      tag_23\n      swap2\n      swap1\n      tag_24\n      jump\t// in\n    tag_23:\n      mload(0x40)\n      dup1\n      swap2\n      sub\n      swap1\n      return\n        /* \"nft-loans/contracts/nft-loan.sol\":247:294  mapping (address => NftLoasInfo[]) public loans */\n    tag_4:\n      callvalue\n      dup1\n      iszero\n      tag_25\n      jumpi\n      0x00\n      dup1\n      revert\n    tag_25:\n      pop\n      tag_26\n      0x04\n      dup1\n      calldatasize\n      sub\n      dup2\n      add\n      swap1\n      tag_27\n      swap2\n      swap1\n      tag_28\n      jump\t// in\n    tag_27:\n      tag_29\n      jump\t// in\n    tag_26:\n      mload(0x40)\n      tag_30\n      swap4\n      swap3\n      swap2\n      swap1\n      tag_31\n      jump\t// in\n    tag_30:\n      mload(0x40)\n      dup1\n      swap2\n      sub\n      swap1\n      return\n        /* \"nft-loans/contracts/nft-loan.sol\":3121:3412  function loansCount() public returns (uint256){... */\n    tag_5:\n      callvalue\n      dup1\n      iszero\n      tag_32\n      jumpi\n      0x00\n      dup1\n      revert\n    tag_32:\n      pop\n      tag_33\n      tag_34\n      jump\t// in\n    tag_33:\n      mload(0x40)\n      tag_35\n      swap2\n      swap1\n      tag_36\n      jump\t// in\n    tag_35:\n      mload(0x40)\n      dup1\n      swap2\n      sub\n      swap1\n      return\n        /* \"nft-loans/contracts/nft-loan.sol\":1174:1813  function depositNFT(uint256  _tokenId,address _nftContract) external payable {... */\n    tag_6:\n      tag_37\n      0x04\n      dup1\n      calldatasize\n      sub\n      dup2\n      add\n      swap1\n      tag_38\n      swap2\n      swap1\n      tag_14\n      jump\t// in\n    tag_38:\n      tag_39\n      jump\t// in\n    tag_37:\n      stop\n        /* \"nft-loans/contracts/nft-loan.sol\":300:347  mapping (address => uint256) public loansNumber */\n    tag_7:\n      callvalue\n      dup1\n      iszero\n      tag_40\n      jumpi\n      0x00\n      dup1\n      revert\n    tag_40:\n      pop\n      tag_41\n      0x04\n      dup1\n      calldatasize\n      sub\n      dup2\n      add\n      swap1\n      tag_42\n      swap2\n      swap1\n      tag_43\n      jump\t// in\n    tag_42:\n      tag_44\n      jump\t// in\n    tag_41:\n      mload(0x40)\n      tag_45\n      swap2\n      swap1\n      tag_36\n      jump\t// in\n    tag_45:\n      mload(0x40)\n      dup1\n      swap2\n      sub\n      swap1\n      return\n        /* \"nft-loans/contracts/nft-loan.sol\":1826:2307  function withdrawNFT(uint256 _tokenId,address _nftContract) external payable {... */\n    tag_8:\n      tag_46\n      0x04\n      dup1\n      calldatasize\n      sub\n      dup2\n      add\n      swap1\n      tag_47\n      swap2\n      swap1\n      tag_14\n      jump\t// in\n    tag_47:\n      tag_48\n      jump\t// in\n    tag_46:\n      stop\n        /* \"nft-loans/contracts/nft-loan.sol\":215:241  IERC721 public nftContract */\n    tag_9:\n      callvalue\n      dup1\n      iszero\n      tag_49\n      jumpi\n      0x00\n      dup1\n      revert\n    tag_49:\n      pop\n      tag_50\n      tag_51\n      jump\t// in\n    tag_50:\n      mload(0x40)\n      tag_52\n      swap2\n      swap1\n      tag_53\n      jump\t// in\n    tag_52:\n      mload(0x40)\n      dup1\n      swap2\n      sub\n      swap1\n      return\n        /* \"nft-loans/contracts/nft-loan.sol\":2308:2506  function ownerOf(uint256  _tokenId,address _nftContract) public returns (address){... */\n    tag_15:\n        /* \"nft-loans/contracts/nft-loan.sol\":2381:2388  address */\n      0x00\n        /* \"nft-loans/contracts/nft-loan.sol\":2429:2441  _nftContract */\n      dup2\n        /* \"nft-loans/contracts/nft-loan.sol\":2407:2418  nftContract */\n      0x01\n      0x00\n        /* \"nft-loans/contracts/nft-loan.sol\":2407:2442  nftContract = IERC721(_nftContract) */\n      0x0100\n      exp\n      dup2\n      sload\n      dup2\n      0xffffffffffffffffffffffffffffffffffffffff\n      mul\n      not\n      and\n      swap1\n      dup4\n      0xffffffffffffffffffffffffffffffffffffffff\n      and\n      mul\n      or\n      swap1\n      sstore\n      pop\n        /* \"nft-loans/contracts/nft-loan.sol\":2467:2478  nftContract */\n      0x01\n      0x00\n      swap1\n      sload\n      swap1\n      0x0100\n      exp\n      swap1\n      div\n      0xffffffffffffffffffffffffffffffffffffffff\n      and\n        /* \"nft-loans/contracts/nft-loan.sol\":2467:2486  nftContract.ownerOf */\n      0xffffffffffffffffffffffffffffffffffffffff\n      and\n      0x6352211e\n        /* \"nft-loans/contracts/nft-loan.sol\":2487:2495  _tokenId */\n      dup5\n        /* \"nft-loans/contracts/nft-loan.sol\":2467:2496  nftContract.ownerOf(_tokenId) */\n      mload(0x40)\n      dup3\n      0xffffffff\n      and\n      0xe0\n      shl\n      dup2\n      mstore\n      0x04\n      add\n      tag_55\n      swap2\n      swap1\n      tag_36\n      jump\t// in\n    tag_55:\n      0x20\n      mload(0x40)\n      dup1\n      dup4\n      sub\n      dup2\n      dup7\n      dup1\n      extcodesize\n      iszero\n      dup1\n      iszero\n      tag_56\n      jumpi\n      0x00\n      dup1\n      revert\n    tag_56:\n      pop\n      gas\n      staticcall\n      iszero\n      dup1\n      iszero\n      tag_58\n      jumpi\n      returndatasize\n      0x00\n      dup1\n      returndatacopy\n      revert(0x00, returndatasize)\n    tag_58:\n      pop\n      pop\n      pop\n      pop\n      mload(0x40)\n      returndatasize\n      not(0x1f)\n      0x1f\n      dup3\n      add\n      and\n      dup3\n      add\n      dup1\n      0x40\n      mstore\n      pop\n      dup2\n      add\n      swap1\n      tag_59\n      swap2\n      swap1\n      tag_60\n      jump\t// in\n    tag_59:\n        /* \"nft-loans/contracts/nft-loan.sol\":2460:2496  return nftContract.ownerOf(_tokenId) */\n      swap1\n      pop\n        /* \"nft-loans/contracts/nft-loan.sol\":2308:2506  function ownerOf(uint256  _tokenId,address _nftContract) public returns (address){... */\n      swap3\n      swap2\n      pop\n      pop\n      jump\t// out\n        /* \"nft-loans/contracts/nft-loan.sol\":2507:3120  function loansList(uint start,uint limit,address _nftContract) public returns (uint256[] memory){... */\n    tag_22:\n        /* \"nft-loans/contracts/nft-loan.sol\":2586:2602  uint256[] memory */\n      0x60\n        /* \"nft-loans/contracts/nft-loan.sol\":2631:2643  _nftContract */\n      dup2\n        /* \"nft-loans/contracts/nft-loan.sol\":2609:2620  nftContract */\n      0x01\n      0x00\n        /* \"nft-loans/contracts/nft-loan.sol\":2609:2644  nftContract = IERC721(_nftContract) */\n      0x0100\n      exp\n      dup2\n      sload\n      dup2\n      0xffffffffffffffffffffffffffffffffffffffff\n      mul\n      not\n      and\n      swap1\n      dup4\n      0xffffffffffffffffffffffffffffffffffffffff\n      and\n      mul\n      or\n      swap1\n      sstore\n      pop\n        /* \"nft-loans/contracts/nft-loan.sol\":2650:2666  uint256 nowNumer */\n      0x00\n        /* \"nft-loans/contracts/nft-loan.sol\":2669:2680  loansNumber */\n      0x03\n        /* \"nft-loans/contracts/nft-loan.sol\":2669:2692  loansNumber[msg.sender] */\n      0x00\n        /* \"nft-loans/contracts/nft-loan.sol\":2681:2691  msg.sender */\n      caller\n        /* \"nft-loans/contracts/nft-loan.sol\":2669:2692  loansNumber[msg.sender] */\n      0xffffffffffffffffffffffffffffffffffffffff\n      and\n      0xffffffffffffffffffffffffffffffffffffffff\n      and\n      dup2\n      mstore\n      0x20\n      add\n      swap1\n      dup2\n      mstore\n      0x20\n      add\n      0x00\n      keccak256\n      sload\n        /* \"nft-loans/contracts/nft-loan.sol\":2650:2692  uint256 nowNumer = loansNumber[msg.sender] */\n      swap1\n      pop\n        /* \"nft-loans/contracts/nft-loan.sol\":2698:2704  uint l */\n      0x00\n        /* \"nft-loans/contracts/nft-loan.sol\":2714:2735  uint256[] memory list */\n      0x60\n        /* \"nft-loans/contracts/nft-loan.sol\":2746:2752  uint i */\n      0x00\n        /* \"nft-loans/contracts/nft-loan.sol\":2741:3101  for (uint i = 0; i < nowNumer; ++i ) {... */\n    tag_62:\n        /* \"nft-loans/contracts/nft-loan.sol\":2762:2770  nowNumer */\n      dup4\n        /* \"nft-loans/contracts/nft-loan.sol\":2758:2759  i */\n      dup2\n        /* \"nft-loans/contracts/nft-loan.sol\":2758:2770  i < nowNumer */\n      lt\n        /* \"nft-loans/contracts/nft-loan.sol\":2741:3101  for (uint i = 0; i < nowNumer; ++i ) {... */\n      iszero\n      tag_63\n      jumpi\n        /* \"nft-loans/contracts/nft-loan.sol\":2824:2825  1 */\n      0x01\n        /* \"nft-loans/contracts/nft-loan.sol\":2795:2800  loans */\n      0x02\n        /* \"nft-loans/contracts/nft-loan.sol\":2795:2812  loans[msg.sender] */\n      0x00\n        /* \"nft-loans/contracts/nft-loan.sol\":2801:2811  msg.sender */\n      caller\n        /* \"nft-loans/contracts/nft-loan.sol\":2795:2812  loans[msg.sender] */\n      0xffffffffffffffffffffffffffffffffffffffff\n      and\n      0xffffffffffffffffffffffffffffffffffffffff\n      and\n      dup2\n      mstore\n      0x20\n      add\n      swap1\n      dup2\n      mstore\n      0x20\n      add\n      0x00\n      keccak256\n        /* \"nft-loans/contracts/nft-loan.sol\":2813:2814  i */\n      dup3\n        /* \"nft-loans/contracts/nft-loan.sol\":2795:2815  loans[msg.sender][i] */\n      dup2\n      sload\n      dup2\n      lt\n      tag_65\n      jumpi\n      tag_66\n      tag_67\n      jump\t// in\n    tag_66:\n    tag_65:\n      swap1\n      0x00\n      mstore\n      keccak256(0x00, 0x20)\n      swap1\n      0x03\n      mul\n      add\n        /* \"nft-loans/contracts/nft-loan.sol\":2795:2820  loans[msg.sender][i].flag */\n      0x02\n      add\n      sload\n        /* \"nft-loans/contracts/nft-loan.sol\":2795:2825  loans[msg.sender][i].flag == 1 */\n      eq\n        /* \"nft-loans/contracts/nft-loan.sol\":2792:3080  if(loans[msg.sender][i].flag == 1){... */\n      iszero\n      tag_69\n      jumpi\n        /* \"nft-loans/contracts/nft-loan.sol\":2853:2858  start */\n      dup8\n        /* \"nft-loans/contracts/nft-loan.sol\":2848:2849  l */\n      dup4\n        /* \"nft-loans/contracts/nft-loan.sol\":2848:2858  l >= start */\n      lt\n      iszero\n        /* \"nft-loans/contracts/nft-loan.sol\":2848:2879  l >= start && l < start + limit */\n      dup1\n      iszero\n      tag_70\n      jumpi\n      pop\n        /* \"nft-loans/contracts/nft-loan.sol\":2874:2879  limit */\n      dup7\n        /* \"nft-loans/contracts/nft-loan.sol\":2866:2871  start */\n      dup9\n        /* \"nft-loans/contracts/nft-loan.sol\":2866:2879  start + limit */\n      tag_71\n      swap2\n      swap1\n      tag_72\n      jump\t// in\n    tag_71:\n        /* \"nft-loans/contracts/nft-loan.sol\":2862:2863  l */\n      dup4\n        /* \"nft-loans/contracts/nft-loan.sol\":2862:2879  l < start + limit */\n      lt\n        /* \"nft-loans/contracts/nft-loan.sol\":2848:2879  l >= start && l < start + limit */\n    tag_70:\n        /* \"nft-loans/contracts/nft-loan.sol\":2844:2976  if (l >= start && l < start + limit){... */\n      iszero\n      tag_73\n      jumpi\n        /* \"nft-loans/contracts/nft-loan.sol\":2908:2913  loans */\n      0x02\n        /* \"nft-loans/contracts/nft-loan.sol\":2908:2925  loans[msg.sender] */\n      0x00\n        /* \"nft-loans/contracts/nft-loan.sol\":2914:2924  msg.sender */\n      caller\n        /* \"nft-loans/contracts/nft-loan.sol\":2908:2925  loans[msg.sender] */\n      0xffffffffffffffffffffffffffffffffffffffff\n      and\n      0xffffffffffffffffffffffffffffffffffffffff\n      and\n      dup2\n      mstore\n      0x20\n      add\n      swap1\n      dup2\n      mstore\n      0x20\n      add\n      0x00\n      keccak256\n        /* \"nft-loans/contracts/nft-loan.sol\":2926:2927  i */\n      dup2\n        /* \"nft-loans/contracts/nft-loan.sol\":2908:2928  loans[msg.sender][i] */\n      dup2\n      sload\n      dup2\n      lt\n      tag_74\n      jumpi\n      tag_75\n      tag_67\n      jump\t// in\n    tag_75:\n    tag_74:\n      swap1\n      0x00\n      mstore\n      keccak256(0x00, 0x20)\n      swap1\n      0x03\n      mul\n      add\n        /* \"nft-loans/contracts/nft-loan.sol\":2908:2936  loans[msg.sender][i].tokenId */\n      0x00\n      add\n      sload\n        /* \"nft-loans/contracts/nft-loan.sol\":2898:2902  list */\n      dup3\n        /* \"nft-loans/contracts/nft-loan.sol\":2903:2904  l */\n      dup5\n        /* \"nft-loans/contracts/nft-loan.sol\":2898:2905  list[l] */\n      dup2\n      mload\n      dup2\n      lt\n      tag_77\n      jumpi\n      tag_78\n      tag_67\n      jump\t// in\n    tag_78:\n    tag_77:\n      0x20\n      mul\n      0x20\n      add\n      add\n        /* \"nft-loans/contracts/nft-loan.sol\":2898:2936  list[l] = loans[msg.sender][i].tokenId */\n      dup2\n      dup2\n      mstore\n      pop\n      pop\n        /* \"nft-loans/contracts/nft-loan.sol\":2954:2957  l++ */\n      dup3\n      dup1\n      tag_79\n      swap1\n      tag_80\n      jump\t// in\n    tag_79:\n      swap4\n      pop\n      pop\n        /* \"nft-loans/contracts/nft-loan.sol\":2844:2976  if (l >= start && l < start + limit){... */\n    tag_73:\n        /* \"nft-loans/contracts/nft-loan.sol\":3008:3013  limit */\n      dup7\n        /* \"nft-loans/contracts/nft-loan.sol\":3000:3005  start */\n      dup9\n        /* \"nft-loans/contracts/nft-loan.sol\":3000:3013  start + limit */\n      tag_81\n      swap2\n      swap1\n      tag_72\n      jump\t// in\n    tag_81:\n        /* \"nft-loans/contracts/nft-loan.sol\":2996:2997  l */\n      dup4\n        /* \"nft-loans/contracts/nft-loan.sol\":2996:3013  l > start + limit */\n      gt\n        /* \"nft-loans/contracts/nft-loan.sol\":2993:3066  if(l > start + limit){... */\n      iszero\n      tag_82\n      jumpi\n        /* \"nft-loans/contracts/nft-loan.sol\":3043:3047  list */\n      dup2\n        /* \"nft-loans/contracts/nft-loan.sol\":3036:3047  return list */\n      swap5\n      pop\n      pop\n      pop\n      pop\n      pop\n      jump(tag_61)\n        /* \"nft-loans/contracts/nft-loan.sol\":2993:3066  if(l > start + limit){... */\n    tag_82:\n        /* \"nft-loans/contracts/nft-loan.sol\":2792:3080  if(loans[msg.sender][i].flag == 1){... */\n    tag_69:\n        /* \"nft-loans/contracts/nft-loan.sol\":2772:2775  ++i */\n      dup1\n      tag_83\n      swap1\n      tag_80\n      jump\t// in\n    tag_83:\n      swap1\n      pop\n        /* \"nft-loans/contracts/nft-loan.sol\":2741:3101  for (uint i = 0; i < nowNumer; ++i ) {... */\n      jump(tag_62)\n    tag_63:\n      pop\n        /* \"nft-loans/contracts/nft-loan.sol\":3113:3117  list */\n      dup1\n        /* \"nft-loans/contracts/nft-loan.sol\":3106:3117  return list */\n      swap4\n      pop\n      pop\n      pop\n      pop\n        /* \"nft-loans/contracts/nft-loan.sol\":2507:3120  function loansList(uint start,uint limit,address _nftContract) public returns (uint256[] memory){... */\n    tag_61:\n      swap4\n      swap3\n      pop\n      pop\n      pop\n      jump\t// out\n        /* \"nft-loans/contracts/nft-loan.sol\":247:294  mapping (address => NftLoasInfo[]) public loans */\n    tag_29:\n      mstore(0x20, 0x02)\n      dup2\n      0x00\n      mstore\n      keccak256(0x00, 0x40)\n      dup2\n      dup2\n      sload\n      dup2\n      lt\n      tag_84\n      jumpi\n      0x00\n      dup1\n      revert\n    tag_84:\n      swap1\n      0x00\n      mstore\n      keccak256(0x00, 0x20)\n      swap1\n      0x03\n      mul\n      add\n      0x00\n      swap2\n      pop\n      swap2\n      pop\n      pop\n      dup1\n      0x00\n      add\n      sload\n      swap1\n      dup1\n      0x01\n      add\n      sload\n      swap1\n      dup1\n      0x02\n      add\n      sload\n      swap1\n      pop\n      dup4\n      jump\t// out\n        /* \"nft-loans/contracts/nft-loan.sol\":3121:3412  function loansCount() public returns (uint256){... */\n    tag_34:\n        /* \"nft-loans/contracts/nft-loan.sol\":3159:3166  uint256 */\n      0x00\n        /* \"nft-loans/contracts/nft-loan.sol\":3173:3189  uint256 nowNumer */\n      dup1\n        /* \"nft-loans/contracts/nft-loan.sol\":3192:3203  loansNumber */\n      0x03\n        /* \"nft-loans/contracts/nft-loan.sol\":3192:3215  loansNumber[msg.sender] */\n      0x00\n        /* \"nft-loans/contracts/nft-loan.sol\":3204:3214  msg.sender */\n      caller\n        /* \"nft-loans/contracts/nft-loan.sol\":3192:3215  loansNumber[msg.sender] */\n      0xffffffffffffffffffffffffffffffffffffffff\n      and\n      0xffffffffffffffffffffffffffffffffffffffff\n      and\n      dup2\n      mstore\n      0x20\n      add\n      swap1\n      dup2\n      mstore\n      0x20\n      add\n      0x00\n      keccak256\n      sload\n        /* \"nft-loans/contracts/nft-loan.sol\":3173:3215  uint256 nowNumer = loansNumber[msg.sender] */\n      swap1\n      pop\n        /* \"nft-loans/contracts/nft-loan.sol\":3226:3232  uint i */\n      0x00\n        /* \"nft-loans/contracts/nft-loan.sol\":3221:3389  for (uint i = 0; i < nowNumer; ++i ) {... */\n    tag_87:\n        /* \"nft-loans/contracts/nft-loan.sol\":3242:3250  nowNumer */\n      dup2\n        /* \"nft-loans/contracts/nft-loan.sol\":3238:3239  i */\n      dup2\n        /* \"nft-loans/contracts/nft-loan.sol\":3238:3250  i < nowNumer */\n      lt\n        /* \"nft-loans/contracts/nft-loan.sol\":3221:3389  for (uint i = 0; i < nowNumer; ++i ) {... */\n      iszero\n      tag_88\n      jumpi\n        /* \"nft-loans/contracts/nft-loan.sol\":3304:3305  0 */\n      0x00\n        /* \"nft-loans/contracts/nft-loan.sol\":3275:3280  loans */\n      0x02\n        /* \"nft-loans/contracts/nft-loan.sol\":3275:3292  loans[msg.sender] */\n      0x00\n        /* \"nft-loans/contracts/nft-loan.sol\":3281:3291  msg.sender */\n      caller\n        /* \"nft-loans/contracts/nft-loan.sol\":3275:3292  loans[msg.sender] */\n      0xffffffffffffffffffffffffffffffffffffffff\n      and\n      0xffffffffffffffffffffffffffffffffffffffff\n      and\n      dup2\n      mstore\n      0x20\n      add\n      swap1\n      dup2\n      mstore\n      0x20\n      add\n      0x00\n      keccak256\n        /* \"nft-loans/contracts/nft-loan.sol\":3293:3294  i */\n      dup3\n        /* \"nft-loans/contracts/nft-loan.sol\":3275:3295  loans[msg.sender][i] */\n      dup2\n      sload\n      dup2\n      lt\n      tag_90\n      jumpi\n      tag_91\n      tag_67\n      jump\t// in\n    tag_91:\n    tag_90:\n      swap1\n      0x00\n      mstore\n      keccak256(0x00, 0x20)\n      swap1\n      0x03\n      mul\n      add\n        /* \"nft-loans/contracts/nft-loan.sol\":3275:3300  loans[msg.sender][i].flag */\n      0x02\n      add\n      sload\n        /* \"nft-loans/contracts/nft-loan.sol\":3275:3305  loans[msg.sender][i].flag == 0 */\n      eq\n        /* \"nft-loans/contracts/nft-loan.sol\":3272:3353  if(loans[msg.sender][i].flag == 0){... */\n      iszero\n      tag_93\n      jumpi\n        /* \"nft-loans/contracts/nft-loan.sol\":3324:3334  nowNumer-- */\n      dup2\n      dup1\n      tag_94\n      swap1\n      tag_95\n      jump\t// in\n    tag_94:\n      swap3\n      pop\n      pop\n        /* \"nft-loans/contracts/nft-loan.sol\":3272:3353  if(loans[msg.sender][i].flag == 0){... */\n    tag_93:\n        /* \"nft-loans/contracts/nft-loan.sol\":3252:3255  ++i */\n      dup1\n      tag_96\n      swap1\n      tag_80\n      jump\t// in\n    tag_96:\n      swap1\n      pop\n        /* \"nft-loans/contracts/nft-loan.sol\":3221:3389  for (uint i = 0; i < nowNumer; ++i ) {... */\n      jump(tag_87)\n    tag_88:\n      pop\n        /* \"nft-loans/contracts/nft-loan.sol\":3401:3409  nowNumer */\n      dup1\n        /* \"nft-loans/contracts/nft-loan.sol\":3394:3409  return nowNumer */\n      swap2\n      pop\n      pop\n        /* \"nft-loans/contracts/nft-loan.sol\":3121:3412  function loansCount() public returns (uint256){... */\n      swap1\n      jump\t// out\n        /* \"nft-loans/contracts/nft-loan.sol\":1174:1813  function depositNFT(uint256  _tokenId,address _nftContract) external payable {... */\n    tag_39:\n        /* \"nft-loans/contracts/nft-loan.sol\":1292:1304  _nftContract */\n      dup1\n        /* \"nft-loans/contracts/nft-loan.sol\":1270:1281  nftContract */\n      0x01\n      0x00\n        /* \"nft-loans/contracts/nft-loan.sol\":1270:1305  nftContract = IERC721(_nftContract) */\n      0x0100\n      exp\n      dup2\n      sload\n      dup2\n      0xffffffffffffffffffffffffffffffffffffffff\n      mul\n      not\n      and\n      swap1\n      dup4\n      0xffffffffffffffffffffffffffffffffffffffff\n      and\n      mul\n      or\n      swap1\n      sstore\n      pop\n        /* \"nft-loans/contracts/nft-loan.sol\":1364:1374  msg.sender */\n      caller\n        /* \"nft-loans/contracts/nft-loan.sol\":1331:1374  nftContract.ownerOf(_tokenId) == msg.sender */\n      0xffffffffffffffffffffffffffffffffffffffff\n      and\n        /* \"nft-loans/contracts/nft-loan.sol\":1331:1342  nftContract */\n      0x01\n      0x00\n      swap1\n      sload\n      swap1\n      0x0100\n      exp\n      swap1\n      div\n      0xffffffffffffffffffffffffffffffffffffffff\n      and\n        /* \"nft-loans/contracts/nft-loan.sol\":1331:1350  nftContract.ownerOf */\n      0xffffffffffffffffffffffffffffffffffffffff\n      and\n      0x6352211e\n        /* \"nft-loans/contracts/nft-loan.sol\":1351:1359  _tokenId */\n      dup5\n        /* \"nft-loans/contracts/nft-loan.sol\":1331:1360  nftContract.ownerOf(_tokenId) */\n      mload(0x40)\n      dup3\n      0xffffffff\n      and\n      0xe0\n      shl\n      dup2\n      mstore\n      0x04\n      add\n      tag_98\n      swap2\n      swap1\n      tag_36\n      jump\t// in\n    tag_98:\n      0x20\n      mload(0x40)\n      dup1\n      dup4\n      sub\n      dup2\n      dup7\n      dup1\n      extcodesize\n      iszero\n      dup1\n      iszero\n      tag_99\n      jumpi\n      0x00\n      dup1\n      revert\n    tag_99:\n      pop\n      gas\n      staticcall\n      iszero\n      dup1\n      iszero\n      tag_101\n      jumpi\n      returndatasize\n      0x00\n      dup1\n      returndatacopy\n      revert(0x00, returndatasize)\n    tag_101:\n      pop\n      pop\n      pop\n      pop\n      mload(0x40)\n      returndatasize\n      not(0x1f)\n      0x1f\n      dup3\n      add\n      and\n      dup3\n      add\n      dup1\n      0x40\n      mstore\n      pop\n      dup2\n      add\n      swap1\n      tag_102\n      swap2\n      swap1\n      tag_60\n      jump\t// in\n    tag_102:\n        /* \"nft-loans/contracts/nft-loan.sol\":1331:1374  nftContract.ownerOf(_tokenId) == msg.sender */\n      0xffffffffffffffffffffffffffffffffffffffff\n      and\n      eq\n        /* \"nft-loans/contracts/nft-loan.sol\":1323:1401  require(nftContract.ownerOf(_tokenId) == msg.sender, \"You don't own this NFT\") */\n      tag_103\n      jumpi\n      mload(0x40)\n      0x08c379a000000000000000000000000000000000000000000000000000000000\n      dup2\n      mstore\n      0x04\n      add\n      tag_104\n      swap1\n      tag_105\n      jump\t// in\n    tag_104:\n      mload(0x40)\n      dup1\n      swap2\n      sub\n      swap1\n      revert\n    tag_103:\n        /* \"nft-loans/contracts/nft-loan.sol\":1419:1446  NftLoasInfo memory newLoans */\n      tag_106\n      tag_107\n      jump\t// in\n    tag_106:\n        /* \"nft-loans/contracts/nft-loan.sol\":1464:1480  uint256 nowNumer */\n      0x00\n        /* \"nft-loans/contracts/nft-loan.sol\":1483:1494  loansNumber */\n      0x03\n        /* \"nft-loans/contracts/nft-loan.sol\":1483:1506  loansNumber[msg.sender] */\n      0x00\n        /* \"nft-loans/contracts/nft-loan.sol\":1495:1505  msg.sender */\n      caller\n        /* \"nft-loans/contracts/nft-loan.sol\":1483:1506  loansNumber[msg.sender] */\n      0xffffffffffffffffffffffffffffffffffffffff\n      and\n      0xffffffffffffffffffffffffffffffffffffffff\n      and\n      dup2\n      mstore\n      0x20\n      add\n      swap1\n      dup2\n      mstore\n      0x20\n      add\n      0x00\n      keccak256\n      sload\n        /* \"nft-loans/contracts/nft-loan.sol\":1464:1506  uint256 nowNumer = loansNumber[msg.sender] */\n      swap1\n      pop\n        /* \"nft-loans/contracts/nft-loan.sol\":1543:1551  _tokenId */\n      dup4\n        /* \"nft-loans/contracts/nft-loan.sol\":1524:1532  newLoans */\n      dup3\n        /* \"nft-loans/contracts/nft-loan.sol\":1524:1540  newLoans.tokenId */\n      0x00\n      add\n        /* \"nft-loans/contracts/nft-loan.sol\":1524:1551  newLoans.tokenId = _tokenId */\n      dup2\n      dup2\n      mstore\n      pop\n      pop\n        /* \"nft-loans/contracts/nft-loan.sol\":1589:1604  block.timestamp */\n      timestamp\n        /* \"nft-loans/contracts/nft-loan.sol\":1569:1577  newLoans */\n      dup3\n        /* \"nft-loans/contracts/nft-loan.sol\":1569:1586  newLoans.loanTime */\n      0x20\n      add\n        /* \"nft-loans/contracts/nft-loan.sol\":1569:1604  newLoans.loanTime = block.timestamp */\n      dup2\n      dup2\n      mstore\n      pop\n      pop\n        /* \"nft-loans/contracts/nft-loan.sol\":1638:1639  1 */\n      0x01\n        /* \"nft-loans/contracts/nft-loan.sol\":1622:1630  newLoans */\n      dup3\n        /* \"nft-loans/contracts/nft-loan.sol\":1622:1635  newLoans.flag */\n      0x40\n      add\n        /* \"nft-loans/contracts/nft-loan.sol\":1622:1639  newLoans.flag = 1 */\n      dup2\n      dup2\n      mstore\n      pop\n      pop\n        /* \"nft-loans/contracts/nft-loan.sol\":1687:1695  newLoans */\n      dup2\n        /* \"nft-loans/contracts/nft-loan.sol\":1657:1662  loans */\n      0x02\n        /* \"nft-loans/contracts/nft-loan.sol\":1657:1674  loans[msg.sender] */\n      0x00\n        /* \"nft-loans/contracts/nft-loan.sol\":1663:1673  msg.sender */\n      caller\n        /* \"nft-loans/contracts/nft-loan.sol\":1657:1674  loans[msg.sender] */\n      0xffffffffffffffffffffffffffffffffffffffff\n      and\n      0xffffffffffffffffffffffffffffffffffffffff\n      and\n      dup2\n      mstore\n      0x20\n      add\n      swap1\n      dup2\n      mstore\n      0x20\n      add\n      0x00\n      keccak256\n        /* \"nft-loans/contracts/nft-loan.sol\":1675:1683  nowNumer */\n      dup3\n        /* \"nft-loans/contracts/nft-loan.sol\":1657:1684  loans[msg.sender][nowNumer] */\n      dup2\n      sload\n      dup2\n      lt\n      tag_108\n      jumpi\n      tag_109\n      tag_67\n      jump\t// in\n    tag_109:\n    tag_108:\n      swap1\n      0x00\n      mstore\n      keccak256(0x00, 0x20)\n      swap1\n      0x03\n      mul\n      add\n        /* \"nft-loans/contracts/nft-loan.sol\":1657:1695  loans[msg.sender][nowNumer] = newLoans */\n      0x00\n      dup3\n      add\n      mload\n      dup2\n      0x00\n      add\n      sstore\n      0x20\n      dup3\n      add\n      mload\n      dup2\n      0x01\n      add\n      sstore\n      0x40\n      dup3\n      add\n      mload\n      dup2\n      0x02\n      add\n      sstore\n      swap1\n      pop\n      pop\n        /* \"nft-loans/contracts/nft-loan.sol\":1740:1741  1 */\n      0x01\n        /* \"nft-loans/contracts/nft-loan.sol\":1713:1724  loansNumber */\n      0x03\n        /* \"nft-loans/contracts/nft-loan.sol\":1713:1736  loansNumber[msg.sender] */\n      0x00\n        /* \"nft-loans/contracts/nft-loan.sol\":1725:1735  msg.sender */\n      caller\n        /* \"nft-loans/contracts/nft-loan.sol\":1713:1736  loansNumber[msg.sender] */\n      0xffffffffffffffffffffffffffffffffffffffff\n      and\n      0xffffffffffffffffffffffffffffffffffffffff\n      and\n      dup2\n      mstore\n      0x20\n      add\n      swap1\n      dup2\n      mstore\n      0x20\n      add\n      0x00\n      keccak256\n      0x00\n        /* \"nft-loans/contracts/nft-loan.sol\":1713:1741  loansNumber[msg.sender] += 1 */\n      dup3\n      dup3\n      sload\n      tag_111\n      swap2\n      swap1\n      tag_72\n      jump\t// in\n    tag_111:\n      swap3\n      pop\n      pop\n      dup2\n      swap1\n      sstore\n      pop\n        /* \"nft-loans/contracts/nft-loan.sol\":1759:1770  nftContract */\n      0x01\n      0x00\n      swap1\n      sload\n      swap1\n      0x0100\n      exp\n      swap1\n      div\n      0xffffffffffffffffffffffffffffffffffffffff\n      and\n        /* \"nft-loans/contracts/nft-loan.sol\":1759:1778  nftContract.approve */\n      0xffffffffffffffffffffffffffffffffffffffff\n      and\n      0x095ea7b3\n        /* \"nft-loans/contracts/nft-loan.sol\":1787:1791  this */\n      address\n        /* \"nft-loans/contracts/nft-loan.sol\":1794:1802  _tokenId */\n      dup7\n        /* \"nft-loans/contracts/nft-loan.sol\":1759:1803  nftContract.approve(address(this), _tokenId) */\n      mload(0x40)\n      dup4\n      0xffffffff\n      and\n      0xe0\n      shl\n      dup2\n      mstore\n      0x04\n      add\n      tag_112\n      swap3\n      swap2\n      swap1\n      tag_113\n      jump\t// in\n    tag_112:\n      0x00\n      mload(0x40)\n      dup1\n      dup4\n      sub\n      dup2\n      0x00\n      dup8\n      dup1\n      extcodesize\n      iszero\n      dup1\n      iszero\n      tag_114\n      jumpi\n      0x00\n      dup1\n      revert\n    tag_114:\n      pop\n      gas\n      call\n      iszero\n      dup1\n      iszero\n      tag_116\n      jumpi\n      returndatasize\n      0x00\n      dup1\n      returndatacopy\n      revert(0x00, returndatasize)\n    tag_116:\n      pop\n      pop\n      pop\n      pop\n        /* \"nft-loans/contracts/nft-loan.sol\":1251:1813  {... */\n      pop\n      pop\n        /* \"nft-loans/contracts/nft-loan.sol\":1174:1813  function depositNFT(uint256  _tokenId,address _nftContract) external payable {... */\n      pop\n      pop\n      jump\t// out\n        /* \"nft-loans/contracts/nft-loan.sol\":300:347  mapping (address => uint256) public loansNumber */\n    tag_44:\n      mstore(0x20, 0x03)\n      dup1\n      0x00\n      mstore\n      keccak256(0x00, 0x40)\n      0x00\n      swap2\n      pop\n      swap1\n      pop\n      sload\n      dup2\n      jump\t// out\n        /* \"nft-loans/contracts/nft-loan.sol\":1826:2307  function withdrawNFT(uint256 _tokenId,address _nftContract) external payable {... */\n    tag_48:\n        /* \"nft-loans/contracts/nft-loan.sol\":1931:1943  _nftContract */\n      dup1\n        /* \"nft-loans/contracts/nft-loan.sol\":1909:1920  nftContract */\n      0x01\n      0x00\n        /* \"nft-loans/contracts/nft-loan.sol\":1909:1944  nftContract = IERC721(_nftContract) */\n      0x0100\n      exp\n      dup2\n      sload\n      dup2\n      0xffffffffffffffffffffffffffffffffffffffff\n      mul\n      not\n      and\n      swap1\n      dup4\n      0xffffffffffffffffffffffffffffffffffffffff\n      and\n      mul\n      or\n      swap1\n      sstore\n      pop\n        /* \"nft-loans/contracts/nft-loan.sol\":1950:1966  uint256 nowNumer */\n      0x00\n        /* \"nft-loans/contracts/nft-loan.sol\":1969:1980  loansNumber */\n      0x03\n        /* \"nft-loans/contracts/nft-loan.sol\":1969:1992  loansNumber[msg.sender] */\n      0x00\n        /* \"nft-loans/contracts/nft-loan.sol\":1981:1991  msg.sender */\n      caller\n        /* \"nft-loans/contracts/nft-loan.sol\":1969:1992  loansNumber[msg.sender] */\n      0xffffffffffffffffffffffffffffffffffffffff\n      and\n      0xffffffffffffffffffffffffffffffffffffffff\n      and\n      dup2\n      mstore\n      0x20\n      add\n      swap1\n      dup2\n      mstore\n      0x20\n      add\n      0x00\n      keccak256\n      sload\n        /* \"nft-loans/contracts/nft-loan.sol\":1950:1992  uint256 nowNumer = loansNumber[msg.sender] */\n      swap1\n      pop\n        /* \"nft-loans/contracts/nft-loan.sol\":2003:2009  uint i */\n      0x00\n        /* \"nft-loans/contracts/nft-loan.sol\":1998:2301  for (uint i = 0; i < nowNumer; ++i ) {... */\n    tag_118:\n        /* \"nft-loans/contracts/nft-loan.sol\":2019:2027  nowNumer */\n      dup2\n        /* \"nft-loans/contracts/nft-loan.sol\":2015:2016  i */\n      dup2\n        /* \"nft-loans/contracts/nft-loan.sol\":2015:2027  i < nowNumer */\n      lt\n        /* \"nft-loans/contracts/nft-loan.sol\":1998:2301  for (uint i = 0; i < nowNumer; ++i ) {... */\n      iszero\n      tag_119\n      jumpi\n        /* \"nft-loans/contracts/nft-loan.sol\":2081:2089  _tokenId */\n      dup4\n        /* \"nft-loans/contracts/nft-loan.sol\":2049:2054  loans */\n      0x02\n        /* \"nft-loans/contracts/nft-loan.sol\":2049:2066  loans[msg.sender] */\n      0x00\n        /* \"nft-loans/contracts/nft-loan.sol\":2055:2065  msg.sender */\n      caller\n        /* \"nft-loans/contracts/nft-loan.sol\":2049:2066  loans[msg.sender] */\n      0xffffffffffffffffffffffffffffffffffffffff\n      and\n      0xffffffffffffffffffffffffffffffffffffffff\n      and\n      dup2\n      mstore\n      0x20\n      add\n      swap1\n      dup2\n      mstore\n      0x20\n      add\n      0x00\n      keccak256\n        /* \"nft-loans/contracts/nft-loan.sol\":2067:2068  i */\n      dup3\n        /* \"nft-loans/contracts/nft-loan.sol\":2049:2069  loans[msg.sender][i] */\n      dup2\n      sload\n      dup2\n      lt\n      tag_121\n      jumpi\n      tag_122\n      tag_67\n      jump\t// in\n    tag_122:\n    tag_121:\n      swap1\n      0x00\n      mstore\n      keccak256(0x00, 0x20)\n      swap1\n      0x03\n      mul\n      add\n        /* \"nft-loans/contracts/nft-loan.sol\":2049:2077  loans[msg.sender][i].tokenId */\n      0x00\n      add\n      sload\n        /* \"nft-loans/contracts/nft-loan.sol\":2049:2089  loans[msg.sender][i].tokenId == _tokenId */\n      eq\n        /* \"nft-loans/contracts/nft-loan.sol\":2045:2295  if (loans[msg.sender][i].tokenId == _tokenId) {... */\n      iszero\n      tag_124\n      jumpi\n        /* \"nft-loans/contracts/nft-loan.sol\":2142:2143  1 */\n      0x01\n        /* \"nft-loans/contracts/nft-loan.sol\":2113:2118  loans */\n      0x02\n        /* \"nft-loans/contracts/nft-loan.sol\":2113:2130  loans[msg.sender] */\n      0x00\n        /* \"nft-loans/contracts/nft-loan.sol\":2119:2129  msg.sender */\n      caller\n        /* \"nft-loans/contracts/nft-loan.sol\":2113:2130  loans[msg.sender] */\n      0xffffffffffffffffffffffffffffffffffffffff\n      and\n      0xffffffffffffffffffffffffffffffffffffffff\n      and\n      dup2\n      mstore\n      0x20\n      add\n      swap1\n      dup2\n      mstore\n      0x20\n      add\n      0x00\n      keccak256\n        /* \"nft-loans/contracts/nft-loan.sol\":2131:2132  i */\n      dup3\n        /* \"nft-loans/contracts/nft-loan.sol\":2113:2133  loans[msg.sender][i] */\n      dup2\n      sload\n      dup2\n      lt\n      tag_125\n      jumpi\n      tag_126\n      tag_67\n      jump\t// in\n    tag_126:\n    tag_125:\n      swap1\n      0x00\n      mstore\n      keccak256(0x00, 0x20)\n      swap1\n      0x03\n      mul\n      add\n        /* \"nft-loans/contracts/nft-loan.sol\":2113:2138  loans[msg.sender][i].flag */\n      0x02\n      add\n      sload\n        /* \"nft-loans/contracts/nft-loan.sol\":2113:2143  loans[msg.sender][i].flag == 1 */\n      eq\n        /* \"nft-loans/contracts/nft-loan.sol\":2105:2173  require(loans[msg.sender][i].flag == 1, \"You already have withdraw\") */\n      tag_128\n      jumpi\n      mload(0x40)\n      0x08c379a000000000000000000000000000000000000000000000000000000000\n      dup2\n      mstore\n      0x04\n      add\n      tag_129\n      swap1\n      tag_130\n      jump\t// in\n    tag_129:\n      mload(0x40)\n      dup1\n      swap2\n      sub\n      swap1\n      revert\n    tag_128:\n        /* \"nft-loans/contracts/nft-loan.sol\":2227:2228  0 */\n      0x00\n        /* \"nft-loans/contracts/nft-loan.sol\":2191:2196  loans */\n      0x02\n        /* \"nft-loans/contracts/nft-loan.sol\":2191:2208  loans[msg.sender] */\n      0x00\n        /* \"nft-loans/contracts/nft-loan.sol\":2197:2207  msg.sender */\n      caller\n        /* \"nft-loans/contracts/nft-loan.sol\":2191:2208  loans[msg.sender] */\n      0xffffffffffffffffffffffffffffffffffffffff\n      and\n      0xffffffffffffffffffffffffffffffffffffffff\n      and\n      dup2\n      mstore\n      0x20\n      add\n      swap1\n      dup2\n      mstore\n      0x20\n      add\n      0x00\n      keccak256\n        /* \"nft-loans/contracts/nft-loan.sol\":2209:2217  _tokenId */\n      dup6\n        /* \"nft-loans/contracts/nft-loan.sol\":2191:2218  loans[msg.sender][_tokenId] */\n      dup2\n      sload\n      dup2\n      lt\n      tag_131\n      jumpi\n      tag_132\n      tag_67\n      jump\t// in\n    tag_132:\n    tag_131:\n      swap1\n      0x00\n      mstore\n      keccak256(0x00, 0x20)\n      swap1\n      0x03\n      mul\n      add\n        /* \"nft-loans/contracts/nft-loan.sol\":2191:2223  loans[msg.sender][_tokenId].flag */\n      0x02\n      add\n        /* \"nft-loans/contracts/nft-loan.sol\":2191:2228  loans[msg.sender][_tokenId].flag  = 0 */\n      dup2\n      swap1\n      sstore\n      pop\n        /* \"nft-loans/contracts/nft-loan.sol\":2243:2254  nftContract */\n      0x01\n      0x00\n      swap1\n      sload\n      swap1\n      0x0100\n      exp\n      swap1\n      div\n      0xffffffffffffffffffffffffffffffffffffffff\n      and\n        /* \"nft-loans/contracts/nft-loan.sol\":2243:2262  nftContract.approve */\n      0xffffffffffffffffffffffffffffffffffffffff\n      and\n      0x095ea7b3\n        /* \"nft-loans/contracts/nft-loan.sol\":2263:2273  msg.sender */\n      caller\n        /* \"nft-loans/contracts/nft-loan.sol\":2275:2283  _tokenId */\n      dup7\n        /* \"nft-loans/contracts/nft-loan.sol\":2243:2284  nftContract.approve(msg.sender, _tokenId) */\n      mload(0x40)\n      dup4\n      0xffffffff\n      and\n      0xe0\n      shl\n      dup2\n      mstore\n      0x04\n      add\n      tag_134\n      swap3\n      swap2\n      swap1\n      tag_113\n      jump\t// in\n    tag_134:\n      0x00\n      mload(0x40)\n      dup1\n      dup4\n      sub\n      dup2\n      0x00\n      dup8\n      dup1\n      extcodesize\n      iszero\n      dup1\n      iszero\n      tag_135\n      jumpi\n      0x00\n      dup1\n      revert\n    tag_135:\n      pop\n      gas\n      call\n      iszero\n      dup1\n      iszero\n      tag_137\n      jumpi\n      returndatasize\n      0x00\n      dup1\n      returndatacopy\n      revert(0x00, returndatasize)\n    tag_137:\n      pop\n      pop\n      pop\n      pop\n        /* \"nft-loans/contracts/nft-loan.sol\":2045:2295  if (loans[msg.sender][i].tokenId == _tokenId) {... */\n    tag_124:\n        /* \"nft-loans/contracts/nft-loan.sol\":2029:2032  ++i */\n      dup1\n      tag_138\n      swap1\n      tag_80\n      jump\t// in\n    tag_138:\n      swap1\n      pop\n        /* \"nft-loans/contracts/nft-loan.sol\":1998:2301  for (uint i = 0; i < nowNumer; ++i ) {... */\n      jump(tag_118)\n    tag_119:\n      pop\n        /* \"nft-loans/contracts/nft-loan.sol\":1903:2307  {... */\n      pop\n        /* \"nft-loans/contracts/nft-loan.sol\":1826:2307  function withdrawNFT(uint256 _tokenId,address _nftContract) external payable {... */\n      pop\n      pop\n      jump\t// out\n        /* \"nft-loans/contracts/nft-loan.sol\":215:241  IERC721 public nftContract */\n    tag_51:\n      0x01\n      0x00\n      swap1\n      sload\n      swap1\n      0x0100\n      exp\n      swap1\n      div\n      0xffffffffffffffffffffffffffffffffffffffff\n      and\n      dup2\n      jump\t// out\n    tag_107:\n      mload(0x40)\n      dup1\n      0x60\n      add\n      0x40\n      mstore\n      dup1\n      0x00\n      dup2\n      mstore\n      0x20\n      add\n      0x00\n      dup2\n      mstore\n      0x20\n      add\n      0x00\n      dup2\n      mstore\n      pop\n      swap1\n      jump\t// out\n        /* \"#utility.yul\":7:146   */\n    tag_140:\n        /* \"#utility.yul\":53:58   */\n      0x00\n        /* \"#utility.yul\":91:97   */\n      dup2\n        /* \"#utility.yul\":78:98   */\n      calldataload\n        /* \"#utility.yul\":69:98   */\n      swap1\n      pop\n        /* \"#utility.yul\":107:140   */\n      tag_142\n        /* \"#utility.yul\":134:139   */\n      dup2\n        /* \"#utility.yul\":107:140   */\n      tag_143\n      jump\t// in\n    tag_142:\n        /* \"#utility.yul\":7:146   */\n      swap3\n      swap2\n      pop\n      pop\n      jump\t// out\n        /* \"#utility.yul\":152:295   */\n    tag_144:\n        /* \"#utility.yul\":209:214   */\n      0x00\n        /* \"#utility.yul\":240:246   */\n      dup2\n        /* \"#utility.yul\":234:247   */\n      mload\n        /* \"#utility.yul\":225:247   */\n      swap1\n      pop\n        /* \"#utility.yul\":256:289   */\n      tag_146\n        /* \"#utility.yul\":283:288   */\n      dup2\n        /* \"#utility.yul\":256:289   */\n      tag_143\n      jump\t// in\n    tag_146:\n        /* \"#utility.yul\":152:295   */\n      swap3\n      swap2\n      pop\n      pop\n      jump\t// out\n        /* \"#utility.yul\":301:440   */\n    tag_147:\n        /* \"#utility.yul\":347:352   */\n      0x00\n        /* \"#utility.yul\":385:391   */\n      dup2\n        /* \"#utility.yul\":372:392   */\n      calldataload\n        /* \"#utility.yul\":363:392   */\n      swap1\n      pop\n        /* \"#utility.yul\":401:434   */\n      tag_149\n        /* \"#utility.yul\":428:433   */\n      dup2\n        /* \"#utility.yul\":401:434   */\n      tag_150\n      jump\t// in\n    tag_149:\n        /* \"#utility.yul\":301:440   */\n      swap3\n      swap2\n      pop\n      pop\n      jump\t// out\n        /* \"#utility.yul\":446:775   */\n    tag_43:\n        /* \"#utility.yul\":505:511   */\n      0x00\n        /* \"#utility.yul\":554:556   */\n      0x20\n        /* \"#utility.yul\":542:551   */\n      dup3\n        /* \"#utility.yul\":533:540   */\n      dup5\n        /* \"#utility.yul\":529:552   */\n      sub\n        /* \"#utility.yul\":525:557   */\n      slt\n        /* \"#utility.yul\":522:641   */\n      iszero\n      tag_152\n      jumpi\n        /* \"#utility.yul\":560:639   */\n      tag_153\n      tag_154\n      jump\t// in\n    tag_153:\n        /* \"#utility.yul\":522:641   */\n    tag_152:\n        /* \"#utility.yul\":680:681   */\n      0x00\n        /* \"#utility.yul\":705:758   */\n      tag_155\n        /* \"#utility.yul\":750:757   */\n      dup5\n        /* \"#utility.yul\":741:747   */\n      dup3\n        /* \"#utility.yul\":730:739   */\n      dup6\n        /* \"#utility.yul\":726:748   */\n      add\n        /* \"#utility.yul\":705:758   */\n      tag_140\n      jump\t// in\n    tag_155:\n        /* \"#utility.yul\":695:758   */\n      swap2\n      pop\n        /* \"#utility.yul\":651:768   */\n      pop\n        /* \"#utility.yul\":446:775   */\n      swap3\n      swap2\n      pop\n      pop\n      jump\t// out\n        /* \"#utility.yul\":781:1132   */\n    tag_60:\n        /* \"#utility.yul\":851:857   */\n      0x00\n        /* \"#utility.yul\":900:902   */\n      0x20\n        /* \"#utility.yul\":888:897   */\n      dup3\n        /* \"#utility.yul\":879:886   */\n      dup5\n        /* \"#utility.yul\":875:898   */\n      sub\n        /* \"#utility.yul\":871:903   */\n      slt\n        /* \"#utility.yul\":868:987   */\n      iszero\n      tag_157\n      jumpi\n        /* \"#utility.yul\":906:985   */\n      tag_158\n      tag_154\n      jump\t// in\n    tag_158:\n        /* \"#utility.yul\":868:987   */\n    tag_157:\n        /* \"#utility.yul\":1026:1027   */\n      0x00\n        /* \"#utility.yul\":1051:1115   */\n      tag_159\n        /* \"#utility.yul\":1107:1114   */\n      dup5\n        /* \"#utility.yul\":1098:1104   */\n      dup3\n        /* \"#utility.yul\":1087:1096   */\n      dup6\n        /* \"#utility.yul\":1083:1105   */\n      add\n        /* \"#utility.yul\":1051:1115   */\n      tag_144\n      jump\t// in\n    tag_159:\n        /* \"#utility.yul\":1041:1115   */\n      swap2\n      pop\n        /* \"#utility.yul\":997:1125   */\n      pop\n        /* \"#utility.yul\":781:1132   */\n      swap3\n      swap2\n      pop\n      pop\n      jump\t// out\n        /* \"#utility.yul\":1138:1612   */\n    tag_28:\n        /* \"#utility.yul\":1206:1212   */\n      0x00\n        /* \"#utility.yul\":1214:1220   */\n      dup1\n        /* \"#utility.yul\":1263:1265   */\n      0x40\n        /* \"#utility.yul\":1251:1260   */\n      dup4\n        /* \"#utility.yul\":1242:1249   */\n      dup6\n        /* \"#utility.yul\":1238:1261   */\n      sub\n        /* \"#utility.yul\":1234:1266   */\n      slt\n        /* \"#utility.yul\":1231:1350   */\n      iszero\n      tag_161\n      jumpi\n        /* \"#utility.yul\":1269:1348   */\n      tag_162\n      tag_154\n      jump\t// in\n    tag_162:\n        /* \"#utility.yul\":1231:1350   */\n    tag_161:\n        /* \"#utility.yul\":1389:1390   */\n      0x00\n        /* \"#utility.yul\":1414:1467   */\n      tag_163\n        /* \"#utility.yul\":1459:1466   */\n      dup6\n        /* \"#utility.yul\":1450:1456   */\n      dup3\n        /* \"#utility.yul\":1439:1448   */\n      dup7\n        /* \"#utility.yul\":1435:1457   */\n      add\n        /* \"#utility.yul\":1414:1467   */\n      tag_140\n      jump\t// in\n    tag_163:\n        /* \"#utility.yul\":1404:1467   */\n      swap3\n      pop\n        /* \"#utility.yul\":1360:1477   */\n      pop\n        /* \"#utility.yul\":1516:1518   */\n      0x20\n        /* \"#utility.yul\":1542:1595   */\n      tag_164\n        /* \"#utility.yul\":1587:1594   */\n      dup6\n        /* \"#utility.yul\":1578:1584   */\n      dup3\n        /* \"#utility.yul\":1567:1576   */\n      dup7\n        /* \"#utility.yul\":1563:1585   */\n      add\n        /* \"#utility.yul\":1542:1595   */\n      tag_147\n      jump\t// in\n    tag_164:\n        /* \"#utility.yul\":1532:1595   */\n      swap2\n      pop\n        /* \"#utility.yul\":1487:1605   */\n      pop\n        /* \"#utility.yul\":1138:1612   */\n      swap3\n      pop\n      swap3\n      swap1\n      pop\n      jump\t// out\n        /* \"#utility.yul\":1618:2092   */\n    tag_14:\n        /* \"#utility.yul\":1686:1692   */\n      0x00\n        /* \"#utility.yul\":1694:1700   */\n      dup1\n        /* \"#utility.yul\":1743:1745   */\n      0x40\n        /* \"#utility.yul\":1731:1740   */\n      dup4\n        /* \"#utility.yul\":1722:1729   */\n      dup6\n        /* \"#utility.yul\":1718:1741   */\n      sub\n        /* \"#utility.yul\":1714:1746   */\n      slt\n        /* \"#utility.yul\":1711:1830   */\n      iszero\n      tag_166\n      jumpi\n        /* \"#utility.yul\":1749:1828   */\n      tag_167\n      tag_154\n      jump\t// in\n    tag_167:\n        /* \"#utility.yul\":1711:1830   */\n    tag_166:\n        /* \"#utility.yul\":1869:1870   */\n      0x00\n        /* \"#utility.yul\":1894:1947   */\n      tag_168\n        /* \"#utility.yul\":1939:1946   */\n      dup6\n        /* \"#utility.yul\":1930:1936   */\n      dup3\n        /* \"#utility.yul\":1919:1928   */\n      dup7\n        /* \"#utility.yul\":1915:1937   */\n      add\n        /* \"#utility.yul\":1894:1947   */\n      tag_147\n      jump\t// in\n    tag_168:\n        /* \"#utility.yul\":1884:1947   */\n      swap3\n      pop\n        /* \"#utility.yul\":1840:1957   */\n      pop\n        /* \"#utility.yul\":1996:1998   */\n      0x20\n        /* \"#utility.yul\":2022:2075   */\n      tag_169\n        /* \"#utility.yul\":2067:2074   */\n      dup6\n        /* \"#utility.yul\":2058:2064   */\n      dup3\n        /* \"#utility.yul\":2047:2056   */\n      dup7\n        /* \"#utility.yul\":2043:2065   */\n      add\n        /* \"#utility.yul\":2022:2075   */\n      tag_140\n      jump\t// in\n    tag_169:\n        /* \"#utility.yul\":2012:2075   */\n      swap2\n      pop\n        /* \"#utility.yul\":1967:2085   */\n      pop\n        /* \"#utility.yul\":1618:2092   */\n      swap3\n      pop\n      swap3\n      swap1\n      pop\n      jump\t// out\n        /* \"#utility.yul\":2098:2717   */\n    tag_21:\n        /* \"#utility.yul\":2175:2181   */\n      0x00\n        /* \"#utility.yul\":2183:2189   */\n      dup1\n        /* \"#utility.yul\":2191:2197   */\n      0x00\n        /* \"#utility.yul\":2240:2242   */\n      0x60\n        /* \"#utility.yul\":2228:2237   */\n      dup5\n        /* \"#utility.yul\":2219:2226   */\n      dup7\n        /* \"#utility.yul\":2215:2238   */\n      sub\n        /* \"#utility.yul\":2211:2243   */\n      slt\n        /* \"#utility.yul\":2208:2327   */\n      iszero\n      tag_171\n      jumpi\n        /* \"#utility.yul\":2246:2325   */\n      tag_172\n      tag_154\n      jump\t// in\n    tag_172:\n        /* \"#utility.yul\":2208:2327   */\n    tag_171:\n        /* \"#utility.yul\":2366:2367   */\n      0x00\n        /* \"#utility.yul\":2391:2444   */\n      tag_173\n        /* \"#utility.yul\":2436:2443   */\n      dup7\n        /* \"#utility.yul\":2427:2433   */\n      dup3\n        /* \"#utility.yul\":2416:2425   */\n      dup8\n        /* \"#utility.yul\":2412:2434   */\n      add\n        /* \"#utility.yul\":2391:2444   */\n      tag_147\n      jump\t// in\n    tag_173:\n        /* \"#utility.yul\":2381:2444   */\n      swap4\n      pop\n        /* \"#utility.yul\":2337:2454   */\n      pop\n        /* \"#utility.yul\":2493:2495   */\n      0x20\n        /* \"#utility.yul\":2519:2572   */\n      tag_174\n        /* \"#utility.yul\":2564:2571   */\n      dup7\n        /* \"#utility.yul\":2555:2561   */\n      dup3\n        /* \"#utility.yul\":2544:2553   */\n      dup8\n        /* \"#utility.yul\":2540:2562   */\n      add\n        /* \"#utility.yul\":2519:2572   */\n      tag_147\n      jump\t// in\n    tag_174:\n        /* \"#utility.yul\":2509:2572   */\n      swap3\n      pop\n        /* \"#utility.yul\":2464:2582   */\n      pop\n        /* \"#utility.yul\":2621:2623   */\n      0x40\n        /* \"#utility.yul\":2647:2700   */\n      tag_175\n        /* \"#utility.yul\":2692:2699   */\n      dup7\n        /* \"#utility.yul\":2683:2689   */\n      dup3\n        /* \"#utility.yul\":2672:2681   */\n      dup8\n        /* \"#utility.yul\":2668:2690   */\n      add\n        /* \"#utility.yul\":2647:2700   */\n      tag_140\n      jump\t// in\n    tag_175:\n        /* \"#utility.yul\":2637:2700   */\n      swap2\n      pop\n        /* \"#utility.yul\":2592:2710   */\n      pop\n        /* \"#utility.yul\":2098:2717   */\n      swap3\n      pop\n      swap3\n      pop\n      swap3\n      jump\t// out\n        /* \"#utility.yul\":2723:2902   */\n    tag_176:\n        /* \"#utility.yul\":2792:2802   */\n      0x00\n        /* \"#utility.yul\":2813:2859   */\n      tag_178\n        /* \"#utility.yul\":2855:2858   */\n      dup4\n        /* \"#utility.yul\":2847:2853   */\n      dup4\n        /* \"#utility.yul\":2813:2859   */\n      tag_179\n      jump\t// in\n    tag_178:\n        /* \"#utility.yul\":2891:2895   */\n      0x20\n        /* \"#utility.yul\":2886:2889   */\n      dup4\n        /* \"#utility.yul\":2882:2896   */\n      add\n        /* \"#utility.yul\":2868:2896   */\n      swap1\n      pop\n        /* \"#utility.yul\":2723:2902   */\n      swap3\n      swap2\n      pop\n      pop\n      jump\t// out\n        /* \"#utility.yul\":2908:3026   */\n    tag_180:\n        /* \"#utility.yul\":2995:3019   */\n      tag_182\n        /* \"#utility.yul\":3013:3018   */\n      dup2\n        /* \"#utility.yul\":2995:3019   */\n      tag_183\n      jump\t// in\n    tag_182:\n        /* \"#utility.yul\":2990:2993   */\n      dup3\n        /* \"#utility.yul\":2983:3020   */\n      mstore\n        /* \"#utility.yul\":2908:3026   */\n      pop\n      pop\n      jump\t// out\n        /* \"#utility.yul\":3062:3794   */\n    tag_184:\n        /* \"#utility.yul\":3181:3184   */\n      0x00\n        /* \"#utility.yul\":3210:3264   */\n      tag_186\n        /* \"#utility.yul\":3258:3263   */\n      dup3\n        /* \"#utility.yul\":3210:3264   */\n      tag_187\n      jump\t// in\n    tag_186:\n        /* \"#utility.yul\":3280:3366   */\n      tag_188\n        /* \"#utility.yul\":3359:3365   */\n      dup2\n        /* \"#utility.yul\":3354:3357   */\n      dup6\n        /* \"#utility.yul\":3280:3366   */\n      tag_189\n      jump\t// in\n    tag_188:\n        /* \"#utility.yul\":3273:3366   */\n      swap4\n      pop\n        /* \"#utility.yul\":3390:3446   */\n      tag_190\n        /* \"#utility.yul\":3440:3445   */\n      dup4\n        /* \"#utility.yul\":3390:3446   */\n      tag_191\n      jump\t// in\n    tag_190:\n        /* \"#utility.yul\":3469:3476   */\n      dup1\n        /* \"#utility.yul\":3500:3501   */\n      0x00\n        /* \"#utility.yul\":3485:3769   */\n    tag_192:\n        /* \"#utility.yul\":3510:3516   */\n      dup4\n        /* \"#utility.yul\":3507:3508   */\n      dup2\n        /* \"#utility.yul\":3504:3517   */\n      lt\n        /* \"#utility.yul\":3485:3769   */\n      iszero\n      tag_194\n      jumpi\n        /* \"#utility.yul\":3586:3592   */\n      dup2\n        /* \"#utility.yul\":3580:3593   */\n      mload\n        /* \"#utility.yul\":3613:3676   */\n      tag_195\n        /* \"#utility.yul\":3672:3675   */\n      dup9\n        /* \"#utility.yul\":3657:3670   */\n      dup3\n        /* \"#utility.yul\":3613:3676   */\n      tag_176\n      jump\t// in\n    tag_195:\n        /* \"#utility.yul\":3606:3676   */\n      swap8\n      pop\n        /* \"#utility.yul\":3699:3759   */\n      tag_196\n        /* \"#utility.yul\":3752:3758   */\n      dup4\n        /* \"#utility.yul\":3699:3759   */\n      tag_197\n      jump\t// in\n    tag_196:\n        /* \"#utility.yul\":3689:3759   */\n      swap3\n      pop\n        /* \"#utility.yul\":3545:3769   */\n      pop\n        /* \"#utility.yul\":3532:3533   */\n      0x01\n        /* \"#utility.yul\":3529:3530   */\n      dup2\n        /* \"#utility.yul\":3525:3534   */\n      add\n        /* \"#utility.yul\":3520:3534   */\n      swap1\n      pop\n        /* \"#utility.yul\":3485:3769   */\n      jump(tag_192)\n    tag_194:\n        /* \"#utility.yul\":3489:3503   */\n      pop\n        /* \"#utility.yul\":3785:3788   */\n      dup6\n        /* \"#utility.yul\":3778:3788   */\n      swap4\n      pop\n        /* \"#utility.yul\":3186:3794   */\n      pop\n      pop\n      pop\n        /* \"#utility.yul\":3062:3794   */\n      swap3\n      swap2\n      pop\n      pop\n      jump\t// out\n        /* \"#utility.yul\":3800:3961   */\n    tag_198:\n        /* \"#utility.yul\":3902:3954   */\n      tag_200\n        /* \"#utility.yul\":3948:3953   */\n      dup2\n        /* \"#utility.yul\":3902:3954   */\n      tag_201\n      jump\t// in\n    tag_200:\n        /* \"#utility.yul\":3897:3900   */\n      dup3\n        /* \"#utility.yul\":3890:3955   */\n      mstore\n        /* \"#utility.yul\":3800:3961   */\n      pop\n      pop\n      jump\t// out\n        /* \"#utility.yul\":3967:4333   */\n    tag_202:\n        /* \"#utility.yul\":4109:4112   */\n      0x00\n        /* \"#utility.yul\":4130:4197   */\n      tag_204\n        /* \"#utility.yul\":4194:4196   */\n      0x16\n        /* \"#utility.yul\":4189:4192   */\n      dup4\n        /* \"#utility.yul\":4130:4197   */\n      tag_205\n      jump\t// in\n    tag_204:\n        /* \"#utility.yul\":4123:4197   */\n      swap2\n      pop\n        /* \"#utility.yul\":4206:4299   */\n      tag_206\n        /* \"#utility.yul\":4295:4298   */\n      dup3\n        /* \"#utility.yul\":4206:4299   */\n      tag_207\n      jump\t// in\n    tag_206:\n        /* \"#utility.yul\":4324:4326   */\n      0x20\n        /* \"#utility.yul\":4319:4322   */\n      dup3\n        /* \"#utility.yul\":4315:4327   */\n      add\n        /* \"#utility.yul\":4308:4327   */\n      swap1\n      pop\n        /* \"#utility.yul\":3967:4333   */\n      swap2\n      swap1\n      pop\n      jump\t// out\n        /* \"#utility.yul\":4339:4705   */\n    tag_208:\n        /* \"#utility.yul\":4481:4484   */\n      0x00\n        /* \"#utility.yul\":4502:4569   */\n      tag_210\n        /* \"#utility.yul\":4566:4568   */\n      0x19\n        /* \"#utility.yul\":4561:4564   */\n      dup4\n        /* \"#utility.yul\":4502:4569   */\n      tag_205\n      jump\t// in\n    tag_210:\n        /* \"#utility.yul\":4495:4569   */\n      swap2\n      pop\n        /* \"#utility.yul\":4578:4671   */\n      tag_211\n        /* \"#utility.yul\":4667:4670   */\n      dup3\n        /* \"#utility.yul\":4578:4671   */\n      tag_212\n      jump\t// in\n    tag_211:\n        /* \"#utility.yul\":4696:4698   */\n      0x20\n        /* \"#utility.yul\":4691:4694   */\n      dup3\n        /* \"#utility.yul\":4687:4699   */\n      add\n        /* \"#utility.yul\":4680:4699   */\n      swap1\n      pop\n        /* \"#utility.yul\":4339:4705   */\n      swap2\n      swap1\n      pop\n      jump\t// out\n        /* \"#utility.yul\":4711:4819   */\n    tag_179:\n        /* \"#utility.yul\":4788:4812   */\n      tag_214\n        /* \"#utility.yul\":4806:4811   */\n      dup2\n        /* \"#utility.yul\":4788:4812   */\n      tag_215\n      jump\t// in\n    tag_214:\n        /* \"#utility.yul\":4783:4786   */\n      dup3\n        /* \"#utility.yul\":4776:4813   */\n      mstore\n        /* \"#utility.yul\":4711:4819   */\n      pop\n      pop\n      jump\t// out\n        /* \"#utility.yul\":4825:4943   */\n    tag_216:\n        /* \"#utility.yul\":4912:4936   */\n      tag_218\n        /* \"#utility.yul\":4930:4935   */\n      dup2\n        /* \"#utility.yul\":4912:4936   */\n      tag_215\n      jump\t// in\n    tag_218:\n        /* \"#utility.yul\":4907:4910   */\n      dup3\n        /* \"#utility.yul\":4900:4937   */\n      mstore\n        /* \"#utility.yul\":4825:4943   */\n      pop\n      pop\n      jump\t// out\n        /* \"#utility.yul\":4949:5171   */\n    tag_17:\n        /* \"#utility.yul\":5042:5046   */\n      0x00\n        /* \"#utility.yul\":5080:5082   */\n      0x20\n        /* \"#utility.yul\":5069:5078   */\n      dup3\n        /* \"#utility.yul\":5065:5083   */\n      add\n        /* \"#utility.yul\":5057:5083   */\n      swap1\n      pop\n        /* \"#utility.yul\":5093:5164   */\n      tag_220\n        /* \"#utility.yul\":5161:5162   */\n      0x00\n        /* \"#utility.yul\":5150:5159   */\n      dup4\n        /* \"#utility.yul\":5146:5163   */\n      add\n        /* \"#utility.yul\":5137:5143   */\n      dup5\n        /* \"#utility.yul\":5093:5164   */\n      tag_180\n      jump\t// in\n    tag_220:\n        /* \"#utility.yul\":4949:5171   */\n      swap3\n      swap2\n      pop\n      pop\n      jump\t// out\n        /* \"#utility.yul\":5177:5509   */\n    tag_113:\n        /* \"#utility.yul\":5298:5302   */\n      0x00\n        /* \"#utility.yul\":5336:5338   */\n      0x40\n        /* \"#utility.yul\":5325:5334   */\n      dup3\n        /* \"#utility.yul\":5321:5339   */\n      add\n        /* \"#utility.yul\":5313:5339   */\n      swap1\n      pop\n        /* \"#utility.yul\":5349:5420   */\n      tag_222\n        /* \"#utility.yul\":5417:5418   */\n      0x00\n        /* \"#utility.yul\":5406:5415   */\n      dup4\n        /* \"#utility.yul\":5402:5419   */\n      add\n        /* \"#utility.yul\":5393:5399   */\n      dup6\n        /* \"#utility.yul\":5349:5420   */\n      tag_180\n      jump\t// in\n    tag_222:\n        /* \"#utility.yul\":5430:5502   */\n      tag_223\n        /* \"#utility.yul\":5498:5500   */\n      0x20\n        /* \"#utility.yul\":5487:5496   */\n      dup4\n        /* \"#utility.yul\":5483:5501   */\n      add\n        /* \"#utility.yul\":5474:5480   */\n      dup5\n        /* \"#utility.yul\":5430:5502   */\n      tag_216\n      jump\t// in\n    tag_223:\n        /* \"#utility.yul\":5177:5509   */\n      swap4\n      swap3\n      pop\n      pop\n      pop\n      jump\t// out\n        /* \"#utility.yul\":5515:5888   */\n    tag_24:\n        /* \"#utility.yul\":5658:5662   */\n      0x00\n        /* \"#utility.yul\":5696:5698   */\n      0x20\n        /* \"#utility.yul\":5685:5694   */\n      dup3\n        /* \"#utility.yul\":5681:5699   */\n      add\n        /* \"#utility.yul\":5673:5699   */\n      swap1\n      pop\n        /* \"#utility.yul\":5745:5754   */\n      dup2\n        /* \"#utility.yul\":5739:5743   */\n      dup2\n        /* \"#utility.yul\":5735:5755   */\n      sub\n        /* \"#utility.yul\":5731:5732   */\n      0x00\n        /* \"#utility.yul\":5720:5729   */\n      dup4\n        /* \"#utility.yul\":5716:5733   */\n      add\n        /* \"#utility.yul\":5709:5756   */\n      mstore\n        /* \"#utility.yul\":5773:5881   */\n      tag_225\n        /* \"#utility.yul\":5876:5880   */\n      dup2\n        /* \"#utility.yul\":5867:5873   */\n      dup5\n        /* \"#utility.yul\":5773:5881   */\n      tag_184\n      jump\t// in\n    tag_225:\n        /* \"#utility.yul\":5765:5881   */\n      swap1\n      pop\n        /* \"#utility.yul\":5515:5888   */\n      swap3\n      swap2\n      pop\n      pop\n      jump\t// out\n        /* \"#utility.yul\":5894:6146   */\n    tag_53:\n        /* \"#utility.yul\":6002:6006   */\n      0x00\n        /* \"#utility.yul\":6040:6042   */\n      0x20\n        /* \"#utility.yul\":6029:6038   */\n      dup3\n        /* \"#utility.yul\":6025:6043   */\n      add\n        /* \"#utility.yul\":6017:6043   */\n      swap1\n      pop\n        /* \"#utility.yul\":6053:6139   */\n      tag_227\n        /* \"#utility.yul\":6136:6137   */\n      0x00\n        /* \"#utility.yul\":6125:6134   */\n      dup4\n        /* \"#utility.yul\":6121:6138   */\n      add\n        /* \"#utility.yul\":6112:6118   */\n      dup5\n        /* \"#utility.yul\":6053:6139   */\n      tag_198\n      jump\t// in\n    tag_227:\n        /* \"#utility.yul\":5894:6146   */\n      swap3\n      swap2\n      pop\n      pop\n      jump\t// out\n        /* \"#utility.yul\":6152:6571   */\n    tag_105:\n        /* \"#utility.yul\":6318:6322   */\n      0x00\n        /* \"#utility.yul\":6356:6358   */\n      0x20\n        /* \"#utility.yul\":6345:6354   */\n      dup3\n        /* \"#utility.yul\":6341:6359   */\n      add\n        /* \"#utility.yul\":6333:6359   */\n      swap1\n      pop\n        /* \"#utility.yul\":6405:6414   */\n      dup2\n        /* \"#utility.yul\":6399:6403   */\n      dup2\n        /* \"#utility.yul\":6395:6415   */\n      sub\n        /* \"#utility.yul\":6391:6392   */\n      0x00\n        /* \"#utility.yul\":6380:6389   */\n      dup4\n        /* \"#utility.yul\":6376:6393   */\n      add\n        /* \"#utility.yul\":6369:6416   */\n      mstore\n        /* \"#utility.yul\":6433:6564   */\n      tag_229\n        /* \"#utility.yul\":6559:6563   */\n      dup2\n        /* \"#utility.yul\":6433:6564   */\n      tag_202\n      jump\t// in\n    tag_229:\n        /* \"#utility.yul\":6425:6564   */\n      swap1\n      pop\n        /* \"#utility.yul\":6152:6571   */\n      swap2\n      swap1\n      pop\n      jump\t// out\n        /* \"#utility.yul\":6577:6996   */\n    tag_130:\n        /* \"#utility.yul\":6743:6747   */\n      0x00\n        /* \"#utility.yul\":6781:6783   */\n      0x20\n        /* \"#utility.yul\":6770:6779   */\n      dup3\n        /* \"#utility.yul\":6766:6784   */\n      add\n        /* \"#utility.yul\":6758:6784   */\n      swap1\n      pop\n        /* \"#utility.yul\":6830:6839   */\n      dup2\n        /* \"#utility.yul\":6824:6828   */\n      dup2\n        /* \"#utility.yul\":6820:6840   */\n      sub\n        /* \"#utility.yul\":6816:6817   */\n      0x00\n        /* \"#utility.yul\":6805:6814   */\n      dup4\n        /* \"#utility.yul\":6801:6818   */\n      add\n        /* \"#utility.yul\":6794:6841   */\n      mstore\n        /* \"#utility.yul\":6858:6989   */\n      tag_231\n        /* \"#utility.yul\":6984:6988   */\n      dup2\n        /* \"#utility.yul\":6858:6989   */\n      tag_208\n      jump\t// in\n    tag_231:\n        /* \"#utility.yul\":6850:6989   */\n      swap1\n      pop\n        /* \"#utility.yul\":6577:6996   */\n      swap2\n      swap1\n      pop\n      jump\t// out\n        /* \"#utility.yul\":7002:7224   */\n    tag_36:\n        /* \"#utility.yul\":7095:7099   */\n      0x00\n        /* \"#utility.yul\":7133:7135   */\n      0x20\n        /* \"#utility.yul\":7122:7131   */\n      dup3\n        /* \"#utility.yul\":7118:7136   */\n      add\n        /* \"#utility.yul\":7110:7136   */\n      swap1\n      pop\n        /* \"#utility.yul\":7146:7217   */\n      tag_233\n        /* \"#utility.yul\":7214:7215   */\n      0x00\n        /* \"#utility.yul\":7203:7212   */\n      dup4\n        /* \"#utility.yul\":7199:7216   */\n      add\n        /* \"#utility.yul\":7190:7196   */\n      dup5\n        /* \"#utility.yul\":7146:7217   */\n      tag_216\n      jump\t// in\n    tag_233:\n        /* \"#utility.yul\":7002:7224   */\n      swap3\n      swap2\n      pop\n      pop\n      jump\t// out\n        /* \"#utility.yul\":7230:7672   */\n    tag_31:\n        /* \"#utility.yul\":7379:7383   */\n      0x00\n        /* \"#utility.yul\":7417:7419   */\n      0x60\n        /* \"#utility.yul\":7406:7415   */\n      dup3\n        /* \"#utility.yul\":7402:7420   */\n      add\n        /* \"#utility.yul\":7394:7420   */\n      swap1\n      pop\n        /* \"#utility.yul\":7430:7501   */\n      tag_235\n        /* \"#utility.yul\":7498:7499   */\n      0x00\n        /* \"#utility.yul\":7487:7496   */\n      dup4\n        /* \"#utility.yul\":7483:7500   */\n      add\n        /* \"#utility.yul\":7474:7480   */\n      dup7\n        /* \"#utility.yul\":7430:7501   */\n      tag_216\n      jump\t// in\n    tag_235:\n        /* \"#utility.yul\":7511:7583   */\n      tag_236\n        /* \"#utility.yul\":7579:7581   */\n      0x20\n        /* \"#utility.yul\":7568:7577   */\n      dup4\n        /* \"#utility.yul\":7564:7582   */\n      add\n        /* \"#utility.yul\":7555:7561   */\n      dup6\n        /* \"#utility.yul\":7511:7583   */\n      tag_216\n      jump\t// in\n    tag_236:\n        /* \"#utility.yul\":7593:7665   */\n      tag_237\n        /* \"#utility.yul\":7661:7663   */\n      0x40\n        /* \"#utility.yul\":7650:7659   */\n      dup4\n        /* \"#utility.yul\":7646:7664   */\n      add\n        /* \"#utility.yul\":7637:7643   */\n      dup5\n        /* \"#utility.yul\":7593:7665   */\n      tag_216\n      jump\t// in\n    tag_237:\n        /* \"#utility.yul\":7230:7672   */\n      swap5\n      swap4\n      pop\n      pop\n      pop\n      pop\n      jump\t// out\n        /* \"#utility.yul\":7759:7891   */\n    tag_191:\n        /* \"#utility.yul\":7826:7830   */\n      0x00\n        /* \"#utility.yul\":7849:7852   */\n      dup2\n        /* \"#utility.yul\":7841:7852   */\n      swap1\n      pop\n        /* \"#utility.yul\":7879:7883   */\n      0x20\n        /* \"#utility.yul\":7874:7877   */\n      dup3\n        /* \"#utility.yul\":7870:7884   */\n      add\n        /* \"#utility.yul\":7862:7884   */\n      swap1\n      pop\n        /* \"#utility.yul\":7759:7891   */\n      swap2\n      swap1\n      pop\n      jump\t// out\n        /* \"#utility.yul\":7897:8011   */\n    tag_187:\n        /* \"#utility.yul\":7964:7970   */\n      0x00\n        /* \"#utility.yul\":7998:8003   */\n      dup2\n        /* \"#utility.yul\":7992:8004   */\n      mload\n        /* \"#utility.yul\":7982:8004   */\n      swap1\n      pop\n        /* \"#utility.yul\":7897:8011   */\n      swap2\n      swap1\n      pop\n      jump\t// out\n        /* \"#utility.yul\":8017:8130   */\n    tag_197:\n        /* \"#utility.yul\":8087:8091   */\n      0x00\n        /* \"#utility.yul\":8119:8123   */\n      0x20\n        /* \"#utility.yul\":8114:8117   */\n      dup3\n        /* \"#utility.yul\":8110:8124   */\n      add\n        /* \"#utility.yul\":8102:8124   */\n      swap1\n      pop\n        /* \"#utility.yul\":8017:8130   */\n      swap2\n      swap1\n      pop\n      jump\t// out\n        /* \"#utility.yul\":8136:8320   */\n    tag_189:\n        /* \"#utility.yul\":8235:8246   */\n      0x00\n        /* \"#utility.yul\":8269:8275   */\n      dup3\n        /* \"#utility.yul\":8264:8267   */\n      dup3\n        /* \"#utility.yul\":8257:8276   */\n      mstore\n        /* \"#utility.yul\":8309:8313   */\n      0x20\n        /* \"#utility.yul\":8304:8307   */\n      dup3\n        /* \"#utility.yul\":8300:8314   */\n      add\n        /* \"#utility.yul\":8285:8314   */\n      swap1\n      pop\n        /* \"#utility.yul\":8136:8320   */\n      swap3\n      swap2\n      pop\n      pop\n      jump\t// out\n        /* \"#utility.yul\":8326:8495   */\n    tag_205:\n        /* \"#utility.yul\":8410:8421   */\n      0x00\n        /* \"#utility.yul\":8444:8450   */\n      dup3\n        /* \"#utility.yul\":8439:8442   */\n      dup3\n        /* \"#utility.yul\":8432:8451   */\n      mstore\n        /* \"#utility.yul\":8484:8488   */\n      0x20\n        /* \"#utility.yul\":8479:8482   */\n      dup3\n        /* \"#utility.yul\":8475:8489   */\n      add\n        /* \"#utility.yul\":8460:8489   */\n      swap1\n      pop\n        /* \"#utility.yul\":8326:8495   */\n      swap3\n      swap2\n      pop\n      pop\n      jump\t// out\n        /* \"#utility.yul\":8501:8806   */\n    tag_72:\n        /* \"#utility.yul\":8541:8544   */\n      0x00\n        /* \"#utility.yul\":8560:8580   */\n      tag_246\n        /* \"#utility.yul\":8578:8579   */\n      dup3\n        /* \"#utility.yul\":8560:8580   */\n      tag_215\n      jump\t// in\n    tag_246:\n        /* \"#utility.yul\":8555:8580   */\n      swap2\n      pop\n        /* \"#utility.yul\":8594:8614   */\n      tag_247\n        /* \"#utility.yul\":8612:8613   */\n      dup4\n        /* \"#utility.yul\":8594:8614   */\n      tag_215\n      jump\t// in\n    tag_247:\n        /* \"#utility.yul\":8589:8614   */\n      swap3\n      pop\n        /* \"#utility.yul\":8748:8749   */\n      dup3\n        /* \"#utility.yul\":8680:8746   */\n      0xffffffffffffffffffffffffffffffffffffffffffffffffffffffffffffffff\n        /* \"#utility.yul\":8676:8750   */\n      sub\n        /* \"#utility.yul\":8673:8674   */\n      dup3\n        /* \"#utility.yul\":8670:8751   */\n      gt\n        /* \"#utility.yul\":8667:8774   */\n      iszero\n      tag_248\n      jumpi\n        /* \"#utility.yul\":8754:8772   */\n      tag_249\n      tag_250\n      jump\t// in\n    tag_249:\n        /* \"#utility.yul\":8667:8774   */\n    tag_248:\n        /* \"#utility.yul\":8798:8799   */\n      dup3\n        /* \"#utility.yul\":8795:8796   */\n      dup3\n        /* \"#utility.yul\":8791:8800   */\n      add\n        /* \"#utility.yul\":8784:8800   */\n      swap1\n      pop\n        /* \"#utility.yul\":8501:8806   */\n      swap3\n      swap2\n      pop\n      pop\n      jump\t// out\n        /* \"#utility.yul\":8812:8908   */\n    tag_183:\n        /* \"#utility.yul\":8849:8856   */\n      0x00\n        /* \"#utility.yul\":8878:8902   */\n      tag_252\n        /* \"#utility.yul\":8896:8901   */\n      dup3\n        /* \"#utility.yul\":8878:8902   */\n      tag_253\n      jump\t// in\n    tag_252:\n        /* \"#utility.yul\":8867:8902   */\n      swap1\n      pop\n        /* \"#utility.yul\":8812:8908   */\n      swap2\n      swap1\n      pop\n      jump\t// out\n        /* \"#utility.yul\":8914:9040   */\n    tag_253:\n        /* \"#utility.yul\":8951:8958   */\n      0x00\n        /* \"#utility.yul\":8991:9033   */\n      0xffffffffffffffffffffffffffffffffffffffff\n        /* \"#utility.yul\":8984:8989   */\n      dup3\n        /* \"#utility.yul\":8980:9034   */\n      and\n        /* \"#utility.yul\":8969:9034   */\n      swap1\n      pop\n        /* \"#utility.yul\":8914:9040   */\n      swap2\n      swap1\n      pop\n      jump\t// out\n        /* \"#utility.yul\":9046:9123   */\n    tag_215:\n        /* \"#utility.yul\":9083:9090   */\n      0x00\n        /* \"#utility.yul\":9112:9117   */\n      dup2\n        /* \"#utility.yul\":9101:9117   */\n      swap1\n      pop\n        /* \"#utility.yul\":9046:9123   */\n      swap2\n      swap1\n      pop\n      jump\t// out\n        /* \"#utility.yul\":9129:9270   */\n    tag_201:\n        /* \"#utility.yul\":9194:9203   */\n      0x00\n        /* \"#utility.yul\":9227:9264   */\n      tag_257\n        /* \"#utility.yul\":9258:9263   */\n      dup3\n        /* \"#utility.yul\":9227:9264   */\n      tag_258\n      jump\t// in\n    tag_257:\n        /* \"#utility.yul\":9214:9264   */\n      swap1\n      pop\n        /* \"#utility.yul\":9129:9270   */\n      swap2\n      swap1\n      pop\n      jump\t// out\n        /* \"#utility.yul\":9276:9402   */\n    tag_258:\n        /* \"#utility.yul\":9326:9335   */\n      0x00\n        /* \"#utility.yul\":9359:9396   */\n      tag_260\n        /* \"#utility.yul\":9390:9395   */\n      dup3\n        /* \"#utility.yul\":9359:9396   */\n      tag_261\n      jump\t// in\n    tag_260:\n        /* \"#utility.yul\":9346:9396   */\n      swap1\n      pop\n        /* \"#utility.yul\":9276:9402   */\n      swap2\n      swap1\n      pop\n      jump\t// out\n        /* \"#utility.yul\":9408:9521   */\n    tag_261:\n        /* \"#utility.yul\":9458:9467   */\n      0x00\n        /* \"#utility.yul\":9491:9515   */\n      tag_263\n        /* \"#utility.yul\":9509:9514   */\n      dup3\n        /* \"#utility.yul\":9491:9515   */\n      tag_253\n      jump\t// in\n    tag_263:\n        /* \"#utility.yul\":9478:9515   */\n      swap1\n      pop\n        /* \"#utility.yul\":9408:9521   */\n      swap2\n      swap1\n      pop\n      jump\t// out\n        /* \"#utility.yul\":9527:9698   */\n    tag_95:\n        /* \"#utility.yul\":9566:9569   */\n      0x00\n        /* \"#utility.yul\":9589:9613   */\n      tag_265\n        /* \"#utility.yul\":9607:9612   */\n      dup3\n        /* \"#utility.yul\":9589:9613   */\n      tag_215\n      jump\t// in\n    tag_265:\n        /* \"#utility.yul\":9580:9613   */\n      swap2\n      pop\n        /* \"#utility.yul\":9635:9639   */\n      0x00\n        /* \"#utility.yul\":9628:9633   */\n      dup3\n        /* \"#utility.yul\":9625:9640   */\n      eq\n        /* \"#utility.yul\":9622:9663   */\n      iszero\n      tag_266\n      jumpi\n        /* \"#utility.yul\":9643:9661   */\n      tag_267\n      tag_250\n      jump\t// in\n    tag_267:\n        /* \"#utility.yul\":9622:9663   */\n    tag_266:\n        /* \"#utility.yul\":9690:9691   */\n      0x01\n        /* \"#utility.yul\":9683:9688   */\n      dup3\n        /* \"#utility.yul\":9679:9692   */\n      sub\n        /* \"#utility.yul\":9672:9692   */\n      swap1\n      pop\n        /* \"#utility.yul\":9527:9698   */\n      swap2\n      swap1\n      pop\n      jump\t// out\n        /* \"#utility.yul\":9704:9937   */\n    tag_80:\n        /* \"#utility.yul\":9743:9746   */\n      0x00\n        /* \"#utility.yul\":9766:9790   */\n      tag_269\n        /* \"#utility.yul\":9784:9789   */\n      dup3\n        /* \"#utility.yul\":9766:9790   */\n      tag_215\n      jump\t// in\n    tag_269:\n        /* \"#utility.yul\":9757:9790   */\n      swap2\n      pop\n        /* \"#utility.yul\":9812:9878   */\n      0xffffffffffffffffffffffffffffffffffffffffffffffffffffffffffffffff\n        /* \"#utility.yul\":9805:9810   */\n      dup3\n        /* \"#utility.yul\":9802:9879   */\n      eq\n        /* \"#utility.yul\":9799:9902   */\n      iszero\n      tag_270\n      jumpi\n        /* \"#utility.yul\":9882:9900   */\n      tag_271\n      tag_250\n      jump\t// in\n    tag_271:\n        /* \"#utility.yul\":9799:9902   */\n    tag_270:\n        /* \"#utility.yul\":9929:9930   */\n      0x01\n        /* \"#utility.yul\":9922:9927   */\n      dup3\n        /* \"#utility.yul\":9918:9931   */\n      add\n        /* \"#utility.yul\":9911:9931   */\n      swap1\n      pop\n        /* \"#utility.yul\":9704:9937   */\n      swap2\n      swap1\n      pop\n      jump\t// out\n        /* \"#utility.yul\":9943:10123   */\n    tag_250:\n        /* \"#utility.yul\":9991:10068   */\n      0x4e487b7100000000000000000000000000000000000000000000000000000000\n        /* \"#utility.yul\":9988:9989   */\n      0x00\n        /* \"#utility.yul\":9981:10069   */\n      mstore\n        /* \"#utility.yul\":10088:10092   */\n      0x11\n        /* \"#utility.yul\":10085:10086   */\n      0x04\n        /* \"#utility.yul\":10078:10093   */\n      mstore\n        /* \"#utility.yul\":10112:10116   */\n      0x24\n        /* \"#utility.yul\":10109:10110   */\n      0x00\n        /* \"#utility.yul\":10102:10117   */\n      revert\n        /* \"#utility.yul\":10129:10309   */\n    tag_67:\n        /* \"#utility.yul\":10177:10254   */\n      0x4e487b7100000000000000000000000000000000000000000000000000000000\n        /* \"#utility.yul\":10174:10175   */\n      0x00\n        /* \"#utility.yul\":10167:10255   */\n      mstore\n        /* \"#utility.yul\":10274:10278   */\n      0x32\n        /* \"#utility.yul\":10271:10272   */\n      0x04\n        /* \"#utility.yul\":10264:10279   */\n      mstore\n        /* \"#utility.yul\":10298:10302   */\n      0x24\n        /* \"#utility.yul\":10295:10296   */\n      0x00\n        /* \"#utility.yul\":10288:10303   */\n      revert\n        /* \"#utility.yul\":10438:10555   */\n    tag_154:\n        /* \"#utility.yul\":10547:10548   */\n      0x00\n        /* \"#utility.yul\":10544:10545   */\n      dup1\n        /* \"#utility.yul\":10537:10549   */\n      revert\n        /* \"#utility.yul\":10561:10733   */\n    tag_207:\n        /* \"#utility.yul\":10701:10725   */\n      0x596f7520646f6e2774206f776e2074686973204e465400000000000000000000\n        /* \"#utility.yul\":10697:10698   */\n      0x00\n        /* \"#utility.yul\":10689:10695   */\n      dup3\n        /* \"#utility.yul\":10685:10699   */\n      add\n        /* \"#utility.yul\":10678:10726   */\n      mstore\n        /* \"#utility.yul\":10561:10733   */\n      pop\n      jump\t// out\n        /* \"#utility.yul\":10739:10914   */\n    tag_212:\n        /* \"#utility.yul\":10879:10906   */\n      0x596f7520616c7265616479206861766520776974686472617700000000000000\n        /* \"#utility.yul\":10875:10876   */\n      0x00\n        /* \"#utility.yul\":10867:10873   */\n      dup3\n        /* \"#utility.yul\":10863:10877   */\n      add\n        /* \"#utility.yul\":10856:10907   */\n      mstore\n        /* \"#utility.yul\":10739:10914   */\n      pop\n      jump\t// out\n        /* \"#utility.yul\":10920:11042   */\n    tag_143:\n        /* \"#utility.yul\":10993:11017   */\n      tag_280\n        /* \"#utility.yul\":11011:11016   */\n      dup2\n        /* \"#utility.yul\":10993:11017   */\n      tag_183\n      jump\t// in\n    tag_280:\n        /* \"#utility.yul\":10986:10991   */\n      dup2\n        /* \"#utility.yul\":10983:11018   */\n      eq\n        /* \"#utility.yul\":10973:11036   */\n      tag_281\n      jumpi\n        /* \"#utility.yul\":11032:11033   */\n      0x00\n        /* \"#utility.yul\":11029:11030   */\n      dup1\n        /* \"#utility.yul\":11022:11034   */\n      revert\n        /* \"#utility.yul\":10973:11036   */\n    tag_281:\n        /* \"#utility.yul\":10920:11042   */\n      pop\n      jump\t// out\n        /* \"#utility.yul\":11048:11170   */\n    tag_150:\n        /* \"#utility.yul\":11121:11145   */\n      tag_283\n        /* \"#utility.yul\":11139:11144   */\n      dup2\n        /* \"#utility.yul\":11121:11145   */\n      tag_215\n      jump\t// in\n    tag_283:\n        /* \"#utility.yul\":11114:11119   */\n      dup2\n        /* \"#utility.yul\":11111:11146   */\n      eq\n        /* \"#utility.yul\":11101:11164   */\n      tag_284\n      jumpi\n        /* \"#utility.yul\":11160:11161   */\n      0x00\n        /* \"#utility.yul\":11157:11158   */\n      dup1\n        /* \"#utility.yul\":11150:11162   */\n      revert\n        /* \"#utility.yul\":11101:11164   */\n    tag_284:\n        /* \"#utility.yul\":11048:11170   */\n      pop\n      jump\t// out\n\n    auxdata: 0xa2646970667358221220d161c930e41bdbe62aa86e86c43cd332a5704f80d4f0a23ae73d9def92b5af7964736f6c63430008070033\n}\n",
				"bytecode": {
					"linkReferences": {},
					"object": "60806040523480156200001157600080fd5b506040516200139138038062001391833981810160405281019062000037919062000095565b806000806101000a81548173ffffffffffffffffffffffffffffffffffffffff021916908373ffffffffffffffffffffffffffffffffffffffff160217905550506200011a565b6000815190506200008f8162000100565b92915050565b600060208284031215620000ae57620000ad620000fb565b5b6000620000be848285016200007e565b91505092915050565b6000620000d482620000db565b9050919050565b600073ffffffffffffffffffffffffffffffffffffffff82169050919050565b600080fd5b6200010b81620000c7565b81146200011757600080fd5b50565b611267806200012a6000396000f3fe60806040526004361061007a5760003560e01c8063ab01e4af1161004e578063ab01e4af14610163578063b369ecd71461017f578063c1d2d00d146101bc578063d56d229d146101d85761007a565b8062f748671461007f5780634fe7abba146100bc57806398c61c37146100f95780639d11ed7514610138575b600080fd5b34801561008b57600080fd5b506100a660048036038101906100a19190610d2b565b610203565b6040516100b39190610eb6565b60405180910390f35b3480156100c857600080fd5b506100e360048036038101906100de9190610d6b565b6102f9565b6040516100f09190610efa565b60405180910390f35b34801561010557600080fd5b50610120600480360381019061011b9190610ceb565b6104ea565b60405161012f93929190610f92565b60405180910390f35b34801561014457600080fd5b5061014d610531565b60405161015a9190610f77565b60405180910390f35b61017d60048036038101906101789190610d2b565b610614565b005b34801561018b57600080fd5b506101a660048036038101906101a19190610c91565b610945565b6040516101b39190610f77565b60405180910390f35b6101d660048036038101906101d19190610d2b565b61095d565b005b3480156101e457600080fd5b506101ed610c0b565b6040516101fa9190610f1c565b60405180910390f35b600081600160006101000a81548173ffffffffffffffffffffffffffffffffffffffff021916908373ffffffffffffffffffffffffffffffffffffffff160217905550600160009054906101000a900473ffffffffffffffffffffffffffffffffffffffff1673ffffffffffffffffffffffffffffffffffffffff16636352211e846040518263ffffffff1660e01b81526004016102a19190610f77565b60206040518083038186803b1580156102b957600080fd5b505afa1580156102cd573d6000803e3d6000fd5b505050506040513d601f19601f820116820180604052508101906102f19190610cbe565b905092915050565b606081600160006101000a81548173ffffffffffffffffffffffffffffffffffffffff021916908373ffffffffffffffffffffffffffffffffffffffff1602179055506000600360003373ffffffffffffffffffffffffffffffffffffffff1673ffffffffffffffffffffffffffffffffffffffff1681526020019081526020016000205490506000606060005b838110156104db576001600260003373ffffffffffffffffffffffffffffffffffffffff1673ffffffffffffffffffffffffffffffffffffffff16815260200190815260200160002082815481106103e2576103e161117d565b5b90600052602060002090600302016002015414156104ca57878310158015610414575086886104119190611013565b83105b156104aa57600260003373ffffffffffffffffffffffffffffffffffffffff1673ffffffffffffffffffffffffffffffffffffffff168152602001908152602001600020818154811061046a5761046961117d565b5b90600052602060002090600302016000015482848151811061048f5761048e61117d565b5b60200260200101818152505082806104a690611105565b9350505b86886104b69190611013565b8311156104c957819450505050506104e3565b5b806104d490611105565b9050610387565b508093505050505b9392505050565b6002602052816000526040600020818154811061050657600080fd5b9060005260206000209060030201600091509150508060000154908060010154908060020154905083565b600080600360003373ffffffffffffffffffffffffffffffffffffffff1673ffffffffffffffffffffffffffffffffffffffff16815260200190815260200160002054905060005b8181101561060c576000600260003373ffffffffffffffffffffffffffffffffffffffff1673ffffffffffffffffffffffffffffffffffffffff16815260200190815260200160002082815481106105d4576105d361117d565b5b90600052602060002090600302016002015414156105fb5781806105f7906110db565b9250505b8061060590611105565b9050610579565b508091505090565b80600160006101000a81548173ffffffffffffffffffffffffffffffffffffffff021916908373ffffffffffffffffffffffffffffffffffffffff1602179055503373ffffffffffffffffffffffffffffffffffffffff16600160009054906101000a900473ffffffffffffffffffffffffffffffffffffffff1673ffffffffffffffffffffffffffffffffffffffff16636352211e846040518263ffffffff1660e01b81526004016106c79190610f77565b60206040518083038186803b1580156106df57600080fd5b505afa1580156106f3573d6000803e3d6000fd5b505050506040513d601f19601f820116820180604052508101906107179190610cbe565b73ffffffffffffffffffffffffffffffffffffffff161461076d576040517f08c379a000000000000000000000000000000000000000000000000000000000815260040161076490610f37565b60405180910390fd5b610775610c31565b6000600360003373ffffffffffffffffffffffffffffffffffffffff1673ffffffffffffffffffffffffffffffffffffffff1681526020019081526020016000205490508382600001818152505042826020018181525050600182604001818152505081600260003373ffffffffffffffffffffffffffffffffffffffff1673ffffffffffffffffffffffffffffffffffffffff168152602001908152602001600020828154811061082a5761082961117d565b5b90600052602060002090600302016000820151816000015560208201518160010155604082015181600201559050506001600360003373ffffffffffffffffffffffffffffffffffffffff1673ffffffffffffffffffffffffffffffffffffffff16815260200190815260200160002060008282546108a99190611013565b92505081905550600160009054906101000a900473ffffffffffffffffffffffffffffffffffffffff1673ffffffffffffffffffffffffffffffffffffffff1663095ea7b330866040518363ffffffff1660e01b815260040161090d929190610ed1565b600060405180830381600087803b15801561092757600080fd5b505af115801561093b573d6000803e3d6000fd5b5050505050505050565b60036020528060005260406000206000915090505481565b80600160006101000a81548173ffffffffffffffffffffffffffffffffffffffff021916908373ffffffffffffffffffffffffffffffffffffffff1602179055506000600360003373ffffffffffffffffffffffffffffffffffffffff1673ffffffffffffffffffffffffffffffffffffffff16815260200190815260200160002054905060005b81811015610c055783600260003373ffffffffffffffffffffffffffffffffffffffff1673ffffffffffffffffffffffffffffffffffffffff1681526020019081526020016000208281548110610a3f57610a3e61117d565b5b9060005260206000209060030201600001541415610bf4576001600260003373ffffffffffffffffffffffffffffffffffffffff1673ffffffffffffffffffffffffffffffffffffffff1681526020019081526020016000208281548110610aaa57610aa961117d565b5b90600052602060002090600302016002015414610afc576040517f08c379a0000000000000000000000000000000000000000000000000000000008152600401610af390610f57565b60405180910390fd5b6000600260003373ffffffffffffffffffffffffffffffffffffffff1673ffffffffffffffffffffffffffffffffffffffff1681526020019081526020016000208581548110610b4f57610b4e61117d565b5b906000526020600020906003020160020181905550600160009054906101000a900473ffffffffffffffffffffffffffffffffffffffff1673ffffffffffffffffffffffffffffffffffffffff1663095ea7b333866040518363ffffffff1660e01b8152600401610bc1929190610ed1565b600060405180830381600087803b158015610bdb57600080fd5b505af1158015610bef573d6000803e3d6000fd5b505050505b80610bfe90611105565b90506109e5565b50505050565b600160009054906101000a900473ffffffffffffffffffffffffffffffffffffffff1681565b60405180606001604052806000815260200160008152602001600081525090565b600081359050610c6181611203565b92915050565b600081519050610c7681611203565b92915050565b600081359050610c8b8161121a565b92915050565b600060208284031215610ca757610ca66111ac565b5b6000610cb584828501610c52565b91505092915050565b600060208284031215610cd457610cd36111ac565b5b6000610ce284828501610c67565b91505092915050565b60008060408385031215610d0257610d016111ac565b5b6000610d1085828601610c52565b9250506020610d2185828601610c7c565b9150509250929050565b60008060408385031215610d4257610d416111ac565b5b6000610d5085828601610c7c565b9250506020610d6185828601610c52565b9150509250929050565b600080600060608486031215610d8457610d836111ac565b5b6000610d9286828701610c7c565b9350506020610da386828701610c7c565b9250506040610db486828701610c52565b9150509250925092565b6000610dca8383610e98565b60208301905092915050565b610ddf81611069565b82525050565b6000610df082610fd9565b610dfa8185610ff1565b9350610e0583610fc9565b8060005b83811015610e36578151610e1d8882610dbe565b9750610e2883610fe4565b925050600181019050610e09565b5085935050505092915050565b610e4c816110a5565b82525050565b6000610e5f601683611002565b9150610e6a826111b1565b602082019050919050565b6000610e82601983611002565b9150610e8d826111da565b602082019050919050565b610ea18161109b565b82525050565b610eb08161109b565b82525050565b6000602082019050610ecb6000830184610dd6565b92915050565b6000604082019050610ee66000830185610dd6565b610ef36020830184610ea7565b9392505050565b60006020820190508181036000830152610f148184610de5565b905092915050565b6000602082019050610f316000830184610e43565b92915050565b60006020820190508181036000830152610f5081610e52565b9050919050565b60006020820190508181036000830152610f7081610e75565b9050919050565b6000602082019050610f8c6000830184610ea7565b92915050565b6000606082019050610fa76000830186610ea7565b610fb46020830185610ea7565b610fc16040830184610ea7565b949350505050565b6000819050602082019050919050565b600081519050919050565b6000602082019050919050565b600082825260208201905092915050565b600082825260208201905092915050565b600061101e8261109b565b91506110298361109b565b9250827fffffffffffffffffffffffffffffffffffffffffffffffffffffffffffffffff0382111561105e5761105d61114e565b5b828201905092915050565b60006110748261107b565b9050919050565b600073ffffffffffffffffffffffffffffffffffffffff82169050919050565b6000819050919050565b60006110b0826110b7565b9050919050565b60006110c2826110c9565b9050919050565b60006110d48261107b565b9050919050565b60006110e68261109b565b915060008214156110fa576110f961114e565b5b600182039050919050565b60006111108261109b565b91507fffffffffffffffffffffffffffffffffffffffffffffffffffffffffffffffff8214156111435761114261114e565b5b600182019050919050565b7f4e487b7100000000000000000000000000000000000000000000000000000000600052601160045260246000fd5b7f4e487b7100000000000000000000000000000000000000000000000000000000600052603260045260246000fd5b600080fd5b7f596f7520646f6e2774206f776e2074686973204e465400000000000000000000600082015250565b7f596f7520616c7265616479206861766520776974686472617700000000000000600082015250565b61120c81611069565b811461121757600080fd5b50565b6112238161109b565b811461122e57600080fd5b5056fea2646970667358221220d161c930e41bdbe62aa86e86c43cd332a5704f80d4f0a23ae73d9def92b5af7964736f6c63430008070033",
					"opcodes": "PUSH1 0x80 PUSH1 0x40 MSTORE CALLVALUE DUP1 ISZERO PUSH3 0x11 JUMPI PUSH1 0x0 DUP1 REVERT JUMPDEST POP PUSH1 0x40 MLOAD PUSH3 0x1391 CODESIZE SUB DUP1 PUSH3 0x1391 DUP4 CODECOPY DUP2 DUP2 ADD PUSH1 0x40 MSTORE DUP2 ADD SWAP1 PUSH3 0x37 SWAP2 SWAP1 PUSH3 0x95 JUMP JUMPDEST DUP1 PUSH1 0x0 DUP1 PUSH2 0x100 EXP DUP2 SLOAD DUP2 PUSH20 0xFFFFFFFFFFFFFFFFFFFFFFFFFFFFFFFFFFFFFFFF MUL NOT AND SWAP1 DUP4 PUSH20 0xFFFFFFFFFFFFFFFFFFFFFFFFFFFFFFFFFFFFFFFF AND MUL OR SWAP1 SSTORE POP POP PUSH3 0x11A JUMP JUMPDEST PUSH1 0x0 DUP2 MLOAD SWAP1 POP PUSH3 0x8F DUP2 PUSH3 0x100 JUMP JUMPDEST SWAP3 SWAP2 POP POP JUMP JUMPDEST PUSH1 0x0 PUSH1 0x20 DUP3 DUP5 SUB SLT ISZERO PUSH3 0xAE JUMPI PUSH3 0xAD PUSH3 0xFB JUMP JUMPDEST JUMPDEST PUSH1 0x0 PUSH3 0xBE DUP5 DUP3 DUP6 ADD PUSH3 0x7E JUMP JUMPDEST SWAP2 POP POP SWAP3 SWAP2 POP POP JUMP JUMPDEST PUSH1 0x0 PUSH3 0xD4 DUP3 PUSH3 0xDB JUMP JUMPDEST SWAP1 POP SWAP2 SWAP1 POP JUMP JUMPDEST PUSH1 0x0 PUSH20 0xFFFFFFFFFFFFFFFFFFFFFFFFFFFFFFFFFFFFFFFF DUP3 AND SWAP1 POP SWAP2 SWAP1 POP JUMP JUMPDEST PUSH1 0x0 DUP1 REVERT JUMPDEST PUSH3 0x10B DUP2 PUSH3 0xC7 JUMP JUMPDEST DUP2 EQ PUSH3 0x117 JUMPI PUSH1 0x0 DUP1 REVERT JUMPDEST POP JUMP JUMPDEST PUSH2 0x1267 DUP1 PUSH3 0x12A PUSH1 0x0 CODECOPY PUSH1 0x0 RETURN INVALID PUSH1 0x80 PUSH1 0x40 MSTORE PUSH1 0x4 CALLDATASIZE LT PUSH2 0x7A JUMPI PUSH1 0x0 CALLDATALOAD PUSH1 0xE0 SHR DUP1 PUSH4 0xAB01E4AF GT PUSH2 0x4E JUMPI DUP1 PUSH4 0xAB01E4AF EQ PUSH2 0x163 JUMPI DUP1 PUSH4 0xB369ECD7 EQ PUSH2 0x17F JUMPI DUP1 PUSH4 0xC1D2D00D EQ PUSH2 0x1BC JUMPI DUP1 PUSH4 0xD56D229D EQ PUSH2 0x1D8 JUMPI PUSH2 0x7A JUMP JUMPDEST DUP1 PUSH3 0xF74867 EQ PUSH2 0x7F JUMPI DUP1 PUSH4 0x4FE7ABBA EQ PUSH2 0xBC JUMPI DUP1 PUSH4 0x98C61C37 EQ PUSH2 0xF9 JUMPI DUP1 PUSH4 0x9D11ED75 EQ PUSH2 0x138 JUMPI JUMPDEST PUSH1 0x0 DUP1 REVERT JUMPDEST CALLVALUE DUP1 ISZERO PUSH2 0x8B JUMPI PUSH1 0x0 DUP1 REVERT JUMPDEST POP PUSH2 0xA6 PUSH1 0x4 DUP1 CALLDATASIZE SUB DUP2 ADD SWAP1 PUSH2 0xA1 SWAP2 SWAP1 PUSH2 0xD2B JUMP JUMPDEST PUSH2 0x203 JUMP JUMPDEST PUSH1 0x40 MLOAD PUSH2 0xB3 SWAP2 SWAP1 PUSH2 0xEB6 JUMP JUMPDEST PUSH1 0x40 MLOAD DUP1 SWAP2 SUB SWAP1 RETURN JUMPDEST CALLVALUE DUP1 ISZERO PUSH2 0xC8 JUMPI PUSH1 0x0 DUP1 REVERT JUMPDEST POP PUSH2 0xE3 PUSH1 0x4 DUP1 CALLDATASIZE SUB DUP2 ADD SWAP1 PUSH2 0xDE SWAP2 SWAP1 PUSH2 0xD6B JUMP JUMPDEST PUSH2 0x2F9 JUMP JUMPDEST PUSH1 0x40 MLOAD PUSH2 0xF0 SWAP2 SWAP1 PUSH2 0xEFA JUMP JUMPDEST PUSH1 0x40 MLOAD DUP1 SWAP2 SUB SWAP1 RETURN JUMPDEST CALLVALUE DUP1 ISZERO PUSH2 0x105 JUMPI PUSH1 0x0 DUP1 REVERT JUMPDEST POP PUSH2 0x120 PUSH1 0x4 DUP1 CALLDATASIZE SUB DUP2 ADD SWAP1 PUSH2 0x11B SWAP2 SWAP1 PUSH2 0xCEB JUMP JUMPDEST PUSH2 0x4EA JUMP JUMPDEST PUSH1 0x40 MLOAD PUSH2 0x12F SWAP4 SWAP3 SWAP2 SWAP1 PUSH2 0xF92 JUMP JUMPDEST PUSH1 0x40 MLOAD DUP1 SWAP2 SUB SWAP1 RETURN JUMPDEST CALLVALUE DUP1 ISZERO PUSH2 0x144 JUMPI PUSH1 0x0 DUP1 REVERT JUMPDEST POP PUSH2 0x14D PUSH2 0x531 JUMP JUMPDEST PUSH1 0x40 MLOAD PUSH2 0x15A SWAP2 SWAP1 PUSH2 0xF77 JUMP JUMPDEST PUSH1 0x40 MLOAD DUP1 SWAP2 SUB SWAP1 RETURN JUMPDEST PUSH2 0x17D PUSH1 0x4 DUP1 CALLDATASIZE SUB DUP2 ADD SWAP1 PUSH2 0x178 SWAP2 SWAP1 PUSH2 0xD2B JUMP JUMPDEST PUSH2 0x614 JUMP JUMPDEST STOP JUMPDEST CALLVALUE DUP1 ISZERO PUSH2 0x18B JUMPI PUSH1 0x0 DUP1 REVERT JUMPDEST POP PUSH2 0x1A6 PUSH1 0x4 DUP1 CALLDATASIZE SUB DUP2 ADD SWAP1 PUSH2 0x1A1 SWAP2 SWAP1 PUSH2 0xC91 JUMP JUMPDEST PUSH2 0x945 JUMP JUMPDEST PUSH1 0x40 MLOAD PUSH2 0x1B3 SWAP2 SWAP1 PUSH2 0xF77 JUMP JUMPDEST PUSH1 0x40 MLOAD DUP1 SWAP2 SUB SWAP1 RETURN JUMPDEST PUSH2 0x1D6 PUSH1 0x4 DUP1 CALLDATASIZE SUB DUP2 ADD SWAP1 PUSH2 0x1D1 SWAP2 SWAP1 PUSH2 0xD2B JUMP JUMPDEST PUSH2 0x95D JUMP JUMPDEST STOP JUMPDEST CALLVALUE DUP1 ISZERO PUSH2 0x1E4 JUMPI PUSH1 0x0 DUP1 REVERT JUMPDEST POP PUSH2 0x1ED PUSH2 0xC0B JUMP JUMPDEST PUSH1 0x40 MLOAD PUSH2 0x1FA SWAP2 SWAP1 PUSH2 0xF1C JUMP JUMPDEST PUSH1 0x40 MLOAD DUP1 SWAP2 SUB SWAP1 RETURN JUMPDEST PUSH1 0x0 DUP2 PUSH1 0x1 PUSH1 0x0 PUSH2 0x100 EXP DUP2 SLOAD DUP2 PUSH20 0xFFFFFFFFFFFFFFFFFFFFFFFFFFFFFFFFFFFFFFFF MUL NOT AND SWAP1 DUP4 PUSH20 0xFFFFFFFFFFFFFFFFFFFFFFFFFFFFFFFFFFFFFFFF AND MUL OR SWAP1 SSTORE POP PUSH1 0x1 PUSH1 0x0 SWAP1 SLOAD SWAP1 PUSH2 0x100 EXP SWAP1 DIV PUSH20 0xFFFFFFFFFFFFFFFFFFFFFFFFFFFFFFFFFFFFFFFF AND PUSH20 0xFFFFFFFFFFFFFFFFFFFFFFFFFFFFFFFFFFFFFFFF AND PUSH4 0x6352211E DUP5 PUSH1 0x40 MLOAD DUP3 PUSH4 0xFFFFFFFF AND PUSH1 0xE0 SHL DUP2 MSTORE PUSH1 0x4 ADD PUSH2 0x2A1 SWAP2 SWAP1 PUSH2 0xF77 JUMP JUMPDEST PUSH1 0x20 PUSH1 0x40 MLOAD DUP1 DUP4 SUB DUP2 DUP7 DUP1 EXTCODESIZE ISZERO DUP1 ISZERO PUSH2 0x2B9 JUMPI PUSH1 0x0 DUP1 REVERT JUMPDEST POP GAS STATICCALL ISZERO DUP1 ISZERO PUSH2 0x2CD JUMPI RETURNDATASIZE PUSH1 0x0 DUP1 RETURNDATACOPY RETURNDATASIZE PUSH1 0x0 REVERT JUMPDEST POP POP POP POP PUSH1 0x40 MLOAD RETURNDATASIZE PUSH1 0x1F NOT PUSH1 0x1F DUP3 ADD AND DUP3 ADD DUP1 PUSH1 0x40 MSTORE POP DUP2 ADD SWAP1 PUSH2 0x2F1 SWAP2 SWAP1 PUSH2 0xCBE JUMP JUMPDEST SWAP1 POP SWAP3 SWAP2 POP POP JUMP JUMPDEST PUSH1 0x60 DUP2 PUSH1 0x1 PUSH1 0x0 PUSH2 0x100 EXP DUP2 SLOAD DUP2 PUSH20 0xFFFFFFFFFFFFFFFFFFFFFFFFFFFFFFFFFFFFFFFF MUL NOT AND SWAP1 DUP4 PUSH20 0xFFFFFFFFFFFFFFFFFFFFFFFFFFFFFFFFFFFFFFFF AND MUL OR SWAP1 SSTORE POP PUSH1 0x0 PUSH1 0x3 PUSH1 0x0 CALLER PUSH20 0xFFFFFFFFFFFFFFFFFFFFFFFFFFFFFFFFFFFFFFFF AND PUSH20 0xFFFFFFFFFFFFFFFFFFFFFFFFFFFFFFFFFFFFFFFF AND DUP2 MSTORE PUSH1 0x20 ADD SWAP1 DUP2 MSTORE PUSH1 0x20 ADD PUSH1 0x0 KECCAK256 SLOAD SWAP1 POP PUSH1 0x0 PUSH1 0x60 PUSH1 0x0 JUMPDEST DUP4 DUP2 LT ISZERO PUSH2 0x4DB JUMPI PUSH1 0x1 PUSH1 0x2 PUSH1 0x0 CALLER PUSH20 0xFFFFFFFFFFFFFFFFFFFFFFFFFFFFFFFFFFFFFFFF AND PUSH20 0xFFFFFFFFFFFFFFFFFFFFFFFFFFFFFFFFFFFFFFFF AND DUP2 MSTORE PUSH1 0x20 ADD SWAP1 DUP2 MSTORE PUSH1 0x20 ADD PUSH1 0x0 KECCAK256 DUP3 DUP2 SLOAD DUP2 LT PUSH2 0x3E2 JUMPI PUSH2 0x3E1 PUSH2 0x117D JUMP JUMPDEST JUMPDEST SWAP1 PUSH1 0x0 MSTORE PUSH1 0x20 PUSH1 0x0 KECCAK256 SWAP1 PUSH1 0x3 MUL ADD PUSH1 0x2 ADD SLOAD EQ ISZERO PUSH2 0x4CA JUMPI DUP8 DUP4 LT ISZERO DUP1 ISZERO PUSH2 0x414 JUMPI POP DUP7 DUP9 PUSH2 0x411 SWAP2 SWAP1 PUSH2 0x1013 JUMP JUMPDEST DUP4 LT JUMPDEST ISZERO PUSH2 0x4AA JUMPI PUSH1 0x2 PUSH1 0x0 CALLER PUSH20 0xFFFFFFFFFFFFFFFFFFFFFFFFFFFFFFFFFFFFFFFF AND PUSH20 0xFFFFFFFFFFFFFFFFFFFFFFFFFFFFFFFFFFFFFFFF AND DUP2 MSTORE PUSH1 0x20 ADD SWAP1 DUP2 MSTORE PUSH1 0x20 ADD PUSH1 0x0 KECCAK256 DUP2 DUP2 SLOAD DUP2 LT PUSH2 0x46A JUMPI PUSH2 0x469 PUSH2 0x117D JUMP JUMPDEST JUMPDEST SWAP1 PUSH1 0x0 MSTORE PUSH1 0x20 PUSH1 0x0 KECCAK256 SWAP1 PUSH1 0x3 MUL ADD PUSH1 0x0 ADD SLOAD DUP3 DUP5 DUP2 MLOAD DUP2 LT PUSH2 0x48F JUMPI PUSH2 0x48E PUSH2 0x117D JUMP JUMPDEST JUMPDEST PUSH1 0x20 MUL PUSH1 0x20 ADD ADD DUP2 DUP2 MSTORE POP POP DUP3 DUP1 PUSH2 0x4A6 SWAP1 PUSH2 0x1105 JUMP JUMPDEST SWAP4 POP POP JUMPDEST DUP7 DUP9 PUSH2 0x4B6 SWAP2 SWAP1 PUSH2 0x1013 JUMP JUMPDEST DUP4 GT ISZERO PUSH2 0x4C9 JUMPI DUP2 SWAP5 POP POP POP POP POP PUSH2 0x4E3 JUMP JUMPDEST JUMPDEST DUP1 PUSH2 0x4D4 SWAP1 PUSH2 0x1105 JUMP JUMPDEST SWAP1 POP PUSH2 0x387 JUMP JUMPDEST POP DUP1 SWAP4 POP POP POP POP JUMPDEST SWAP4 SWAP3 POP POP POP JUMP JUMPDEST PUSH1 0x2 PUSH1 0x20 MSTORE DUP2 PUSH1 0x0 MSTORE PUSH1 0x40 PUSH1 0x0 KECCAK256 DUP2 DUP2 SLOAD DUP2 LT PUSH2 0x506 JUMPI PUSH1 0x0 DUP1 REVERT JUMPDEST SWAP1 PUSH1 0x0 MSTORE PUSH1 0x20 PUSH1 0x0 KECCAK256 SWAP1 PUSH1 0x3 MUL ADD PUSH1 0x0 SWAP2 POP SWAP2 POP POP DUP1 PUSH1 0x0 ADD SLOAD SWAP1 DUP1 PUSH1 0x1 ADD SLOAD SWAP1 DUP1 PUSH1 0x2 ADD SLOAD SWAP1 POP DUP4 JUMP JUMPDEST PUSH1 0x0 DUP1 PUSH1 0x3 PUSH1 0x0 CALLER PUSH20 0xFFFFFFFFFFFFFFFFFFFFFFFFFFFFFFFFFFFFFFFF AND PUSH20 0xFFFFFFFFFFFFFFFFFFFFFFFFFFFFFFFFFFFFFFFF AND DUP2 MSTORE PUSH1 0x20 ADD SWAP1 DUP2 MSTORE PUSH1 0x20 ADD PUSH1 0x0 KECCAK256 SLOAD SWAP1 POP PUSH1 0x0 JUMPDEST DUP2 DUP2 LT ISZERO PUSH2 0x60C JUMPI PUSH1 0x0 PUSH1 0x2 PUSH1 0x0 CALLER PUSH20 0xFFFFFFFFFFFFFFFFFFFFFFFFFFFFFFFFFFFFFFFF AND PUSH20 0xFFFFFFFFFFFFFFFFFFFFFFFFFFFFFFFFFFFFFFFF AND DUP2 MSTORE PUSH1 0x20 ADD SWAP1 DUP2 MSTORE PUSH1 0x20 ADD PUSH1 0x0 KECCAK256 DUP3 DUP2 SLOAD DUP2 LT PUSH2 0x5D4 JUMPI PUSH2 0x5D3 PUSH2 0x117D JUMP JUMPDEST JUMPDEST SWAP1 PUSH1 0x0 MSTORE PUSH1 0x20 PUSH1 0x0 KECCAK256 SWAP1 PUSH1 0x3 MUL ADD PUSH1 0x2 ADD SLOAD EQ ISZERO PUSH2 0x5FB JUMPI DUP2 DUP1 PUSH2 0x5F7 SWAP1 PUSH2 0x10DB JUMP JUMPDEST SWAP3 POP POP JUMPDEST DUP1 PUSH2 0x605 SWAP1 PUSH2 0x1105 JUMP JUMPDEST SWAP1 POP PUSH2 0x579 JUMP JUMPDEST POP DUP1 SWAP2 POP POP SWAP1 JUMP JUMPDEST DUP1 PUSH1 0x1 PUSH1 0x0 PUSH2 0x100 EXP DUP2 SLOAD DUP2 PUSH20 0xFFFFFFFFFFFFFFFFFFFFFFFFFFFFFFFFFFFFFFFF MUL NOT AND SWAP1 DUP4 PUSH20 0xFFFFFFFFFFFFFFFFFFFFFFFFFFFFFFFFFFFFFFFF AND MUL OR SWAP1 SSTORE POP CALLER PUSH20 0xFFFFFFFFFFFFFFFFFFFFFFFFFFFFFFFFFFFFFFFF AND PUSH1 0x1 PUSH1 0x0 SWAP1 SLOAD SWAP1 PUSH2 0x100 EXP SWAP1 DIV PUSH20 0xFFFFFFFFFFFFFFFFFFFFFFFFFFFFFFFFFFFFFFFF AND PUSH20 0xFFFFFFFFFFFFFFFFFFFFFFFFFFFFFFFFFFFFFFFF AND PUSH4 0x6352211E DUP5 PUSH1 0x40 MLOAD DUP3 PUSH4 0xFFFFFFFF AND PUSH1 0xE0 SHL DUP2 MSTORE PUSH1 0x4 ADD PUSH2 0x6C7 SWAP2 SWAP1 PUSH2 0xF77 JUMP JUMPDEST PUSH1 0x20 PUSH1 0x40 MLOAD DUP1 DUP4 SUB DUP2 DUP7 DUP1 EXTCODESIZE ISZERO DUP1 ISZERO PUSH2 0x6DF JUMPI PUSH1 0x0 DUP1 REVERT JUMPDEST POP GAS STATICCALL ISZERO DUP1 ISZERO PUSH2 0x6F3 JUMPI RETURNDATASIZE PUSH1 0x0 DUP1 RETURNDATACOPY RETURNDATASIZE PUSH1 0x0 REVERT JUMPDEST POP POP POP POP PUSH1 0x40 MLOAD RETURNDATASIZE PUSH1 0x1F NOT PUSH1 0x1F DUP3 ADD AND DUP3 ADD DUP1 PUSH1 0x40 MSTORE POP DUP2 ADD SWAP1 PUSH2 0x717 SWAP2 SWAP1 PUSH2 0xCBE JUMP JUMPDEST PUSH20 0xFFFFFFFFFFFFFFFFFFFFFFFFFFFFFFFFFFFFFFFF AND EQ PUSH2 0x76D JUMPI PUSH1 0x40 MLOAD PUSH32 0x8C379A000000000000000000000000000000000000000000000000000000000 DUP2 MSTORE PUSH1 0x4 ADD PUSH2 0x764 SWAP1 PUSH2 0xF37 JUMP JUMPDEST PUSH1 0x40 MLOAD DUP1 SWAP2 SUB SWAP1 REVERT JUMPDEST PUSH2 0x775 PUSH2 0xC31 JUMP JUMPDEST PUSH1 0x0 PUSH1 0x3 PUSH1 0x0 CALLER PUSH20 0xFFFFFFFFFFFFFFFFFFFFFFFFFFFFFFFFFFFFFFFF AND PUSH20 0xFFFFFFFFFFFFFFFFFFFFFFFFFFFFFFFFFFFFFFFF AND DUP2 MSTORE PUSH1 0x20 ADD SWAP1 DUP2 MSTORE PUSH1 0x20 ADD PUSH1 0x0 KECCAK256 SLOAD SWAP1 POP DUP4 DUP3 PUSH1 0x0 ADD DUP2 DUP2 MSTORE POP POP TIMESTAMP DUP3 PUSH1 0x20 ADD DUP2 DUP2 MSTORE POP POP PUSH1 0x1 DUP3 PUSH1 0x40 ADD DUP2 DUP2 MSTORE POP POP DUP2 PUSH1 0x2 PUSH1 0x0 CALLER PUSH20 0xFFFFFFFFFFFFFFFFFFFFFFFFFFFFFFFFFFFFFFFF AND PUSH20 0xFFFFFFFFFFFFFFFFFFFFFFFFFFFFFFFFFFFFFFFF AND DUP2 MSTORE PUSH1 0x20 ADD SWAP1 DUP2 MSTORE PUSH1 0x20 ADD PUSH1 0x0 KECCAK256 DUP3 DUP2 SLOAD DUP2 LT PUSH2 0x82A JUMPI PUSH2 0x829 PUSH2 0x117D JUMP JUMPDEST JUMPDEST SWAP1 PUSH1 0x0 MSTORE PUSH1 0x20 PUSH1 0x0 KECCAK256 SWAP1 PUSH1 0x3 MUL ADD PUSH1 0x0 DUP3 ADD MLOAD DUP2 PUSH1 0x0 ADD SSTORE PUSH1 0x20 DUP3 ADD MLOAD DUP2 PUSH1 0x1 ADD SSTORE PUSH1 0x40 DUP3 ADD MLOAD DUP2 PUSH1 0x2 ADD SSTORE SWAP1 POP POP PUSH1 0x1 PUSH1 0x3 PUSH1 0x0 CALLER PUSH20 0xFFFFFFFFFFFFFFFFFFFFFFFFFFFFFFFFFFFFFFFF AND PUSH20 0xFFFFFFFFFFFFFFFFFFFFFFFFFFFFFFFFFFFFFFFF AND DUP2 MSTORE PUSH1 0x20 ADD SWAP1 DUP2 MSTORE PUSH1 0x20 ADD PUSH1 0x0 KECCAK256 PUSH1 0x0 DUP3 DUP3 SLOAD PUSH2 0x8A9 SWAP2 SWAP1 PUSH2 0x1013 JUMP JUMPDEST SWAP3 POP POP DUP2 SWAP1 SSTORE POP PUSH1 0x1 PUSH1 0x0 SWAP1 SLOAD SWAP1 PUSH2 0x100 EXP SWAP1 DIV PUSH20 0xFFFFFFFFFFFFFFFFFFFFFFFFFFFFFFFFFFFFFFFF AND PUSH20 0xFFFFFFFFFFFFFFFFFFFFFFFFFFFFFFFFFFFFFFFF AND PUSH4 0x95EA7B3 ADDRESS DUP7 PUSH1 0x40 MLOAD DUP4 PUSH4 0xFFFFFFFF AND PUSH1 0xE0 SHL DUP2 MSTORE PUSH1 0x4 ADD PUSH2 0x90D SWAP3 SWAP2 SWAP1 PUSH2 0xED1 JUMP JUMPDEST PUSH1 0x0 PUSH1 0x40 MLOAD DUP1 DUP4 SUB DUP2 PUSH1 0x0 DUP8 DUP1 EXTCODESIZE ISZERO DUP1 ISZERO PUSH2 0x927 JUMPI PUSH1 0x0 DUP1 REVERT JUMPDEST POP GAS CALL ISZERO DUP1 ISZERO PUSH2 0x93B JUMPI RETURNDATASIZE PUSH1 0x0 DUP1 RETURNDATACOPY RETURNDATASIZE PUSH1 0x0 REVERT JUMPDEST POP POP POP POP POP POP POP POP JUMP JUMPDEST PUSH1 0x3 PUSH1 0x20 MSTORE DUP1 PUSH1 0x0 MSTORE PUSH1 0x40 PUSH1 0x0 KECCAK256 PUSH1 0x0 SWAP2 POP SWAP1 POP SLOAD DUP2 JUMP JUMPDEST DUP1 PUSH1 0x1 PUSH1 0x0 PUSH2 0x100 EXP DUP2 SLOAD DUP2 PUSH20 0xFFFFFFFFFFFFFFFFFFFFFFFFFFFFFFFFFFFFFFFF MUL NOT AND SWAP1 DUP4 PUSH20 0xFFFFFFFFFFFFFFFFFFFFFFFFFFFFFFFFFFFFFFFF AND MUL OR SWAP1 SSTORE POP PUSH1 0x0 PUSH1 0x3 PUSH1 0x0 CALLER PUSH20 0xFFFFFFFFFFFFFFFFFFFFFFFFFFFFFFFFFFFFFFFF AND PUSH20 0xFFFFFFFFFFFFFFFFFFFFFFFFFFFFFFFFFFFFFFFF AND DUP2 MSTORE PUSH1 0x20 ADD SWAP1 DUP2 MSTORE PUSH1 0x20 ADD PUSH1 0x0 KECCAK256 SLOAD SWAP1 POP PUSH1 0x0 JUMPDEST DUP2 DUP2 LT ISZERO PUSH2 0xC05 JUMPI DUP4 PUSH1 0x2 PUSH1 0x0 CALLER PUSH20 0xFFFFFFFFFFFFFFFFFFFFFFFFFFFFFFFFFFFFFFFF AND PUSH20 0xFFFFFFFFFFFFFFFFFFFFFFFFFFFFFFFFFFFFFFFF AND DUP2 MSTORE PUSH1 0x20 ADD SWAP1 DUP2 MSTORE PUSH1 0x20 ADD PUSH1 0x0 KECCAK256 DUP3 DUP2 SLOAD DUP2 LT PUSH2 0xA3F JUMPI PUSH2 0xA3E PUSH2 0x117D JUMP JUMPDEST JUMPDEST SWAP1 PUSH1 0x0 MSTORE PUSH1 0x20 PUSH1 0x0 KECCAK256 SWAP1 PUSH1 0x3 MUL ADD PUSH1 0x0 ADD SLOAD EQ ISZERO PUSH2 0xBF4 JUMPI PUSH1 0x1 PUSH1 0x2 PUSH1 0x0 CALLER PUSH20 0xFFFFFFFFFFFFFFFFFFFFFFFFFFFFFFFFFFFFFFFF AND PUSH20 0xFFFFFFFFFFFFFFFFFFFFFFFFFFFFFFFFFFFFFFFF AND DUP2 MSTORE PUSH1 0x20 ADD SWAP1 DUP2 MSTORE PUSH1 0x20 ADD PUSH1 0x0 KECCAK256 DUP3 DUP2 SLOAD DUP2 LT PUSH2 0xAAA JUMPI PUSH2 0xAA9 PUSH2 0x117D JUMP JUMPDEST JUMPDEST SWAP1 PUSH1 0x0 MSTORE PUSH1 0x20 PUSH1 0x0 KECCAK256 SWAP1 PUSH1 0x3 MUL ADD PUSH1 0x2 ADD SLOAD EQ PUSH2 0xAFC JUMPI PUSH1 0x40 MLOAD PUSH32 0x8C379A000000000000000000000000000000000000000000000000000000000 DUP2 MSTORE PUSH1 0x4 ADD PUSH2 0xAF3 SWAP1 PUSH2 0xF57 JUMP JUMPDEST PUSH1 0x40 MLOAD DUP1 SWAP2 SUB SWAP1 REVERT JUMPDEST PUSH1 0x0 PUSH1 0x2 PUSH1 0x0 CALLER PUSH20 0xFFFFFFFFFFFFFFFFFFFFFFFFFFFFFFFFFFFFFFFF AND PUSH20 0xFFFFFFFFFFFFFFFFFFFFFFFFFFFFFFFFFFFFFFFF AND DUP2 MSTORE PUSH1 0x20 ADD SWAP1 DUP2 MSTORE PUSH1 0x20 ADD PUSH1 0x0 KECCAK256 DUP6 DUP2 SLOAD DUP2 LT PUSH2 0xB4F JUMPI PUSH2 0xB4E PUSH2 0x117D JUMP JUMPDEST JUMPDEST SWAP1 PUSH1 0x0 MSTORE PUSH1 0x20 PUSH1 0x0 KECCAK256 SWAP1 PUSH1 0x3 MUL ADD PUSH1 0x2 ADD DUP2 SWAP1 SSTORE POP PUSH1 0x1 PUSH1 0x0 SWAP1 SLOAD SWAP1 PUSH2 0x100 EXP SWAP1 DIV PUSH20 0xFFFFFFFFFFFFFFFFFFFFFFFFFFFFFFFFFFFFFFFF AND PUSH20 0xFFFFFFFFFFFFFFFFFFFFFFFFFFFFFFFFFFFFFFFF AND PUSH4 0x95EA7B3 CALLER DUP7 PUSH1 0x40 MLOAD DUP4 PUSH4 0xFFFFFFFF AND PUSH1 0xE0 SHL DUP2 MSTORE PUSH1 0x4 ADD PUSH2 0xBC1 SWAP3 SWAP2 SWAP1 PUSH2 0xED1 JUMP JUMPDEST PUSH1 0x0 PUSH1 0x40 MLOAD DUP1 DUP4 SUB DUP2 PUSH1 0x0 DUP8 DUP1 EXTCODESIZE ISZERO DUP1 ISZERO PUSH2 0xBDB JUMPI PUSH1 0x0 DUP1 REVERT JUMPDEST POP GAS CALL ISZERO DUP1 ISZERO PUSH2 0xBEF JUMPI RETURNDATASIZE PUSH1 0x0 DUP1 RETURNDATACOPY RETURNDATASIZE PUSH1 0x0 REVERT JUMPDEST POP POP POP POP JUMPDEST DUP1 PUSH2 0xBFE SWAP1 PUSH2 0x1105 JUMP JUMPDEST SWAP1 POP PUSH2 0x9E5 JUMP JUMPDEST POP POP POP POP JUMP JUMPDEST PUSH1 0x1 PUSH1 0x0 SWAP1 SLOAD SWAP1 PUSH2 0x100 EXP SWAP1 DIV PUSH20 0xFFFFFFFFFFFFFFFFFFFFFFFFFFFFFFFFFFFFFFFF AND DUP2 JUMP JUMPDEST PUSH1 0x40 MLOAD DUP1 PUSH1 0x60 ADD PUSH1 0x40 MSTORE DUP1 PUSH1 0x0 DUP2 MSTORE PUSH1 0x20 ADD PUSH1 0x0 DUP2 MSTORE PUSH1 0x20 ADD PUSH1 0x0 DUP2 MSTORE POP SWAP1 JUMP JUMPDEST PUSH1 0x0 DUP2 CALLDATALOAD SWAP1 POP PUSH2 0xC61 DUP2 PUSH2 0x1203 JUMP JUMPDEST SWAP3 SWAP2 POP POP JUMP JUMPDEST PUSH1 0x0 DUP2 MLOAD SWAP1 POP PUSH2 0xC76 DUP2 PUSH2 0x1203 JUMP JUMPDEST SWAP3 SWAP2 POP POP JUMP JUMPDEST PUSH1 0x0 DUP2 CALLDATALOAD SWAP1 POP PUSH2 0xC8B DUP2 PUSH2 0x121A JUMP JUMPDEST SWAP3 SWAP2 POP POP JUMP JUMPDEST PUSH1 0x0 PUSH1 0x20 DUP3 DUP5 SUB SLT ISZERO PUSH2 0xCA7 JUMPI PUSH2 0xCA6 PUSH2 0x11AC JUMP JUMPDEST JUMPDEST PUSH1 0x0 PUSH2 0xCB5 DUP5 DUP3 DUP6 ADD PUSH2 0xC52 JUMP JUMPDEST SWAP2 POP POP SWAP3 SWAP2 POP POP JUMP JUMPDEST PUSH1 0x0 PUSH1 0x20 DUP3 DUP5 SUB SLT ISZERO PUSH2 0xCD4 JUMPI PUSH2 0xCD3 PUSH2 0x11AC JUMP JUMPDEST JUMPDEST PUSH1 0x0 PUSH2 0xCE2 DUP5 DUP3 DUP6 ADD PUSH2 0xC67 JUMP JUMPDEST SWAP2 POP POP SWAP3 SWAP2 POP POP JUMP JUMPDEST PUSH1 0x0 DUP1 PUSH1 0x40 DUP4 DUP6 SUB SLT ISZERO PUSH2 0xD02 JUMPI PUSH2 0xD01 PUSH2 0x11AC JUMP JUMPDEST JUMPDEST PUSH1 0x0 PUSH2 0xD10 DUP6 DUP3 DUP7 ADD PUSH2 0xC52 JUMP JUMPDEST SWAP3 POP POP PUSH1 0x20 PUSH2 0xD21 DUP6 DUP3 DUP7 ADD PUSH2 0xC7C JUMP JUMPDEST SWAP2 POP POP SWAP3 POP SWAP3 SWAP1 POP JUMP JUMPDEST PUSH1 0x0 DUP1 PUSH1 0x40 DUP4 DUP6 SUB SLT ISZERO PUSH2 0xD42 JUMPI PUSH2 0xD41 PUSH2 0x11AC JUMP JUMPDEST JUMPDEST PUSH1 0x0 PUSH2 0xD50 DUP6 DUP3 DUP7 ADD PUSH2 0xC7C JUMP JUMPDEST SWAP3 POP POP PUSH1 0x20 PUSH2 0xD61 DUP6 DUP3 DUP7 ADD PUSH2 0xC52 JUMP JUMPDEST SWAP2 POP POP SWAP3 POP SWAP3 SWAP1 POP JUMP JUMPDEST PUSH1 0x0 DUP1 PUSH1 0x0 PUSH1 0x60 DUP5 DUP7 SUB SLT ISZERO PUSH2 0xD84 JUMPI PUSH2 0xD83 PUSH2 0x11AC JUMP JUMPDEST JUMPDEST PUSH1 0x0 PUSH2 0xD92 DUP7 DUP3 DUP8 ADD PUSH2 0xC7C JUMP JUMPDEST SWAP4 POP POP PUSH1 0x20 PUSH2 0xDA3 DUP7 DUP3 DUP8 ADD PUSH2 0xC7C JUMP JUMPDEST SWAP3 POP POP PUSH1 0x40 PUSH2 0xDB4 DUP7 DUP3 DUP8 ADD PUSH2 0xC52 JUMP JUMPDEST SWAP2 POP POP SWAP3 POP SWAP3 POP SWAP3 JUMP JUMPDEST PUSH1 0x0 PUSH2 0xDCA DUP4 DUP4 PUSH2 0xE98 JUMP JUMPDEST PUSH1 0x20 DUP4 ADD SWAP1 POP SWAP3 SWAP2 POP POP JUMP JUMPDEST PUSH2 0xDDF DUP2 PUSH2 0x1069 JUMP JUMPDEST DUP3 MSTORE POP POP JUMP JUMPDEST PUSH1 0x0 PUSH2 0xDF0 DUP3 PUSH2 0xFD9 JUMP JUMPDEST PUSH2 0xDFA DUP2 DUP6 PUSH2 0xFF1 JUMP JUMPDEST SWAP4 POP PUSH2 0xE05 DUP4 PUSH2 0xFC9 JUMP JUMPDEST DUP1 PUSH1 0x0 JUMPDEST DUP4 DUP2 LT ISZERO PUSH2 0xE36 JUMPI DUP2 MLOAD PUSH2 0xE1D DUP9 DUP3 PUSH2 0xDBE JUMP JUMPDEST SWAP8 POP PUSH2 0xE28 DUP4 PUSH2 0xFE4 JUMP JUMPDEST SWAP3 POP POP PUSH1 0x1 DUP2 ADD SWAP1 POP PUSH2 0xE09 JUMP JUMPDEST POP DUP6 SWAP4 POP POP POP POP SWAP3 SWAP2 POP POP JUMP JUMPDEST PUSH2 0xE4C DUP2 PUSH2 0x10A5 JUMP JUMPDEST DUP3 MSTORE POP POP JUMP JUMPDEST PUSH1 0x0 PUSH2 0xE5F PUSH1 0x16 DUP4 PUSH2 0x1002 JUMP JUMPDEST SWAP2 POP PUSH2 0xE6A DUP3 PUSH2 0x11B1 JUMP JUMPDEST PUSH1 0x20 DUP3 ADD SWAP1 POP SWAP2 SWAP1 POP JUMP JUMPDEST PUSH1 0x0 PUSH2 0xE82 PUSH1 0x19 DUP4 PUSH2 0x1002 JUMP JUMPDEST SWAP2 POP PUSH2 0xE8D DUP3 PUSH2 0x11DA JUMP JUMPDEST PUSH1 0x20 DUP3 ADD SWAP1 POP SWAP2 SWAP1 POP JUMP JUMPDEST PUSH2 0xEA1 DUP2 PUSH2 0x109B JUMP JUMPDEST DUP3 MSTORE POP POP JUMP JUMPDEST PUSH2 0xEB0 DUP2 PUSH2 0x109B JUMP JUMPDEST DUP3 MSTORE POP POP JUMP JUMPDEST PUSH1 0x0 PUSH1 0x20 DUP3 ADD SWAP1 POP PUSH2 0xECB PUSH1 0x0 DUP4 ADD DUP5 PUSH2 0xDD6 JUMP JUMPDEST SWAP3 SWAP2 POP POP JUMP JUMPDEST PUSH1 0x0 PUSH1 0x40 DUP3 ADD SWAP1 POP PUSH2 0xEE6 PUSH1 0x0 DUP4 ADD DUP6 PUSH2 0xDD6 JUMP JUMPDEST PUSH2 0xEF3 PUSH1 0x20 DUP4 ADD DUP5 PUSH2 0xEA7 JUMP JUMPDEST SWAP4 SWAP3 POP POP POP JUMP JUMPDEST PUSH1 0x0 PUSH1 0x20 DUP3 ADD SWAP1 POP DUP2 DUP2 SUB PUSH1 0x0 DUP4 ADD MSTORE PUSH2 0xF14 DUP2 DUP5 PUSH2 0xDE5 JUMP JUMPDEST SWAP1 POP SWAP3 SWAP2 POP POP JUMP JUMPDEST PUSH1 0x0 PUSH1 0x20 DUP3 ADD SWAP1 POP PUSH2 0xF31 PUSH1 0x0 DUP4 ADD DUP5 PUSH2 0xE43 JUMP JUMPDEST SWAP3 SWAP2 POP POP JUMP JUMPDEST PUSH1 0x0 PUSH1 0x20 DUP3 ADD SWAP1 POP DUP2 DUP2 SUB PUSH1 0x0 DUP4 ADD MSTORE PUSH2 0xF50 DUP2 PUSH2 0xE52 JUMP JUMPDEST SWAP1 POP SWAP2 SWAP1 POP JUMP JUMPDEST PUSH1 0x0 PUSH1 0x20 DUP3 ADD SWAP1 POP DUP2 DUP2 SUB PUSH1 0x0 DUP4 ADD MSTORE PUSH2 0xF70 DUP2 PUSH2 0xE75 JUMP JUMPDEST SWAP1 POP SWAP2 SWAP1 POP JUMP JUMPDEST PUSH1 0x0 PUSH1 0x20 DUP3 ADD SWAP1 POP PUSH2 0xF8C PUSH1 0x0 DUP4 ADD DUP5 PUSH2 0xEA7 JUMP JUMPDEST SWAP3 SWAP2 POP POP JUMP JUMPDEST PUSH1 0x0 PUSH1 0x60 DUP3 ADD SWAP1 POP PUSH2 0xFA7 PUSH1 0x0 DUP4 ADD DUP7 PUSH2 0xEA7 JUMP JUMPDEST PUSH2 0xFB4 PUSH1 0x20 DUP4 ADD DUP6 PUSH2 0xEA7 JUMP JUMPDEST PUSH2 0xFC1 PUSH1 0x40 DUP4 ADD DUP5 PUSH2 0xEA7 JUMP JUMPDEST SWAP5 SWAP4 POP POP POP POP JUMP JUMPDEST PUSH1 0x0 DUP2 SWAP1 POP PUSH1 0x20 DUP3 ADD SWAP1 POP SWAP2 SWAP1 POP JUMP JUMPDEST PUSH1 0x0 DUP2 MLOAD SWAP1 POP SWAP2 SWAP1 POP JUMP JUMPDEST PUSH1 0x0 PUSH1 0x20 DUP3 ADD SWAP1 POP SWAP2 SWAP1 POP JUMP JUMPDEST PUSH1 0x0 DUP3 DUP3 MSTORE PUSH1 0x20 DUP3 ADD SWAP1 POP SWAP3 SWAP2 POP POP JUMP JUMPDEST PUSH1 0x0 DUP3 DUP3 MSTORE PUSH1 0x20 DUP3 ADD SWAP1 POP SWAP3 SWAP2 POP POP JUMP JUMPDEST PUSH1 0x0 PUSH2 0x101E DUP3 PUSH2 0x109B JUMP JUMPDEST SWAP2 POP PUSH2 0x1029 DUP4 PUSH2 0x109B JUMP JUMPDEST SWAP3 POP DUP3 PUSH32 0xFFFFFFFFFFFFFFFFFFFFFFFFFFFFFFFFFFFFFFFFFFFFFFFFFFFFFFFFFFFFFFFF SUB DUP3 GT ISZERO PUSH2 0x105E JUMPI PUSH2 0x105D PUSH2 0x114E JUMP JUMPDEST JUMPDEST DUP3 DUP3 ADD SWAP1 POP SWAP3 SWAP2 POP POP JUMP JUMPDEST PUSH1 0x0 PUSH2 0x1074 DUP3 PUSH2 0x107B JUMP JUMPDEST SWAP1 POP SWAP2 SWAP1 POP JUMP JUMPDEST PUSH1 0x0 PUSH20 0xFFFFFFFFFFFFFFFFFFFFFFFFFFFFFFFFFFFFFFFF DUP3 AND SWAP1 POP SWAP2 SWAP1 POP JUMP JUMPDEST PUSH1 0x0 DUP2 SWAP1 POP SWAP2 SWAP1 POP JUMP JUMPDEST PUSH1 0x0 PUSH2 0x10B0 DUP3 PUSH2 0x10B7 JUMP JUMPDEST SWAP1 POP SWAP2 SWAP1 POP JUMP JUMPDEST PUSH1 0x0 PUSH2 0x10C2 DUP3 PUSH2 0x10C9 JUMP JUMPDEST SWAP1 POP SWAP2 SWAP1 POP JUMP JUMPDEST PUSH1 0x0 PUSH2 0x10D4 DUP3 PUSH2 0x107B JUMP JUMPDEST SWAP1 POP SWAP2 SWAP1 POP JUMP JUMPDEST PUSH1 0x0 PUSH2 0x10E6 DUP3 PUSH2 0x109B JUMP JUMPDEST SWAP2 POP PUSH1 0x0 DUP3 EQ ISZERO PUSH2 0x10FA JUMPI PUSH2 0x10F9 PUSH2 0x114E JUMP JUMPDEST JUMPDEST PUSH1 0x1 DUP3 SUB SWAP1 POP SWAP2 SWAP1 POP JUMP JUMPDEST PUSH1 0x0 PUSH2 0x1110 DUP3 PUSH2 0x109B JUMP JUMPDEST SWAP2 POP PUSH32 0xFFFFFFFFFFFFFFFFFFFFFFFFFFFFFFFFFFFFFFFFFFFFFFFFFFFFFFFFFFFFFFFF DUP3 EQ ISZERO PUSH2 0x1143 JUMPI PUSH2 0x1142 PUSH2 0x114E JUMP JUMPDEST JUMPDEST PUSH1 0x1 DUP3 ADD SWAP1 POP SWAP2 SWAP1 POP JUMP JUMPDEST PUSH32 0x4E487B7100000000000000000000000000000000000000000000000000000000 PUSH1 0x0 MSTORE PUSH1 0x11 PUSH1 0x4 MSTORE PUSH1 0x24 PUSH1 0x0 REVERT JUMPDEST PUSH32 0x4E487B7100000000000000000000000000000000000000000000000000000000 PUSH1 0x0 MSTORE PUSH1 0x32 PUSH1 0x4 MSTORE PUSH1 0x24 PUSH1 0x0 REVERT JUMPDEST PUSH1 0x0 DUP1 REVERT JUMPDEST PUSH32 0x596F7520646F6E2774206F776E2074686973204E465400000000000000000000 PUSH1 0x0 DUP3 ADD MSTORE POP JUMP JUMPDEST PUSH32 0x596F7520616C7265616479206861766520776974686472617700000000000000 PUSH1 0x0 DUP3 ADD MSTORE POP JUMP JUMPDEST PUSH2 0x120C DUP2 PUSH2 0x1069 JUMP JUMPDEST DUP2 EQ PUSH2 0x1217 JUMPI PUSH1 0x0 DUP1 REVERT JUMPDEST POP JUMP JUMPDEST PUSH2 0x1223 DUP2 PUSH2 0x109B JUMP JUMPDEST DUP2 EQ PUSH2 0x122E JUMPI PUSH1 0x0 DUP1 REVERT JUMPDEST POP JUMP INVALID LOG2 PUSH5 0x6970667358 0x22 SLT KECCAK256 0xD1 PUSH2 0xC930 0xE4 SHL 0xDB 0xE6 0x2A 0xA8 PUSH15 0x86C43CD332A5704F80D4F0A23AE73D SWAP14 0xEF SWAP3 0xB5 0xAF PUSH26 0x64736F6C63430008070033000000000000000000000000000000 "
				},
				"gasEstimates": {
					"creation": {
						"codeDepositCost": "942200",
						"executionCost": "infinite",
						"totalCost": "infinite"
					},
					"external": {
						"depositNFT(uint256,address)": "infinite",
						"loans(address,uint256)": "infinite",
						"loansCount()": "infinite",
						"loansList(uint256,uint256,address)": "infinite",
						"loansNumber(address)": "2836",
						"nftContract()": "2666",
						"ownerOf(uint256,address)": "infinite",
						"withdrawNFT(uint256,address)": "infinite"
					}
				},
				"methodIdentifiers": {
					"depositNFT(uint256,address)": "ab01e4af",
					"loans(address,uint256)": "98c61c37",
					"loansCount()": "9d11ed75",
					"loansList(uint256,uint256,address)": "4fe7abba",
					"loansNumber(address)": "b369ecd7",
					"nftContract()": "d56d229d",
					"ownerOf(uint256,address)": "00f74867",
					"withdrawNFT(uint256,address)": "c1d2d00d"
				}
			},
			"storageLayout": {
				"storage": [
					{
						"astId": 118,
						"contract": "nft-loans/contracts/nft-loan.sol:NFTLoan",
						"label": "owner",
						"offset": 0,
						"slot": "0",
						"type": "t_address"
					},
					{
						"astId": 128,
						"contract": "nft-loans/contracts/nft-loan.sol:NFTLoan",
						"label": "nftContract",
						"offset": 0,
						"slot": "1",
						"type": "t_contract(IERC721)113"
					},
					{
						"astId": 134,
						"contract": "nft-loans/contracts/nft-loan.sol:NFTLoan",
						"label": "loans",
						"offset": 0,
						"slot": "2",
						"type": "t_mapping(t_address,t_array(t_struct(NftLoasInfo)125_storage)dyn_storage)"
					},
					{
						"astId": 138,
						"contract": "nft-loans/contracts/nft-loan.sol:NFTLoan",
						"label": "loansNumber",
						"offset": 0,
						"slot": "3",
						"type": "t_mapping(t_address,t_uint256)"
					}
				],
				"types": {
					"t_address": {
						"encoding": "inplace",
						"label": "address",
						"numberOfBytes": "20"
					},
					"t_array(t_struct(NftLoasInfo)125_storage)dyn_storage": {
						"base": "t_struct(NftLoasInfo)125_storage",
						"encoding": "dynamic_array",
						"label": "struct NFTLoan.NftLoasInfo[]",
						"numberOfBytes": "32"
					},
					"t_contract(IERC721)113": {
						"encoding": "inplace",
						"label": "contract IERC721",
						"numberOfBytes": "20"
					},
					"t_mapping(t_address,t_array(t_struct(NftLoasInfo)125_storage)dyn_storage)": {
						"encoding": "mapping",
						"key": "t_address",
						"label": "mapping(address => struct NFTLoan.NftLoasInfo[])",
						"numberOfBytes": "32",
						"value": "t_array(t_struct(NftLoasInfo)125_storage)dyn_storage"
					},
					"t_mapping(t_address,t_uint256)": {
						"encoding": "mapping",
						"key": "t_address",
						"label": "mapping(address => uint256)",
						"numberOfBytes": "32",
						"value": "t_uint256"
					},
					"t_struct(NftLoasInfo)125_storage": {
						"encoding": "inplace",
						"label": "struct NFTLoan.NftLoasInfo",
						"members": [
							{
								"astId": 120,
								"contract": "nft-loans/contracts/nft-loan.sol:NFTLoan",
								"label": "tokenId",
								"offset": 0,
								"slot": "0",
								"type": "t_uint256"
							},
							{
								"astId": 122,
								"contract": "nft-loans/contracts/nft-loan.sol:NFTLoan",
								"label": "loanTime",
								"offset": 0,
								"slot": "1",
								"type": "t_uint256"
							},
							{
								"astId": 124,
								"contract": "nft-loans/contracts/nft-loan.sol:NFTLoan",
								"label": "flag",
								"offset": 0,
								"slot": "2",
								"type": "t_uint256"
							}
						],
						"numberOfBytes": "96"
					},
					"t_uint256": {
						"encoding": "inplace",
						"label": "uint256",
						"numberOfBytes": "32"
					}
				}
			},
			"userdoc": {
				"kind": "user",
				"methods": {},
				"version": 1
			}
		}
	}
}