{
	"nft-loans/contracts/ERC721.sol": {
		"ERC721": {
			"abi": [
				{
					"inputs": [
						{
							"internalType": "string",
							"name": "name_",
							"type": "string"
						},
						{
							"internalType": "string",
							"name": "symbol_",
							"type": "string"
						}
					],
					"stateMutability": "nonpayable",
					"type": "constructor"
				},
				{
					"anonymous": false,
					"inputs": [
						{
							"indexed": true,
							"internalType": "address",
							"name": "owner",
							"type": "address"
						},
						{
							"indexed": true,
							"internalType": "address",
							"name": "approved",
							"type": "address"
						},
						{
							"indexed": true,
							"internalType": "uint256",
							"name": "tokenId",
							"type": "uint256"
						}
					],
					"name": "Approval",
					"type": "event"
				},
				{
					"anonymous": false,
					"inputs": [
						{
							"indexed": true,
							"internalType": "address",
							"name": "owner",
							"type": "address"
						},
						{
							"indexed": true,
							"internalType": "address",
							"name": "operator",
							"type": "address"
						},
						{
							"indexed": false,
							"internalType": "bool",
							"name": "approved",
							"type": "bool"
						}
					],
					"name": "ApprovalForAll",
					"type": "event"
				},
				{
					"anonymous": false,
					"inputs": [
						{
							"indexed": true,
							"internalType": "address",
							"name": "from",
							"type": "address"
						},
						{
							"indexed": true,
							"internalType": "address",
							"name": "to",
							"type": "address"
						},
						{
							"indexed": true,
							"internalType": "uint256",
							"name": "tokenId",
							"type": "uint256"
						}
					],
					"name": "Transfer",
					"type": "event"
				},
				{
					"inputs": [
						{
							"internalType": "address",
							"name": "to",
							"type": "address"
						},
						{
							"internalType": "uint256",
							"name": "tokenId",
							"type": "uint256"
						}
					],
					"name": "approve",
					"outputs": [],
					"stateMutability": "nonpayable",
					"type": "function"
				},
				{
					"inputs": [
						{
							"internalType": "address",
							"name": "owner",
							"type": "address"
						}
					],
					"name": "balanceOf",
					"outputs": [
						{
							"internalType": "uint256",
							"name": "",
							"type": "uint256"
						}
					],
					"stateMutability": "view",
					"type": "function"
				},
				{
					"inputs": [
						{
							"internalType": "uint256",
							"name": "tokenId",
							"type": "uint256"
						}
					],
					"name": "burn",
					"outputs": [],
					"stateMutability": "nonpayable",
					"type": "function"
				},
				{
					"inputs": [
						{
							"internalType": "uint256",
							"name": "tokenId",
							"type": "uint256"
						}
					],
					"name": "getApproved",
					"outputs": [
						{
							"internalType": "address",
							"name": "",
							"type": "address"
						}
					],
					"stateMutability": "view",
					"type": "function"
				},
				{
					"inputs": [
						{
							"internalType": "address",
							"name": "owner",
							"type": "address"
						},
						{
							"internalType": "address",
							"name": "operator",
							"type": "address"
						}
					],
					"name": "isApprovedForAll",
					"outputs": [
						{
							"internalType": "bool",
							"name": "",
							"type": "bool"
						}
					],
					"stateMutability": "view",
					"type": "function"
				},
				{
					"inputs": [
						{
							"internalType": "address",
							"name": "to",
							"type": "address"
						},
						{
							"internalType": "uint256",
							"name": "tokenId",
							"type": "uint256"
						}
					],
					"name": "mint",
					"outputs": [],
					"stateMutability": "nonpayable",
					"type": "function"
				},
				{
					"inputs": [],
					"name": "name",
					"outputs": [
						{
							"internalType": "string",
							"name": "",
							"type": "string"
						}
					],
					"stateMutability": "view",
					"type": "function"
				},
				{
					"inputs": [
						{
							"internalType": "uint256",
							"name": "tokenId",
							"type": "uint256"
						}
					],
					"name": "ownerOf",
					"outputs": [
						{
							"internalType": "address",
							"name": "owner",
							"type": "address"
						}
					],
					"stateMutability": "view",
					"type": "function"
				},
				{
					"inputs": [
						{
							"internalType": "address",
							"name": "from",
							"type": "address"
						},
						{
							"internalType": "address",
							"name": "to",
							"type": "address"
						},
						{
							"internalType": "uint256",
							"name": "tokenId",
							"type": "uint256"
						}
					],
					"name": "safeTransferFrom",
					"outputs": [],
					"stateMutability": "nonpayable",
					"type": "function"
				},
				{
					"inputs": [
						{
							"internalType": "address",
							"name": "from",
							"type": "address"
						},
						{
							"internalType": "address",
							"name": "to",
							"type": "address"
						},
						{
							"internalType": "uint256",
							"name": "tokenId",
							"type": "uint256"
						},
						{
							"internalType": "bytes",
							"name": "_data",
							"type": "bytes"
						}
					],
					"name": "safeTransferFrom",
					"outputs": [],
					"stateMutability": "nonpayable",
					"type": "function"
				},
				{
					"inputs": [
						{
							"internalType": "address",
							"name": "operator",
							"type": "address"
						},
						{
							"internalType": "bool",
							"name": "approved",
							"type": "bool"
						}
					],
					"name": "setApprovalForAll",
					"outputs": [],
					"stateMutability": "nonpayable",
					"type": "function"
				},
				{
					"inputs": [
						{
							"internalType": "bytes4",
							"name": "interfaceId",
							"type": "bytes4"
						}
					],
					"name": "supportsInterface",
					"outputs": [
						{
							"internalType": "bool",
							"name": "",
							"type": "bool"
						}
					],
					"stateMutability": "pure",
					"type": "function"
				},
				{
					"inputs": [],
					"name": "symbol",
					"outputs": [
						{
							"internalType": "string",
							"name": "",
							"type": "string"
						}
					],
					"stateMutability": "view",
					"type": "function"
				},
				{
					"inputs": [
						{
							"internalType": "uint256",
							"name": "tokenId",
							"type": "uint256"
						}
					],
					"name": "tokenURI",
					"outputs": [
						{
							"internalType": "string",
							"name": "",
							"type": "string"
						}
					],
					"stateMutability": "view",
					"type": "function"
				},
				{
					"inputs": [
						{
							"internalType": "address",
							"name": "from",
							"type": "address"
						},
						{
							"internalType": "address",
							"name": "to",
							"type": "address"
						},
						{
							"internalType": "uint256",
							"name": "tokenId",
							"type": "uint256"
						}
					],
					"name": "transferFrom",
					"outputs": [],
					"stateMutability": "nonpayable",
					"type": "function"
				}
			],
			"devdoc": {
				"kind": "dev",
				"methods": {},
				"version": 1
			},
			"evm": {
				"assembly": "    /* \"nft-loans/contracts/ERC721.sol\":210:7800  contract ERC721 is IERC721, IERC721Metadata{... */\n  mstore(0x40, 0x80)\n    /* \"nft-loans/contracts/ERC721.sol\":858:969  constructor(string memory name_, string memory symbol_) {... */\n  callvalue\n  dup1\n  iszero\n  tag_1\n  jumpi\n  0x00\n  dup1\n  revert\ntag_1:\n  pop\n  mload(0x40)\n  sub(codesize, bytecodeSize)\n  dup1\n  bytecodeSize\n  dup4\n  codecopy\n  dup2\n  dup2\n  add\n  0x40\n  mstore\n  dup2\n  add\n  swap1\n  tag_2\n  swap2\n  swap1\n  tag_3\n  jump\t// in\ntag_2:\n    /* \"nft-loans/contracts/ERC721.sol\":931:936  name_ */\n  dup2\n    /* \"nft-loans/contracts/ERC721.sol\":924:928  name */\n  0x00\n    /* \"nft-loans/contracts/ERC721.sol\":924:936  name = name_ */\n  swap1\n  dup1\n  mload\n  swap1\n  0x20\n  add\n  swap1\n  tag_6\n  swap3\n  swap2\n  swap1\n  tag_7\n  jump\t// in\ntag_6:\n  pop\n    /* \"nft-loans/contracts/ERC721.sol\":955:962  symbol_ */\n  dup1\n    /* \"nft-loans/contracts/ERC721.sol\":946:952  symbol */\n  0x01\n    /* \"nft-loans/contracts/ERC721.sol\":946:962  symbol = symbol_ */\n  swap1\n  dup1\n  mload\n  swap1\n  0x20\n  add\n  swap1\n  tag_8\n  swap3\n  swap2\n  swap1\n  tag_7\n  jump\t// in\ntag_8:\n  pop\n    /* \"nft-loans/contracts/ERC721.sol\":858:969  constructor(string memory name_, string memory symbol_) {... */\n  pop\n  pop\n    /* \"nft-loans/contracts/ERC721.sol\":210:7800  contract ERC721 is IERC721, IERC721Metadata{... */\n  jump(tag_9)\ntag_7:\n  dup3\n  dup1\n  sload\n  tag_10\n  swap1\n  tag_11\n  jump\t// in\ntag_10:\n  swap1\n  0x00\n  mstore\n  keccak256(0x00, 0x20)\n  swap1\n  0x1f\n  add\n  0x20\n  swap1\n  div\n  dup2\n  add\n  swap3\n  dup3\n  tag_13\n  jumpi\n  0x00\n  dup6\n  sstore\n  jump(tag_12)\ntag_13:\n  dup3\n  0x1f\n  lt\n  tag_14\n  jumpi\n  dup1\n  mload\n  not(0xff)\n  and\n  dup4\n  dup1\n  add\n  or\n  dup6\n  sstore\n  jump(tag_12)\ntag_14:\n  dup3\n  dup1\n  add\n  0x01\n  add\n  dup6\n  sstore\n  dup3\n  iszero\n  tag_12\n  jumpi\n  swap2\n  dup3\n  add\ntag_15:\n  dup3\n  dup2\n  gt\n  iszero\n  tag_16\n  jumpi\n  dup3\n  mload\n  dup3\n  sstore\n  swap2\n  0x20\n  add\n  swap2\n  swap1\n  0x01\n  add\n  swap1\n  jump(tag_15)\ntag_16:\ntag_12:\n  pop\n  swap1\n  pop\n  tag_17\n  swap2\n  swap1\n  tag_18\n  jump\t// in\ntag_17:\n  pop\n  swap1\n  jump\t// out\ntag_18:\ntag_19:\n  dup1\n  dup3\n  gt\n  iszero\n  tag_20\n  jumpi\n  0x00\n  dup2\n  0x00\n  swap1\n  sstore\n  pop\n  0x01\n  add\n  jump(tag_19)\ntag_20:\n  pop\n  swap1\n  jump\t// out\n    /* \"#utility.yul\":7:428   */\ntag_22:\n    /* \"#utility.yul\":96:101   */\n  0x00\n    /* \"#utility.yul\":121:187   */\n  tag_24\n    /* \"#utility.yul\":137:186   */\n  tag_25\n    /* \"#utility.yul\":179:185   */\n  dup5\n    /* \"#utility.yul\":137:186   */\n  tag_26\n  jump\t// in\ntag_25:\n    /* \"#utility.yul\":121:187   */\n  tag_27\n  jump\t// in\ntag_24:\n    /* \"#utility.yul\":112:187   */\n  swap1\n  pop\n    /* \"#utility.yul\":210:216   */\n  dup3\n    /* \"#utility.yul\":203:208   */\n  dup2\n    /* \"#utility.yul\":196:217   */\n  mstore\n    /* \"#utility.yul\":248:252   */\n  0x20\n    /* \"#utility.yul\":241:246   */\n  dup2\n    /* \"#utility.yul\":237:253   */\n  add\n    /* \"#utility.yul\":286:289   */\n  dup5\n    /* \"#utility.yul\":277:283   */\n  dup5\n    /* \"#utility.yul\":272:275   */\n  dup5\n    /* \"#utility.yul\":268:284   */\n  add\n    /* \"#utility.yul\":265:290   */\n  gt\n    /* \"#utility.yul\":262:374   */\n  iszero\n  tag_28\n  jumpi\n    /* \"#utility.yul\":293:372   */\n  tag_29\n  tag_30\n  jump\t// in\ntag_29:\n    /* \"#utility.yul\":262:374   */\ntag_28:\n    /* \"#utility.yul\":383:422   */\n  tag_31\n    /* \"#utility.yul\":415:421   */\n  dup5\n    /* \"#utility.yul\":410:413   */\n  dup3\n    /* \"#utility.yul\":405:408   */\n  dup6\n    /* \"#utility.yul\":383:422   */\n  tag_32\n  jump\t// in\ntag_31:\n    /* \"#utility.yul\":102:428   */\n  pop\n    /* \"#utility.yul\":7:428   */\n  swap4\n  swap3\n  pop\n  pop\n  pop\n  jump\t// out\n    /* \"#utility.yul\":448:803   */\ntag_33:\n    /* \"#utility.yul\":515:520   */\n  0x00\n    /* \"#utility.yul\":564:567   */\n  dup3\n    /* \"#utility.yul\":557:561   */\n  0x1f\n    /* \"#utility.yul\":549:555   */\n  dup4\n    /* \"#utility.yul\":545:562   */\n  add\n    /* \"#utility.yul\":541:568   */\n  slt\n    /* \"#utility.yul\":531:653   */\n  tag_35\n  jumpi\n    /* \"#utility.yul\":572:651   */\n  tag_36\n  tag_37\n  jump\t// in\ntag_36:\n    /* \"#utility.yul\":531:653   */\ntag_35:\n    /* \"#utility.yul\":682:688   */\n  dup2\n    /* \"#utility.yul\":676:689   */\n  mload\n    /* \"#utility.yul\":707:797   */\n  tag_38\n    /* \"#utility.yul\":793:796   */\n  dup5\n    /* \"#utility.yul\":785:791   */\n  dup3\n    /* \"#utility.yul\":778:782   */\n  0x20\n    /* \"#utility.yul\":770:776   */\n  dup7\n    /* \"#utility.yul\":766:783   */\n  add\n    /* \"#utility.yul\":707:797   */\n  tag_22\n  jump\t// in\ntag_38:\n    /* \"#utility.yul\":698:797   */\n  swap2\n  pop\n    /* \"#utility.yul\":521:803   */\n  pop\n    /* \"#utility.yul\":448:803   */\n  swap3\n  swap2\n  pop\n  pop\n  jump\t// out\n    /* \"#utility.yul\":809:1662   */\ntag_3:\n    /* \"#utility.yul\":908:914   */\n  0x00\n    /* \"#utility.yul\":916:922   */\n  dup1\n    /* \"#utility.yul\":965:967   */\n  0x40\n    /* \"#utility.yul\":953:962   */\n  dup4\n    /* \"#utility.yul\":944:951   */\n  dup6\n    /* \"#utility.yul\":940:963   */\n  sub\n    /* \"#utility.yul\":936:968   */\n  slt\n    /* \"#utility.yul\":933:1052   */\n  iszero\n  tag_40\n  jumpi\n    /* \"#utility.yul\":971:1050   */\n  tag_41\n  tag_42\n  jump\t// in\ntag_41:\n    /* \"#utility.yul\":933:1052   */\ntag_40:\n    /* \"#utility.yul\":1112:1113   */\n  0x00\n    /* \"#utility.yul\":1101:1110   */\n  dup4\n    /* \"#utility.yul\":1097:1114   */\n  add\n    /* \"#utility.yul\":1091:1115   */\n  mload\n    /* \"#utility.yul\":1142:1160   */\n  0xffffffffffffffff\n    /* \"#utility.yul\":1134:1140   */\n  dup2\n    /* \"#utility.yul\":1131:1161   */\n  gt\n    /* \"#utility.yul\":1128:1245   */\n  iszero\n  tag_43\n  jumpi\n    /* \"#utility.yul\":1164:1243   */\n  tag_44\n  tag_45\n  jump\t// in\ntag_44:\n    /* \"#utility.yul\":1128:1245   */\ntag_43:\n    /* \"#utility.yul\":1269:1343   */\n  tag_46\n    /* \"#utility.yul\":1335:1342   */\n  dup6\n    /* \"#utility.yul\":1326:1332   */\n  dup3\n    /* \"#utility.yul\":1315:1324   */\n  dup7\n    /* \"#utility.yul\":1311:1333   */\n  add\n    /* \"#utility.yul\":1269:1343   */\n  tag_33\n  jump\t// in\ntag_46:\n    /* \"#utility.yul\":1259:1343   */\n  swap3\n  pop\n    /* \"#utility.yul\":1062:1353   */\n  pop\n    /* \"#utility.yul\":1413:1415   */\n  0x20\n    /* \"#utility.yul\":1402:1411   */\n  dup4\n    /* \"#utility.yul\":1398:1416   */\n  add\n    /* \"#utility.yul\":1392:1417   */\n  mload\n    /* \"#utility.yul\":1444:1462   */\n  0xffffffffffffffff\n    /* \"#utility.yul\":1436:1442   */\n  dup2\n    /* \"#utility.yul\":1433:1463   */\n  gt\n    /* \"#utility.yul\":1430:1547   */\n  iszero\n  tag_47\n  jumpi\n    /* \"#utility.yul\":1466:1545   */\n  tag_48\n  tag_45\n  jump\t// in\ntag_48:\n    /* \"#utility.yul\":1430:1547   */\ntag_47:\n    /* \"#utility.yul\":1571:1645   */\n  tag_49\n    /* \"#utility.yul\":1637:1644   */\n  dup6\n    /* \"#utility.yul\":1628:1634   */\n  dup3\n    /* \"#utility.yul\":1617:1626   */\n  dup7\n    /* \"#utility.yul\":1613:1635   */\n  add\n    /* \"#utility.yul\":1571:1645   */\n  tag_33\n  jump\t// in\ntag_49:\n    /* \"#utility.yul\":1561:1645   */\n  swap2\n  pop\n    /* \"#utility.yul\":1363:1655   */\n  pop\n    /* \"#utility.yul\":809:1662   */\n  swap3\n  pop\n  swap3\n  swap1\n  pop\n  jump\t// out\n    /* \"#utility.yul\":1668:1797   */\ntag_27:\n    /* \"#utility.yul\":1702:1708   */\n  0x00\n    /* \"#utility.yul\":1729:1749   */\n  tag_51\n  tag_52\n  jump\t// in\ntag_51:\n    /* \"#utility.yul\":1719:1749   */\n  swap1\n  pop\n    /* \"#utility.yul\":1758:1791   */\n  tag_53\n    /* \"#utility.yul\":1786:1790   */\n  dup3\n    /* \"#utility.yul\":1778:1784   */\n  dup3\n    /* \"#utility.yul\":1758:1791   */\n  tag_54\n  jump\t// in\ntag_53:\n    /* \"#utility.yul\":1668:1797   */\n  swap2\n  swap1\n  pop\n  jump\t// out\n    /* \"#utility.yul\":1803:1878   */\ntag_52:\n    /* \"#utility.yul\":1836:1842   */\n  0x00\n    /* \"#utility.yul\":1869:1871   */\n  0x40\n    /* \"#utility.yul\":1863:1872   */\n  mload\n    /* \"#utility.yul\":1853:1872   */\n  swap1\n  pop\n    /* \"#utility.yul\":1803:1878   */\n  swap1\n  jump\t// out\n    /* \"#utility.yul\":1884:2192   */\ntag_26:\n    /* \"#utility.yul\":1946:1950   */\n  0x00\n    /* \"#utility.yul\":2036:2054   */\n  0xffffffffffffffff\n    /* \"#utility.yul\":2028:2034   */\n  dup3\n    /* \"#utility.yul\":2025:2055   */\n  gt\n    /* \"#utility.yul\":2022:2078   */\n  iszero\n  tag_57\n  jumpi\n    /* \"#utility.yul\":2058:2076   */\n  tag_58\n  tag_59\n  jump\t// in\ntag_58:\n    /* \"#utility.yul\":2022:2078   */\ntag_57:\n    /* \"#utility.yul\":2096:2125   */\n  tag_60\n    /* \"#utility.yul\":2118:2124   */\n  dup3\n    /* \"#utility.yul\":2096:2125   */\n  tag_61\n  jump\t// in\ntag_60:\n    /* \"#utility.yul\":2088:2125   */\n  swap1\n  pop\n    /* \"#utility.yul\":2180:2184   */\n  0x20\n    /* \"#utility.yul\":2174:2178   */\n  dup2\n    /* \"#utility.yul\":2170:2185   */\n  add\n    /* \"#utility.yul\":2162:2185   */\n  swap1\n  pop\n    /* \"#utility.yul\":1884:2192   */\n  swap2\n  swap1\n  pop\n  jump\t// out\n    /* \"#utility.yul\":2198:2505   */\ntag_32:\n    /* \"#utility.yul\":2266:2267   */\n  0x00\n    /* \"#utility.yul\":2276:2389   */\ntag_63:\n    /* \"#utility.yul\":2290:2296   */\n  dup4\n    /* \"#utility.yul\":2287:2288   */\n  dup2\n    /* \"#utility.yul\":2284:2297   */\n  lt\n    /* \"#utility.yul\":2276:2389   */\n  iszero\n  tag_65\n  jumpi\n    /* \"#utility.yul\":2375:2376   */\n  dup1\n    /* \"#utility.yul\":2370:2373   */\n  dup3\n    /* \"#utility.yul\":2366:2377   */\n  add\n    /* \"#utility.yul\":2360:2378   */\n  mload\n    /* \"#utility.yul\":2356:2357   */\n  dup2\n    /* \"#utility.yul\":2351:2354   */\n  dup5\n    /* \"#utility.yul\":2347:2358   */\n  add\n    /* \"#utility.yul\":2340:2379   */\n  mstore\n    /* \"#utility.yul\":2312:2314   */\n  0x20\n    /* \"#utility.yul\":2309:2310   */\n  dup2\n    /* \"#utility.yul\":2305:2315   */\n  add\n    /* \"#utility.yul\":2300:2315   */\n  swap1\n  pop\n    /* \"#utility.yul\":2276:2389   */\n  jump(tag_63)\ntag_65:\n    /* \"#utility.yul\":2407:2413   */\n  dup4\n    /* \"#utility.yul\":2404:2405   */\n  dup2\n    /* \"#utility.yul\":2401:2414   */\n  gt\n    /* \"#utility.yul\":2398:2499   */\n  iszero\n  tag_66\n  jumpi\n    /* \"#utility.yul\":2487:2488   */\n  0x00\n    /* \"#utility.yul\":2478:2484   */\n  dup5\n    /* \"#utility.yul\":2473:2476   */\n  dup5\n    /* \"#utility.yul\":2469:2485   */\n  add\n    /* \"#utility.yul\":2462:2489   */\n  mstore\n    /* \"#utility.yul\":2398:2499   */\ntag_66:\n    /* \"#utility.yul\":2247:2505   */\n  pop\n    /* \"#utility.yul\":2198:2505   */\n  pop\n  pop\n  pop\n  jump\t// out\n    /* \"#utility.yul\":2511:2831   */\ntag_11:\n    /* \"#utility.yul\":2555:2561   */\n  0x00\n    /* \"#utility.yul\":2592:2593   */\n  0x02\n    /* \"#utility.yul\":2586:2590   */\n  dup3\n    /* \"#utility.yul\":2582:2594   */\n  div\n    /* \"#utility.yul\":2572:2594   */\n  swap1\n  pop\n    /* \"#utility.yul\":2639:2640   */\n  0x01\n    /* \"#utility.yul\":2633:2637   */\n  dup3\n    /* \"#utility.yul\":2629:2641   */\n  and\n    /* \"#utility.yul\":2660:2678   */\n  dup1\n    /* \"#utility.yul\":2650:2731   */\n  tag_68\n  jumpi\n    /* \"#utility.yul\":2716:2720   */\n  0x7f\n    /* \"#utility.yul\":2708:2714   */\n  dup3\n    /* \"#utility.yul\":2704:2721   */\n  and\n    /* \"#utility.yul\":2694:2721   */\n  swap2\n  pop\n    /* \"#utility.yul\":2650:2731   */\ntag_68:\n    /* \"#utility.yul\":2778:2780   */\n  0x20\n    /* \"#utility.yul\":2770:2776   */\n  dup3\n    /* \"#utility.yul\":2767:2781   */\n  lt\n    /* \"#utility.yul\":2747:2765   */\n  dup2\n    /* \"#utility.yul\":2744:2782   */\n  eq\n    /* \"#utility.yul\":2741:2825   */\n  iszero\n  tag_69\n  jumpi\n    /* \"#utility.yul\":2797:2815   */\n  tag_70\n  tag_71\n  jump\t// in\ntag_70:\n    /* \"#utility.yul\":2741:2825   */\ntag_69:\n    /* \"#utility.yul\":2562:2831   */\n  pop\n    /* \"#utility.yul\":2511:2831   */\n  swap2\n  swap1\n  pop\n  jump\t// out\n    /* \"#utility.yul\":2837:3118   */\ntag_54:\n    /* \"#utility.yul\":2920:2947   */\n  tag_73\n    /* \"#utility.yul\":2942:2946   */\n  dup3\n    /* \"#utility.yul\":2920:2947   */\n  tag_61\n  jump\t// in\ntag_73:\n    /* \"#utility.yul\":2912:2918   */\n  dup2\n    /* \"#utility.yul\":2908:2948   */\n  add\n    /* \"#utility.yul\":3050:3056   */\n  dup2\n    /* \"#utility.yul\":3038:3048   */\n  dup2\n    /* \"#utility.yul\":3035:3057   */\n  lt\n    /* \"#utility.yul\":3014:3032   */\n  0xffffffffffffffff\n    /* \"#utility.yul\":3002:3012   */\n  dup3\n    /* \"#utility.yul\":2999:3033   */\n  gt\n    /* \"#utility.yul\":2996:3058   */\n  or\n    /* \"#utility.yul\":2993:3081   */\n  iszero\n  tag_74\n  jumpi\n    /* \"#utility.yul\":3061:3079   */\n  tag_75\n  tag_59\n  jump\t// in\ntag_75:\n    /* \"#utility.yul\":2993:3081   */\ntag_74:\n    /* \"#utility.yul\":3101:3111   */\n  dup1\n    /* \"#utility.yul\":3097:3099   */\n  0x40\n    /* \"#utility.yul\":3090:3112   */\n  mstore\n    /* \"#utility.yul\":2880:3118   */\n  pop\n    /* \"#utility.yul\":2837:3118   */\n  pop\n  pop\n  jump\t// out\n    /* \"#utility.yul\":3124:3304   */\ntag_71:\n    /* \"#utility.yul\":3172:3249   */\n  0x4e487b7100000000000000000000000000000000000000000000000000000000\n    /* \"#utility.yul\":3169:3170   */\n  0x00\n    /* \"#utility.yul\":3162:3250   */\n  mstore\n    /* \"#utility.yul\":3269:3273   */\n  0x22\n    /* \"#utility.yul\":3266:3267   */\n  0x04\n    /* \"#utility.yul\":3259:3274   */\n  mstore\n    /* \"#utility.yul\":3293:3297   */\n  0x24\n    /* \"#utility.yul\":3290:3291   */\n  0x00\n    /* \"#utility.yul\":3283:3298   */\n  revert\n    /* \"#utility.yul\":3310:3490   */\ntag_59:\n    /* \"#utility.yul\":3358:3435   */\n  0x4e487b7100000000000000000000000000000000000000000000000000000000\n    /* \"#utility.yul\":3355:3356   */\n  0x00\n    /* \"#utility.yul\":3348:3436   */\n  mstore\n    /* \"#utility.yul\":3455:3459   */\n  0x41\n    /* \"#utility.yul\":3452:3453   */\n  0x04\n    /* \"#utility.yul\":3445:3460   */\n  mstore\n    /* \"#utility.yul\":3479:3483   */\n  0x24\n    /* \"#utility.yul\":3476:3477   */\n  0x00\n    /* \"#utility.yul\":3469:3484   */\n  revert\n    /* \"#utility.yul\":3496:3613   */\ntag_37:\n    /* \"#utility.yul\":3605:3606   */\n  0x00\n    /* \"#utility.yul\":3602:3603   */\n  dup1\n    /* \"#utility.yul\":3595:3607   */\n  revert\n    /* \"#utility.yul\":3619:3736   */\ntag_30:\n    /* \"#utility.yul\":3728:3729   */\n  0x00\n    /* \"#utility.yul\":3725:3726   */\n  dup1\n    /* \"#utility.yul\":3718:3730   */\n  revert\n    /* \"#utility.yul\":3742:3859   */\ntag_45:\n    /* \"#utility.yul\":3851:3852   */\n  0x00\n    /* \"#utility.yul\":3848:3849   */\n  dup1\n    /* \"#utility.yul\":3841:3853   */\n  revert\n    /* \"#utility.yul\":3865:3982   */\ntag_42:\n    /* \"#utility.yul\":3974:3975   */\n  0x00\n    /* \"#utility.yul\":3971:3972   */\n  dup1\n    /* \"#utility.yul\":3964:3976   */\n  revert\n    /* \"#utility.yul\":3988:4090   */\ntag_61:\n    /* \"#utility.yul\":4029:4035   */\n  0x00\n    /* \"#utility.yul\":4080:4082   */\n  0x1f\n    /* \"#utility.yul\":4076:4083   */\n  not\n    /* \"#utility.yul\":4071:4073   */\n  0x1f\n    /* \"#utility.yul\":4064:4069   */\n  dup4\n    /* \"#utility.yul\":4060:4074   */\n  add\n    /* \"#utility.yul\":4056:4084   */\n  and\n    /* \"#utility.yul\":4046:4084   */\n  swap1\n  pop\n    /* \"#utility.yul\":3988:4090   */\n  swap2\n  swap1\n  pop\n  jump\t// out\n    /* \"nft-loans/contracts/ERC721.sol\":210:7800  contract ERC721 is IERC721, IERC721Metadata{... */\ntag_9:\n  dataSize(sub_0)\n  dup1\n  dataOffset(sub_0)\n  0x00\n  codecopy\n  0x00\n  return\nstop\n\nsub_0: assembly {\n        /* \"nft-loans/contracts/ERC721.sol\":210:7800  contract ERC721 is IERC721, IERC721Metadata{... */\n      mstore(0x40, 0x80)\n      callvalue\n      dup1\n      iszero\n      tag_1\n      jumpi\n      0x00\n      dup1\n      revert\n    tag_1:\n      pop\n      jumpi(tag_2, lt(calldatasize, 0x04))\n      shr(0xe0, calldataload(0x00))\n      dup1\n      0x42966c68\n      gt\n      tag_18\n      jumpi\n      dup1\n      0xa22cb465\n      gt\n      tag_19\n      jumpi\n      dup1\n      0xa22cb465\n      eq\n      tag_14\n      jumpi\n      dup1\n      0xb88d4fde\n      eq\n      tag_15\n      jumpi\n      dup1\n      0xc87b56dd\n      eq\n      tag_16\n      jumpi\n      dup1\n      0xe985e9c5\n      eq\n      tag_17\n      jumpi\n      jump(tag_2)\n    tag_19:\n      dup1\n      0x42966c68\n      eq\n      tag_10\n      jumpi\n      dup1\n      0x6352211e\n      eq\n      tag_11\n      jumpi\n      dup1\n      0x70a08231\n      eq\n      tag_12\n      jumpi\n      dup1\n      0x95d89b41\n      eq\n      tag_13\n      jumpi\n      jump(tag_2)\n    tag_18:\n      dup1\n      0x095ea7b3\n      gt\n      tag_20\n      jumpi\n      dup1\n      0x095ea7b3\n      eq\n      tag_6\n      jumpi\n      dup1\n      0x23b872dd\n      eq\n      tag_7\n      jumpi\n      dup1\n      0x40c10f19\n      eq\n      tag_8\n      jumpi\n      dup1\n      0x42842e0e\n      eq\n      tag_9\n      jumpi\n      jump(tag_2)\n    tag_20:\n      dup1\n      0x01ffc9a7\n      eq\n      tag_3\n      jumpi\n      dup1\n      0x06fdde03\n      eq\n      tag_4\n      jumpi\n      dup1\n      0x081812fc\n      eq\n      tag_5\n      jumpi\n    tag_2:\n      0x00\n      dup1\n      revert\n        /* \"nft-loans/contracts/ERC721.sol\":1019:1308  function supportsInterface(bytes4 interfaceId)... */\n    tag_3:\n      tag_21\n      0x04\n      dup1\n      calldatasize\n      sub\n      dup2\n      add\n      swap1\n      tag_22\n      swap2\n      swap1\n      tag_23\n      jump\t// in\n    tag_22:\n      tag_24\n      jump\t// in\n    tag_21:\n      mload(0x40)\n      tag_25\n      swap2\n      swap1\n      tag_26\n      jump\t// in\n    tag_25:\n      mload(0x40)\n      dup1\n      swap2\n      sub\n      swap1\n      return\n        /* \"nft-loans/contracts/ERC721.sol\":332:359  string public override name */\n    tag_4:\n      tag_27\n      tag_28\n      jump\t// in\n    tag_27:\n      mload(0x40)\n      tag_29\n      swap2\n      swap1\n      tag_30\n      jump\t// in\n    tag_29:\n      mload(0x40)\n      dup1\n      swap2\n      sub\n      swap1\n      return\n        /* \"nft-loans/contracts/ERC721.sol\":2600:2796  function getApproved(uint tokenId) external view override returns (address) {... */\n    tag_5:\n      tag_31\n      0x04\n      dup1\n      calldatasize\n      sub\n      dup2\n      add\n      swap1\n      tag_32\n      swap2\n      swap1\n      tag_33\n      jump\t// in\n    tag_32:\n      tag_34\n      jump\t// in\n    tag_31:\n      mload(0x40)\n      tag_35\n      swap2\n      swap1\n      tag_36\n      jump\t// in\n    tag_35:\n      mload(0x40)\n      dup1\n      swap2\n      sub\n      swap1\n      return\n        /* \"nft-loans/contracts/ERC721.sol\":3265:3560  function approve(address to, uint tokenId) external override {... */\n    tag_6:\n      tag_37\n      0x04\n      dup1\n      calldatasize\n      sub\n      dup2\n      add\n      swap1\n      tag_38\n      swap2\n      swap1\n      tag_39\n      jump\t// in\n    tag_38:\n      tag_40\n      jump\t// in\n    tag_37:\n      stop\n        /* \"nft-loans/contracts/ERC721.sol\":4460:4789  function transferFrom(... */\n    tag_7:\n      tag_41\n      0x04\n      dup1\n      calldatasize\n      sub\n      dup2\n      add\n      swap1\n      tag_42\n      swap2\n      swap1\n      tag_43\n      jump\t// in\n    tag_42:\n      tag_44\n      jump\t// in\n    tag_41:\n      stop\n        /* \"nft-loans/contracts/ERC721.sol\":5996:6077  function mint(address to,uint tokenId) external{... */\n    tag_8:\n      tag_45\n      0x04\n      dup1\n      calldatasize\n      sub\n      dup2\n      add\n      swap1\n      tag_46\n      swap2\n      swap1\n      tag_39\n      jump\t// in\n    tag_46:\n      tag_47\n      jump\t// in\n    tag_45:\n      stop\n        /* \"nft-loans/contracts/ERC721.sol\":5508:5678  function safeTransferFrom(... */\n    tag_9:\n      tag_48\n      0x04\n      dup1\n      calldatasize\n      sub\n      dup2\n      add\n      swap1\n      tag_49\n      swap2\n      swap1\n      tag_43\n      jump\t// in\n    tag_49:\n      tag_50\n      jump\t// in\n    tag_48:\n      stop\n        /* \"nft-loans/contracts/ERC721.sol\":6538:6605  function burn(uint tokenId) external{... */\n    tag_10:\n      tag_51\n      0x04\n      dup1\n      calldatasize\n      sub\n      dup2\n      add\n      swap1\n      tag_52\n      swap2\n      swap1\n      tag_33\n      jump\t// in\n    tag_52:\n      tag_53\n      jump\t// in\n    tag_51:\n      stop\n        /* \"nft-loans/contracts/ERC721.sol\":1658:1836  function ownerOf(uint tokenId) public view override returns (address owner) {... */\n    tag_11:\n      tag_54\n      0x04\n      dup1\n      calldatasize\n      sub\n      dup2\n      add\n      swap1\n      tag_55\n      swap2\n      swap1\n      tag_33\n      jump\t// in\n    tag_55:\n      tag_56\n      jump\t// in\n    tag_54:\n      mload(0x40)\n      tag_57\n      swap2\n      swap1\n      tag_36\n      jump\t// in\n    tag_57:\n      mload(0x40)\n      dup1\n      swap2\n      sub\n      swap1\n      return\n        /* \"nft-loans/contracts/ERC721.sol\":1401:1575  function balanceOf(address owner) external view override returns (uint) {... */\n    tag_12:\n      tag_58\n      0x04\n      dup1\n      calldatasize\n      sub\n      dup2\n      add\n      swap1\n      tag_59\n      swap2\n      swap1\n      tag_60\n      jump\t// in\n    tag_59:\n      tag_61\n      jump\t// in\n    tag_58:\n      mload(0x40)\n      tag_62\n      swap2\n      swap1\n      tag_63\n      jump\t// in\n    tag_62:\n      mload(0x40)\n      dup1\n      swap2\n      sub\n      swap1\n      return\n        /* \"nft-loans/contracts/ERC721.sol\":384:413  string public override symbol */\n    tag_13:\n      tag_64\n      tag_65\n      jump\t// in\n    tag_64:\n      mload(0x40)\n      tag_66\n      swap2\n      swap1\n      tag_30\n      jump\t// in\n    tag_66:\n      mload(0x40)\n      dup1\n      swap2\n      sub\n      swap1\n      return\n        /* \"nft-loans/contracts/ERC721.sol\":2291:2498  function setApprovalForAll(address operator, bool approved) external override {... */\n    tag_14:\n      tag_67\n      0x04\n      dup1\n      calldatasize\n      sub\n      dup2\n      add\n      swap1\n      tag_68\n      swap2\n      swap1\n      tag_69\n      jump\t// in\n    tag_68:\n      tag_70\n      jump\t// in\n    tag_67:\n      stop\n        /* \"nft-loans/contracts/ERC721.sol\":5096:5466  function safeTransferFrom(... */\n    tag_15:\n      tag_71\n      0x04\n      dup1\n      calldatasize\n      sub\n      dup2\n      add\n      swap1\n      tag_72\n      swap2\n      swap1\n      tag_73\n      jump\t// in\n    tag_72:\n      tag_74\n      jump\t// in\n    tag_71:\n      stop\n        /* \"nft-loans/contracts/ERC721.sol\":7197:7508  function tokenURI(uint256 tokenId) public view virtual override returns (string memory) {... */\n    tag_16:\n      tag_75\n      0x04\n      dup1\n      calldatasize\n      sub\n      dup2\n      add\n      swap1\n      tag_76\n      swap2\n      swap1\n      tag_33\n      jump\t// in\n    tag_76:\n      tag_77\n      jump\t// in\n    tag_75:\n      mload(0x40)\n      tag_78\n      swap2\n      swap1\n      tag_30\n      jump\t// in\n    tag_78:\n      mload(0x40)\n      dup1\n      swap2\n      sub\n      swap1\n      return\n        /* \"nft-loans/contracts/ERC721.sol\":1985:2161  function isApprovedForAll(address owner, address operator)... */\n    tag_17:\n      tag_79\n      0x04\n      dup1\n      calldatasize\n      sub\n      dup2\n      add\n      swap1\n      tag_80\n      swap2\n      swap1\n      tag_81\n      jump\t// in\n    tag_80:\n      tag_82\n      jump\t// in\n    tag_79:\n      mload(0x40)\n      tag_83\n      swap2\n      swap1\n      tag_26\n      jump\t// in\n    tag_83:\n      mload(0x40)\n      dup1\n      swap2\n      sub\n      swap1\n      return\n        /* \"nft-loans/contracts/ERC721.sol\":1019:1308  function supportsInterface(bytes4 interfaceId)... */\n    tag_24:\n        /* \"nft-loans/contracts/ERC721.sol\":1114:1118  bool */\n      0x00\n        /* \"nft-loans/contracts/ERC721.sol\":1164:1189  type(IERC721).interfaceId */\n      0x80ac58cd00000000000000000000000000000000000000000000000000000000\n        /* \"nft-loans/contracts/ERC721.sol\":1149:1189  interfaceId == type(IERC721).interfaceId */\n      not(0xffffffffffffffffffffffffffffffffffffffffffffffffffffffff)\n      and\n        /* \"nft-loans/contracts/ERC721.sol\":1149:1160  interfaceId */\n      dup3\n        /* \"nft-loans/contracts/ERC721.sol\":1149:1189  interfaceId == type(IERC721).interfaceId */\n      not(0xffffffffffffffffffffffffffffffffffffffffffffffffffffffff)\n      and\n      eq\n        /* \"nft-loans/contracts/ERC721.sol\":1149:1241  interfaceId == type(IERC721).interfaceId ||... */\n      dup1\n      tag_85\n      jumpi\n      pop\n        /* \"nft-loans/contracts/ERC721.sol\":1216:1241  type(IERC165).interfaceId */\n      0x01ffc9a700000000000000000000000000000000000000000000000000000000\n        /* \"nft-loans/contracts/ERC721.sol\":1201:1241  interfaceId == type(IERC165).interfaceId */\n      not(0xffffffffffffffffffffffffffffffffffffffffffffffffffffffff)\n      and\n        /* \"nft-loans/contracts/ERC721.sol\":1201:1212  interfaceId */\n      dup3\n        /* \"nft-loans/contracts/ERC721.sol\":1201:1241  interfaceId == type(IERC165).interfaceId */\n      not(0xffffffffffffffffffffffffffffffffffffffffffffffffffffffff)\n      and\n      eq\n        /* \"nft-loans/contracts/ERC721.sol\":1149:1241  interfaceId == type(IERC721).interfaceId ||... */\n    tag_85:\n        /* \"nft-loans/contracts/ERC721.sol\":1149:1301  interfaceId == type(IERC721).interfaceId ||... */\n      dup1\n      tag_86\n      jumpi\n      pop\n        /* \"nft-loans/contracts/ERC721.sol\":1268:1301  type(IERC721Metadata).interfaceId */\n      0x5b5e139f00000000000000000000000000000000000000000000000000000000\n        /* \"nft-loans/contracts/ERC721.sol\":1253:1301  interfaceId == type(IERC721Metadata).interfaceId */\n      not(0xffffffffffffffffffffffffffffffffffffffffffffffffffffffff)\n      and\n        /* \"nft-loans/contracts/ERC721.sol\":1253:1264  interfaceId */\n      dup3\n        /* \"nft-loans/contracts/ERC721.sol\":1253:1301  interfaceId == type(IERC721Metadata).interfaceId */\n      not(0xffffffffffffffffffffffffffffffffffffffffffffffffffffffff)\n      and\n      eq\n        /* \"nft-loans/contracts/ERC721.sol\":1149:1301  interfaceId == type(IERC721).interfaceId ||... */\n    tag_86:\n        /* \"nft-loans/contracts/ERC721.sol\":1134:1301  return... */\n      swap1\n      pop\n        /* \"nft-loans/contracts/ERC721.sol\":1019:1308  function supportsInterface(bytes4 interfaceId)... */\n      swap2\n      swap1\n      pop\n      jump\t// out\n        /* \"nft-loans/contracts/ERC721.sol\":332:359  string public override name */\n    tag_28:\n      0x00\n      dup1\n      sload\n      tag_87\n      swap1\n      tag_88\n      jump\t// in\n    tag_87:\n      dup1\n      0x1f\n      add\n      0x20\n      dup1\n      swap2\n      div\n      mul\n      0x20\n      add\n      mload(0x40)\n      swap1\n      dup2\n      add\n      0x40\n      mstore\n      dup1\n      swap3\n      swap2\n      swap1\n      dup2\n      dup2\n      mstore\n      0x20\n      add\n      dup3\n      dup1\n      sload\n      tag_89\n      swap1\n      tag_88\n      jump\t// in\n    tag_89:\n      dup1\n      iszero\n      tag_90\n      jumpi\n      dup1\n      0x1f\n      lt\n      tag_91\n      jumpi\n      0x0100\n      dup1\n      dup4\n      sload\n      div\n      mul\n      dup4\n      mstore\n      swap2\n      0x20\n      add\n      swap2\n      jump(tag_90)\n    tag_91:\n      dup3\n      add\n      swap2\n      swap1\n      0x00\n      mstore\n      keccak256(0x00, 0x20)\n      swap1\n    tag_92:\n      dup2\n      sload\n      dup2\n      mstore\n      swap1\n      0x01\n      add\n      swap1\n      0x20\n      add\n      dup1\n      dup4\n      gt\n      tag_92\n      jumpi\n      dup3\n      swap1\n      sub\n      0x1f\n      and\n      dup3\n      add\n      swap2\n    tag_90:\n      pop\n      pop\n      pop\n      pop\n      pop\n      dup2\n      jump\t// out\n        /* \"nft-loans/contracts/ERC721.sol\":2600:2796  function getApproved(uint tokenId) external view override returns (address) {... */\n    tag_34:\n        /* \"nft-loans/contracts/ERC721.sol\":2667:2674  address */\n      0x00\n        /* \"nft-loans/contracts/ERC721.sol\":2722:2723  0 */\n      dup1\n        /* \"nft-loans/contracts/ERC721.sol\":2694:2724  _owners[tokenId] != address(0) */\n      0xffffffffffffffffffffffffffffffffffffffff\n      and\n        /* \"nft-loans/contracts/ERC721.sol\":2694:2701  _owners */\n      0x02\n        /* \"nft-loans/contracts/ERC721.sol\":2694:2710  _owners[tokenId] */\n      0x00\n        /* \"nft-loans/contracts/ERC721.sol\":2702:2709  tokenId */\n      dup5\n        /* \"nft-loans/contracts/ERC721.sol\":2694:2710  _owners[tokenId] */\n      dup2\n      mstore\n      0x20\n      add\n      swap1\n      dup2\n      mstore\n      0x20\n      add\n      0x00\n      keccak256\n      0x00\n      swap1\n      sload\n      swap1\n      0x0100\n      exp\n      swap1\n      div\n      0xffffffffffffffffffffffffffffffffffffffff\n      and\n        /* \"nft-loans/contracts/ERC721.sol\":2694:2724  _owners[tokenId] != address(0) */\n      0xffffffffffffffffffffffffffffffffffffffff\n      and\n      eq\n      iszero\n        /* \"nft-loans/contracts/ERC721.sol\":2686:2748  require(_owners[tokenId] != address(0), \"token doesn't exist\") */\n      tag_94\n      jumpi\n      mload(0x40)\n      0x08c379a000000000000000000000000000000000000000000000000000000000\n      dup2\n      mstore\n      0x04\n      add\n      tag_95\n      swap1\n      tag_96\n      jump\t// in\n    tag_95:\n      mload(0x40)\n      dup1\n      swap2\n      sub\n      swap1\n      revert\n    tag_94:\n        /* \"nft-loans/contracts/ERC721.sol\":2765:2780  _tokenApprovals */\n      0x04\n        /* \"nft-loans/contracts/ERC721.sol\":2765:2789  _tokenApprovals[tokenId] */\n      0x00\n        /* \"nft-loans/contracts/ERC721.sol\":2781:2788  tokenId */\n      dup4\n        /* \"nft-loans/contracts/ERC721.sol\":2765:2789  _tokenApprovals[tokenId] */\n      dup2\n      mstore\n      0x20\n      add\n      swap1\n      dup2\n      mstore\n      0x20\n      add\n      0x00\n      keccak256\n      0x00\n      swap1\n      sload\n      swap1\n      0x0100\n      exp\n      swap1\n      div\n      0xffffffffffffffffffffffffffffffffffffffff\n      and\n        /* \"nft-loans/contracts/ERC721.sol\":2758:2789  return _tokenApprovals[tokenId] */\n      swap1\n      pop\n        /* \"nft-loans/contracts/ERC721.sol\":2600:2796  function getApproved(uint tokenId) external view override returns (address) {... */\n      swap2\n      swap1\n      pop\n      jump\t// out\n        /* \"nft-loans/contracts/ERC721.sol\":3265:3560  function approve(address to, uint tokenId) external override {... */\n    tag_40:\n        /* \"nft-loans/contracts/ERC721.sol\":3336:3349  address owner */\n      0x00\n        /* \"nft-loans/contracts/ERC721.sol\":3352:3359  _owners */\n      0x02\n        /* \"nft-loans/contracts/ERC721.sol\":3352:3368  _owners[tokenId] */\n      0x00\n        /* \"nft-loans/contracts/ERC721.sol\":3360:3367  tokenId */\n      dup4\n        /* \"nft-loans/contracts/ERC721.sol\":3352:3368  _owners[tokenId] */\n      dup2\n      mstore\n      0x20\n      add\n      swap1\n      dup2\n      mstore\n      0x20\n      add\n      0x00\n      keccak256\n      0x00\n      swap1\n      sload\n      swap1\n      0x0100\n      exp\n      swap1\n      div\n      0xffffffffffffffffffffffffffffffffffffffff\n      and\n        /* \"nft-loans/contracts/ERC721.sol\":3336:3368  address owner = _owners[tokenId] */\n      swap1\n      pop\n        /* \"nft-loans/contracts/ERC721.sol\":3413:3418  owner */\n      dup1\n        /* \"nft-loans/contracts/ERC721.sol\":3399:3418  msg.sender == owner */\n      0xffffffffffffffffffffffffffffffffffffffff\n      and\n        /* \"nft-loans/contracts/ERC721.sol\":3399:3409  msg.sender */\n      caller\n        /* \"nft-loans/contracts/ERC721.sol\":3399:3418  msg.sender == owner */\n      0xffffffffffffffffffffffffffffffffffffffff\n      and\n      eq\n        /* \"nft-loans/contracts/ERC721.sol\":3399:3459  msg.sender == owner || _operatorApprovals[owner][msg.sender] */\n      dup1\n      tag_98\n      jumpi\n      pop\n        /* \"nft-loans/contracts/ERC721.sol\":3422:3440  _operatorApprovals */\n      0x05\n        /* \"nft-loans/contracts/ERC721.sol\":3422:3447  _operatorApprovals[owner] */\n      0x00\n        /* \"nft-loans/contracts/ERC721.sol\":3441:3446  owner */\n      dup3\n        /* \"nft-loans/contracts/ERC721.sol\":3422:3447  _operatorApprovals[owner] */\n      0xffffffffffffffffffffffffffffffffffffffff\n      and\n      0xffffffffffffffffffffffffffffffffffffffff\n      and\n      dup2\n      mstore\n      0x20\n      add\n      swap1\n      dup2\n      mstore\n      0x20\n      add\n      0x00\n      keccak256\n        /* \"nft-loans/contracts/ERC721.sol\":3422:3459  _operatorApprovals[owner][msg.sender] */\n      0x00\n        /* \"nft-loans/contracts/ERC721.sol\":3448:3458  msg.sender */\n      caller\n        /* \"nft-loans/contracts/ERC721.sol\":3422:3459  _operatorApprovals[owner][msg.sender] */\n      0xffffffffffffffffffffffffffffffffffffffff\n      and\n      0xffffffffffffffffffffffffffffffffffffffff\n      and\n      dup2\n      mstore\n      0x20\n      add\n      swap1\n      dup2\n      mstore\n      0x20\n      add\n      0x00\n      keccak256\n      0x00\n      swap1\n      sload\n      swap1\n      0x0100\n      exp\n      swap1\n      div\n      0xff\n      and\n        /* \"nft-loans/contracts/ERC721.sol\":3399:3459  msg.sender == owner || _operatorApprovals[owner][msg.sender] */\n    tag_98:\n        /* \"nft-loans/contracts/ERC721.sol\":3378:3515  require(... */\n      tag_99\n      jumpi\n      mload(0x40)\n      0x08c379a000000000000000000000000000000000000000000000000000000000\n      dup2\n      mstore\n      0x04\n      add\n      tag_100\n      swap1\n      tag_101\n      jump\t// in\n    tag_100:\n      mload(0x40)\n      dup1\n      swap2\n      sub\n      swap1\n      revert\n    tag_99:\n        /* \"nft-loans/contracts/ERC721.sol\":3525:3553  _approve(owner, to, tokenId) */\n      tag_102\n        /* \"nft-loans/contracts/ERC721.sol\":3534:3539  owner */\n      dup2\n        /* \"nft-loans/contracts/ERC721.sol\":3541:3543  to */\n      dup5\n        /* \"nft-loans/contracts/ERC721.sol\":3545:3552  tokenId */\n      dup5\n        /* \"nft-loans/contracts/ERC721.sol\":3525:3533  _approve */\n      tag_103\n        /* \"nft-loans/contracts/ERC721.sol\":3525:3553  _approve(owner, to, tokenId) */\n      jump\t// in\n    tag_102:\n        /* \"nft-loans/contracts/ERC721.sol\":3326:3560  {... */\n      pop\n        /* \"nft-loans/contracts/ERC721.sol\":3265:3560  function approve(address to, uint tokenId) external override {... */\n      pop\n      pop\n      jump\t// out\n        /* \"nft-loans/contracts/ERC721.sol\":4460:4789  function transferFrom(... */\n    tag_44:\n        /* \"nft-loans/contracts/ERC721.sol\":4580:4593  address owner */\n      0x00\n        /* \"nft-loans/contracts/ERC721.sol\":4596:4612  ownerOf(tokenId) */\n      tag_105\n        /* \"nft-loans/contracts/ERC721.sol\":4604:4611  tokenId */\n      dup3\n        /* \"nft-loans/contracts/ERC721.sol\":4596:4603  ownerOf */\n      tag_56\n        /* \"nft-loans/contracts/ERC721.sol\":4596:4612  ownerOf(tokenId) */\n      jump\t// in\n    tag_105:\n        /* \"nft-loans/contracts/ERC721.sol\":4580:4612  address owner = ownerOf(tokenId) */\n      swap1\n      pop\n        /* \"nft-loans/contracts/ERC721.sol\":4643:4689  _isApprovedOrOwner(owner, msg.sender, tokenId) */\n      tag_106\n        /* \"nft-loans/contracts/ERC721.sol\":4662:4667  owner */\n      dup2\n        /* \"nft-loans/contracts/ERC721.sol\":4669:4679  msg.sender */\n      caller\n        /* \"nft-loans/contracts/ERC721.sol\":4681:4688  tokenId */\n      dup5\n        /* \"nft-loans/contracts/ERC721.sol\":4643:4661  _isApprovedOrOwner */\n      tag_107\n        /* \"nft-loans/contracts/ERC721.sol\":4643:4689  _isApprovedOrOwner(owner, msg.sender, tokenId) */\n      jump\t// in\n    tag_106:\n        /* \"nft-loans/contracts/ERC721.sol\":4622:4737  require(... */\n      tag_108\n      jumpi\n      mload(0x40)\n      0x08c379a000000000000000000000000000000000000000000000000000000000\n      dup2\n      mstore\n      0x04\n      add\n      tag_109\n      swap1\n      tag_110\n      jump\t// in\n    tag_109:\n      mload(0x40)\n      dup1\n      swap2\n      sub\n      swap1\n      revert\n    tag_108:\n        /* \"nft-loans/contracts/ERC721.sol\":4747:4782  _transfer(owner, from, to, tokenId) */\n      tag_111\n        /* \"nft-loans/contracts/ERC721.sol\":4757:4762  owner */\n      dup2\n        /* \"nft-loans/contracts/ERC721.sol\":4764:4768  from */\n      dup6\n        /* \"nft-loans/contracts/ERC721.sol\":4770:4772  to */\n      dup6\n        /* \"nft-loans/contracts/ERC721.sol\":4774:4781  tokenId */\n      dup6\n        /* \"nft-loans/contracts/ERC721.sol\":4747:4756  _transfer */\n      tag_112\n        /* \"nft-loans/contracts/ERC721.sol\":4747:4782  _transfer(owner, from, to, tokenId) */\n      jump\t// in\n    tag_111:\n        /* \"nft-loans/contracts/ERC721.sol\":4570:4789  {... */\n      pop\n        /* \"nft-loans/contracts/ERC721.sol\":4460:4789  function transferFrom(... */\n      pop\n      pop\n      pop\n      jump\t// out\n        /* \"nft-loans/contracts/ERC721.sol\":5996:6077  function mint(address to,uint tokenId) external{... */\n    tag_47:\n        /* \"nft-loans/contracts/ERC721.sol\":6053:6070  _mint(to,tokenId) */\n      tag_114\n        /* \"nft-loans/contracts/ERC721.sol\":6059:6061  to */\n      dup3\n        /* \"nft-loans/contracts/ERC721.sol\":6062:6069  tokenId */\n      dup3\n        /* \"nft-loans/contracts/ERC721.sol\":6053:6058  _mint */\n      tag_115\n        /* \"nft-loans/contracts/ERC721.sol\":6053:6070  _mint(to,tokenId) */\n      jump\t// in\n    tag_114:\n        /* \"nft-loans/contracts/ERC721.sol\":5996:6077  function mint(address to,uint tokenId) external{... */\n      pop\n      pop\n      jump\t// out\n        /* \"nft-loans/contracts/ERC721.sol\":5508:5678  function safeTransferFrom(... */\n    tag_50:\n        /* \"nft-loans/contracts/ERC721.sol\":5632:5671  safeTransferFrom(from, to, tokenId, \"\") */\n      tag_117\n        /* \"nft-loans/contracts/ERC721.sol\":5649:5653  from */\n      dup4\n        /* \"nft-loans/contracts/ERC721.sol\":5655:5657  to */\n      dup4\n        /* \"nft-loans/contracts/ERC721.sol\":5659:5666  tokenId */\n      dup4\n        /* \"nft-loans/contracts/ERC721.sol\":5632:5671  safeTransferFrom(from, to, tokenId, \"\") */\n      mload(0x40)\n      dup1\n      0x20\n      add\n      0x40\n      mstore\n      dup1\n      0x00\n      dup2\n      mstore\n      pop\n        /* \"nft-loans/contracts/ERC721.sol\":5632:5648  safeTransferFrom */\n      tag_74\n        /* \"nft-loans/contracts/ERC721.sol\":5632:5671  safeTransferFrom(from, to, tokenId, \"\") */\n      jump\t// in\n    tag_117:\n        /* \"nft-loans/contracts/ERC721.sol\":5508:5678  function safeTransferFrom(... */\n      pop\n      pop\n      pop\n      jump\t// out\n        /* \"nft-loans/contracts/ERC721.sol\":6538:6605  function burn(uint tokenId) external{... */\n    tag_53:\n        /* \"nft-loans/contracts/ERC721.sol\":6584:6598  _burn(tokenId) */\n      tag_119\n        /* \"nft-loans/contracts/ERC721.sol\":6590:6597  tokenId */\n      dup2\n        /* \"nft-loans/contracts/ERC721.sol\":6584:6589  _burn */\n      tag_120\n        /* \"nft-loans/contracts/ERC721.sol\":6584:6598  _burn(tokenId) */\n      jump\t// in\n    tag_119:\n        /* \"nft-loans/contracts/ERC721.sol\":6538:6605  function burn(uint tokenId) external{... */\n      pop\n      jump\t// out\n        /* \"nft-loans/contracts/ERC721.sol\":1658:1836  function ownerOf(uint tokenId) public view override returns (address owner) {... */\n    tag_56:\n        /* \"nft-loans/contracts/ERC721.sol\":1719:1732  address owner */\n      0x00\n        /* \"nft-loans/contracts/ERC721.sol\":1752:1759  _owners */\n      0x02\n        /* \"nft-loans/contracts/ERC721.sol\":1752:1768  _owners[tokenId] */\n      0x00\n        /* \"nft-loans/contracts/ERC721.sol\":1760:1767  tokenId */\n      dup4\n        /* \"nft-loans/contracts/ERC721.sol\":1752:1768  _owners[tokenId] */\n      dup2\n      mstore\n      0x20\n      add\n      swap1\n      dup2\n      mstore\n      0x20\n      add\n      0x00\n      keccak256\n      0x00\n      swap1\n      sload\n      swap1\n      0x0100\n      exp\n      swap1\n      div\n      0xffffffffffffffffffffffffffffffffffffffff\n      and\n        /* \"nft-loans/contracts/ERC721.sol\":1744:1768  owner = _owners[tokenId] */\n      swap1\n      pop\n        /* \"nft-loans/contracts/ERC721.sol\":1803:1804  0 */\n      0x00\n        /* \"nft-loans/contracts/ERC721.sol\":1786:1805  owner != address(0) */\n      0xffffffffffffffffffffffffffffffffffffffff\n      and\n        /* \"nft-loans/contracts/ERC721.sol\":1786:1791  owner */\n      dup2\n        /* \"nft-loans/contracts/ERC721.sol\":1786:1805  owner != address(0) */\n      0xffffffffffffffffffffffffffffffffffffffff\n      and\n      eq\n      iszero\n        /* \"nft-loans/contracts/ERC721.sol\":1778:1829  require(owner != address(0), \"token doesn't exist\") */\n      tag_122\n      jumpi\n      mload(0x40)\n      0x08c379a000000000000000000000000000000000000000000000000000000000\n      dup2\n      mstore\n      0x04\n      add\n      tag_123\n      swap1\n      tag_96\n      jump\t// in\n    tag_123:\n      mload(0x40)\n      dup1\n      swap2\n      sub\n      swap1\n      revert\n    tag_122:\n        /* \"nft-loans/contracts/ERC721.sol\":1658:1836  function ownerOf(uint tokenId) public view override returns (address owner) {... */\n      swap2\n      swap1\n      pop\n      jump\t// out\n        /* \"nft-loans/contracts/ERC721.sol\":1401:1575  function balanceOf(address owner) external view override returns (uint) {... */\n    tag_61:\n        /* \"nft-loans/contracts/ERC721.sol\":1467:1471  uint */\n      0x00\n        /* \"nft-loans/contracts/ERC721.sol\":1508:1509  0 */\n      dup1\n        /* \"nft-loans/contracts/ERC721.sol\":1491:1510  owner != address(0) */\n      0xffffffffffffffffffffffffffffffffffffffff\n      and\n        /* \"nft-loans/contracts/ERC721.sol\":1491:1496  owner */\n      dup3\n        /* \"nft-loans/contracts/ERC721.sol\":1491:1510  owner != address(0) */\n      0xffffffffffffffffffffffffffffffffffffffff\n      and\n      eq\n      iszero\n        /* \"nft-loans/contracts/ERC721.sol\":1483:1535  require(owner != address(0), \"owner = zero address\") */\n      tag_125\n      jumpi\n      mload(0x40)\n      0x08c379a000000000000000000000000000000000000000000000000000000000\n      dup2\n      mstore\n      0x04\n      add\n      tag_126\n      swap1\n      tag_127\n      jump\t// in\n    tag_126:\n      mload(0x40)\n      dup1\n      swap2\n      sub\n      swap1\n      revert\n    tag_125:\n        /* \"nft-loans/contracts/ERC721.sol\":1552:1561  _balances */\n      0x03\n        /* \"nft-loans/contracts/ERC721.sol\":1552:1568  _balances[owner] */\n      0x00\n        /* \"nft-loans/contracts/ERC721.sol\":1562:1567  owner */\n      dup4\n        /* \"nft-loans/contracts/ERC721.sol\":1552:1568  _balances[owner] */\n      0xffffffffffffffffffffffffffffffffffffffff\n      and\n      0xffffffffffffffffffffffffffffffffffffffff\n      and\n      dup2\n      mstore\n      0x20\n      add\n      swap1\n      dup2\n      mstore\n      0x20\n      add\n      0x00\n      keccak256\n      sload\n        /* \"nft-loans/contracts/ERC721.sol\":1545:1568  return _balances[owner] */\n      swap1\n      pop\n        /* \"nft-loans/contracts/ERC721.sol\":1401:1575  function balanceOf(address owner) external view override returns (uint) {... */\n      swap2\n      swap1\n      pop\n      jump\t// out\n        /* \"nft-loans/contracts/ERC721.sol\":384:413  string public override symbol */\n    tag_65:\n      0x01\n      dup1\n      sload\n      tag_128\n      swap1\n      tag_88\n      jump\t// in\n    tag_128:\n      dup1\n      0x1f\n      add\n      0x20\n      dup1\n      swap2\n      div\n      mul\n      0x20\n      add\n      mload(0x40)\n      swap1\n      dup2\n      add\n      0x40\n      mstore\n      dup1\n      swap3\n      swap2\n      swap1\n      dup2\n      dup2\n      mstore\n      0x20\n      add\n      dup3\n      dup1\n      sload\n      tag_129\n      swap1\n      tag_88\n      jump\t// in\n    tag_129:\n      dup1\n      iszero\n      tag_130\n      jumpi\n      dup1\n      0x1f\n      lt\n      tag_131\n      jumpi\n      0x0100\n      dup1\n      dup4\n      sload\n      div\n      mul\n      dup4\n      mstore\n      swap2\n      0x20\n      add\n      swap2\n      jump(tag_130)\n    tag_131:\n      dup3\n      add\n      swap2\n      swap1\n      0x00\n      mstore\n      keccak256(0x00, 0x20)\n      swap1\n    tag_132:\n      dup2\n      sload\n      dup2\n      mstore\n      swap1\n      0x01\n      add\n      swap1\n      0x20\n      add\n      dup1\n      dup4\n      gt\n      tag_132\n      jumpi\n      dup3\n      swap1\n      sub\n      0x1f\n      and\n      dup3\n      add\n      swap2\n    tag_130:\n      pop\n      pop\n      pop\n      pop\n      pop\n      dup2\n      jump\t// out\n        /* \"nft-loans/contracts/ERC721.sol\":2291:2498  function setApprovalForAll(address operator, bool approved) external override {... */\n    tag_70:\n        /* \"nft-loans/contracts/ERC721.sol\":2422:2430  approved */\n      dup1\n        /* \"nft-loans/contracts/ERC721.sol\":2379:2397  _operatorApprovals */\n      0x05\n        /* \"nft-loans/contracts/ERC721.sol\":2379:2409  _operatorApprovals[msg.sender] */\n      0x00\n        /* \"nft-loans/contracts/ERC721.sol\":2398:2408  msg.sender */\n      caller\n        /* \"nft-loans/contracts/ERC721.sol\":2379:2409  _operatorApprovals[msg.sender] */\n      0xffffffffffffffffffffffffffffffffffffffff\n      and\n      0xffffffffffffffffffffffffffffffffffffffff\n      and\n      dup2\n      mstore\n      0x20\n      add\n      swap1\n      dup2\n      mstore\n      0x20\n      add\n      0x00\n      keccak256\n        /* \"nft-loans/contracts/ERC721.sol\":2379:2419  _operatorApprovals[msg.sender][operator] */\n      0x00\n        /* \"nft-loans/contracts/ERC721.sol\":2410:2418  operator */\n      dup5\n        /* \"nft-loans/contracts/ERC721.sol\":2379:2419  _operatorApprovals[msg.sender][operator] */\n      0xffffffffffffffffffffffffffffffffffffffff\n      and\n      0xffffffffffffffffffffffffffffffffffffffff\n      and\n      dup2\n      mstore\n      0x20\n      add\n      swap1\n      dup2\n      mstore\n      0x20\n      add\n      0x00\n      keccak256\n      0x00\n        /* \"nft-loans/contracts/ERC721.sol\":2379:2430  _operatorApprovals[msg.sender][operator] = approved */\n      0x0100\n      exp\n      dup2\n      sload\n      dup2\n      0xff\n      mul\n      not\n      and\n      swap1\n      dup4\n      iszero\n      iszero\n      mul\n      or\n      swap1\n      sstore\n      pop\n        /* \"nft-loans/contracts/ERC721.sol\":2472:2480  operator */\n      dup2\n        /* \"nft-loans/contracts/ERC721.sol\":2445:2491  ApprovalForAll(msg.sender, operator, approved) */\n      0xffffffffffffffffffffffffffffffffffffffff\n      and\n        /* \"nft-loans/contracts/ERC721.sol\":2460:2470  msg.sender */\n      caller\n        /* \"nft-loans/contracts/ERC721.sol\":2445:2491  ApprovalForAll(msg.sender, operator, approved) */\n      0xffffffffffffffffffffffffffffffffffffffff\n      and\n      0x17307eab39ab6107e8899845ad3d59bd9653f200f220920489ca2b5937696c31\n        /* \"nft-loans/contracts/ERC721.sol\":2482:2490  approved */\n      dup4\n        /* \"nft-loans/contracts/ERC721.sol\":2445:2491  ApprovalForAll(msg.sender, operator, approved) */\n      mload(0x40)\n      tag_134\n      swap2\n      swap1\n      tag_26\n      jump\t// in\n    tag_134:\n      mload(0x40)\n      dup1\n      swap2\n      sub\n      swap1\n      log3\n        /* \"nft-loans/contracts/ERC721.sol\":2291:2498  function setApprovalForAll(address operator, bool approved) external override {... */\n      pop\n      pop\n      jump\t// out\n        /* \"nft-loans/contracts/ERC721.sol\":5096:5466  function safeTransferFrom(... */\n    tag_74:\n        /* \"nft-loans/contracts/ERC721.sol\":5246:5259  address owner */\n      0x00\n        /* \"nft-loans/contracts/ERC721.sol\":5262:5278  ownerOf(tokenId) */\n      tag_136\n        /* \"nft-loans/contracts/ERC721.sol\":5270:5277  tokenId */\n      dup4\n        /* \"nft-loans/contracts/ERC721.sol\":5262:5269  ownerOf */\n      tag_56\n        /* \"nft-loans/contracts/ERC721.sol\":5262:5278  ownerOf(tokenId) */\n      jump\t// in\n    tag_136:\n        /* \"nft-loans/contracts/ERC721.sol\":5246:5278  address owner = ownerOf(tokenId) */\n      swap1\n      pop\n        /* \"nft-loans/contracts/ERC721.sol\":5309:5355  _isApprovedOrOwner(owner, msg.sender, tokenId) */\n      tag_137\n        /* \"nft-loans/contracts/ERC721.sol\":5328:5333  owner */\n      dup2\n        /* \"nft-loans/contracts/ERC721.sol\":5335:5345  msg.sender */\n      caller\n        /* \"nft-loans/contracts/ERC721.sol\":5347:5354  tokenId */\n      dup6\n        /* \"nft-loans/contracts/ERC721.sol\":5309:5327  _isApprovedOrOwner */\n      tag_107\n        /* \"nft-loans/contracts/ERC721.sol\":5309:5355  _isApprovedOrOwner(owner, msg.sender, tokenId) */\n      jump\t// in\n    tag_137:\n        /* \"nft-loans/contracts/ERC721.sol\":5288:5403  require(... */\n      tag_138\n      jumpi\n      mload(0x40)\n      0x08c379a000000000000000000000000000000000000000000000000000000000\n      dup2\n      mstore\n      0x04\n      add\n      tag_139\n      swap1\n      tag_110\n      jump\t// in\n    tag_139:\n      mload(0x40)\n      dup1\n      swap2\n      sub\n      swap1\n      revert\n    tag_138:\n        /* \"nft-loans/contracts/ERC721.sol\":5413:5459  _safeTransfer(owner, from, to, tokenId, _data) */\n      tag_140\n        /* \"nft-loans/contracts/ERC721.sol\":5427:5432  owner */\n      dup2\n        /* \"nft-loans/contracts/ERC721.sol\":5434:5438  from */\n      dup7\n        /* \"nft-loans/contracts/ERC721.sol\":5440:5442  to */\n      dup7\n        /* \"nft-loans/contracts/ERC721.sol\":5444:5451  tokenId */\n      dup7\n        /* \"nft-loans/contracts/ERC721.sol\":5453:5458  _data */\n      dup7\n        /* \"nft-loans/contracts/ERC721.sol\":5413:5426  _safeTransfer */\n      tag_141\n        /* \"nft-loans/contracts/ERC721.sol\":5413:5459  _safeTransfer(owner, from, to, tokenId, _data) */\n      jump\t// in\n    tag_140:\n        /* \"nft-loans/contracts/ERC721.sol\":5236:5466  {... */\n      pop\n        /* \"nft-loans/contracts/ERC721.sol\":5096:5466  function safeTransferFrom(... */\n      pop\n      pop\n      pop\n      pop\n      jump\t// out\n        /* \"nft-loans/contracts/ERC721.sol\":7197:7508  function tokenURI(uint256 tokenId) public view virtual override returns (string memory) {... */\n    tag_77:\n        /* \"nft-loans/contracts/ERC721.sol\":7270:7283  string memory */\n      0x60\n        /* \"nft-loans/contracts/ERC721.sol\":7331:7332  0 */\n      0x00\n        /* \"nft-loans/contracts/ERC721.sol\":7303:7333  _owners[tokenId] != address(0) */\n      0xffffffffffffffffffffffffffffffffffffffff\n      and\n        /* \"nft-loans/contracts/ERC721.sol\":7303:7310  _owners */\n      0x02\n        /* \"nft-loans/contracts/ERC721.sol\":7303:7319  _owners[tokenId] */\n      0x00\n        /* \"nft-loans/contracts/ERC721.sol\":7311:7318  tokenId */\n      dup5\n        /* \"nft-loans/contracts/ERC721.sol\":7303:7319  _owners[tokenId] */\n      dup2\n      mstore\n      0x20\n      add\n      swap1\n      dup2\n      mstore\n      0x20\n      add\n      0x00\n      keccak256\n      0x00\n      swap1\n      sload\n      swap1\n      0x0100\n      exp\n      swap1\n      div\n      0xffffffffffffffffffffffffffffffffffffffff\n      and\n        /* \"nft-loans/contracts/ERC721.sol\":7303:7333  _owners[tokenId] != address(0) */\n      0xffffffffffffffffffffffffffffffffffffffff\n      and\n      eq\n      iszero\n        /* \"nft-loans/contracts/ERC721.sol\":7295:7353  require(_owners[tokenId] != address(0), \"Token Not Exist\") */\n      tag_143\n      jumpi\n      mload(0x40)\n      0x08c379a000000000000000000000000000000000000000000000000000000000\n      dup2\n      mstore\n      0x04\n      add\n      tag_144\n      swap1\n      tag_145\n      jump\t// in\n    tag_144:\n      mload(0x40)\n      dup1\n      swap2\n      sub\n      swap1\n      revert\n    tag_143:\n        /* \"nft-loans/contracts/ERC721.sol\":7364:7385  string memory baseURI */\n      0x00\n        /* \"nft-loans/contracts/ERC721.sol\":7388:7398  _baseURI() */\n      tag_146\n        /* \"nft-loans/contracts/ERC721.sol\":7388:7396  _baseURI */\n      tag_147\n        /* \"nft-loans/contracts/ERC721.sol\":7388:7398  _baseURI() */\n      jump\t// in\n    tag_146:\n        /* \"nft-loans/contracts/ERC721.sol\":7364:7398  string memory baseURI = _baseURI() */\n      swap1\n      pop\n        /* \"nft-loans/contracts/ERC721.sol\":7439:7440  0 */\n      0x00\n        /* \"nft-loans/contracts/ERC721.sol\":7421:7428  baseURI */\n      dup2\n        /* \"nft-loans/contracts/ERC721.sol\":7415:7436  bytes(baseURI).length */\n      mload\n        /* \"nft-loans/contracts/ERC721.sol\":7415:7440  bytes(baseURI).length > 0 */\n      gt\n        /* \"nft-loans/contracts/ERC721.sol\":7415:7501  bytes(baseURI).length > 0 ? string(abi.encodePacked(baseURI, tokenId.toString())) : \"\" */\n      tag_148\n      jumpi\n      mload(0x40)\n      dup1\n      0x20\n      add\n      0x40\n      mstore\n      dup1\n      0x00\n      dup2\n      mstore\n      pop\n      jump(tag_149)\n    tag_148:\n        /* \"nft-loans/contracts/ERC721.sol\":7467:7474  baseURI */\n      dup1\n        /* \"nft-loans/contracts/ERC721.sol\":7476:7494  tokenId.toString() */\n      tag_150\n        /* \"nft-loans/contracts/ERC721.sol\":7476:7483  tokenId */\n      dup5\n        /* \"nft-loans/contracts/ERC721.sol\":7476:7492  tokenId.toString */\n      tag_151\n        /* \"nft-loans/contracts/ERC721.sol\":7476:7494  tokenId.toString() */\n      jump\t// in\n    tag_150:\n        /* \"nft-loans/contracts/ERC721.sol\":7450:7495  abi.encodePacked(baseURI, tokenId.toString()) */\n      add(0x20, mload(0x40))\n      tag_152\n      swap3\n      swap2\n      swap1\n      tag_153\n      jump\t// in\n    tag_152:\n      mload(0x40)\n      0x20\n      dup2\n      dup4\n      sub\n      sub\n      dup2\n      mstore\n      swap1\n      0x40\n      mstore\n        /* \"nft-loans/contracts/ERC721.sol\":7415:7501  bytes(baseURI).length > 0 ? string(abi.encodePacked(baseURI, tokenId.toString())) : \"\" */\n    tag_149:\n        /* \"nft-loans/contracts/ERC721.sol\":7408:7501  return bytes(baseURI).length > 0 ? string(abi.encodePacked(baseURI, tokenId.toString())) : \"\" */\n      swap2\n      pop\n      pop\n        /* \"nft-loans/contracts/ERC721.sol\":7197:7508  function tokenURI(uint256 tokenId) public view virtual override returns (string memory) {... */\n      swap2\n      swap1\n      pop\n      jump\t// out\n        /* \"nft-loans/contracts/ERC721.sol\":1985:2161  function isApprovedForAll(address owner, address operator)... */\n    tag_82:\n        /* \"nft-loans/contracts/ERC721.sol\":2092:2096  bool */\n      0x00\n        /* \"nft-loans/contracts/ERC721.sol\":2119:2137  _operatorApprovals */\n      0x05\n        /* \"nft-loans/contracts/ERC721.sol\":2119:2144  _operatorApprovals[owner] */\n      0x00\n        /* \"nft-loans/contracts/ERC721.sol\":2138:2143  owner */\n      dup5\n        /* \"nft-loans/contracts/ERC721.sol\":2119:2144  _operatorApprovals[owner] */\n      0xffffffffffffffffffffffffffffffffffffffff\n      and\n      0xffffffffffffffffffffffffffffffffffffffff\n      and\n      dup2\n      mstore\n      0x20\n      add\n      swap1\n      dup2\n      mstore\n      0x20\n      add\n      0x00\n      keccak256\n        /* \"nft-loans/contracts/ERC721.sol\":2119:2154  _operatorApprovals[owner][operator] */\n      0x00\n        /* \"nft-loans/contracts/ERC721.sol\":2145:2153  operator */\n      dup4\n        /* \"nft-loans/contracts/ERC721.sol\":2119:2154  _operatorApprovals[owner][operator] */\n      0xffffffffffffffffffffffffffffffffffffffff\n      and\n      0xffffffffffffffffffffffffffffffffffffffff\n      and\n      dup2\n      mstore\n      0x20\n      add\n      swap1\n      dup2\n      mstore\n      0x20\n      add\n      0x00\n      keccak256\n      0x00\n      swap1\n      sload\n      swap1\n      0x0100\n      exp\n      swap1\n      div\n      0xff\n      and\n        /* \"nft-loans/contracts/ERC721.sol\":2112:2154  return _operatorApprovals[owner][operator] */\n      swap1\n      pop\n        /* \"nft-loans/contracts/ERC721.sol\":1985:2161  function isApprovedForAll(address owner, address operator)... */\n      swap3\n      swap2\n      pop\n      pop\n      jump\t// out\n        /* \"nft-loans/contracts/ERC721.sol\":2920:3106  function _approve(... */\n    tag_103:\n        /* \"nft-loans/contracts/ERC721.sol\":3054:3056  to */\n      dup2\n        /* \"nft-loans/contracts/ERC721.sol\":3027:3042  _tokenApprovals */\n      0x04\n        /* \"nft-loans/contracts/ERC721.sol\":3027:3051  _tokenApprovals[tokenId] */\n      0x00\n        /* \"nft-loans/contracts/ERC721.sol\":3043:3050  tokenId */\n      dup4\n        /* \"nft-loans/contracts/ERC721.sol\":3027:3051  _tokenApprovals[tokenId] */\n      dup2\n      mstore\n      0x20\n      add\n      swap1\n      dup2\n      mstore\n      0x20\n      add\n      0x00\n      keccak256\n      0x00\n        /* \"nft-loans/contracts/ERC721.sol\":3027:3056  _tokenApprovals[tokenId] = to */\n      0x0100\n      exp\n      dup2\n      sload\n      dup2\n      0xffffffffffffffffffffffffffffffffffffffff\n      mul\n      not\n      and\n      swap1\n      dup4\n      0xffffffffffffffffffffffffffffffffffffffff\n      and\n      mul\n      or\n      swap1\n      sstore\n      pop\n        /* \"nft-loans/contracts/ERC721.sol\":3091:3098  tokenId */\n      dup1\n        /* \"nft-loans/contracts/ERC721.sol\":3087:3089  to */\n      dup3\n        /* \"nft-loans/contracts/ERC721.sol\":3071:3099  Approval(owner, to, tokenId) */\n      0xffffffffffffffffffffffffffffffffffffffff\n      and\n        /* \"nft-loans/contracts/ERC721.sol\":3080:3085  owner */\n      dup5\n        /* \"nft-loans/contracts/ERC721.sol\":3071:3099  Approval(owner, to, tokenId) */\n      0xffffffffffffffffffffffffffffffffffffffff\n      and\n      0x8c5be1e5ebec7d5bd14f71427d1e84f3dd0314c0f7b2291e5b200ac8c7c3b925\n      mload(0x40)\n      mload(0x40)\n      dup1\n      swap2\n      sub\n      swap1\n      log4\n        /* \"nft-loans/contracts/ERC721.sol\":2920:3106  function _approve(... */\n      pop\n      pop\n      pop\n      jump\t// out\n        /* \"nft-loans/contracts/ERC721.sol\":3660:3927  function _isApprovedOrOwner(... */\n    tag_107:\n        /* \"nft-loans/contracts/ERC721.sol\":3786:3790  bool */\n      0x00\n        /* \"nft-loans/contracts/ERC721.sol\":3821:3826  owner */\n      dup4\n        /* \"nft-loans/contracts/ERC721.sol\":3810:3826  spender == owner */\n      0xffffffffffffffffffffffffffffffffffffffff\n      and\n        /* \"nft-loans/contracts/ERC721.sol\":3810:3817  spender */\n      dup4\n        /* \"nft-loans/contracts/ERC721.sol\":3810:3826  spender == owner */\n      0xffffffffffffffffffffffffffffffffffffffff\n      and\n      eq\n        /* \"nft-loans/contracts/ERC721.sol\":3810:3873  spender == owner ||... */\n      dup1\n      tag_157\n      jumpi\n      pop\n        /* \"nft-loans/contracts/ERC721.sol\":3866:3873  spender */\n      dup3\n        /* \"nft-loans/contracts/ERC721.sol\":3838:3873  _tokenApprovals[tokenId] == spender */\n      0xffffffffffffffffffffffffffffffffffffffff\n      and\n        /* \"nft-loans/contracts/ERC721.sol\":3838:3853  _tokenApprovals */\n      0x04\n        /* \"nft-loans/contracts/ERC721.sol\":3838:3862  _tokenApprovals[tokenId] */\n      0x00\n        /* \"nft-loans/contracts/ERC721.sol\":3854:3861  tokenId */\n      dup5\n        /* \"nft-loans/contracts/ERC721.sol\":3838:3862  _tokenApprovals[tokenId] */\n      dup2\n      mstore\n      0x20\n      add\n      swap1\n      dup2\n      mstore\n      0x20\n      add\n      0x00\n      keccak256\n      0x00\n      swap1\n      sload\n      swap1\n      0x0100\n      exp\n      swap1\n      div\n      0xffffffffffffffffffffffffffffffffffffffff\n      and\n        /* \"nft-loans/contracts/ERC721.sol\":3838:3873  _tokenApprovals[tokenId] == spender */\n      0xffffffffffffffffffffffffffffffffffffffff\n      and\n      eq\n        /* \"nft-loans/contracts/ERC721.sol\":3810:3873  spender == owner ||... */\n    tag_157:\n        /* \"nft-loans/contracts/ERC721.sol\":3810:3919  spender == owner ||... */\n      dup1\n      tag_158\n      jumpi\n      pop\n        /* \"nft-loans/contracts/ERC721.sol\":3885:3903  _operatorApprovals */\n      0x05\n        /* \"nft-loans/contracts/ERC721.sol\":3885:3910  _operatorApprovals[owner] */\n      0x00\n        /* \"nft-loans/contracts/ERC721.sol\":3904:3909  owner */\n      dup6\n        /* \"nft-loans/contracts/ERC721.sol\":3885:3910  _operatorApprovals[owner] */\n      0xffffffffffffffffffffffffffffffffffffffff\n      and\n      0xffffffffffffffffffffffffffffffffffffffff\n      and\n      dup2\n      mstore\n      0x20\n      add\n      swap1\n      dup2\n      mstore\n      0x20\n      add\n      0x00\n      keccak256\n        /* \"nft-loans/contracts/ERC721.sol\":3885:3919  _operatorApprovals[owner][spender] */\n      0x00\n        /* \"nft-loans/contracts/ERC721.sol\":3911:3918  spender */\n      dup5\n        /* \"nft-loans/contracts/ERC721.sol\":3885:3919  _operatorApprovals[owner][spender] */\n      0xffffffffffffffffffffffffffffffffffffffff\n      and\n      0xffffffffffffffffffffffffffffffffffffffff\n      and\n      dup2\n      mstore\n      0x20\n      add\n      swap1\n      dup2\n      mstore\n      0x20\n      add\n      0x00\n      keccak256\n      0x00\n      swap1\n      sload\n      swap1\n      0x0100\n      exp\n      swap1\n      div\n      0xff\n      and\n        /* \"nft-loans/contracts/ERC721.sol\":3810:3919  spender == owner ||... */\n    tag_158:\n        /* \"nft-loans/contracts/ERC721.sol\":3802:3920  return (spender == owner ||... */\n      swap1\n      pop\n        /* \"nft-loans/contracts/ERC721.sol\":3660:3927  function _isApprovedOrOwner(... */\n      swap4\n      swap3\n      pop\n      pop\n      pop\n      jump\t// out\n        /* \"nft-loans/contracts/ERC721.sol\":3939:4358  function _transfer(... */\n    tag_112:\n        /* \"nft-loans/contracts/ERC721.sol\":4085:4090  owner */\n      dup4\n        /* \"nft-loans/contracts/ERC721.sol\":4077:4090  from == owner */\n      0xffffffffffffffffffffffffffffffffffffffff\n      and\n        /* \"nft-loans/contracts/ERC721.sol\":4077:4081  from */\n      dup4\n        /* \"nft-loans/contracts/ERC721.sol\":4077:4090  from == owner */\n      0xffffffffffffffffffffffffffffffffffffffff\n      and\n      eq\n        /* \"nft-loans/contracts/ERC721.sol\":4069:4104  require(from == owner, \"not owner\") */\n      tag_160\n      jumpi\n      mload(0x40)\n      0x08c379a000000000000000000000000000000000000000000000000000000000\n      dup2\n      mstore\n      0x04\n      add\n      tag_161\n      swap1\n      tag_162\n      jump\t// in\n    tag_161:\n      mload(0x40)\n      dup1\n      swap2\n      sub\n      swap1\n      revert\n    tag_160:\n        /* \"nft-loans/contracts/ERC721.sol\":4136:4137  0 */\n      0x00\n        /* \"nft-loans/contracts/ERC721.sol\":4122:4138  to != address(0) */\n      0xffffffffffffffffffffffffffffffffffffffff\n      and\n        /* \"nft-loans/contracts/ERC721.sol\":4122:4124  to */\n      dup3\n        /* \"nft-loans/contracts/ERC721.sol\":4122:4138  to != address(0) */\n      0xffffffffffffffffffffffffffffffffffffffff\n      and\n      eq\n      iszero\n        /* \"nft-loans/contracts/ERC721.sol\":4114:4171  require(to != address(0), \"transfer to the zero address\") */\n      tag_163\n      jumpi\n      mload(0x40)\n      0x08c379a000000000000000000000000000000000000000000000000000000000\n      dup2\n      mstore\n      0x04\n      add\n      tag_164\n      swap1\n      tag_165\n      jump\t// in\n    tag_164:\n      mload(0x40)\n      dup1\n      swap2\n      sub\n      swap1\n      revert\n    tag_163:\n        /* \"nft-loans/contracts/ERC721.sol\":4182:4218  _approve(owner, address(0), tokenId) */\n      tag_166\n        /* \"nft-loans/contracts/ERC721.sol\":4191:4196  owner */\n      dup5\n        /* \"nft-loans/contracts/ERC721.sol\":4206:4207  0 */\n      0x00\n        /* \"nft-loans/contracts/ERC721.sol\":4210:4217  tokenId */\n      dup4\n        /* \"nft-loans/contracts/ERC721.sol\":4182:4190  _approve */\n      tag_103\n        /* \"nft-loans/contracts/ERC721.sol\":4182:4218  _approve(owner, address(0), tokenId) */\n      jump\t// in\n    tag_166:\n        /* \"nft-loans/contracts/ERC721.sol\":4248:4249  1 */\n      0x01\n        /* \"nft-loans/contracts/ERC721.sol\":4229:4238  _balances */\n      0x03\n        /* \"nft-loans/contracts/ERC721.sol\":4229:4244  _balances[from] */\n      0x00\n        /* \"nft-loans/contracts/ERC721.sol\":4239:4243  from */\n      dup6\n        /* \"nft-loans/contracts/ERC721.sol\":4229:4244  _balances[from] */\n      0xffffffffffffffffffffffffffffffffffffffff\n      and\n      0xffffffffffffffffffffffffffffffffffffffff\n      and\n      dup2\n      mstore\n      0x20\n      add\n      swap1\n      dup2\n      mstore\n      0x20\n      add\n      0x00\n      keccak256\n      0x00\n        /* \"nft-loans/contracts/ERC721.sol\":4229:4249  _balances[from] -= 1 */\n      dup3\n      dup3\n      sload\n      tag_167\n      swap2\n      swap1\n      tag_168\n      jump\t// in\n    tag_167:\n      swap3\n      pop\n      pop\n      dup2\n      swap1\n      sstore\n      pop\n        /* \"nft-loans/contracts/ERC721.sol\":4276:4277  1 */\n      0x01\n        /* \"nft-loans/contracts/ERC721.sol\":4259:4268  _balances */\n      0x03\n        /* \"nft-loans/contracts/ERC721.sol\":4259:4272  _balances[to] */\n      0x00\n        /* \"nft-loans/contracts/ERC721.sol\":4269:4271  to */\n      dup5\n        /* \"nft-loans/contracts/ERC721.sol\":4259:4272  _balances[to] */\n      0xffffffffffffffffffffffffffffffffffffffff\n      and\n      0xffffffffffffffffffffffffffffffffffffffff\n      and\n      dup2\n      mstore\n      0x20\n      add\n      swap1\n      dup2\n      mstore\n      0x20\n      add\n      0x00\n      keccak256\n      0x00\n        /* \"nft-loans/contracts/ERC721.sol\":4259:4277  _balances[to] += 1 */\n      dup3\n      dup3\n      sload\n      tag_169\n      swap2\n      swap1\n      tag_170\n      jump\t// in\n    tag_169:\n      swap3\n      pop\n      pop\n      dup2\n      swap1\n      sstore\n      pop\n        /* \"nft-loans/contracts/ERC721.sol\":4306:4308  to */\n      dup2\n        /* \"nft-loans/contracts/ERC721.sol\":4287:4294  _owners */\n      0x02\n        /* \"nft-loans/contracts/ERC721.sol\":4287:4303  _owners[tokenId] */\n      0x00\n        /* \"nft-loans/contracts/ERC721.sol\":4295:4302  tokenId */\n      dup4\n        /* \"nft-loans/contracts/ERC721.sol\":4287:4303  _owners[tokenId] */\n      dup2\n      mstore\n      0x20\n      add\n      swap1\n      dup2\n      mstore\n      0x20\n      add\n      0x00\n      keccak256\n      0x00\n        /* \"nft-loans/contracts/ERC721.sol\":4287:4308  _owners[tokenId] = to */\n      0x0100\n      exp\n      dup2\n      sload\n      dup2\n      0xffffffffffffffffffffffffffffffffffffffff\n      mul\n      not\n      and\n      swap1\n      dup4\n      0xffffffffffffffffffffffffffffffffffffffff\n      and\n      mul\n      or\n      swap1\n      sstore\n      pop\n        /* \"nft-loans/contracts/ERC721.sol\":4343:4350  tokenId */\n      dup1\n        /* \"nft-loans/contracts/ERC721.sol\":4339:4341  to */\n      dup3\n        /* \"nft-loans/contracts/ERC721.sol\":4324:4351  Transfer(from, to, tokenId) */\n      0xffffffffffffffffffffffffffffffffffffffff\n      and\n        /* \"nft-loans/contracts/ERC721.sol\":4333:4337  from */\n      dup5\n        /* \"nft-loans/contracts/ERC721.sol\":4324:4351  Transfer(from, to, tokenId) */\n      0xffffffffffffffffffffffffffffffffffffffff\n      and\n      0xddf252ad1be2c89b69c2b068fc378daa952ba7f163c4a11628f55a4df523b3ef\n      mload(0x40)\n      mload(0x40)\n      dup1\n      swap2\n      sub\n      swap1\n      log4\n        /* \"nft-loans/contracts/ERC721.sol\":3939:4358  function _transfer(... */\n      pop\n      pop\n      pop\n      pop\n      jump\t// out\n        /* \"nft-loans/contracts/ERC721.sol\":5685:5991  function _mint(address to, uint tokenId) internal virtual {... */\n    tag_115:\n        /* \"nft-loans/contracts/ERC721.sol\":5775:5776  0 */\n      0x00\n        /* \"nft-loans/contracts/ERC721.sol\":5761:5777  to != address(0) */\n      0xffffffffffffffffffffffffffffffffffffffff\n      and\n        /* \"nft-loans/contracts/ERC721.sol\":5761:5763  to */\n      dup3\n        /* \"nft-loans/contracts/ERC721.sol\":5761:5777  to != address(0) */\n      0xffffffffffffffffffffffffffffffffffffffff\n      and\n      eq\n      iszero\n        /* \"nft-loans/contracts/ERC721.sol\":5753:5802  require(to != address(0), \"mint to zero address\") */\n      tag_172\n      jumpi\n      mload(0x40)\n      0x08c379a000000000000000000000000000000000000000000000000000000000\n      dup2\n      mstore\n      0x04\n      add\n      tag_173\n      swap1\n      tag_174\n      jump\t// in\n    tag_173:\n      mload(0x40)\n      dup1\n      swap2\n      sub\n      swap1\n      revert\n    tag_172:\n        /* \"nft-loans/contracts/ERC721.sol\":5848:5849  0 */\n      0x00\n        /* \"nft-loans/contracts/ERC721.sol\":5820:5850  _owners[tokenId] == address(0) */\n      0xffffffffffffffffffffffffffffffffffffffff\n      and\n        /* \"nft-loans/contracts/ERC721.sol\":5820:5827  _owners */\n      0x02\n        /* \"nft-loans/contracts/ERC721.sol\":5820:5836  _owners[tokenId] */\n      0x00\n        /* \"nft-loans/contracts/ERC721.sol\":5828:5835  tokenId */\n      dup4\n        /* \"nft-loans/contracts/ERC721.sol\":5820:5836  _owners[tokenId] */\n      dup2\n      mstore\n      0x20\n      add\n      swap1\n      dup2\n      mstore\n      0x20\n      add\n      0x00\n      keccak256\n      0x00\n      swap1\n      sload\n      swap1\n      0x0100\n      exp\n      swap1\n      div\n      0xffffffffffffffffffffffffffffffffffffffff\n      and\n        /* \"nft-loans/contracts/ERC721.sol\":5820:5850  _owners[tokenId] == address(0) */\n      0xffffffffffffffffffffffffffffffffffffffff\n      and\n      eq\n        /* \"nft-loans/contracts/ERC721.sol\":5812:5875  require(_owners[tokenId] == address(0), \"token already minted\") */\n      tag_175\n      jumpi\n      mload(0x40)\n      0x08c379a000000000000000000000000000000000000000000000000000000000\n      dup2\n      mstore\n      0x04\n      add\n      tag_176\n      swap1\n      tag_177\n      jump\t// in\n    tag_176:\n      mload(0x40)\n      dup1\n      swap2\n      sub\n      swap1\n      revert\n    tag_175:\n        /* \"nft-loans/contracts/ERC721.sol\":5903:5904  1 */\n      0x01\n        /* \"nft-loans/contracts/ERC721.sol\":5886:5895  _balances */\n      0x03\n        /* \"nft-loans/contracts/ERC721.sol\":5886:5899  _balances[to] */\n      0x00\n        /* \"nft-loans/contracts/ERC721.sol\":5896:5898  to */\n      dup5\n        /* \"nft-loans/contracts/ERC721.sol\":5886:5899  _balances[to] */\n      0xffffffffffffffffffffffffffffffffffffffff\n      and\n      0xffffffffffffffffffffffffffffffffffffffff\n      and\n      dup2\n      mstore\n      0x20\n      add\n      swap1\n      dup2\n      mstore\n      0x20\n      add\n      0x00\n      keccak256\n      0x00\n        /* \"nft-loans/contracts/ERC721.sol\":5886:5904  _balances[to] += 1 */\n      dup3\n      dup3\n      sload\n      tag_178\n      swap2\n      swap1\n      tag_170\n      jump\t// in\n    tag_178:\n      swap3\n      pop\n      pop\n      dup2\n      swap1\n      sstore\n      pop\n        /* \"nft-loans/contracts/ERC721.sol\":5933:5935  to */\n      dup2\n        /* \"nft-loans/contracts/ERC721.sol\":5914:5921  _owners */\n      0x02\n        /* \"nft-loans/contracts/ERC721.sol\":5914:5930  _owners[tokenId] */\n      0x00\n        /* \"nft-loans/contracts/ERC721.sol\":5922:5929  tokenId */\n      dup4\n        /* \"nft-loans/contracts/ERC721.sol\":5914:5930  _owners[tokenId] */\n      dup2\n      mstore\n      0x20\n      add\n      swap1\n      dup2\n      mstore\n      0x20\n      add\n      0x00\n      keccak256\n      0x00\n        /* \"nft-loans/contracts/ERC721.sol\":5914:5935  _owners[tokenId] = to */\n      0x0100\n      exp\n      dup2\n      sload\n      dup2\n      0xffffffffffffffffffffffffffffffffffffffff\n      mul\n      not\n      and\n      swap1\n      dup4\n      0xffffffffffffffffffffffffffffffffffffffff\n      and\n      mul\n      or\n      swap1\n      sstore\n      pop\n        /* \"nft-loans/contracts/ERC721.sol\":5976:5983  tokenId */\n      dup1\n        /* \"nft-loans/contracts/ERC721.sol\":5972:5974  to */\n      dup3\n        /* \"nft-loans/contracts/ERC721.sol\":5951:5984  Transfer(address(0), to, tokenId) */\n      0xffffffffffffffffffffffffffffffffffffffff\n      and\n        /* \"nft-loans/contracts/ERC721.sol\":5968:5969  0 */\n      0x00\n        /* \"nft-loans/contracts/ERC721.sol\":5951:5984  Transfer(address(0), to, tokenId) */\n      0xffffffffffffffffffffffffffffffffffffffff\n      and\n      0xddf252ad1be2c89b69c2b068fc378daa952ba7f163c4a11628f55a4df523b3ef\n      mload(0x40)\n      mload(0x40)\n      dup1\n      swap2\n      sub\n      swap1\n      log4\n        /* \"nft-loans/contracts/ERC721.sol\":5685:5991  function _mint(address to, uint tokenId) internal virtual {... */\n      pop\n      pop\n      jump\t// out\n        /* \"nft-loans/contracts/ERC721.sol\":6214:6533  function _burn(uint tokenId) internal virtual {... */\n    tag_120:\n        /* \"nft-loans/contracts/ERC721.sol\":6270:6283  address owner */\n      0x00\n        /* \"nft-loans/contracts/ERC721.sol\":6286:6302  ownerOf(tokenId) */\n      tag_180\n        /* \"nft-loans/contracts/ERC721.sol\":6294:6301  tokenId */\n      dup3\n        /* \"nft-loans/contracts/ERC721.sol\":6286:6293  ownerOf */\n      tag_56\n        /* \"nft-loans/contracts/ERC721.sol\":6286:6302  ownerOf(tokenId) */\n      jump\t// in\n    tag_180:\n        /* \"nft-loans/contracts/ERC721.sol\":6270:6302  address owner = ownerOf(tokenId) */\n      swap1\n      pop\n        /* \"nft-loans/contracts/ERC721.sol\":6334:6339  owner */\n      dup1\n        /* \"nft-loans/contracts/ERC721.sol\":6320:6339  msg.sender == owner */\n      0xffffffffffffffffffffffffffffffffffffffff\n      and\n        /* \"nft-loans/contracts/ERC721.sol\":6320:6330  msg.sender */\n      caller\n        /* \"nft-loans/contracts/ERC721.sol\":6320:6339  msg.sender == owner */\n      0xffffffffffffffffffffffffffffffffffffffff\n      and\n      eq\n        /* \"nft-loans/contracts/ERC721.sol\":6312:6362  require(msg.sender == owner, \"not owner of token\") */\n      tag_181\n      jumpi\n      mload(0x40)\n      0x08c379a000000000000000000000000000000000000000000000000000000000\n      dup2\n      mstore\n      0x04\n      add\n      tag_182\n      swap1\n      tag_183\n      jump\t// in\n    tag_182:\n      mload(0x40)\n      dup1\n      swap2\n      sub\n      swap1\n      revert\n    tag_181:\n        /* \"nft-loans/contracts/ERC721.sol\":6373:6409  _approve(owner, address(0), tokenId) */\n      tag_184\n        /* \"nft-loans/contracts/ERC721.sol\":6382:6387  owner */\n      dup2\n        /* \"nft-loans/contracts/ERC721.sol\":6397:6398  0 */\n      0x00\n        /* \"nft-loans/contracts/ERC721.sol\":6401:6408  tokenId */\n      dup5\n        /* \"nft-loans/contracts/ERC721.sol\":6373:6381  _approve */\n      tag_103\n        /* \"nft-loans/contracts/ERC721.sol\":6373:6409  _approve(owner, address(0), tokenId) */\n      jump\t// in\n    tag_184:\n        /* \"nft-loans/contracts/ERC721.sol\":6440:6441  1 */\n      0x01\n        /* \"nft-loans/contracts/ERC721.sol\":6420:6429  _balances */\n      0x03\n        /* \"nft-loans/contracts/ERC721.sol\":6420:6436  _balances[owner] */\n      0x00\n        /* \"nft-loans/contracts/ERC721.sol\":6430:6435  owner */\n      dup4\n        /* \"nft-loans/contracts/ERC721.sol\":6420:6436  _balances[owner] */\n      0xffffffffffffffffffffffffffffffffffffffff\n      and\n      0xffffffffffffffffffffffffffffffffffffffff\n      and\n      dup2\n      mstore\n      0x20\n      add\n      swap1\n      dup2\n      mstore\n      0x20\n      add\n      0x00\n      keccak256\n      0x00\n        /* \"nft-loans/contracts/ERC721.sol\":6420:6441  _balances[owner] -= 1 */\n      dup3\n      dup3\n      sload\n      tag_185\n      swap2\n      swap1\n      tag_168\n      jump\t// in\n    tag_185:\n      swap3\n      pop\n      pop\n      dup2\n      swap1\n      sstore\n      pop\n        /* \"nft-loans/contracts/ERC721.sol\":6458:6465  _owners */\n      0x02\n        /* \"nft-loans/contracts/ERC721.sol\":6458:6474  _owners[tokenId] */\n      0x00\n        /* \"nft-loans/contracts/ERC721.sol\":6466:6473  tokenId */\n      dup4\n        /* \"nft-loans/contracts/ERC721.sol\":6458:6474  _owners[tokenId] */\n      dup2\n      mstore\n      0x20\n      add\n      swap1\n      dup2\n      mstore\n      0x20\n      add\n      0x00\n      keccak256\n      0x00\n        /* \"nft-loans/contracts/ERC721.sol\":6451:6474  delete _owners[tokenId] */\n      0x0100\n      exp\n      dup2\n      sload\n      swap1\n      0xffffffffffffffffffffffffffffffffffffffff\n      mul\n      not\n      and\n      swap1\n      sstore\n        /* \"nft-loans/contracts/ERC721.sol\":6518:6525  tokenId */\n      dup2\n        /* \"nft-loans/contracts/ERC721.sol\":6514:6515  0 */\n      0x00\n        /* \"nft-loans/contracts/ERC721.sol\":6490:6526  Transfer(owner, address(0), tokenId) */\n      0xffffffffffffffffffffffffffffffffffffffff\n      and\n        /* \"nft-loans/contracts/ERC721.sol\":6499:6504  owner */\n      dup3\n        /* \"nft-loans/contracts/ERC721.sol\":6490:6526  Transfer(owner, address(0), tokenId) */\n      0xffffffffffffffffffffffffffffffffffffffff\n      and\n      0xddf252ad1be2c89b69c2b068fc378daa952ba7f163c4a11628f55a4df523b3ef\n      mload(0x40)\n      mload(0x40)\n      dup1\n      swap2\n      sub\n      swap1\n      log4\n        /* \"nft-loans/contracts/ERC721.sol\":6260:6533  {... */\n      pop\n        /* \"nft-loans/contracts/ERC721.sol\":6214:6533  function _burn(uint tokenId) internal virtual {... */\n      pop\n      jump\t// out\n        /* \"nft-loans/contracts/ERC721.sol\":4796:5089  function _safeTransfer(... */\n    tag_141:\n        /* \"nft-loans/contracts/ERC721.sol\":4958:4993  _transfer(owner, from, to, tokenId) */\n      tag_187\n        /* \"nft-loans/contracts/ERC721.sol\":4968:4973  owner */\n      dup6\n        /* \"nft-loans/contracts/ERC721.sol\":4975:4979  from */\n      dup6\n        /* \"nft-loans/contracts/ERC721.sol\":4981:4983  to */\n      dup6\n        /* \"nft-loans/contracts/ERC721.sol\":4985:4992  tokenId */\n      dup6\n        /* \"nft-loans/contracts/ERC721.sol\":4958:4967  _transfer */\n      tag_112\n        /* \"nft-loans/contracts/ERC721.sol\":4958:4993  _transfer(owner, from, to, tokenId) */\n      jump\t// in\n    tag_187:\n        /* \"nft-loans/contracts/ERC721.sol\":5011:5059  _checkOnERC721Received(from, to, tokenId, _data) */\n      tag_188\n        /* \"nft-loans/contracts/ERC721.sol\":5034:5038  from */\n      dup5\n        /* \"nft-loans/contracts/ERC721.sol\":5040:5042  to */\n      dup5\n        /* \"nft-loans/contracts/ERC721.sol\":5044:5051  tokenId */\n      dup5\n        /* \"nft-loans/contracts/ERC721.sol\":5053:5058  _data */\n      dup5\n        /* \"nft-loans/contracts/ERC721.sol\":5011:5033  _checkOnERC721Received */\n      tag_189\n        /* \"nft-loans/contracts/ERC721.sol\":5011:5059  _checkOnERC721Received(from, to, tokenId, _data) */\n      jump\t// in\n    tag_188:\n        /* \"nft-loans/contracts/ERC721.sol\":5003:5082  require(_checkOnERC721Received(from, to, tokenId, _data), \"not ERC721Receiver\") */\n      tag_190\n      jumpi\n      mload(0x40)\n      0x08c379a000000000000000000000000000000000000000000000000000000000\n      dup2\n      mstore\n      0x04\n      add\n      tag_191\n      swap1\n      tag_192\n      jump\t// in\n    tag_191:\n      mload(0x40)\n      dup1\n      swap2\n      sub\n      swap1\n      revert\n    tag_190:\n        /* \"nft-loans/contracts/ERC721.sol\":4796:5089  function _safeTransfer(... */\n      pop\n      pop\n      pop\n      pop\n      pop\n      jump\t// out\n        /* \"nft-loans/contracts/ERC721.sol\":7706:7798  function _baseURI() internal view virtual returns (string memory) {... */\n    tag_147:\n        /* \"nft-loans/contracts/ERC721.sol\":7757:7770  string memory */\n      0x60\n        /* \"nft-loans/contracts/ERC721.sol\":7782:7791  return \"\" */\n      mload(0x40)\n      dup1\n      0x20\n      add\n      0x40\n      mstore\n      dup1\n      0x00\n      dup2\n      mstore\n      pop\n      swap1\n      pop\n        /* \"nft-loans/contracts/ERC721.sol\":7706:7798  function _baseURI() internal view virtual returns (string memory) {... */\n      swap1\n      jump\t// out\n        /* \"nft-loans/contracts/String.sol\":264:967  function toString(uint256 value) internal pure returns (string memory) {... */\n    tag_151:\n        /* \"nft-loans/contracts/String.sol\":320:333  string memory */\n      0x60\n        /* \"nft-loans/contracts/String.sol\":546:547  0 */\n      0x00\n        /* \"nft-loans/contracts/String.sol\":537:542  value */\n      dup3\n        /* \"nft-loans/contracts/String.sol\":537:547  value == 0 */\n      eq\n        /* \"nft-loans/contracts/String.sol\":533:584  if (value == 0) {... */\n      iszero\n      tag_195\n      jumpi\n        /* \"nft-loans/contracts/String.sol\":563:573  return \"0\" */\n      mload(0x40)\n      dup1\n      0x40\n      add\n      0x40\n      mstore\n      dup1\n      0x01\n      dup2\n      mstore\n      0x20\n      add\n      0x3000000000000000000000000000000000000000000000000000000000000000\n      dup2\n      mstore\n      pop\n      swap1\n      pop\n      jump(tag_194)\n        /* \"nft-loans/contracts/String.sol\":533:584  if (value == 0) {... */\n    tag_195:\n        /* \"nft-loans/contracts/String.sol\":593:605  uint256 temp */\n      0x00\n        /* \"nft-loans/contracts/String.sol\":608:613  value */\n      dup3\n        /* \"nft-loans/contracts/String.sol\":593:613  uint256 temp = value */\n      swap1\n      pop\n        /* \"nft-loans/contracts/String.sol\":623:637  uint256 digits */\n      0x00\n        /* \"nft-loans/contracts/String.sol\":647:722  while (temp != 0) {... */\n    tag_196:\n        /* \"nft-loans/contracts/String.sol\":662:663  0 */\n      0x00\n        /* \"nft-loans/contracts/String.sol\":654:658  temp */\n      dup3\n        /* \"nft-loans/contracts/String.sol\":654:663  temp != 0 */\n      eq\n        /* \"nft-loans/contracts/String.sol\":647:722  while (temp != 0) {... */\n      tag_197\n      jumpi\n        /* \"nft-loans/contracts/String.sol\":679:687  digits++ */\n      dup1\n      dup1\n      tag_198\n      swap1\n      tag_199\n      jump\t// in\n    tag_198:\n      swap2\n      pop\n      pop\n        /* \"nft-loans/contracts/String.sol\":709:711  10 */\n      0x0a\n        /* \"nft-loans/contracts/String.sol\":701:711  temp /= 10 */\n      dup3\n      tag_200\n      swap2\n      swap1\n      tag_201\n      jump\t// in\n    tag_200:\n      swap2\n      pop\n        /* \"nft-loans/contracts/String.sol\":647:722  while (temp != 0) {... */\n      jump(tag_196)\n    tag_197:\n        /* \"nft-loans/contracts/String.sol\":731:750  bytes memory buffer */\n      0x00\n        /* \"nft-loans/contracts/String.sol\":763:769  digits */\n      dup2\n        /* \"nft-loans/contracts/String.sol\":753:770  new bytes(digits) */\n      0xffffffffffffffff\n      dup2\n      gt\n      iszero\n      tag_202\n      jumpi\n      tag_203\n      tag_204\n      jump\t// in\n    tag_203:\n    tag_202:\n      mload(0x40)\n      swap1\n      dup1\n      dup3\n      mstore\n      dup1\n      0x1f\n      add\n      not(0x1f)\n      and\n      0x20\n      add\n      dup3\n      add\n      0x40\n      mstore\n      dup1\n      iszero\n      tag_205\n      jumpi\n      dup2\n      0x20\n      add\n      0x01\n      dup3\n      mul\n      dup1\n      calldatasize\n      dup4\n      calldatacopy\n      dup1\n      dup3\n      add\n      swap2\n      pop\n      pop\n      swap1\n      pop\n    tag_205:\n      pop\n        /* \"nft-loans/contracts/String.sol\":731:770  bytes memory buffer = new bytes(digits) */\n      swap1\n      pop\n        /* \"nft-loans/contracts/String.sol\":780:930  while (value != 0) {... */\n    tag_206:\n        /* \"nft-loans/contracts/String.sol\":796:797  0 */\n      0x00\n        /* \"nft-loans/contracts/String.sol\":787:792  value */\n      dup6\n        /* \"nft-loans/contracts/String.sol\":787:797  value != 0 */\n      eq\n        /* \"nft-loans/contracts/String.sol\":780:930  while (value != 0) {... */\n      tag_207\n      jumpi\n        /* \"nft-loans/contracts/String.sol\":823:824  1 */\n      0x01\n        /* \"nft-loans/contracts/String.sol\":813:824  digits -= 1 */\n      dup3\n      tag_208\n      swap2\n      swap1\n      tag_168\n      jump\t// in\n    tag_208:\n      swap2\n      pop\n        /* \"nft-loans/contracts/String.sol\":889:891  10 */\n      0x0a\n        /* \"nft-loans/contracts/String.sol\":881:886  value */\n      dup6\n        /* \"nft-loans/contracts/String.sol\":881:891  value % 10 */\n      tag_209\n      swap2\n      swap1\n      tag_210\n      jump\t// in\n    tag_209:\n        /* \"nft-loans/contracts/String.sol\":868:870  48 */\n      0x30\n        /* \"nft-loans/contracts/String.sol\":868:892  48 + uint256(value % 10) */\n      tag_211\n      swap2\n      swap1\n      tag_170\n      jump\t// in\n    tag_211:\n        /* \"nft-loans/contracts/String.sol\":855:894  bytes1(uint8(48 + uint256(value % 10))) */\n      0xf8\n      shl\n        /* \"nft-loans/contracts/String.sol\":838:844  buffer */\n      dup2\n        /* \"nft-loans/contracts/String.sol\":845:851  digits */\n      dup4\n        /* \"nft-loans/contracts/String.sol\":838:852  buffer[digits] */\n      dup2\n      mload\n      dup2\n      lt\n      tag_212\n      jumpi\n      tag_213\n      tag_214\n      jump\t// in\n    tag_213:\n    tag_212:\n      0x20\n      add\n      add\n        /* \"nft-loans/contracts/String.sol\":838:894  buffer[digits] = bytes1(uint8(48 + uint256(value % 10))) */\n      swap1\n      not(0xffffffffffffffffffffffffffffffffffffffffffffffffffffffffffffff)\n      and\n      swap1\n      dup2\n      0x00\n      byte\n      swap1\n      mstore8\n      pop\n        /* \"nft-loans/contracts/String.sol\":917:919  10 */\n      0x0a\n        /* \"nft-loans/contracts/String.sol\":908:919  value /= 10 */\n      dup6\n      tag_215\n      swap2\n      swap1\n      tag_201\n      jump\t// in\n    tag_215:\n      swap5\n      pop\n        /* \"nft-loans/contracts/String.sol\":780:930  while (value != 0) {... */\n      jump(tag_206)\n    tag_207:\n        /* \"nft-loans/contracts/String.sol\":953:959  buffer */\n      dup1\n        /* \"nft-loans/contracts/String.sol\":939:960  return string(buffer) */\n      swap4\n      pop\n      pop\n      pop\n      pop\n        /* \"nft-loans/contracts/String.sol\":264:967  function toString(uint256 value) internal pure returns (string memory) {... */\n    tag_194:\n      swap2\n      swap1\n      pop\n      jump\t// out\n        /* \"nft-loans/contracts/ERC721.sol\":6765:7191  function _checkOnERC721Received(... */\n    tag_189:\n        /* \"nft-loans/contracts/ERC721.sol\":6912:6916  bool */\n      0x00\n        /* \"nft-loans/contracts/ERC721.sol\":7100:7141  IERC721Receiver.onERC721Received.selector */\n      shl(0xe0, 0x150b7a02)\n        /* \"nft-loans/contracts/ERC721.sol\":6948:7141  IERC721Receiver(to).onERC721Received(... */\n      not(0xffffffffffffffffffffffffffffffffffffffffffffffffffffffff)\n      and\n        /* \"nft-loans/contracts/ERC721.sol\":6964:6966  to */\n      dup5\n        /* \"nft-loans/contracts/ERC721.sol\":6948:6984  IERC721Receiver(to).onERC721Received */\n      0xffffffffffffffffffffffffffffffffffffffff\n      and\n      0x150b7a02\n        /* \"nft-loans/contracts/ERC721.sol\":7002:7012  msg.sender */\n      caller\n        /* \"nft-loans/contracts/ERC721.sol\":7030:7034  from */\n      dup9\n        /* \"nft-loans/contracts/ERC721.sol\":7052:7059  tokenId */\n      dup8\n        /* \"nft-loans/contracts/ERC721.sol\":7077:7082  _data */\n      dup8\n        /* \"nft-loans/contracts/ERC721.sol\":6948:7096  IERC721Receiver(to).onERC721Received(... */\n      mload(0x40)\n      dup6\n      0xffffffff\n      and\n      0xe0\n      shl\n      dup2\n      mstore\n      0x04\n      add\n      tag_217\n      swap5\n      swap4\n      swap3\n      swap2\n      swap1\n      tag_218\n      jump\t// in\n    tag_217:\n      0x20\n      mload(0x40)\n      dup1\n      dup4\n      sub\n      dup2\n      0x00\n      dup8\n      dup1\n      extcodesize\n      iszero\n      dup1\n      iszero\n      tag_219\n      jumpi\n      0x00\n      dup1\n      revert\n    tag_219:\n      pop\n      gas\n      call\n      iszero\n      dup1\n      iszero\n      tag_221\n      jumpi\n      returndatasize\n      0x00\n      dup1\n      returndatacopy\n      revert(0x00, returndatasize)\n    tag_221:\n      pop\n      pop\n      pop\n      pop\n      mload(0x40)\n      returndatasize\n      not(0x1f)\n      0x1f\n      dup3\n      add\n      and\n      dup3\n      add\n      dup1\n      0x40\n      mstore\n      pop\n      dup2\n      add\n      swap1\n      tag_222\n      swap2\n      swap1\n      tag_223\n      jump\t// in\n    tag_222:\n        /* \"nft-loans/contracts/ERC721.sol\":6948:7141  IERC721Receiver(to).onERC721Received(... */\n      pop\n      pop\n        /* \"nft-loans/contracts/ERC721.sol\":7171:7175  true */\n      0x01\n        /* \"nft-loans/contracts/ERC721.sol\":7164:7175  return true */\n      swap1\n      pop\n        /* \"nft-loans/contracts/ERC721.sol\":6765:7191  function _checkOnERC721Received(... */\n      swap5\n      swap4\n      pop\n      pop\n      pop\n      pop\n      jump\t// out\n        /* \"#utility.yul\":7:417   */\n    tag_225:\n        /* \"#utility.yul\":84:89   */\n      0x00\n        /* \"#utility.yul\":109:174   */\n      tag_227\n        /* \"#utility.yul\":125:173   */\n      tag_228\n        /* \"#utility.yul\":166:172   */\n      dup5\n        /* \"#utility.yul\":125:173   */\n      tag_229\n      jump\t// in\n    tag_228:\n        /* \"#utility.yul\":109:174   */\n      tag_230\n      jump\t// in\n    tag_227:\n        /* \"#utility.yul\":100:174   */\n      swap1\n      pop\n        /* \"#utility.yul\":197:203   */\n      dup3\n        /* \"#utility.yul\":190:195   */\n      dup2\n        /* \"#utility.yul\":183:204   */\n      mstore\n        /* \"#utility.yul\":235:239   */\n      0x20\n        /* \"#utility.yul\":228:233   */\n      dup2\n        /* \"#utility.yul\":224:240   */\n      add\n        /* \"#utility.yul\":273:276   */\n      dup5\n        /* \"#utility.yul\":264:270   */\n      dup5\n        /* \"#utility.yul\":259:262   */\n      dup5\n        /* \"#utility.yul\":255:271   */\n      add\n        /* \"#utility.yul\":252:277   */\n      gt\n        /* \"#utility.yul\":249:361   */\n      iszero\n      tag_231\n      jumpi\n        /* \"#utility.yul\":280:359   */\n      tag_232\n      tag_233\n      jump\t// in\n    tag_232:\n        /* \"#utility.yul\":249:361   */\n    tag_231:\n        /* \"#utility.yul\":370:411   */\n      tag_234\n        /* \"#utility.yul\":404:410   */\n      dup5\n        /* \"#utility.yul\":399:402   */\n      dup3\n        /* \"#utility.yul\":394:397   */\n      dup6\n        /* \"#utility.yul\":370:411   */\n      tag_235\n      jump\t// in\n    tag_234:\n        /* \"#utility.yul\":90:417   */\n      pop\n        /* \"#utility.yul\":7:417   */\n      swap4\n      swap3\n      pop\n      pop\n      pop\n      jump\t// out\n        /* \"#utility.yul\":423:562   */\n    tag_236:\n        /* \"#utility.yul\":469:474   */\n      0x00\n        /* \"#utility.yul\":507:513   */\n      dup2\n        /* \"#utility.yul\":494:514   */\n      calldataload\n        /* \"#utility.yul\":485:514   */\n      swap1\n      pop\n        /* \"#utility.yul\":523:556   */\n      tag_238\n        /* \"#utility.yul\":550:555   */\n      dup2\n        /* \"#utility.yul\":523:556   */\n      tag_239\n      jump\t// in\n    tag_238:\n        /* \"#utility.yul\":423:562   */\n      swap3\n      swap2\n      pop\n      pop\n      jump\t// out\n        /* \"#utility.yul\":568:701   */\n    tag_240:\n        /* \"#utility.yul\":611:616   */\n      0x00\n        /* \"#utility.yul\":649:655   */\n      dup2\n        /* \"#utility.yul\":636:656   */\n      calldataload\n        /* \"#utility.yul\":627:656   */\n      swap1\n      pop\n        /* \"#utility.yul\":665:695   */\n      tag_242\n        /* \"#utility.yul\":689:694   */\n      dup2\n        /* \"#utility.yul\":665:695   */\n      tag_243\n      jump\t// in\n    tag_242:\n        /* \"#utility.yul\":568:701   */\n      swap3\n      swap2\n      pop\n      pop\n      jump\t// out\n        /* \"#utility.yul\":707:844   */\n    tag_244:\n        /* \"#utility.yul\":752:757   */\n      0x00\n        /* \"#utility.yul\":790:796   */\n      dup2\n        /* \"#utility.yul\":777:797   */\n      calldataload\n        /* \"#utility.yul\":768:797   */\n      swap1\n      pop\n        /* \"#utility.yul\":806:838   */\n      tag_246\n        /* \"#utility.yul\":832:837   */\n      dup2\n        /* \"#utility.yul\":806:838   */\n      tag_247\n      jump\t// in\n    tag_246:\n        /* \"#utility.yul\":707:844   */\n      swap3\n      swap2\n      pop\n      pop\n      jump\t// out\n        /* \"#utility.yul\":850:991   */\n    tag_248:\n        /* \"#utility.yul\":906:911   */\n      0x00\n        /* \"#utility.yul\":937:943   */\n      dup2\n        /* \"#utility.yul\":931:944   */\n      mload\n        /* \"#utility.yul\":922:944   */\n      swap1\n      pop\n        /* \"#utility.yul\":953:985   */\n      tag_250\n        /* \"#utility.yul\":979:984   */\n      dup2\n        /* \"#utility.yul\":953:985   */\n      tag_247\n      jump\t// in\n    tag_250:\n        /* \"#utility.yul\":850:991   */\n      swap3\n      swap2\n      pop\n      pop\n      jump\t// out\n        /* \"#utility.yul\":1010:1348   */\n    tag_251:\n        /* \"#utility.yul\":1065:1070   */\n      0x00\n        /* \"#utility.yul\":1114:1117   */\n      dup3\n        /* \"#utility.yul\":1107:1111   */\n      0x1f\n        /* \"#utility.yul\":1099:1105   */\n      dup4\n        /* \"#utility.yul\":1095:1112   */\n      add\n        /* \"#utility.yul\":1091:1118   */\n      slt\n        /* \"#utility.yul\":1081:1203   */\n      tag_253\n      jumpi\n        /* \"#utility.yul\":1122:1201   */\n      tag_254\n      tag_255\n      jump\t// in\n    tag_254:\n        /* \"#utility.yul\":1081:1203   */\n    tag_253:\n        /* \"#utility.yul\":1239:1245   */\n      dup2\n        /* \"#utility.yul\":1226:1246   */\n      calldataload\n        /* \"#utility.yul\":1264:1342   */\n      tag_256\n        /* \"#utility.yul\":1338:1341   */\n      dup5\n        /* \"#utility.yul\":1330:1336   */\n      dup3\n        /* \"#utility.yul\":1323:1327   */\n      0x20\n        /* \"#utility.yul\":1315:1321   */\n      dup7\n        /* \"#utility.yul\":1311:1328   */\n      add\n        /* \"#utility.yul\":1264:1342   */\n      tag_225\n      jump\t// in\n    tag_256:\n        /* \"#utility.yul\":1255:1342   */\n      swap2\n      pop\n        /* \"#utility.yul\":1071:1348   */\n      pop\n        /* \"#utility.yul\":1010:1348   */\n      swap3\n      swap2\n      pop\n      pop\n      jump\t// out\n        /* \"#utility.yul\":1354:1493   */\n    tag_257:\n        /* \"#utility.yul\":1400:1405   */\n      0x00\n        /* \"#utility.yul\":1438:1444   */\n      dup2\n        /* \"#utility.yul\":1425:1445   */\n      calldataload\n        /* \"#utility.yul\":1416:1445   */\n      swap1\n      pop\n        /* \"#utility.yul\":1454:1487   */\n      tag_259\n        /* \"#utility.yul\":1481:1486   */\n      dup2\n        /* \"#utility.yul\":1454:1487   */\n      tag_260\n      jump\t// in\n    tag_259:\n        /* \"#utility.yul\":1354:1493   */\n      swap3\n      swap2\n      pop\n      pop\n      jump\t// out\n        /* \"#utility.yul\":1499:1828   */\n    tag_60:\n        /* \"#utility.yul\":1558:1564   */\n      0x00\n        /* \"#utility.yul\":1607:1609   */\n      0x20\n        /* \"#utility.yul\":1595:1604   */\n      dup3\n        /* \"#utility.yul\":1586:1593   */\n      dup5\n        /* \"#utility.yul\":1582:1605   */\n      sub\n        /* \"#utility.yul\":1578:1610   */\n      slt\n        /* \"#utility.yul\":1575:1694   */\n      iszero\n      tag_262\n      jumpi\n        /* \"#utility.yul\":1613:1692   */\n      tag_263\n      tag_264\n      jump\t// in\n    tag_263:\n        /* \"#utility.yul\":1575:1694   */\n    tag_262:\n        /* \"#utility.yul\":1733:1734   */\n      0x00\n        /* \"#utility.yul\":1758:1811   */\n      tag_265\n        /* \"#utility.yul\":1803:1810   */\n      dup5\n        /* \"#utility.yul\":1794:1800   */\n      dup3\n        /* \"#utility.yul\":1783:1792   */\n      dup6\n        /* \"#utility.yul\":1779:1801   */\n      add\n        /* \"#utility.yul\":1758:1811   */\n      tag_236\n      jump\t// in\n    tag_265:\n        /* \"#utility.yul\":1748:1811   */\n      swap2\n      pop\n        /* \"#utility.yul\":1704:1821   */\n      pop\n        /* \"#utility.yul\":1499:1828   */\n      swap3\n      swap2\n      pop\n      pop\n      jump\t// out\n        /* \"#utility.yul\":1834:2308   */\n    tag_81:\n        /* \"#utility.yul\":1902:1908   */\n      0x00\n        /* \"#utility.yul\":1910:1916   */\n      dup1\n        /* \"#utility.yul\":1959:1961   */\n      0x40\n        /* \"#utility.yul\":1947:1956   */\n      dup4\n        /* \"#utility.yul\":1938:1945   */\n      dup6\n        /* \"#utility.yul\":1934:1957   */\n      sub\n        /* \"#utility.yul\":1930:1962   */\n      slt\n        /* \"#utility.yul\":1927:2046   */\n      iszero\n      tag_267\n      jumpi\n        /* \"#utility.yul\":1965:2044   */\n      tag_268\n      tag_264\n      jump\t// in\n    tag_268:\n        /* \"#utility.yul\":1927:2046   */\n    tag_267:\n        /* \"#utility.yul\":2085:2086   */\n      0x00\n        /* \"#utility.yul\":2110:2163   */\n      tag_269\n        /* \"#utility.yul\":2155:2162   */\n      dup6\n        /* \"#utility.yul\":2146:2152   */\n      dup3\n        /* \"#utility.yul\":2135:2144   */\n      dup7\n        /* \"#utility.yul\":2131:2153   */\n      add\n        /* \"#utility.yul\":2110:2163   */\n      tag_236\n      jump\t// in\n    tag_269:\n        /* \"#utility.yul\":2100:2163   */\n      swap3\n      pop\n        /* \"#utility.yul\":2056:2173   */\n      pop\n        /* \"#utility.yul\":2212:2214   */\n      0x20\n        /* \"#utility.yul\":2238:2291   */\n      tag_270\n        /* \"#utility.yul\":2283:2290   */\n      dup6\n        /* \"#utility.yul\":2274:2280   */\n      dup3\n        /* \"#utility.yul\":2263:2272   */\n      dup7\n        /* \"#utility.yul\":2259:2281   */\n      add\n        /* \"#utility.yul\":2238:2291   */\n      tag_236\n      jump\t// in\n    tag_270:\n        /* \"#utility.yul\":2228:2291   */\n      swap2\n      pop\n        /* \"#utility.yul\":2183:2301   */\n      pop\n        /* \"#utility.yul\":1834:2308   */\n      swap3\n      pop\n      swap3\n      swap1\n      pop\n      jump\t// out\n        /* \"#utility.yul\":2314:2933   */\n    tag_43:\n        /* \"#utility.yul\":2391:2397   */\n      0x00\n        /* \"#utility.yul\":2399:2405   */\n      dup1\n        /* \"#utility.yul\":2407:2413   */\n      0x00\n        /* \"#utility.yul\":2456:2458   */\n      0x60\n        /* \"#utility.yul\":2444:2453   */\n      dup5\n        /* \"#utility.yul\":2435:2442   */\n      dup7\n        /* \"#utility.yul\":2431:2454   */\n      sub\n        /* \"#utility.yul\":2427:2459   */\n      slt\n        /* \"#utility.yul\":2424:2543   */\n      iszero\n      tag_272\n      jumpi\n        /* \"#utility.yul\":2462:2541   */\n      tag_273\n      tag_264\n      jump\t// in\n    tag_273:\n        /* \"#utility.yul\":2424:2543   */\n    tag_272:\n        /* \"#utility.yul\":2582:2583   */\n      0x00\n        /* \"#utility.yul\":2607:2660   */\n      tag_274\n        /* \"#utility.yul\":2652:2659   */\n      dup7\n        /* \"#utility.yul\":2643:2649   */\n      dup3\n        /* \"#utility.yul\":2632:2641   */\n      dup8\n        /* \"#utility.yul\":2628:2650   */\n      add\n        /* \"#utility.yul\":2607:2660   */\n      tag_236\n      jump\t// in\n    tag_274:\n        /* \"#utility.yul\":2597:2660   */\n      swap4\n      pop\n        /* \"#utility.yul\":2553:2670   */\n      pop\n        /* \"#utility.yul\":2709:2711   */\n      0x20\n        /* \"#utility.yul\":2735:2788   */\n      tag_275\n        /* \"#utility.yul\":2780:2787   */\n      dup7\n        /* \"#utility.yul\":2771:2777   */\n      dup3\n        /* \"#utility.yul\":2760:2769   */\n      dup8\n        /* \"#utility.yul\":2756:2778   */\n      add\n        /* \"#utility.yul\":2735:2788   */\n      tag_236\n      jump\t// in\n    tag_275:\n        /* \"#utility.yul\":2725:2788   */\n      swap3\n      pop\n        /* \"#utility.yul\":2680:2798   */\n      pop\n        /* \"#utility.yul\":2837:2839   */\n      0x40\n        /* \"#utility.yul\":2863:2916   */\n      tag_276\n        /* \"#utility.yul\":2908:2915   */\n      dup7\n        /* \"#utility.yul\":2899:2905   */\n      dup3\n        /* \"#utility.yul\":2888:2897   */\n      dup8\n        /* \"#utility.yul\":2884:2906   */\n      add\n        /* \"#utility.yul\":2863:2916   */\n      tag_257\n      jump\t// in\n    tag_276:\n        /* \"#utility.yul\":2853:2916   */\n      swap2\n      pop\n        /* \"#utility.yul\":2808:2926   */\n      pop\n        /* \"#utility.yul\":2314:2933   */\n      swap3\n      pop\n      swap3\n      pop\n      swap3\n      jump\t// out\n        /* \"#utility.yul\":2939:3882   */\n    tag_73:\n        /* \"#utility.yul\":3034:3040   */\n      0x00\n        /* \"#utility.yul\":3042:3048   */\n      dup1\n        /* \"#utility.yul\":3050:3056   */\n      0x00\n        /* \"#utility.yul\":3058:3064   */\n      dup1\n        /* \"#utility.yul\":3107:3110   */\n      0x80\n        /* \"#utility.yul\":3095:3104   */\n      dup6\n        /* \"#utility.yul\":3086:3093   */\n      dup8\n        /* \"#utility.yul\":3082:3105   */\n      sub\n        /* \"#utility.yul\":3078:3111   */\n      slt\n        /* \"#utility.yul\":3075:3195   */\n      iszero\n      tag_278\n      jumpi\n        /* \"#utility.yul\":3114:3193   */\n      tag_279\n      tag_264\n      jump\t// in\n    tag_279:\n        /* \"#utility.yul\":3075:3195   */\n    tag_278:\n        /* \"#utility.yul\":3234:3235   */\n      0x00\n        /* \"#utility.yul\":3259:3312   */\n      tag_280\n        /* \"#utility.yul\":3304:3311   */\n      dup8\n        /* \"#utility.yul\":3295:3301   */\n      dup3\n        /* \"#utility.yul\":3284:3293   */\n      dup9\n        /* \"#utility.yul\":3280:3302   */\n      add\n        /* \"#utility.yul\":3259:3312   */\n      tag_236\n      jump\t// in\n    tag_280:\n        /* \"#utility.yul\":3249:3312   */\n      swap5\n      pop\n        /* \"#utility.yul\":3205:3322   */\n      pop\n        /* \"#utility.yul\":3361:3363   */\n      0x20\n        /* \"#utility.yul\":3387:3440   */\n      tag_281\n        /* \"#utility.yul\":3432:3439   */\n      dup8\n        /* \"#utility.yul\":3423:3429   */\n      dup3\n        /* \"#utility.yul\":3412:3421   */\n      dup9\n        /* \"#utility.yul\":3408:3430   */\n      add\n        /* \"#utility.yul\":3387:3440   */\n      tag_236\n      jump\t// in\n    tag_281:\n        /* \"#utility.yul\":3377:3440   */\n      swap4\n      pop\n        /* \"#utility.yul\":3332:3450   */\n      pop\n        /* \"#utility.yul\":3489:3491   */\n      0x40\n        /* \"#utility.yul\":3515:3568   */\n      tag_282\n        /* \"#utility.yul\":3560:3567   */\n      dup8\n        /* \"#utility.yul\":3551:3557   */\n      dup3\n        /* \"#utility.yul\":3540:3549   */\n      dup9\n        /* \"#utility.yul\":3536:3558   */\n      add\n        /* \"#utility.yul\":3515:3568   */\n      tag_257\n      jump\t// in\n    tag_282:\n        /* \"#utility.yul\":3505:3568   */\n      swap3\n      pop\n        /* \"#utility.yul\":3460:3578   */\n      pop\n        /* \"#utility.yul\":3645:3647   */\n      0x60\n        /* \"#utility.yul\":3634:3643   */\n      dup6\n        /* \"#utility.yul\":3630:3648   */\n      add\n        /* \"#utility.yul\":3617:3649   */\n      calldataload\n        /* \"#utility.yul\":3676:3694   */\n      0xffffffffffffffff\n        /* \"#utility.yul\":3668:3674   */\n      dup2\n        /* \"#utility.yul\":3665:3695   */\n      gt\n        /* \"#utility.yul\":3662:3779   */\n      iszero\n      tag_283\n      jumpi\n        /* \"#utility.yul\":3698:3777   */\n      tag_284\n      tag_285\n      jump\t// in\n    tag_284:\n        /* \"#utility.yul\":3662:3779   */\n    tag_283:\n        /* \"#utility.yul\":3803:3865   */\n      tag_286\n        /* \"#utility.yul\":3857:3864   */\n      dup8\n        /* \"#utility.yul\":3848:3854   */\n      dup3\n        /* \"#utility.yul\":3837:3846   */\n      dup9\n        /* \"#utility.yul\":3833:3855   */\n      add\n        /* \"#utility.yul\":3803:3865   */\n      tag_251\n      jump\t// in\n    tag_286:\n        /* \"#utility.yul\":3793:3865   */\n      swap2\n      pop\n        /* \"#utility.yul\":3588:3875   */\n      pop\n        /* \"#utility.yul\":2939:3882   */\n      swap3\n      swap6\n      swap2\n      swap5\n      pop\n      swap3\n      pop\n      jump\t// out\n        /* \"#utility.yul\":3888:4356   */\n    tag_69:\n        /* \"#utility.yul\":3953:3959   */\n      0x00\n        /* \"#utility.yul\":3961:3967   */\n      dup1\n        /* \"#utility.yul\":4010:4012   */\n      0x40\n        /* \"#utility.yul\":3998:4007   */\n      dup4\n        /* \"#utility.yul\":3989:3996   */\n      dup6\n        /* \"#utility.yul\":3985:4008   */\n      sub\n        /* \"#utility.yul\":3981:4013   */\n      slt\n        /* \"#utility.yul\":3978:4097   */\n      iszero\n      tag_288\n      jumpi\n        /* \"#utility.yul\":4016:4095   */\n      tag_289\n      tag_264\n      jump\t// in\n    tag_289:\n        /* \"#utility.yul\":3978:4097   */\n    tag_288:\n        /* \"#utility.yul\":4136:4137   */\n      0x00\n        /* \"#utility.yul\":4161:4214   */\n      tag_290\n        /* \"#utility.yul\":4206:4213   */\n      dup6\n        /* \"#utility.yul\":4197:4203   */\n      dup3\n        /* \"#utility.yul\":4186:4195   */\n      dup7\n        /* \"#utility.yul\":4182:4204   */\n      add\n        /* \"#utility.yul\":4161:4214   */\n      tag_236\n      jump\t// in\n    tag_290:\n        /* \"#utility.yul\":4151:4214   */\n      swap3\n      pop\n        /* \"#utility.yul\":4107:4224   */\n      pop\n        /* \"#utility.yul\":4263:4265   */\n      0x20\n        /* \"#utility.yul\":4289:4339   */\n      tag_291\n        /* \"#utility.yul\":4331:4338   */\n      dup6\n        /* \"#utility.yul\":4322:4328   */\n      dup3\n        /* \"#utility.yul\":4311:4320   */\n      dup7\n        /* \"#utility.yul\":4307:4329   */\n      add\n        /* \"#utility.yul\":4289:4339   */\n      tag_240\n      jump\t// in\n    tag_291:\n        /* \"#utility.yul\":4279:4339   */\n      swap2\n      pop\n        /* \"#utility.yul\":4234:4349   */\n      pop\n        /* \"#utility.yul\":3888:4356   */\n      swap3\n      pop\n      swap3\n      swap1\n      pop\n      jump\t// out\n        /* \"#utility.yul\":4362:4836   */\n    tag_39:\n        /* \"#utility.yul\":4430:4436   */\n      0x00\n        /* \"#utility.yul\":4438:4444   */\n      dup1\n        /* \"#utility.yul\":4487:4489   */\n      0x40\n        /* \"#utility.yul\":4475:4484   */\n      dup4\n        /* \"#utility.yul\":4466:4473   */\n      dup6\n        /* \"#utility.yul\":4462:4485   */\n      sub\n        /* \"#utility.yul\":4458:4490   */\n      slt\n        /* \"#utility.yul\":4455:4574   */\n      iszero\n      tag_293\n      jumpi\n        /* \"#utility.yul\":4493:4572   */\n      tag_294\n      tag_264\n      jump\t// in\n    tag_294:\n        /* \"#utility.yul\":4455:4574   */\n    tag_293:\n        /* \"#utility.yul\":4613:4614   */\n      0x00\n        /* \"#utility.yul\":4638:4691   */\n      tag_295\n        /* \"#utility.yul\":4683:4690   */\n      dup6\n        /* \"#utility.yul\":4674:4680   */\n      dup3\n        /* \"#utility.yul\":4663:4672   */\n      dup7\n        /* \"#utility.yul\":4659:4681   */\n      add\n        /* \"#utility.yul\":4638:4691   */\n      tag_236\n      jump\t// in\n    tag_295:\n        /* \"#utility.yul\":4628:4691   */\n      swap3\n      pop\n        /* \"#utility.yul\":4584:4701   */\n      pop\n        /* \"#utility.yul\":4740:4742   */\n      0x20\n        /* \"#utility.yul\":4766:4819   */\n      tag_296\n        /* \"#utility.yul\":4811:4818   */\n      dup6\n        /* \"#utility.yul\":4802:4808   */\n      dup3\n        /* \"#utility.yul\":4791:4800   */\n      dup7\n        /* \"#utility.yul\":4787:4809   */\n      add\n        /* \"#utility.yul\":4766:4819   */\n      tag_257\n      jump\t// in\n    tag_296:\n        /* \"#utility.yul\":4756:4819   */\n      swap2\n      pop\n        /* \"#utility.yul\":4711:4829   */\n      pop\n        /* \"#utility.yul\":4362:4836   */\n      swap3\n      pop\n      swap3\n      swap1\n      pop\n      jump\t// out\n        /* \"#utility.yul\":4842:5169   */\n    tag_23:\n        /* \"#utility.yul\":4900:4906   */\n      0x00\n        /* \"#utility.yul\":4949:4951   */\n      0x20\n        /* \"#utility.yul\":4937:4946   */\n      dup3\n        /* \"#utility.yul\":4928:4935   */\n      dup5\n        /* \"#utility.yul\":4924:4947   */\n      sub\n        /* \"#utility.yul\":4920:4952   */\n      slt\n        /* \"#utility.yul\":4917:5036   */\n      iszero\n      tag_298\n      jumpi\n        /* \"#utility.yul\":4955:5034   */\n      tag_299\n      tag_264\n      jump\t// in\n    tag_299:\n        /* \"#utility.yul\":4917:5036   */\n    tag_298:\n        /* \"#utility.yul\":5075:5076   */\n      0x00\n        /* \"#utility.yul\":5100:5152   */\n      tag_300\n        /* \"#utility.yul\":5144:5151   */\n      dup5\n        /* \"#utility.yul\":5135:5141   */\n      dup3\n        /* \"#utility.yul\":5124:5133   */\n      dup6\n        /* \"#utility.yul\":5120:5142   */\n      add\n        /* \"#utility.yul\":5100:5152   */\n      tag_244\n      jump\t// in\n    tag_300:\n        /* \"#utility.yul\":5090:5152   */\n      swap2\n      pop\n        /* \"#utility.yul\":5046:5162   */\n      pop\n        /* \"#utility.yul\":4842:5169   */\n      swap3\n      swap2\n      pop\n      pop\n      jump\t// out\n        /* \"#utility.yul\":5175:5524   */\n    tag_223:\n        /* \"#utility.yul\":5244:5250   */\n      0x00\n        /* \"#utility.yul\":5293:5295   */\n      0x20\n        /* \"#utility.yul\":5281:5290   */\n      dup3\n        /* \"#utility.yul\":5272:5279   */\n      dup5\n        /* \"#utility.yul\":5268:5291   */\n      sub\n        /* \"#utility.yul\":5264:5296   */\n      slt\n        /* \"#utility.yul\":5261:5380   */\n      iszero\n      tag_302\n      jumpi\n        /* \"#utility.yul\":5299:5378   */\n      tag_303\n      tag_264\n      jump\t// in\n    tag_303:\n        /* \"#utility.yul\":5261:5380   */\n    tag_302:\n        /* \"#utility.yul\":5419:5420   */\n      0x00\n        /* \"#utility.yul\":5444:5507   */\n      tag_304\n        /* \"#utility.yul\":5499:5506   */\n      dup5\n        /* \"#utility.yul\":5490:5496   */\n      dup3\n        /* \"#utility.yul\":5479:5488   */\n      dup6\n        /* \"#utility.yul\":5475:5497   */\n      add\n        /* \"#utility.yul\":5444:5507   */\n      tag_248\n      jump\t// in\n    tag_304:\n        /* \"#utility.yul\":5434:5507   */\n      swap2\n      pop\n        /* \"#utility.yul\":5390:5517   */\n      pop\n        /* \"#utility.yul\":5175:5524   */\n      swap3\n      swap2\n      pop\n      pop\n      jump\t// out\n        /* \"#utility.yul\":5530:5859   */\n    tag_33:\n        /* \"#utility.yul\":5589:5595   */\n      0x00\n        /* \"#utility.yul\":5638:5640   */\n      0x20\n        /* \"#utility.yul\":5626:5635   */\n      dup3\n        /* \"#utility.yul\":5617:5624   */\n      dup5\n        /* \"#utility.yul\":5613:5636   */\n      sub\n        /* \"#utility.yul\":5609:5641   */\n      slt\n        /* \"#utility.yul\":5606:5725   */\n      iszero\n      tag_306\n      jumpi\n        /* \"#utility.yul\":5644:5723   */\n      tag_307\n      tag_264\n      jump\t// in\n    tag_307:\n        /* \"#utility.yul\":5606:5725   */\n    tag_306:\n        /* \"#utility.yul\":5764:5765   */\n      0x00\n        /* \"#utility.yul\":5789:5842   */\n      tag_308\n        /* \"#utility.yul\":5834:5841   */\n      dup5\n        /* \"#utility.yul\":5825:5831   */\n      dup3\n        /* \"#utility.yul\":5814:5823   */\n      dup6\n        /* \"#utility.yul\":5810:5832   */\n      add\n        /* \"#utility.yul\":5789:5842   */\n      tag_257\n      jump\t// in\n    tag_308:\n        /* \"#utility.yul\":5779:5842   */\n      swap2\n      pop\n        /* \"#utility.yul\":5735:5852   */\n      pop\n        /* \"#utility.yul\":5530:5859   */\n      swap3\n      swap2\n      pop\n      pop\n      jump\t// out\n        /* \"#utility.yul\":5865:5983   */\n    tag_309:\n        /* \"#utility.yul\":5952:5976   */\n      tag_311\n        /* \"#utility.yul\":5970:5975   */\n      dup2\n        /* \"#utility.yul\":5952:5976   */\n      tag_312\n      jump\t// in\n    tag_311:\n        /* \"#utility.yul\":5947:5950   */\n      dup3\n        /* \"#utility.yul\":5940:5977   */\n      mstore\n        /* \"#utility.yul\":5865:5983   */\n      pop\n      pop\n      jump\t// out\n        /* \"#utility.yul\":5989:6098   */\n    tag_313:\n        /* \"#utility.yul\":6070:6091   */\n      tag_315\n        /* \"#utility.yul\":6085:6090   */\n      dup2\n        /* \"#utility.yul\":6070:6091   */\n      tag_316\n      jump\t// in\n    tag_315:\n        /* \"#utility.yul\":6065:6068   */\n      dup3\n        /* \"#utility.yul\":6058:6092   */\n      mstore\n        /* \"#utility.yul\":5989:6098   */\n      pop\n      pop\n      jump\t// out\n        /* \"#utility.yul\":6104:6464   */\n    tag_317:\n        /* \"#utility.yul\":6190:6193   */\n      0x00\n        /* \"#utility.yul\":6218:6256   */\n      tag_319\n        /* \"#utility.yul\":6250:6255   */\n      dup3\n        /* \"#utility.yul\":6218:6256   */\n      tag_320\n      jump\t// in\n    tag_319:\n        /* \"#utility.yul\":6272:6342   */\n      tag_321\n        /* \"#utility.yul\":6335:6341   */\n      dup2\n        /* \"#utility.yul\":6330:6333   */\n      dup6\n        /* \"#utility.yul\":6272:6342   */\n      tag_322\n      jump\t// in\n    tag_321:\n        /* \"#utility.yul\":6265:6342   */\n      swap4\n      pop\n        /* \"#utility.yul\":6351:6403   */\n      tag_323\n        /* \"#utility.yul\":6396:6402   */\n      dup2\n        /* \"#utility.yul\":6391:6394   */\n      dup6\n        /* \"#utility.yul\":6384:6388   */\n      0x20\n        /* \"#utility.yul\":6377:6382   */\n      dup7\n        /* \"#utility.yul\":6373:6389   */\n      add\n        /* \"#utility.yul\":6351:6403   */\n      tag_324\n      jump\t// in\n    tag_323:\n        /* \"#utility.yul\":6428:6457   */\n      tag_325\n        /* \"#utility.yul\":6450:6456   */\n      dup2\n        /* \"#utility.yul\":6428:6457   */\n      tag_326\n      jump\t// in\n    tag_325:\n        /* \"#utility.yul\":6423:6426   */\n      dup5\n        /* \"#utility.yul\":6419:6458   */\n      add\n        /* \"#utility.yul\":6412:6458   */\n      swap2\n      pop\n        /* \"#utility.yul\":6194:6464   */\n      pop\n        /* \"#utility.yul\":6104:6464   */\n      swap3\n      swap2\n      pop\n      pop\n      jump\t// out\n        /* \"#utility.yul\":6470:6834   */\n    tag_327:\n        /* \"#utility.yul\":6558:6561   */\n      0x00\n        /* \"#utility.yul\":6586:6625   */\n      tag_329\n        /* \"#utility.yul\":6619:6624   */\n      dup3\n        /* \"#utility.yul\":6586:6625   */\n      tag_330\n      jump\t// in\n    tag_329:\n        /* \"#utility.yul\":6641:6712   */\n      tag_331\n        /* \"#utility.yul\":6705:6711   */\n      dup2\n        /* \"#utility.yul\":6700:6703   */\n      dup6\n        /* \"#utility.yul\":6641:6712   */\n      tag_332\n      jump\t// in\n    tag_331:\n        /* \"#utility.yul\":6634:6712   */\n      swap4\n      pop\n        /* \"#utility.yul\":6721:6773   */\n      tag_333\n        /* \"#utility.yul\":6766:6772   */\n      dup2\n        /* \"#utility.yul\":6761:6764   */\n      dup6\n        /* \"#utility.yul\":6754:6758   */\n      0x20\n        /* \"#utility.yul\":6747:6752   */\n      dup7\n        /* \"#utility.yul\":6743:6759   */\n      add\n        /* \"#utility.yul\":6721:6773   */\n      tag_324\n      jump\t// in\n    tag_333:\n        /* \"#utility.yul\":6798:6827   */\n      tag_334\n        /* \"#utility.yul\":6820:6826   */\n      dup2\n        /* \"#utility.yul\":6798:6827   */\n      tag_326\n      jump\t// in\n    tag_334:\n        /* \"#utility.yul\":6793:6796   */\n      dup5\n        /* \"#utility.yul\":6789:6828   */\n      add\n        /* \"#utility.yul\":6782:6828   */\n      swap2\n      pop\n        /* \"#utility.yul\":6562:6834   */\n      pop\n        /* \"#utility.yul\":6470:6834   */\n      swap3\n      swap2\n      pop\n      pop\n      jump\t// out\n        /* \"#utility.yul\":6840:7217   */\n    tag_335:\n        /* \"#utility.yul\":6946:6949   */\n      0x00\n        /* \"#utility.yul\":6974:7013   */\n      tag_337\n        /* \"#utility.yul\":7007:7012   */\n      dup3\n        /* \"#utility.yul\":6974:7013   */\n      tag_330\n      jump\t// in\n    tag_337:\n        /* \"#utility.yul\":7029:7118   */\n      tag_338\n        /* \"#utility.yul\":7111:7117   */\n      dup2\n        /* \"#utility.yul\":7106:7109   */\n      dup6\n        /* \"#utility.yul\":7029:7118   */\n      tag_339\n      jump\t// in\n    tag_338:\n        /* \"#utility.yul\":7022:7118   */\n      swap4\n      pop\n        /* \"#utility.yul\":7127:7179   */\n      tag_340\n        /* \"#utility.yul\":7172:7178   */\n      dup2\n        /* \"#utility.yul\":7167:7170   */\n      dup6\n        /* \"#utility.yul\":7160:7164   */\n      0x20\n        /* \"#utility.yul\":7153:7158   */\n      dup7\n        /* \"#utility.yul\":7149:7165   */\n      add\n        /* \"#utility.yul\":7127:7179   */\n      tag_324\n      jump\t// in\n    tag_340:\n        /* \"#utility.yul\":7204:7210   */\n      dup1\n        /* \"#utility.yul\":7199:7202   */\n      dup5\n        /* \"#utility.yul\":7195:7211   */\n      add\n        /* \"#utility.yul\":7188:7211   */\n      swap2\n      pop\n        /* \"#utility.yul\":6950:7217   */\n      pop\n        /* \"#utility.yul\":6840:7217   */\n      swap3\n      swap2\n      pop\n      pop\n      jump\t// out\n        /* \"#utility.yul\":7223:7589   */\n    tag_341:\n        /* \"#utility.yul\":7365:7368   */\n      0x00\n        /* \"#utility.yul\":7386:7453   */\n      tag_343\n        /* \"#utility.yul\":7450:7452   */\n      0x16\n        /* \"#utility.yul\":7445:7448   */\n      dup4\n        /* \"#utility.yul\":7386:7453   */\n      tag_332\n      jump\t// in\n    tag_343:\n        /* \"#utility.yul\":7379:7453   */\n      swap2\n      pop\n        /* \"#utility.yul\":7462:7555   */\n      tag_344\n        /* \"#utility.yul\":7551:7554   */\n      dup3\n        /* \"#utility.yul\":7462:7555   */\n      tag_345\n      jump\t// in\n    tag_344:\n        /* \"#utility.yul\":7580:7582   */\n      0x20\n        /* \"#utility.yul\":7575:7578   */\n      dup3\n        /* \"#utility.yul\":7571:7583   */\n      add\n        /* \"#utility.yul\":7564:7583   */\n      swap1\n      pop\n        /* \"#utility.yul\":7223:7589   */\n      swap2\n      swap1\n      pop\n      jump\t// out\n        /* \"#utility.yul\":7595:7961   */\n    tag_346:\n        /* \"#utility.yul\":7737:7740   */\n      0x00\n        /* \"#utility.yul\":7758:7825   */\n      tag_348\n        /* \"#utility.yul\":7822:7824   */\n      0x1c\n        /* \"#utility.yul\":7817:7820   */\n      dup4\n        /* \"#utility.yul\":7758:7825   */\n      tag_332\n      jump\t// in\n    tag_348:\n        /* \"#utility.yul\":7751:7825   */\n      swap2\n      pop\n        /* \"#utility.yul\":7834:7927   */\n      tag_349\n        /* \"#utility.yul\":7923:7926   */\n      dup3\n        /* \"#utility.yul\":7834:7927   */\n      tag_350\n      jump\t// in\n    tag_349:\n        /* \"#utility.yul\":7952:7954   */\n      0x20\n        /* \"#utility.yul\":7947:7950   */\n      dup3\n        /* \"#utility.yul\":7943:7955   */\n      add\n        /* \"#utility.yul\":7936:7955   */\n      swap1\n      pop\n        /* \"#utility.yul\":7595:7961   */\n      swap2\n      swap1\n      pop\n      jump\t// out\n        /* \"#utility.yul\":7967:8333   */\n    tag_351:\n        /* \"#utility.yul\":8109:8112   */\n      0x00\n        /* \"#utility.yul\":8130:8197   */\n      tag_353\n        /* \"#utility.yul\":8194:8196   */\n      0x1e\n        /* \"#utility.yul\":8189:8192   */\n      dup4\n        /* \"#utility.yul\":8130:8197   */\n      tag_332\n      jump\t// in\n    tag_353:\n        /* \"#utility.yul\":8123:8197   */\n      swap2\n      pop\n        /* \"#utility.yul\":8206:8299   */\n      tag_354\n        /* \"#utility.yul\":8295:8298   */\n      dup3\n        /* \"#utility.yul\":8206:8299   */\n      tag_355\n      jump\t// in\n    tag_354:\n        /* \"#utility.yul\":8324:8326   */\n      0x20\n        /* \"#utility.yul\":8319:8322   */\n      dup3\n        /* \"#utility.yul\":8315:8327   */\n      add\n        /* \"#utility.yul\":8308:8327   */\n      swap1\n      pop\n        /* \"#utility.yul\":7967:8333   */\n      swap2\n      swap1\n      pop\n      jump\t// out\n        /* \"#utility.yul\":8339:8705   */\n    tag_356:\n        /* \"#utility.yul\":8481:8484   */\n      0x00\n        /* \"#utility.yul\":8502:8569   */\n      tag_358\n        /* \"#utility.yul\":8566:8568   */\n      0x14\n        /* \"#utility.yul\":8561:8564   */\n      dup4\n        /* \"#utility.yul\":8502:8569   */\n      tag_332\n      jump\t// in\n    tag_358:\n        /* \"#utility.yul\":8495:8569   */\n      swap2\n      pop\n        /* \"#utility.yul\":8578:8671   */\n      tag_359\n        /* \"#utility.yul\":8667:8670   */\n      dup3\n        /* \"#utility.yul\":8578:8671   */\n      tag_360\n      jump\t// in\n    tag_359:\n        /* \"#utility.yul\":8696:8698   */\n      0x20\n        /* \"#utility.yul\":8691:8694   */\n      dup3\n        /* \"#utility.yul\":8687:8699   */\n      add\n        /* \"#utility.yul\":8680:8699   */\n      swap1\n      pop\n        /* \"#utility.yul\":8339:8705   */\n      swap2\n      swap1\n      pop\n      jump\t// out\n        /* \"#utility.yul\":8711:9077   */\n    tag_361:\n        /* \"#utility.yul\":8853:8856   */\n      0x00\n        /* \"#utility.yul\":8874:8941   */\n      tag_363\n        /* \"#utility.yul\":8938:8940   */\n      0x13\n        /* \"#utility.yul\":8933:8936   */\n      dup4\n        /* \"#utility.yul\":8874:8941   */\n      tag_332\n      jump\t// in\n    tag_363:\n        /* \"#utility.yul\":8867:8941   */\n      swap2\n      pop\n        /* \"#utility.yul\":8950:9043   */\n      tag_364\n        /* \"#utility.yul\":9039:9042   */\n      dup3\n        /* \"#utility.yul\":8950:9043   */\n      tag_365\n      jump\t// in\n    tag_364:\n        /* \"#utility.yul\":9068:9070   */\n      0x20\n        /* \"#utility.yul\":9063:9066   */\n      dup3\n        /* \"#utility.yul\":9059:9071   */\n      add\n        /* \"#utility.yul\":9052:9071   */\n      swap1\n      pop\n        /* \"#utility.yul\":8711:9077   */\n      swap2\n      swap1\n      pop\n      jump\t// out\n        /* \"#utility.yul\":9083:9449   */\n    tag_366:\n        /* \"#utility.yul\":9225:9228   */\n      0x00\n        /* \"#utility.yul\":9246:9313   */\n      tag_368\n        /* \"#utility.yul\":9310:9312   */\n      0x14\n        /* \"#utility.yul\":9305:9308   */\n      dup4\n        /* \"#utility.yul\":9246:9313   */\n      tag_332\n      jump\t// in\n    tag_368:\n        /* \"#utility.yul\":9239:9313   */\n      swap2\n      pop\n        /* \"#utility.yul\":9322:9415   */\n      tag_369\n        /* \"#utility.yul\":9411:9414   */\n      dup3\n        /* \"#utility.yul\":9322:9415   */\n      tag_370\n      jump\t// in\n    tag_369:\n        /* \"#utility.yul\":9440:9442   */\n      0x20\n        /* \"#utility.yul\":9435:9438   */\n      dup3\n        /* \"#utility.yul\":9431:9443   */\n      add\n        /* \"#utility.yul\":9424:9443   */\n      swap1\n      pop\n        /* \"#utility.yul\":9083:9449   */\n      swap2\n      swap1\n      pop\n      jump\t// out\n        /* \"#utility.yul\":9455:9821   */\n    tag_371:\n        /* \"#utility.yul\":9597:9600   */\n      0x00\n        /* \"#utility.yul\":9618:9685   */\n      tag_373\n        /* \"#utility.yul\":9682:9684   */\n      0x12\n        /* \"#utility.yul\":9677:9680   */\n      dup4\n        /* \"#utility.yul\":9618:9685   */\n      tag_332\n      jump\t// in\n    tag_373:\n        /* \"#utility.yul\":9611:9685   */\n      swap2\n      pop\n        /* \"#utility.yul\":9694:9787   */\n      tag_374\n        /* \"#utility.yul\":9783:9786   */\n      dup3\n        /* \"#utility.yul\":9694:9787   */\n      tag_375\n      jump\t// in\n    tag_374:\n        /* \"#utility.yul\":9812:9814   */\n      0x20\n        /* \"#utility.yul\":9807:9810   */\n      dup3\n        /* \"#utility.yul\":9803:9815   */\n      add\n        /* \"#utility.yul\":9796:9815   */\n      swap1\n      pop\n        /* \"#utility.yul\":9455:9821   */\n      swap2\n      swap1\n      pop\n      jump\t// out\n        /* \"#utility.yul\":9827:10193   */\n    tag_376:\n        /* \"#utility.yul\":9969:9972   */\n      0x00\n        /* \"#utility.yul\":9990:10057   */\n      tag_378\n        /* \"#utility.yul\":10054:10056   */\n      0x0f\n        /* \"#utility.yul\":10049:10052   */\n      dup4\n        /* \"#utility.yul\":9990:10057   */\n      tag_332\n      jump\t// in\n    tag_378:\n        /* \"#utility.yul\":9983:10057   */\n      swap2\n      pop\n        /* \"#utility.yul\":10066:10159   */\n      tag_379\n        /* \"#utility.yul\":10155:10158   */\n      dup3\n        /* \"#utility.yul\":10066:10159   */\n      tag_380\n      jump\t// in\n    tag_379:\n        /* \"#utility.yul\":10184:10186   */\n      0x20\n        /* \"#utility.yul\":10179:10182   */\n      dup3\n        /* \"#utility.yul\":10175:10187   */\n      add\n        /* \"#utility.yul\":10168:10187   */\n      swap1\n      pop\n        /* \"#utility.yul\":9827:10193   */\n      swap2\n      swap1\n      pop\n      jump\t// out\n        /* \"#utility.yul\":10199:10565   */\n    tag_381:\n        /* \"#utility.yul\":10341:10344   */\n      0x00\n        /* \"#utility.yul\":10362:10429   */\n      tag_383\n        /* \"#utility.yul\":10426:10428   */\n      0x14\n        /* \"#utility.yul\":10421:10424   */\n      dup4\n        /* \"#utility.yul\":10362:10429   */\n      tag_332\n      jump\t// in\n    tag_383:\n        /* \"#utility.yul\":10355:10429   */\n      swap2\n      pop\n        /* \"#utility.yul\":10438:10531   */\n      tag_384\n        /* \"#utility.yul\":10527:10530   */\n      dup3\n        /* \"#utility.yul\":10438:10531   */\n      tag_385\n      jump\t// in\n    tag_384:\n        /* \"#utility.yul\":10556:10558   */\n      0x20\n        /* \"#utility.yul\":10551:10554   */\n      dup3\n        /* \"#utility.yul\":10547:10559   */\n      add\n        /* \"#utility.yul\":10540:10559   */\n      swap1\n      pop\n        /* \"#utility.yul\":10199:10565   */\n      swap2\n      swap1\n      pop\n      jump\t// out\n        /* \"#utility.yul\":10571:10937   */\n    tag_386:\n        /* \"#utility.yul\":10713:10716   */\n      0x00\n        /* \"#utility.yul\":10734:10801   */\n      tag_388\n        /* \"#utility.yul\":10798:10800   */\n      0x12\n        /* \"#utility.yul\":10793:10796   */\n      dup4\n        /* \"#utility.yul\":10734:10801   */\n      tag_332\n      jump\t// in\n    tag_388:\n        /* \"#utility.yul\":10727:10801   */\n      swap2\n      pop\n        /* \"#utility.yul\":10810:10903   */\n      tag_389\n        /* \"#utility.yul\":10899:10902   */\n      dup3\n        /* \"#utility.yul\":10810:10903   */\n      tag_390\n      jump\t// in\n    tag_389:\n        /* \"#utility.yul\":10928:10930   */\n      0x20\n        /* \"#utility.yul\":10923:10926   */\n      dup3\n        /* \"#utility.yul\":10919:10931   */\n      add\n        /* \"#utility.yul\":10912:10931   */\n      swap1\n      pop\n        /* \"#utility.yul\":10571:10937   */\n      swap2\n      swap1\n      pop\n      jump\t// out\n        /* \"#utility.yul\":10943:11308   */\n    tag_391:\n        /* \"#utility.yul\":11085:11088   */\n      0x00\n        /* \"#utility.yul\":11106:11172   */\n      tag_393\n        /* \"#utility.yul\":11170:11171   */\n      0x09\n        /* \"#utility.yul\":11165:11168   */\n      dup4\n        /* \"#utility.yul\":11106:11172   */\n      tag_332\n      jump\t// in\n    tag_393:\n        /* \"#utility.yul\":11099:11172   */\n      swap2\n      pop\n        /* \"#utility.yul\":11181:11274   */\n      tag_394\n        /* \"#utility.yul\":11270:11273   */\n      dup3\n        /* \"#utility.yul\":11181:11274   */\n      tag_395\n      jump\t// in\n    tag_394:\n        /* \"#utility.yul\":11299:11301   */\n      0x20\n        /* \"#utility.yul\":11294:11297   */\n      dup3\n        /* \"#utility.yul\":11290:11302   */\n      add\n        /* \"#utility.yul\":11283:11302   */\n      swap1\n      pop\n        /* \"#utility.yul\":10943:11308   */\n      swap2\n      swap1\n      pop\n      jump\t// out\n        /* \"#utility.yul\":11314:11432   */\n    tag_396:\n        /* \"#utility.yul\":11401:11425   */\n      tag_398\n        /* \"#utility.yul\":11419:11424   */\n      dup2\n        /* \"#utility.yul\":11401:11425   */\n      tag_399\n      jump\t// in\n    tag_398:\n        /* \"#utility.yul\":11396:11399   */\n      dup3\n        /* \"#utility.yul\":11389:11426   */\n      mstore\n        /* \"#utility.yul\":11314:11432   */\n      pop\n      pop\n      jump\t// out\n        /* \"#utility.yul\":11438:11873   */\n    tag_153:\n        /* \"#utility.yul\":11618:11621   */\n      0x00\n        /* \"#utility.yul\":11640:11735   */\n      tag_401\n        /* \"#utility.yul\":11731:11734   */\n      dup3\n        /* \"#utility.yul\":11722:11728   */\n      dup6\n        /* \"#utility.yul\":11640:11735   */\n      tag_335\n      jump\t// in\n    tag_401:\n        /* \"#utility.yul\":11633:11735   */\n      swap2\n      pop\n        /* \"#utility.yul\":11752:11847   */\n      tag_402\n        /* \"#utility.yul\":11843:11846   */\n      dup3\n        /* \"#utility.yul\":11834:11840   */\n      dup5\n        /* \"#utility.yul\":11752:11847   */\n      tag_335\n      jump\t// in\n    tag_402:\n        /* \"#utility.yul\":11745:11847   */\n      swap2\n      pop\n        /* \"#utility.yul\":11864:11867   */\n      dup2\n        /* \"#utility.yul\":11857:11867   */\n      swap1\n      pop\n        /* \"#utility.yul\":11438:11873   */\n      swap4\n      swap3\n      pop\n      pop\n      pop\n      jump\t// out\n        /* \"#utility.yul\":11879:12101   */\n    tag_36:\n        /* \"#utility.yul\":11972:11976   */\n      0x00\n        /* \"#utility.yul\":12010:12012   */\n      0x20\n        /* \"#utility.yul\":11999:12008   */\n      dup3\n        /* \"#utility.yul\":11995:12013   */\n      add\n        /* \"#utility.yul\":11987:12013   */\n      swap1\n      pop\n        /* \"#utility.yul\":12023:12094   */\n      tag_404\n        /* \"#utility.yul\":12091:12092   */\n      0x00\n        /* \"#utility.yul\":12080:12089   */\n      dup4\n        /* \"#utility.yul\":12076:12093   */\n      add\n        /* \"#utility.yul\":12067:12073   */\n      dup5\n        /* \"#utility.yul\":12023:12094   */\n      tag_309\n      jump\t// in\n    tag_404:\n        /* \"#utility.yul\":11879:12101   */\n      swap3\n      swap2\n      pop\n      pop\n      jump\t// out\n        /* \"#utility.yul\":12107:12747   */\n    tag_218:\n        /* \"#utility.yul\":12302:12306   */\n      0x00\n        /* \"#utility.yul\":12340:12343   */\n      0x80\n        /* \"#utility.yul\":12329:12338   */\n      dup3\n        /* \"#utility.yul\":12325:12344   */\n      add\n        /* \"#utility.yul\":12317:12344   */\n      swap1\n      pop\n        /* \"#utility.yul\":12354:12425   */\n      tag_406\n        /* \"#utility.yul\":12422:12423   */\n      0x00\n        /* \"#utility.yul\":12411:12420   */\n      dup4\n        /* \"#utility.yul\":12407:12424   */\n      add\n        /* \"#utility.yul\":12398:12404   */\n      dup8\n        /* \"#utility.yul\":12354:12425   */\n      tag_309\n      jump\t// in\n    tag_406:\n        /* \"#utility.yul\":12435:12507   */\n      tag_407\n        /* \"#utility.yul\":12503:12505   */\n      0x20\n        /* \"#utility.yul\":12492:12501   */\n      dup4\n        /* \"#utility.yul\":12488:12506   */\n      add\n        /* \"#utility.yul\":12479:12485   */\n      dup7\n        /* \"#utility.yul\":12435:12507   */\n      tag_309\n      jump\t// in\n    tag_407:\n        /* \"#utility.yul\":12517:12589   */\n      tag_408\n        /* \"#utility.yul\":12585:12587   */\n      0x40\n        /* \"#utility.yul\":12574:12583   */\n      dup4\n        /* \"#utility.yul\":12570:12588   */\n      add\n        /* \"#utility.yul\":12561:12567   */\n      dup6\n        /* \"#utility.yul\":12517:12589   */\n      tag_396\n      jump\t// in\n    tag_408:\n        /* \"#utility.yul\":12636:12645   */\n      dup2\n        /* \"#utility.yul\":12630:12634   */\n      dup2\n        /* \"#utility.yul\":12626:12646   */\n      sub\n        /* \"#utility.yul\":12621:12623   */\n      0x60\n        /* \"#utility.yul\":12610:12619   */\n      dup4\n        /* \"#utility.yul\":12606:12624   */\n      add\n        /* \"#utility.yul\":12599:12647   */\n      mstore\n        /* \"#utility.yul\":12664:12740   */\n      tag_409\n        /* \"#utility.yul\":12735:12739   */\n      dup2\n        /* \"#utility.yul\":12726:12732   */\n      dup5\n        /* \"#utility.yul\":12664:12740   */\n      tag_317\n      jump\t// in\n    tag_409:\n        /* \"#utility.yul\":12656:12740   */\n      swap1\n      pop\n        /* \"#utility.yul\":12107:12747   */\n      swap6\n      swap5\n      pop\n      pop\n      pop\n      pop\n      pop\n      jump\t// out\n        /* \"#utility.yul\":12753:12963   */\n    tag_26:\n        /* \"#utility.yul\":12840:12844   */\n      0x00\n        /* \"#utility.yul\":12878:12880   */\n      0x20\n        /* \"#utility.yul\":12867:12876   */\n      dup3\n        /* \"#utility.yul\":12863:12881   */\n      add\n        /* \"#utility.yul\":12855:12881   */\n      swap1\n      pop\n        /* \"#utility.yul\":12891:12956   */\n      tag_411\n        /* \"#utility.yul\":12953:12954   */\n      0x00\n        /* \"#utility.yul\":12942:12951   */\n      dup4\n        /* \"#utility.yul\":12938:12955   */\n      add\n        /* \"#utility.yul\":12929:12935   */\n      dup5\n        /* \"#utility.yul\":12891:12956   */\n      tag_313\n      jump\t// in\n    tag_411:\n        /* \"#utility.yul\":12753:12963   */\n      swap3\n      swap2\n      pop\n      pop\n      jump\t// out\n        /* \"#utility.yul\":12969:13282   */\n    tag_30:\n        /* \"#utility.yul\":13082:13086   */\n      0x00\n        /* \"#utility.yul\":13120:13122   */\n      0x20\n        /* \"#utility.yul\":13109:13118   */\n      dup3\n        /* \"#utility.yul\":13105:13123   */\n      add\n        /* \"#utility.yul\":13097:13123   */\n      swap1\n      pop\n        /* \"#utility.yul\":13169:13178   */\n      dup2\n        /* \"#utility.yul\":13163:13167   */\n      dup2\n        /* \"#utility.yul\":13159:13179   */\n      sub\n        /* \"#utility.yul\":13155:13156   */\n      0x00\n        /* \"#utility.yul\":13144:13153   */\n      dup4\n        /* \"#utility.yul\":13140:13157   */\n      add\n        /* \"#utility.yul\":13133:13180   */\n      mstore\n        /* \"#utility.yul\":13197:13275   */\n      tag_413\n        /* \"#utility.yul\":13270:13274   */\n      dup2\n        /* \"#utility.yul\":13261:13267   */\n      dup5\n        /* \"#utility.yul\":13197:13275   */\n      tag_327\n      jump\t// in\n    tag_413:\n        /* \"#utility.yul\":13189:13275   */\n      swap1\n      pop\n        /* \"#utility.yul\":12969:13282   */\n      swap3\n      swap2\n      pop\n      pop\n      jump\t// out\n        /* \"#utility.yul\":13288:13707   */\n    tag_110:\n        /* \"#utility.yul\":13454:13458   */\n      0x00\n        /* \"#utility.yul\":13492:13494   */\n      0x20\n        /* \"#utility.yul\":13481:13490   */\n      dup3\n        /* \"#utility.yul\":13477:13495   */\n      add\n        /* \"#utility.yul\":13469:13495   */\n      swap1\n      pop\n        /* \"#utility.yul\":13541:13550   */\n      dup2\n        /* \"#utility.yul\":13535:13539   */\n      dup2\n        /* \"#utility.yul\":13531:13551   */\n      sub\n        /* \"#utility.yul\":13527:13528   */\n      0x00\n        /* \"#utility.yul\":13516:13525   */\n      dup4\n        /* \"#utility.yul\":13512:13529   */\n      add\n        /* \"#utility.yul\":13505:13552   */\n      mstore\n        /* \"#utility.yul\":13569:13700   */\n      tag_415\n        /* \"#utility.yul\":13695:13699   */\n      dup2\n        /* \"#utility.yul\":13569:13700   */\n      tag_341\n      jump\t// in\n    tag_415:\n        /* \"#utility.yul\":13561:13700   */\n      swap1\n      pop\n        /* \"#utility.yul\":13288:13707   */\n      swap2\n      swap1\n      pop\n      jump\t// out\n        /* \"#utility.yul\":13713:14132   */\n    tag_165:\n        /* \"#utility.yul\":13879:13883   */\n      0x00\n        /* \"#utility.yul\":13917:13919   */\n      0x20\n        /* \"#utility.yul\":13906:13915   */\n      dup3\n        /* \"#utility.yul\":13902:13920   */\n      add\n        /* \"#utility.yul\":13894:13920   */\n      swap1\n      pop\n        /* \"#utility.yul\":13966:13975   */\n      dup2\n        /* \"#utility.yul\":13960:13964   */\n      dup2\n        /* \"#utility.yul\":13956:13976   */\n      sub\n        /* \"#utility.yul\":13952:13953   */\n      0x00\n        /* \"#utility.yul\":13941:13950   */\n      dup4\n        /* \"#utility.yul\":13937:13954   */\n      add\n        /* \"#utility.yul\":13930:13977   */\n      mstore\n        /* \"#utility.yul\":13994:14125   */\n      tag_417\n        /* \"#utility.yul\":14120:14124   */\n      dup2\n        /* \"#utility.yul\":13994:14125   */\n      tag_346\n      jump\t// in\n    tag_417:\n        /* \"#utility.yul\":13986:14125   */\n      swap1\n      pop\n        /* \"#utility.yul\":13713:14132   */\n      swap2\n      swap1\n      pop\n      jump\t// out\n        /* \"#utility.yul\":14138:14557   */\n    tag_101:\n        /* \"#utility.yul\":14304:14308   */\n      0x00\n        /* \"#utility.yul\":14342:14344   */\n      0x20\n        /* \"#utility.yul\":14331:14340   */\n      dup3\n        /* \"#utility.yul\":14327:14345   */\n      add\n        /* \"#utility.yul\":14319:14345   */\n      swap1\n      pop\n        /* \"#utility.yul\":14391:14400   */\n      dup2\n        /* \"#utility.yul\":14385:14389   */\n      dup2\n        /* \"#utility.yul\":14381:14401   */\n      sub\n        /* \"#utility.yul\":14377:14378   */\n      0x00\n        /* \"#utility.yul\":14366:14375   */\n      dup4\n        /* \"#utility.yul\":14362:14379   */\n      add\n        /* \"#utility.yul\":14355:14402   */\n      mstore\n        /* \"#utility.yul\":14419:14550   */\n      tag_419\n        /* \"#utility.yul\":14545:14549   */\n      dup2\n        /* \"#utility.yul\":14419:14550   */\n      tag_351\n      jump\t// in\n    tag_419:\n        /* \"#utility.yul\":14411:14550   */\n      swap1\n      pop\n        /* \"#utility.yul\":14138:14557   */\n      swap2\n      swap1\n      pop\n      jump\t// out\n        /* \"#utility.yul\":14563:14982   */\n    tag_174:\n        /* \"#utility.yul\":14729:14733   */\n      0x00\n        /* \"#utility.yul\":14767:14769   */\n      0x20\n        /* \"#utility.yul\":14756:14765   */\n      dup3\n        /* \"#utility.yul\":14752:14770   */\n      add\n        /* \"#utility.yul\":14744:14770   */\n      swap1\n      pop\n        /* \"#utility.yul\":14816:14825   */\n      dup2\n        /* \"#utility.yul\":14810:14814   */\n      dup2\n        /* \"#utility.yul\":14806:14826   */\n      sub\n        /* \"#utility.yul\":14802:14803   */\n      0x00\n        /* \"#utility.yul\":14791:14800   */\n      dup4\n        /* \"#utility.yul\":14787:14804   */\n      add\n        /* \"#utility.yul\":14780:14827   */\n      mstore\n        /* \"#utility.yul\":14844:14975   */\n      tag_421\n        /* \"#utility.yul\":14970:14974   */\n      dup2\n        /* \"#utility.yul\":14844:14975   */\n      tag_356\n      jump\t// in\n    tag_421:\n        /* \"#utility.yul\":14836:14975   */\n      swap1\n      pop\n        /* \"#utility.yul\":14563:14982   */\n      swap2\n      swap1\n      pop\n      jump\t// out\n        /* \"#utility.yul\":14988:15407   */\n    tag_96:\n        /* \"#utility.yul\":15154:15158   */\n      0x00\n        /* \"#utility.yul\":15192:15194   */\n      0x20\n        /* \"#utility.yul\":15181:15190   */\n      dup3\n        /* \"#utility.yul\":15177:15195   */\n      add\n        /* \"#utility.yul\":15169:15195   */\n      swap1\n      pop\n        /* \"#utility.yul\":15241:15250   */\n      dup2\n        /* \"#utility.yul\":15235:15239   */\n      dup2\n        /* \"#utility.yul\":15231:15251   */\n      sub\n        /* \"#utility.yul\":15227:15228   */\n      0x00\n        /* \"#utility.yul\":15216:15225   */\n      dup4\n        /* \"#utility.yul\":15212:15229   */\n      add\n        /* \"#utility.yul\":15205:15252   */\n      mstore\n        /* \"#utility.yul\":15269:15400   */\n      tag_423\n        /* \"#utility.yul\":15395:15399   */\n      dup2\n        /* \"#utility.yul\":15269:15400   */\n      tag_361\n      jump\t// in\n    tag_423:\n        /* \"#utility.yul\":15261:15400   */\n      swap1\n      pop\n        /* \"#utility.yul\":14988:15407   */\n      swap2\n      swap1\n      pop\n      jump\t// out\n        /* \"#utility.yul\":15413:15832   */\n    tag_127:\n        /* \"#utility.yul\":15579:15583   */\n      0x00\n        /* \"#utility.yul\":15617:15619   */\n      0x20\n        /* \"#utility.yul\":15606:15615   */\n      dup3\n        /* \"#utility.yul\":15602:15620   */\n      add\n        /* \"#utility.yul\":15594:15620   */\n      swap1\n      pop\n        /* \"#utility.yul\":15666:15675   */\n      dup2\n        /* \"#utility.yul\":15660:15664   */\n      dup2\n        /* \"#utility.yul\":15656:15676   */\n      sub\n        /* \"#utility.yul\":15652:15653   */\n      0x00\n        /* \"#utility.yul\":15641:15650   */\n      dup4\n        /* \"#utility.yul\":15637:15654   */\n      add\n        /* \"#utility.yul\":15630:15677   */\n      mstore\n        /* \"#utility.yul\":15694:15825   */\n      tag_425\n        /* \"#utility.yul\":15820:15824   */\n      dup2\n        /* \"#utility.yul\":15694:15825   */\n      tag_366\n      jump\t// in\n    tag_425:\n        /* \"#utility.yul\":15686:15825   */\n      swap1\n      pop\n        /* \"#utility.yul\":15413:15832   */\n      swap2\n      swap1\n      pop\n      jump\t// out\n        /* \"#utility.yul\":15838:16257   */\n    tag_183:\n        /* \"#utility.yul\":16004:16008   */\n      0x00\n        /* \"#utility.yul\":16042:16044   */\n      0x20\n        /* \"#utility.yul\":16031:16040   */\n      dup3\n        /* \"#utility.yul\":16027:16045   */\n      add\n        /* \"#utility.yul\":16019:16045   */\n      swap1\n      pop\n        /* \"#utility.yul\":16091:16100   */\n      dup2\n        /* \"#utility.yul\":16085:16089   */\n      dup2\n        /* \"#utility.yul\":16081:16101   */\n      sub\n        /* \"#utility.yul\":16077:16078   */\n      0x00\n        /* \"#utility.yul\":16066:16075   */\n      dup4\n        /* \"#utility.yul\":16062:16079   */\n      add\n        /* \"#utility.yul\":16055:16102   */\n      mstore\n        /* \"#utility.yul\":16119:16250   */\n      tag_427\n        /* \"#utility.yul\":16245:16249   */\n      dup2\n        /* \"#utility.yul\":16119:16250   */\n      tag_371\n      jump\t// in\n    tag_427:\n        /* \"#utility.yul\":16111:16250   */\n      swap1\n      pop\n        /* \"#utility.yul\":15838:16257   */\n      swap2\n      swap1\n      pop\n      jump\t// out\n        /* \"#utility.yul\":16263:16682   */\n    tag_145:\n        /* \"#utility.yul\":16429:16433   */\n      0x00\n        /* \"#utility.yul\":16467:16469   */\n      0x20\n        /* \"#utility.yul\":16456:16465   */\n      dup3\n        /* \"#utility.yul\":16452:16470   */\n      add\n        /* \"#utility.yul\":16444:16470   */\n      swap1\n      pop\n        /* \"#utility.yul\":16516:16525   */\n      dup2\n        /* \"#utility.yul\":16510:16514   */\n      dup2\n        /* \"#utility.yul\":16506:16526   */\n      sub\n        /* \"#utility.yul\":16502:16503   */\n      0x00\n        /* \"#utility.yul\":16491:16500   */\n      dup4\n        /* \"#utility.yul\":16487:16504   */\n      add\n        /* \"#utility.yul\":16480:16527   */\n      mstore\n        /* \"#utility.yul\":16544:16675   */\n      tag_429\n        /* \"#utility.yul\":16670:16674   */\n      dup2\n        /* \"#utility.yul\":16544:16675   */\n      tag_376\n      jump\t// in\n    tag_429:\n        /* \"#utility.yul\":16536:16675   */\n      swap1\n      pop\n        /* \"#utility.yul\":16263:16682   */\n      swap2\n      swap1\n      pop\n      jump\t// out\n        /* \"#utility.yul\":16688:17107   */\n    tag_177:\n        /* \"#utility.yul\":16854:16858   */\n      0x00\n        /* \"#utility.yul\":16892:16894   */\n      0x20\n        /* \"#utility.yul\":16881:16890   */\n      dup3\n        /* \"#utility.yul\":16877:16895   */\n      add\n        /* \"#utility.yul\":16869:16895   */\n      swap1\n      pop\n        /* \"#utility.yul\":16941:16950   */\n      dup2\n        /* \"#utility.yul\":16935:16939   */\n      dup2\n        /* \"#utility.yul\":16931:16951   */\n      sub\n        /* \"#utility.yul\":16927:16928   */\n      0x00\n        /* \"#utility.yul\":16916:16925   */\n      dup4\n        /* \"#utility.yul\":16912:16929   */\n      add\n        /* \"#utility.yul\":16905:16952   */\n      mstore\n        /* \"#utility.yul\":16969:17100   */\n      tag_431\n        /* \"#utility.yul\":17095:17099   */\n      dup2\n        /* \"#utility.yul\":16969:17100   */\n      tag_381\n      jump\t// in\n    tag_431:\n        /* \"#utility.yul\":16961:17100   */\n      swap1\n      pop\n        /* \"#utility.yul\":16688:17107   */\n      swap2\n      swap1\n      pop\n      jump\t// out\n        /* \"#utility.yul\":17113:17532   */\n    tag_192:\n        /* \"#utility.yul\":17279:17283   */\n      0x00\n        /* \"#utility.yul\":17317:17319   */\n      0x20\n        /* \"#utility.yul\":17306:17315   */\n      dup3\n        /* \"#utility.yul\":17302:17320   */\n      add\n        /* \"#utility.yul\":17294:17320   */\n      swap1\n      pop\n        /* \"#utility.yul\":17366:17375   */\n      dup2\n        /* \"#utility.yul\":17360:17364   */\n      dup2\n        /* \"#utility.yul\":17356:17376   */\n      sub\n        /* \"#utility.yul\":17352:17353   */\n      0x00\n        /* \"#utility.yul\":17341:17350   */\n      dup4\n        /* \"#utility.yul\":17337:17354   */\n      add\n        /* \"#utility.yul\":17330:17377   */\n      mstore\n        /* \"#utility.yul\":17394:17525   */\n      tag_433\n        /* \"#utility.yul\":17520:17524   */\n      dup2\n        /* \"#utility.yul\":17394:17525   */\n      tag_386\n      jump\t// in\n    tag_433:\n        /* \"#utility.yul\":17386:17525   */\n      swap1\n      pop\n        /* \"#utility.yul\":17113:17532   */\n      swap2\n      swap1\n      pop\n      jump\t// out\n        /* \"#utility.yul\":17538:17957   */\n    tag_162:\n        /* \"#utility.yul\":17704:17708   */\n      0x00\n        /* \"#utility.yul\":17742:17744   */\n      0x20\n        /* \"#utility.yul\":17731:17740   */\n      dup3\n        /* \"#utility.yul\":17727:17745   */\n      add\n        /* \"#utility.yul\":17719:17745   */\n      swap1\n      pop\n        /* \"#utility.yul\":17791:17800   */\n      dup2\n        /* \"#utility.yul\":17785:17789   */\n      dup2\n        /* \"#utility.yul\":17781:17801   */\n      sub\n        /* \"#utility.yul\":17777:17778   */\n      0x00\n        /* \"#utility.yul\":17766:17775   */\n      dup4\n        /* \"#utility.yul\":17762:17779   */\n      add\n        /* \"#utility.yul\":17755:17802   */\n      mstore\n        /* \"#utility.yul\":17819:17950   */\n      tag_435\n        /* \"#utility.yul\":17945:17949   */\n      dup2\n        /* \"#utility.yul\":17819:17950   */\n      tag_391\n      jump\t// in\n    tag_435:\n        /* \"#utility.yul\":17811:17950   */\n      swap1\n      pop\n        /* \"#utility.yul\":17538:17957   */\n      swap2\n      swap1\n      pop\n      jump\t// out\n        /* \"#utility.yul\":17963:18185   */\n    tag_63:\n        /* \"#utility.yul\":18056:18060   */\n      0x00\n        /* \"#utility.yul\":18094:18096   */\n      0x20\n        /* \"#utility.yul\":18083:18092   */\n      dup3\n        /* \"#utility.yul\":18079:18097   */\n      add\n        /* \"#utility.yul\":18071:18097   */\n      swap1\n      pop\n        /* \"#utility.yul\":18107:18178   */\n      tag_437\n        /* \"#utility.yul\":18175:18176   */\n      0x00\n        /* \"#utility.yul\":18164:18173   */\n      dup4\n        /* \"#utility.yul\":18160:18177   */\n      add\n        /* \"#utility.yul\":18151:18157   */\n      dup5\n        /* \"#utility.yul\":18107:18178   */\n      tag_396\n      jump\t// in\n    tag_437:\n        /* \"#utility.yul\":17963:18185   */\n      swap3\n      swap2\n      pop\n      pop\n      jump\t// out\n        /* \"#utility.yul\":18191:18320   */\n    tag_230:\n        /* \"#utility.yul\":18225:18231   */\n      0x00\n        /* \"#utility.yul\":18252:18272   */\n      tag_439\n      tag_440\n      jump\t// in\n    tag_439:\n        /* \"#utility.yul\":18242:18272   */\n      swap1\n      pop\n        /* \"#utility.yul\":18281:18314   */\n      tag_441\n        /* \"#utility.yul\":18309:18313   */\n      dup3\n        /* \"#utility.yul\":18301:18307   */\n      dup3\n        /* \"#utility.yul\":18281:18314   */\n      tag_442\n      jump\t// in\n    tag_441:\n        /* \"#utility.yul\":18191:18320   */\n      swap2\n      swap1\n      pop\n      jump\t// out\n        /* \"#utility.yul\":18326:18401   */\n    tag_440:\n        /* \"#utility.yul\":18359:18365   */\n      0x00\n        /* \"#utility.yul\":18392:18394   */\n      0x40\n        /* \"#utility.yul\":18386:18395   */\n      mload\n        /* \"#utility.yul\":18376:18395   */\n      swap1\n      pop\n        /* \"#utility.yul\":18326:18401   */\n      swap1\n      jump\t// out\n        /* \"#utility.yul\":18407:18714   */\n    tag_229:\n        /* \"#utility.yul\":18468:18472   */\n      0x00\n        /* \"#utility.yul\":18558:18576   */\n      0xffffffffffffffff\n        /* \"#utility.yul\":18550:18556   */\n      dup3\n        /* \"#utility.yul\":18547:18577   */\n      gt\n        /* \"#utility.yul\":18544:18600   */\n      iszero\n      tag_445\n      jumpi\n        /* \"#utility.yul\":18580:18598   */\n      tag_446\n      tag_204\n      jump\t// in\n    tag_446:\n        /* \"#utility.yul\":18544:18600   */\n    tag_445:\n        /* \"#utility.yul\":18618:18647   */\n      tag_447\n        /* \"#utility.yul\":18640:18646   */\n      dup3\n        /* \"#utility.yul\":18618:18647   */\n      tag_326\n      jump\t// in\n    tag_447:\n        /* \"#utility.yul\":18610:18647   */\n      swap1\n      pop\n        /* \"#utility.yul\":18702:18706   */\n      0x20\n        /* \"#utility.yul\":18696:18700   */\n      dup2\n        /* \"#utility.yul\":18692:18707   */\n      add\n        /* \"#utility.yul\":18684:18707   */\n      swap1\n      pop\n        /* \"#utility.yul\":18407:18714   */\n      swap2\n      swap1\n      pop\n      jump\t// out\n        /* \"#utility.yul\":18720:18818   */\n    tag_320:\n        /* \"#utility.yul\":18771:18777   */\n      0x00\n        /* \"#utility.yul\":18805:18810   */\n      dup2\n        /* \"#utility.yul\":18799:18811   */\n      mload\n        /* \"#utility.yul\":18789:18811   */\n      swap1\n      pop\n        /* \"#utility.yul\":18720:18818   */\n      swap2\n      swap1\n      pop\n      jump\t// out\n        /* \"#utility.yul\":18824:18923   */\n    tag_330:\n        /* \"#utility.yul\":18876:18882   */\n      0x00\n        /* \"#utility.yul\":18910:18915   */\n      dup2\n        /* \"#utility.yul\":18904:18916   */\n      mload\n        /* \"#utility.yul\":18894:18916   */\n      swap1\n      pop\n        /* \"#utility.yul\":18824:18923   */\n      swap2\n      swap1\n      pop\n      jump\t// out\n        /* \"#utility.yul\":18929:19097   */\n    tag_322:\n        /* \"#utility.yul\":19012:19023   */\n      0x00\n        /* \"#utility.yul\":19046:19052   */\n      dup3\n        /* \"#utility.yul\":19041:19044   */\n      dup3\n        /* \"#utility.yul\":19034:19053   */\n      mstore\n        /* \"#utility.yul\":19086:19090   */\n      0x20\n        /* \"#utility.yul\":19081:19084   */\n      dup3\n        /* \"#utility.yul\":19077:19091   */\n      add\n        /* \"#utility.yul\":19062:19091   */\n      swap1\n      pop\n        /* \"#utility.yul\":18929:19097   */\n      swap3\n      swap2\n      pop\n      pop\n      jump\t// out\n        /* \"#utility.yul\":19103:19272   */\n    tag_332:\n        /* \"#utility.yul\":19187:19198   */\n      0x00\n        /* \"#utility.yul\":19221:19227   */\n      dup3\n        /* \"#utility.yul\":19216:19219   */\n      dup3\n        /* \"#utility.yul\":19209:19228   */\n      mstore\n        /* \"#utility.yul\":19261:19265   */\n      0x20\n        /* \"#utility.yul\":19256:19259   */\n      dup3\n        /* \"#utility.yul\":19252:19266   */\n      add\n        /* \"#utility.yul\":19237:19266   */\n      swap1\n      pop\n        /* \"#utility.yul\":19103:19272   */\n      swap3\n      swap2\n      pop\n      pop\n      jump\t// out\n        /* \"#utility.yul\":19278:19426   */\n    tag_339:\n        /* \"#utility.yul\":19380:19391   */\n      0x00\n        /* \"#utility.yul\":19417:19420   */\n      dup2\n        /* \"#utility.yul\":19402:19420   */\n      swap1\n      pop\n        /* \"#utility.yul\":19278:19426   */\n      swap3\n      swap2\n      pop\n      pop\n      jump\t// out\n        /* \"#utility.yul\":19432:19737   */\n    tag_170:\n        /* \"#utility.yul\":19472:19475   */\n      0x00\n        /* \"#utility.yul\":19491:19511   */\n      tag_454\n        /* \"#utility.yul\":19509:19510   */\n      dup3\n        /* \"#utility.yul\":19491:19511   */\n      tag_399\n      jump\t// in\n    tag_454:\n        /* \"#utility.yul\":19486:19511   */\n      swap2\n      pop\n        /* \"#utility.yul\":19525:19545   */\n      tag_455\n        /* \"#utility.yul\":19543:19544   */\n      dup4\n        /* \"#utility.yul\":19525:19545   */\n      tag_399\n      jump\t// in\n    tag_455:\n        /* \"#utility.yul\":19520:19545   */\n      swap3\n      pop\n        /* \"#utility.yul\":19679:19680   */\n      dup3\n        /* \"#utility.yul\":19611:19677   */\n      0xffffffffffffffffffffffffffffffffffffffffffffffffffffffffffffffff\n        /* \"#utility.yul\":19607:19681   */\n      sub\n        /* \"#utility.yul\":19604:19605   */\n      dup3\n        /* \"#utility.yul\":19601:19682   */\n      gt\n        /* \"#utility.yul\":19598:19705   */\n      iszero\n      tag_456\n      jumpi\n        /* \"#utility.yul\":19685:19703   */\n      tag_457\n      tag_458\n      jump\t// in\n    tag_457:\n        /* \"#utility.yul\":19598:19705   */\n    tag_456:\n        /* \"#utility.yul\":19729:19730   */\n      dup3\n        /* \"#utility.yul\":19726:19727   */\n      dup3\n        /* \"#utility.yul\":19722:19731   */\n      add\n        /* \"#utility.yul\":19715:19731   */\n      swap1\n      pop\n        /* \"#utility.yul\":19432:19737   */\n      swap3\n      swap2\n      pop\n      pop\n      jump\t// out\n        /* \"#utility.yul\":19743:19928   */\n    tag_201:\n        /* \"#utility.yul\":19783:19784   */\n      0x00\n        /* \"#utility.yul\":19800:19820   */\n      tag_460\n        /* \"#utility.yul\":19818:19819   */\n      dup3\n        /* \"#utility.yul\":19800:19820   */\n      tag_399\n      jump\t// in\n    tag_460:\n        /* \"#utility.yul\":19795:19820   */\n      swap2\n      pop\n        /* \"#utility.yul\":19834:19854   */\n      tag_461\n        /* \"#utility.yul\":19852:19853   */\n      dup4\n        /* \"#utility.yul\":19834:19854   */\n      tag_399\n      jump\t// in\n    tag_461:\n        /* \"#utility.yul\":19829:19854   */\n      swap3\n      pop\n        /* \"#utility.yul\":19873:19874   */\n      dup3\n        /* \"#utility.yul\":19863:19898   */\n      tag_462\n      jumpi\n        /* \"#utility.yul\":19878:19896   */\n      tag_463\n      tag_464\n      jump\t// in\n    tag_463:\n        /* \"#utility.yul\":19863:19898   */\n    tag_462:\n        /* \"#utility.yul\":19920:19921   */\n      dup3\n        /* \"#utility.yul\":19917:19918   */\n      dup3\n        /* \"#utility.yul\":19913:19922   */\n      div\n        /* \"#utility.yul\":19908:19922   */\n      swap1\n      pop\n        /* \"#utility.yul\":19743:19928   */\n      swap3\n      swap2\n      pop\n      pop\n      jump\t// out\n        /* \"#utility.yul\":19934:20125   */\n    tag_168:\n        /* \"#utility.yul\":19974:19978   */\n      0x00\n        /* \"#utility.yul\":19994:20014   */\n      tag_466\n        /* \"#utility.yul\":20012:20013   */\n      dup3\n        /* \"#utility.yul\":19994:20014   */\n      tag_399\n      jump\t// in\n    tag_466:\n        /* \"#utility.yul\":19989:20014   */\n      swap2\n      pop\n        /* \"#utility.yul\":20028:20048   */\n      tag_467\n        /* \"#utility.yul\":20046:20047   */\n      dup4\n        /* \"#utility.yul\":20028:20048   */\n      tag_399\n      jump\t// in\n    tag_467:\n        /* \"#utility.yul\":20023:20048   */\n      swap3\n      pop\n        /* \"#utility.yul\":20067:20068   */\n      dup3\n        /* \"#utility.yul\":20064:20065   */\n      dup3\n        /* \"#utility.yul\":20061:20069   */\n      lt\n        /* \"#utility.yul\":20058:20092   */\n      iszero\n      tag_468\n      jumpi\n        /* \"#utility.yul\":20072:20090   */\n      tag_469\n      tag_458\n      jump\t// in\n    tag_469:\n        /* \"#utility.yul\":20058:20092   */\n    tag_468:\n        /* \"#utility.yul\":20117:20118   */\n      dup3\n        /* \"#utility.yul\":20114:20115   */\n      dup3\n        /* \"#utility.yul\":20110:20119   */\n      sub\n        /* \"#utility.yul\":20102:20119   */\n      swap1\n      pop\n        /* \"#utility.yul\":19934:20125   */\n      swap3\n      swap2\n      pop\n      pop\n      jump\t// out\n        /* \"#utility.yul\":20131:20227   */\n    tag_312:\n        /* \"#utility.yul\":20168:20175   */\n      0x00\n        /* \"#utility.yul\":20197:20221   */\n      tag_471\n        /* \"#utility.yul\":20215:20220   */\n      dup3\n        /* \"#utility.yul\":20197:20221   */\n      tag_472\n      jump\t// in\n    tag_471:\n        /* \"#utility.yul\":20186:20221   */\n      swap1\n      pop\n        /* \"#utility.yul\":20131:20227   */\n      swap2\n      swap1\n      pop\n      jump\t// out\n        /* \"#utility.yul\":20233:20323   */\n    tag_316:\n        /* \"#utility.yul\":20267:20274   */\n      0x00\n        /* \"#utility.yul\":20310:20315   */\n      dup2\n        /* \"#utility.yul\":20303:20316   */\n      iszero\n        /* \"#utility.yul\":20296:20317   */\n      iszero\n        /* \"#utility.yul\":20285:20317   */\n      swap1\n      pop\n        /* \"#utility.yul\":20233:20323   */\n      swap2\n      swap1\n      pop\n      jump\t// out\n        /* \"#utility.yul\":20329:20478   */\n    tag_474:\n        /* \"#utility.yul\":20365:20372   */\n      0x00\n        /* \"#utility.yul\":20405:20471   */\n      0xffffffff00000000000000000000000000000000000000000000000000000000\n        /* \"#utility.yul\":20398:20403   */\n      dup3\n        /* \"#utility.yul\":20394:20472   */\n      and\n        /* \"#utility.yul\":20383:20472   */\n      swap1\n      pop\n        /* \"#utility.yul\":20329:20478   */\n      swap2\n      swap1\n      pop\n      jump\t// out\n        /* \"#utility.yul\":20484:20610   */\n    tag_472:\n        /* \"#utility.yul\":20521:20528   */\n      0x00\n        /* \"#utility.yul\":20561:20603   */\n      0xffffffffffffffffffffffffffffffffffffffff\n        /* \"#utility.yul\":20554:20559   */\n      dup3\n        /* \"#utility.yul\":20550:20604   */\n      and\n        /* \"#utility.yul\":20539:20604   */\n      swap1\n      pop\n        /* \"#utility.yul\":20484:20610   */\n      swap2\n      swap1\n      pop\n      jump\t// out\n        /* \"#utility.yul\":20616:20693   */\n    tag_399:\n        /* \"#utility.yul\":20653:20660   */\n      0x00\n        /* \"#utility.yul\":20682:20687   */\n      dup2\n        /* \"#utility.yul\":20671:20687   */\n      swap1\n      pop\n        /* \"#utility.yul\":20616:20693   */\n      swap2\n      swap1\n      pop\n      jump\t// out\n        /* \"#utility.yul\":20699:20853   */\n    tag_235:\n        /* \"#utility.yul\":20783:20789   */\n      dup3\n        /* \"#utility.yul\":20778:20781   */\n      dup2\n        /* \"#utility.yul\":20773:20776   */\n      dup4\n        /* \"#utility.yul\":20760:20790   */\n      calldatacopy\n        /* \"#utility.yul\":20845:20846   */\n      0x00\n        /* \"#utility.yul\":20836:20842   */\n      dup4\n        /* \"#utility.yul\":20831:20834   */\n      dup4\n        /* \"#utility.yul\":20827:20843   */\n      add\n        /* \"#utility.yul\":20820:20847   */\n      mstore\n        /* \"#utility.yul\":20699:20853   */\n      pop\n      pop\n      pop\n      jump\t// out\n        /* \"#utility.yul\":20859:21166   */\n    tag_324:\n        /* \"#utility.yul\":20927:20928   */\n      0x00\n        /* \"#utility.yul\":20937:21050   */\n    tag_480:\n        /* \"#utility.yul\":20951:20957   */\n      dup4\n        /* \"#utility.yul\":20948:20949   */\n      dup2\n        /* \"#utility.yul\":20945:20958   */\n      lt\n        /* \"#utility.yul\":20937:21050   */\n      iszero\n      tag_482\n      jumpi\n        /* \"#utility.yul\":21036:21037   */\n      dup1\n        /* \"#utility.yul\":21031:21034   */\n      dup3\n        /* \"#utility.yul\":21027:21038   */\n      add\n        /* \"#utility.yul\":21021:21039   */\n      mload\n        /* \"#utility.yul\":21017:21018   */\n      dup2\n        /* \"#utility.yul\":21012:21015   */\n      dup5\n        /* \"#utility.yul\":21008:21019   */\n      add\n        /* \"#utility.yul\":21001:21040   */\n      mstore\n        /* \"#utility.yul\":20973:20975   */\n      0x20\n        /* \"#utility.yul\":20970:20971   */\n      dup2\n        /* \"#utility.yul\":20966:20976   */\n      add\n        /* \"#utility.yul\":20961:20976   */\n      swap1\n      pop\n        /* \"#utility.yul\":20937:21050   */\n      jump(tag_480)\n    tag_482:\n        /* \"#utility.yul\":21068:21074   */\n      dup4\n        /* \"#utility.yul\":21065:21066   */\n      dup2\n        /* \"#utility.yul\":21062:21075   */\n      gt\n        /* \"#utility.yul\":21059:21160   */\n      iszero\n      tag_483\n      jumpi\n        /* \"#utility.yul\":21148:21149   */\n      0x00\n        /* \"#utility.yul\":21139:21145   */\n      dup5\n        /* \"#utility.yul\":21134:21137   */\n      dup5\n        /* \"#utility.yul\":21130:21146   */\n      add\n        /* \"#utility.yul\":21123:21150   */\n      mstore\n        /* \"#utility.yul\":21059:21160   */\n    tag_483:\n        /* \"#utility.yul\":20908:21166   */\n      pop\n        /* \"#utility.yul\":20859:21166   */\n      pop\n      pop\n      pop\n      jump\t// out\n        /* \"#utility.yul\":21172:21492   */\n    tag_88:\n        /* \"#utility.yul\":21216:21222   */\n      0x00\n        /* \"#utility.yul\":21253:21254   */\n      0x02\n        /* \"#utility.yul\":21247:21251   */\n      dup3\n        /* \"#utility.yul\":21243:21255   */\n      div\n        /* \"#utility.yul\":21233:21255   */\n      swap1\n      pop\n        /* \"#utility.yul\":21300:21301   */\n      0x01\n        /* \"#utility.yul\":21294:21298   */\n      dup3\n        /* \"#utility.yul\":21290:21302   */\n      and\n        /* \"#utility.yul\":21321:21339   */\n      dup1\n        /* \"#utility.yul\":21311:21392   */\n      tag_485\n      jumpi\n        /* \"#utility.yul\":21377:21381   */\n      0x7f\n        /* \"#utility.yul\":21369:21375   */\n      dup3\n        /* \"#utility.yul\":21365:21382   */\n      and\n        /* \"#utility.yul\":21355:21382   */\n      swap2\n      pop\n        /* \"#utility.yul\":21311:21392   */\n    tag_485:\n        /* \"#utility.yul\":21439:21441   */\n      0x20\n        /* \"#utility.yul\":21431:21437   */\n      dup3\n        /* \"#utility.yul\":21428:21442   */\n      lt\n        /* \"#utility.yul\":21408:21426   */\n      dup2\n        /* \"#utility.yul\":21405:21443   */\n      eq\n        /* \"#utility.yul\":21402:21486   */\n      iszero\n      tag_486\n      jumpi\n        /* \"#utility.yul\":21458:21476   */\n      tag_487\n      tag_488\n      jump\t// in\n    tag_487:\n        /* \"#utility.yul\":21402:21486   */\n    tag_486:\n        /* \"#utility.yul\":21223:21492   */\n      pop\n        /* \"#utility.yul\":21172:21492   */\n      swap2\n      swap1\n      pop\n      jump\t// out\n        /* \"#utility.yul\":21498:21779   */\n    tag_442:\n        /* \"#utility.yul\":21581:21608   */\n      tag_490\n        /* \"#utility.yul\":21603:21607   */\n      dup3\n        /* \"#utility.yul\":21581:21608   */\n      tag_326\n      jump\t// in\n    tag_490:\n        /* \"#utility.yul\":21573:21579   */\n      dup2\n        /* \"#utility.yul\":21569:21609   */\n      add\n        /* \"#utility.yul\":21711:21717   */\n      dup2\n        /* \"#utility.yul\":21699:21709   */\n      dup2\n        /* \"#utility.yul\":21696:21718   */\n      lt\n        /* \"#utility.yul\":21675:21693   */\n      0xffffffffffffffff\n        /* \"#utility.yul\":21663:21673   */\n      dup3\n        /* \"#utility.yul\":21660:21694   */\n      gt\n        /* \"#utility.yul\":21657:21719   */\n      or\n        /* \"#utility.yul\":21654:21742   */\n      iszero\n      tag_491\n      jumpi\n        /* \"#utility.yul\":21722:21740   */\n      tag_492\n      tag_204\n      jump\t// in\n    tag_492:\n        /* \"#utility.yul\":21654:21742   */\n    tag_491:\n        /* \"#utility.yul\":21762:21772   */\n      dup1\n        /* \"#utility.yul\":21758:21760   */\n      0x40\n        /* \"#utility.yul\":21751:21773   */\n      mstore\n        /* \"#utility.yul\":21541:21779   */\n      pop\n        /* \"#utility.yul\":21498:21779   */\n      pop\n      pop\n      jump\t// out\n        /* \"#utility.yul\":21785:22018   */\n    tag_199:\n        /* \"#utility.yul\":21824:21827   */\n      0x00\n        /* \"#utility.yul\":21847:21871   */\n      tag_494\n        /* \"#utility.yul\":21865:21870   */\n      dup3\n        /* \"#utility.yul\":21847:21871   */\n      tag_399\n      jump\t// in\n    tag_494:\n        /* \"#utility.yul\":21838:21871   */\n      swap2\n      pop\n        /* \"#utility.yul\":21893:21959   */\n      0xffffffffffffffffffffffffffffffffffffffffffffffffffffffffffffffff\n        /* \"#utility.yul\":21886:21891   */\n      dup3\n        /* \"#utility.yul\":21883:21960   */\n      eq\n        /* \"#utility.yul\":21880:21983   */\n      iszero\n      tag_495\n      jumpi\n        /* \"#utility.yul\":21963:21981   */\n      tag_496\n      tag_458\n      jump\t// in\n    tag_496:\n        /* \"#utility.yul\":21880:21983   */\n    tag_495:\n        /* \"#utility.yul\":22010:22011   */\n      0x01\n        /* \"#utility.yul\":22003:22008   */\n      dup3\n        /* \"#utility.yul\":21999:22012   */\n      add\n        /* \"#utility.yul\":21992:22012   */\n      swap1\n      pop\n        /* \"#utility.yul\":21785:22018   */\n      swap2\n      swap1\n      pop\n      jump\t// out\n        /* \"#utility.yul\":22024:22200   */\n    tag_210:\n        /* \"#utility.yul\":22056:22057   */\n      0x00\n        /* \"#utility.yul\":22073:22093   */\n      tag_498\n        /* \"#utility.yul\":22091:22092   */\n      dup3\n        /* \"#utility.yul\":22073:22093   */\n      tag_399\n      jump\t// in\n    tag_498:\n        /* \"#utility.yul\":22068:22093   */\n      swap2\n      pop\n        /* \"#utility.yul\":22107:22127   */\n      tag_499\n        /* \"#utility.yul\":22125:22126   */\n      dup4\n        /* \"#utility.yul\":22107:22127   */\n      tag_399\n      jump\t// in\n    tag_499:\n        /* \"#utility.yul\":22102:22127   */\n      swap3\n      pop\n        /* \"#utility.yul\":22146:22147   */\n      dup3\n        /* \"#utility.yul\":22136:22171   */\n      tag_500\n      jumpi\n        /* \"#utility.yul\":22151:22169   */\n      tag_501\n      tag_464\n      jump\t// in\n    tag_501:\n        /* \"#utility.yul\":22136:22171   */\n    tag_500:\n        /* \"#utility.yul\":22192:22193   */\n      dup3\n        /* \"#utility.yul\":22189:22190   */\n      dup3\n        /* \"#utility.yul\":22185:22194   */\n      mod\n        /* \"#utility.yul\":22180:22194   */\n      swap1\n      pop\n        /* \"#utility.yul\":22024:22200   */\n      swap3\n      swap2\n      pop\n      pop\n      jump\t// out\n        /* \"#utility.yul\":22206:22386   */\n    tag_458:\n        /* \"#utility.yul\":22254:22331   */\n      0x4e487b7100000000000000000000000000000000000000000000000000000000\n        /* \"#utility.yul\":22251:22252   */\n      0x00\n        /* \"#utility.yul\":22244:22332   */\n      mstore\n        /* \"#utility.yul\":22351:22355   */\n      0x11\n        /* \"#utility.yul\":22348:22349   */\n      0x04\n        /* \"#utility.yul\":22341:22356   */\n      mstore\n        /* \"#utility.yul\":22375:22379   */\n      0x24\n        /* \"#utility.yul\":22372:22373   */\n      0x00\n        /* \"#utility.yul\":22365:22380   */\n      revert\n        /* \"#utility.yul\":22392:22572   */\n    tag_464:\n        /* \"#utility.yul\":22440:22517   */\n      0x4e487b7100000000000000000000000000000000000000000000000000000000\n        /* \"#utility.yul\":22437:22438   */\n      0x00\n        /* \"#utility.yul\":22430:22518   */\n      mstore\n        /* \"#utility.yul\":22537:22541   */\n      0x12\n        /* \"#utility.yul\":22534:22535   */\n      0x04\n        /* \"#utility.yul\":22527:22542   */\n      mstore\n        /* \"#utility.yul\":22561:22565   */\n      0x24\n        /* \"#utility.yul\":22558:22559   */\n      0x00\n        /* \"#utility.yul\":22551:22566   */\n      revert\n        /* \"#utility.yul\":22578:22758   */\n    tag_488:\n        /* \"#utility.yul\":22626:22703   */\n      0x4e487b7100000000000000000000000000000000000000000000000000000000\n        /* \"#utility.yul\":22623:22624   */\n      0x00\n        /* \"#utility.yul\":22616:22704   */\n      mstore\n        /* \"#utility.yul\":22723:22727   */\n      0x22\n        /* \"#utility.yul\":22720:22721   */\n      0x04\n        /* \"#utility.yul\":22713:22728   */\n      mstore\n        /* \"#utility.yul\":22747:22751   */\n      0x24\n        /* \"#utility.yul\":22744:22745   */\n      0x00\n        /* \"#utility.yul\":22737:22752   */\n      revert\n        /* \"#utility.yul\":22764:22944   */\n    tag_214:\n        /* \"#utility.yul\":22812:22889   */\n      0x4e487b7100000000000000000000000000000000000000000000000000000000\n        /* \"#utility.yul\":22809:22810   */\n      0x00\n        /* \"#utility.yul\":22802:22890   */\n      mstore\n        /* \"#utility.yul\":22909:22913   */\n      0x32\n        /* \"#utility.yul\":22906:22907   */\n      0x04\n        /* \"#utility.yul\":22899:22914   */\n      mstore\n        /* \"#utility.yul\":22933:22937   */\n      0x24\n        /* \"#utility.yul\":22930:22931   */\n      0x00\n        /* \"#utility.yul\":22923:22938   */\n      revert\n        /* \"#utility.yul\":22950:23130   */\n    tag_204:\n        /* \"#utility.yul\":22998:23075   */\n      0x4e487b7100000000000000000000000000000000000000000000000000000000\n        /* \"#utility.yul\":22995:22996   */\n      0x00\n        /* \"#utility.yul\":22988:23076   */\n      mstore\n        /* \"#utility.yul\":23095:23099   */\n      0x41\n        /* \"#utility.yul\":23092:23093   */\n      0x04\n        /* \"#utility.yul\":23085:23100   */\n      mstore\n        /* \"#utility.yul\":23119:23123   */\n      0x24\n        /* \"#utility.yul\":23116:23117   */\n      0x00\n        /* \"#utility.yul\":23109:23124   */\n      revert\n        /* \"#utility.yul\":23136:23253   */\n    tag_255:\n        /* \"#utility.yul\":23245:23246   */\n      0x00\n        /* \"#utility.yul\":23242:23243   */\n      dup1\n        /* \"#utility.yul\":23235:23247   */\n      revert\n        /* \"#utility.yul\":23259:23376   */\n    tag_233:\n        /* \"#utility.yul\":23368:23369   */\n      0x00\n        /* \"#utility.yul\":23365:23366   */\n      dup1\n        /* \"#utility.yul\":23358:23370   */\n      revert\n        /* \"#utility.yul\":23382:23499   */\n    tag_285:\n        /* \"#utility.yul\":23491:23492   */\n      0x00\n        /* \"#utility.yul\":23488:23489   */\n      dup1\n        /* \"#utility.yul\":23481:23493   */\n      revert\n        /* \"#utility.yul\":23505:23622   */\n    tag_264:\n        /* \"#utility.yul\":23614:23615   */\n      0x00\n        /* \"#utility.yul\":23611:23612   */\n      dup1\n        /* \"#utility.yul\":23604:23616   */\n      revert\n        /* \"#utility.yul\":23628:23730   */\n    tag_326:\n        /* \"#utility.yul\":23669:23675   */\n      0x00\n        /* \"#utility.yul\":23720:23722   */\n      0x1f\n        /* \"#utility.yul\":23716:23723   */\n      not\n        /* \"#utility.yul\":23711:23713   */\n      0x1f\n        /* \"#utility.yul\":23704:23709   */\n      dup4\n        /* \"#utility.yul\":23700:23714   */\n      add\n        /* \"#utility.yul\":23696:23724   */\n      and\n        /* \"#utility.yul\":23686:23724   */\n      swap1\n      pop\n        /* \"#utility.yul\":23628:23730   */\n      swap2\n      swap1\n      pop\n      jump\t// out\n        /* \"#utility.yul\":23736:23908   */\n    tag_345:\n        /* \"#utility.yul\":23876:23900   */\n      0x6e6f74206f776e6572206e6f7220617070726f76656400000000000000000000\n        /* \"#utility.yul\":23872:23873   */\n      0x00\n        /* \"#utility.yul\":23864:23870   */\n      dup3\n        /* \"#utility.yul\":23860:23874   */\n      add\n        /* \"#utility.yul\":23853:23901   */\n      mstore\n        /* \"#utility.yul\":23736:23908   */\n      pop\n      jump\t// out\n        /* \"#utility.yul\":23914:24092   */\n    tag_350:\n        /* \"#utility.yul\":24054:24084   */\n      0x7472616e7366657220746f20746865207a65726f206164647265737300000000\n        /* \"#utility.yul\":24050:24051   */\n      0x00\n        /* \"#utility.yul\":24042:24048   */\n      dup3\n        /* \"#utility.yul\":24038:24052   */\n      add\n        /* \"#utility.yul\":24031:24085   */\n      mstore\n        /* \"#utility.yul\":23914:24092   */\n      pop\n      jump\t// out\n        /* \"#utility.yul\":24098:24278   */\n    tag_355:\n        /* \"#utility.yul\":24238:24270   */\n      0x6e6f74206f776e6572206e6f7220617070726f76656420666f7220616c6c0000\n        /* \"#utility.yul\":24234:24235   */\n      0x00\n        /* \"#utility.yul\":24226:24232   */\n      dup3\n        /* \"#utility.yul\":24222:24236   */\n      add\n        /* \"#utility.yul\":24215:24271   */\n      mstore\n        /* \"#utility.yul\":24098:24278   */\n      pop\n      jump\t// out\n        /* \"#utility.yul\":24284:24454   */\n    tag_360:\n        /* \"#utility.yul\":24424:24446   */\n      0x6d696e7420746f207a65726f2061646472657373000000000000000000000000\n        /* \"#utility.yul\":24420:24421   */\n      0x00\n        /* \"#utility.yul\":24412:24418   */\n      dup3\n        /* \"#utility.yul\":24408:24422   */\n      add\n        /* \"#utility.yul\":24401:24447   */\n      mstore\n        /* \"#utility.yul\":24284:24454   */\n      pop\n      jump\t// out\n        /* \"#utility.yul\":24460:24629   */\n    tag_365:\n        /* \"#utility.yul\":24600:24621   */\n      0x746f6b656e20646f65736e277420657869737400000000000000000000000000\n        /* \"#utility.yul\":24596:24597   */\n      0x00\n        /* \"#utility.yul\":24588:24594   */\n      dup3\n        /* \"#utility.yul\":24584:24598   */\n      add\n        /* \"#utility.yul\":24577:24622   */\n      mstore\n        /* \"#utility.yul\":24460:24629   */\n      pop\n      jump\t// out\n        /* \"#utility.yul\":24635:24805   */\n    tag_370:\n        /* \"#utility.yul\":24775:24797   */\n      0x6f776e6572203d207a65726f2061646472657373000000000000000000000000\n        /* \"#utility.yul\":24771:24772   */\n      0x00\n        /* \"#utility.yul\":24763:24769   */\n      dup3\n        /* \"#utility.yul\":24759:24773   */\n      add\n        /* \"#utility.yul\":24752:24798   */\n      mstore\n        /* \"#utility.yul\":24635:24805   */\n      pop\n      jump\t// out\n        /* \"#utility.yul\":24811:24979   */\n    tag_375:\n        /* \"#utility.yul\":24951:24971   */\n      0x6e6f74206f776e6572206f6620746f6b656e0000000000000000000000000000\n        /* \"#utility.yul\":24947:24948   */\n      0x00\n        /* \"#utility.yul\":24939:24945   */\n      dup3\n        /* \"#utility.yul\":24935:24949   */\n      add\n        /* \"#utility.yul\":24928:24972   */\n      mstore\n        /* \"#utility.yul\":24811:24979   */\n      pop\n      jump\t// out\n        /* \"#utility.yul\":24985:25150   */\n    tag_380:\n        /* \"#utility.yul\":25125:25142   */\n      0x546f6b656e204e6f742045786973740000000000000000000000000000000000\n        /* \"#utility.yul\":25121:25122   */\n      0x00\n        /* \"#utility.yul\":25113:25119   */\n      dup3\n        /* \"#utility.yul\":25109:25123   */\n      add\n        /* \"#utility.yul\":25102:25143   */\n      mstore\n        /* \"#utility.yul\":24985:25150   */\n      pop\n      jump\t// out\n        /* \"#utility.yul\":25156:25326   */\n    tag_385:\n        /* \"#utility.yul\":25296:25318   */\n      0x746f6b656e20616c7265616479206d696e746564000000000000000000000000\n        /* \"#utility.yul\":25292:25293   */\n      0x00\n        /* \"#utility.yul\":25284:25290   */\n      dup3\n        /* \"#utility.yul\":25280:25294   */\n      add\n        /* \"#utility.yul\":25273:25319   */\n      mstore\n        /* \"#utility.yul\":25156:25326   */\n      pop\n      jump\t// out\n        /* \"#utility.yul\":25332:25500   */\n    tag_390:\n        /* \"#utility.yul\":25472:25492   */\n      0x6e6f742045524337323152656365697665720000000000000000000000000000\n        /* \"#utility.yul\":25468:25469   */\n      0x00\n        /* \"#utility.yul\":25460:25466   */\n      dup3\n        /* \"#utility.yul\":25456:25470   */\n      add\n        /* \"#utility.yul\":25449:25493   */\n      mstore\n        /* \"#utility.yul\":25332:25500   */\n      pop\n      jump\t// out\n        /* \"#utility.yul\":25506:25665   */\n    tag_395:\n        /* \"#utility.yul\":25646:25657   */\n      0x6e6f74206f776e65720000000000000000000000000000000000000000000000\n        /* \"#utility.yul\":25642:25643   */\n      0x00\n        /* \"#utility.yul\":25634:25640   */\n      dup3\n        /* \"#utility.yul\":25630:25644   */\n      add\n        /* \"#utility.yul\":25623:25658   */\n      mstore\n        /* \"#utility.yul\":25506:25665   */\n      pop\n      jump\t// out\n        /* \"#utility.yul\":25671:25793   */\n    tag_239:\n        /* \"#utility.yul\":25744:25768   */\n      tag_524\n        /* \"#utility.yul\":25762:25767   */\n      dup2\n        /* \"#utility.yul\":25744:25768   */\n      tag_312\n      jump\t// in\n    tag_524:\n        /* \"#utility.yul\":25737:25742   */\n      dup2\n        /* \"#utility.yul\":25734:25769   */\n      eq\n        /* \"#utility.yul\":25724:25787   */\n      tag_525\n      jumpi\n        /* \"#utility.yul\":25783:25784   */\n      0x00\n        /* \"#utility.yul\":25780:25781   */\n      dup1\n        /* \"#utility.yul\":25773:25785   */\n      revert\n        /* \"#utility.yul\":25724:25787   */\n    tag_525:\n        /* \"#utility.yul\":25671:25793   */\n      pop\n      jump\t// out\n        /* \"#utility.yul\":25799:25915   */\n    tag_243:\n        /* \"#utility.yul\":25869:25890   */\n      tag_527\n        /* \"#utility.yul\":25884:25889   */\n      dup2\n        /* \"#utility.yul\":25869:25890   */\n      tag_316\n      jump\t// in\n    tag_527:\n        /* \"#utility.yul\":25862:25867   */\n      dup2\n        /* \"#utility.yul\":25859:25891   */\n      eq\n        /* \"#utility.yul\":25849:25909   */\n      tag_528\n      jumpi\n        /* \"#utility.yul\":25905:25906   */\n      0x00\n        /* \"#utility.yul\":25902:25903   */\n      dup1\n        /* \"#utility.yul\":25895:25907   */\n      revert\n        /* \"#utility.yul\":25849:25909   */\n    tag_528:\n        /* \"#utility.yul\":25799:25915   */\n      pop\n      jump\t// out\n        /* \"#utility.yul\":25921:26041   */\n    tag_247:\n        /* \"#utility.yul\":25993:26016   */\n      tag_530\n        /* \"#utility.yul\":26010:26015   */\n      dup2\n        /* \"#utility.yul\":25993:26016   */\n      tag_474\n      jump\t// in\n    tag_530:\n        /* \"#utility.yul\":25986:25991   */\n      dup2\n        /* \"#utility.yul\":25983:26017   */\n      eq\n        /* \"#utility.yul\":25973:26035   */\n      tag_531\n      jumpi\n        /* \"#utility.yul\":26031:26032   */\n      0x00\n        /* \"#utility.yul\":26028:26029   */\n      dup1\n        /* \"#utility.yul\":26021:26033   */\n      revert\n        /* \"#utility.yul\":25973:26035   */\n    tag_531:\n        /* \"#utility.yul\":25921:26041   */\n      pop\n      jump\t// out\n        /* \"#utility.yul\":26047:26169   */\n    tag_260:\n        /* \"#utility.yul\":26120:26144   */\n      tag_533\n        /* \"#utility.yul\":26138:26143   */\n      dup2\n        /* \"#utility.yul\":26120:26144   */\n      tag_399\n      jump\t// in\n    tag_533:\n        /* \"#utility.yul\":26113:26118   */\n      dup2\n        /* \"#utility.yul\":26110:26145   */\n      eq\n        /* \"#utility.yul\":26100:26163   */\n      tag_534\n      jumpi\n        /* \"#utility.yul\":26159:26160   */\n      0x00\n        /* \"#utility.yul\":26156:26157   */\n      dup1\n        /* \"#utility.yul\":26149:26161   */\n      revert\n        /* \"#utility.yul\":26100:26163   */\n    tag_534:\n        /* \"#utility.yul\":26047:26169   */\n      pop\n      jump\t// out\n\n    auxdata: 0xa2646970667358221220970d787aacc2b30c2534d92f716887223fec191d9bfb1877e71fd9a34a63527a64736f6c63430008070033\n}\n",
				"bytecode": {
					"linkReferences": {},
					"object": "60806040523480156200001157600080fd5b50604051620028b5380380620028b583398181016040528101906200003791906200019f565b81600090805190602001906200004f92919062000071565b5080600190805190602001906200006892919062000071565b505050620003a8565b8280546200007f90620002b9565b90600052602060002090601f016020900481019282620000a35760008555620000ef565b82601f10620000be57805160ff1916838001178555620000ef565b82800160010185558215620000ef579182015b82811115620000ee578251825591602001919060010190620000d1565b5b509050620000fe919062000102565b5090565b5b808211156200011d57600081600090555060010162000103565b5090565b60006200013862000132846200024d565b62000224565b90508281526020810184848401111562000157576200015662000388565b5b6200016484828562000283565b509392505050565b600082601f83011262000184576200018362000383565b5b81516200019684826020860162000121565b91505092915050565b60008060408385031215620001b957620001b862000392565b5b600083015167ffffffffffffffff811115620001da57620001d96200038d565b5b620001e8858286016200016c565b925050602083015167ffffffffffffffff8111156200020c576200020b6200038d565b5b6200021a858286016200016c565b9150509250929050565b60006200023062000243565b90506200023e8282620002ef565b919050565b6000604051905090565b600067ffffffffffffffff8211156200026b576200026a62000354565b5b620002768262000397565b9050602081019050919050565b60005b83811015620002a357808201518184015260208101905062000286565b83811115620002b3576000848401525b50505050565b60006002820490506001821680620002d257607f821691505b60208210811415620002e957620002e862000325565b5b50919050565b620002fa8262000397565b810181811067ffffffffffffffff821117156200031c576200031b62000354565b5b80604052505050565b7f4e487b7100000000000000000000000000000000000000000000000000000000600052602260045260246000fd5b7f4e487b7100000000000000000000000000000000000000000000000000000000600052604160045260246000fd5b600080fd5b600080fd5b600080fd5b600080fd5b6000601f19601f8301169050919050565b6124fd80620003b86000396000f3fe608060405234801561001057600080fd5b50600436106100f55760003560e01c806342966c6811610097578063a22cb46511610066578063a22cb46514610282578063b88d4fde1461029e578063c87b56dd146102ba578063e985e9c5146102ea576100f5565b806342966c68146101e85780636352211e1461020457806370a082311461023457806395d89b4114610264576100f5565b8063095ea7b3116100d3578063095ea7b31461017857806323b872dd1461019457806340c10f19146101b057806342842e0e146101cc576100f5565b806301ffc9a7146100fa57806306fdde031461012a578063081812fc14610148575b600080fd5b610114600480360381019061010f9190611996565b61031a565b6040516101219190611cf9565b60405180910390f35b610132610454565b60405161013f9190611d14565b60405180910390f35b610162600480360381019061015d91906119f0565b6104e2565b60405161016f9190611c92565b60405180910390f35b610192600480360381019061018d9190611956565b6105c1565b005b6101ae60048036038101906101a99190611840565b610708565b005b6101ca60048036038101906101c59190611956565b610771565b005b6101e660048036038101906101e19190611840565b61077f565b005b61020260048036038101906101fd91906119f0565b61079f565b005b61021e600480360381019061021991906119f0565b6107ab565b60405161022b9190611c92565b60405180910390f35b61024e600480360381019061024991906117d3565b610858565b60405161025b9190611e96565b60405180910390f35b61026c610910565b6040516102799190611d14565b60405180910390f35b61029c60048036038101906102979190611916565b61099e565b005b6102b860048036038101906102b39190611893565b610a9b565b005b6102d460048036038101906102cf91906119f0565b610b06565b6040516102e19190611d14565b60405180910390f35b61030460048036038101906102ff9190611800565b610c08565b6040516103119190611cf9565b60405180910390f35b60007f80ac58cd000000000000000000000000000000000000000000000000000000007bffffffffffffffffffffffffffffffffffffffffffffffffffffffff1916827bffffffffffffffffffffffffffffffffffffffffffffffffffffffff191614806103e557507f01ffc9a7000000000000000000000000000000000000000000000000000000007bffffffffffffffffffffffffffffffffffffffffffffffffffffffff1916827bffffffffffffffffffffffffffffffffffffffffffffffffffffffff1916145b8061044d57507f5b5e139f000000000000000000000000000000000000000000000000000000007bffffffffffffffffffffffffffffffffffffffffffffffffffffffff1916827bffffffffffffffffffffffffffffffffffffffffffffffffffffffff1916145b9050919050565b60008054610461906120bb565b80601f016020809104026020016040519081016040528092919081815260200182805461048d906120bb565b80156104da5780601f106104af576101008083540402835291602001916104da565b820191906000526020600020905b8154815290600101906020018083116104bd57829003601f168201915b505050505081565b60008073ffffffffffffffffffffffffffffffffffffffff166002600084815260200190815260200160002060009054906101000a900473ffffffffffffffffffffffffffffffffffffffff1673ffffffffffffffffffffffffffffffffffffffff161415610586576040517f08c379a000000000000000000000000000000000000000000000000000000000815260040161057d90611db6565b60405180910390fd5b6004600083815260200190815260200160002060009054906101000a900473ffffffffffffffffffffffffffffffffffffffff169050919050565b60006002600083815260200190815260200160002060009054906101000a900473ffffffffffffffffffffffffffffffffffffffff1690508073ffffffffffffffffffffffffffffffffffffffff163373ffffffffffffffffffffffffffffffffffffffff1614806106b95750600560008273ffffffffffffffffffffffffffffffffffffffff1673ffffffffffffffffffffffffffffffffffffffff16815260200190815260200160002060003373ffffffffffffffffffffffffffffffffffffffff1673ffffffffffffffffffffffffffffffffffffffff16815260200190815260200160002060009054906101000a900460ff165b6106f8576040517f08c379a00000000000000000000000000000000000000000000000000000000081526004016106ef90611d76565b60405180910390fd5b610703818484610c9c565b505050565b6000610713826107ab565b9050610720813384610d4e565b61075f576040517f08c379a000000000000000000000000000000000000000000000000000000000815260040161075690611d36565b60405180910390fd5b61076b81858585610e82565b50505050565b61077b82826110cd565b5050565b61079a83838360405180602001604052806000815250610a9b565b505050565b6107a8816112e8565b50565b60006002600083815260200190815260200160002060009054906101000a900473ffffffffffffffffffffffffffffffffffffffff169050600073ffffffffffffffffffffffffffffffffffffffff168173ffffffffffffffffffffffffffffffffffffffff161415610853576040517f08c379a000000000000000000000000000000000000000000000000000000000815260040161084a90611db6565b60405180910390fd5b919050565b60008073ffffffffffffffffffffffffffffffffffffffff168273ffffffffffffffffffffffffffffffffffffffff1614156108c9576040517f08c379a00000000000000000000000000000000000000000000000000000000081526004016108c090611dd6565b60405180910390fd5b600360008373ffffffffffffffffffffffffffffffffffffffff1673ffffffffffffffffffffffffffffffffffffffff168152602001908152602001600020549050919050565b6001805461091d906120bb565b80601f0160208091040260200160405190810160405280929190818152602001828054610949906120bb565b80156109965780601f1061096b57610100808354040283529160200191610996565b820191906000526020600020905b81548152906001019060200180831161097957829003601f168201915b505050505081565b80600560003373ffffffffffffffffffffffffffffffffffffffff1673ffffffffffffffffffffffffffffffffffffffff16815260200190815260200160002060008473ffffffffffffffffffffffffffffffffffffffff1673ffffffffffffffffffffffffffffffffffffffff16815260200190815260200160002060006101000a81548160ff0219169083151502179055508173ffffffffffffffffffffffffffffffffffffffff163373ffffffffffffffffffffffffffffffffffffffff167f17307eab39ab6107e8899845ad3d59bd9653f200f220920489ca2b5937696c3183604051610a8f9190611cf9565b60405180910390a35050565b6000610aa6836107ab565b9050610ab3813385610d4e565b610af2576040517f08c379a0000000000000000000000000000000000000000000000000000000008152600401610ae990611d36565b60405180910390fd5b610aff818686868661145c565b5050505050565b6060600073ffffffffffffffffffffffffffffffffffffffff166002600084815260200190815260200160002060009054906101000a900473ffffffffffffffffffffffffffffffffffffffff1673ffffffffffffffffffffffffffffffffffffffff161415610bab576040517f08c379a0000000000000000000000000000000000000000000000000000000008152600401610ba290611e16565b60405180910390fd5b6000610bb56114ba565b90506000815111610bd55760405180602001604052806000815250610c00565b80610bdf846114d1565b604051602001610bf0929190611c6e565b6040516020818303038152906040525b915050919050565b6000600560008473ffffffffffffffffffffffffffffffffffffffff1673ffffffffffffffffffffffffffffffffffffffff16815260200190815260200160002060008373ffffffffffffffffffffffffffffffffffffffff1673ffffffffffffffffffffffffffffffffffffffff16815260200190815260200160002060009054906101000a900460ff16905092915050565b816004600083815260200190815260200160002060006101000a81548173ffffffffffffffffffffffffffffffffffffffff021916908373ffffffffffffffffffffffffffffffffffffffff160217905550808273ffffffffffffffffffffffffffffffffffffffff168473ffffffffffffffffffffffffffffffffffffffff167f8c5be1e5ebec7d5bd14f71427d1e84f3dd0314c0f7b2291e5b200ac8c7c3b92560405160405180910390a4505050565b60008373ffffffffffffffffffffffffffffffffffffffff168373ffffffffffffffffffffffffffffffffffffffff161480610de857508273ffffffffffffffffffffffffffffffffffffffff166004600084815260200190815260200160002060009054906101000a900473ffffffffffffffffffffffffffffffffffffffff1673ffffffffffffffffffffffffffffffffffffffff16145b80610e795750600560008573ffffffffffffffffffffffffffffffffffffffff1673ffffffffffffffffffffffffffffffffffffffff16815260200190815260200160002060008473ffffffffffffffffffffffffffffffffffffffff1673ffffffffffffffffffffffffffffffffffffffff16815260200190815260200160002060009054906101000a900460ff165b90509392505050565b8373ffffffffffffffffffffffffffffffffffffffff168373ffffffffffffffffffffffffffffffffffffffff1614610ef0576040517f08c379a0000000000000000000000000000000000000000000000000000000008152600401610ee790611e76565b60405180910390fd5b600073ffffffffffffffffffffffffffffffffffffffff168273ffffffffffffffffffffffffffffffffffffffff161415610f60576040517f08c379a0000000000000000000000000000000000000000000000000000000008152600401610f5790611d56565b60405180910390fd5b610f6c84600083610c9c565b6001600360008573ffffffffffffffffffffffffffffffffffffffff1673ffffffffffffffffffffffffffffffffffffffff1681526020019081526020016000206000828254610fbc9190611fd1565b925050819055506001600360008473ffffffffffffffffffffffffffffffffffffffff1673ffffffffffffffffffffffffffffffffffffffff16815260200190815260200160002060008282546110139190611f4a565b92505081905550816002600083815260200190815260200160002060006101000a81548173ffffffffffffffffffffffffffffffffffffffff021916908373ffffffffffffffffffffffffffffffffffffffff160217905550808273ffffffffffffffffffffffffffffffffffffffff168473ffffffffffffffffffffffffffffffffffffffff167fddf252ad1be2c89b69c2b068fc378daa952ba7f163c4a11628f55a4df523b3ef60405160405180910390a450505050565b600073ffffffffffffffffffffffffffffffffffffffff168273ffffffffffffffffffffffffffffffffffffffff16141561113d576040517f08c379a000000000000000000000000000000000000000000000000000000000815260040161113490611d96565b60405180910390fd5b600073ffffffffffffffffffffffffffffffffffffffff166002600083815260200190815260200160002060009054906101000a900473ffffffffffffffffffffffffffffffffffffffff1673ffffffffffffffffffffffffffffffffffffffff16146111df576040517f08c379a00000000000000000000000000000000000000000000000000000000081526004016111d690611e36565b60405180910390fd5b6001600360008473ffffffffffffffffffffffffffffffffffffffff1673ffffffffffffffffffffffffffffffffffffffff168152602001908152602001600020600082825461122f9190611f4a565b92505081905550816002600083815260200190815260200160002060006101000a81548173ffffffffffffffffffffffffffffffffffffffff021916908373ffffffffffffffffffffffffffffffffffffffff160217905550808273ffffffffffffffffffffffffffffffffffffffff16600073ffffffffffffffffffffffffffffffffffffffff167fddf252ad1be2c89b69c2b068fc378daa952ba7f163c4a11628f55a4df523b3ef60405160405180910390a45050565b60006112f3826107ab565b90508073ffffffffffffffffffffffffffffffffffffffff163373ffffffffffffffffffffffffffffffffffffffff1614611363576040517f08c379a000000000000000000000000000000000000000000000000000000000815260040161135a90611df6565b60405180910390fd5b61136f81600084610c9c565b6001600360008373ffffffffffffffffffffffffffffffffffffffff1673ffffffffffffffffffffffffffffffffffffffff16815260200190815260200160002060008282546113bf9190611fd1565b925050819055506002600083815260200190815260200160002060006101000a81549073ffffffffffffffffffffffffffffffffffffffff021916905581600073ffffffffffffffffffffffffffffffffffffffff168273ffffffffffffffffffffffffffffffffffffffff167fddf252ad1be2c89b69c2b068fc378daa952ba7f163c4a11628f55a4df523b3ef60405160405180910390a45050565b61146885858585610e82565b61147484848484611632565b6114b3576040517f08c379a00000000000000000000000000000000000000000000000000000000081526004016114aa90611e56565b60405180910390fd5b5050505050565b606060405180602001604052806000815250905090565b60606000821415611519576040518060400160405280600181526020017f3000000000000000000000000000000000000000000000000000000000000000815250905061162d565b600082905060005b6000821461154b5780806115349061211e565b915050600a826115449190611fa0565b9150611521565b60008167ffffffffffffffff81111561156757611566612254565b5b6040519080825280601f01601f1916602001820160405280156115995781602001600182028036833780820191505090505b5090505b60008514611626576001826115b29190611fd1565b9150600a856115c19190612167565b60306115cd9190611f4a565b60f81b8183815181106115e3576115e2612225565b5b60200101907effffffffffffffffffffffffffffffffffffffffffffffffffffffffffffff1916908160001a905350600a8561161f9190611fa0565b945061159d565b8093505050505b919050565b600063150b7a0260e01b7bffffffffffffffffffffffffffffffffffffffffffffffffffffffff19168473ffffffffffffffffffffffffffffffffffffffff1663150b7a02338887876040518563ffffffff1660e01b815260040161169a9493929190611cad565b602060405180830381600087803b1580156116b457600080fd5b505af11580156116c8573d6000803e3d6000fd5b505050506040513d601f19601f820116820180604052508101906116ec91906119c3565b505060019050949350505050565b600061170d61170884611ed6565b611eb1565b90508281526020810184848401111561172957611728612288565b5b611734848285612079565b509392505050565b60008135905061174b8161246b565b92915050565b60008135905061176081612482565b92915050565b60008135905061177581612499565b92915050565b60008151905061178a81612499565b92915050565b600082601f8301126117a5576117a4612283565b5b81356117b58482602086016116fa565b91505092915050565b6000813590506117cd816124b0565b92915050565b6000602082840312156117e9576117e8612292565b5b60006117f78482850161173c565b91505092915050565b6000806040838503121561181757611816612292565b5b60006118258582860161173c565b92505060206118368582860161173c565b9150509250929050565b60008060006060848603121561185957611858612292565b5b60006118678682870161173c565b93505060206118788682870161173c565b9250506040611889868287016117be565b9150509250925092565b600080600080608085870312156118ad576118ac612292565b5b60006118bb8782880161173c565b94505060206118cc8782880161173c565b93505060406118dd878288016117be565b925050606085013567ffffffffffffffff8111156118fe576118fd61228d565b5b61190a87828801611790565b91505092959194509250565b6000806040838503121561192d5761192c612292565b5b600061193b8582860161173c565b925050602061194c85828601611751565b9150509250929050565b6000806040838503121561196d5761196c612292565b5b600061197b8582860161173c565b925050602061198c858286016117be565b9150509250929050565b6000602082840312156119ac576119ab612292565b5b60006119ba84828501611766565b91505092915050565b6000602082840312156119d9576119d8612292565b5b60006119e78482850161177b565b91505092915050565b600060208284031215611a0657611a05612292565b5b6000611a14848285016117be565b91505092915050565b611a2681612005565b82525050565b611a3581612017565b82525050565b6000611a4682611f07565b611a508185611f1d565b9350611a60818560208601612088565b611a6981612297565b840191505092915050565b6000611a7f82611f12565b611a898185611f2e565b9350611a99818560208601612088565b611aa281612297565b840191505092915050565b6000611ab882611f12565b611ac28185611f3f565b9350611ad2818560208601612088565b80840191505092915050565b6000611aeb601683611f2e565b9150611af6826122a8565b602082019050919050565b6000611b0e601c83611f2e565b9150611b19826122d1565b602082019050919050565b6000611b31601e83611f2e565b9150611b3c826122fa565b602082019050919050565b6000611b54601483611f2e565b9150611b5f82612323565b602082019050919050565b6000611b77601383611f2e565b9150611b828261234c565b602082019050919050565b6000611b9a601483611f2e565b9150611ba582612375565b602082019050919050565b6000611bbd601283611f2e565b9150611bc88261239e565b602082019050919050565b6000611be0600f83611f2e565b9150611beb826123c7565b602082019050919050565b6000611c03601483611f2e565b9150611c0e826123f0565b602082019050919050565b6000611c26601283611f2e565b9150611c3182612419565b602082019050919050565b6000611c49600983611f2e565b9150611c5482612442565b602082019050919050565b611c688161206f565b82525050565b6000611c7a8285611aad565b9150611c868284611aad565b91508190509392505050565b6000602082019050611ca76000830184611a1d565b92915050565b6000608082019050611cc26000830187611a1d565b611ccf6020830186611a1d565b611cdc6040830185611c5f565b8181036060830152611cee8184611a3b565b905095945050505050565b6000602082019050611d0e6000830184611a2c565b92915050565b60006020820190508181036000830152611d2e8184611a74565b905092915050565b60006020820190508181036000830152611d4f81611ade565b9050919050565b60006020820190508181036000830152611d6f81611b01565b9050919050565b60006020820190508181036000830152611d8f81611b24565b9050919050565b60006020820190508181036000830152611daf81611b47565b9050919050565b60006020820190508181036000830152611dcf81611b6a565b9050919050565b60006020820190508181036000830152611def81611b8d565b9050919050565b60006020820190508181036000830152611e0f81611bb0565b9050919050565b60006020820190508181036000830152611e2f81611bd3565b9050919050565b60006020820190508181036000830152611e4f81611bf6565b9050919050565b60006020820190508181036000830152611e6f81611c19565b9050919050565b60006020820190508181036000830152611e8f81611c3c565b9050919050565b6000602082019050611eab6000830184611c5f565b92915050565b6000611ebb611ecc565b9050611ec782826120ed565b919050565b6000604051905090565b600067ffffffffffffffff821115611ef157611ef0612254565b5b611efa82612297565b9050602081019050919050565b600081519050919050565b600081519050919050565b600082825260208201905092915050565b600082825260208201905092915050565b600081905092915050565b6000611f558261206f565b9150611f608361206f565b9250827fffffffffffffffffffffffffffffffffffffffffffffffffffffffffffffffff03821115611f9557611f94612198565b5b828201905092915050565b6000611fab8261206f565b9150611fb68361206f565b925082611fc657611fc56121c7565b5b828204905092915050565b6000611fdc8261206f565b9150611fe78361206f565b925082821015611ffa57611ff9612198565b5b828203905092915050565b60006120108261204f565b9050919050565b60008115159050919050565b60007fffffffff0000000000000000000000000000000000000000000000000000000082169050919050565b600073ffffffffffffffffffffffffffffffffffffffff82169050919050565b6000819050919050565b82818337600083830152505050565b60005b838110156120a657808201518184015260208101905061208b565b838111156120b5576000848401525b50505050565b600060028204905060018216806120d357607f821691505b602082108114156120e7576120e66121f6565b5b50919050565b6120f682612297565b810181811067ffffffffffffffff8211171561211557612114612254565b5b80604052505050565b60006121298261206f565b91507fffffffffffffffffffffffffffffffffffffffffffffffffffffffffffffffff82141561215c5761215b612198565b5b600182019050919050565b60006121728261206f565b915061217d8361206f565b92508261218d5761218c6121c7565b5b828206905092915050565b7f4e487b7100000000000000000000000000000000000000000000000000000000600052601160045260246000fd5b7f4e487b7100000000000000000000000000000000000000000000000000000000600052601260045260246000fd5b7f4e487b7100000000000000000000000000000000000000000000000000000000600052602260045260246000fd5b7f4e487b7100000000000000000000000000000000000000000000000000000000600052603260045260246000fd5b7f4e487b7100000000000000000000000000000000000000000000000000000000600052604160045260246000fd5b600080fd5b600080fd5b600080fd5b600080fd5b6000601f19601f8301169050919050565b7f6e6f74206f776e6572206e6f7220617070726f76656400000000000000000000600082015250565b7f7472616e7366657220746f20746865207a65726f206164647265737300000000600082015250565b7f6e6f74206f776e6572206e6f7220617070726f76656420666f7220616c6c0000600082015250565b7f6d696e7420746f207a65726f2061646472657373000000000000000000000000600082015250565b7f746f6b656e20646f65736e277420657869737400000000000000000000000000600082015250565b7f6f776e6572203d207a65726f2061646472657373000000000000000000000000600082015250565b7f6e6f74206f776e6572206f6620746f6b656e0000000000000000000000000000600082015250565b7f546f6b656e204e6f742045786973740000000000000000000000000000000000600082015250565b7f746f6b656e20616c7265616479206d696e746564000000000000000000000000600082015250565b7f6e6f742045524337323152656365697665720000000000000000000000000000600082015250565b7f6e6f74206f776e65720000000000000000000000000000000000000000000000600082015250565b61247481612005565b811461247f57600080fd5b50565b61248b81612017565b811461249657600080fd5b50565b6124a281612023565b81146124ad57600080fd5b50565b6124b98161206f565b81146124c457600080fd5b5056fea2646970667358221220970d787aacc2b30c2534d92f716887223fec191d9bfb1877e71fd9a34a63527a64736f6c63430008070033",
					"opcodes": "PUSH1 0x80 PUSH1 0x40 MSTORE CALLVALUE DUP1 ISZERO PUSH3 0x11 JUMPI PUSH1 0x0 DUP1 REVERT JUMPDEST POP PUSH1 0x40 MLOAD PUSH3 0x28B5 CODESIZE SUB DUP1 PUSH3 0x28B5 DUP4 CODECOPY DUP2 DUP2 ADD PUSH1 0x40 MSTORE DUP2 ADD SWAP1 PUSH3 0x37 SWAP2 SWAP1 PUSH3 0x19F JUMP JUMPDEST DUP2 PUSH1 0x0 SWAP1 DUP1 MLOAD SWAP1 PUSH1 0x20 ADD SWAP1 PUSH3 0x4F SWAP3 SWAP2 SWAP1 PUSH3 0x71 JUMP JUMPDEST POP DUP1 PUSH1 0x1 SWAP1 DUP1 MLOAD SWAP1 PUSH1 0x20 ADD SWAP1 PUSH3 0x68 SWAP3 SWAP2 SWAP1 PUSH3 0x71 JUMP JUMPDEST POP POP POP PUSH3 0x3A8 JUMP JUMPDEST DUP3 DUP1 SLOAD PUSH3 0x7F SWAP1 PUSH3 0x2B9 JUMP JUMPDEST SWAP1 PUSH1 0x0 MSTORE PUSH1 0x20 PUSH1 0x0 KECCAK256 SWAP1 PUSH1 0x1F ADD PUSH1 0x20 SWAP1 DIV DUP2 ADD SWAP3 DUP3 PUSH3 0xA3 JUMPI PUSH1 0x0 DUP6 SSTORE PUSH3 0xEF JUMP JUMPDEST DUP3 PUSH1 0x1F LT PUSH3 0xBE JUMPI DUP1 MLOAD PUSH1 0xFF NOT AND DUP4 DUP1 ADD OR DUP6 SSTORE PUSH3 0xEF JUMP JUMPDEST DUP3 DUP1 ADD PUSH1 0x1 ADD DUP6 SSTORE DUP3 ISZERO PUSH3 0xEF JUMPI SWAP2 DUP3 ADD JUMPDEST DUP3 DUP2 GT ISZERO PUSH3 0xEE JUMPI DUP3 MLOAD DUP3 SSTORE SWAP2 PUSH1 0x20 ADD SWAP2 SWAP1 PUSH1 0x1 ADD SWAP1 PUSH3 0xD1 JUMP JUMPDEST JUMPDEST POP SWAP1 POP PUSH3 0xFE SWAP2 SWAP1 PUSH3 0x102 JUMP JUMPDEST POP SWAP1 JUMP JUMPDEST JUMPDEST DUP1 DUP3 GT ISZERO PUSH3 0x11D JUMPI PUSH1 0x0 DUP2 PUSH1 0x0 SWAP1 SSTORE POP PUSH1 0x1 ADD PUSH3 0x103 JUMP JUMPDEST POP SWAP1 JUMP JUMPDEST PUSH1 0x0 PUSH3 0x138 PUSH3 0x132 DUP5 PUSH3 0x24D JUMP JUMPDEST PUSH3 0x224 JUMP JUMPDEST SWAP1 POP DUP3 DUP2 MSTORE PUSH1 0x20 DUP2 ADD DUP5 DUP5 DUP5 ADD GT ISZERO PUSH3 0x157 JUMPI PUSH3 0x156 PUSH3 0x388 JUMP JUMPDEST JUMPDEST PUSH3 0x164 DUP5 DUP3 DUP6 PUSH3 0x283 JUMP JUMPDEST POP SWAP4 SWAP3 POP POP POP JUMP JUMPDEST PUSH1 0x0 DUP3 PUSH1 0x1F DUP4 ADD SLT PUSH3 0x184 JUMPI PUSH3 0x183 PUSH3 0x383 JUMP JUMPDEST JUMPDEST DUP2 MLOAD PUSH3 0x196 DUP5 DUP3 PUSH1 0x20 DUP7 ADD PUSH3 0x121 JUMP JUMPDEST SWAP2 POP POP SWAP3 SWAP2 POP POP JUMP JUMPDEST PUSH1 0x0 DUP1 PUSH1 0x40 DUP4 DUP6 SUB SLT ISZERO PUSH3 0x1B9 JUMPI PUSH3 0x1B8 PUSH3 0x392 JUMP JUMPDEST JUMPDEST PUSH1 0x0 DUP4 ADD MLOAD PUSH8 0xFFFFFFFFFFFFFFFF DUP2 GT ISZERO PUSH3 0x1DA JUMPI PUSH3 0x1D9 PUSH3 0x38D JUMP JUMPDEST JUMPDEST PUSH3 0x1E8 DUP6 DUP3 DUP7 ADD PUSH3 0x16C JUMP JUMPDEST SWAP3 POP POP PUSH1 0x20 DUP4 ADD MLOAD PUSH8 0xFFFFFFFFFFFFFFFF DUP2 GT ISZERO PUSH3 0x20C JUMPI PUSH3 0x20B PUSH3 0x38D JUMP JUMPDEST JUMPDEST PUSH3 0x21A DUP6 DUP3 DUP7 ADD PUSH3 0x16C JUMP JUMPDEST SWAP2 POP POP SWAP3 POP SWAP3 SWAP1 POP JUMP JUMPDEST PUSH1 0x0 PUSH3 0x230 PUSH3 0x243 JUMP JUMPDEST SWAP1 POP PUSH3 0x23E DUP3 DUP3 PUSH3 0x2EF JUMP JUMPDEST SWAP2 SWAP1 POP JUMP JUMPDEST PUSH1 0x0 PUSH1 0x40 MLOAD SWAP1 POP SWAP1 JUMP JUMPDEST PUSH1 0x0 PUSH8 0xFFFFFFFFFFFFFFFF DUP3 GT ISZERO PUSH3 0x26B JUMPI PUSH3 0x26A PUSH3 0x354 JUMP JUMPDEST JUMPDEST PUSH3 0x276 DUP3 PUSH3 0x397 JUMP JUMPDEST SWAP1 POP PUSH1 0x20 DUP2 ADD SWAP1 POP SWAP2 SWAP1 POP JUMP JUMPDEST PUSH1 0x0 JUMPDEST DUP4 DUP2 LT ISZERO PUSH3 0x2A3 JUMPI DUP1 DUP3 ADD MLOAD DUP2 DUP5 ADD MSTORE PUSH1 0x20 DUP2 ADD SWAP1 POP PUSH3 0x286 JUMP JUMPDEST DUP4 DUP2 GT ISZERO PUSH3 0x2B3 JUMPI PUSH1 0x0 DUP5 DUP5 ADD MSTORE JUMPDEST POP POP POP POP JUMP JUMPDEST PUSH1 0x0 PUSH1 0x2 DUP3 DIV SWAP1 POP PUSH1 0x1 DUP3 AND DUP1 PUSH3 0x2D2 JUMPI PUSH1 0x7F DUP3 AND SWAP2 POP JUMPDEST PUSH1 0x20 DUP3 LT DUP2 EQ ISZERO PUSH3 0x2E9 JUMPI PUSH3 0x2E8 PUSH3 0x325 JUMP JUMPDEST JUMPDEST POP SWAP2 SWAP1 POP JUMP JUMPDEST PUSH3 0x2FA DUP3 PUSH3 0x397 JUMP JUMPDEST DUP2 ADD DUP2 DUP2 LT PUSH8 0xFFFFFFFFFFFFFFFF DUP3 GT OR ISZERO PUSH3 0x31C JUMPI PUSH3 0x31B PUSH3 0x354 JUMP JUMPDEST JUMPDEST DUP1 PUSH1 0x40 MSTORE POP POP POP JUMP JUMPDEST PUSH32 0x4E487B7100000000000000000000000000000000000000000000000000000000 PUSH1 0x0 MSTORE PUSH1 0x22 PUSH1 0x4 MSTORE PUSH1 0x24 PUSH1 0x0 REVERT JUMPDEST PUSH32 0x4E487B7100000000000000000000000000000000000000000000000000000000 PUSH1 0x0 MSTORE PUSH1 0x41 PUSH1 0x4 MSTORE PUSH1 0x24 PUSH1 0x0 REVERT JUMPDEST PUSH1 0x0 DUP1 REVERT JUMPDEST PUSH1 0x0 DUP1 REVERT JUMPDEST PUSH1 0x0 DUP1 REVERT JUMPDEST PUSH1 0x0 DUP1 REVERT JUMPDEST PUSH1 0x0 PUSH1 0x1F NOT PUSH1 0x1F DUP4 ADD AND SWAP1 POP SWAP2 SWAP1 POP JUMP JUMPDEST PUSH2 0x24FD DUP1 PUSH3 0x3B8 PUSH1 0x0 CODECOPY PUSH1 0x0 RETURN INVALID PUSH1 0x80 PUSH1 0x40 MSTORE CALLVALUE DUP1 ISZERO PUSH2 0x10 JUMPI PUSH1 0x0 DUP1 REVERT JUMPDEST POP PUSH1 0x4 CALLDATASIZE LT PUSH2 0xF5 JUMPI PUSH1 0x0 CALLDATALOAD PUSH1 0xE0 SHR DUP1 PUSH4 0x42966C68 GT PUSH2 0x97 JUMPI DUP1 PUSH4 0xA22CB465 GT PUSH2 0x66 JUMPI DUP1 PUSH4 0xA22CB465 EQ PUSH2 0x282 JUMPI DUP1 PUSH4 0xB88D4FDE EQ PUSH2 0x29E JUMPI DUP1 PUSH4 0xC87B56DD EQ PUSH2 0x2BA JUMPI DUP1 PUSH4 0xE985E9C5 EQ PUSH2 0x2EA JUMPI PUSH2 0xF5 JUMP JUMPDEST DUP1 PUSH4 0x42966C68 EQ PUSH2 0x1E8 JUMPI DUP1 PUSH4 0x6352211E EQ PUSH2 0x204 JUMPI DUP1 PUSH4 0x70A08231 EQ PUSH2 0x234 JUMPI DUP1 PUSH4 0x95D89B41 EQ PUSH2 0x264 JUMPI PUSH2 0xF5 JUMP JUMPDEST DUP1 PUSH4 0x95EA7B3 GT PUSH2 0xD3 JUMPI DUP1 PUSH4 0x95EA7B3 EQ PUSH2 0x178 JUMPI DUP1 PUSH4 0x23B872DD EQ PUSH2 0x194 JUMPI DUP1 PUSH4 0x40C10F19 EQ PUSH2 0x1B0 JUMPI DUP1 PUSH4 0x42842E0E EQ PUSH2 0x1CC JUMPI PUSH2 0xF5 JUMP JUMPDEST DUP1 PUSH4 0x1FFC9A7 EQ PUSH2 0xFA JUMPI DUP1 PUSH4 0x6FDDE03 EQ PUSH2 0x12A JUMPI DUP1 PUSH4 0x81812FC EQ PUSH2 0x148 JUMPI JUMPDEST PUSH1 0x0 DUP1 REVERT JUMPDEST PUSH2 0x114 PUSH1 0x4 DUP1 CALLDATASIZE SUB DUP2 ADD SWAP1 PUSH2 0x10F SWAP2 SWAP1 PUSH2 0x1996 JUMP JUMPDEST PUSH2 0x31A JUMP JUMPDEST PUSH1 0x40 MLOAD PUSH2 0x121 SWAP2 SWAP1 PUSH2 0x1CF9 JUMP JUMPDEST PUSH1 0x40 MLOAD DUP1 SWAP2 SUB SWAP1 RETURN JUMPDEST PUSH2 0x132 PUSH2 0x454 JUMP JUMPDEST PUSH1 0x40 MLOAD PUSH2 0x13F SWAP2 SWAP1 PUSH2 0x1D14 JUMP JUMPDEST PUSH1 0x40 MLOAD DUP1 SWAP2 SUB SWAP1 RETURN JUMPDEST PUSH2 0x162 PUSH1 0x4 DUP1 CALLDATASIZE SUB DUP2 ADD SWAP1 PUSH2 0x15D SWAP2 SWAP1 PUSH2 0x19F0 JUMP JUMPDEST PUSH2 0x4E2 JUMP JUMPDEST PUSH1 0x40 MLOAD PUSH2 0x16F SWAP2 SWAP1 PUSH2 0x1C92 JUMP JUMPDEST PUSH1 0x40 MLOAD DUP1 SWAP2 SUB SWAP1 RETURN JUMPDEST PUSH2 0x192 PUSH1 0x4 DUP1 CALLDATASIZE SUB DUP2 ADD SWAP1 PUSH2 0x18D SWAP2 SWAP1 PUSH2 0x1956 JUMP JUMPDEST PUSH2 0x5C1 JUMP JUMPDEST STOP JUMPDEST PUSH2 0x1AE PUSH1 0x4 DUP1 CALLDATASIZE SUB DUP2 ADD SWAP1 PUSH2 0x1A9 SWAP2 SWAP1 PUSH2 0x1840 JUMP JUMPDEST PUSH2 0x708 JUMP JUMPDEST STOP JUMPDEST PUSH2 0x1CA PUSH1 0x4 DUP1 CALLDATASIZE SUB DUP2 ADD SWAP1 PUSH2 0x1C5 SWAP2 SWAP1 PUSH2 0x1956 JUMP JUMPDEST PUSH2 0x771 JUMP JUMPDEST STOP JUMPDEST PUSH2 0x1E6 PUSH1 0x4 DUP1 CALLDATASIZE SUB DUP2 ADD SWAP1 PUSH2 0x1E1 SWAP2 SWAP1 PUSH2 0x1840 JUMP JUMPDEST PUSH2 0x77F JUMP JUMPDEST STOP JUMPDEST PUSH2 0x202 PUSH1 0x4 DUP1 CALLDATASIZE SUB DUP2 ADD SWAP1 PUSH2 0x1FD SWAP2 SWAP1 PUSH2 0x19F0 JUMP JUMPDEST PUSH2 0x79F JUMP JUMPDEST STOP JUMPDEST PUSH2 0x21E PUSH1 0x4 DUP1 CALLDATASIZE SUB DUP2 ADD SWAP1 PUSH2 0x219 SWAP2 SWAP1 PUSH2 0x19F0 JUMP JUMPDEST PUSH2 0x7AB JUMP JUMPDEST PUSH1 0x40 MLOAD PUSH2 0x22B SWAP2 SWAP1 PUSH2 0x1C92 JUMP JUMPDEST PUSH1 0x40 MLOAD DUP1 SWAP2 SUB SWAP1 RETURN JUMPDEST PUSH2 0x24E PUSH1 0x4 DUP1 CALLDATASIZE SUB DUP2 ADD SWAP1 PUSH2 0x249 SWAP2 SWAP1 PUSH2 0x17D3 JUMP JUMPDEST PUSH2 0x858 JUMP JUMPDEST PUSH1 0x40 MLOAD PUSH2 0x25B SWAP2 SWAP1 PUSH2 0x1E96 JUMP JUMPDEST PUSH1 0x40 MLOAD DUP1 SWAP2 SUB SWAP1 RETURN JUMPDEST PUSH2 0x26C PUSH2 0x910 JUMP JUMPDEST PUSH1 0x40 MLOAD PUSH2 0x279 SWAP2 SWAP1 PUSH2 0x1D14 JUMP JUMPDEST PUSH1 0x40 MLOAD DUP1 SWAP2 SUB SWAP1 RETURN JUMPDEST PUSH2 0x29C PUSH1 0x4 DUP1 CALLDATASIZE SUB DUP2 ADD SWAP1 PUSH2 0x297 SWAP2 SWAP1 PUSH2 0x1916 JUMP JUMPDEST PUSH2 0x99E JUMP JUMPDEST STOP JUMPDEST PUSH2 0x2B8 PUSH1 0x4 DUP1 CALLDATASIZE SUB DUP2 ADD SWAP1 PUSH2 0x2B3 SWAP2 SWAP1 PUSH2 0x1893 JUMP JUMPDEST PUSH2 0xA9B JUMP JUMPDEST STOP JUMPDEST PUSH2 0x2D4 PUSH1 0x4 DUP1 CALLDATASIZE SUB DUP2 ADD SWAP1 PUSH2 0x2CF SWAP2 SWAP1 PUSH2 0x19F0 JUMP JUMPDEST PUSH2 0xB06 JUMP JUMPDEST PUSH1 0x40 MLOAD PUSH2 0x2E1 SWAP2 SWAP1 PUSH2 0x1D14 JUMP JUMPDEST PUSH1 0x40 MLOAD DUP1 SWAP2 SUB SWAP1 RETURN JUMPDEST PUSH2 0x304 PUSH1 0x4 DUP1 CALLDATASIZE SUB DUP2 ADD SWAP1 PUSH2 0x2FF SWAP2 SWAP1 PUSH2 0x1800 JUMP JUMPDEST PUSH2 0xC08 JUMP JUMPDEST PUSH1 0x40 MLOAD PUSH2 0x311 SWAP2 SWAP1 PUSH2 0x1CF9 JUMP JUMPDEST PUSH1 0x40 MLOAD DUP1 SWAP2 SUB SWAP1 RETURN JUMPDEST PUSH1 0x0 PUSH32 0x80AC58CD00000000000000000000000000000000000000000000000000000000 PUSH28 0xFFFFFFFFFFFFFFFFFFFFFFFFFFFFFFFFFFFFFFFFFFFFFFFFFFFFFFFF NOT AND DUP3 PUSH28 0xFFFFFFFFFFFFFFFFFFFFFFFFFFFFFFFFFFFFFFFFFFFFFFFFFFFFFFFF NOT AND EQ DUP1 PUSH2 0x3E5 JUMPI POP PUSH32 0x1FFC9A700000000000000000000000000000000000000000000000000000000 PUSH28 0xFFFFFFFFFFFFFFFFFFFFFFFFFFFFFFFFFFFFFFFFFFFFFFFFFFFFFFFF NOT AND DUP3 PUSH28 0xFFFFFFFFFFFFFFFFFFFFFFFFFFFFFFFFFFFFFFFFFFFFFFFFFFFFFFFF NOT AND EQ JUMPDEST DUP1 PUSH2 0x44D JUMPI POP PUSH32 0x5B5E139F00000000000000000000000000000000000000000000000000000000 PUSH28 0xFFFFFFFFFFFFFFFFFFFFFFFFFFFFFFFFFFFFFFFFFFFFFFFFFFFFFFFF NOT AND DUP3 PUSH28 0xFFFFFFFFFFFFFFFFFFFFFFFFFFFFFFFFFFFFFFFFFFFFFFFFFFFFFFFF NOT AND EQ JUMPDEST SWAP1 POP SWAP2 SWAP1 POP JUMP JUMPDEST PUSH1 0x0 DUP1 SLOAD PUSH2 0x461 SWAP1 PUSH2 0x20BB JUMP JUMPDEST DUP1 PUSH1 0x1F ADD PUSH1 0x20 DUP1 SWAP2 DIV MUL PUSH1 0x20 ADD PUSH1 0x40 MLOAD SWAP1 DUP2 ADD PUSH1 0x40 MSTORE DUP1 SWAP3 SWAP2 SWAP1 DUP2 DUP2 MSTORE PUSH1 0x20 ADD DUP3 DUP1 SLOAD PUSH2 0x48D SWAP1 PUSH2 0x20BB JUMP JUMPDEST DUP1 ISZERO PUSH2 0x4DA JUMPI DUP1 PUSH1 0x1F LT PUSH2 0x4AF JUMPI PUSH2 0x100 DUP1 DUP4 SLOAD DIV MUL DUP4 MSTORE SWAP2 PUSH1 0x20 ADD SWAP2 PUSH2 0x4DA JUMP JUMPDEST DUP3 ADD SWAP2 SWAP1 PUSH1 0x0 MSTORE PUSH1 0x20 PUSH1 0x0 KECCAK256 SWAP1 JUMPDEST DUP2 SLOAD DUP2 MSTORE SWAP1 PUSH1 0x1 ADD SWAP1 PUSH1 0x20 ADD DUP1 DUP4 GT PUSH2 0x4BD JUMPI DUP3 SWAP1 SUB PUSH1 0x1F AND DUP3 ADD SWAP2 JUMPDEST POP POP POP POP POP DUP2 JUMP JUMPDEST PUSH1 0x0 DUP1 PUSH20 0xFFFFFFFFFFFFFFFFFFFFFFFFFFFFFFFFFFFFFFFF AND PUSH1 0x2 PUSH1 0x0 DUP5 DUP2 MSTORE PUSH1 0x20 ADD SWAP1 DUP2 MSTORE PUSH1 0x20 ADD PUSH1 0x0 KECCAK256 PUSH1 0x0 SWAP1 SLOAD SWAP1 PUSH2 0x100 EXP SWAP1 DIV PUSH20 0xFFFFFFFFFFFFFFFFFFFFFFFFFFFFFFFFFFFFFFFF AND PUSH20 0xFFFFFFFFFFFFFFFFFFFFFFFFFFFFFFFFFFFFFFFF AND EQ ISZERO PUSH2 0x586 JUMPI PUSH1 0x40 MLOAD PUSH32 0x8C379A000000000000000000000000000000000000000000000000000000000 DUP2 MSTORE PUSH1 0x4 ADD PUSH2 0x57D SWAP1 PUSH2 0x1DB6 JUMP JUMPDEST PUSH1 0x40 MLOAD DUP1 SWAP2 SUB SWAP1 REVERT JUMPDEST PUSH1 0x4 PUSH1 0x0 DUP4 DUP2 MSTORE PUSH1 0x20 ADD SWAP1 DUP2 MSTORE PUSH1 0x20 ADD PUSH1 0x0 KECCAK256 PUSH1 0x0 SWAP1 SLOAD SWAP1 PUSH2 0x100 EXP SWAP1 DIV PUSH20 0xFFFFFFFFFFFFFFFFFFFFFFFFFFFFFFFFFFFFFFFF AND SWAP1 POP SWAP2 SWAP1 POP JUMP JUMPDEST PUSH1 0x0 PUSH1 0x2 PUSH1 0x0 DUP4 DUP2 MSTORE PUSH1 0x20 ADD SWAP1 DUP2 MSTORE PUSH1 0x20 ADD PUSH1 0x0 KECCAK256 PUSH1 0x0 SWAP1 SLOAD SWAP1 PUSH2 0x100 EXP SWAP1 DIV PUSH20 0xFFFFFFFFFFFFFFFFFFFFFFFFFFFFFFFFFFFFFFFF AND SWAP1 POP DUP1 PUSH20 0xFFFFFFFFFFFFFFFFFFFFFFFFFFFFFFFFFFFFFFFF AND CALLER PUSH20 0xFFFFFFFFFFFFFFFFFFFFFFFFFFFFFFFFFFFFFFFF AND EQ DUP1 PUSH2 0x6B9 JUMPI POP PUSH1 0x5 PUSH1 0x0 DUP3 PUSH20 0xFFFFFFFFFFFFFFFFFFFFFFFFFFFFFFFFFFFFFFFF AND PUSH20 0xFFFFFFFFFFFFFFFFFFFFFFFFFFFFFFFFFFFFFFFF AND DUP2 MSTORE PUSH1 0x20 ADD SWAP1 DUP2 MSTORE PUSH1 0x20 ADD PUSH1 0x0 KECCAK256 PUSH1 0x0 CALLER PUSH20 0xFFFFFFFFFFFFFFFFFFFFFFFFFFFFFFFFFFFFFFFF AND PUSH20 0xFFFFFFFFFFFFFFFFFFFFFFFFFFFFFFFFFFFFFFFF AND DUP2 MSTORE PUSH1 0x20 ADD SWAP1 DUP2 MSTORE PUSH1 0x20 ADD PUSH1 0x0 KECCAK256 PUSH1 0x0 SWAP1 SLOAD SWAP1 PUSH2 0x100 EXP SWAP1 DIV PUSH1 0xFF AND JUMPDEST PUSH2 0x6F8 JUMPI PUSH1 0x40 MLOAD PUSH32 0x8C379A000000000000000000000000000000000000000000000000000000000 DUP2 MSTORE PUSH1 0x4 ADD PUSH2 0x6EF SWAP1 PUSH2 0x1D76 JUMP JUMPDEST PUSH1 0x40 MLOAD DUP1 SWAP2 SUB SWAP1 REVERT JUMPDEST PUSH2 0x703 DUP2 DUP5 DUP5 PUSH2 0xC9C JUMP JUMPDEST POP POP POP JUMP JUMPDEST PUSH1 0x0 PUSH2 0x713 DUP3 PUSH2 0x7AB JUMP JUMPDEST SWAP1 POP PUSH2 0x720 DUP2 CALLER DUP5 PUSH2 0xD4E JUMP JUMPDEST PUSH2 0x75F JUMPI PUSH1 0x40 MLOAD PUSH32 0x8C379A000000000000000000000000000000000000000000000000000000000 DUP2 MSTORE PUSH1 0x4 ADD PUSH2 0x756 SWAP1 PUSH2 0x1D36 JUMP JUMPDEST PUSH1 0x40 MLOAD DUP1 SWAP2 SUB SWAP1 REVERT JUMPDEST PUSH2 0x76B DUP2 DUP6 DUP6 DUP6 PUSH2 0xE82 JUMP JUMPDEST POP POP POP POP JUMP JUMPDEST PUSH2 0x77B DUP3 DUP3 PUSH2 0x10CD JUMP JUMPDEST POP POP JUMP JUMPDEST PUSH2 0x79A DUP4 DUP4 DUP4 PUSH1 0x40 MLOAD DUP1 PUSH1 0x20 ADD PUSH1 0x40 MSTORE DUP1 PUSH1 0x0 DUP2 MSTORE POP PUSH2 0xA9B JUMP JUMPDEST POP POP POP JUMP JUMPDEST PUSH2 0x7A8 DUP2 PUSH2 0x12E8 JUMP JUMPDEST POP JUMP JUMPDEST PUSH1 0x0 PUSH1 0x2 PUSH1 0x0 DUP4 DUP2 MSTORE PUSH1 0x20 ADD SWAP1 DUP2 MSTORE PUSH1 0x20 ADD PUSH1 0x0 KECCAK256 PUSH1 0x0 SWAP1 SLOAD SWAP1 PUSH2 0x100 EXP SWAP1 DIV PUSH20 0xFFFFFFFFFFFFFFFFFFFFFFFFFFFFFFFFFFFFFFFF AND SWAP1 POP PUSH1 0x0 PUSH20 0xFFFFFFFFFFFFFFFFFFFFFFFFFFFFFFFFFFFFFFFF AND DUP2 PUSH20 0xFFFFFFFFFFFFFFFFFFFFFFFFFFFFFFFFFFFFFFFF AND EQ ISZERO PUSH2 0x853 JUMPI PUSH1 0x40 MLOAD PUSH32 0x8C379A000000000000000000000000000000000000000000000000000000000 DUP2 MSTORE PUSH1 0x4 ADD PUSH2 0x84A SWAP1 PUSH2 0x1DB6 JUMP JUMPDEST PUSH1 0x40 MLOAD DUP1 SWAP2 SUB SWAP1 REVERT JUMPDEST SWAP2 SWAP1 POP JUMP JUMPDEST PUSH1 0x0 DUP1 PUSH20 0xFFFFFFFFFFFFFFFFFFFFFFFFFFFFFFFFFFFFFFFF AND DUP3 PUSH20 0xFFFFFFFFFFFFFFFFFFFFFFFFFFFFFFFFFFFFFFFF AND EQ ISZERO PUSH2 0x8C9 JUMPI PUSH1 0x40 MLOAD PUSH32 0x8C379A000000000000000000000000000000000000000000000000000000000 DUP2 MSTORE PUSH1 0x4 ADD PUSH2 0x8C0 SWAP1 PUSH2 0x1DD6 JUMP JUMPDEST PUSH1 0x40 MLOAD DUP1 SWAP2 SUB SWAP1 REVERT JUMPDEST PUSH1 0x3 PUSH1 0x0 DUP4 PUSH20 0xFFFFFFFFFFFFFFFFFFFFFFFFFFFFFFFFFFFFFFFF AND PUSH20 0xFFFFFFFFFFFFFFFFFFFFFFFFFFFFFFFFFFFFFFFF AND DUP2 MSTORE PUSH1 0x20 ADD SWAP1 DUP2 MSTORE PUSH1 0x20 ADD PUSH1 0x0 KECCAK256 SLOAD SWAP1 POP SWAP2 SWAP1 POP JUMP JUMPDEST PUSH1 0x1 DUP1 SLOAD PUSH2 0x91D SWAP1 PUSH2 0x20BB JUMP JUMPDEST DUP1 PUSH1 0x1F ADD PUSH1 0x20 DUP1 SWAP2 DIV MUL PUSH1 0x20 ADD PUSH1 0x40 MLOAD SWAP1 DUP2 ADD PUSH1 0x40 MSTORE DUP1 SWAP3 SWAP2 SWAP1 DUP2 DUP2 MSTORE PUSH1 0x20 ADD DUP3 DUP1 SLOAD PUSH2 0x949 SWAP1 PUSH2 0x20BB JUMP JUMPDEST DUP1 ISZERO PUSH2 0x996 JUMPI DUP1 PUSH1 0x1F LT PUSH2 0x96B JUMPI PUSH2 0x100 DUP1 DUP4 SLOAD DIV MUL DUP4 MSTORE SWAP2 PUSH1 0x20 ADD SWAP2 PUSH2 0x996 JUMP JUMPDEST DUP3 ADD SWAP2 SWAP1 PUSH1 0x0 MSTORE PUSH1 0x20 PUSH1 0x0 KECCAK256 SWAP1 JUMPDEST DUP2 SLOAD DUP2 MSTORE SWAP1 PUSH1 0x1 ADD SWAP1 PUSH1 0x20 ADD DUP1 DUP4 GT PUSH2 0x979 JUMPI DUP3 SWAP1 SUB PUSH1 0x1F AND DUP3 ADD SWAP2 JUMPDEST POP POP POP POP POP DUP2 JUMP JUMPDEST DUP1 PUSH1 0x5 PUSH1 0x0 CALLER PUSH20 0xFFFFFFFFFFFFFFFFFFFFFFFFFFFFFFFFFFFFFFFF AND PUSH20 0xFFFFFFFFFFFFFFFFFFFFFFFFFFFFFFFFFFFFFFFF AND DUP2 MSTORE PUSH1 0x20 ADD SWAP1 DUP2 MSTORE PUSH1 0x20 ADD PUSH1 0x0 KECCAK256 PUSH1 0x0 DUP5 PUSH20 0xFFFFFFFFFFFFFFFFFFFFFFFFFFFFFFFFFFFFFFFF AND PUSH20 0xFFFFFFFFFFFFFFFFFFFFFFFFFFFFFFFFFFFFFFFF AND DUP2 MSTORE PUSH1 0x20 ADD SWAP1 DUP2 MSTORE PUSH1 0x20 ADD PUSH1 0x0 KECCAK256 PUSH1 0x0 PUSH2 0x100 EXP DUP2 SLOAD DUP2 PUSH1 0xFF MUL NOT AND SWAP1 DUP4 ISZERO ISZERO MUL OR SWAP1 SSTORE POP DUP2 PUSH20 0xFFFFFFFFFFFFFFFFFFFFFFFFFFFFFFFFFFFFFFFF AND CALLER PUSH20 0xFFFFFFFFFFFFFFFFFFFFFFFFFFFFFFFFFFFFFFFF AND PUSH32 0x17307EAB39AB6107E8899845AD3D59BD9653F200F220920489CA2B5937696C31 DUP4 PUSH1 0x40 MLOAD PUSH2 0xA8F SWAP2 SWAP1 PUSH2 0x1CF9 JUMP JUMPDEST PUSH1 0x40 MLOAD DUP1 SWAP2 SUB SWAP1 LOG3 POP POP JUMP JUMPDEST PUSH1 0x0 PUSH2 0xAA6 DUP4 PUSH2 0x7AB JUMP JUMPDEST SWAP1 POP PUSH2 0xAB3 DUP2 CALLER DUP6 PUSH2 0xD4E JUMP JUMPDEST PUSH2 0xAF2 JUMPI PUSH1 0x40 MLOAD PUSH32 0x8C379A000000000000000000000000000000000000000000000000000000000 DUP2 MSTORE PUSH1 0x4 ADD PUSH2 0xAE9 SWAP1 PUSH2 0x1D36 JUMP JUMPDEST PUSH1 0x40 MLOAD DUP1 SWAP2 SUB SWAP1 REVERT JUMPDEST PUSH2 0xAFF DUP2 DUP7 DUP7 DUP7 DUP7 PUSH2 0x145C JUMP JUMPDEST POP POP POP POP POP JUMP JUMPDEST PUSH1 0x60 PUSH1 0x0 PUSH20 0xFFFFFFFFFFFFFFFFFFFFFFFFFFFFFFFFFFFFFFFF AND PUSH1 0x2 PUSH1 0x0 DUP5 DUP2 MSTORE PUSH1 0x20 ADD SWAP1 DUP2 MSTORE PUSH1 0x20 ADD PUSH1 0x0 KECCAK256 PUSH1 0x0 SWAP1 SLOAD SWAP1 PUSH2 0x100 EXP SWAP1 DIV PUSH20 0xFFFFFFFFFFFFFFFFFFFFFFFFFFFFFFFFFFFFFFFF AND PUSH20 0xFFFFFFFFFFFFFFFFFFFFFFFFFFFFFFFFFFFFFFFF AND EQ ISZERO PUSH2 0xBAB JUMPI PUSH1 0x40 MLOAD PUSH32 0x8C379A000000000000000000000000000000000000000000000000000000000 DUP2 MSTORE PUSH1 0x4 ADD PUSH2 0xBA2 SWAP1 PUSH2 0x1E16 JUMP JUMPDEST PUSH1 0x40 MLOAD DUP1 SWAP2 SUB SWAP1 REVERT JUMPDEST PUSH1 0x0 PUSH2 0xBB5 PUSH2 0x14BA JUMP JUMPDEST SWAP1 POP PUSH1 0x0 DUP2 MLOAD GT PUSH2 0xBD5 JUMPI PUSH1 0x40 MLOAD DUP1 PUSH1 0x20 ADD PUSH1 0x40 MSTORE DUP1 PUSH1 0x0 DUP2 MSTORE POP PUSH2 0xC00 JUMP JUMPDEST DUP1 PUSH2 0xBDF DUP5 PUSH2 0x14D1 JUMP JUMPDEST PUSH1 0x40 MLOAD PUSH1 0x20 ADD PUSH2 0xBF0 SWAP3 SWAP2 SWAP1 PUSH2 0x1C6E JUMP JUMPDEST PUSH1 0x40 MLOAD PUSH1 0x20 DUP2 DUP4 SUB SUB DUP2 MSTORE SWAP1 PUSH1 0x40 MSTORE JUMPDEST SWAP2 POP POP SWAP2 SWAP1 POP JUMP JUMPDEST PUSH1 0x0 PUSH1 0x5 PUSH1 0x0 DUP5 PUSH20 0xFFFFFFFFFFFFFFFFFFFFFFFFFFFFFFFFFFFFFFFF AND PUSH20 0xFFFFFFFFFFFFFFFFFFFFFFFFFFFFFFFFFFFFFFFF AND DUP2 MSTORE PUSH1 0x20 ADD SWAP1 DUP2 MSTORE PUSH1 0x20 ADD PUSH1 0x0 KECCAK256 PUSH1 0x0 DUP4 PUSH20 0xFFFFFFFFFFFFFFFFFFFFFFFFFFFFFFFFFFFFFFFF AND PUSH20 0xFFFFFFFFFFFFFFFFFFFFFFFFFFFFFFFFFFFFFFFF AND DUP2 MSTORE PUSH1 0x20 ADD SWAP1 DUP2 MSTORE PUSH1 0x20 ADD PUSH1 0x0 KECCAK256 PUSH1 0x0 SWAP1 SLOAD SWAP1 PUSH2 0x100 EXP SWAP1 DIV PUSH1 0xFF AND SWAP1 POP SWAP3 SWAP2 POP POP JUMP JUMPDEST DUP2 PUSH1 0x4 PUSH1 0x0 DUP4 DUP2 MSTORE PUSH1 0x20 ADD SWAP1 DUP2 MSTORE PUSH1 0x20 ADD PUSH1 0x0 KECCAK256 PUSH1 0x0 PUSH2 0x100 EXP DUP2 SLOAD DUP2 PUSH20 0xFFFFFFFFFFFFFFFFFFFFFFFFFFFFFFFFFFFFFFFF MUL NOT AND SWAP1 DUP4 PUSH20 0xFFFFFFFFFFFFFFFFFFFFFFFFFFFFFFFFFFFFFFFF AND MUL OR SWAP1 SSTORE POP DUP1 DUP3 PUSH20 0xFFFFFFFFFFFFFFFFFFFFFFFFFFFFFFFFFFFFFFFF AND DUP5 PUSH20 0xFFFFFFFFFFFFFFFFFFFFFFFFFFFFFFFFFFFFFFFF AND PUSH32 0x8C5BE1E5EBEC7D5BD14F71427D1E84F3DD0314C0F7B2291E5B200AC8C7C3B925 PUSH1 0x40 MLOAD PUSH1 0x40 MLOAD DUP1 SWAP2 SUB SWAP1 LOG4 POP POP POP JUMP JUMPDEST PUSH1 0x0 DUP4 PUSH20 0xFFFFFFFFFFFFFFFFFFFFFFFFFFFFFFFFFFFFFFFF AND DUP4 PUSH20 0xFFFFFFFFFFFFFFFFFFFFFFFFFFFFFFFFFFFFFFFF AND EQ DUP1 PUSH2 0xDE8 JUMPI POP DUP3 PUSH20 0xFFFFFFFFFFFFFFFFFFFFFFFFFFFFFFFFFFFFFFFF AND PUSH1 0x4 PUSH1 0x0 DUP5 DUP2 MSTORE PUSH1 0x20 ADD SWAP1 DUP2 MSTORE PUSH1 0x20 ADD PUSH1 0x0 KECCAK256 PUSH1 0x0 SWAP1 SLOAD SWAP1 PUSH2 0x100 EXP SWAP1 DIV PUSH20 0xFFFFFFFFFFFFFFFFFFFFFFFFFFFFFFFFFFFFFFFF AND PUSH20 0xFFFFFFFFFFFFFFFFFFFFFFFFFFFFFFFFFFFFFFFF AND EQ JUMPDEST DUP1 PUSH2 0xE79 JUMPI POP PUSH1 0x5 PUSH1 0x0 DUP6 PUSH20 0xFFFFFFFFFFFFFFFFFFFFFFFFFFFFFFFFFFFFFFFF AND PUSH20 0xFFFFFFFFFFFFFFFFFFFFFFFFFFFFFFFFFFFFFFFF AND DUP2 MSTORE PUSH1 0x20 ADD SWAP1 DUP2 MSTORE PUSH1 0x20 ADD PUSH1 0x0 KECCAK256 PUSH1 0x0 DUP5 PUSH20 0xFFFFFFFFFFFFFFFFFFFFFFFFFFFFFFFFFFFFFFFF AND PUSH20 0xFFFFFFFFFFFFFFFFFFFFFFFFFFFFFFFFFFFFFFFF AND DUP2 MSTORE PUSH1 0x20 ADD SWAP1 DUP2 MSTORE PUSH1 0x20 ADD PUSH1 0x0 KECCAK256 PUSH1 0x0 SWAP1 SLOAD SWAP1 PUSH2 0x100 EXP SWAP1 DIV PUSH1 0xFF AND JUMPDEST SWAP1 POP SWAP4 SWAP3 POP POP POP JUMP JUMPDEST DUP4 PUSH20 0xFFFFFFFFFFFFFFFFFFFFFFFFFFFFFFFFFFFFFFFF AND DUP4 PUSH20 0xFFFFFFFFFFFFFFFFFFFFFFFFFFFFFFFFFFFFFFFF AND EQ PUSH2 0xEF0 JUMPI PUSH1 0x40 MLOAD PUSH32 0x8C379A000000000000000000000000000000000000000000000000000000000 DUP2 MSTORE PUSH1 0x4 ADD PUSH2 0xEE7 SWAP1 PUSH2 0x1E76 JUMP JUMPDEST PUSH1 0x40 MLOAD DUP1 SWAP2 SUB SWAP1 REVERT JUMPDEST PUSH1 0x0 PUSH20 0xFFFFFFFFFFFFFFFFFFFFFFFFFFFFFFFFFFFFFFFF AND DUP3 PUSH20 0xFFFFFFFFFFFFFFFFFFFFFFFFFFFFFFFFFFFFFFFF AND EQ ISZERO PUSH2 0xF60 JUMPI PUSH1 0x40 MLOAD PUSH32 0x8C379A000000000000000000000000000000000000000000000000000000000 DUP2 MSTORE PUSH1 0x4 ADD PUSH2 0xF57 SWAP1 PUSH2 0x1D56 JUMP JUMPDEST PUSH1 0x40 MLOAD DUP1 SWAP2 SUB SWAP1 REVERT JUMPDEST PUSH2 0xF6C DUP5 PUSH1 0x0 DUP4 PUSH2 0xC9C JUMP JUMPDEST PUSH1 0x1 PUSH1 0x3 PUSH1 0x0 DUP6 PUSH20 0xFFFFFFFFFFFFFFFFFFFFFFFFFFFFFFFFFFFFFFFF AND PUSH20 0xFFFFFFFFFFFFFFFFFFFFFFFFFFFFFFFFFFFFFFFF AND DUP2 MSTORE PUSH1 0x20 ADD SWAP1 DUP2 MSTORE PUSH1 0x20 ADD PUSH1 0x0 KECCAK256 PUSH1 0x0 DUP3 DUP3 SLOAD PUSH2 0xFBC SWAP2 SWAP1 PUSH2 0x1FD1 JUMP JUMPDEST SWAP3 POP POP DUP2 SWAP1 SSTORE POP PUSH1 0x1 PUSH1 0x3 PUSH1 0x0 DUP5 PUSH20 0xFFFFFFFFFFFFFFFFFFFFFFFFFFFFFFFFFFFFFFFF AND PUSH20 0xFFFFFFFFFFFFFFFFFFFFFFFFFFFFFFFFFFFFFFFF AND DUP2 MSTORE PUSH1 0x20 ADD SWAP1 DUP2 MSTORE PUSH1 0x20 ADD PUSH1 0x0 KECCAK256 PUSH1 0x0 DUP3 DUP3 SLOAD PUSH2 0x1013 SWAP2 SWAP1 PUSH2 0x1F4A JUMP JUMPDEST SWAP3 POP POP DUP2 SWAP1 SSTORE POP DUP2 PUSH1 0x2 PUSH1 0x0 DUP4 DUP2 MSTORE PUSH1 0x20 ADD SWAP1 DUP2 MSTORE PUSH1 0x20 ADD PUSH1 0x0 KECCAK256 PUSH1 0x0 PUSH2 0x100 EXP DUP2 SLOAD DUP2 PUSH20 0xFFFFFFFFFFFFFFFFFFFFFFFFFFFFFFFFFFFFFFFF MUL NOT AND SWAP1 DUP4 PUSH20 0xFFFFFFFFFFFFFFFFFFFFFFFFFFFFFFFFFFFFFFFF AND MUL OR SWAP1 SSTORE POP DUP1 DUP3 PUSH20 0xFFFFFFFFFFFFFFFFFFFFFFFFFFFFFFFFFFFFFFFF AND DUP5 PUSH20 0xFFFFFFFFFFFFFFFFFFFFFFFFFFFFFFFFFFFFFFFF AND PUSH32 0xDDF252AD1BE2C89B69C2B068FC378DAA952BA7F163C4A11628F55A4DF523B3EF PUSH1 0x40 MLOAD PUSH1 0x40 MLOAD DUP1 SWAP2 SUB SWAP1 LOG4 POP POP POP POP JUMP JUMPDEST PUSH1 0x0 PUSH20 0xFFFFFFFFFFFFFFFFFFFFFFFFFFFFFFFFFFFFFFFF AND DUP3 PUSH20 0xFFFFFFFFFFFFFFFFFFFFFFFFFFFFFFFFFFFFFFFF AND EQ ISZERO PUSH2 0x113D JUMPI PUSH1 0x40 MLOAD PUSH32 0x8C379A000000000000000000000000000000000000000000000000000000000 DUP2 MSTORE PUSH1 0x4 ADD PUSH2 0x1134 SWAP1 PUSH2 0x1D96 JUMP JUMPDEST PUSH1 0x40 MLOAD DUP1 SWAP2 SUB SWAP1 REVERT JUMPDEST PUSH1 0x0 PUSH20 0xFFFFFFFFFFFFFFFFFFFFFFFFFFFFFFFFFFFFFFFF AND PUSH1 0x2 PUSH1 0x0 DUP4 DUP2 MSTORE PUSH1 0x20 ADD SWAP1 DUP2 MSTORE PUSH1 0x20 ADD PUSH1 0x0 KECCAK256 PUSH1 0x0 SWAP1 SLOAD SWAP1 PUSH2 0x100 EXP SWAP1 DIV PUSH20 0xFFFFFFFFFFFFFFFFFFFFFFFFFFFFFFFFFFFFFFFF AND PUSH20 0xFFFFFFFFFFFFFFFFFFFFFFFFFFFFFFFFFFFFFFFF AND EQ PUSH2 0x11DF JUMPI PUSH1 0x40 MLOAD PUSH32 0x8C379A000000000000000000000000000000000000000000000000000000000 DUP2 MSTORE PUSH1 0x4 ADD PUSH2 0x11D6 SWAP1 PUSH2 0x1E36 JUMP JUMPDEST PUSH1 0x40 MLOAD DUP1 SWAP2 SUB SWAP1 REVERT JUMPDEST PUSH1 0x1 PUSH1 0x3 PUSH1 0x0 DUP5 PUSH20 0xFFFFFFFFFFFFFFFFFFFFFFFFFFFFFFFFFFFFFFFF AND PUSH20 0xFFFFFFFFFFFFFFFFFFFFFFFFFFFFFFFFFFFFFFFF AND DUP2 MSTORE PUSH1 0x20 ADD SWAP1 DUP2 MSTORE PUSH1 0x20 ADD PUSH1 0x0 KECCAK256 PUSH1 0x0 DUP3 DUP3 SLOAD PUSH2 0x122F SWAP2 SWAP1 PUSH2 0x1F4A JUMP JUMPDEST SWAP3 POP POP DUP2 SWAP1 SSTORE POP DUP2 PUSH1 0x2 PUSH1 0x0 DUP4 DUP2 MSTORE PUSH1 0x20 ADD SWAP1 DUP2 MSTORE PUSH1 0x20 ADD PUSH1 0x0 KECCAK256 PUSH1 0x0 PUSH2 0x100 EXP DUP2 SLOAD DUP2 PUSH20 0xFFFFFFFFFFFFFFFFFFFFFFFFFFFFFFFFFFFFFFFF MUL NOT AND SWAP1 DUP4 PUSH20 0xFFFFFFFFFFFFFFFFFFFFFFFFFFFFFFFFFFFFFFFF AND MUL OR SWAP1 SSTORE POP DUP1 DUP3 PUSH20 0xFFFFFFFFFFFFFFFFFFFFFFFFFFFFFFFFFFFFFFFF AND PUSH1 0x0 PUSH20 0xFFFFFFFFFFFFFFFFFFFFFFFFFFFFFFFFFFFFFFFF AND PUSH32 0xDDF252AD1BE2C89B69C2B068FC378DAA952BA7F163C4A11628F55A4DF523B3EF PUSH1 0x40 MLOAD PUSH1 0x40 MLOAD DUP1 SWAP2 SUB SWAP1 LOG4 POP POP JUMP JUMPDEST PUSH1 0x0 PUSH2 0x12F3 DUP3 PUSH2 0x7AB JUMP JUMPDEST SWAP1 POP DUP1 PUSH20 0xFFFFFFFFFFFFFFFFFFFFFFFFFFFFFFFFFFFFFFFF AND CALLER PUSH20 0xFFFFFFFFFFFFFFFFFFFFFFFFFFFFFFFFFFFFFFFF AND EQ PUSH2 0x1363 JUMPI PUSH1 0x40 MLOAD PUSH32 0x8C379A000000000000000000000000000000000000000000000000000000000 DUP2 MSTORE PUSH1 0x4 ADD PUSH2 0x135A SWAP1 PUSH2 0x1DF6 JUMP JUMPDEST PUSH1 0x40 MLOAD DUP1 SWAP2 SUB SWAP1 REVERT JUMPDEST PUSH2 0x136F DUP2 PUSH1 0x0 DUP5 PUSH2 0xC9C JUMP JUMPDEST PUSH1 0x1 PUSH1 0x3 PUSH1 0x0 DUP4 PUSH20 0xFFFFFFFFFFFFFFFFFFFFFFFFFFFFFFFFFFFFFFFF AND PUSH20 0xFFFFFFFFFFFFFFFFFFFFFFFFFFFFFFFFFFFFFFFF AND DUP2 MSTORE PUSH1 0x20 ADD SWAP1 DUP2 MSTORE PUSH1 0x20 ADD PUSH1 0x0 KECCAK256 PUSH1 0x0 DUP3 DUP3 SLOAD PUSH2 0x13BF SWAP2 SWAP1 PUSH2 0x1FD1 JUMP JUMPDEST SWAP3 POP POP DUP2 SWAP1 SSTORE POP PUSH1 0x2 PUSH1 0x0 DUP4 DUP2 MSTORE PUSH1 0x20 ADD SWAP1 DUP2 MSTORE PUSH1 0x20 ADD PUSH1 0x0 KECCAK256 PUSH1 0x0 PUSH2 0x100 EXP DUP2 SLOAD SWAP1 PUSH20 0xFFFFFFFFFFFFFFFFFFFFFFFFFFFFFFFFFFFFFFFF MUL NOT AND SWAP1 SSTORE DUP2 PUSH1 0x0 PUSH20 0xFFFFFFFFFFFFFFFFFFFFFFFFFFFFFFFFFFFFFFFF AND DUP3 PUSH20 0xFFFFFFFFFFFFFFFFFFFFFFFFFFFFFFFFFFFFFFFF AND PUSH32 0xDDF252AD1BE2C89B69C2B068FC378DAA952BA7F163C4A11628F55A4DF523B3EF PUSH1 0x40 MLOAD PUSH1 0x40 MLOAD DUP1 SWAP2 SUB SWAP1 LOG4 POP POP JUMP JUMPDEST PUSH2 0x1468 DUP6 DUP6 DUP6 DUP6 PUSH2 0xE82 JUMP JUMPDEST PUSH2 0x1474 DUP5 DUP5 DUP5 DUP5 PUSH2 0x1632 JUMP JUMPDEST PUSH2 0x14B3 JUMPI PUSH1 0x40 MLOAD PUSH32 0x8C379A000000000000000000000000000000000000000000000000000000000 DUP2 MSTORE PUSH1 0x4 ADD PUSH2 0x14AA SWAP1 PUSH2 0x1E56 JUMP JUMPDEST PUSH1 0x40 MLOAD DUP1 SWAP2 SUB SWAP1 REVERT JUMPDEST POP POP POP POP POP JUMP JUMPDEST PUSH1 0x60 PUSH1 0x40 MLOAD DUP1 PUSH1 0x20 ADD PUSH1 0x40 MSTORE DUP1 PUSH1 0x0 DUP2 MSTORE POP SWAP1 POP SWAP1 JUMP JUMPDEST PUSH1 0x60 PUSH1 0x0 DUP3 EQ ISZERO PUSH2 0x1519 JUMPI PUSH1 0x40 MLOAD DUP1 PUSH1 0x40 ADD PUSH1 0x40 MSTORE DUP1 PUSH1 0x1 DUP2 MSTORE PUSH1 0x20 ADD PUSH32 0x3000000000000000000000000000000000000000000000000000000000000000 DUP2 MSTORE POP SWAP1 POP PUSH2 0x162D JUMP JUMPDEST PUSH1 0x0 DUP3 SWAP1 POP PUSH1 0x0 JUMPDEST PUSH1 0x0 DUP3 EQ PUSH2 0x154B JUMPI DUP1 DUP1 PUSH2 0x1534 SWAP1 PUSH2 0x211E JUMP JUMPDEST SWAP2 POP POP PUSH1 0xA DUP3 PUSH2 0x1544 SWAP2 SWAP1 PUSH2 0x1FA0 JUMP JUMPDEST SWAP2 POP PUSH2 0x1521 JUMP JUMPDEST PUSH1 0x0 DUP2 PUSH8 0xFFFFFFFFFFFFFFFF DUP2 GT ISZERO PUSH2 0x1567 JUMPI PUSH2 0x1566 PUSH2 0x2254 JUMP JUMPDEST JUMPDEST PUSH1 0x40 MLOAD SWAP1 DUP1 DUP3 MSTORE DUP1 PUSH1 0x1F ADD PUSH1 0x1F NOT AND PUSH1 0x20 ADD DUP3 ADD PUSH1 0x40 MSTORE DUP1 ISZERO PUSH2 0x1599 JUMPI DUP2 PUSH1 0x20 ADD PUSH1 0x1 DUP3 MUL DUP1 CALLDATASIZE DUP4 CALLDATACOPY DUP1 DUP3 ADD SWAP2 POP POP SWAP1 POP JUMPDEST POP SWAP1 POP JUMPDEST PUSH1 0x0 DUP6 EQ PUSH2 0x1626 JUMPI PUSH1 0x1 DUP3 PUSH2 0x15B2 SWAP2 SWAP1 PUSH2 0x1FD1 JUMP JUMPDEST SWAP2 POP PUSH1 0xA DUP6 PUSH2 0x15C1 SWAP2 SWAP1 PUSH2 0x2167 JUMP JUMPDEST PUSH1 0x30 PUSH2 0x15CD SWAP2 SWAP1 PUSH2 0x1F4A JUMP JUMPDEST PUSH1 0xF8 SHL DUP2 DUP4 DUP2 MLOAD DUP2 LT PUSH2 0x15E3 JUMPI PUSH2 0x15E2 PUSH2 0x2225 JUMP JUMPDEST JUMPDEST PUSH1 0x20 ADD ADD SWAP1 PUSH31 0xFFFFFFFFFFFFFFFFFFFFFFFFFFFFFFFFFFFFFFFFFFFFFFFFFFFFFFFFFFFFFF NOT AND SWAP1 DUP2 PUSH1 0x0 BYTE SWAP1 MSTORE8 POP PUSH1 0xA DUP6 PUSH2 0x161F SWAP2 SWAP1 PUSH2 0x1FA0 JUMP JUMPDEST SWAP5 POP PUSH2 0x159D JUMP JUMPDEST DUP1 SWAP4 POP POP POP POP JUMPDEST SWAP2 SWAP1 POP JUMP JUMPDEST PUSH1 0x0 PUSH4 0x150B7A02 PUSH1 0xE0 SHL PUSH28 0xFFFFFFFFFFFFFFFFFFFFFFFFFFFFFFFFFFFFFFFFFFFFFFFFFFFFFFFF NOT AND DUP5 PUSH20 0xFFFFFFFFFFFFFFFFFFFFFFFFFFFFFFFFFFFFFFFF AND PUSH4 0x150B7A02 CALLER DUP9 DUP8 DUP8 PUSH1 0x40 MLOAD DUP6 PUSH4 0xFFFFFFFF AND PUSH1 0xE0 SHL DUP2 MSTORE PUSH1 0x4 ADD PUSH2 0x169A SWAP5 SWAP4 SWAP3 SWAP2 SWAP1 PUSH2 0x1CAD JUMP JUMPDEST PUSH1 0x20 PUSH1 0x40 MLOAD DUP1 DUP4 SUB DUP2 PUSH1 0x0 DUP8 DUP1 EXTCODESIZE ISZERO DUP1 ISZERO PUSH2 0x16B4 JUMPI PUSH1 0x0 DUP1 REVERT JUMPDEST POP GAS CALL ISZERO DUP1 ISZERO PUSH2 0x16C8 JUMPI RETURNDATASIZE PUSH1 0x0 DUP1 RETURNDATACOPY RETURNDATASIZE PUSH1 0x0 REVERT JUMPDEST POP POP POP POP PUSH1 0x40 MLOAD RETURNDATASIZE PUSH1 0x1F NOT PUSH1 0x1F DUP3 ADD AND DUP3 ADD DUP1 PUSH1 0x40 MSTORE POP DUP2 ADD SWAP1 PUSH2 0x16EC SWAP2 SWAP1 PUSH2 0x19C3 JUMP JUMPDEST POP POP PUSH1 0x1 SWAP1 POP SWAP5 SWAP4 POP POP POP POP JUMP JUMPDEST PUSH1 0x0 PUSH2 0x170D PUSH2 0x1708 DUP5 PUSH2 0x1ED6 JUMP JUMPDEST PUSH2 0x1EB1 JUMP JUMPDEST SWAP1 POP DUP3 DUP2 MSTORE PUSH1 0x20 DUP2 ADD DUP5 DUP5 DUP5 ADD GT ISZERO PUSH2 0x1729 JUMPI PUSH2 0x1728 PUSH2 0x2288 JUMP JUMPDEST JUMPDEST PUSH2 0x1734 DUP5 DUP3 DUP6 PUSH2 0x2079 JUMP JUMPDEST POP SWAP4 SWAP3 POP POP POP JUMP JUMPDEST PUSH1 0x0 DUP2 CALLDATALOAD SWAP1 POP PUSH2 0x174B DUP2 PUSH2 0x246B JUMP JUMPDEST SWAP3 SWAP2 POP POP JUMP JUMPDEST PUSH1 0x0 DUP2 CALLDATALOAD SWAP1 POP PUSH2 0x1760 DUP2 PUSH2 0x2482 JUMP JUMPDEST SWAP3 SWAP2 POP POP JUMP JUMPDEST PUSH1 0x0 DUP2 CALLDATALOAD SWAP1 POP PUSH2 0x1775 DUP2 PUSH2 0x2499 JUMP JUMPDEST SWAP3 SWAP2 POP POP JUMP JUMPDEST PUSH1 0x0 DUP2 MLOAD SWAP1 POP PUSH2 0x178A DUP2 PUSH2 0x2499 JUMP JUMPDEST SWAP3 SWAP2 POP POP JUMP JUMPDEST PUSH1 0x0 DUP3 PUSH1 0x1F DUP4 ADD SLT PUSH2 0x17A5 JUMPI PUSH2 0x17A4 PUSH2 0x2283 JUMP JUMPDEST JUMPDEST DUP2 CALLDATALOAD PUSH2 0x17B5 DUP5 DUP3 PUSH1 0x20 DUP7 ADD PUSH2 0x16FA JUMP JUMPDEST SWAP2 POP POP SWAP3 SWAP2 POP POP JUMP JUMPDEST PUSH1 0x0 DUP2 CALLDATALOAD SWAP1 POP PUSH2 0x17CD DUP2 PUSH2 0x24B0 JUMP JUMPDEST SWAP3 SWAP2 POP POP JUMP JUMPDEST PUSH1 0x0 PUSH1 0x20 DUP3 DUP5 SUB SLT ISZERO PUSH2 0x17E9 JUMPI PUSH2 0x17E8 PUSH2 0x2292 JUMP JUMPDEST JUMPDEST PUSH1 0x0 PUSH2 0x17F7 DUP5 DUP3 DUP6 ADD PUSH2 0x173C JUMP JUMPDEST SWAP2 POP POP SWAP3 SWAP2 POP POP JUMP JUMPDEST PUSH1 0x0 DUP1 PUSH1 0x40 DUP4 DUP6 SUB SLT ISZERO PUSH2 0x1817 JUMPI PUSH2 0x1816 PUSH2 0x2292 JUMP JUMPDEST JUMPDEST PUSH1 0x0 PUSH2 0x1825 DUP6 DUP3 DUP7 ADD PUSH2 0x173C JUMP JUMPDEST SWAP3 POP POP PUSH1 0x20 PUSH2 0x1836 DUP6 DUP3 DUP7 ADD PUSH2 0x173C JUMP JUMPDEST SWAP2 POP POP SWAP3 POP SWAP3 SWAP1 POP JUMP JUMPDEST PUSH1 0x0 DUP1 PUSH1 0x0 PUSH1 0x60 DUP5 DUP7 SUB SLT ISZERO PUSH2 0x1859 JUMPI PUSH2 0x1858 PUSH2 0x2292 JUMP JUMPDEST JUMPDEST PUSH1 0x0 PUSH2 0x1867 DUP7 DUP3 DUP8 ADD PUSH2 0x173C JUMP JUMPDEST SWAP4 POP POP PUSH1 0x20 PUSH2 0x1878 DUP7 DUP3 DUP8 ADD PUSH2 0x173C JUMP JUMPDEST SWAP3 POP POP PUSH1 0x40 PUSH2 0x1889 DUP7 DUP3 DUP8 ADD PUSH2 0x17BE JUMP JUMPDEST SWAP2 POP POP SWAP3 POP SWAP3 POP SWAP3 JUMP JUMPDEST PUSH1 0x0 DUP1 PUSH1 0x0 DUP1 PUSH1 0x80 DUP6 DUP8 SUB SLT ISZERO PUSH2 0x18AD JUMPI PUSH2 0x18AC PUSH2 0x2292 JUMP JUMPDEST JUMPDEST PUSH1 0x0 PUSH2 0x18BB DUP8 DUP3 DUP9 ADD PUSH2 0x173C JUMP JUMPDEST SWAP5 POP POP PUSH1 0x20 PUSH2 0x18CC DUP8 DUP3 DUP9 ADD PUSH2 0x173C JUMP JUMPDEST SWAP4 POP POP PUSH1 0x40 PUSH2 0x18DD DUP8 DUP3 DUP9 ADD PUSH2 0x17BE JUMP JUMPDEST SWAP3 POP POP PUSH1 0x60 DUP6 ADD CALLDATALOAD PUSH8 0xFFFFFFFFFFFFFFFF DUP2 GT ISZERO PUSH2 0x18FE JUMPI PUSH2 0x18FD PUSH2 0x228D JUMP JUMPDEST JUMPDEST PUSH2 0x190A DUP8 DUP3 DUP9 ADD PUSH2 0x1790 JUMP JUMPDEST SWAP2 POP POP SWAP3 SWAP6 SWAP2 SWAP5 POP SWAP3 POP JUMP JUMPDEST PUSH1 0x0 DUP1 PUSH1 0x40 DUP4 DUP6 SUB SLT ISZERO PUSH2 0x192D JUMPI PUSH2 0x192C PUSH2 0x2292 JUMP JUMPDEST JUMPDEST PUSH1 0x0 PUSH2 0x193B DUP6 DUP3 DUP7 ADD PUSH2 0x173C JUMP JUMPDEST SWAP3 POP POP PUSH1 0x20 PUSH2 0x194C DUP6 DUP3 DUP7 ADD PUSH2 0x1751 JUMP JUMPDEST SWAP2 POP POP SWAP3 POP SWAP3 SWAP1 POP JUMP JUMPDEST PUSH1 0x0 DUP1 PUSH1 0x40 DUP4 DUP6 SUB SLT ISZERO PUSH2 0x196D JUMPI PUSH2 0x196C PUSH2 0x2292 JUMP JUMPDEST JUMPDEST PUSH1 0x0 PUSH2 0x197B DUP6 DUP3 DUP7 ADD PUSH2 0x173C JUMP JUMPDEST SWAP3 POP POP PUSH1 0x20 PUSH2 0x198C DUP6 DUP3 DUP7 ADD PUSH2 0x17BE JUMP JUMPDEST SWAP2 POP POP SWAP3 POP SWAP3 SWAP1 POP JUMP JUMPDEST PUSH1 0x0 PUSH1 0x20 DUP3 DUP5 SUB SLT ISZERO PUSH2 0x19AC JUMPI PUSH2 0x19AB PUSH2 0x2292 JUMP JUMPDEST JUMPDEST PUSH1 0x0 PUSH2 0x19BA DUP5 DUP3 DUP6 ADD PUSH2 0x1766 JUMP JUMPDEST SWAP2 POP POP SWAP3 SWAP2 POP POP JUMP JUMPDEST PUSH1 0x0 PUSH1 0x20 DUP3 DUP5 SUB SLT ISZERO PUSH2 0x19D9 JUMPI PUSH2 0x19D8 PUSH2 0x2292 JUMP JUMPDEST JUMPDEST PUSH1 0x0 PUSH2 0x19E7 DUP5 DUP3 DUP6 ADD PUSH2 0x177B JUMP JUMPDEST SWAP2 POP POP SWAP3 SWAP2 POP POP JUMP JUMPDEST PUSH1 0x0 PUSH1 0x20 DUP3 DUP5 SUB SLT ISZERO PUSH2 0x1A06 JUMPI PUSH2 0x1A05 PUSH2 0x2292 JUMP JUMPDEST JUMPDEST PUSH1 0x0 PUSH2 0x1A14 DUP5 DUP3 DUP6 ADD PUSH2 0x17BE JUMP JUMPDEST SWAP2 POP POP SWAP3 SWAP2 POP POP JUMP JUMPDEST PUSH2 0x1A26 DUP2 PUSH2 0x2005 JUMP JUMPDEST DUP3 MSTORE POP POP JUMP JUMPDEST PUSH2 0x1A35 DUP2 PUSH2 0x2017 JUMP JUMPDEST DUP3 MSTORE POP POP JUMP JUMPDEST PUSH1 0x0 PUSH2 0x1A46 DUP3 PUSH2 0x1F07 JUMP JUMPDEST PUSH2 0x1A50 DUP2 DUP6 PUSH2 0x1F1D JUMP JUMPDEST SWAP4 POP PUSH2 0x1A60 DUP2 DUP6 PUSH1 0x20 DUP7 ADD PUSH2 0x2088 JUMP JUMPDEST PUSH2 0x1A69 DUP2 PUSH2 0x2297 JUMP JUMPDEST DUP5 ADD SWAP2 POP POP SWAP3 SWAP2 POP POP JUMP JUMPDEST PUSH1 0x0 PUSH2 0x1A7F DUP3 PUSH2 0x1F12 JUMP JUMPDEST PUSH2 0x1A89 DUP2 DUP6 PUSH2 0x1F2E JUMP JUMPDEST SWAP4 POP PUSH2 0x1A99 DUP2 DUP6 PUSH1 0x20 DUP7 ADD PUSH2 0x2088 JUMP JUMPDEST PUSH2 0x1AA2 DUP2 PUSH2 0x2297 JUMP JUMPDEST DUP5 ADD SWAP2 POP POP SWAP3 SWAP2 POP POP JUMP JUMPDEST PUSH1 0x0 PUSH2 0x1AB8 DUP3 PUSH2 0x1F12 JUMP JUMPDEST PUSH2 0x1AC2 DUP2 DUP6 PUSH2 0x1F3F JUMP JUMPDEST SWAP4 POP PUSH2 0x1AD2 DUP2 DUP6 PUSH1 0x20 DUP7 ADD PUSH2 0x2088 JUMP JUMPDEST DUP1 DUP5 ADD SWAP2 POP POP SWAP3 SWAP2 POP POP JUMP JUMPDEST PUSH1 0x0 PUSH2 0x1AEB PUSH1 0x16 DUP4 PUSH2 0x1F2E JUMP JUMPDEST SWAP2 POP PUSH2 0x1AF6 DUP3 PUSH2 0x22A8 JUMP JUMPDEST PUSH1 0x20 DUP3 ADD SWAP1 POP SWAP2 SWAP1 POP JUMP JUMPDEST PUSH1 0x0 PUSH2 0x1B0E PUSH1 0x1C DUP4 PUSH2 0x1F2E JUMP JUMPDEST SWAP2 POP PUSH2 0x1B19 DUP3 PUSH2 0x22D1 JUMP JUMPDEST PUSH1 0x20 DUP3 ADD SWAP1 POP SWAP2 SWAP1 POP JUMP JUMPDEST PUSH1 0x0 PUSH2 0x1B31 PUSH1 0x1E DUP4 PUSH2 0x1F2E JUMP JUMPDEST SWAP2 POP PUSH2 0x1B3C DUP3 PUSH2 0x22FA JUMP JUMPDEST PUSH1 0x20 DUP3 ADD SWAP1 POP SWAP2 SWAP1 POP JUMP JUMPDEST PUSH1 0x0 PUSH2 0x1B54 PUSH1 0x14 DUP4 PUSH2 0x1F2E JUMP JUMPDEST SWAP2 POP PUSH2 0x1B5F DUP3 PUSH2 0x2323 JUMP JUMPDEST PUSH1 0x20 DUP3 ADD SWAP1 POP SWAP2 SWAP1 POP JUMP JUMPDEST PUSH1 0x0 PUSH2 0x1B77 PUSH1 0x13 DUP4 PUSH2 0x1F2E JUMP JUMPDEST SWAP2 POP PUSH2 0x1B82 DUP3 PUSH2 0x234C JUMP JUMPDEST PUSH1 0x20 DUP3 ADD SWAP1 POP SWAP2 SWAP1 POP JUMP JUMPDEST PUSH1 0x0 PUSH2 0x1B9A PUSH1 0x14 DUP4 PUSH2 0x1F2E JUMP JUMPDEST SWAP2 POP PUSH2 0x1BA5 DUP3 PUSH2 0x2375 JUMP JUMPDEST PUSH1 0x20 DUP3 ADD SWAP1 POP SWAP2 SWAP1 POP JUMP JUMPDEST PUSH1 0x0 PUSH2 0x1BBD PUSH1 0x12 DUP4 PUSH2 0x1F2E JUMP JUMPDEST SWAP2 POP PUSH2 0x1BC8 DUP3 PUSH2 0x239E JUMP JUMPDEST PUSH1 0x20 DUP3 ADD SWAP1 POP SWAP2 SWAP1 POP JUMP JUMPDEST PUSH1 0x0 PUSH2 0x1BE0 PUSH1 0xF DUP4 PUSH2 0x1F2E JUMP JUMPDEST SWAP2 POP PUSH2 0x1BEB DUP3 PUSH2 0x23C7 JUMP JUMPDEST PUSH1 0x20 DUP3 ADD SWAP1 POP SWAP2 SWAP1 POP JUMP JUMPDEST PUSH1 0x0 PUSH2 0x1C03 PUSH1 0x14 DUP4 PUSH2 0x1F2E JUMP JUMPDEST SWAP2 POP PUSH2 0x1C0E DUP3 PUSH2 0x23F0 JUMP JUMPDEST PUSH1 0x20 DUP3 ADD SWAP1 POP SWAP2 SWAP1 POP JUMP JUMPDEST PUSH1 0x0 PUSH2 0x1C26 PUSH1 0x12 DUP4 PUSH2 0x1F2E JUMP JUMPDEST SWAP2 POP PUSH2 0x1C31 DUP3 PUSH2 0x2419 JUMP JUMPDEST PUSH1 0x20 DUP3 ADD SWAP1 POP SWAP2 SWAP1 POP JUMP JUMPDEST PUSH1 0x0 PUSH2 0x1C49 PUSH1 0x9 DUP4 PUSH2 0x1F2E JUMP JUMPDEST SWAP2 POP PUSH2 0x1C54 DUP3 PUSH2 0x2442 JUMP JUMPDEST PUSH1 0x20 DUP3 ADD SWAP1 POP SWAP2 SWAP1 POP JUMP JUMPDEST PUSH2 0x1C68 DUP2 PUSH2 0x206F JUMP JUMPDEST DUP3 MSTORE POP POP JUMP JUMPDEST PUSH1 0x0 PUSH2 0x1C7A DUP3 DUP6 PUSH2 0x1AAD JUMP JUMPDEST SWAP2 POP PUSH2 0x1C86 DUP3 DUP5 PUSH2 0x1AAD JUMP JUMPDEST SWAP2 POP DUP2 SWAP1 POP SWAP4 SWAP3 POP POP POP JUMP JUMPDEST PUSH1 0x0 PUSH1 0x20 DUP3 ADD SWAP1 POP PUSH2 0x1CA7 PUSH1 0x0 DUP4 ADD DUP5 PUSH2 0x1A1D JUMP JUMPDEST SWAP3 SWAP2 POP POP JUMP JUMPDEST PUSH1 0x0 PUSH1 0x80 DUP3 ADD SWAP1 POP PUSH2 0x1CC2 PUSH1 0x0 DUP4 ADD DUP8 PUSH2 0x1A1D JUMP JUMPDEST PUSH2 0x1CCF PUSH1 0x20 DUP4 ADD DUP7 PUSH2 0x1A1D JUMP JUMPDEST PUSH2 0x1CDC PUSH1 0x40 DUP4 ADD DUP6 PUSH2 0x1C5F JUMP JUMPDEST DUP2 DUP2 SUB PUSH1 0x60 DUP4 ADD MSTORE PUSH2 0x1CEE DUP2 DUP5 PUSH2 0x1A3B JUMP JUMPDEST SWAP1 POP SWAP6 SWAP5 POP POP POP POP POP JUMP JUMPDEST PUSH1 0x0 PUSH1 0x20 DUP3 ADD SWAP1 POP PUSH2 0x1D0E PUSH1 0x0 DUP4 ADD DUP5 PUSH2 0x1A2C JUMP JUMPDEST SWAP3 SWAP2 POP POP JUMP JUMPDEST PUSH1 0x0 PUSH1 0x20 DUP3 ADD SWAP1 POP DUP2 DUP2 SUB PUSH1 0x0 DUP4 ADD MSTORE PUSH2 0x1D2E DUP2 DUP5 PUSH2 0x1A74 JUMP JUMPDEST SWAP1 POP SWAP3 SWAP2 POP POP JUMP JUMPDEST PUSH1 0x0 PUSH1 0x20 DUP3 ADD SWAP1 POP DUP2 DUP2 SUB PUSH1 0x0 DUP4 ADD MSTORE PUSH2 0x1D4F DUP2 PUSH2 0x1ADE JUMP JUMPDEST SWAP1 POP SWAP2 SWAP1 POP JUMP JUMPDEST PUSH1 0x0 PUSH1 0x20 DUP3 ADD SWAP1 POP DUP2 DUP2 SUB PUSH1 0x0 DUP4 ADD MSTORE PUSH2 0x1D6F DUP2 PUSH2 0x1B01 JUMP JUMPDEST SWAP1 POP SWAP2 SWAP1 POP JUMP JUMPDEST PUSH1 0x0 PUSH1 0x20 DUP3 ADD SWAP1 POP DUP2 DUP2 SUB PUSH1 0x0 DUP4 ADD MSTORE PUSH2 0x1D8F DUP2 PUSH2 0x1B24 JUMP JUMPDEST SWAP1 POP SWAP2 SWAP1 POP JUMP JUMPDEST PUSH1 0x0 PUSH1 0x20 DUP3 ADD SWAP1 POP DUP2 DUP2 SUB PUSH1 0x0 DUP4 ADD MSTORE PUSH2 0x1DAF DUP2 PUSH2 0x1B47 JUMP JUMPDEST SWAP1 POP SWAP2 SWAP1 POP JUMP JUMPDEST PUSH1 0x0 PUSH1 0x20 DUP3 ADD SWAP1 POP DUP2 DUP2 SUB PUSH1 0x0 DUP4 ADD MSTORE PUSH2 0x1DCF DUP2 PUSH2 0x1B6A JUMP JUMPDEST SWAP1 POP SWAP2 SWAP1 POP JUMP JUMPDEST PUSH1 0x0 PUSH1 0x20 DUP3 ADD SWAP1 POP DUP2 DUP2 SUB PUSH1 0x0 DUP4 ADD MSTORE PUSH2 0x1DEF DUP2 PUSH2 0x1B8D JUMP JUMPDEST SWAP1 POP SWAP2 SWAP1 POP JUMP JUMPDEST PUSH1 0x0 PUSH1 0x20 DUP3 ADD SWAP1 POP DUP2 DUP2 SUB PUSH1 0x0 DUP4 ADD MSTORE PUSH2 0x1E0F DUP2 PUSH2 0x1BB0 JUMP JUMPDEST SWAP1 POP SWAP2 SWAP1 POP JUMP JUMPDEST PUSH1 0x0 PUSH1 0x20 DUP3 ADD SWAP1 POP DUP2 DUP2 SUB PUSH1 0x0 DUP4 ADD MSTORE PUSH2 0x1E2F DUP2 PUSH2 0x1BD3 JUMP JUMPDEST SWAP1 POP SWAP2 SWAP1 POP JUMP JUMPDEST PUSH1 0x0 PUSH1 0x20 DUP3 ADD SWAP1 POP DUP2 DUP2 SUB PUSH1 0x0 DUP4 ADD MSTORE PUSH2 0x1E4F DUP2 PUSH2 0x1BF6 JUMP JUMPDEST SWAP1 POP SWAP2 SWAP1 POP JUMP JUMPDEST PUSH1 0x0 PUSH1 0x20 DUP3 ADD SWAP1 POP DUP2 DUP2 SUB PUSH1 0x0 DUP4 ADD MSTORE PUSH2 0x1E6F DUP2 PUSH2 0x1C19 JUMP JUMPDEST SWAP1 POP SWAP2 SWAP1 POP JUMP JUMPDEST PUSH1 0x0 PUSH1 0x20 DUP3 ADD SWAP1 POP DUP2 DUP2 SUB PUSH1 0x0 DUP4 ADD MSTORE PUSH2 0x1E8F DUP2 PUSH2 0x1C3C JUMP JUMPDEST SWAP1 POP SWAP2 SWAP1 POP JUMP JUMPDEST PUSH1 0x0 PUSH1 0x20 DUP3 ADD SWAP1 POP PUSH2 0x1EAB PUSH1 0x0 DUP4 ADD DUP5 PUSH2 0x1C5F JUMP JUMPDEST SWAP3 SWAP2 POP POP JUMP JUMPDEST PUSH1 0x0 PUSH2 0x1EBB PUSH2 0x1ECC JUMP JUMPDEST SWAP1 POP PUSH2 0x1EC7 DUP3 DUP3 PUSH2 0x20ED JUMP JUMPDEST SWAP2 SWAP1 POP JUMP JUMPDEST PUSH1 0x0 PUSH1 0x40 MLOAD SWAP1 POP SWAP1 JUMP JUMPDEST PUSH1 0x0 PUSH8 0xFFFFFFFFFFFFFFFF DUP3 GT ISZERO PUSH2 0x1EF1 JUMPI PUSH2 0x1EF0 PUSH2 0x2254 JUMP JUMPDEST JUMPDEST PUSH2 0x1EFA DUP3 PUSH2 0x2297 JUMP JUMPDEST SWAP1 POP PUSH1 0x20 DUP2 ADD SWAP1 POP SWAP2 SWAP1 POP JUMP JUMPDEST PUSH1 0x0 DUP2 MLOAD SWAP1 POP SWAP2 SWAP1 POP JUMP JUMPDEST PUSH1 0x0 DUP2 MLOAD SWAP1 POP SWAP2 SWAP1 POP JUMP JUMPDEST PUSH1 0x0 DUP3 DUP3 MSTORE PUSH1 0x20 DUP3 ADD SWAP1 POP SWAP3 SWAP2 POP POP JUMP JUMPDEST PUSH1 0x0 DUP3 DUP3 MSTORE PUSH1 0x20 DUP3 ADD SWAP1 POP SWAP3 SWAP2 POP POP JUMP JUMPDEST PUSH1 0x0 DUP2 SWAP1 POP SWAP3 SWAP2 POP POP JUMP JUMPDEST PUSH1 0x0 PUSH2 0x1F55 DUP3 PUSH2 0x206F JUMP JUMPDEST SWAP2 POP PUSH2 0x1F60 DUP4 PUSH2 0x206F JUMP JUMPDEST SWAP3 POP DUP3 PUSH32 0xFFFFFFFFFFFFFFFFFFFFFFFFFFFFFFFFFFFFFFFFFFFFFFFFFFFFFFFFFFFFFFFF SUB DUP3 GT ISZERO PUSH2 0x1F95 JUMPI PUSH2 0x1F94 PUSH2 0x2198 JUMP JUMPDEST JUMPDEST DUP3 DUP3 ADD SWAP1 POP SWAP3 SWAP2 POP POP JUMP JUMPDEST PUSH1 0x0 PUSH2 0x1FAB DUP3 PUSH2 0x206F JUMP JUMPDEST SWAP2 POP PUSH2 0x1FB6 DUP4 PUSH2 0x206F JUMP JUMPDEST SWAP3 POP DUP3 PUSH2 0x1FC6 JUMPI PUSH2 0x1FC5 PUSH2 0x21C7 JUMP JUMPDEST JUMPDEST DUP3 DUP3 DIV SWAP1 POP SWAP3 SWAP2 POP POP JUMP JUMPDEST PUSH1 0x0 PUSH2 0x1FDC DUP3 PUSH2 0x206F JUMP JUMPDEST SWAP2 POP PUSH2 0x1FE7 DUP4 PUSH2 0x206F JUMP JUMPDEST SWAP3 POP DUP3 DUP3 LT ISZERO PUSH2 0x1FFA JUMPI PUSH2 0x1FF9 PUSH2 0x2198 JUMP JUMPDEST JUMPDEST DUP3 DUP3 SUB SWAP1 POP SWAP3 SWAP2 POP POP JUMP JUMPDEST PUSH1 0x0 PUSH2 0x2010 DUP3 PUSH2 0x204F JUMP JUMPDEST SWAP1 POP SWAP2 SWAP1 POP JUMP JUMPDEST PUSH1 0x0 DUP2 ISZERO ISZERO SWAP1 POP SWAP2 SWAP1 POP JUMP JUMPDEST PUSH1 0x0 PUSH32 0xFFFFFFFF00000000000000000000000000000000000000000000000000000000 DUP3 AND SWAP1 POP SWAP2 SWAP1 POP JUMP JUMPDEST PUSH1 0x0 PUSH20 0xFFFFFFFFFFFFFFFFFFFFFFFFFFFFFFFFFFFFFFFF DUP3 AND SWAP1 POP SWAP2 SWAP1 POP JUMP JUMPDEST PUSH1 0x0 DUP2 SWAP1 POP SWAP2 SWAP1 POP JUMP JUMPDEST DUP3 DUP2 DUP4 CALLDATACOPY PUSH1 0x0 DUP4 DUP4 ADD MSTORE POP POP POP JUMP JUMPDEST PUSH1 0x0 JUMPDEST DUP4 DUP2 LT ISZERO PUSH2 0x20A6 JUMPI DUP1 DUP3 ADD MLOAD DUP2 DUP5 ADD MSTORE PUSH1 0x20 DUP2 ADD SWAP1 POP PUSH2 0x208B JUMP JUMPDEST DUP4 DUP2 GT ISZERO PUSH2 0x20B5 JUMPI PUSH1 0x0 DUP5 DUP5 ADD MSTORE JUMPDEST POP POP POP POP JUMP JUMPDEST PUSH1 0x0 PUSH1 0x2 DUP3 DIV SWAP1 POP PUSH1 0x1 DUP3 AND DUP1 PUSH2 0x20D3 JUMPI PUSH1 0x7F DUP3 AND SWAP2 POP JUMPDEST PUSH1 0x20 DUP3 LT DUP2 EQ ISZERO PUSH2 0x20E7 JUMPI PUSH2 0x20E6 PUSH2 0x21F6 JUMP JUMPDEST JUMPDEST POP SWAP2 SWAP1 POP JUMP JUMPDEST PUSH2 0x20F6 DUP3 PUSH2 0x2297 JUMP JUMPDEST DUP2 ADD DUP2 DUP2 LT PUSH8 0xFFFFFFFFFFFFFFFF DUP3 GT OR ISZERO PUSH2 0x2115 JUMPI PUSH2 0x2114 PUSH2 0x2254 JUMP JUMPDEST JUMPDEST DUP1 PUSH1 0x40 MSTORE POP POP POP JUMP JUMPDEST PUSH1 0x0 PUSH2 0x2129 DUP3 PUSH2 0x206F JUMP JUMPDEST SWAP2 POP PUSH32 0xFFFFFFFFFFFFFFFFFFFFFFFFFFFFFFFFFFFFFFFFFFFFFFFFFFFFFFFFFFFFFFFF DUP3 EQ ISZERO PUSH2 0x215C JUMPI PUSH2 0x215B PUSH2 0x2198 JUMP JUMPDEST JUMPDEST PUSH1 0x1 DUP3 ADD SWAP1 POP SWAP2 SWAP1 POP JUMP JUMPDEST PUSH1 0x0 PUSH2 0x2172 DUP3 PUSH2 0x206F JUMP JUMPDEST SWAP2 POP PUSH2 0x217D DUP4 PUSH2 0x206F JUMP JUMPDEST SWAP3 POP DUP3 PUSH2 0x218D JUMPI PUSH2 0x218C PUSH2 0x21C7 JUMP JUMPDEST JUMPDEST DUP3 DUP3 MOD SWAP1 POP SWAP3 SWAP2 POP POP JUMP JUMPDEST PUSH32 0x4E487B7100000000000000000000000000000000000000000000000000000000 PUSH1 0x0 MSTORE PUSH1 0x11 PUSH1 0x4 MSTORE PUSH1 0x24 PUSH1 0x0 REVERT JUMPDEST PUSH32 0x4E487B7100000000000000000000000000000000000000000000000000000000 PUSH1 0x0 MSTORE PUSH1 0x12 PUSH1 0x4 MSTORE PUSH1 0x24 PUSH1 0x0 REVERT JUMPDEST PUSH32 0x4E487B7100000000000000000000000000000000000000000000000000000000 PUSH1 0x0 MSTORE PUSH1 0x22 PUSH1 0x4 MSTORE PUSH1 0x24 PUSH1 0x0 REVERT JUMPDEST PUSH32 0x4E487B7100000000000000000000000000000000000000000000000000000000 PUSH1 0x0 MSTORE PUSH1 0x32 PUSH1 0x4 MSTORE PUSH1 0x24 PUSH1 0x0 REVERT JUMPDEST PUSH32 0x4E487B7100000000000000000000000000000000000000000000000000000000 PUSH1 0x0 MSTORE PUSH1 0x41 PUSH1 0x4 MSTORE PUSH1 0x24 PUSH1 0x0 REVERT JUMPDEST PUSH1 0x0 DUP1 REVERT JUMPDEST PUSH1 0x0 DUP1 REVERT JUMPDEST PUSH1 0x0 DUP1 REVERT JUMPDEST PUSH1 0x0 DUP1 REVERT JUMPDEST PUSH1 0x0 PUSH1 0x1F NOT PUSH1 0x1F DUP4 ADD AND SWAP1 POP SWAP2 SWAP1 POP JUMP JUMPDEST PUSH32 0x6E6F74206F776E6572206E6F7220617070726F76656400000000000000000000 PUSH1 0x0 DUP3 ADD MSTORE POP JUMP JUMPDEST PUSH32 0x7472616E7366657220746F20746865207A65726F206164647265737300000000 PUSH1 0x0 DUP3 ADD MSTORE POP JUMP JUMPDEST PUSH32 0x6E6F74206F776E6572206E6F7220617070726F76656420666F7220616C6C0000 PUSH1 0x0 DUP3 ADD MSTORE POP JUMP JUMPDEST PUSH32 0x6D696E7420746F207A65726F2061646472657373000000000000000000000000 PUSH1 0x0 DUP3 ADD MSTORE POP JUMP JUMPDEST PUSH32 0x746F6B656E20646F65736E277420657869737400000000000000000000000000 PUSH1 0x0 DUP3 ADD MSTORE POP JUMP JUMPDEST PUSH32 0x6F776E6572203D207A65726F2061646472657373000000000000000000000000 PUSH1 0x0 DUP3 ADD MSTORE POP JUMP JUMPDEST PUSH32 0x6E6F74206F776E6572206F6620746F6B656E0000000000000000000000000000 PUSH1 0x0 DUP3 ADD MSTORE POP JUMP JUMPDEST PUSH32 0x546F6B656E204E6F742045786973740000000000000000000000000000000000 PUSH1 0x0 DUP3 ADD MSTORE POP JUMP JUMPDEST PUSH32 0x746F6B656E20616C7265616479206D696E746564000000000000000000000000 PUSH1 0x0 DUP3 ADD MSTORE POP JUMP JUMPDEST PUSH32 0x6E6F742045524337323152656365697665720000000000000000000000000000 PUSH1 0x0 DUP3 ADD MSTORE POP JUMP JUMPDEST PUSH32 0x6E6F74206F776E65720000000000000000000000000000000000000000000000 PUSH1 0x0 DUP3 ADD MSTORE POP JUMP JUMPDEST PUSH2 0x2474 DUP2 PUSH2 0x2005 JUMP JUMPDEST DUP2 EQ PUSH2 0x247F JUMPI PUSH1 0x0 DUP1 REVERT JUMPDEST POP JUMP JUMPDEST PUSH2 0x248B DUP2 PUSH2 0x2017 JUMP JUMPDEST DUP2 EQ PUSH2 0x2496 JUMPI PUSH1 0x0 DUP1 REVERT JUMPDEST POP JUMP JUMPDEST PUSH2 0x24A2 DUP2 PUSH2 0x2023 JUMP JUMPDEST DUP2 EQ PUSH2 0x24AD JUMPI PUSH1 0x0 DUP1 REVERT JUMPDEST POP JUMP JUMPDEST PUSH2 0x24B9 DUP2 PUSH2 0x206F JUMP JUMPDEST DUP2 EQ PUSH2 0x24C4 JUMPI PUSH1 0x0 DUP1 REVERT JUMPDEST POP JUMP INVALID LOG2 PUSH5 0x6970667358 0x22 SLT KECCAK256 SWAP8 0xD PUSH25 0x7AACC2B30C2534D92F716887223FEC191D9BFB1877E71FD9A3 0x4A PUSH4 0x527A6473 PUSH16 0x6C634300080700330000000000000000 "
				},
				"gasEstimates": {
					"creation": {
						"codeDepositCost": "1893800",
						"executionCost": "infinite",
						"totalCost": "infinite"
					},
					"external": {
						"approve(address,uint256)": "31556",
						"balanceOf(address)": "2946",
						"burn(uint256)": "infinite",
						"getApproved(uint256)": "5185",
						"isApprovedForAll(address,address)": "infinite",
						"mint(address,uint256)": "infinite",
						"name()": "infinite",
						"ownerOf(uint256)": "3001",
						"safeTransferFrom(address,address,uint256)": "infinite",
						"safeTransferFrom(address,address,uint256,bytes)": "infinite",
						"setApprovalForAll(address,bool)": "infinite",
						"supportsInterface(bytes4)": "754",
						"symbol()": "infinite",
						"tokenURI(uint256)": "3352",
						"transferFrom(address,address,uint256)": "infinite"
					},
					"internal": {
						"_approve(address,address,uint256)": "26292",
						"_baseURI()": "infinite",
						"_burn(uint256)": "infinite",
						"_checkOnERC721Received(address,address,uint256,bytes memory)": "infinite",
						"_isApprovedOrOwner(address,address,uint256)": "4648",
						"_mint(address,uint256)": "infinite",
						"_safeTransfer(address,address,address,uint256,bytes memory)": "infinite",
						"_transfer(address,address,address,uint256)": "infinite",
						"isContract(address)": "infinite"
					}
				},
				"methodIdentifiers": {
					"approve(address,uint256)": "095ea7b3",
					"balanceOf(address)": "70a08231",
					"burn(uint256)": "42966c68",
					"getApproved(uint256)": "081812fc",
					"isApprovedForAll(address,address)": "e985e9c5",
					"mint(address,uint256)": "40c10f19",
					"name()": "06fdde03",
					"ownerOf(uint256)": "6352211e",
					"safeTransferFrom(address,address,uint256)": "42842e0e",
					"safeTransferFrom(address,address,uint256,bytes)": "b88d4fde",
					"setApprovalForAll(address,bool)": "a22cb465",
					"supportsInterface(bytes4)": "01ffc9a7",
					"symbol()": "95d89b41",
					"tokenURI(uint256)": "c87b56dd",
					"transferFrom(address,address,uint256)": "23b872dd"
				}
			},
			"storageLayout": {
				"storage": [
					{
						"astId": 16,
						"contract": "nft-loans/contracts/ERC721.sol:ERC721",
						"label": "name",
						"offset": 0,
						"slot": "0",
						"type": "t_string_storage"
					},
					{
						"astId": 19,
						"contract": "nft-loans/contracts/ERC721.sol:ERC721",
						"label": "symbol",
						"offset": 0,
						"slot": "1",
						"type": "t_string_storage"
					},
					{
						"astId": 23,
						"contract": "nft-loans/contracts/ERC721.sol:ERC721",
						"label": "_owners",
						"offset": 0,
						"slot": "2",
						"type": "t_mapping(t_uint256,t_address)"
					},
					{
						"astId": 27,
						"contract": "nft-loans/contracts/ERC721.sol:ERC721",
						"label": "_balances",
						"offset": 0,
						"slot": "3",
						"type": "t_mapping(t_address,t_uint256)"
					},
					{
						"astId": 31,
						"contract": "nft-loans/contracts/ERC721.sol:ERC721",
						"label": "_tokenApprovals",
						"offset": 0,
						"slot": "4",
						"type": "t_mapping(t_uint256,t_address)"
					},
					{
						"astId": 37,
						"contract": "nft-loans/contracts/ERC721.sol:ERC721",
						"label": "_operatorApprovals",
						"offset": 0,
						"slot": "5",
						"type": "t_mapping(t_address,t_mapping(t_address,t_bool))"
					}
				],
				"types": {
					"t_address": {
						"encoding": "inplace",
						"label": "address",
						"numberOfBytes": "20"
					},
					"t_bool": {
						"encoding": "inplace",
						"label": "bool",
						"numberOfBytes": "1"
					},
					"t_mapping(t_address,t_bool)": {
						"encoding": "mapping",
						"key": "t_address",
						"label": "mapping(address => bool)",
						"numberOfBytes": "32",
						"value": "t_bool"
					},
					"t_mapping(t_address,t_mapping(t_address,t_bool))": {
						"encoding": "mapping",
						"key": "t_address",
						"label": "mapping(address => mapping(address => bool))",
						"numberOfBytes": "32",
						"value": "t_mapping(t_address,t_bool)"
					},
					"t_mapping(t_address,t_uint256)": {
						"encoding": "mapping",
						"key": "t_address",
						"label": "mapping(address => uint256)",
						"numberOfBytes": "32",
						"value": "t_uint256"
					},
					"t_mapping(t_uint256,t_address)": {
						"encoding": "mapping",
						"key": "t_uint256",
						"label": "mapping(uint256 => address)",
						"numberOfBytes": "32",
						"value": "t_address"
					},
					"t_string_storage": {
						"encoding": "bytes",
						"label": "string",
						"numberOfBytes": "32"
					},
					"t_uint256": {
						"encoding": "inplace",
						"label": "uint256",
						"numberOfBytes": "32"
					}
				}
			},
			"userdoc": {
				"kind": "user",
				"methods": {},
				"version": 1
			}
		}
	}
}